:100000000C94CB040C94E8040C94E8040C94E804DD
:100010000C94E8040C94E8040C94E8040C94E804B0
:100020000C94E8040C94E8040C94FC1A0C943E1A0A
:100030000C944B220C94E8040C94E8040C94E8040F
:100040000C94E8040C94E8040C94E8040C94E80480
:100050000C94E8040C940A220C94E8040C94E80430
:100060000C94E8040C94E8040C94E8040C94E80460
:100070000C94E8040C94E8040C94E8040C94E80450
:100080000C94E8040C94E8040C94E8040C94E80440
:100090000C94E8040C94E8040C94E8040C94E80430
:1000A0000C94E8040C94E8040C94E80462096209D6
:1000B00095099509080A260A340B340B310AA50A5A
:1000C000B60AB60AE10FE40F0A1017101E10291025
:1000D0002C106E109010321132119B109D10A01038
:1000E000C510E710EA10ED10111150187718261AF4
:1000F0007718261AC318E618261ADC19EC193B27BC
:10010000312749279B279D279D279B279D279D2793
:100110006A279D2774277E279D279D279D279D273A
:100120009B279D279D279B279D2757279D279D27F9
:100130008E278E278E278E278E278E278E278E2717
:100140008E2796279D273B272E279D279D279D2776
:100150009D279D279D279D279D279D279D27962786
:100160009D279D279B279D278C278C278C278C27B5
:100170008C278C278C278C278C2796270000000043
:10018000000000000000000000000000000000006F
:10019000000000000000000000000000000000005F
:1001A0007E0F00D4FFFFFFC70000007800000000B2
:1001B000000000002A2B28000000000000000000C2
:1001C0000000000000000029000000002C1E342068
:1001D000212224342627252E362D3738271E1F208E
:1001E0002122232425263333362E37381F040506D3
:1001F0000708090A0B0C0D0E0F1011121314151617
:100200001718191A1B1C1D2F3130232D3504050614
:100210000708090A0B0C0D0E0F10111213141516F6
:100220001718191A1B1C1D2F3130354C1E0F0500D5
:10023000047F3F1F643214643214783C1E1E140A7B
:10024000050631FF0974A1010975150026FF009507
:1002500020750881020976150026FF009520750893
:100260009102C005010902A10185020901A1000551
:100270000919012908150025019508750181020554
:1002800001093009311581257F950275088106091C
:10029000381581257F950175088106050C0A3802FD
:1002A0001581257F950175088106C0C0050109806B
:1002B000A101850319012AB700150126B700950190
:1002C00075108100C0050C0901A101850419012ADE
:1002D000A002150126A002950175108100C005013C
:1002E0000906A1018506050719E029E71500250182
:1002F0009508750181020507190029EF15002501F0
:1003000095F075018102050819012905950575010A
:100310009102950175039101C00660FF0961A10179
:100320000962150026FF00952075088102096315F2
:100330000026FF00952075089102C005010906A15D
:1003400001050719E029E7150025019508750181C8
:10035000029501750881010507190029FF1500267E
:10036000FF00950675088100050819012905950506
:1003700075019102950175039101C009027B00048A
:100380000100A0FA09040000010301010009211184
:100390000100012240000705810308000109040152
:1003A00000020300000009211101000122220007C0
:1003B0000582032000010705030320000109040250
:1003C00000010300000009211101000122B600070D
:1003D0000584032000010904030002030000000952
:1003E00021110100012222000705850320000107D9
:1003F00005050320000112010002000000085476E8
:100400006100010001020001240330002D005300AF
:1004100069007800740079002D0075006E0064009A
:100420006500720067006C006F0077000000140325
:10043000760065006E0030006D00740072003000C0
:100440006E00000004030904000101010101010123
:100450000101020202020202020202030303030379
:100460000303030404040404040405050505050648
:100470000606060607070707070808080809090906
:10048000090A0A0A0B0B0B0C0C0C0D0D0D0E0E0EAF
:100490000F0F0F1010111111121213131414151540
:1004A00016161717181819191A1A1B1B1C1D1D1EB2
:1004B0001E1F202021222223242425262627282906
:1004C000292A2B2C2D2D2E2F303132323334353634
:1004D0003738393A3B3C3D3E3F4041424344454634
:1004E0004748494A4C4D4E4F505153545556585910
:1004F0005A5B5D5E5F616264656668696B6C6D6FB7
:100500007072737577787A7B7D7E80828385878829
:100510008A8C8E8F91939596989A9C9EA0A2A3A563
:10052000A7A9ABADAFB1B3B5B7BABCBEC0C2C4C664
:10053000C9CBCDCFD1D4D6D8DBDDDFE2E4E7E9EB20
:10054000EEF0F3F5F8FAFDFFFFAA7F554035001EE7
:10055000001F002000210022002300240025002687
:100560000027002A002B0014001A000800150017AD
:10057000001C0018000C00120013004C002900049D
:10058000001600070009000A000B000D000E000F06
:100590000033003400E1001D001B000600190005B7
:1005A000001100100036003700380028003900E044
:1005B00000E200E30001512C002C000251500051D8
:1005C0000052004F0035021E021F022002210222AB
:1005D00002230224022502260227022A0035021ED7
:1005E000021F0220022102220223022402250226E7
:1005F0000227024C004C003A003B003C003D003E0C
:10060000003F002D022E022F023002310201004075
:100610000041004200430044004500320264024AA7
:10062000004D000100010001000100010001000176
:100630000001000351AB00AA00A900AE0035001E66
:10064000001F002000210022002300240025002696
:100650000027002A0035001E001F00200021002274
:1006600000230024002500260027004C004C003AFF
:10067000003B003C003D003E003F002D002E002FBF
:1006800000300031000100400041004200430044BE
:10069000004500320064004B004E000100010001E3
:1006A00000010001000351010001000100AB00AA9C
:1006B00000A900AE003A003B003C003D003E003F78
:1006C000004000410042004300440045000100009A
:1006D0005C010001000100010001000100010001B6
:1006E0000001000100010001000100010001000102
:1006F00000010001000100010001000100010001F2
:1007000000010001000100010001000100010001E1
:1007100000010001000100010001000100010001D1
:1007200000010001000100010001000100010001C1
:1007300000010001000100010001000100010001B1
:1007400000010001000100010001000100010001A1
:100750000001000100010001000100010001000191
:100760000001000100010001000100010001000181
:100770000001000100010001000100010001000171
:100780000001000100010001000100010001000161
:100790000001000100010001000100010001000151
:1007A0000001000100010001000100010001000141
:1007B0000001000100010001000100010001000131
:1007C0000001000100010001000100010001000121
:1007D0000001000100010001000100010001000111
:1007E0000001000100010001000100010001000101
:1007F00000010001000100010001000100010001F1
:1008000000010001000100010001000100010001E0
:1008100000010001000100010001000100010001D0
:1008200000010001000100010001000100010001C0
:1008300000010001000100010001000100010001B0
:1008400000010001000100010001000100010001A0
:100850000001000100010001000100010001000190
:100860000001000100010001000100010001000180
:100870000001000100010001000100010001000170
:100880000001000100010001000100010001000160
:1008900000010001002223252628292A2C2D2F3093
:1008A00032333536383A3B3D3E4042434547494A6C
:1008B0004C4E5051535557595A5C5E60626466689D
:1008C000696B6D6F71737577797B7D7F81838587A8
:1008D000898A8C8E90929496989A9C9E9FA1A3A5AB
:1008E000A7A8AAACAEAFB1B3B4B6B8B9BBBCBEBFD3
:1008F000C1C2C3C5C6C7C9CACBCCCDCED0D1D2D256
:10090000D3D4D5D6D7D7D8D9D9DADADBDBDBDCDC60
:10091000DCDCDCDDDDDDDDDCDCDCDCDCDBDBDBDA18
:10092000DAD9D9D8D7D7D6D5D4D3D2D2D1D0CECD83
:10093000CCCBCAC9C7C6C5C3C2C1BFBEBCBBB9B890
:10094000B6B4B3B1AFAEACAAA8A7A5A3A19F9E9C15
:100950009A98969492908E8C8A89878583817F7DE0
:100960007B79777573716F6D6B6968666462605EC1
:100970005C5A5957555351504E4C4A49474543428A
:10098000403E3D3B3A3836353332302F2D2C2A2924
:1009900028262523220011241FBECFEFDAE0DEBF78
:1009A000CDBF11E0A0E0B1E0ECEBF8E502C00590AE
:1009B0000D92A63AB107D9F723E0A6EAB1E001C04B
:1009C0001D92A938B207E1F70E94330C0C945C2CFD
:1009D0000C9400000E94FE282FEF84E39CE021503D
:1009E00080409040E1F700C000009AE088E10FB637
:1009F000F894A895809360000FBE90936000FFCF9D
:100A0000A7E1B0E0E6E0F5E00C941A2C4B8B5C8B90
:100A10006D8B7E8B8F8B61111092420286E09E015E
:100A2000235F3F4FD901E82F1D92EA95E9F795E042
:100A3000FE017396D90101900D929A95E1F79C8978
:100A40004E895F897B897D879E876F87598B488B0D
:100A5000F901DE01179601900D928A95E1F7CE011A
:100A600007960E94DB1581113EC086E0FE01379695
:100A7000DE01119601900D928A95E1F7FF81E885DC
:100A80006A857B856115710531F0EF3F31F481E0B6
:100A9000FF3F19F403C081E001C080E080FD23C066
:100AA0002091EF0130E0C9010196877099274091AC
:100AB000200250E08417950779F1F983EA837D835A
:100AC0006C8396E0929FD001939FB00D1124A051AA
:100AD000BE4FFE01319601900D929A95E1F78093F9
:100AE000EF010E945B1516E0809120029091EF01CA
:100AF0008917F9F0189FC001112480519E4F0E9460
:100B0000DB158823B1F08091200290E00196877078
:100B1000992780932002E8CF0E94FE281092EF01CF
:100B200010922002E9EEF1E086E0DF011D928A9545
:100B3000E9F76796E3E00C94362C81FF02C02E9A09
:100B400008952E980895A9E0B0E0E9EAF5E00C9444
:100B50000C2CFC018081918123813481232B31F085
:100B60009F3F31F491E08F3F19F403C091E001C041
:100B700090E090FD74C67F0185E0DE011196019042
:100B80000D928A95E1F7F701228189819A812223CA
:100B900049F00E942328182F682F89819A810E948A
:100BA000862803C00E945228182F69817A81812FDC
:100BB0000E940D248C01F7018281882309F4F5C07D
:100BC000980122513F452031310508F00AC18FEFCD
:100BD00093E00E94022B8111F2C002513FE6832E66
:100BE00033E0932E002379F08114F4E09F0609F49A
:100BF000E6C0C4010E94022B811101C001502FEFF9
:100C0000821A920AEFCF1E821F8218861986442408
:100C100043942AE0322E84010F5F1F4FC4010E94CB
:100C2000022B8E831F82882309F4C9C09FEF980F7F
:100C3000933060F48F834E8232E0830E911CC801A2
:100C40000E94022B8887811102C0B9C048018E0121
:100C50000A5F1F4FF80120812223E9F2213009F0B9
:100C60004CC08181813049F46801F2E0CF0ED11C83
:100C7000F80182810E94872A0AC0823051F46801FB
:100C8000F2E0CF0ED11CF80182810E9488298601F2
:100C900089C0833049F46801F2E0CF0ED11CF8011D
:100CA00082810E942529F3CF843019F00F5F1F4FF6
:100CB00079C0F80122810E5F1F4F80E090E030E0A4
:100CC000205331092A30310568F4389EA001399E3D
:100CD000500D1124C901840F951F0F5F1F4FF8019C
:100CE0002081EDCF009709F45DC0EFE9FFE0319777
:100CF000F1F700C000000197F5CFE22FF0E0E455D6
:100D0000FE4F5490822F86958695869590E0FC0143
:100D1000E456FE4F64902770712C022E02C0759429
:100D200067940A94E2F7F1E06F227724FC01E4571C
:100D3000FE4FA490B12C022E02C0B594A7940A9441
:100D4000E2F731E0A322BB24FC01E458FE4FC4903B
:100D5000D12C02C0D594C7942A95E2F781E0C8222D
:100D6000DD246114710419F081EE0E948829A11418
:100D7000B10419F086EE0E948829852D0E94872AE9
:100D8000A114B10419F086EE0E94252961147104A2
:100D900019F081EE0E942529C114D10419F08CE2CA
:100DA0000E94872A0F5F1F4F55CF00313FE5130781
:100DB00009F07BC481E00E94C0280E9462178091E4
:100DC0002102877009F44BC5F7018281882309F459
:100DD00046C58091A20282FF42C582E00E94221590
:100DE0003EC50031FFE51F0711F481E005C0013168
:100DF0002FE5120721F482E00E94CD28DECF033FC9
:100E0000FCE51F0749F406E221EE40EE63EF7CE5C6
:100E1000C7010E940A23D3CF043F2CE5120708F034
:100E200069C1083D3CE5130731F407E225EE45EEC4
:100E300068ED7CE5EDCF093D9CE5190731F408E24A
:100E400021E045EE69ED7CE5E3CF073DECE51E07CB
:100E500031F406E221EE41EE67ED7CE5D9CF88233F
:100E600009F47DC11092950203309DE5190758F4ED
:100E70000A3FECE51E0780F4C80182509C45449768
:100E800008F057C109C00136FDE51F0729F0053AF2
:100E90002DE5120709F04DC10E9438149093A2026B
:100EA0008093A10201313CE5130709F4C9C008F0A1
:100EB00043C009309CE5190709F49EC008F50530C8
:100EC000FCE51F0709F488C080F403303CE51307F4
:100ED00009F47BC008F07DC002309CE5190709F0D9
:100EE000F9C08091A1028160F3C00730ECE51E07D4
:100EF00009F47AC008F07CC08091A1028061E8C04A
:100F00000D302CE5120709F489C058F40B308CE53C
:100F1000180709F47BC008F07DC08091A1028860A9
:100F200071C00F30ECE51E0709F482C008F084C0E0
:100F30008091A102877FCCC00D3F2CE5120709F4F8
:100F400073C008F505318CE5180709F487C068F40B
:100F50000331ECE51E0709F477C008F097C00E9442
:100F6000FE288091A1028F77B3C00B3F2CE51207BA
:100F7000B9F108F056C00A3F8CE5180709F0AAC07D
:100F80008091A20241C001309DE5190709F48AC091
:100F900058F40F3FFCE51F0709F45BC008F06AC076
:100FA0008091A202826030C001363DE5130709F44A
:100FB0007FC0053A8DE5180709F484C002309DE52D
:100FC000190709F087C060E06EC08091A1028260BD
:100FD0007FC08091A10216C08091A102886078C074
:100FE0008091A20282604FC08091A102806270C095
:100FF0008091A10280646CC00E94FE288091A102B1
:10100000806866C0846064C081603DC08091A10238
:101010008E7F5EC08091A1028D7F5AC08091A10217
:1010200016C08091A20218C08091A2028D7F2BC0B1
:101030008091A1028F7E4CC08091A1028F7D48C01B
:101040008091A1028F7B44C08091A102877F8B7F1A
:101050003FC08091A2028D7F8E7F15C08091A1023A
:1010600082FB222720F991E0922790FB82F990FBE6
:1010700083F92EC08091A202982F909591708E7F57
:10108000892B90FB81F98093A20224C00E94FE2844
:101090008091A10287FB222720F991E0922790FB03
:1010A00087F916C061E08EE090E00E94162B12C016
:1010B0008091A10284FB222720F991E0922790FBE6
:1010C00084F906C08091A102982F909590FB80F939
:1010D0008093A1026091A1021091A20284E090E0AD
:1010E0000E94162B612F82E290E00E94162B0E9434
:1010F000FE2865CE053FFCE51F0731F406E221EE30
:1011000042EE65EF7CE584CE053F2CE5120730F416
:1011100007E225EE44EE64EF7CE57ACE063F3CE53F
:10112000130709F09CCE07E225EE46EE66EF7CE55C
:101130006FCE06318CE5180721F5809143028A7A3B
:1011400091E009F490E09093A801882311F065E301
:1011500001C069E289EC91E00E949C220FC0063137
:10116000ECE51E0709F044C08091A801882309F42A
:10117000A3C265E389EC91E00E9474220E94CD1421
:101180001ECE0A353DE5130769F158F401159CE5BB
:10119000190781F00E3D1C4509F047C00E94551407
:1011A00017C00C35FDE51F07A9F0F0F0073A1D4503
:1011B00079F03BC00E94FE288FEF94E3ECE0815071
:1011C0009040E040E1F700C000000E94F921F7CD17
:1011D0000E94EA048091A20282FB882780F991E0B4
:1011E000892703C081E001C080E00E943F151DC037
:1011F0008091430282720C3CECE51E0709F40EC399
:1012000008F08FC2063C2CE5120709F4F3C208F07F
:1012100064C2033C9CE5190709F4E2C208F04EC21F
:10122000023CFCE51F0709F4B6C2F7018281008188
:101230001181882349F0C8010E942328D82E682FE5
:10124000C8010E94862804C0C8010E945228D82ED6
:10125000B8018D2D0E940D240E949E12B82E192FC8
:10126000982EF7010281A580A2949FE0A922809187
:1012700021028770B9F00023A9F0812F807F80348C
:1012800021F080E28B0D883068F08091A20282FF0D
:1012900009C082E00E942215809121028770DD241E
:1012A000D3948111D12CC12EC2948FE0C8228C2DF1
:1012B00090E08C30910508F0D7C1FC01EA5AFF4F4D
:1012C0000C94EF2B812F807F1F70882311F01295D3
:1012D000107F0023B9F0112309F4B4C180E28B0D13
:1012E000883010F0911006C080914302182B1093A3
:1012F000430205C080914202182B109342020E94C3
:10130000CD14A0C18B2D0E942529112309F4ACC155
:1013100080E28B0D883080F1992071F110958091D9
:1013200042021823109342022AC0812F807F1F702F
:10133000803211F01295107F8B2D992021F0F1E071
:101340009F16D9F149C08091A20282FD1BC00023E3
:1013500069F0112339F080914302182B1093430256
:101360000E94CD1480E00E9488297EC180E00E9406
:101370002529112309F478C1812F0E94C6140E94E7
:10138000CD1472C1002381F080914402AA2051F053
:1013900021E0A21207C0182B181709F465C1109399
:1013A000440262C1812B10C0AA2021F031E0A316B3
:1013B00009F45AC10E94C01427C0002341F085E0FF
:1013C0008A1508F451C1812F0E941B294DC194E058
:1013D0009A1508F449C118C0002349F0AA2099F3CE
:1013E000F701858180FF2EC18F708583ECCFAA2005
:1013F00059F0893309F035C1FFEF27EE33E0F150A2
:1014000020403040E1F72BC1812F0E9414292CC1CC
:10141000812F86958695837019F0813061F024C103
:10142000002321F08B2D912F937002C080E090E07B
:101430000E94E72221C1002321F08B2D912F937070
:1014400002C080E090E00E94D12216C18B2D0023C3
:1014500019F00E94F11F02C00E94021F0E94D81EB4
:101460000BC1812F8370A9F5011102C14B2D42954B
:1014700046954770440F440F8B2D8F7090E09C0170
:10148000042E01C0220F0A94EAF7B4FE08C08FE0D0
:1014900090E001C0880F4A95EAF7809501C080E08E
:1014A000169516951370123069F088F490914502E4
:1014B000113019F0822B892302C0922B892B0E94B4
:1014C000D928D6C0822B909145028927F8CF822B4C
:1014D000F6CF002319F0812F817001C086958823F3
:1014E00009F4C6C04B2D429546954770440F440FF2
:1014F0008B2D8F7090E09C01042E01C0220F0A9466
:10150000EAF7B4FE08C08FE090E001C0880F4A956A
:10151000EAF7809501C080E0169516951370123099
:1015200059F078F490917A02113019F0822B8923C6
:1015300009C0922B892B06C0822B90917A028927B1
:1015400001C0822B0E94BB2893C01F70002339F07A
:10155000812F0E94CD288B2D0E941B2989C08B2DA5
:101560000E941429812F0E94C02882C08B2D92EFE7
:10157000991681F1991538F0E0EF9E1659F0F1EFC8
:101580009F1619F15BC023EF921659F134EF9316B1
:10159000C1F054C0002381F084E08A1508F464C0CF
:1015A0001F7181E090E0012E01C0880F0A94EAF7D4
:1015B00090917A02892720C095E09A1508F454C0CA
:1015C000EFCF8091A20282FD1AC0002329F0812F63
:1015D0008F7127C00023D9F3812F8F710E94C028FB
:1015E00043C0002341F01F7181E0012E01C0880F2C
:1015F0000A94EAF701C080E00E94BB2835C00023AE
:1016000099F01F71812F0E94CD288091A20282FF44
:1016100007C0E8E01E9FC00111248360809321026F
:10162000812F0E94CD2820C081E00E942215F1E088
:10163000FA15D0F482E00E94221516C0002321F092
:10164000AA2029F28B2D8FCEAA2031F2893349F4BA
:101650002FEF37EE83E0215030408040E1F700C0AB
:1016600000008B2D0E94252988EF8C0D843020F4FA
:101670000E94FD220E949D05DD2009F4F0C08091AA
:10168000210280FDECC0F701128285958595859534
:101690000E94CD28C7010E94A30580912102859553
:1016A000859585950E94C028DAC001319FE519070C
:1016B00009F0A5CB82E07FCB69E25CCD043C2CE550
:1016C000120709F492C0053C3CE5130709F0ADCDC3
:1016D00045E55EE16FE57EE1A5C0093C9CE51907A3
:1016E00009F492C078F4073CFCE51F0709F487C0B1
:1016F000083C2CE5120709F098CD48E45EE16BE365
:101700007EE190C00A3C3CE5130709F482C00B3C23
:101710009CE5190709F089CD44EE5CE166EF7CE1B8
:1017200081C0013DECE51E0709F488C0A0F40E3C21
:101730002CE5120709F47CC008F477C00F3C8CE557
:10174000180709F478C0003D9CE5190709F06DCD34
:101750006EE089E081C0043DECE51E0709F474C029
:1017600068F4023D2CE5120709F46BC0033D3CE52B
:10177000130709F05ACD61E088E16BC0053D8CE5A7
:10178000180709F464C00D359DE5190709F04DCD22
:101790006AE285E261C080916A0380FF1BC08E7F90
:1017A00080936A0360916A0370916B0380916C036C
:1017B00090916D030E94D11C10928F02EFEFF0E721
:1017C00022E0E150F0402040E1F700C000000E941C
:1017D000701CF5CA816080936A0361E0869539C008
:1017E0004BEA5EE165EB7EE11DC045EB5EE16BEA35
:1017F0007EE118C04FE55EE165E57EE113C04BE395
:101800005EE168E47EE10EC041E25EE16EE27EE10F
:1018100009C04EE25EE161E27EE104C046EF5CE1B8
:1018200064EE7CE10E940028CACA61E081E011C038
:1018300065E082E011C068E086E00EC064E18FE000
:101840000BC067E185E108C062E289E105C061E0A3
:1018500083E20E94691EB3CA0E94EC27B0CA29968F
:10186000E1E10C94282CAAE2B0E0E9E3FCE00C945E
:101870000C2C85B7806885BF85B7806885BF84B725
:10188000877F84BF0FB6F894A89580916000886127
:1018900080936000109260000FBE90E080E80FB669
:1018A000F89480936100909361000FBE80E590E210
:1018B0009093A7018093A6010E94821A0E94A11A08
:1018C0008091E20084608093E200789480917002BD
:1018D0008823A1F01091E9001F709091EC00892FEE
:1018E000817090FD80E8182B1092E9008091E8004B
:1018F00083FD0E946E171F701093E90082E084BD83
:1019000093E095BD9AEF97BD80936E000E94D32718
:10191000811102C00E94C32705E211E0D8018D9118
:101920008D018F3F11F00E94C311B1E00A321B07F5
:10193000A9F70AE211E0B6E3EB2EB1E0FB2EF801C5
:1019400081918F018F3F11F00E94C311E016F106C3
:10195000B1F78AE0EFEBF1E0DF01282F1D922A9525
:10196000E9F7E9EAF1E0DF011D928A95E9F70E94C3
:101970004914811102C00E94551482E090E00E9437
:10198000022B809370030E9438149093A2028093DC
:10199000A1020E94DA11EFE3FCE93197F1F700C0F0
:1019A00000000E94DA118091BF0180FF08C06FEF34
:1019B0007FEF80E090E00E94342B0E94F92183E0C9
:1019C00090E00E94022B0E94D928269A2E9880919E
:1019D000B301811133C00E944914811104C00E94D7
:1019E00055140E94081D88E090E00E940A2B609325
:1019F0006A0370936B0380936C0390936D036E7F07
:101A000071F40E94081D88E090E00E940A2B609308
:101A10006A0370936B0380936C0390936D030E9431
:101A2000B71C10928F0280916A0380FF04C060E0AF
:101A300086950E94691E81E08093B30184E091E065
:101A40009093990280939802E8E14E2E512CF0E495
:101A50003F2EA9EC6A2EA1E07A2E8E010F5F1F4F58
:101A60004E01FBE08F0E911C80917002853009F0D1
:101A700049C060E1E62E72E1F72E80917002853058
:101A800009F03AC080917002843021F180E00E9418
:101A90009D0510929C020FB6F894A89540926000A4
:101AA0000FBE3092600083B7817F846083BF83B7AD
:101AB000816083BF7894889583B78E7F83BF0FB68C
:101AC000F894A895809160008861809360001092DE
:101AD00060000FBE80916F02882309F4CECF0E9470
:101AE000DA11EFEBF1E081919191892B09F0E4C3D8
:101AF0006E167F06C1F7C1CF0E94FE280E94FD220C
:101B00000E949D050E94DA11882359F08FB7F8943E
:101B100040919D0250919E0260919F027091A0029F
:101B20008FBF5FEBA52E51E0B52EA4EBB1E0F50120
:101B3000E12CF12C6E2D219131918D919D91822777
:101B40009327009779F170E0CC24C394D12CAC0199
:101B50004C215D21452B09F179A36AA32C213D215C
:101B600081E0232B09F480E08BA30E943F22816057
:101B7000782F9DA38CA349A15AA16BA18DA10E948E
:101B80000005F701EE0FFF1FEC54FE4F808191819D
:101B9000C826D926D182C0821CC07F5FCC0CDD1C38
:101BA0007C30A9F62FEFE21AF20A35E0E316F104D1
:101BB00009F68FEF8EA38FA318A60E943F228160A3
:101BC000782F9AA789A74EA15FA168A58AA50E9430
:101BD000000580918F02882309F4AAC080918E02AB
:101BE000E0916A03E695E81BE0938A02823059F49B
:101BF000F0E0E35CFD4FE491EE2EF12C9EE0C92E67
:101C000097E2D92E70C0863059F4F0E0E65CFD4FC3
:101C1000E491EE2EF12C8EEFC82E86E2D82E63C012
:101C2000893061F4E695F0E0E95CFD4FE491EE2E39
:101C3000F12CB4E0CB2EB6E2DB2E55C08F3061F430
:101C4000E695F0E0EC5CFD4FE491EE2EF12CAFE96F
:101C5000CA2EA5E2DA2E47C0853159F4F0E0EF5CD8
:101C6000FD4FE491EE2EF12CF1E5CF2EF5E2DF2EC3
:101C70003AC08831F9F0833249F4EFE2F2E0E590BE
:101C8000F490E4ECCE2EE6E2DE2E2DC08432D1F0CC
:101C9000853209F58E2F63E00E94AD2BE92FF0E02D
:101CA000E45DFD4FE491EE2EF12C7EE2C72E76E24C
:101CB000D72E19C058E2E52EF12C66EDC62E64E24F
:101CC000D62E11C034EFE32EFF24F3944EE9C42E38
:101CD00044E2D42E08C090EDE92E97E0F92E2DE9CC
:101CE000C22E24E2D22E80918B02882361F01092C2
:101CF0008B020E943F229093890280938802109267
:101D00008D0210928C020E943F22E0918802F09195
:101D100089028E1B9F0B8F3F9F4750F4EE0EFF1ED4
:101D2000F0928902E092880288E892E0F601099533
:101D300086E0E2E8F2E0D80101900D928A95E1F7A1
:101D400010928402109285021092860210928702ED
:101D50008B81811104C08C81882309F45FC080913C
:101D60008002909181020E943022AC0190917C020D
:101D7000992339F02091200130E02417350758F0DD
:101D80004DC020912101FAE02F9F900111242417CA
:101D9000350718F043C09F3F19F09F5F90937C0276
:101DA000FB80FF2061F00E94B21F1F1414F491E029
:101DB00001C09FEF899F802D112480938402FC80B5
:101DC000FF2061F00E94B21F1F1414F491E001C0C3
:101DD0009FEF899F802D112480938502309184028A
:101DE0003323E1F0209185022223C1F045EB340337
:101DF000C0011124992319F09093840203C081E05B
:101E00008093840235EB2303C0011124992319F038
:101E10009093850203C081E0809385028D818111BA
:101E200004C08E81882309F453C080917E02909172
:101E30007F020E9430229C0190917B02992309F439
:101E40005AC22135310508F443C09F3F19F09F5F06
:101E500090937B02FD80FF2061F00E94791F1F1488
:101E600014F491E001C09FEF899F802D112480938D
:101E70008602FE80FF2061F00E94791F1F1414F477
:101E800091E001C09FEF899F802D112480938702EC
:101E9000309186023323E1F0209187022223C1F0A2
:101EA00045EB3403C0011124992319F09093860265
:101EB00003C081E08093860235EB2303C001112427
:101EC000992319F09093870203C081E080938702E1
:101ED00046E050E0B80182E892E00E944F2C892B46
:101EE000A9F48091840281110FC080918502811133
:101EF0000BC080918602811107C081E0909187021A
:101F0000911103C080E001C081E080FD0E94D81ED5
:101F100086E0F801A2E8B2E001900D928A95E1F71F
:101F20000E94FD229091BE01891721F08093BE018D
:101F30000E949D0580917002843009F095CD83E068
:101F40008093E9008091E80082FF8ECD8091E800C7
:101F500085FF21C00E94131C81111BC080E2E82E66
:101F6000F12C680109C08091F100D6018D936D01BB
:101F7000B1E0EB1AF10869F08091E80085FDF3CF3C
:101F80008091E8008B778093E8000E94131C8823DF
:101F900099F391E001C090E08091E8008B77809305
:101FA000E800992309F460CDE9818E2F90E0FC01CF
:101FB0003197E331F10508F055C1EE59FF4F0C940C
:101FC000EF2B1A8289E0AAC08A81823009F48AC183
:101FD000833089F0813009F045C12FB7F8948091A2
:101FE0009D0290919E02A0919F02B091A0022FBFEE
:101FF000BB83AC8321C0F801D5018C9111969C91D3
:10200000B2E0AB0EB11C9283838332968E169F068C
:1020100099F72AC18A81823009F024C16B817C81C1
:102020008D819E810E94F52B0E949F271DC14C81AE
:102030006B818A810E94DF239D835BC12D813E815C
:102040003227232732274C816B818A810E94832388
:102050000BC10E94AA2308C18A818138B1F050F4D3
:10206000803809F001C120E04B8160916C038091C0
:102070006B0331C0823859F1833809F0F5C020E094
:1020800040916D036C818B8126C060E08B810E9442
:10209000691E9B8180916A03911111C08E7F80938C
:1020A0006A0310928F02EFEFF0E722E0E150F04078
:1020B0002040E1F700C000000E94701CD5C0816084
:1020C00080936A0360E086950E94691ECDC08B8173
:1020D00080936E03C9C00E94A81DC6C08A81813842
:1020E00099F030F4803809F0BFC080916D0316C0BC
:1020F000823891F0833809F0B7C080916B038B83ED
:1021000080916C038C83B0C080916A0380FF02C011
:10211000869504C080E002C080916E038B83A4C0CA
:1021200060916A0370916B0380916C0390916D03D1
:102130000E94D11C99C080E14EC01A8281E9EECF85
:10214000EA80FB80FE24EF24FE24AC80B12C6801E1
:10215000C70181599C4F9601201B310B2A153B0565
:1021600008F082C031E9E316F10430F40E94022B3A
:10217000D60114968C9302C0F6011482FFEFEF1A79
:10218000FF0A2FEFC21AD20AE3CFEA80FB80FE24B7
:10219000EF24FE24AC80B12C6801C70181599C4F0B
:1021A0009601201B310B2A153B0508F05DC031E973
:1021B000E316F10428F4D60114966C910E94162BB4
:1021C000BFEFEB1AFB0AEFEFCE1ADE0AE6CF0E9452
:1021D00073234AC087E08A8347C0EA80FB80FE24DD
:1021E000EF24FE24AC80B12C6801C70187969601CC
:1021F000201B310B2A153B05B8F5F8E4EF16F3E088
:10220000FF0630F40E94022BD60114968C9302C074
:10221000F6011482FFEFEF1AFF0A2FEFC21AD20A5B
:10222000E4CFEA80FB80FE24EF24FE24AC80B12CB6
:102230006801C70187969601201B310B2A153B05C3
:1022400098F438E4E31633E0F30628F4D601149644
:102250006C910E94162BBFEFEB1AFB0AEFEFCE1A20
:10226000DE0AE7CF8FEF898380917002843009F016
:10227000FBCB8091E9008F702091EC00922F917040
:1022800020FD90E8F92EF82A82E08093E900809101
:10229000E80080FF0CC040E050E060E270E0C80160
:1022A0000E94461C8091E8008E778093E8008F2D75
:1022B0008F708093E900D8CBE9BCF9BC09B400FE6B
:1022C000FDCF8091D8008F7D8093D8008091E00071
:1022D00082608093E0008091E00081FDFCCF0E944D
:1022E000FE28CBCB86E290E00E94022B1B821C8250
:1022F0001D828E83B9CF2B30310508F0A8CDE8CDF3
:102300009091A10292FF0DC0282F2871283019F456
:10231000877F846006C0282F2471243011F48B7FBE
:10232000886093FF0DC0282F2871283119F4877E0B
:10233000846106C0282F2471243111F48B7E8861BA
:102340002091A20220FF0DC0382F3871383019F4C7
:10235000877F816006C0382F3171313011F48E7F54
:10236000886021FF0DC0282F2871283119F4877E3D
:10237000816106C0282F2171213111F48E7E886180
:1023800094FD877E0895F894E82FE295EF70F0E0D1
:1023900031A1282F2F7081E090E001C0880F2A958D
:1023A000EAF7982F9095932391A392A1892B82A36A
:1023B00078940895AAE0B0E0E0EEF1E10C94112CDD
:1023C000AE014F5F5F4F7A018AE0FA0111928A9560
:1023D000E9F705E211E06A01AA24A394B12CF801FF
:1023E00080818F3F09F447C0F894E82FE295EF70A1
:1023F000F0E021A18F70A50102C0440F551F8A95FE
:10240000E2F7CA01922F982B91A392A1809589237C
:1024100082A3789400C0EAE2F1E021E030E0812C70
:10242000912C41914F3F89F0A42FA295AF70B0E05D
:1024300090968C9190E04F7002C0959587954A9543
:10244000E2F780FD02C0C90102C080E090E0882A66
:10245000992A220F331F51E0E633F50711F7F801EF
:1024600080818F3F11F00E94C311F0EAFA95F1F7D5
:10247000F601918280820F5F1F4FF2E0CF0ED11CD8
:1024800041E00A32140709F0AACF4AE050E0B70150
:1024900089EA91E00E944F2C11E0009709F410E0C6
:1024A000892B89F08AE0F701A9EAB1E001900D9249
:1024B0008A95E1F781E0809348020E943F22909341
:1024C00047028093460280914802882391F18091CF
:1024D0004602909147020E943022059750F1809168
:1024E000A9019091AA019093C0018093BF018091AE
:1024F000AB019091AC019093C2018093C101809196
:10250000AD019091AE019093C4018093C30180917D
:10251000AF019091B0019093C6018093C501809165
:10252000B1019091B2019093C8018093C7011092BC
:102530004802812F2A96ECE00C942D2CCF93DF9348
:102540008238910569F1B0F48133910509F46FC0C7
:1025500048F48932910509F465C08A32910509F47D
:102560006BC08AC08533910509F457C08933910542
:10257000B9F082C0833E910571F138F4803E910537
:10258000B1F0823E910511F177C0863E9105B9F117
:10259000873E9105C9F1843E910509F06DC024C0C4
:1025A0002091A10220FD53C021FD51C065C0809142
:1025B000A10280FD46C08091A20280FF48C08091A8
:1025C000A10284FD50C183EE90E04FC18091A10231
:1025D00082FF3AC0F4CF8091A10282FD35C0809184
:1025E000A20280FD34C0EBCF8091A20281FF35C0F2
:1025F0008091A10284FD37C187EE90E036C18091C1
:10260000A10283FF27C0F4CF8091A10283FD22C0E5
:102610008091A20281FD21C0EBCF8091A10285FDB6
:102620001FC021C08091A10285FD1DC019C08091ED
:10263000A10286FD1BC01DC08091A10286FD19C0AC
:1026400015C089E390E011C182EE90E00EC180EEEA
:1026500090E00BC186EE90E008C184EE90E005C1E9
:1026600089E290E002C185E390E0FFC08AE290E059
:10267000FCC081E390E0F9C0811531E5930708F0D3
:1026800069C0811540E59407F0F09C0174E036952F
:1026900027957A95E1F7922F9370482F437021E0A8
:1026A00030E002C0220F331F4A95E2F73C68392B15
:1026B000982F9F709695969540E2949FC0011124A3
:1026C000822B932BD2C0883E910568F5803E910500
:1026D00008F0CBC0883A9105B8F4853A910548F0E6
:1026E000855AE82FF0E0EA5CFE4F808190E090642C
:1026F000BCC08130910509F4B3C008F4B4C0843083
:10270000910508F4B0C0B1C08F3B910508F0ABC093
:10271000885AE82FF0E0EE0FFF1FE75CFE4F808144
:1027200091819464A2C0811520E2920758F481152A
:1027300031E0930708F099C0803F910508F493C0F9
:10274000906593C0811540E4940708F48CC09F7095
:10275000906A8BC0811525E5920708F042C081156B
:1027600034E5930728F0982F8827846F906A7DC0FE
:10277000811543E59407B0F09C012370332741E0B5
:1027800050E002C0440F551F2A95E2F7282F2695E6
:10279000269580E2289F90011124CA01822B932B59
:1027A0009A6863C0811522E5920728F4982F88273C
:1027B000816F906A5AC09C012370332741E050E03A
:1027C00002C0440F551F2A95E2F7282F269526951B
:1027D00080E2289F90011124CA01822B932B9C68D0
:1027E00044C0EC01811539E59307A8F4811598459B
:1027F00028F09C2F8827806F906A37C0C11586E526
:10280000D80788F58C2F0E9480118F7190E0982F47
:10281000882790622AC081152AE5920790F48C2FB0
:102820008F700E94801194E0D695C7959A95E1F734
:10283000CF70D0E0DC2FCC27D0699E01282BC901B6
:1028400014C090568115904270F48D2F8F710E94A4
:102850008011282F2F71CE0199279062922B05C0ED
:1028600081E090E002C080E090E0DF91CF91089598
:10287000CF9384E090E00E94022BC82F82E290E088
:102880000E94022B2C2F30E0A901582BCA01CF91B6
:10289000089580E090E00E94102B883E9E4F19F42E
:1028A0000E94D327089580E0089568EE7EEF80E0CF
:1028B00090E00E94342B60E082E090E00E94162BB2
:1028C00060E083E090E00E94162B1092450260E0E9
:1028D00084E090E00E94162B64E082E290E00E9487
:1028E000162B60E085E090E00E94162B60E086E009
:1028F00090E00E94162B6FEF87E090E00E94162B6D
:1029000040E050E0BA0188E090E00E94282B60E0AF
:102910008DE090E00E94162B40E050E0BA0188E183
:1029200090E00E94282B60E087E190E00E94162B47
:1029300040E050E0BA018CE190E00E94282B60E07A
:1029400070E080E290E00E94342B40E050E0BA0159
:1029500088E190E00E94282B80E00E94A4270E943A
:10296000C32740E050E0BA018FE090E00E94282B9E
:1029700040E050E0BA0183E190E00E94282B0895E6
:1029800080914402811110924402089580959091A3
:1029900043028923809343020895909143028091DA
:1029A0004202982B9093C901809144028823D9F068
:1029B000892B8093C90180911001882331F0809187
:1029C000A10287FF02C08EE101C086E0EBECF1E0DE
:1029D00090E0815028F021912223D9F39F5FF9CF15
:1029E00091110E94C01440E250E062E272E089EC72
:1029F00091E00E944F2C892B21F180E2E9ECF1E07B
:102A0000A2E2B2E001900D928A95E1F7E09198027E
:102A1000F09199023097A9F080911001882359F024
:102A20008091A10287FF07C08091C9018093CA01EC
:102A300086E08093C9010280F381E02D89EC91E06A
:102A40000995089520912102809582238093210287
:102A5000982F977099F430E0482F082E000C550BF2
:102A60002417350759F09091A20292FF07C085956F
:102A7000859585950E94C028109221020895CF93D4
:102A8000C091A202C2FB992790F9981791F080FBA0
:102A9000C2F9C093A2026091A10284E090E00E947A
:102AA000162B6C2F82E290E00E94162B82E00E948F
:102AB0002215CF910895809120029091EF018917FE
:102AC00019F08F5F8770FBCF08950F931F93CF93FB
:102AD000DF938091EE0182958F7009F05AC080914A
:102AE000EB01882309F455C0809120021091EF0179
:102AF0006091E9017091EA01C091EC01D091ED0182
:102B000091E06F3F09F090E0292F06E0811709F46A
:102B100040C0209721F07F3F21F030E003C031E03A
:102B200001C0322F90E030FD31C0089FF001099FB5
:102B3000F00D1124DF01A051BE4F11963C91119769
:102B4000371324C03C91361321C012963C91129742
:102B500031111CC013964D915C9114974C1B5D0B69
:102B6000483C510598F48091EE018F70806180930C
:102B7000EE01EB50FE4F80818F708061808389EE83
:102B800091E00E94A3050E945B1503C00196877027
:102B9000BDCFDF91CF911F910F910895CF93DF9318
:102BA000EC010E942328BE010E940D240E949E1267
:102BB000DF91CF910895A1E1B0E0E1EEF5E10C9451
:102BC000122C8C0185E0F801DE011D9601900D921A
:102BD0008A95E1F7F801E2809091E9016091EA01BC
:102BE0004091EC015091ED014115510531F06F3FDD
:102BF00031F481E09F3F19F403C081E001C080E01F
:102C0000F82FF1709F2E80FD1BC1F80130812181CA
:102C1000C380D48089EEA82E81E0B82EF090EB011D
:102C2000F601E41BF50BFF2009F4C7C08091EE010B
:102C3000E83CF10508F092C0482F407F09F051C0F0
:102C4000621311C093130FC0FE2CE1100CC08F70E3
:102C500080618093EE01C5010E94A3058091EE0181
:102C6000F80185832AC1C114D10431F02F3F31F41A
:102C700081E03F3F19F403C081E001C080E080FDA6
:102C800003C081E08E2502C080E090E0F82FF17053
:102C9000FF2E80FF1CC0809120024091EF0156E082
:102CA000841709F4E8C090E0589FF001599FF00D97
:102CB0001124E051FE4F6181261306C06081631329
:102CC00003C06281E61203C001968770E9CFFE2C33
:102CD000EE2009F4F2C08091EE0181608093EE0154
:102CE00049C0621306C0931304C0E11002C0F8018A
:102CF00086C0C8010E94DE28882351F1EE2041F1F0
:102D00002091EE01822F82958F7090E0029774F0EF
:102D10008091E9019091EA0198878F831986DB867B
:102D2000CA862C87CE0107960E94A30586E0F8018B
:102D3000A9EEB1E001900D928A95E1F70E94651528
:102D40000AC06217C9F0C8010E94DE2881111EC0A6
:102D5000C8010E94A305FF24F394AFC0482F407F11
:102D600081F789EE91E00E94A30586E0F5011192BA
:102D70008A95E9F7F12CA1C09313E5CFE110E3CFD9
:102D8000F8018583C8010E94A30554C0EE2001F319
:102D90002091EE01822F82958F7090E0029734F29D
:102DA0008091E9019091EA019A8389831B82DD82F7
:102DB000CC822E83CE010196B7CFE83CF105D0F549
:102DC000FE2CEE2029F2621327C0931325C0209118
:102DD000EE0120FD18C0822F82958F70482F50E0A1
:102DE0004115510581F0F80125834F30510541F01F
:102DF0008F5F982F9295907F822F8F70892B85837C
:102E0000C8010E94A30586E0F801A9EEB1E0019097
:102E10000D928A95E1F751C0C8010E94DE28811108
:102E200085CF8091EE0181608093EE01C8010E9400
:102E3000A30543C086E0F50111928A95E9F73DC0EC
:102E4000EE2009F485CFC8010E94DE28F82E8823E1
:102E500009F47ECF86E0F801A9EEB1E001900D9271
:102E60008A95E1F78091E9019091EA010E94CE15DF
:102E70000E94651522C03D872E878D859E850E9404
:102E8000CE15292F22952F70223028F49F7039F00B
:102E9000811105C00BC0243028F49F7049F4805E76
:102EA000883020F0C8010E94A3059F2CF92C05C092
:102EB000F8019581907F99F7F9CF8F2D6196EBE01E
:102EC0000C942E2C80917A02982F9670963011F4E3
:102ED000886001C0877F0E94BB280895AAE2B0E005
:102EE000E4E7F7E10C941A2CE2E7F2E08091F100BC
:102EF000819342E0EA37F407C9F780917302833087
:102F000009F463C030F4813071F0823009F49DC05F
:102F1000B4C08A3009F489C08B3009F46EC089309E
:102F200009F0ABC020C080917202813A09F0A5C0BF
:102F30008091E800877F8093E800809176029091ED
:102F40007702892B21F460E28EE492E003C060E016
:102F500080E090E070E00E949B218091E8008B77F8
:102F60008093E8008AC080917202813209F085C0A6
:102F70008091760290917702009719F0029709F0FC
:102F80007CC08091E800877F8093E8008091E80012
:102F900082FD05C0809170028111F8CF6EC0209132
:102FA000F3008091F20090E0922B029731F480912F
:102FB000F100813011F0863021F48091F10080938E
:102FC0004D028091E8008B7754C080917202813A63
:102FD00009F053C08091760290917702892B09F015
:102FE0004CC08091E800877F8093E8008091E800E2
:102FF00080FFFCCF8091100137C080917202813236
:10300000E1F58091760290917702892BB1F580915C
:10301000E800877F8093E8000E9447218091740236
:10302000809310010E94FE2828C080917202813294
:1030300021F58091E800877F8093E8000E94472176
:103040008091750280934C0218C080917202813A7F
:10305000A1F48091E800877F8093E8008091E800E8
:1030600080FFFCCF80914C028093F1008091E800BA
:103070008E778093E8000E9447218091E80083FFCB
:10308000E5C18091720290917302492F50E04A305D
:10309000510508F0DBC1FA01EB58FF4F0C94EF2B00
:1030A000803821F0823809F0D1C108C080916E02C9
:1030B00090916F02992389F082600FC0809176020F
:1030C0008F70873008F0C2C18093E9008091EB00D7
:1030D00085FB882780F91092E9009091E800977F9E
:1030E0009093E8008093F1001092F10071C1282FB5
:1030F0002D7F09F0ABC1882319F0823061F0A6C1A1
:1031000080917402813009F0A1C1933009F080E010
:1031100080936F022EC08091740281112AC0809129
:1031200076028F702FEF280F263008F08FC1809322
:10313000E9002091EB0020FF1CC0933021F4809126
:10314000EB00806214C09091EB0090619093EB00D3
:1031500021E030E0A90102C0440F551F8A95E2F733
:103160004093EA001092EA008091EB00886080931F
:10317000EB001092E9008091E800877F8093E800DF
:103180000E94472163C1811161C1109174021F77B0
:103190008091E3008078812B8093E3008091E800A8
:1031A000877F8093E8000E9447218091E80080FF9C
:1031B000FCCF8091E30080688093E300111102C08E
:1031C00082E001C083E08093700240C18058823069
:1031D00008F03CC120917402309175022C3D53E0FF
:1031E000350779F583E08A838AE289834FB7F894BB
:1031F000DE01139620E03EE051E2E32FF0E0509331
:103200005700E49120FF03C0E295EF703F5FEF703D
:103210008E2F90E0EA3010F0C79601C0C0968D93D3
:103220009D932F5F243149F74FBF8091E800877F3E
:103230008093E8006AE270E0CE0101960E949B2133
:10324000B5C08091760290917702432F5527433085
:103250005105A9F068F44130510509F406C1423026
:10326000510509F0F3C08BE790E0EBE7F3E04BC0CA
:103270004132510529F14232510589F1E7C0C901B6
:10328000992781309105A1F058F0029709F0DEC02E
:10329000E8E0F4E0E4918E2F90E0E8E0F4E030C064
:1032A000E4E4F4E0E4918E2F90E0E4E4F4E028C05C
:1032B000EEE2F4E0E4918E2F90E0EEE2F4E020C044
:1032C0008430910508F0C2C0880F991FFC01ED58A9
:1032D000FE4F0190F081E02D89E090E014C0843031
:1032E000910508F0B3C0FC01EE0FFF1FE559FE4F3A
:1032F0000190F081E02DDC01A959BE4F8C9190E046
:10330000009709F4A3C02091E800277F2093E800EC
:1033100020917802309179028217930708F49C017A
:1033200040E02115310589F180917002882309F46C
:103330003DC08530D9F18091E80083FD37C0809190
:10334000E80082FD2FC08091E80080FFEACF409125
:10335000F3008091F20090E0942B2115310559F093
:103360008830910540F444914093F100319621500A
:1033700031090196F2CF41E0089709F040E08091D1
:10338000E8008E778093E800CCCF4111CDCF0AC002
:1033900080917002882351F0853041F08091E800DF
:1033A00083FD04C08091E80082FFF2CF8091E800A5
:1033B0008B778093E8004AC0803809F047C080913D
:1033C000E800877F8093E800809171028093F1008C
:1033D0008091E8008E77D2CE811138C0809174023E
:1033E00090917502992702978CF58091E800877F6C
:1033F0008093E80010917402109371020E9447219B
:10340000111106C08091E30087FD02C081E001C078
:1034100084E08093700242E061EC81E00E946621CA
:1034200042E261EC84E00E94662142E261EC82E0CB
:103430000E94662142E260EC83E00E94662142E243
:1034400061EC85E00E946621809170028091E80025
:1034500083FF10C08091E800877F8093E80080910F
:10346000EB0080628093EB0005C082E190E0E6EF24
:10347000F3E049CFAA96E3E00C94362C1F920F920A
:103480000FB60F9211242F933F934F935F936F9337
:103490007F938F939F93AF93BF93CF93DF93EF93DC
:1034A000FF93C091E900CF708091EC00D82FD170CC
:1034B00080FDD0E81092E9008091F000877F809332
:1034C000F00078940E946E171092E9008091F0004D
:1034D00088608093F000CD2BCF70C093E900FF91FE
:1034E000EF91DF91CF91BF91AF919F918F917F919C
:1034F0006F915F914F913F912F910F900FBE0F9061
:103500001F901895E8EDF0E080818E7F8083109207
:10351000E2001092DA001092E100A0EEB0E08C918F
:1035200081608C9380818F77808319BCA7EDB0E098
:103530008C918E7F8C9380818F7E808310924B0242
:103540000895A0E0B0E0E7EAFAE10C94152CC8ED8C
:10355000D0E088818F7E8883E7EDF0E08081816014
:10356000808384E082BF81E080934B0288818E7FDC
:10357000888302EE10E0F80110821092DA0081EEEA
:10358000C82ED12CF601108288818F77888388819C
:103590008068888388818F7D888319BC109270022F
:1035A0001092710210926F0210926E0290EEE92E4C
:1035B000F12CF70180818B7F8083888181608883F3
:1035C00042E060E080E00E946621F60180818E7F0B
:1035D0008083F8018081816080838081886080831E
:1035E000F70180818E7F8083888180618883CDB759
:1035F000DEB7E8E00C94312C1F920F920FB60F92B9
:1036000011242F933F934F935F936F937F938F93E7
:103610009F93AF93BF93EF93FF938091E10082FF5D
:1036200049C08091E20082FF45C08091E1008B7F1C
:103630008093E10020914A022F5F822F62E30E9473
:10364000AD2B992319F020934A0234C010924A02FC
:1036500080914902882371F180917002843041F594
:103660008091E9008F702091EC00922F917020FDE5
:1036700090E8892B95E09093E9009091EB0090FF02
:1036800014C09091EE0097FF10C09091E80095FF54
:1036900003C01092F100F9CF9091E80090FF05C0AF
:1036A0009091E8009E779093E8008F708093E900F6
:1036B000109249028091DA0080FF2AC08091D800E0
:1036C00080FF26C08091DA008E7F8093DA0080919F
:1036D000D90080FF18C080E189BD82E189BD09B4AD
:1036E00000FEFDCF81E08093700280914B0281113A
:1036F0000FC00E94821A0E94A11A8091E200846089
:103700008093E20005C019BC1092700210924B0227
:103710008091E10080FF17C08091E20080FF13C01C
:103720008091E2008E7F8093E2008091E2008061D0
:103730008093E2008091D80080628093D80019BC09
:1037400085E0809370028091E10084FF30C0809119
:10375000E20084FF2CC080E189BD82E189BD09B40B
:1037600000FEFDCF8091D8008F7D8093D80080919E
:10377000E1008F7E8093E1008091E2008F7E809354
:10378000E2008091E20081608093E200809171020A
:10379000882311F084E007C08091E30087FD02C018
:1037A00081E001C083E0809370028091700280917B
:1037B000E10083FF27C08091E20083FF23C0809156
:1037C000E100877F8093E10082E080937002109295
:1037D00071028091E1008E7F8093E1008091E20090
:1037E0008E7F8093E2008091E20080618093E2000E
:1037F00042E060E080E00E9466218091F0008860F5
:103800008093F000FF91EF91BF91AF919F918F91C5
:103810007F916F915F914F913F912F910F900FBECC
:103820000F901F9018952091E4003091E50095E6E7
:103830004091EC00842F817040FF23C08091E8000C
:1038400080FD1DC080917002882399F0853099F029
:103850008091EB0085FD11C04091E4005091E5009E
:103860002417350729F3915011F09A01E1CF84E034
:10387000089582E0089583E0089581E0089580E04E
:1038800008954091E80042FFDDCF0895EF92FF9246
:103890000F931F93CF93DF937C018B010E94131C26
:1038A000811119C0E70101151105A1F08091E8000F
:1038B00085FD0AC08091E8008E778093E8000E9421
:1038C000131C882381F307C089918093F100015074
:1038D0001109E9CF80E0CDB7DEB7E6E00C94332CD8
:1038E00080916A0380FF0AC0269A85B18F7B95B1CB
:1038F00090642FB7F894EAEAF2E00BC0EAEAF2E04B
:10390000118210821282339632E0E23FF307C1F750
:10391000EBCF32E0E23FF30789F0319148E095B90F
:10392000000000C037FF85B9330F000000C000C0A1
:1039300000C085B900C04A9591F7EBCF2FBF8FE546
:1039400094E00197F1F700C00000089590916A0398
:1039500090FF0CC0EAEAF2E08183608342833396F1
:1039600092E0E23FF907C1F70E94701C0895809130
:103970006A03282F269530E02115310519F481704E
:10398000826005C02B32310524F0817084658093FC
:103990006A0380916D038A3B18F089EB80936D0375
:1039A0000895CF92DF92EF92FF926B017C010E940B
:1039B000B71CB701A60188E090E00E94282BFF9079
:1039C000EF90DF90CF90089580916E03882319F0D7
:1039D000815080936E0360916A0370916B038091B4
:1039E0006C0390916D030E94D11C089580916E0329
:1039F000833018F48F5F80936E0360916A03709137
:103A00006B0380916C0390916D030E94D11C08950B
:103A1000EAE6F3E083E0808311828FEF828389EB13
:103A20008383148260817181828193810E94D11C81
:103A30000895A0E0B0E0EFE1FDE10C94132CE82E36
:103A4000F62EE9014A3B08F049EBE42FF0E0F110D3
:103A500006C0E85BFB4FE4914E2F2E2F71C00F2D57
:103A600010E0E85BFB4F4491F42FC42ED12C26E0EC
:103A7000E29EC00111242FEF30E0B9010E94C72B54
:103A80005BEA5603C001579F900D11248E0D911DC6
:103A90008E0D911D582F550F580FD901A01BB10B3A
:103AA000AC9DC001AD9D900DBC9D900D1124E92FE2
:103AB000F59ED0011124AB2FBB277901EA1AFB0A2E
:103AC000EC9CD001ED9CB00DFC9CB00D1124590173
:103AD000A51AB108A09E7001A19EF00CB09EF00C3A
:103AE0001124EF2CFF242E193F092C9D80012D9DC0
:103AF000100D3C9D100D1124212F6230710591F0A5
:103B000048F461157105E1F061307105B9F4242FB5
:103B10004B2F16C06430710569F040F066307105B6
:103B200079F00CC0242F492FE12F0AC0492FEF2F25
:103B30002B2F06C0292FE42F412F02C0292FEB2F56
:103B400049832883EA83CDB7DEB7EAE00C942F2CB3
:103B5000A3E0B0E0EEEAFDE10C940E2CF82E762EF8
:103B6000E42E622E90916A0390FF67C0E92FE695DC
:103B7000AE2FB0E0A558BE4F8C9180938E029E7FF1
:103B8000923061F49E012F5F3F4F8F2D0E94191DCF
:103B90004B8169818A810E94A61C3DC0823019F444
:103BA000E0906D0338C0863019F4F0906B0333C099
:103BB0008930D9F3893179F5E9518E2F8170582EEA
:103BC000E695F0E0E85BFA4FE4910E2F10E08AEA08
:103BD000C82E82E0D82EA12CB12C98E1892E912CF0
:103BE000C501B4010E94C72B8F2D511002C0860F52
:103BF00001C0861B96014E2D672D0E94191DA00E37
:103C0000B11E83E0C80ED11C82EFC81682E0D80630
:103C100039F70E94701CF0926B0370926C03E09273
:103C20006D03662051F060916A0370916B0380917F
:103C30006C0390916D030E94D11C2396EFE00C94CD
:103C40002A2CEAE6F3E0438121E1421B08F440E03C
:103C500021E0628181810E94A81D0895EAE6F3E0D7
:103C6000438121E1420F08F44FEF21E0628181811D
:103C70000E94A81D0895EAE6F3E0628121E1621B3B
:103C800008F460E021E0438181810E94A81D08952D
:103C9000EAE6F3E0628121E1620F08F46FEF21E0D0
:103CA000438181810E94A81D0895EAE6F3E08181A5
:103CB00021E04381628188500E94A81D0895EAE6B0
:103CC000F3E0818121E043816281885F0E94A81D29
:103CD000089590916A0390FF3DC09170811102C0D8
:103CE000926006C08B3210F0946502C0880F982B4A
:103CF00090936A03662351F060916A0370916B039D
:103D000080916C0390916D030E94D11C60916A03B5
:103D1000669570E04BE050E081E191E00E94422C1A
:103D2000892B19F010928F0209C081E080938F02D5
:103D30000E943F22909389028093880281E08093C1
:103D40008B0220E040916D0360916C0380916B03C6
:103D50000E94A81D089580916A038695815009F4F8
:103D60008AE261E00E94691E089580916A03869547
:103D70008F5F8B3208F081E061E00E94691E089538
:103D8000A3E0B0E0E6ECFEE10C941B2C90916A03FA
:103D900090FF0AC09E012F5F3F4F0E94191D4B816B
:103DA00069818A810E94A61C2396E2E00C94372C3C
:103DB0000E943F2220918402211104C0209185029B
:103DC000222321F090938102809380022091860229
:103DD000211104C020918702222321F090937F02B9
:103DE00080937E02E0919802F0919902309749F019
:103DF00082E0809382020480F581E02D82E892E0E7
:103E000009950895803F39F49091850297FF35C058
:103E10001092850259C0813F29F4909185021916AC
:103E2000BCF32BC090918402823F29F497FF25C0F8
:103E30001092840249C0833F19F41916CCF31DC0B7
:103E400090918602893F29F41916BCF410928602DB
:103E50003BC08A3F19F497FF10C0F8CF8B3F39F46D
:103E60009091870297FF09C0109287022DC08C3F66
:103E700021F4909187021916BCF39CE0980F9530BD
:103E800080F421E030E0A90102C0440F551F9A954B
:103E9000E2F7CA018095909183028923809383027F
:103EA00013C08D3F21F480917D028E7F0BC08E3F29
:103EB00021F480917D028D7F05C08F3F29F4809190
:103EC0007D028B7F80937D0280918402811106C0E8
:103ED00080918502811102C010927C02809186023D
:103EE000811106C080918702811102C010927B026D
:103EF000089580917D0280FF08C060911D0170E0EF
:103F0000759567957595679521C081FF06C060918D
:103F10001D0170E07595679519C082FF04C060911E
:103F20001D0170E010C090917B02992399F060917F
:103F30001C019617A0F780911D01899FC0011124D3
:103F400070E00E94DB2B6038710540F4611571054B
:103F500019F406C061E070E0862F08958FE7089598
:103F600081E0089580917D0280FF06C060911F016D
:103F700070E0660F771F26C081FF04C060911F01AB
:103F800084E005C082FF07C060911F0188E0689F40
:103F9000B001112417C090917C029923D1F0609157
:103FA0001E01961788F720911F0188E0289F900135
:103FB0001124929FA001939F500D112470E0CA011B
:103FC0000E94DB2B6038710540F46115710519F40E
:103FD00006C068E070E0862F08958FE7089581E0BD
:103FE0000895803F21F40E94B21F819504C0813F53
:103FF00029F40E94B21F809385020895823F21F424
:104000000E94B21F819504C0833F29F40E94B21F11
:10401000809384020895893F19F40E94791F05C096
:104020008A3F31F40E94791F81958093860208951A
:104030008B3F21F40E94791F819504C08C3F29F4A5
:104040000E94791F8093870208959CE0980F953015
:1040500078F421E030E0A90102C0440F551F9A9581
:10406000E2F7CA0190918302892B8093830208951D
:104070008D3F21F480917D0281600BC08E3F21F441
:1040800080917D02826005C08F3F29F480917D027E
:10409000846080937D020895089580914D02089573
:1040A0009FB7F894109249029FBF9091700294308C
:1040B00009F057C09091E9009F703091EC00232FD8
:1040C000217030FD20E8922B25E02093E90020911B
:1040D000EB0020FF43C02091EE0027FF3FC020915E
:1040E000A602222321F02091E80025FF37C010927C
:1040F000A60226E03091E80035FD15C0309170022F
:10410000343061F53091EB0035FD28C0215021F4A9
:1041100081E08093A60222C0EFE9FFE03197F1F73A
:1041200000C00000E7CF8093F1008091E80085FD9A
:104130000AC08091E80080FFFCCF8091E8008E7774
:104140008093E80006C08FB7F89421E020934902DD
:104150008FBF9F709093E90080E008959F709093C7
:10416000E9008FEF08958093A3027093A5026093F6
:10417000A402809170028430F9F48093E9008FEFFB
:104180009091E800815095FD06C095ED9A95F1F764
:1041900000008111F5CF8091E80085FF0DC040E05F
:1041A00050E063E070E083EA92E00E94461C809158
:1041B000E8008E778093E8000895BC0184E00E94B7
:1041C000B3200895BC0183E00E94B320089524E049
:1041D0002093E9002FEF3091E800215035FD06C013
:1041E00035ED3A95F1F700002111F5CF2091E80067
:1041F00025FF0BC040E050E066E070E00E94461CE6
:104200008091E8008E778093E8000895CF93DF9344
:1042100020911001222339F02091A10227FF03C031
:1042200060E224E002C068E021E02093E9002FEF83
:104230003091E800215035FD06C035ED3A95F1F793
:1042400000002111F5CF2091E80025FF1DC0EC01F1
:1042500080911001811105C040E050E068E070E0FD
:1042600003C070E040E050E0CE010E94461C809107
:10427000E8008E778093E80080E2FE01AEE4B2E0D1
:1042800001900D928A95E1F7DF91CF910895809189
:10429000720287FF11C08091E80082FD05C0809105
:1042A00070028111F8CF11C08091E8008B770BC0AC
:1042B00080917002882349F08091E80080FFF8CF58
:1042C0008091E8008E778093E8000895982F9730CA
:1042D00068F59093E900981739F07091EC002091FF
:1042E000ED005091F00003C0242F762F50E021FD07
:1042F00002C09F5FECCF3091EB003E7F3093EB002C
:104300003091ED003D7F3093ED003091EB00316056
:104310003093EB007093EC002093ED005093F0008D
:104320002091EE0027FDE5CF80E008958F70809307
:10433000E90081E0089520917802309179022617F2
:10434000370748F06115710539F42091E8002E77A0
:104350002093E80001C0B901FC0120E0611571055E
:1043600079F1809170028823F1F18530F1F180912B
:10437000E80083FD3CC08091E80082FD2EC0809162
:10438000E80080FFEBCF2091F3008091F20090E0F5
:10439000922B6115710551F08830910538F4219107
:1043A0002093F100615071090196F3CF21E0089745
:1043B00009F020E08091E8008E778093E800CECF6E
:1043C0002111CFCF0AC080917002882361F085301F
:1043D00061F08091E80083FD0AC08091E80082FFCF
:1043E000F2CF80E0089582E0089583E0089581E0AF
:1043F000089587E797E790930108809300089AE073
:1044000088E10FB6F894A895809360000FBE909352
:104410006000FFCF78941F920F920FB60F92112475
:104420008F939F93AF93BF9380919D0290919E0233
:10443000A0919F02B091A0020196A11DB11D809391
:104440009D0290939E02A0939F02B093A002BF9101
:10445000AF919F918F910F900FBE0F901F90189565
:104460009C014FB7F89480919D0290919E02A0917B
:104470009F02B091A0024FBF821B930B08952FB7EC
:10448000F89480919D0290919E02A0919F02B0911C
:10449000A0022FBF08951F920F920FB60F92112402
:1044A0008F939F93AF93BF9380919C02811113C010
:1044B00080919D0290919E02A0919F02B091A002D6
:1044C0004196A11DB11D80939D0290939E02A093E1
:1044D0009F02B093A002BF91AF919F918F910F90D7
:1044E0000FBE0F901F901895209110012223C9F044
:1044F0002091A10227FF15C0262F269526952695E7
:104500002E31C8F4FC01E20FF11D677081E090E0EC
:1045100001C0880F6A95EAF780959281892382838A
:104520000895FC0106962281621301C01282319621
:10453000E817F907C1F70895209110012223C1F06F
:104540002091A10227FF14C0262F26952695269597
:104550002E3130F5FC01E20FF11D677081E090E033
:1045600001C0880F6A95EAF79281892B82830895AA
:10457000FC0132962FEF30E04191641789F02F3F14
:1045800019F4411101C0232F3F5F3630A9F72F3FA7
:1045900039F0FC01E20FF11D27FDFA9562830895C1
:1045A000089520919A0230919B022817390771F0E3
:1045B00090939B0280939A02E0919802F091990265
:1045C000309721F00084F185E02D09950895209120
:1045D0009602309197022817390771F0909397024D
:1045E00080939602E0919802F0919902309721F021
:1045F0000680F781E02D09950895E0919802F091E9
:104600009902309729F00190F081E02D09950895E5
:1046100080E008950F931F93CF93DF93C42FD22F81
:10462000FC0182818823B1F0409395020E943F22D1
:10463000909394028093930280E28C0F883008F06C
:104640004DC0C77081E001C0880FCA95EAF70E948B
:104650001B2944C080919502481330C08091930279
:10466000909194020E943022883C910538F510E226
:104670001D0FCD17B9F080E28C0F883040F4C77061
:1046800081E001C0880FCA95EAF70E94142918300A
:1046900010F581E09D2F977001C0880F9A95EAF779
:1046A0000E941B29802F0E94872A1830B8F4D770E7
:1046B00081E001C0880FDA95EAF70AC080E28C0F2A
:1046C000883060F4C77081E001C0880FCA95EAF7AE
:1046D0000E94142903C0802F0E94872ADF91CF9166
:1046E0001F910F910895CF93DF93CFE6D3E060E061
:1046F000CE010E94162B2196C11584E0D807B9F788
:10470000DF91CF9108951F93CF93DF93962F87303A
:10471000E8F46530D8F44C30C8F4632F122FC42F5E
:10472000D0E0CC0FDD1F28E1929FC00DD11D1124D8
:1047300098E7899FC00DD11D1124CE0187960E9454
:10474000162B612FCE0188960E94162BDF91CF91F8
:104750001F910895A0E0B0E0E0EBF3E20C94132C7D
:10476000A12CE12CF12CB12C00E010E0C0E0D0E055
:104770006701C00ED11EFE01EE0FFF1FEC0DFD1DE7
:10478000E35BFA4F259134914C2F6B2D8A2D0E94BB
:1047900083232196CC30D10571F7085E1F4FB39467
:1047A00085E0B812E3CF88E7E80EF11CA39487E018
:1047B000A812D9CFCDB7DEB7EAE00C942F2C0F9317
:1047C0001F93CF93DF93873008F56530F8F44C30B2
:1047D000E8F4C42FD0E0CC0FDD1F28E1629FC00DAC
:1047E000D11D112438E7839FC00DD11D1124CE01A6
:1047F00087960E94022B90E0182F0027CE01889602
:104800000E94022B9801282BC90102C080E090E091
:10481000DF91CF911F910F910895873048F4753043
:1048200038F46C3028F4462F672F0E94DF23089558
:1048300080E090E00895893289F1F0F4843171F1DB
:10484000B0F4873009F077C081E08093210184E1E2
:10485000809320018AE080931F018EE180931E01E6
:1048600088E080931D0188E280931C0164C092EE71
:10487000980F9A30F0F05FC0803509F444C028F4F6
:104880008F3409F058C08AE03FC0813529F0823565
:1048900009F051C081E038C08FEF36C0809192029C
:1048A000882379F110929202109291021092900254
:1048B00042C08D5180939202833099F038F4813058
:1048C00069F08230D9F480E291E00DC0853099F032
:1048D00078F0863099F48CE191E005C081E291E0B6
:1048E00002C08FE191E0909391028093900223C0E7
:1048F0008EE191E0F8CF8DE191E0F5CF1092920238
:104900001AC080E0089586EFE0919002F091910244
:10491000309789F02081082E000C990B820F911D91
:104920008F3F910519F014F08FEF04C097FF02C07C
:10493000108201C0808381E008950895EF92FF9274
:104940000F931F93CF93DF938C01CAEAD2E0E12C3F
:10495000F12CF8018481FCE0EF16F1041CF48823AB
:1049600039F002C0811104C09E0140916D0302C064
:104970009E0140E060916C0380916B030E94191DC1
:104980008FEFE81AF80A239698E1E916F10409F77F
:104990000E94701CF801848190E001968170992733
:1049A0008483CDB7DEB7E6E00C94332CA0E0B0E012
:1049B000ECEDF4E20C94112CEC014C81042F10E08E
:1049C0009801D8010E949E2B9B01AC010E94692B8B
:1049D0006B017C01E0E2F0E0E01BF10BA5E5B0E04B
:1049E0009B01AC010E94692B4B015C019F01DF011F
:1049F0000E94FC2B9B01AC010E94742B9B01AC011B
:104A00002C0D3D1D4E1D5F1DC501B4010E947C2B68
:104A1000822FF22E99E2921728F093E0299F9001BD
:104A200011240DC025E530E0281B3109C901880F8C
:104A3000991F280F391F37FF02C02F5F3F4F359551
:104A40002795122F10959AEAC92E92E0D92E00E0F0
:104A500085E5E82EEF1801FD02C08E2D01C08F2DD7
:104A60009601412F60916C030E94191D0F5F83E036
:104A7000C80ED11C083179F70E94701C8C818111FD
:104A800002C091E003C0803219F49FEF909324019B
:104A900090912401890F8C83CDB7DEB7ECE00C94A4
:104AA0002D2C0F931F93CF93DF93CAEAD2E0FE0120
:104AB000118210821282339682E0E23FF807C1F73A
:104AC00000E010E08091A802082E000C990B081756
:104AD000190794F080912301082E000C990B801780
:104AE000910754F09E0140916D0360916C03809199
:104AF0006B030E94191D03C0198218821A820F5F6E
:104B00001F4F239608311105E9F60E94701C809111
:104B100022019091A802980F9093A802209123015E
:104B2000280F20932301121614F497311CF081955D
:104B300080932201DF91CF911F910F910895A0E002
:104B4000B0E0E5EAF5E20C94142CFC01828180FFD0
:104B500003C0DD24DA9402C0DD24D3940AEA12E013
:104B6000C0E0D0E028E1B22EF8011182108212825A
:104B700094E0E92EF12CC12C8091A7028C0D893193
:104B80002CF06B2D0E94B92B892F02C087FD885E07
:104B9000082E000C990BC817D90791F480916D036A
:104BA0008E9DA0018F9D500D1124559547955595CB
:104BB0004795980160916C0380916B030E94191DC9
:104BC000CD0CF1E0EF1AF108B9F621960D5F1F4FF9
:104BD000C831D10549F60E94701C8091A70291E06E
:104BE000D91206C0811102C087E107C0815005C0FB
:104BF00090E00196BE010E94DB2B8093A702CDB707
:104C0000DEB7E9E00C94302CEF92FF921F93CF9324
:104C1000DF93EC018AEAE82E82E0F82E10E08C8126
:104C2000970140916D0360916C03810F0E94191DE3
:104C3000165F83E0E80EF11C103F89F70E94701C9C
:104C40009A818C8190FF02C08F5F01C081508C835C
:104C5000DF91CF911F91FF90EF900895A0E0B0E019
:104C6000E4E3F6E20C94122CFC01A280948081E033
:104C70008483E5E9F8E0B490E4E1F9E0E491C2EF7F
:104C8000D2E0FAEAEF2EF2E0FF2ECC24CA94D12C27
:104C9000EB190E2F10E022E02A1530F080916B0303
:104CA000888380916C038983911003C01B821A82D0
:104CB00055C08B818823F9F081508B832FEF829F21
:104CC000C00111246C8170E00E94C72BFB01FF27FB
:104CD000EB56F74F8491E82FEB192FEFE29FC001BD
:104CE0001124B8010E94C72B80916D03689FB00109
:104CF00011247A8333C00E94F22A20916D032695F5
:104D0000215830E0A901440F551F322F2227240FCC
:104D1000351F232F33278217930704F582E08A1566
:104D200088F40E94F22AB6010E94DB2B88830E943D
:104D3000F22A20916C032695622F70E00E94DB2BF3
:104D4000280F29831A8280916D03843120F0893CD9
:104D500018F088EC01C084E18C838B8397014A8131
:104D6000698188810E94191D259623E0E20EF11CBD
:104D700083E0CA36D80709F08ECF0E94701CCDB7E9
:104D8000DEB7EBE00C942E2CA3E0B0E0EAECF6E208
:104D90000C94192C8C018091A90281110AC09E01EA
:104DA0002F5F3F4F49EB6FEF0E94191D8A8180935F
:104DB000A902F8018481813051F028F0823061F439
:104DC0004091A9020AC08091A90240E007C0609109
:104DD000A90240E080E003C040E080E060E00E9483
:104DE000A61CF801848190E0019663E070E00E94C7
:104DF000DB2B84832396E4E00C94352CCF93DF9354
:104E0000EC01EAE6F3E0438162818C810E94C01EDE
:104E10008C818F5F8C83DF91CF910895CF93DF9347
:104E2000EC01EC81F0E0EB56F74F4491EAE6F3E059
:104E3000628181810E94C01E8C818F5F8C83DF9193
:104E4000CF910895482F50E0FA013597EF33F105DF
:104E500008F073C0E158FF4F0C94EF2B0E945514DB
:104E60006AC080917003817F8E7F8093700381E0A0
:104E700080936F0308950E94FE282FEF84E39CE047
:104E8000215080409040E1F700C000000E94F921CD
:104E900052C080917003982F9095917090FB80F98B
:104EA00080937003911147C0897F877F10C08091E4
:104EB000700381FB222720F991E0922790FB81F972
:104EC000809370039923B9F180917003816080937E
:104ED000700331C08091700382FB222720F991E09A
:104EE000922790FB82F9ECCF8091700383FB2227FD
:104EF00020F991E0922790FB83F9E2CF0E94FE28EF
:104F00008091A10287FB222720F991E0922790FB54
:104F100087F98093A1020FC0895301C08D5191E0A0
:104F200001C0990F8A95EAF7892F01C081E00E949C
:104F3000D9280E94FE2881E0089580E0089586E245
:104F400090E00E94162B0895CF93C82F811102C0C4
:104F50006FEF01C062E283E290E00E94162BC11164
:104F600002C06FEF01C068E084E290E00E94162B5F
:104F7000C11102C06FEF01C062E185E290E00E94C2
:104F8000162BCF91089580E00E94A42760E070E086
:104F9000CB010E949F270E94AA230E94732381E0D5
:104FA0000E94A427089583E290E00E94022B82329F
:104FB00081F484E290E00E94022B883051F485E273
:104FC00090E00E94022B91E0823109F090E0892F5D
:104FD00001C080E08170089590916A0390FF04C041
:104FE0009695981748F003C0811106C090E0961777
:104FF00018F40E94B51E089561E00E94691E08958C
:10500000882311F0FA0101C0FB010995089580E0A1
:1050100090E00E94E72280E090E00E94D12210926E
:1050200042020E94CD14E2E8F2E086E0DF011D9228
:105030008A95E9F710927C0210927B0210927D0211
:105040000E94D81E0895CF92DF92FF920F931F9374
:10505000CF93DF936C0100917A0280914502082B77
:10506000C7E0D0E010E0C8010C2E02C095958795EE
:105070000A94E2F780FD04C02197A8F7F12C09C03B
:10508000FC2EB6018C2F0E940D240E949E120197C7
:1050900099F38F2DDF91CF911F910F91FF90DF90AA
:1050A000CF900895292F953078F58C3068F590E0F1
:1050B0003CE0239F800D911D1124682F677023E031
:1050C000969587952A95E1F7FC01EE0FFF1FE80FF3
:1050D000F91FEF58FC4F40E050E080E0219130E0B4
:1050E000062E02C0369527950A94E2F721703327E1
:1050F000042E01C0220F0A94EAF7822B4F5F5F4F04
:105100004330510559F7089580E00895292F9530CF
:1051100088F58C3078F590E03CE0239F800D911D60
:105120001124282F277051E001C0550F2A95EAF766
:1051300023E0969587952A95E1F7FC01EE0FFF1F76
:10514000E80FF91FEF58FC4F20E030E070E040819D
:10515000CB01022E02C0969587950A94E2F78170E2
:10516000819584278523842781932F5F3F4F2330A8
:10517000310569F7089580937A020E9407280895FF
:1051800021E030E001C0220F8A95EAF72095809156
:105190007A0282230E94BB28089521E030E001C0FA
:1051A000220F8A95EAF780917A02822B0E94BB280F
:1051B0000895809345020E9407280895FC0180818C
:1051C00091810E94CE1592959F70963079F010F4DF
:1051D000925001C09A50923068F4803F69F018F400
:1051E000883E40F409C0843F29F406C0883E20F080
:1051F000813F11F080E0089581E00895109243020C
:1052000080911001882331F08091A10287FF02C0B4
:105210008EE101C086E0EBECF1E0DF011D928A95A2
:10522000E9F70E9407280895882321F00E94C614F8
:105230000E94CD140895882339F090914302892B60
:10524000809343020E94CD140895882309F45FC01F
:10525000823869F40E94FD2281FF59C069E389EC1C
:1052600091E00E949C220E94CD1469E30EC0833815
:1052700099F40E94FD2280FF4AC063E589EC91E029
:105280000E949C220E94CD1463E589EC91E00E946B
:1052900074220E94CD140895843869F40E94FD227E
:1052A00082FF35C067E489EC91E00E949C220E9455
:1052B000CD1467E4EACF9CEF980F913A10F4682F71
:1052C000E4CF90E2980F983050F4877091E001C0DD
:1052D000990F8A95EAF7892F0E94C614DACF9BE5C9
:1052E000980F933028F480E090E00E94E722089520
:1052F00098E5980F973128F480E090E00E94D12241
:105300000895803F20F00E94021F0E94D81E089539
:10531000CF93882309F4F9C0C82F8238B1F40E94D2
:10532000FD2281FDF2C069E389EC91E00E949C229C
:105330000E94CD142FEF81EE94E0215080409040E8
:10534000E1F700C0000069E317C08338E1F40E9470
:10535000FD2280FDDAC063E589EC91E00E949C2289
:105360000E94CD142FEF81EE94E0215080409040B8
:10537000E1F700C0000063E589EC91E00E9474222F
:105380000E94CD14C2C08438B1F40E94FD2282FD77
:10539000BCC067E489EC91E00E949C220E94CD147D
:1053A0002FEF81EE94E0215080409040E1F700C063
:1053B000000067E4E1CF8CEF8C0F813A98F5809183
:1053C0006F03813081F030F0823049F58C2F0E94DC
:1053D0001B249BC080914302823209F05EC08C2F57
:1053E0000E94222758C0809143028232C1F3C43107
:1053F00099F068F4CB3009F44CC0C03109F046C0D4
:1054000082E080936F0388E30E941B2442C0C9326C
:1054100019F0C833F1F13AC010926F0337C01092FF
:105420006F033BC080E28C0F883068F4C77081E066
:1054300090E001C0880FCA95EAF790914302892B4A
:10544000809343029DCFEBE5EC0FE33040F4F0E0B6
:10545000EA5CFE4F808190E00E94E72256C0E8E5BA
:10546000EC0FE73150F4F0E0EE0FFF1FE75CFE4F6A
:10547000808191810E94D12248C0C03F08F445C07C
:105480008C2F0E94F11F0E94D81E3FC080E08170C7
:1054900002C081E0FCCF811138C0809110018823C7
:1054A000E1F08091A10287FF18C0EC2FE695E69508
:1054B000E695F0E0E753FE4F8281282F30E04C2F35
:1054C000477081E090E002C0880F991F4A95E2F78B
:1054D00082239323892B61F412C0EBECF1E081ED80
:1054E00091E02191C21721F08E179F07D1F707C0D5
:1054F0006C2F89EC91E00E9474220E94CD146C2FD5
:1055000089EC91E00E949C223BCFCF9108951F939C
:10551000CF93DF93182F893319F0C0E0D0E002C099
:10552000C0E5D0E0812F0E948829209741F08FE9C3
:105530009FE00197F1F700C000002197F6CF812F7F
:105540000E942529DF91CF911F9108958F929F92FC
:10555000AF92BF92CF92DF92EF92FF92CF93DF9301
:10556000EC01688179818A819B81611571058105D2
:10557000910521F464E279ED8BE597E02DE133EFBD
:1055800041E050E00E944A2B49015A019B01AC01C5
:10559000A7EAB1E40E94692B6B017C01ACEEB4EF89
:1055A000A50194010E94772BDC01CB018C0D9D1D80
:1055B000AE1DBF1DB7FF03C00197A109B048888386
:1055C0009983AA83BB839F77DF91CF91FF90EF9060
:1055D000DF90CF90BF90AF909F908F9008950E94E2
:1055E000A62A089580E091E00E94A62A0895A0E0EE
:1055F000B0E08093000190930101A0930201B09369
:1056000003010895F999FECF92BD81BDF89A9927BB
:1056100080B50895A6E1B0E044E050E00C943C2B46
:10562000A8E1B0E042E050E00C943C2B262FF99921
:10563000FECF92BD81BDF89A019700B4021639F0F1
:105640001FBA20BD0FB6F894FA9AF99A0FBE0895C2
:105650000396272F0E94172B0E94162B252F0E949E
:10566000172B242F0C94172B0196272F0E94172BF2
:105670000C94162BDC01CB01FC01F999FECF06C07E
:10568000F2BDE1BDF89A319600B40D924150504000
:10569000B8F70895052E97FB1EF400940E94612B25
:1056A00057FD07D00E947C2B07FC03D04EF40C94CE
:1056B000612B50954095309521953F4F4F4F5F4F4F
:1056C000089590958095709561957F4F8F4F9F4F6E
:1056D00008950E949E2BA59F900DB49F900DA49FAE
:1056E000800D911D11240895B7FF0C94692B0E9421
:1056F000692B821B930B0895A1E21A2EAA1BBB1BD8
:10570000FD010DC0AA1FBB1FEE1FFF1FA217B3078D
:10571000E407F50720F0A21BB30BE40BF50B661FA3
:10572000771F881F991F1A9469F760957095809567
:1057300090959B01AC01BD01CF010895A29FB001DE
:10574000B39FC001A39F700D811D1124911DB29FB5
:10575000700D811D1124911D0895991B79E004C0DD
:10576000991F961708F0961B881F7A95C9F78095A0
:10577000089587FB082E062687FD819567FD6195B4
:105780000E94AD2B0EF4919507FC81950895AA1BFC
:10579000BB1B51E107C0AA1FBB1FA617B70710F01C
:1057A000A61BB70B881F991F5A95A9F7809590954E
:1057B000BC01CD01089597FB072E16F4009407D085
:1057C00077FD09D00E94C72B07FC05D03EF49095C9
:1057D00081959F4F0895709561957F4F0895EE0FC5
:1057E000FF1F0590F491E02D0994692796276927FA
:1057F00078278727782708950E949E2B332312F459
:105800008A1B9B0B0C94062C0E949E2BB7FF0895BD
:10581000821B930B08952F923F924F925F926F924B
:105820007F928F929F92AF92BF92CF92DF92EF9230
:10583000FF920F931F93CF93DF93CDB7DEB7CA1BB1
:10584000DB0B0FB6F894DEBF0FBECDBF09942A88DC
:10585000398848885F846E847D848C849B84AA8484
:10586000B984C884DF80EE80FD800C811B81AA8111
:10587000B981CE0FD11D0FB6F894DEBF0FBECDBFDC
:10588000ED010895FC014150504030F001900616A2
:10589000D1F73197CF010895882799270895FB0103
:1058A000DC0104C08D910190801921F441505040D9
:0C58B000C8F7881B990B0895F894FFCFEF
:1058BC00010000004D200621E720E220DD204C20D5
:1058CC000101191A1B1C1D1E1F20212228081E0A4B
:1058DC00140101020131F7F6F5F49392919094665C
:1058EC0097C634353332818283E200E900EA00B591
:1058FC0000B600B700CD008301CC008A0192019460
:10590C00012102230224022502260227022A02B3C5
:10591C0000B4006F0070004022B6223B03190363F1
:10592C000241028D03A603C603DF0300010202023B
:10593C00020606060909090909090F0F0F0F0F0FB7
:10594C0015151518191919191919191919192324B3
:06595C0025252525252567
:00000001FF
