:100000000C94EB050C9423060C9423060C94230605
:100010000C9423060C9423060C9423060C942306BC
:100020000C9423060C9423060C941A270C94EC27AA
:100030000C9461210C9423060C9423060C94230643
:100040000C9423060C9423060C9423060C9423068C
:100050000C9423060C94EA210C9423060C9423069A
:100060000C9423060C9423060C9423060C9423066C
:100070000C9423060C9423060C9423060C9423065C
:100080000C9423060C9423060C9423060C9423064C
:100090000C9423060C9423060C9423060C9423063C
:1000A0000C9423060C9423060C942306870A870AD3
:1000B000B30AB30A1B0B150C150C150C390BA10B4D
:1000C000B20BB20BD117D417F41705180D18181866
:1000D0005E185E185E185E185E181B181E1823182E
:1000E00030183D1840184418511854287B2873299B
:1000F0007B287329C728EA28732941295029200021
:1001000047004100430053004D6F64733A002000E4
:10011000530043004E004C6F636B3A0020004C3399
:10012000004C32004C31004C4159455200560054AD
:100130000029001F0021002300250027002E004673
:1001400000550053001E0020002200240026002D30
:100150000031000000570060002B001A0015001C41
:10016000000C00130030004C0061005F0014000818
:10017000001700180012002F002A00000057005D31
:10018000003900160009000B000E00330028004B58
:10019000005E005C00040007000A000D000F003440
:1001A000003500000058005A00E1001B0019001142
:1001B0000036003800520000005B0059001D0006A8
:1001C000000500100037000000E5004E00580062F6
:1001D00000E000E20000002C000000E400510000FC
:1001E0000063006200E30000000000000001510015
:1001F0000050004F0001000100010001000100015A
:1002000000010001000100005C010001000100018B
:10021000000100010001000100010000000100C315
:100220005C0100010001000100010001000100DE8D
:100230005CC25C010001000100010001000100013D
:1002400000010000000100C75C0100010001000185
:1002500000010001000100015CC55CC95C010001F6
:10026000000100010001000100010000000100C8C0
:100270005C0100010001000100010001000100001B
:1002800000C65CCA5C010001000100010001000021
:100290000001000100010001000100010000000157
:1002A0000000000100010000000100010001000049
:1002B0000000000000010000000100010001000139
:1002C0000001000100010001000100010001000126
:1002D0000001000100010001000100010001000116
:1002E0000001000000010001000100010001000107
:1002F00000010001000100010001000100010001F6
:1003000000010001000100010001000000010001E6
:1003100000010001000100010001000100010001D5
:1003200000010001000100010001000100010001C5
:1003300000010000000100010001000100010001B6
:1003400000010001000100000001000100010001A6
:100350000001000100010000000100010001000196
:100360000001000100000001000000010001000088
:100370000001000100010000000000000001000079
:100380000001000100010001000100010001000165
:100390000001000100010001000100010001000155
:1003A0000001000100010001000100000001000146
:1003B0000001000100010001000100010001000135
:1003C0000001000100010001000100010001000125
:1003D0000001000000010001000100010001000116
:1003E0000001000100010001000100010001000105
:1003F00000010001000100010001000000010001F6
:1004000000010001000100010001000100010000E5
:1004100000010001000100010001000100010000D5
:1004200000010001000100010001000100000001C5
:1004300000000001000100000001000100010000B7
:1004400000000000000100000001000100000000A9
:1004500000000000002A2B2800000000000000001F
:10046000000000000000000029000000002C1E34E5
:1004700020212224342627252E362D3738271E1FEB
:10048000202122232425263333362E37381F040516
:10049000060708090A0B0C0D0E0F10111213141584
:1004A000161718191A1B1C1D2F3130232D35040562
:1004B000060708090A0B0C0D0E0F10111213141564
:1004C000161718191A1B1C1D2F3130354C0000004F
:1004D000000000000000000000000000000000001C
:1004E000000000000000000000000000000000000C
:1004F000007E0F00D4FFFFFFC70000007800AE00B1
:10050000AF00DA0281FFD9F1DB20A4A62EAF00A054
:10051000C000A1C800AED580A81FD300408D142014
:100520000007087F0807003E5B4F5B3E003E6B4FB5
:100530006B3E001C3E7C3E1C00183C7E3C18001CA0
:10054000577D571C001C5E7F5E1C0000183C180085
:1005500000FFE7C3E7FF00001824180000FFE7DBF7
:10056000E7FF0030483A060E002629792926004088
:100570007F05050700407F05253F005A3CE73C5AB0
:10058000007F3E1C1C0800081C1C3E7F0014227FBC
:100590002214005F5F005F5F0006097F017F00009B
:1005A0006689956A0060606060600094A2FFA29412
:1005B0000008047E04080010207E20100008082A8D
:1005C0001C0800081C2A0808001E10101010000C3F
:1005D0001E0C1E0C0030383E383000060E3E0E0653
:1005E0000000000000000000005F000000000700A5
:1005F000070000147F147F1400242A7F2A1200238E
:1006000013086462003649562050000008070300B2
:1006100000001C224100000041221C00002A1C7F17
:100620001C2A0008083E08080000807030000008FE
:10063000080808080000006060000020100804029C
:10064000003E5149453E0000427F4000007249494A
:100650004946002141494D33001814127F100027EC
:1006600045454539003C4A494931004121110907B6
:1006700000364949493600464949291E0000001400
:100680000000000040340000000008142241001463
:100690001414141400004122140800020159090620
:1006A000003E415D594E007C1211127C007F494989
:1006B0004936003E41414122007F4141413E007F99
:1006C00049494941007F09090901003E41415173EF
:1006D000007F0808087F0000417F41000020404162
:1006E0003F01007F08142241007F40404040007FCE
:1006F000021C027F007F0408107F003E4141413E02
:10070000007F09090906003E4151215E007F091959
:1007100029460026494949320003017F0103003F71
:100720004040403F001F2040201F003F4038403FD6
:10073000006314081463000304780403006159493A
:100740004D4300007F414141000204081020000099
:100750004141417F0004020102040040404040400A
:10076000000003070800002054547840007F28440C
:10077000443800384444442800384444287F003832
:10078000545454180000087E09020018A4A49C7850
:10079000007F080404780000447D400000204040B1
:1007A0003D00007F102844000000417F4000007C95
:1007B00004780478007C0804047800384444443801
:1007C00000FC182424180018242418FC007C0804B9
:1007D00004080048545454240004043F4424003CBA
:1007E0004040207C001C2040201C003C4030403C0D
:1007F000004428102844004C9090907C004464549D
:100800004C44000008364100000000770000000062
:1008100041360800000201020402003C2623263C67
:1008200000000000000000404040F0F8F8FF38FFF2
:10083000F8F83FF8F8FF38FFF8F8F04040400000C3
:100840000000000080C0C0C0800000C0C080000068
:100850000080C0C000C0C0000080C0C00000000018
:1008600000C0C0C0C0C000C0C00000000000000048
:100870000000000000000000000000000000000078
:100880000000000000000000000000000000000068
:100890000000000000000000000000000000000058
:1008A000C0F0F8FC3E1E06010000007F4141417F80
:1008B000007F4141417F000080C0E07E5B4F5BFED6
:1008C000C00000C000DCD7DEDEDED7DC00C00000E8
:1008D0000000000000000000000000000000000018
:1008E00000000000000000494949FFFFFFFFE0DF72
:1008F000BFBF00BFBFDFE0FFFFFFFF494949000066
:100900000000001F3F6060E0BF1F007F7F071E38B0
:100910001E077F7F007F7F0E1F3B7160000000007D
:10092000007F7F0C0C0C007E7E007F7E0303007F27
:100930007E03037E7E03037F7E000F3E703C063CF9
:10094000703E0F00327B49493F7E007F7E030300EB
:100950001E3F69696F2600000000000000000000D3
:10096000030F1F3F3C7870600000007F4141417FD2
:10097000007F4141417F00307B7F783020203078FC
:100980007F3B0003000F7F0F0F0F7F0F000300005E
:100990000000000000000000000000000000000057
:1009A00000000000000000010101070F0F7F0F7F12
:1009B0000F0F7E0F0F7F0F7F0F0F07010101000048
:1009C0000000000000000000010100000000000025
:1009D0000000000000000000000000000000000017
:1009E0000000000000000000000000000000000007
:1009F00000000000000000000000000000000000F7
:100A000000000000000000000000000000000000E6
:100A100000000000000000000000000000000000D6
:100A200000000000000000000000000000000000C6
:100A300000000000000000000000000000000000B6
:100A400000000000000000000000000000000000A6
:100A50000000000000000000000000000000000096
:100A6000001E034100450042006F006100720064F7
:100A70000073002000450078007400360035000047
:100A80000012034100450042006F006100720064E3
:100A900000730000000403090409025B0003010065
:100AA000A0FA09040000010301010009211101005D
:100AB000012240000705810308000109040100022A
:100AC0000300000009211101000122220007058214
:100AD00003200001070503032000010904020001AF
:100AE00003000000092111010001226D00070584A7
:100AF000032000011201000200000008454165AE1C
:100B00000100010200010660FF0961A101096215EF
:100B10000026FF009520750881020963150026FF55
:100B200000952075089102C005010980A101850387
:100B300019012AB700150126B7009501751081002B
:100B4000C0050C0901A101850419012AA0021501A3
:100B500026A002950175108100C005010906A101BA
:100B60008506050719E029E7150025019508750197
:100B700081020507190029EF1500250195F075017F
:100B80008102050819012905950575019102950154
:100B900075039101C005010906A101050719E029A6
:100BA000E7150025019508750181029501750881F9
:100BB000010507190029FF150026FF009506750895
:100BC0008100050819012905950575019102950116
:100BD00075039101C00011241FBECFEFDAE0DEBF24
:100BE000CDBF04B603FE18C080910C0590910D0591
:100BF000A0910E05B0910F058730904BA740B04BE8
:100C000059F410920C0510920D0510920E051092D9
:100C10000F05E0E0F8E3099511E0A0E0B1E0EEEBAC
:100C2000F4E502C005900D92A43AB107D9F725E08A
:100C3000A4EAB1E001C01D92AC30B207E1F70E9416
:100C400008170C945D2A0C940000559A539A529AF6
:100C5000519A0895CF93C82F0E94B508882379F040
:100C6000C0FF02C05D9A01C05D98C1FF02C05B9ADF
:100C700001C05B98C2FF02C05A9A01C05A98CF9136
:100C80000895CF93C82F0E949D08813011F4599A7E
:100C900001C059988C2F0E94D10CCF91089560E02B
:100CA00087E291E00E94ED1981E00E940E0D682F0D
:100CB00084E291E00E94ED1982E00E940E0D682FFF
:100CC00081E291E00E94ED1983E00E940E0D682FF1
:100CD0008EE191E00E94ED1960E08CE191E00E94CC
:100CE000ED190895CF93C82F60E086E191E00E944E
:100CF000ED196C2F617084E191E00E94D219C1FB63
:100D0000662760F982E191E00E94D219C2FB662752
:100D100060F980E191E00E94ED1960E08EE091E0E1
:100D20000E94ED19CF910895CF93C82F60E088E01D
:100D300091E00E94ED198C2F827261E009F460E06D
:100D400086E091E00E94D21961E08C2F817109F454
:100D500060E084E091E00E94D21961E08C2F8474FD
:100D600009F460E082E091E00E94D219C87861E065
:100D700009F460E080E091E00E94ED1960E08EEF00
:100D800090E00E94ED19CF910895CF930E944F06F5
:100D90000E9408200E9472060E942211C82F0E9401
:100DA00045118C2B0E94940680E0CF91089581E03C
:100DB000089581E008950E94D906089508950E943B
:100DC000DE060895A5E0B0E0E8EEF6E00C94DD293B
:100DD00049835A833091A70189819A81311114C0C6
:100DE000662359F0222349F00E94CE0D182F682F58
:100DF00089819A810E94AA0D03C00E94BC0D182F00
:100E000069817A81812F04C00E94CE0D69817A8127
:100E10000E945E1D2596E3E00C94F929FC01262F23
:100E2000408151816281738184810E94E20608952C
:100E300081E00895CF93DF93EC0160E00E940E07FC
:100E4000BE010E94DF06DF91CF910895E1E0F0E05E
:100E5000DF0102C0AA0FBB1F6A95E2F7BD01DF01E7
:100E600002C0AA0FBB1F4A95E2F7AD01462B01C095
:100E7000EE0F2A95EAF7942F9823491302C08E2B80
:100E80000895E0958E230895242F462F682F809192
:100E9000CF010E9426070E94F40C08950E94CD15F0
:100EA00008950E94C715089508950E94940C0E9409
:100EB00054072FEF84E39CE0215080409040E1F7FD
:100EC00000C0000008950E9455070E941022089556
:100ED0000E9455070E94342208950F931F93CF93C9
:100EE000DF938C0161E00E940E07EC01B8010E94C3
:100EF0008017882309F447C0B801CE010E94DB06A1
:100F0000882309F440C0B801CE010E94A81E88239E
:100F1000D1F1B801CE010E94501B8823A1F1B80184
:100F2000CE010E940E1E882371F1F8018281882370
:100F300031F1CA358DE5D807E9F050F4C115FCE56B
:100F4000DF0779F0CE3DDC45D1F40E94C3120CC01E
:100F5000CC35EDE5DE0759F080F0C73ADD4521F0EC
:100F60000EC00E9463070FC00E9468070CC00E9459
:100F7000FA1105C00E94041202C00E940812C801A2
:100F80000E94D70601C080E0DF91CF911F910F91A1
:100F900008950E9439210E94C1080E94071B0895EC
:100FA0000E94C5080E9442210895A0E0B0E0EBED48
:100FB000F7E00C94D929E82FF0E0E35BFB4FD490E5
:100FC000282F26952695269530E0F901E351FB4F11
:100FD0000491877010E0082E02C0159507950A94B9
:100FE000E2F701701127F901E352FB4FE490F12C75
:100FF000082E02C0F594E7940A94E2F791E0E92202
:10100000FF24F901E353FB4FC491D0E002C0D59512
:10101000C7958A95E2F7C170DD270115110519F012
:1010200081EE0E941C09E114F10419F086EE0E9481
:101030001C098D2D0E94360AE114F10419F086EE88
:101040000E94BD090115110519F081EE0E94BD092C
:10105000CD2B19F08CE20E94360ACDB7DEB7E7E05F
:101060000C94F529EF92FF920F931F93CF93DF9388
:10107000EC01162F0AE08881882309F455C08130DD
:1010800009F043C08981813041F47E0182E0E80E9D
:10109000F11C8A810E94360A09C0823049F47E011F
:1010A000E2E0EE0EF11C8A810E941C09E7012FC0CC
:1010B000833041F47E01F2E0EF0EF11C8A810E9440
:1010C000BD09F4CF843011F0219621C02A812296E7
:1010D00080E090E030E0205331092A30310558F4A7
:1010E000089FA001099F500D1124C901840F951F6D
:1010F00021962881EFCF009751F0EFE9FFE031977B
:10110000F1F700C000000197F6CF0E94D5072196A5
:10111000812F882309F4AFCFEFE9FFE03197F1F792
:1011200000C000008150F5CFCDB7DEB7E6E00C94EB
:10113000F62960E00E9432080895982F92959F70DA
:1011400019F0892F24E001C020E0982F96959695FC
:1011500011F02E5F892F982F969509F02F5F822F1F
:10116000089508950E94B108089581E008950895B2
:10117000CF93C82F0E94B2088C2F0E942A06CF91CD
:10118000089580E00E94B80808950E94FB1F0E9405
:10119000B80808950E94FB1F9091A601891721F0BD
:1011A0008093A6010E94B8080895ABE0B0E0EBED93
:1011B000F8E00C94DE294F83588769877A878B87FC
:1011C00061110E9442119E012F5F3F4F86E0F9019D
:1011D00011928A95E9F785E0FE013796D9010190D1
:1011E0000D928A95E1F789819A814C815D81452B29
:1011F00031F09F3F31F491E08F3F19F403C091E04B
:1012000001C090E090FF09C049815A816B817C81C7
:101210008D819E810E946E1005C0C9010E94180731
:101220008111F2CF2B96E2E00C94FA29FC01808127
:1012300091810E94FB0D0895CF93882309F49BC0F0
:10124000C82F8238C1F40E94FB1F81FD94C069E35E
:1012500080910001909101010E94E7200E94661197
:101260002FEF81EE94E0215080409040E1F700C0E4
:10127000000069E319C0833801F50E94FB1F80FD5F
:101280007AC063E580910001909101010E94E720FE
:101290000E9466112FEF81EE94E021508040904033
:1012A000E1F700C0000063E5809100019091010129
:1012B0000E94F5200E9466115EC08438C1F40E942D
:1012C000FB1F82FD58C067E48091000190910101ED
:1012D0000E94E7200E9466112FEF81EE94E02150DA
:1012E00080409040E1F700C0000067E4DDCF8CEF64
:1012F0008C0F813AD0F46C2F809100019091010104
:101300000E946720882349F06C2F80910001909102
:1013100001010E94F5200E9466116C2F809100014E
:10132000909101010E94E720C5CF80E28C0F8830A8
:1013300048F4C77081E001C0880FCA95EAF70E949F
:101340002511B8CFEBE5EC0FE33040F4F0E0EC5BB7
:10135000FE4F808190E00E9425200DC0C85AC73101
:1013600050F4EC2FF0E0EE0FFF1FEA5EFE4F80819D
:1013700091810E943B20CF910895882309F45DC09C
:10138000682F823879F40E94FB1F81FF56C069E301
:1013900080910001909101010E94E7200E94661156
:1013A00069E310C08338B9F40E94FB1F80FF45C079
:1013B00063E580910001909101010E94E7200E9465
:1013C000661163E580910001909101010E94F52072
:1013D0000E9466110895843879F40E94FB1F82FFF1
:1013E0002CC067E480910001909101010E94E720E8
:1013F0000E94661167E4E6CF8CEF860F813A10F306
:1014000080E2860F883048F4677081E001C0880F61
:101410006A95EAF70E942B11DBCF8BE5860F8330AC
:1014200028F480E090E00E9425200895685A6731F2
:1014300020F480E090E00E943B2008951F93CF931A
:10144000DF93182FEB010E941C09209741F08FE9D0
:101450009FE00197F1F700C000002197F6CF812FA0
:101460000E94BD09DF91CF911F910895893319F032
:1014700060E070E002C060E570E00E941E0A08951E
:10148000882321F00E9425110E9466110895882367
:1014900021F00E942B110E9466110895A0E0B0E097
:1014A000E4E5FAE00C94D8297C01162FC72FFC0143
:1014B000D281058102950F700E941B118823B9F01B
:1014C000DD23A9F08C2F807F803421F080E2810F12
:1014D000883068F08091CC0282FF09C082E00E94CF
:1014E000C8110E941B1191E0D82ED92601C0D12C21
:1014F000CC2EC2948FE0C8228C2D90E08C309105C8
:1015000008F093C1FC01EA5AFF4F0C94C1298C2FBB
:10151000807FCF70882311F0C295C07FDD2399F0C2
:10152000CC2309F46EC180E2810F883010F01111D4
:1015300004C08C2F0E94251103C08C2F0E943511EE
:101540000E9466115EC1812F0E94BD09CC2309F45F
:101550006CC180E2810F883038F1112329F18C2F82
:101560000E943B1124C08C2F807FCF70803211F0FD
:10157000C295C07F112319F01130A1F13DC08091B7
:10158000CC0282FD17C0DD2349F0CC2329F08C2F3B
:101590000E9425110E94661180E034C180E00E9403
:1015A000BD09CC2309F441C18C2F0E942B110E944C
:1015B00066113BC1DD2371F0002341F0013031F4AD
:1015C0000E9445118C2B0E944F112FC10E94451182
:1015D0008C2B1DC0002319F0013009F426C10E9494
:1015E0005C1125C0DD2321F0063008F01EC10EC0BD
:1015F000053008F01AC11BC0DD2361F0002331F073
:10160000F701858180FFFDC08F7085838C2F0E943C
:10161000400A0BC1002359F0193309F003C1FFEF51
:1016200027EE83E0F15020408040E1F7F9C08C2F95
:101630000E94470AFAC08C2F86958695837019F010
:10164000813061F0F2C0DD2321F0812F9C2F937057
:1016500002C080E090E00E942520EFC0DD2321F051
:10166000812F9C2F937002C080E090E00E943B206D
:10167000E4C08C2F837079F5D111DBC0412F4295E6
:1016800046954770440F440F212F2F70042E01C040
:10169000220F0A94EAF714FF08C08FE090E001C01F
:1016A000880F4A95EAF7809501C080E0C695C695F7
:1016B000C370822BC23049F058F4C13019F00E9437
:1016C000E80CB7C00E94E20CB4C00E94EE0CB1C09E
:1016D0000E94DF0CAEC0DD2319F08C2F817001C099
:1016E0008695882309F4A5C0412F429546954770F9
:1016F000440F440F212F2F70042E01C0220F0A9493
:10170000EAF714FF08C08FE090E001C0880F4A9507
:10171000EAF7809501C080E0C695C695C370822B1C
:10172000C23049F058F4C13019F00E94480D81C010
:101730000E94420D7EC00E944E0D7BC00E94F40CA0
:1017400078C0CF70DD2339F08C2F0E941D0D812FC2
:101750000E94400A6EC0812F0E94470A8C2F0E946F
:10176000290D67C0123F21F128F4103F41F0113FCD
:10177000C1F043C0133F19F1143F79F03EC0DD239F
:1017800041F0053008F051C08C2F8F710E94360D4A
:101790004CC0063008F049C0F7CF8091CC0282FDE2
:1017A00018C0DD2339F08C2F8F710E941D0D3DC0B4
:1017B000DD23C9F38C2F8F710E94290D36C0DD23E4
:1017C00029F08C2F8F710E94140D2FC00E94FB0CEA
:1017D0002CC0DD2349F0CF718C2F0E941D0D63E0DA
:1017E0008C2F0E94AA1121C081E00E94C8110230F2
:1017F000E0F082E00E94C81118C0DD2331F0002320
:1018000091F2812F0E941C0910C0002399F2193314
:1018100049F49FEFE7EEF3E09150E040F040E1F74C
:1018200000C00000812F0E94BD0988EF8C0D84301C
:1018300020F40E94FB1F0E94B808DD2089F00E945E
:10184000171180FD0DC0F70112820E9411110E9434
:101850001D0DC7010E944D0C0E9411110E94290DFF
:10186000CDB7DEB7E8E00C94F4290F931F93CF9324
:10187000DF93EC01688179818A810E94060E8C01D8
:101880000E94540D0E94D00CB801CE010E944E0A55
:10189000DF91CF911F910F910895CF93DF93EC01CA
:1018A000988189812B813C81232B31F08F3F31F44A
:1018B00081E09F3F19F403C081E001C080E080FD1A
:1018C0001AC0CE010E946D0781110FC00E941B112A
:1018D000882389F08A81882371F08091CC0282FF6D
:1018E0000AC082E00E94C81106C0CE010E94350CD9
:1018F000CE010E941A07DF91CF91089580E090E019
:101900000E94252080E090E00E943B200E9442112E
:101910000E946611089580910001909101010E943A
:1019200003210E947E0C08950E9432110E948B0CAC
:10193000089592959F70963079F010F4925001C0FE
:101940009A50923068F4803F69F018F4883E40F471
:1019500009C0843F29F406C0883E20F0813F11F081
:1019600080E0089581E00895FC01808191810E94CA
:10197000FB0D0E94990C0895A5E0B0E0E2ECFCE0BC
:101980000C94DE292596E2E00C94FA29A6E0B0E05A
:10199000ECECFCE00C94DE292696E2E00C94FA29AB
:1019A000089508950E94D10C08950E94D20C0895C4
:1019B0000E94D50C8093D0010E947E0C08950E9455
:1019C000D80C08959091D001892B0E94D80C0895CD
:1019D0009091D00189230E94D80C08959091D00154
:1019E00089270E94D80C08950E9441068093CF0158
:1019F0000E947E0C089580E00E94F40C08958111ED
:101A000005C081E0662349F080E0089590E002C0BF
:101A1000959587956A95E2F781700895682F809172
:101A2000CF010E94FF0C089591E001C0990F8A95A3
:101A3000EAF7892F0E94F40C089521E030E001C0FC
:101A4000220F8A95EAF78091CF01822B0E94F40C35
:101A5000089521E030E001C0220F8A95EAF7209531
:101A60008091CF0182230E94F40C089521E030E0A0
:101A700001C0220F8A95EAF78091CF0182270E9448
:101A8000F40C08959091CF01892B0E94F40C0895D5
:101A90009091CF0189230E94F40C08959091CF0179
:101AA00089270E94F40C08950895962F9770A1E05D
:101AB00001C0AA0F9A95EAF793E0769567959A95F3
:101AC000E1F7FB01EE0FFF1F6E0F7F1FFA01E60F1C
:101AD000F71F40E050E0682F70E090819B01042EDA
:101AE00002C0369527950A94E2F72170219529279F
:101AF0002A23292721934F5F5F4F4330510569F710
:101B000008959B01782F777043E0969587954A95C5
:101B1000E1F7FC01EE0FFF1F8E0F9F1FF901E80F89
:101B2000F91F40E050E080E0219130E0072E02C034
:101B3000369527950A94E2F721703327042E01C0C9
:101B4000220F0A94EAF7822B4F5F5F4F4330510513
:101B500059F70895282F9A3070F48A3060F4862F50
:101B6000622F70E02AE0929F600D711D112448EAF7
:101B700051E00E94550D08959A3070F48A3060F457
:101B8000292F90E068EA71E03AE0239F800D911DD3
:101B900011240E94810D089580E00895CF92DF9274
:101BA000FF920F931F93CF93DF936C010091CF01AE
:101BB0008091D001082BC7E0D0E010E0C8010C2EC6
:101BC00002C0959587950A94E2F780FD04C021979D
:101BD000A8F7F12C07C0FC2EB6018C2F0E949D1493
:101BE0000197A9F38F2DDF91CF911F910F91FF9056
:101BF000DF90CF900895CF93DF93EC010E94CE0D3C
:101C0000BE010E949D14DF91CF9108951F93CF9341
:101C1000DF93EB019091A701992321F0CB010E9462
:101C2000FB0D13C0882349F0CB010E94CE0D182F65
:101C3000682FCE010E94AA0D04C0CB010E94BC0DEA
:101C4000182FBE01812F0E949D14DF91CF911F910B
:101C500008951F93CF93DF93C091D10116E0809137
:101C6000D201C81799F0D0E01C9FF0011D9FF00D24
:101C70001124ED52FE4F4081518162817381848134
:101C800095810E94C60C2196C770E9CFDF91CF9154
:101C90001F91089540910302509104026091050242
:101CA0007091060280910702909108020E94C60C72
:101CB00008950F931F93CF93DF938091080282952D
:101CC0008F7009F05AC080910502882309F455C02D
:101CD0008091D1011091D2016091030270910402B0
:101CE000C0910602D091070291E06F3F09F090E0A9
:101CF000292F06E0811709F440C0209721F07F3F8B
:101D000021F030E003C031E001C0322F90E030FD1F
:101D100031C0089FF001099FF00D1124DF01AD5281
:101D2000BE4F11963C911197371324C03C91361346
:101D300021C012963C91129731111CC013964D91FF
:101D40005C9114974C1B5D0B483C510598F48091B5
:101D500008028F70806180930802E852FE4F8081F4
:101D60008F708061808383E092E00E944D0C0E941E
:101D7000290E03C001968770BDCFDF91CF911F91CF
:101D80000F910895A1E1B0E0E8ECFEE00C94D529B4
:101D90008C0185E0F801DE011D9601900D928A9577
:101DA000E1F7F801E2809091030260910402209132
:101DB0000602309107022115310531F06F3F31F4F1
:101DC00081E09F3F19F403C081E001C080E0F82F5B
:101DD000F1709F2E80FD40C1F80140815181A380A8
:101DE000B48083E0C82E82E0D82EF0900502F50181
:101DF000E21BF30BFF2009F4DAC080910802E83CF3
:101E0000F10508F096C0282F207F09F053C0561323
:101E100013C0491311C0FE2CE1100EC08F708061F9
:101E2000809308020E944A0EC6010E944D0C8091C8
:101E30000802F80185834DC1A114B10431F05F3F60
:101E400031F481E04F3F19F403C081E001C080E02C
:101E500080FD03C081E08E2502C080E090E0F82F75
:101E6000F170FF2E80FF1CC08091D1012091D20122
:101E700036E0821709F40BC190E0389FF001399FDA
:101E8000F00D1124ED52FE4F6181561306C06081A2
:101E9000461303C06281E61203C001968770E9CF42
:101EA000FE2CEE2009F415C1809108028160809318
:101EB000080254C0561306C0491304C0E11002C002
:101EC000F80199C0C8010E94B40C882361F1EE208A
:101ED00051F120910802822F82958F7090E0029735
:101EE00074F0809103029091040298878F83198681
:101EF000BB86AA862C87CE0107960E944D0C86E0F1
:101F0000F801A3E0B2E001900D928A95E1F70E94FA
:101F1000590E0E944A0E0AC0561711F1C8010E94BC
:101F2000B40C81112CC0C8010E944D0CFF24F39405
:101F3000D0C0282F207F81F77A2DB98AA88A6E2DEC
:101F400089890E94BC0C83E092E00E944D0C86E0DF
:101F5000F60111928A95E9F70E944A0EF12CB9C058
:101F60004913DCCFE110DACFF8018583C8010E9464
:101F70004D0C86E0F60111928A95E9F7AAC0EE2091
:101F800091F220910802822F82958F7090E0029743
:101F90000CF4B5CF80910302909104029A83898357
:101FA0001B82BD82AC822E83CE010196A6CFE83C77
:101FB000F10508F044C0FE2CEE2009F4B4CF56130E
:101FC00030C049132EC02091080220FD21C0822F6D
:101FD00082958F70482F50E041155105C9F0F801E6
:101FE00025834F30510541F08F5F982F9295907F58
:101FF000822F8F70892B8583C8010E944D0C86E04B
:10200000F801A3E0B2E001900D928A95E1F73CC09F
:1020100086E0F801A3E0B2E001900D928A95E1F725
:1020200058C0C8010E94B40C811169CF8091080288
:10203000816080930802C8010E944D0C4AC07A2D2D
:10204000B98AA88A6E2D89890E94BC0C86E0F601A7
:1020500011928A95E9F718C0EE2009F464CFC801FF
:102060000E94B40CF82E882309F45DCF86E0F801B5
:10207000A3E0B2E001900D928A95E1F783E092E04F
:102080000E9416090E94590E0E944A0E22C04D87D6
:102090005E878D859E850E94FB0D292F22952F70CE
:1020A000223028F49F7039F0811105C00BC0243014
:1020B00028F49F7049F4805E883020F0C8010E94A7
:1020C0004D0C9F2CF92C05C0F8019581907F99F754
:1020D000F9CF8F2D6196EBE00C94F129ACE0B0E0E4
:1020E000E4E7F0E10C94DD294F83588769877A870C
:1020F0008B879C87CE0107960E94C20E8823D1F061
:102100009F8188852A853B85232B31F08F3F31F4D1
:1021100081E09F3F19F403C081E001C080E080FDB1
:1021200047C04F81588569857A858B859C850E943B
:10213000C60C3EC086E0FE013796DE011196019086
:102140000D928A95E1F7FF81E8856A857B856115A7
:10215000710531F0EF3F31F481E0FF3F19F403C026
:1021600081E001C080E080FD23C02091D20130E0F9
:10217000C9010196877099274091D10150E08417D9
:102180009507F1F1F983EA837D836C8396E0929F52
:10219000D001939FB00D1124AD52BE4FFE01319678
:1021A00001900D929A95E1F78093D2010E94290E39
:1021B00016E08091D1019091D201891771F1189F99
:1021C000C00111248D529E4F0E94C20E882329F116
:1021D000E091D1011E9FF0011124ED52FE4F40818C
:1021E000518162817381848195810E94C60C8091A6
:1021F000D10190E00196877099278093D101D9CFC2
:102200000E94940C1092D2011092D101E3E0F2E00E
:1022100086E0DF011D928A95E9F72C96E3E00C94A5
:10222000F929809129028595859585950895809154
:1022300029028770089590912902977081E009F42E
:1022400080E0089580914C02089590914C02892B72
:1022500080934C020895809590914C02892380933D
:102260004C02089510924C02089590914B02892BD4
:1022700080934B020895809590914B02892380931F
:102280004B02089510924B02089580912A020895FE
:1022900008950E94481108950E944911089590914F
:1022A000CC0292FF08C090912A02981721F08093E7
:1022B0002A020E944C11089580912A02882329F055
:1022C00010922A0280E00E944C110895CF93DF9370
:1022D000E0910001F091010180914C028083E09136
:1022E0000001F0910101908180914B02892B808344
:1022F00080912A02882381F0E0910001F091010190
:102300009081892B808380910001909101010E942E
:10231000512081110E945C11C0910001D0910101F6
:1023200040E250E069E072E0CE010E940E2A892B63
:1023300059F080E2FE01A9E0B2E001900D928A9589
:10234000E1F7CE010E940B20DF91CF9108950E940A
:10235000481108959091CC0292FF11C098E0899F96
:1023600090011124262B209329020E941D0D80919B
:1023700029028595859585950E94A71108950E944B
:102380001D0D08951092290280E00E94A711089562
:10239000209129028095822380932902982F97709B
:1023A00099F430E0482F082E000C550B2417350700
:1023B00059F09091CC0292FF07C08595859585953F
:1023C0000E94290D0E94C21108959091CC0292FBA7
:1023D000222720F9281769F080FB92F99093CC020C
:1023E0008091CB029091CC020E943A1282E00E942E
:1023F000C81108958091CC0282FB882780F991E072
:1024000089270E94E511089581E00E94E511089551
:1024100080E00E94E51108956FEF7FEF80E090E08B
:102420000E94472A089580E090E00E94232A883E77
:102430009E4F19F40E941517089580E0089582E0D8
:1024400090E00E941B2A089583E090E00E941B2ADE
:102450000895CF9384E090E00E941B2AC82F82E267
:1024600090E00E941B2A2C2F30E0A901582BCA01B2
:10247000CF910895CF93C92F682F84E090E00E94F8
:10248000292A6C2F82E290E00E94292ACF91089598
:10249000AB01BC018FE090E00E943B2A0895AB01A4
:1024A000BC0183E190E00E943B2A089560E070E067
:1024B000CB010E944F12089560E070E0CB010E94B2
:1024C00048120E945612089568EE7EEF80E090E078
:1024D0000E94472A60E082E090E00E94292A60E0A2
:1024E00083E090E00E94292A1092D00160E084E00D
:1024F00090E00E94292A64E082E290E00E94292A6A
:1025000060E085E090E00E94292A60E086E090E0AB
:102510000E94292A6FEF87E090E00E94292A40E07C
:1025200050E0BA0188E090E00E943B2A60E08DE034
:1025300090E00E94292A40E050E0BA0188E190E052
:102540000E943B2A60E087E190E00E94292A40E057
:1025500050E0BA018CE190E00E943B2A60E070E01C
:1025600080E290E00E94472A40E050E0BA0188E112
:1025700090E00E943B2A80E00E942E170E94631781
:102580000E945C1208950E9464120895682F8EE0E4
:1025900090E00E94292A08950E94CF21609365024D
:1025A0007093660280936702909368026093610261
:1025B000709362028093630290936402089581E0B5
:1025C00008950E94DF12089508950E94E41208956C
:1025D0000E94E41208950E94E81208950E942506C0
:1025E00008950E94E412089589E795E10E94F11F81
:1025F0000E94F1120E94EE1208950E94E5120E94BC
:10260000E41208950E9495150E94B70808950E944B
:10261000BA210E9473170E946E160E94021380E076
:102620000E94A9180E94EB120895AAE0B0E0EBE125
:10263000F3E10C94D1290E948416C82E81110E94C6
:10264000CC123DE4832E32E0932E00E010E0502EB9
:10265000802F0E94B0155C01F401619071904F01D0
:102660006826792661147104B1F40F5F1F4F0A3098
:10267000110569F78FEF89838A831B820E94C3212A
:102680008160782F9D838C8349815A816B818D81F4
:102690000E94D5083BC08091690281FD0E94B91556
:1026A000D12CEE24E394F12CC3018E219F21892BA0
:1026B00031F10E94E1128823B1F0DE825F82AE2008
:1026C000BF2081E0A114B10409F480E088870E9452
:1026D000C3218160782F9A8789874E815F816885C1
:1026E0008A850E94D508000F111FF801E35BFD4F9A
:1026F00080819181E826F926F182E08207C0D39497
:10270000EE0CFF1CFAE0DF12CFCFAFCF81E0C1109B
:1027100001C080E02A96EFE00C94ED29CF930E944F
:102720001513C82F0E94241BC1110E94F3190E9487
:10273000CA08CF910895CF93DF930E94A214EC01B1
:10274000811522E59207E8F5811531E5930708F038
:10275000B6C0883E910528F5803E910508F0E9C095
:10276000883A910570F4853A910508F07AC0813075
:10277000910509F473C008F4D9C0049708F0D9C0D2
:10278000D5C08F3B910508F0D1C0C85AD0E0CC0F1E
:10279000DD1FC95BDE4F0990D881C02DCE01946446
:1027A000C9C0811540E5940708F069C0811550E45F
:1027B000950708F060C09A9581159F4108F4B9C04B
:1027C000B5C0811536E5930728F5811545E59407D1
:1027D00008F092C0811554E5950708F087C0AC0158
:1027E00043705527282F26952695C115D34508F007
:1027F0006CC081E090E002C0880F991F4A95E2F713
:1028000040E2249F90011124EC01C22BD32BCE0176
:102810009C6890C081152AE5920780F4811539E5FE
:10282000930708F072C0811548E5940708F47EC04C
:10283000D82FCC27CE01806F906A7CC0905681152E
:10284000904208F073C08D2F8F710E943615DD27DE
:10285000D0628F71AE01582BCA016CC081E090E04C
:1028600069C0C55AD0E0CB58DE4F8881C82FD0E070
:10287000CE0190645FC0DF70CE01906A5BC074E0EF
:10288000969587957A95E1F7282F23703C2F337022
:1028900081E090E002C0880F991F3A95E2F79C68AA
:1028A000AC01522B9A019C2F9F709695969550E201
:1028B000959FE0011124C9018C2B9D2B3BC0D82F83
:1028C000CC27CE01816F906A35C081E090E002C0D4
:1028D000880F991F4A95E2F750E2259F9001112435
:1028E000EC01C22BD32BCE019A6824C0D82FCC2761
:1028F000CE01846F906A1EC00E9436158F7190E0E1
:10290000D82FCC27CE01906215C08F700E9436154B
:1029100094E0D695C7959A95E1F7CF70D0E0DC2F7B
:10292000CC27D0699E01282BC90104C080E090E02B
:1029300001C0CE01DF91CF9108950E945E1D0E94DB
:102940009B1308958238910569F1B0F481339105A4
:1029500009F46DC048F48932910509F463C08A32E4
:10296000910509F469C008958533910509F455C0AE
:1029700089339105B9F00895833E910569F138F4E2
:10298000803E9105B1F0823E910509F10895863EA1
:102990009105A9F1873E9105B9F1843E910509F0B1
:1029A00064C023C02091CB0220FD4FC021FD4DC04B
:1029B00008958091CB0280FD44C08091CC0280FFBD
:1029C00044C08091CB0284FD42C083EE4DC0809113
:1029D000CB0282FF38C0F5CF8091CB0282FD33C09D
:1029E0008091CC0280FD31C0ECCF8091CC0281FF80
:1029F00032C08091CB0284FD2AC087EE35C0809121
:102A0000CB0283FF26C0F5CF8091CB0283FD21C08E
:102A10008091CC0281FD1FC0ECCF8091CB0285FD5F
:102A20001CC01DC08091CB0285FD19C016C08091CD
:102A3000CB0286FD16C017C08091CB0286FD13C065
:102A400010C089E311C082EE0FC080EE0DC080E09F
:102A50000BC086EE09C084EE07C089E205C085E39D
:102A600003C08AE201C081E390E008959091CB0217
:102A700092FF0DC0282F2871283019F4877F8460B9
:102A800006C0282F2471243011F48B7F886093FFB7
:102A90000DC0282F2871283119F4877E846106C063
:102AA000282F2471243111F48B7E88612091CC026F
:102AB00020FF0DC0382F3871383019F4877F8160BE
:102AC00006C0382F3171313011F48E7F886021FFBC
:102AD0000DC0282F2871283119F4877E816106C026
:102AE000282F2171213111F48E7E886194FD877E1B
:102AF000089580E008950E940C1208950E948416A3
:102B00008FE39CE90197F1F700C000000E94841652
:102B100080E00E94B01580FF04C00E947B150E94D7
:102B2000102208950E947E1508950E9413128111AB
:102B300002C00E94C3120E941F12809369020E9469
:102B400029129093CC028093CB020E9492150E948E
:102B500024120E94DF0C8091CF010E94410608954B
:102B6000E82FF0E0EE0FFF1FEF51FD4F80819181C4
:102B70000895089580EA8A95F1F7089500C00895B0
:102B80000E94BA15089508950E94C31508950E94E1
:102B9000C41508950E94C31508950E94CA1508958A
:102BA000F894E82FE295EF70F0E031A1282F2F7014
:102BB00081E090E001C0880F2A95EAF7982F909560
:102BC000932391A392A1892B82A3789408950F93C4
:102BD0001F93CF93DF93C2E8D1E089918F3F11F02B
:102BE0000E94D01581E0CC38D807B9F7C8E7D1E00A
:102BF00002E811E089918F3F11F00E94D0150C1767
:102C00001D07C1F7DF91CF911F910F910895A0E0AB
:102C1000B0E0EDE0F6E10C94D7298C01C62FD0E0AE
:102C2000CE018E579E4F6C01FC0190819F3F09F4AD
:102C300050C0B62EF894E92FE295EF70F0E081A134
:102C40009F7021E030E001C0220F9A95EAF7822BB5
:102C500081A382A12095282322A378940E94BE15E7
:102C6000E8E7F1E042E851E021E030E0E12CF12C2E
:102C700061916F3F89F0A62FA295AF70B0E090965A
:102C80008C9190E06F7002C0959587956A95E2F7F8
:102C900080FD02C0C90102C080E090E0E82AF92A64
:102CA000220F331F4E175F0719F7F60180818F3F00
:102CB00011F00E94D01561E0E114F10409F460E024
:102CC0008B2D0E94C015CC0FDD1FC00FD11FF982C4
:102CD000E882CDB7DEB7E9E00C94F3290E94E7154E
:102CE00084E1E1EEF2E0DF01982F1D929A95E9F779
:102CF000EDECF2E0DF011D928A95E9F78AE00E948F
:102D0000C0160E944E070895A4E1B0E0EAE8F6E19B
:102D10000C94DB298E010F5F1F4F84E1F8011192A3
:102D20008A95E9F7F12C6F2DC8010E940716F394DC
:102D3000FAE0FF12F8CF44E150E0B8018DEC92E0E8
:102D40000E940E2AFF24F394009709F4F12C892B9A
:102D500041F084E1F801ADECB2E001900D928A956A
:102D6000E1F72F2D4AE061EE72E08DEC92E00E94D7
:102D7000C1160E9451078F2D6496E5E00C94F72947
:102D80000895FF920F931F93CF93DF93F82E092F8F
:102D9000162FD72FC42F222349F081E080936C0295
:102DA0000E94C32190936B0280936A0280916C020F
:102DB0008823D9F080916A0290916B020E94DB21F6
:102DC000059798F0EF2DF02FA12FBD2F80E090E018
:102DD0004C2F50E08417950734F4219131912D93B5
:102DE0003D930196F7CF10926C02CDB7DEB7E5E0C8
:102DF0000C94F7290E9403240E9407130E941024B8
:102E000008950E9415240E948E130E942F24089575
:102E10000E945A210E94E9230E94F4120E94FA168D
:102E20000E9401170E94FD12FBCF83E290E00E94F6
:102E30001B2A823281F484E290E00E941B2A8830AF
:102E400051F485E290E00E941B2A91E0823109F062
:102E500090E0892F01C080E081700895CF93C82F42
:102E6000811102C06FEF01C062E283E290E00E9434
:102E7000292AC11102C06FEF01C068E084E290E02E
:102E80000E94292AC11102C06FEF01C062E185E2F0
:102E900090E00E94292ACF910895089586E290E05B
:102EA0000E941B2A682F70E080E090E0089508954A
:102EB000CF93C62F0E9457176C2F86E290E00E9496
:102EC000292ACF91089580E00E942E1760E070E0DB
:102ED000CB010E9458170E94E71C0E94B31D81E09D
:102EE0000E942E1708950E944D170E944E170E94AF
:102EF00057170E941517811102C00E946317089589
:102F0000CF93FB01C281CC23E9F09C0122513F45C4
:102F10002031310520F482510E94C31D0CC0803144
:102F2000FFE59F0751F481E00E941D0D43E062E040
:102F300081E00E944407C0E018C081319F45A9F498
:102F400082E0F2CF8031EFE59E0711F481E004C00A
:102F500081319F4549F482E00E94290D43E062E0FF
:102F600081E00E94440701C0C1E08C2FCF910895F9
:102F70002FEFFC0120830895EF92FF920F931F9390
:102F8000CF93DF93EC01062FE8818E2F90E0FC01B8
:102F90003197E331F10508F091C0EE59FF4F0C94E1
:102FA000C129198289E04DC08981823039F083308E
:102FB00061F0813029F50E94CF2102C00E944E1796
:102FC0009A838B837C836D837BC07E0110E0812F8D
:102FD0000E94B015F701928383831F5FF2E0EF0E2A
:102FE000F11C1A30A1F76CC08981823049F46A81E2
:102FF0007B818C819D810E94C7290E94581760C0E7
:10300000602FCE010E94B8175BC04B816A81898115
:103010000E94AB1C9C838D8353C02C813D81322741
:10302000232732274B816A8189810E94CC1C48C0AA
:103030000E94E71C45C00E946C1D24C00E946E1DAA
:1030400099838A833DC06B8170E089819A81AE014A
:103050004C5F5F4F9827892798270E94711D30C0C9
:103060006B8170E089819A81AE014C5F5F4F982738
:10307000892798270E94931D23C00E94B31D20C05A
:103080000E94981C89831CC06B8170E089819A81A1
:10309000AE014C5F5F4F9827892798270E941C1D1F
:1030A0000FC06B8170E089819A81AE014C5F5F4FE8
:1030B0009827892798270E943E1D02C08FEF88839A
:1030C000602FCE010E94B922CDB7DEB7E6E00C94A6
:1030D000F629EF92FF920F931F93CF93DF93EC01AA
:1030E0007B0164E670E088E70E94001F8C01EC0E13
:1030F000FD1ECE15DF0561F017FD0AC0FE018491AB
:1031000064E670E00E94751F8C012196892B89F37B
:103110000E94ED1FC801CDB7DEB7E6E00C94F6299A
:1031200008950E9490180895E5EFF2E080E092E0A3
:10313000DF019C011D9221503040E1F7F093FA0429
:10314000E093F9048FEF9FEF909399028093980298
:1031500008950E9491180E9490188093940280FD17
:1031600002C080E801C080E2809393020E94FA1EB0
:103170006DE070E084E195E00E946918892B11F000
:1031800080E008958091940263E070E081FD03C0C7
:1031900081E195E002C08EE095E00E946918892BDC
:1031A00079F76DE070E081E095E00E946918892B65
:1031B00039F70E94CF21DC01CB01805A9541AF4FF6
:1031C000BF4F8093F5049093F604A093F704B09357
:1031D000F8040E94941881E08093970280939602ED
:1031E0001092950208952091930236E0839FC001CA
:1031F0001124629F800D911D1124811522E09207F8
:1032000014F080E090E08B509D4F9093FA048093EF
:10321000F90408952091F9043091FA042F5E3240A8
:1032200040919302642F70E0C9010E94AD29481BB0
:10323000463010F4240F311D211582E0380710F0BC
:1032400020E030E02B503D4F3093FA042093F904F6
:1032500008951F93CF93DF93162F8A3011F481E0E6
:1032600003C08D3021F480E00E94A11966C0C09196
:10327000F904D091FA0496E0FE01ADE6B2E00190C7
:103280000D929A95E1F7803E30F086E0FE011192B2
:103290008A95E9F70BC0F6E08F9FB00111246F5DAE
:1032A0007A4F46E050E0CE010E94052A111135C048
:1032B000C091F904D091FA0446E050E0BE018DE6D9
:1032C00092E00E940E2A892BB1F1C55FD2409E0187
:1032D00085E0369527958A95E1F781E090E0AC018D
:1032E00002C0440F551F2A95E2F7209198023091B1
:1032F0009902242B352B259645E0D695C7954A95FE
:10330000E1F702C0880F991FCA95E2F7822B932B31
:1033100090939902809398020EC0E091F904F09185
:10332000FA049F012A5F3F4F2E173F0709F2808161
:1033300080958193F9CF0E940A19DF91CF911F9157
:103340000895CF93E82F2091F9043091FA04255F76
:10335000324040919302642F70E0C9010E94AD2970
:10336000481B842FEE2359F066E00E94A129C82F44
:10337000C150B0F060E080E20E942919F9CFA901A4
:10338000480F511D4115524018F080E020E030E018
:10339000280F311D2B503D4F3093FA042093F90430
:1033A000CF910895FF920F931F93CF93DF93EC017A
:1033B000F62EFC0101900020E9F78F010150110960
:1033C000C017D10728F46F2D89910E942919F8CFD1
:1033D000CDB7DEB7E5E00C94F7290E94D21981E061
:1033E0000E94A1190895809197028823F9F00E9404
:1033F000CF21DC01CB01805A9541AF4FBF4F809365
:10340000F5049093F604A093F704B093F804809128
:10341000960281110BC062E070E08FEF94E00E9491
:103420006918892B19F481E08093960280919602A5
:103430000895A0E0B0E0EFE1FAE10C94D229809188
:103440009702882309F4DEC02091980230919902F6
:103450002115310509F4D6C0809195028111D2C0A1
:1034600061E070E0082F10E03B01082E02C0660CFE
:10347000771C0A94E2F7A90146215721452B11F444
:103480008F5FF0CF90919402980165E0220F331F77
:103490006A95E1F790FD12C08295880F807680933F
:1034A0000401220F232F221F330B31952093070194
:1034B000815E809305011092080112C045E03695A7
:1034C00027954A95E1F7220F220F220F209304013E
:1034D00010920701295F2093050183E08093080182
:1034E00024E630E047E050E062E071E088E70E94C7
:1034F000A51F892B09F086C08091940280FD23C00E
:10350000A80195E0440F551F9A95E1F74B505D4F88
:1035100004E610E020E230E060E488E70E94C61F85
:10352000892B09F06FC00E94F319E301C095D09573
:103530008091980290919902C823D923D09399023F
:10354000C09398025FC080E2E3E7F2E0DF011D92E2
:103550008A95E9F785E0000F111F8A95E1F7A0E948
:10356000B1E04CE851E0992493942D91EA018991BE
:10357000AE01B801680F711D6B507D4F30E02D58C2
:103580003D4FF90197E07F01E21AF30AA92C01C02F
:10359000AA0CEA94EAF77B01B12CE70189917E013C
:1035A0008A21892E8B18D82DD770CD2E0D2E000C88
:1035B000DD08C82F01C0CC0FDA95EAF78C2ED19424
:1035C000C194D108D7E0CD22DD240C2C01C0869512
:1035D0000A94EAF78C2BD0808D298083B39488E0FD
:1035E000B812DBCF915031969F3F69F6C1E0A43904
:1035F000BC0709F0BACF04E610E020E230E043E770
:1036000052E08ACFCDB7DEB7EEE00C94EE29809180
:10361000970290919602882389F0992369F062E0DD
:1036200070E08DEF94E00E946918892B19F0809169
:1036300096020895109296029091960281E0892751
:1036400008950E94C50608950F931F9380919702D5
:10365000882319F160E080E00E94F3180E94211B8A
:103660000E94191A809196028823B9F00E94CF21F6
:103670000091F5041091F6042091F7043091F804BC
:10368000DC01CB01801B910BA20BB30B8F3F9F4F33
:10369000AF4FBF4710F40E94071B1F910F91089571
:1036A000CF93DF93EC01FB018281882309F43CC1B5
:1036B000C330FDE5DF0760F4CA3F9CE5D90788F415
:1036C0009E0122503C452431310508F02EC109C02D
:1036D000C136EDE5DE0729F0C53AFDE5DF0709F063
:1036E00024C10E9429129093CC028093CB02C13155
:1036F0008CE5D80709F4C6C008F042C0C930ECE533
:10370000DE0709F49BC000F5C5308CE5D80709F445
:1037100085C078F4C330ECE5DE0709F478C008F022
:103720007AC0C230DC4509F0F5C08091CB028160DF
:10373000EFC0C7309CE5D90709F478C008F07AC01B
:103740008091CB028061E4C0CD30FCE5DF0709F455
:1037500087C058F4CB309CE5D90709F479C008F04C
:103760007BC08091CB0288606FC0CF30FCE5DF0763
:1037700009F480C008F082C08091CB02877FC8C066
:10378000CD3F9CE5D90709F471C000F5C531FCE5D2
:10379000DF0709F485C068F4C3319CE5D90709F453
:1037A00075C008F095C00E94940C8091CB028F7771
:1037B000AFC0CB3FFCE5DF07A9F108F054C0CA3F1A
:1037C000DC4509F0A7C08091CC0240C0C130EDE5D6
:1037D000DE0709F489C058F4CF3F8CE5D80709F417
:1037E0005AC008F069C08091CC0282602FC0C136F7
:1037F000EDE5DE0709F47CC0C53AFDE5DF0709F415
:1038000081C0C230DD4509F085C080E06EC0809186
:10381000CB0282607DC08091CB0216C08091CB022A
:10382000886076C08091CC0282604FC08091CB02CC
:1038300080626EC08091CB0280646AC00E94940C4A
:103840008091CB02806864C0846062C081603DC0AA
:103850008091CB028E7F5CC08091CB028D7F58C05F
:103860008091CB0216C08091CC0218C08091CC020E
:103870008D7F2BC08091CB028F7E4AC08091CB027E
:103880008F7D46C08091CB028F7B42C08091CB025E
:10389000877F8B7F3DC08091CC028D7F8E7F15C04E
:1038A0008091CB0282FB222720F991E0922790FBA6
:1038B00082F990FB83F92CC08091CC02982F9095CF
:1038C00091708E7F892B90FB81F98093CC0222C06E
:1038D0000E94940C8091CB0287FB222720F991E073
:1038E000922790FB87F914C081E00E94C61212C093
:1038F0008091CB0284FB222720F991E0922790FB54
:1039000084F906C08091CB02982F909590FB80F9A6
:103910008093CB028091CB029091CC020E943A120C
:103920000E94940C80E001C081E0DF91CF91089566
:1039300084E0089550E0440F551F24E1629F400D3C
:10394000511D11249A0168EC869F200D311D112410
:10395000C901879608950F931F93CF93DF93843007
:10396000A0F46A3090F44A3080F40E949A1C8C01D2
:103970000E941B2A90E0D82FCC27C80101960E94F4
:103980001B2A9E01282BC90102C080E090E0DF9134
:10399000CF911F910F9108950F931F93CF93DF93B2
:1039A000843080F46A3070F44A3060F4E9010E9497
:1039B0009A1C8C016D2F0E94292A6C2FC801019638
:1039C0000E94292ADF91CF911F910F910895A0E0C5
:1039D000B0E0EDEEFCE10C94D629A12CE12CF12C09
:1039E000B12C00E010E0C0E0D0E06701C00ED11EB5
:1039F000FE01EE0FFF1FEC0DFD1DE35DFE4F259157
:103A000034914C2F6B2D8A2D0E94CC1C2196CA30EC
:103A1000D10571F70C5E1F4FB3948AE0B812E3CF63
:103A200088ECE80EF11CA39484E0A812D9CFCDB79E
:103A3000DEB7EAE00C94F229EF92FF920F931F9306
:103A4000CF93DF93EA017A01E60EF71E8C01C801DD
:103A50008796CE15DF0569F0003223E0120720F4C7
:103A60000E941B2A888301C0188221960F5F1F4F76
:103A7000EECFCDB7DEB7E6E00C94F629EF92FF92D9
:103A80000F931F93CF93DF93EA017A01E60EF71E9F
:103A90008C01C8018796CE15DF0559F0003223E06E
:103AA000120718F468810E94292A21960F5F1F4F80
:103AB000F0CFCDB7DEB7E6E00C94F629843048F4B9
:103AC0007A3038F46A3028F4462F672F0E94AB1CF6
:103AD000089580E090E0089580E1089589EB90E0FA
:103AE0000895EF92FF920F931F93CF93DF93EA0114
:103AF0007A01E60EF71E8C01C801895B9C4FCE153A
:103B0000DF0561F0093B110520F40E941B2A888320
:103B100001C0188221960F5F1F4FEECFCDB7DEB7E1
:103B2000E6E00C94F629EF92FF920F931F93CF9348
:103B3000DF93EA017A01E60EF71E8C01C801895B6A
:103B40009C4FCE15DF0551F0093B110518F4688133
:103B50000E94292A21960F5F1F4FF0CFCDB7DEB705
:103B6000E6E00C94F629CF93DF93C7E4D3E060E05E
:103B7000CE010E94292A2196C11584E0D807B9F701
:103B8000DF91CF910895A4E0B0E0E9ECFDE10C9461
:103B9000D929F82E8FE08F15E8F18FEF93E00E947E
:103BA0001B2A811137C007E413E0FF2069F00115DB
:103BB00084E0180779F1C8010E941B2A811101C015
:103BC000FA940F5F1F4FF1CF19821A821B821C8259
:103BD000DD24D39478018FEFE81AF80AC8010E9417
:103BE0001B2A89831A828823A9F09FEF980F9330AC
:103BF00058F48A83D9820E5F1F4FC7010E941B2A87
:103C00008B83882339F07801CE0101960E949908B0
:103C10008701E0CF2496E7E00C94F529CF93DF935A
:103C200086319C4541F5EB010E942211982F8A8133
:103C30002091000130910101882379F09A7A81E086
:103C400009F480E080939A02911102C069E201C0F8
:103C500065E3C9010E94E7200AC080919A028111A0
:103C600002C069E201C065E3C9010E94F5200E941B
:103C7000661180E001C081E0DF91CF9108950F933C
:103C80001F93CF93DF93C42FD22FFC01828188230F
:103C9000B1F040939D020E94C32190939C028093B7
:103CA0009B0280E28C0F883008F04DC0C77081E025
:103CB00001C0880FCA95EAF70E94400A44C080916B
:103CC0009D02481330C080919B0290919C020E94FB
:103CD000DB21883C910538F510E21D0FCD17B9F0B6
:103CE00080E28C0F883040F4C77081E001C0880FFB
:103CF000CA95EAF70E94470A183010F581E09D2F17
:103D0000977001C0880F9A95EAF70E94400A802FA9
:103D10000E94360A1830B8F4D77081E001C0880FCD
:103D2000DA95EAF70AC080E28C0F883060F4C77039
:103D300081E001C0880FCA95EAF70E94470A03C0D4
:103D4000802F0E94360ADF91CF911F910F91089525
:103D50000F939C01CB01233F4CE5340731F188F4EC
:103D6000283DFCE53F07D9F0293D4CE5340779F1C2
:103D7000273D3C45A9F506E221EE41EE67ED7CE5E5
:103D80002BC0253FFCE53F07E1F0A8F0263F3C456E
:103D900039F507E225EE46EE66EF7CE51DC007E249
:103DA00025EE45EE68ED7CE517C006E221EE40EE1B
:103DB00063EF7CE511C007E225EE44EE64EF7CE59D
:103DC0000BC006E221EE42EE65EF7CE505C008E29D
:103DD00021E045EE69ED7CE50E943F1E80E008C0D1
:103DE000FC018281882319F010929D0201C081E0BC
:103DF0000F9108951092B9008CE08093B800089557
:103E0000A0E0B0E0E6E0FFE10C94D529B82EEB018C
:103E10000E94C3216C01C431D10558F0CF3F8FEF10
:103E2000D80759F0CE0164E170E00E94AD297B0112
:103E300007C0EE24E394F12C03C025E0E22EF12C20
:103E400084E8A82E94EA992E1092BC009092BC00AF
:103E50000E94C3218C018091BC0087FD08C00E9494
:103E6000C321801B910B8E159F05A8F32AC080915A
:103E7000B900887F883041F08091B900887F803117
:103E800019F00FEF1FEF1FC0B092BB00A092BC0053
:103E90000E94C3218C018091BC0087FD08C00E9454
:103EA000C321801B910B8E159F05A8F30AC080913A
:103EB000B900887F883111F0803419F700E010E0F4
:103EC0000EC00EEF1FEFCF3F8FEFD80709F4BCCF26
:103ED000C6010E94DB218C179D0708F4B5CFC801ED
:103EE000CDB7DEB7EBE00C94F1290F931F93CF937E
:103EF000DF93EB018093BB0084E88093BC000E94B9
:103F0000C3218C018091BC0087FD0EC0CF3F8FEF95
:103F1000D807C1F30E94C321801B910B8C179D070A
:103F200088F38EEF9FEF0CC02091B900287F81E0CD
:103F300090E0283211F480E090E09195819591090C
:103F4000DF91CF911F910F910895A0E0B0E0EBEACF
:103F5000FFE10C94D8296B018A017901B9010E9413
:103F6000001FE6010C0D1D1DC017D10741F424E907
:103F70002093BC00CDB7DEB7E8E00C94F42997FDA0
:103F8000F6CFB70189910E94751FEECFA0E0B0E097
:103F9000ECECFFE10C94D829C62F6A017901B80135
:103FA0000E94001F97FD11C0B8018C2F0E94751F41
:103FB000E601EC0CFD1CCE15DF0539F097FD05C0C0
:103FC000B80189910E94751FF6CF24E92093BC00A7
:103FD000CDB7DEB7E8E00C94F42984E98093BC0007
:103FE00008959093A5018093A40108959093A3024E
:103FF0008093A2020895E091A202F091A30230976B
:1040000029F00190F081E02D0995089580E0089550
:104010000E94FB1F0895FC01A091A202B091A3028F
:10402000109791F080911501882341F08091CB0287
:1040300087FF04C08081818386E08083CF01129650
:10404000ED91FC911397099508952091A00230916C
:10405000A1022817390771F09093A1028093A00262
:10406000E091A202F091A302309721F00680F7813F
:10407000E02D0995089520919E0230919F02281706
:10408000390771F090939F0280939E02E091A20203
:10409000F091A302309721F00084F185E02D09957D
:1040A0000895FC01329680911501882331F08091AA
:1040B000CB0287FF02C09EE101C096E080E09150F4
:1040C00028F021912223D9F38F5FF9CF0895662339
:1040D00051F1209115012223E9F02091CB0227FF15
:1040E00019C0462F4695469546954E31E0F46770C7
:1040F00021E030E002C0220F331F6A95E2F7FC0195
:10410000E40FF11D828190E02823392381E0232BE5
:1041100069F409C0FC01329608962191621729F0D2
:10412000E817F907D1F780E0089581E008959C0130
:10413000FC0132969FEF80E04191461789F09F3F46
:1041400019F4411101C0982F8F5F8630A9F79F3F66
:1041500039F0F901E90FF11D97FDFA956283089591
:1041600008959C012A5F3F4FFC014281461301C024
:104170001282019682179307B9F70895262F269584
:10418000269526952E3168F4FC01E20FF11D67702B
:1041900021E030E001C0220F6A95EAF78281282BE6
:1041A00022830895262F2695269526952E3170F484
:1041B000FC01E20FF11D677021E030E001C0220F29
:1041C0006A95EAF720958281282322830895209119
:1041D0001501222339F02091CB0227FF03C00E9452
:1041E000BE2008950E949720089520911501222352
:1041F00039F02091CB0227FF03C00E94D2200895FE
:104200000E94B120089520911501FC0132962223CD
:1042100031F08091CB0287FF02C08EE101C086E0C1
:10422000DF011D928A95E9F7089508950E941521EE
:10423000089583E08093A4020E94162108958111BD
:1042400002C081E001C082E08093A4020E94162196
:1042500008950E941F21089581E08093A4020E9486
:10426000162108950E942C21089508950E94352159
:1042700008950E94362108950E94352108950E94D4
:10428000352108950E9435210895CF930E943F2142
:104290000E9484160E943C21C0E08C2F0E94B01521
:1042A000892B29F4CF5FCA30C1F780E001C081E0DB
:1042B000CF91089585B7806885BF85B7806885BF31
:1042C00008951F920F920FB60F9211248F939F9310
:1042D000AF93BF938091A502811113C08091FB041D
:1042E0009091FC04A091FD04B091FE044196A11DA3
:1042F000B11D8093FB049093FC04A093FD04B09344
:10430000FE04BF91AF919F918F910F900FBE0F90C0
:104310001F90189580910305843031F10E94C907E0
:104320001092A50220E488E190E00FB6F894A895D9
:10433000809360000FBE2093600083B7817F84600C
:1043400083BF83B7816083BF7894889583B78E7F5E
:1043500083BF0FB6F894A895809160008861809320
:104360006000109260000FBE08950E94940C0E949D
:10437000D007089582E084BD93E095BD9AEF97BD84
:1043800080936E0008952FB7F8948091FB0490916C
:10439000FC04A091FD04B091FE042FBF08952FB737
:1043A000F8946091FB047091FC048091FD0490915D
:1043B000FE042FBF08959C014FB7F8948091FB0431
:1043C0009091FC04A091FD04B091FE044FBF821BAC
:1043D000930B089578941F920F920FB60F921124A9
:1043E0008F939F93AF93BF938091FB049091FC04B4
:1043F000A091FD04B091FE040196A11DB11D809312
:10440000FB049093FC04A093FD04B093FE04BF91C1
:10441000AF919F918F910F900FBE0F901F901895A5
:1044200081E08093E00080E28093D8001092C90080
:104430008FE19EE40197F1F700C0000087E090EB68
:10444000DC0180930C0590930D05A0930E05B093AD
:104450000F059CE088E10FB6F894A8958093600062
:104460000FBE90936000FFCF9CE088E10FB6F894F8
:10447000A895809360000FBE90936000FFCF80915D
:10448000C90208950895CF93DF9320911501222347
:1044900039F02091CB0227FF03C060E224E002C084
:1044A00068E021E02093E9002FEF3091E8002150EF
:1044B00035FD06C035ED3A95F1F700002111F5CF35
:1044C0002091E80025FF1DC0EC01809115018111AC
:1044D00005C040E050E068E070E003C070E040E0FC
:1044E00050E0CE010E94CE248091E8008E77809328
:1044F000E80080E2FE01A9EAB2E001900D928A95FF
:10450000E1F7DF91CF9108958093A6027093A802FE
:104510006093A702809103058430F9F48093E90049
:104520008FEF9091E800815095FD06C095ED9A952A
:10453000F1F700008111F5CF8091E80085FF0DC0F3
:1045400040E050E063E070E086EA92E00E94CE2412
:104550008091E8008E778093E8000895BC0184E0A4
:104560000E9484220895BC0183E00E948422089561
:104570000895CF93603219F5209103052430F9F4A2
:10458000C091E900CF703091EC00232F217030FDF5
:1045900020E8C22B22E02093E9002091E80020FFD0
:1045A0000BC040E050E060E270E00E94CE248091B9
:1045B000E8008E778093E800CF70C093E900CF9138
:1045C000089580910205811109C00E949E260E94D3
:1045D000FB268091E20084608093E20008951092AF
:1045E000020508950E94322108956091FF0481E040
:1045F000611101C080E00E94192108959091030586
:1046000081E0943009F080E06091FF040E941F2156
:10461000089542E061EC81E00E94172642E261ECDD
:1046200084E00E94172642E261EC82E00E94172695
:1046300042E260EC83E00E9417269091030581E03E
:10464000943009F080E06091FF040E9429210895D0
:1046500080910505833009F463C030F4813071F036
:10466000823009F49DC008958A3009F489C08B30E6
:1046700009F46EC0893009F0ABC020C080910405F8
:10468000813A09F0A5C08091E800877F8093E80017
:104690008091080590910905892B21F460E289EA4F
:1046A00092E003C060E080E090E070E00E94582556
:1046B0008091E8008B778093E8000895809104054D
:1046C000813209F085C08091080590910905009715
:1046D00019F0029709F07CC08091E800877F8093F1
:1046E000E8008091E80082FD05C0809103058111FA
:1046F000F8CF6EC02091F3008091F20090E0922BF1
:10470000029731F48091F100813011F0863021F46C
:104710008091F1008093C9028091E8008B7754C0AA
:1047200080910405813A09F053C080910805909169
:104730000905892B09F04CC08091E800877F8093A0
:10474000E8008091E80080FFFCCF8091150137C020
:10475000809104058132E1F5809108059091090569
:10476000892BB1F58091E800877F8093E8000E9453
:104770004C2680910605809315010E94940C0895A3
:1047800080910405813221F58091E800877F809334
:10479000E8000E944C26809107058093CA02089584
:1047A00080910405813AA1F48091E800877F80938D
:1047B000E8008091E80080FFFCCF8091CA028093DE
:1047C000F1008091E8008E778093E8000E944C26EB
:1047D000089584B7877F84BF0FB6F894A895809119
:1047E0006000886180936000109260000FBE90E0CE
:1047F00080E80FB6F89480936100909361000FBE3B
:104800000E942C2108950E949E260E94FB26E2EE23
:10481000F0E080818460808378940E9486290895E6
:1048200089E091E00E94F61F08958091030585308C
:10483000A9F480910305853079F40E948A21809142
:1048400001058823B1F30E944521882391F30E943A
:10485000B8240E94940CEDCF0E94B5210895A0E2E7
:10486000B0E0E5E3F4E20C94DE29809103058430A6
:1048700011F583E08093E9008091E80082FF1BC07E
:104880008091E80085FF0AC040E050E060E270E0FF
:10489000CE0101960E94132591E001C090E0809125
:1048A000E8008B778093E800992329F060E2CE013D
:1048B00001960E94BC17A096E2E00C94FA290E948F
:1048C00062240895292F332723303105C9F060F47D
:1048D0002130310581F02230310509F041C08BE5EE
:1048E00090E029E93AE040C021323105E1F022327E
:1048F000310531F135C082E190E024EF3AE034C077
:1049000099278130910549F028F0029749F5E1E6B1
:10491000FAE005C0E5E9FAE002C0E1E8FAE08491D6
:1049200090E09F0121C063307105D0F4660F771FBE
:10493000FB01E356FE4F2081318189E090E014C0F5
:104940006330710568F4FB01EE0FFF1FE956FE4F5F
:1049500020813181FB01EC56FE4F808190E004C044
:1049600080E090E020E030E0FA0131832083089578
:1049700080E189BD82E189BD09B400FEFDCF80914F
:10498000D8008F7D8093D8008091E0008260809372
:10499000E0008091E00081FDFCCF0895A0E0B0E050
:1049A000E4EDF4E20C94D829EC018B017A010E9429
:1049B0006B26811133C0E114F10439F0F7018081D5
:1049C0009181081B190BC80FD91FC12CD12C0115BF
:1049D000110519F18091E80085FD16C08091E8006D
:1049E0008E778093E800E114F10449F0F7018081AB
:1049F0009181C80ED91ED182C08285E00FC00E946D
:104A00006B26882321F30AC089918093F10001501D
:104A10001109FFEFCF1ADF0ADACF80E0CDB7DEB79A
:104A2000E8E00C94F429A0E0B0E0E9E1F5E20C94B0
:104A3000D829EC018B017A010E946B26811133C0C9
:104A4000E114F10439F0F70180819181081B190B01
:104A5000C80FD91FC12CD12C0115110519F1809156
:104A6000E80085FD16C08091E8008B778093E80010
:104A7000E114F10449F0F70180819181C80ED91E3B
:104A8000D182C08285E00FC00E946B26882321F36B
:104A90000AC08091F100899301501109FFEFCF1AEC
:104AA000DF0ADACF80E0CDB7DEB7E8E00C94F42976
:104AB00020910A0530910B052617370748F061153C
:104AC000710539F42091E8002E772093E80001C0A9
:104AD000B901FC0120E06115710579F180910305B0
:104AE0008823F1F18530F1F18091E80083FD3CC02D
:104AF0008091E80082FD2EC08091E80080FFEBCF1E
:104B00002091F3008091F20090E0922B61157105E5
:104B100051F08830910538F421912093F1006150D3
:104B200071090196F3CF21E0089709F020E0809108
:104B3000E8008E778093E800CECF2111CFCF0AC056
:104B400080910305882361F0853061F08091E80051
:104B500083FD0AC08091E80082FFF2CF80E00895D3
:104B600082E0089583E0089581E0089520910A0588
:104B700030910B052617370748F06115710539F498
:104B80002091E8002E772093E80001C0B901FC01D4
:104B900020E06115710591F180910305882309F4E6
:104BA00040C0853009F43FC08091E80083FD3DC0DE
:104BB0008091E80082FD2FC08091E80080FFE9CF5E
:104BC0002091F3008091F20090E0922B6115710525
:104BD00059F08830910540F424912093F1003196EA
:104BE000615071090196F2CF21E0089709F020E0A9
:104BF0008091E8008E778093E800CBCF2111CCCF55
:104C00000AC080910305882361F0853061F08091AE
:104C1000E80083FD0AC08091E80082FFF2CF80E0C7
:104C2000089582E0089583E0089581E00895982F23
:104C3000973068F59093E900981739F07091EC007F
:104C40002091ED005091F00003C0242F762F50E00A
:104C500021FD02C09F5FECCF3091EB003E7F30938F
:104C6000EB003091ED003D7F3093ED003091EB0093
:104C700031603093EB007093EC002093ED00509383
:104C8000F0002091EE0027FDE5CF80E008958F70C1
:104C90008093E90081E008958091040587FF11C0A9
:104CA0008091E80082FD05C0809103058111F8CF55
:104CB00011C08091E8008B770BC080910305882399
:104CC00049F08091E80080FFF8CF8091E8008E776E
:104CD0008093E80008952091E4003091E50095E686
:104CE0004091EC00842F817040FF23C08091E80048
:104CF00080FD1DC080910305882399F0853099F0CF
:104D00008091EB0085FD11C04091E4005091E500D9
:104D10002417350729F3915011F09A01E1CF84E06F
:104D2000089582E0089583E0089581E0089580E089
:104D300008954091E80042FFDDCF08950E940D27BD
:104D40000E941527E0EEF0E0808181608083E8ED2D
:104D5000F0E080818F77808319BCA7EDB0E08C9163
:104D60008E7F8C9380818F7E8083109202050895C0
:104D70000F931F93CF93DF930E940D270E94152757
:104D8000C8EDD0E088818F778883888180688883A8
:104D900088818F7D888319BC109203051092FF04CF
:104DA000109201051092000500EE10E0F8018081DC
:104DB0008B7F808388818160888342E060E080E02F
:104DC0000E941726E1EEF0E080818E7F8083E2EE84
:104DD000F0E0808181608083808188608083F80139
:104DE00080818E7F8083888180618883DF91CF91ED
:104DF0001F910F910895E8EDF0E080818F7E808310
:104E0000E7EDF0E080818160808384E082BF81E013
:104E1000809302050E94B8260895E8EDF0E08081B5
:104E20008E7F80831092E20008951092DA00109233
:104E3000E10008951F920F920FB60F9211242F9345
:104E40003F934F935F936F937F938F939F93AF9312
:104E5000BF93EF93FF938091E10082FF0BC080919D
:104E6000E20082FF07C08091E1008B7F8093E10028
:104E70000E9485298091DA0080FF1FC08091D800B0
:104E800080FF1BC08091DA008E7F8093DA008091D2
:104E9000D90080FF0DC080E189BD82E189BD09B4E0
:104EA00000FEFDCF81E0809303050E94E12205C052
:104EB00019BC109203050E94EF228091E10080FF4F
:104EC00019C08091E20080FF15C08091E2008E7FC2
:104ED0008093E2008091E20080618093E200809103
:104EE000D80080628093D80019BC85E080930305C8
:104EF0000E94F5228091E10084FF30C08091E200A1
:104F000084FF2CC080E189BD82E189BD09B400FE27
:104F1000FDCF8091D8008F7D8093D8008091E100F3
:104F20008F7E8093E1008091E2008F7E8093E2008B
:104F30008091E20081608093E2008091FF048823E9
:104F400011F084E007C08091E30087FD02C081E09A
:104F500001C083E0809303050E94FE228091E1005E
:104F600083FF29C08091E20083FF25C08091E1008A
:104F7000877F8093E10082E0809303051092FF0415
:104F80008091E1008E7F8093E1008091E2008E7F2E
:104F90008093E2008091E20080618093E20042E031
:104FA00060E080E00E9417268091F0008860809386
:104FB000F0000E94F222FF91EF91BF91AF919F917B
:104FC0008F917F916F915F914F913F912F910F90B2
:104FD0000FBE0F901F9018951F920F920FB60F9251
:104FE00011242F933F934F935F936F937F938F93EE
:104FF0009F93AF93BF93CF93DF93EF93FF93C091B2
:10500000E900CF708091EC00D82FD17080FDD0E8FE
:105010001092E9008091F000877F8093F0007894EF
:105020000E9430281092E9008091F00088608093FF
:10503000F000CD2BCF70C093E900FF91EF91DF918D
:10504000CF91BF91AF919F918F917F916F915F9120
:105050004F913F912F910F900FBE0F901F90189579
:10506000AAE2B0E0E6E3F8E20C94DD29E4E0F5E042
:105070008091F100819325E0EC30F207C9F70E949E
:1050800028238091E80083FF2EC180910405909130
:105090000505492F50E04A30510508F024C1FA01B6
:1050A000EB58FF4F0C94C129803821F0823809F069
:1050B0001AC108C08091000590910105992389F0DB
:1050C00082600FC0809108058F70873008F00BC197
:1050D0008093E9008091EB0085FB882780F910928E
:1050E000E9009091E800977F9093E8008093F100A9
:1050F0001092F100D1C0282F2D7F09F0F4C0882331
:1051000019F0823061F0EFC080910605813009F01E
:10511000EAC0933009F080E0809301052EC08091B1
:10512000060581112AC0809108058F702FEF280F86
:10513000263008F0D8C08093E9002091EB0020FFD2
:105140001CC0933021F48091EB00806214C09091D8
:10515000EB0090619093EB0021E030E0A90102C0E8
:10516000440F551F8A95E2F74093EA001092EA0037
:105170008091EB0088608093EB001092E9008091B1
:10518000E800877F8093E8000E944C26ACC0811124
:10519000AAC0109106051F778091E3008078812BCB
:1051A0008093E3008091E800877F8093E8000E946D
:1051B0004C268091E80080FFFCCF8091E30080685E
:1051C0008093E300111102C082E001C083E080936C
:1051D000030589C08058823008F085C0809106059B
:1051E000909107058C3D53E0950779F583E08A831C
:1051F0008AE289834FB7F894DE01139620E03EE0FF
:1052000051E2E32FF0E050935700E49120FF03C0F8
:10521000E295EF703F5FEF708E2F90E0EA3010F074
:10522000C79601C0C0968D939D932F5F243149F797
:105230004FBF8091E800877F8093E8006AE270E0CA
:10524000CE0101960E94582516C060910805709104
:105250000905AE014F5F5F4F0E945F24BC01892B9F
:1052600009F441C09091E800977F9093E80089810C
:105270009A810E94B6258091E8008B778093E800A0
:1052800032C0803881F58091E800877F8093E80004
:105290008091FF048093F1008091E8008E7772CFB7
:1052A000811121C0809106059091070599270297E9
:1052B000D4F48091E800877F8093E8008091060510
:1052C0008093FF040E944C268091FF04811106C048
:1052D0008091E30087FD02C081E001C084E08093FB
:1052E00003050E9409238091E80083FF0AC0809192
:1052F000E800877F8093E8008091EB0080628093D4
:10530000EB00AA96E3E00C94F9290895CF938091DD
:1053100003058823A1F0C091E900CF709091EC00C3
:10532000892F817090FD80E8C82B1092E900809150
:10533000E80083FD0E943028CF70C093E900CF9130
:105340000895991B79E004C0991F961708F0961BE1
:10535000881F7A95C9F780950895AA1BBB1B51E158
:1053600007C0AA1FBB1FA617B70710F0A61BB70BD5
:10537000881F991F5A95A9F780959095BC01CD017A
:105380000895EE0FFF1F0590F491E02D0994692711
:105390009627692778278727782708952F923F92A5
:1053A0004F925F926F927F928F929F92AF92BF9235
:1053B000CF92DF92EF92FF920F931F93CF93DF93E1
:1053C000CDB7DEB7CA1BDB0B0FB6F894DEBF0FBE3E
:1053D000CDBF09942A88398848885F846E847D848B
:1053E0008C849B84AA84B984C884DF80EE80FD808D
:1053F0000C811B81AA81B981CE0FD11D0FB6F89403
:10540000DEBF0FBECDBFED010895FB01DC0102C080
:1054100005900D9241505040D8F70895FB01DC01F2
:1054200004C08D910190801921F441505040C8F77B
:10543000881B990B0895F999FECF92BD81BDF89A0A
:10544000992780B50895A8E1B0E042E050E00C94BF
:105450004F2A262FF999FECF92BD81BDF89A019768
:1054600000B4021639F01FBA20BD0FB6F894FA9AAC
:10547000F99A0FBE08950396272F0E942A2A0E94A8
:10548000292A252F0E942A2A242F0C942A2A0196A1
:10549000272F0E942A2A0C94292ADC01CB01FC0127
:1054A000F999FECF06C0F2BDE1BDF89A319600B47D
:0E54B0000D9241505040B8F70895F894FFCF88
:1054BE002B020021007F2200033F224322B822B399
:1054CE0022AE22422201E200E900EA00B500B60057
:1054DE00B700CD008301CC008A0192019401210214
:1054EE00230224022502260227022A02B300B40058
:1054FE006F007000818283E200E900EA00B500B619
:10550E0000B700CD008301CC008A019201940121E5
:10551E0002230224022502260227022A02B300B425
:10552E00006F00700081828332333130F7F0F1F476
:10553E00F5F6666735369734949637C60008101818
:10554E001810080040226D950B060B280BAB0AC4F1
:04555E000AE40A0051
:00000001FF
