:100000000C944E070C9486070C9486070C94860774
:100010000C9486070C9486070C9486070C9486072C
:100020000C9486070C9486070C94C81C0C940A1C2C
:100030000C946E200C9486070C9486070C9486070B
:100040000C9486070C9486070C9486070C948607FC
:100050000C9486070C9421200C9486070C94860738
:100060000C9486070C9486070C9486070C948607DC
:100070000C9486070C9486070C9486070C948607CC
:100080000C9486070C9486070C9486070C948607BC
:100090000C9486070C9486070C9486070C948607AC
:1000A0000C9486070C9486070C948607A10CA10C6F
:1000B000D40CD40C470D650D730E730E700DE40D4A
:1000C000F50DF50DDC11DF1100120D1214121F12C7
:1000D000BD12BD12BD12BD12BD1222122412291270
:1000E0004F127212751278129C121C1A431AF21BCC
:1000F000431AF21B8F1AB21AF21BA81BB81B5A2400
:1001000048246C24CF2319251925452419251925A0
:1001100099241925AD24F724192519251925192500
:10012000CB2419251925C824192585241925192515
:1001300013251325132513251325132513251325FF
:100140001325152519255A243D2419251925192566
:1001500019251925192519251925192519251525B3
:100160001925192545241925112511251125112594
:100170001125112511251125112515250000000037
:10018000000000000000000000000000000000006F
:10019000000000000000000000000000000000005F
:1001A0007E0F00D4FFFFFFC70000007800000000B2
:1001B000000000002A2B28000000000000000000C2
:1001C0000000000000000029000000002C1E342068
:1001D000212224342627252E362D3738271E1F208E
:1001E0002122232425263333362E37381F040506D3
:1001F0000708090A0B0C0D0E0F1011121314151617
:100200001718191A1B1C1D2F3130232D3504050614
:100210000708090A0B0C0D0E0F10111213141516F6
:100220001718191A1B1C1D2F3130354C44454255E7
:10023000473A2064697361626C65642E0A00444524
:100240004255473A20656E61626C65642E0A005B18
:10025000735D000A002530313662003A20002530F7
:100260003258000A722F632030313233343536373A
:1002700038394142434445460A000A002530325885
:10028000006C65645F7461736B3A20004F6E657338
:10029000686F743A206163746976653A2025640A50
:1002A000000A002530325820006B6579626F617258
:1002B000645F7265706F72743A20000631FF0974D2
:1002C000A1010975150026FF009520750881020916
:1002D00076150026FF00952075089102C0050109DA
:1002E00002A10185020901A10005091901290815CA
:1002F00000250195087501810205010930093115B4
:1003000081257F95027508810609381581257F951D
:100310000175088106050C0A38021581257F9501B3
:1003200075088106C0C005010980A1018503190176
:100330002AB700150126B700950175108100C00588
:100340000C0901A101850419012AA002150126A0AA
:1003500002950175108100C005010906A1018506FD
:10036000050719E029E715002501950875018102A7
:100370000507190029EF1500250195F07501810287
:100380000508190129059505750191029501750367
:100390009101C00660FF0961A1010962150026FFF5
:1003A000009520750881020963150026FF0095203D
:1003B00075089102C005010906A101050719E02988
:1003C000E7150025019508750181029501750881E1
:1003D000010507190029FF150026FF00950675087D
:1003E00081000508190129059505750191029501FE
:1003F00075039101C05B435D005B445D005B535D31
:10040000005B575D005B525D0009027B0004010048
:10041000A0FA0904000001030101000921110100F3
:1004200001224000070581030800010904010002C0
:1004300003000000092111010001222200070582AA
:100440000320000107050303200001090402000145
:100450000300000009211101000122B600070584F4
:100460000320000109040300020300000009211118
:100470000100012222000705850320000107050570
:1004800003200001120100020000000845415C0643
:1004900001000102000138034100450042006F00E5
:1004A0006100720064007300200043006F006E0062
:1004B0007300740065006C006C00610074006900DA
:1004C0006F006E00200052006500760031000000D1
:1004D00012034100450042006F0061007200640099
:1004E0007300000004030904703A097072696E74A5
:1004F0002076616C7565730A643A097365742064CB
:10050000656661756C74730A75703A092B310A64FB
:100510006E3A092D310A6C743A092B31300A727423
:100520003A092D31300A4553432F713A09717569E3
:10053000740A0A7370656564203D2064656C74619B
:10054000202A206D61785F7370656564202A2028F9
:10055000726570656174202F2074696D655F746FBA
:100560005F6D6178290A77686572652064656C74CF
:10057000613A20637572736F723D25642C20776831
:1005800065656C3D25640A53656520687474703A2E
:100590002F2F656E2E77696B6970656469612E6FA8
:1005A00072672F77696B692F4D6F7573655F6B6528
:1005B00079730A004D3E20004D25753A25733E2083
:1005C000003F0A003D2025750A003F0A0064656669
:1005D00061756C74730A0025750A003F0A000A09E8
:1005E0002D2056616C756573202D0A00710A000A72
:1005F000092D204D6F7573656B6579202D0A004CB0
:1006000025640A0029001E001F002000210022008E
:10061000230024002500260027002D002E00310095
:100620004A002B0014001A000800150017001C00D7
:1006300018000C00120013002F0030002A004B009D
:10064000E00004001600070009000A000B000D007E
:100650000E000F003300340028004C004E00E10073
:100660001D001B00060019000500110010003600D7
:10067000370038000000E50052004D00E000E300C4
:10068000E200000000000000000000002C00E60076
:10069000E4000000500051004F0035003A003B00DC
:1006A0003C003D003E003F0040004100420043004E
:1006B000440045004900010039000100010001002B
:1006C0000100010001000100460047004800010050
:1006D0000100010001000100AA00A900A800B0006B
:1006E0000100010001000100010001000100010002
:1006F0004C000100010001000100010001000100A7
:1007000001000100010001000100000001000100E2
:1007100001000100010001000000000000000000D5
:1007200000000100010001000000010001000100C3
:1007300001000100010001000100010001000100B1
:1007400001000100010001000100010001000100A1
:100750000100010001000100010001000100010091
:100760000100010001000100010001000100010081
:100770000100010001000100010001000100010071
:100780000100010001000100010001000100010061
:100790000100010001000100010001000100010051
:1007A0000000010001000100010001000100000043
:1007B0000000000000000000010001000100000036
:1007C0000100010001000100010001000100010021
:1007D0000100010001000100010001000100010011
:1007E0000100010001000100010001000100010001
:1007F00001000100010001000100010001000100F1
:1008000001000100010001000100010001000100E0
:1008100001000100010001000100010001000100D0
:1008200001000100010001000100010001000100C0
:1008300001000100010000000100010001000100B1
:1008400001000100000000000000000000000100A5
:100850000100010000000100010001006164645F0B
:100860006B65795F6269743A2063616E27742061F9
:1008700064643A20253032580A0064656C5F6B6509
:10088000795F6269743A2063616E27742064656CD5
:100890003A20253032580A00290A002575002F0019
:1008A0002575005D280025640020002564002000D7
:1008B00025640020002564007C0025303258006D3E
:1008C0006F7573656B6579205B62746E7C782079D7
:1008D000207620685D287265702F61636C293A204C
:1008E0005B006B65796D61705F636F6E6669672E23
:1008F0007261773A20253032580A2E737761705F23
:10090000636F6E74726F6C5F636170736C6F636B37
:100910003A2025750A2E636170736C6F636B5F7488
:100920006F5F636F6E74726F6C3A2025750A2E7359
:100930007761705F6C63746C5F6C6775693A2025D2
:10094000750A2E737761705F7263746C5F7267757E
:10095000693A2025750A2E737761705F6C616C743B
:100960005F6C6775693A2025750A2E737761705F31
:1009700072616C745F726775693A2025750A2E6E14
:100980006F5F6775693A2025750A2E737761705F0E
:1009900067726176655F6573633A2025750A2E7309
:1009A0007761705F6261636B736C6173685F6261D2
:1009B000636B73706163653A2025750A2E6E6B72E6
:1009C0006F3A2025750A0064656275675F636F6E14
:1009D0006669672E7261773A20253032580A2E6593
:1009E0006E61626C653A2025750A2E6D61747269BC
:1009F000783A2025750A2E6B6579626F6172643AC8
:100A00002025750A2E6D6F7573653A2025750A00CD
:100A10006565636F6E6669673A0A64656661756CE1
:100A2000745F6C617965723A2025750A000A092D98
:100A3000204D61676963202D0A443A094465627557
:100A400067204D65737361676520546F67676C65D8
:100A50000A583A094D617472697820446562756775
:100A6000204D6F646520546F67676C65202D20539F
:100A7000686F77206B657970726573736573206931
:100A80006E206D617472697820677269640A4B3AEE
:100A9000094B6579626F61726420446562756720F5
:100AA000546F67676C65202D2053686F77206B65E6
:100AB000797072657373207265706F72740A4D3A43
:100AC000094465627567204D6F75736520546F67C3
:100AD000676C650A563A0956657273696F6E0A53F8
:100AE0003A095374617475730A433A09416374692E
:100AF0007661746520436F6E736F6C65204D6F6413
:100B0000650A46312D4631303A0953776974636876
:100B100020746F204C6179657220302D3920284671
:100B20003130203D204C30290A302D393A09537795
:100B30006974636820746F204C6179657220302D70
:100B4000390A47524156453A095377697463682018
:100B5000746F204C6179657220302028616C746557
:100B6000726E617465290A423A094A756D70207483
:100B70006F20426F6F746C6F616465720A455343F6
:100B80003A094A756D7020746F20426F6F746C6FF4
:100B9000616465722028616C7465726E6174652988
:100BA0000A453A095072696E7420454550524F4DBE
:100BB0002053657474696E67730A4241434B535006
:100BC0004143453A09436C65617220454550524F97
:100BD0004D0A4E3A094E4B524F20546F67676C6571
:100BE0000A000A092D20436F6E736F6C65202D0A71
:100BF0004553432F713A09717569740A6D3A096D4D
:100C00006F7573656B65790A000A092D2056657248
:100C100073696F6E202D0A5649443A20307834317A
:100C20003435284145426F6172647329205049442C
:100C30003A20307830363543284145426F6172643E
:100C40007320436F6E7374656C6C6174696F6E2092
:100C50005265763129205645523A2030783030306E
:100C6000310A4255494C443A2020284175672031C9
:100C7000322032303232290A4F5054494F4E533AC3
:100C8000204C554641204D4F5553454B4559204525
:100C9000585452414B455920434F4E534F4C4520D9
:100CA000434F4D4D414E44204E4B524F204C544FDC
:100CB00020343039360A4743433A20352E342E301B
:100CC000204156522D4C4942433A20322E302E308C
:100CD000204156525F415243483A20617672350AAC
:100CE000000A092D20537461747573202D0A686FF2
:100CF00073745F6B6579626F6172645F6C65647356
:100D000028293A20253032580A6B6579626F617262
:100D1000645F70726F746F636F6C3A202530325865
:100D20000A6B6579626F6172645F69646C653A2011
:100D3000253032580A6B65796D61705F636F6E663E
:100D400069672E6E6B726F3A20253032580A7469CB
:100D50006D65725F72656164333228293A202530EF
:100D6000386C580A003F004E4B524F3A206F66666F
:100D70000A004E4B524F3A206F6E0A000A6D6F7593
:100D800073653A206F66660A000A6D6F7573653A7F
:100D9000206F6E0A000A6B6579626F6172643A2097
:100DA0006F66660A000A6B6579626F6172643A2049
:100DB0006F6E0A000A6D61747269783A206F666618
:100DC0000A000A6D61747269783A206F6E0A000A2F
:100DD00064656275673A206F66660A000A64656238
:100DE00075673A206F6E0A000A0A4A756D70696E5F
:100DF0006720746F20626F6F746C6F616465722E10
:100E00002E2E2000433E2000436C656172696E67A0
:100E100020454550524F4D0A00313A0964656C61D6
:100E200079282A31306D73293A2025750A323A091A
:100E3000696E74657276616C286D73293A20257528
:100E40000A333A096D61785F73706565643A2025ED
:100E5000750A343A0974696D655F746F5F6D617806
:100E60003A2025750A353A09776865656C5F6D61CA
:100E7000785F73706565643A2025750A363A09779C
:100E80006865656C5F74696D655F746F5F6D6178CF
:100E90003A2025750A003F00433E200011241FBE62
:100EA000CFEFDAE0DEBFCDBF04B603FE18C08091FD
:100EB000E4029091E502A091E602B091E70287304A
:100EC000904BA740B04B59F41092E4021092E50207
:100ED0001092E6021092E702E0E0F8E3099511E0D3
:100EE000A0E0B1E0E4EBF5E502C005900D92AA3C6C
:100EF000B107D9F722E0AAECB1E001C01D92A43EEF
:100F0000B207E1F70E94B00E0C94D82A0C940000AE
:100F1000FF93EF93E091CA01F091CB01309709F074
:100F20000995EF91FF910895FC018591803011F0B2
:100F3000EFDFFBCF0895FF27E0E230E247FF0CC070
:100F4000419597FF09C0EDE2609570958095909569
:100F5000611D711D811D911D27FF02C0219530E388
:100F600050E2AA27660F771F881F991FAA1FA41790
:100F700010F0A41B63955A95A9F7AA3008F0A95F51
:100F8000A05DAF93F395611571058105910541F75A
:100F9000ED3211F4EF93F395F21718F43F93F395B4
:100FA000FBCF8F91B5DFFA95E1F70895E991F991BB
:100FB0008591803021F0853219F0AADFF9CF0895AC
:100FC00020E0E89455915532C1F3503311F4689400
:100FD00055915A3348F4505390F3220F022E220FAA
:100FE000220F200D250FF4CF0EF4219589919991B0
:100FF000533619F3533729F1533559F1BC0188277A
:101000009927E8945C3621F48991999168945591D7
:10101000543639F446EF7EF077FF0DC08FEF9FEF27
:101020000AC055374AE039F0583540E121F05236D0
:1010300042E009F00895FF93EF937DDFEF91FF9178
:10104000B7CFFF93EF93FC0181918030B9F360DF5C
:10105000FBCFFF93EF9368DFF1CFDF93CF93CDB753
:10106000DEB72596A3DFCF91DF9108950E945E2819
:101070002FEF84E39CE0215080409040E1F700C0D6
:1010800000009CE088E10FB6F894A895809360007A
:101090000FBE90936000FFCFA7E1B0E0E2E5F8E07B
:1010A0000C948F2A4B8B5C8B6D8B7E8B8F8B61119D
:1010B0001092650286E09E01235F3F4FD901E82F21
:1010C0001D92EA95E9F795E0FE017396D90101902A
:1010D0000D929A95E1F79C894E895F897B897D877E
:1010E0009E876F87598B488BF901DE011796019017
:1010F0000D928A95E1F7CE0107960E94A7178111FC
:101100003EC086E0FE013796DE01119601900D92F9
:101110008A95E1F7FF81E8856A857B856115710510
:1011200031F0EF3F31F481E0FF3F19F403C081E07B
:1011300001C080E080FD23C02091120230E0C9018F
:101140000196877099274091430250E084179507D4
:1011500079F1F983EA837D836C8396E0929FD001D5
:10116000939FB00D1124AD5EBD4FFE0131960190ED
:101170000D929A95E1F7809312020E94271716E0CC
:1011800080914302909112028917F9F0189FC001D3
:1011900011248D5E9D4F0E94A7178823B1F0809186
:1011A000430290E001968770992780934302E8CF2D
:1011B0000E945E281092120210924302ECE0F2E0CC
:1011C00086E0DF011D928A95E9F76796E3E00C94CB
:1011D000AB2AA9E0B0E0EFEEF8E00C94812AFC0124
:1011E0008081918123813481232B31F09F3F31F421
:1011F00091E08F3F19F403C091E001C090E090FDB1
:1012000099C57F0185E0DE01119601900D928A95C6
:10121000E1F7F701228189819A81222349F00E9416
:101220008327182F682F89819A810E94E62703C09F
:101230000E94B227182F69817A81812F0E94522241
:101240008C01F7018281882309F4F5C098012251AD
:101250003F452031310508F00AC18FEF93E00E942D
:10126000112A8111F2C002513FE7832E32E0932E02
:10127000002379F08114F4E09F0609F4E6C0C4016C
:101280000E94112A811101C001502FEF821A920A87
:10129000EFCF1E821F8218861986442443942AE0C9
:1012A000322E84010F5F1F4FC4010E94112A8E83CA
:1012B0001F82882309F4C9C09FEF980F933060F410
:1012C0008F834E8232E0830E911CC8010E94112A46
:1012D0008887811102C0B9C048018E010A5F1F4F83
:1012E000F80120812223E9F2213009F04CC08181EC
:1012F000813049F46801F2E0CF0ED11CF8018281FF
:101300000E94F2290AC0823051F46801F2E0CF0E47
:10131000D11CF80182810E94E828860189C08330AF
:1013200049F46801F2E0CF0ED11CF80182810E94DD
:101330008528F3CF843019F00F5F1F4F79C0F80173
:1013400022810E5F1F4F80E090E030E02053310992
:101350002A30310568F4389EA001399E500D1124C1
:10136000C901840F951F0F5F1F4FF8012081EDCF3A
:10137000009709F45DC0EFE9FFE03197F1F700C095
:1013800000000197F5CFE22FF0E0E455FE4F5490B6
:10139000822F86958695869590E0FC01E456FE4F57
:1013A00064902770712C022E02C0759467940A9481
:1013B000E2F7F1E06F227724FC01E457FE4FA4909E
:1013C000B12C022E02C0B594A7940A94E2F731E042
:1013D000A322BB24FC01E458FE4FC490D12C02C0D0
:1013E000D594C7942A95E2F781E0C822DD246114E0
:1013F000710419F081EE0E94E828A114B10419F0DB
:1014000086EE0E94E828852D0E94F229A114B104DD
:1014100019F086EE0E9485286114710419F081EE9E
:101420000E948528C114D10419F08CE20E94F2298F
:101430000F5F1F4F55CF00313FE5130709F071C40F
:1014400081E00E9420280E942E198091440287701A
:1014500009F470C4F7018281882309F46BC4809178
:10146000B30282FF67C482E00E94DB1663C40031CE
:10147000FFE51F0711F481E005C001312FE51207D8
:1014800021F482E00E942D28DECF033FFCE51F07F8
:1014900099F406E221EE40EE63EF7CE509C0073DDA
:1014A000ECE51E0711F506E221EE41EE67ED7CE565
:1014B000C7010E944F21C9CF043F2CE5120708F055
:1014C0005FC1083D3CE5130731F407E225EE45EE28
:1014D00068ED7CE5EDCF093D9CE5190701F708E2D1
:1014E00021E045EE69ED7CE5E3CF882309F47DC179
:1014F0001092A50203309DE5190758F40A3FECE568
:101500001E0780F4C80182509C45449708F057C1DB
:1015100009C00136FDE51F0729F0053A2DE5120740
:1015200009F04DC10E94C3159093B3028093B2029B
:1015300001313CE5130709F4C9C008F043C0093084
:101540009CE5190709F49EC008F50530FCE51F0766
:1015500009F488C080F403303CE5130709F47BC02C
:1015600008F07DC002309CE5190709F0F9C08091B0
:10157000B2028160F3C00730ECE51E0709F47AC0BF
:1015800008F07CC08091B2028061E8C00D302CE58B
:10159000120709F489C058F40B308CE5180709F4D8
:1015A0007BC008F07DC08091B202886071C00F30AE
:1015B000ECE51E0709F482C008F084C08091B202F5
:1015C000877FCCC00D3F2CE5120709F473C008F5E6
:1015D00005318CE5180709F487C068F40331ECE5A0
:1015E0001E0709F477C008F097C00E945E2880911A
:1015F000B2028F77B3C00B3F2CE51207B9F108F0A8
:1016000056C00A3F8CE5180709F0AAC08091B302C2
:1016100041C001309DE5190709F48AC058F40F3F15
:10162000FCE51F0709F45BC008F06AC08091B302B3
:10163000826030C001363DE5130709F47FC0053AEA
:101640008DE5180709F484C002309DE5190709F0FB
:1016500087C060E06EC08091B20282607FC08091DE
:10166000B20216C08091B202886078C08091B30245
:1016700082604FC08091B202806270C08091B202DD
:1016800080646CC00E945E288091B202806866C04F
:10169000846064C081603DC08091B2028E7F5EC074
:1016A0008091B2028D7F5AC08091B20216C08091A3
:1016B000B30218C08091B3028D7F2BC08091B2021B
:1016C0008F7E4CC08091B2028F7D48C08091B20263
:1016D0008F7B44C08091B202877F8B7F3FC0809117
:1016E000B3028D7F8E7F15C08091B20282FB2227CC
:1016F00020F991E0922790FB82F990FB83F92EC0AC
:101700008091B302982F909591708E7F892B90FBDA
:1017100081F98093B30224C00E945E288091B202B6
:1017200087FB222720F991E0922790FB87F916C0CA
:1017300061E08EE090E00E941F2A12C08091B20208
:1017400084FB222720F991E0922790FB84F906C0C0
:101750008091B202982F909590FB80F98093B2020D
:101760006091B2021091B30284E090E00E941F2ABF
:10177000612F82E290E00E941F2A0E945E2865CEBF
:10178000053FFCE51F0731F406E221EE42EE65EF6E
:101790007CE58ECE053F2CE5120730F407E225EEFE
:1017A00044EE64EF7CE584CE063F3CE5130709F088
:1017B0009CCE07E225EE46EE66EF7CE579CE06315B
:1017C0008CE5180721F5809166028A7A91E009F488
:1017D00090E09093CC01882311F065E301C069E2A9
:1017E0008CEE91E00E94D0200FC00631ECE51E0780
:1017F00009F05AC08091CC01882309F499C265E3AD
:101800008CEE91E00E9497200E944C161ECE0A3565
:10181000EDE51E0709F443C0D0F401302CE51207B2
:10182000F9F00E3D3CE5130771F101158CE5180741
:10183000D9F50E945E282FEF34E38CE02150304030
:101840008040E1F700C000000E94FD1FFECD0C3576
:101850009DE51907E1F028F1073A1D45B1F024C0D4
:101860008091AC02982F9095917090FB80F98093B5
:10187000AC02992319F08EE392E002C08CE292E070
:101880000E949407E2CD0E94D4150E9436088091F0
:10189000B30282FB882780F991E0892703C081E0A9
:1018A00001C080E00E94F816F70182810081118159
:1018B000882349F0C8010E948327D82E682FC801C9
:1018C0000E94E62704C0C8010E94B227D82EB801A2
:1018D0008D2D0E9452220E942914B82E192F982E65
:1018E000F7010281A580A2949FE0A9228091440281
:1018F0008770B9F00023A9F0812F807F803421F018
:1019000080E28B0D883068F08091B30282FF09C0BD
:1019100082E00E94DB16809144028770DD24D3941C
:101920008111D12CC12EC2948FE0C8228C2D90E061
:101930008C30910508F0D7C1FC01EA5AFF4F0C9496
:10194000732A812F807F1F70882311F01295107FDA
:101950000023B9F0112309F4B4C180E28B0D883063
:1019600010F0911006C080916602182B1093660249
:1019700005C080916502182B109365020E944C16D9
:10198000A0C18B2D0E948528112309F4ACC180E2EF
:101990008B0D883080F1992071F11095809165024E
:1019A0001823109365022AC0812F807F1F70803218
:1019B00011F01295107F8B2D992021F0F1E09F16E8
:1019C000D9F149C08091B30282FD1BC0002369F0A8
:1019D000112339F080916602182B109366020E9441
:1019E0004C1680E00E94E8287EC180E00E94852895
:1019F000112309F478C1812F0E9445160E944C16CC
:101A000072C1002381F080916702AA2051F021E089
:101A1000A21207C0182B181709F465C110936702AA
:101A200062C1812B10C0AA2021F031E0A31609F475
:101A30005AC10E943F1627C0002341F085E08A1555
:101A400008F451C1812F0E947B284DC194E09A1562
:101A500008F449C118C0002349F0AA2099F3F701FE
:101A6000858180FF2EC18F708583ECCFAA2059F02D
:101A7000893309F035C1FFEF27EE33E0F150204004
:101A80003040E1F72BC1812F0E9474282CC1812F97
:101A900086958695837019F0813061F024C100230A
:101AA00021F08B2D912F937002C080E090E00E9476
:101AB0002C211FC1002321F08B2D912F937002C088
:101AC00080E090E00E94162114C18B2D002319F0B4
:101AD0000E940C2702C00E941D260E94712509C188
:101AE000812F8370A9F5011102C14B2D42954695B6
:101AF0004770440F440F8B2D8F7090E09C01042E93
:101B000001C0220F0A94EAF7B4FE08C08FE090E00B
:101B100001C0880F4A95EAF7809501C080E01695CC
:101B200016951370123069F088F4909168021130A4
:101B300019F0822B892302C0922B892B0E9439280D
:101B4000D6C0822B909168028927F8CF822BF6CFDE
:101B5000002319F0812F817001C08695882309F434
:101B6000C6C04B2D429546954770440F440F8B2DB0
:101B70008F7090E09C01042E01C0220F0A94EAF7B6
:101B8000B4FE08C08FE090E001C0880F4A95EAF7E4
:101B9000809501C080E0169516951370123059F0AB
:101BA00078F490919D02113019F0822B892309C09D
:101BB000922B892B06C0822B90919D02892701C010
:101BC000822B0E941B2893C01F70002339F0812FA5
:101BD0000E942D288B2D0E947B2889C08B2D0E946E
:101BE0007428812F0E94202882C08B2D92EF991695
:101BF00081F1991538F0E0EF9E1659F0F1EF9F163C
:101C000019F15BC023EF921659F134EF9316C1F02E
:101C100054C0002381F084E08A1508F464C01F7169
:101C200081E090E0012E01C0880F0A94EAF79091BC
:101C30009D02892720C095E09A1508F454C0EFCF83
:101C40008091B30282FD1AC0002329F0812F8F7189
:101C500027C00023D9F3812F8F710E94202843C011
:101C6000002341F01F7181E0012E01C0880F0A940A
:101C7000EAF701C080E00E941B2835C0002399F0DC
:101C80001F71812F0E942D288091B30282FF07C00F
:101C9000E8E01E9FC0011124836080934402812FDD
:101CA0000E942D2820C081E00E94DB16F1E0FA1589
:101CB000D0F482E00E94DB1616C0002321F0AA2097
:101CC00029F28B2D8FCEAA2031F2893349F42FEFE0
:101CD00037EE83E0215030408040E1F700C0000043
:101CE0008B2D0E94852888EF8C0D843010F40E9483
:101CF0004221DD20F9F08091440280FD1BC0F701F4
:101D000012828595859585950E942D28C7010E9490
:101D1000E908809144028595859585950E94202843
:101D200009C001319FE5190709F0AFCB82E089CBEB
:101D300069E266CD2996E1E10C949D2A8295982F5F
:101D4000937344E0949F900111248C7C8695869532
:101D5000282B822F8575880F2A7A2695822B089545
:101D6000ADE2B0E0E6EBFEE00C94802A85B7806837
:101D700085BF85B7806885BF84B7877F84BF0FB66E
:101D8000F894A8958091600088618093600010921B
:101D900060000FBE90E080E80FB6F8948093610079
:101DA000909361000FBE84E59EE19093CB018093F8
:101DB000CA010E944E1C0E946D1C8091E20084604A
:101DC0008093E2007894809193028823A1F010918F
:101DD000E9001F709091EC00892F817090FD80E8E0
:101DE000182B1092E9008091E80083FD0E943A19B7
:101DF0001F701093E90082E084BD93E095BD9AEFD7
:101E000097BD80936E000E945825811102C00E94E8
:101E1000482503E111E0F8E1EF2EF1E0FF2ED801B3
:101E20008D918D018F3F11F00E944E13E016F10647
:101E3000B1F708E111E0E7E2EE2EE1E0FE2EF80155
:101E400081918F018F3F11F00E944E13E016F10631
:101E5000B1F78AE0E2EEF1E0DF01282F1D922A952A
:101E6000E9F7EDECF1E0DF011D928A95E9F780E0FA
:101E700090E00E94192A883E9E4F21F40E94582526
:101E8000811102C00E94D41582E090E00E94112AC4
:101E90008093AC020E94C3159093B3028093B20268
:101EA0000E946513EFE3FCE93197F1F700C00000F1
:101EB0000E9465138091E20180FF08C06FEF7FEF01
:101EC00080E090E00E943D2A0E94FD1F83E090E0A8
:101ED0000E94112A0E94392880E091E09093A90283
:101EE0008093A80280919302853009F04AC08FE464
:101EF00092E00E94940700E112E180919302853004
:101F000009F03BC080919302843021F11092AD0220
:101F100028E130E040E40FB6F894A89520936000E3
:101F20000FBE4093600083B7817F846083BF83B717
:101F3000816083BF7894889583B78E7F83BF0FB607
:101F4000F894A89580916000886180936000109259
:101F500060000FBE80919202882309F4CECF0E94C8
:101F60006513E2EEF1E081919191892B09F02FC385
:101F700051E0EC3EF507B9F7C0CF0E945E280E9401
:101F800042210E94651381110E94562072EEC72ED5
:101F900071E0D72E87ED91E09CA78BA7260100E08A
:101FA00010E00DA7D201AD90BD902D01EBA5FCA5D1
:101FB00061907190FCA7EBA76A247B2461147104E3
:101FC000B1F40F5F1F4F0530110559F78FEF8EA346
:101FD0008FA318A60E9462208160782F9AA789A7F4
:101FE0004EA15FA168A58AA50E944C0878C0809187
:101FF000AC0281FD05C080E0EE24E394F12C49C0E1
:1020000083E692E00E94940752EE852E51E0952ED1
:10201000E12CF12CFF92EF922EE532E03F932F93CB
:102020000E942D088BE592E00E949407D4018C91C8
:1020300011962C90B2E08B0E911C0E949E0E382EB1
:10204000822D0E949E0E232D30E0322F2227F9018F
:10205000E82BCF019F938F9325E532E03F932F9399
:102060000E942D0883E592E00E9494075FEFE51A35
:10207000F50A0FB6F894DEBF0FBECDBF95E0E916A6
:10208000F10441F6B8CF8F5FEE0CFF1C8F3009F4DE
:1020900098CF970126213721232BA9F389A3ADA53A
:1020A000AAA3AE20BF2081E0AB2809F480E08BA377
:1020B0000E9462208160782F9DA38CA349A15AA120
:1020C0006BA18DA10E944C08000F111FF801E9526D
:1020D000FE4F80819181E826F926F182E08286E038
:1020E000EFEBF2E08E010F5F1F4FD80101900D92D0
:1020F0008A95E1F71092C1021092C2021092C302B7
:102100001092C4028B81811104C08C81882309F450
:102110005FC08091BD029091BE020E944720AC0139
:102120009091BA02992339F02091110130E02417DF
:10213000350758F04DC020911201BAE02B9F900155
:1021400011242417350718F043C09F3F19F09F5FF3
:102150009093BA02FB80FF2061F00E94CD261F14ED
:1021600014F491E001C09FEF899F802D112480938A
:10217000C102FC80FF2061F00E94CD261F1414F4E0
:1021800091E001C09FEF899F802D11248093C202AE
:102190003091C1023323E1F02091C2022223C1F029
:1021A00045EB3403C0011124992319F09093C10227
:1021B00003C081E08093C10255EB2503C0011124C7
:1021C000992319F09093C20203C081E08093C20268
:1021D0008D81811104C08E81882309F453C08091C0
:1021E000BB029091BC020E9447209C019091B802D2
:1021F000992309F40BC22135310508F443C09F3FF0
:1022000019F09F5F9093B802FD80FF2061F00E945B
:1022100094261F1414F491E001C09FEF899F802D34
:1022200011248093C302FE80FF2061F00E94942657
:102230001F1414F491E001C09FEF899F802D112499
:102240008093C4023091C3023323E1F02091C40291
:102250002223C1F045EB3403C0011124992319F066
:102260009093C30203C081E08093C30255EB250322
:10227000C0011124992319F09093C40203C081E096
:102280008093C40246E050E0B8018FEB92E00E94D8
:10229000CB2A892BA9F48091C10281110FC08091B2
:1022A000C20281110BC08091C302811107C081E07D
:1022B0009091C402911103C080E001C081E080FDD3
:1022C0000E94712586E0F801AFEBB2E001900D921B
:1022D0008A95E1F70E944221F82E8091E101F816DB
:1022E00021F1F092E1018091AC0282FF1EC080FFDB
:1022F00004C081E892E00E9494078091AC0280FFC4
:102300000CC01F92FF928CE792E09F938F930E94E4
:102310002D080F900F900F900F908091AC0280FFCE
:1023200004C08AE792E00E9494078091930284306F
:1023300009F0D8CD83E08093E9008091E80082FF26
:10234000D1CD8091E80085FF21C00E94F31D81114D
:102350001BC080E2E82EF12C580109C08091F100E9
:10236000D5018D935D01B1E0EB1AF10869F0809120
:10237000E80085FDF3CF8091E8008B778093E8003B
:102380000E94F31D882399F391E001C090E08091B1
:10239000E8008B778093E800992309F4A3CDE981C5
:1023A0008E2F90E0FC013197E331F10508F0E5C094
:1023B000EE59FF4F0C94732A1A8289E048C08A8133
:1023C000823009F41AC1833051F0813009F0D5C050
:1023D0000E9456209B838C837D836E83D0C0F8013E
:1023E000CE010B96D6012C9111963C91B2E0CB0E0A
:1023F000D11C3283238332968E179F0799F7BFC073
:102400008A81823009F0B9C06B817C818D819E8187
:102410000E94792A0E942425B2C04C816B818A8156
:102420000E9424229D83F0C02D813E8132272327E4
:1024300032274C816B818A810E94C821A0C00E94F2
:10244000EF219DC080E152C081E08A8381E88B83C7
:1024500096C0EA80FB80FE24EF24FE24AC80B12CE1
:102460006801C70181589D4F9601201B310B2A1529
:102470003B0508F084C0E1E8EE16E1E0FE0630F42A
:102480000E94112AD60114968C9302C0F601148280
:10249000FFEFEF1AFF0A2FEFC21AD20AE2CFEA804B
:1024A000FB80FE24EF24FE24AC80B12C6801C70120
:1024B00081589D4F9601201B310B2A153B0508F0D2
:1024C0005EC031E8E31631E0F30628F4D601149635
:1024D0006C910E941F2ABFEFEB1AFB0AEFEFCE1A96
:1024E000DE0AE5CF0E94B8214AC084E08A8347C053
:1024F000EA80FB80FE24EF24FE24AC80B12C68012E
:10250000C70187969601201B310B2A153B05B8F5AC
:10251000F8E5EF16F2E0FF0630F40E94112AD6012A
:1025200014968C9302C0F6011482FFEFEF1AFF0A93
:102530002FEFC21AD20AE4CFEA80FB80FE24EF24F8
:10254000FE24AC80B12C6801C70187969601201B40
:10255000310B2A153B0598F438E5E31632E0F30613
:1025600028F4D60114966C910E941F2ABFEFEB1A33
:10257000FB0AEFEFCE1ADE0AE7CF8FEF8983809157
:102580009302843009F0AECC8091E9008F702091E5
:10259000EC00922F917020FD90E8F92EF82A82E04D
:1025A0008093E9008091E80080FF0CC040E050E09B
:1025B00060E270E0C8010E94261E8091E8008E77DC
:1025C0008093E8008F2D8F708093E9008BCC09BD3C
:1025D00019BD09B400FEFDCF8091D8008F7D809396
:1025E000D8008091E00082608093E0008091E0005C
:1025F00081FDFCCF0E945E2880CC86E290E00E94A4
:10260000112A1B821C821D828E83B9CF2B3031058B
:1026100008F0F7CD37CE9091B20292FF0DC0282F6F
:102620002871283019F4877F846006C0282F247110
:10263000243011F48B7F886093FF0DC0282F287100
:10264000283119F4877E846106C0282F2471243133
:1026500011F48B7E88612091B30220FF0DC0382FCA
:102660003871383019F4877F816006C0382F317196
:10267000313011F48E7F886021FF0DC0282F287122
:10268000283119F4877E816106C0282F21712131FC
:1026900011F48E7E886194FD877E0895F894E82F6A
:1026A000E295EF70F0E031A1282F2F7081E090E0EB
:1026B00001C0880F2A95EAF7982F9095932391A34C
:1026C00092A1892B82A378940895AAE0B0E0EBE66A
:1026D000F3E10C94862AAE014F5F5F4F7A018AE0E6
:1026E000FA0111928A95E9F703E111E06A01AA243F
:1026F000A394B12CF80180818F3F09F447C0F8946E
:10270000E82FE295EF70F0E021A18F70A50102C0E3
:10271000440F551F8A95E2F7CA01922F982B91A377
:1027200092A18095892382A3789400C0E8E1F1E02A
:1027300021E030E0812C912C41914F3F89F0A42F72
:10274000A295AF70B0E090968C9190E04F7002C06F
:10275000959587954A95E2F780FD02C0C90102C0B0
:1027600080E090E0882A992A220F331F51E0E73257
:10277000F50711F7F80180818F3F11F00E944E1389
:10278000F0EAFA95F1F7F601918280820F5F1F4F10
:10279000F2E0CF0ED11C41E00831140709F0AACFB6
:1027A0004AE050E0B7018DEC91E00E94CB2A11E0A5
:1027B000009709F410E0892B89F08AE0F701ADEC6D
:1027C000B1E001900D928A95E1F781E080936B0270
:1027D0000E94622090936A028093690280916B024A
:1027E000882391F18091690290916A020E944720AA
:1027F000059750F18091CD019091CE019093E30126
:102800008093E2018091CF019091D0019093E501F6
:102810008093E4018091D1019091D2019093E701DE
:102820008093E6018091D3019091D4019093E901C6
:102830008093E8018091D5019091D6019093EB01AE
:102840008093EA0110926B02812F2A96ECE00C949F
:10285000A22ACF93DF938238910569F1B0F48133D6
:10286000910509F46FC048F48932910509F465C0F7
:102870008A32910509F46BC08AC08533910509F449
:1028800057C089339105B9F082C0833E910571F13B
:1028900038F4803E9105B1F0823E910511F177C088
:1028A000863E9105B9F1873E9105C9F1843E9105B7
:1028B00009F06DC024C02091B20220FD53C021FD5B
:1028C00051C065C08091B20280FD46C08091B302C4
:1028D00080FF48C08091B20284FD50C183EE90E039
:1028E0004FC18091B20282FF3AC0F4CF8091B20210
:1028F00082FD35C08091B30280FD34C0EBCF809162
:10290000B30281FF35C08091B20284FD37C187EEEA
:1029100090E036C18091B20283FF27C0F4CF80914E
:10292000B20283FD22C08091B30281FD21C0EBCFB2
:102930008091B20285FD1FC021C08091B20285FD49
:102940001DC019C08091B20286FD1BC01DC08091C0
:10295000B20286FD19C015C089E390E011C182EE74
:1029600090E00EC180EE90E00BC186EE90E008C1D1
:1029700084EE90E005C189E290E002C185E390E039
:10298000FFC08AE290E0FCC081E390E0F9C08115CD
:1029900031E5930708F069C0811540E59407F0F030
:1029A0009C0174E0369527957A95E1F7922F937004
:1029B000482F437021E030E002C0220F331F4A95B8
:1029C000E2F73C68392B982F9F709695969540E2D8
:1029D000949FC0011124822B932BD2C0883E910575
:1029E00068F5803E910508F0CBC0883A9105B8F4AF
:1029F000853A910548F0855AE82FF0E0E95DFE4FF1
:102A0000808190E09064BCC08130910509F4B3C02E
:102A100008F4B4C08430910508F4B0C0B1C08F3B55
:102A2000910508F0ABC0885AE82FF0E0EE0FFF1FC9
:102A3000E65DFE4F808191819464A2C0811520E201
:102A4000920758F4811531E0930708F099C0803F50
:102A5000910508F493C0906593C0811540E49407F4
:102A600008F48CC09F70906A8BC0811525E5920791
:102A700008F042C0811534E5930728F0982F882785
:102A8000846F906A7DC0811543E59407B0F09C0186
:102A90002370332741E050E002C0440F551F2A95B0
:102AA000E2F7282F2695269580E2289F9001112491
:102AB000CA01822B932B9A6863C0811522E5920785
:102AC00028F4982F8827816F906A5AC09C01237040
:102AD000332741E050E002C0440F551F2A95E2F72A
:102AE000282F2695269580E2289F90011124CA015F
:102AF000822B932B9C6844C0EC01811539E5930728
:102B0000A8F48115984528F09C2F8827806F906A3B
:102B100037C0C11586E5D80788F58C2F0E940B13A6
:102B20008F7190E0982F882790622AC081152AE53E
:102B3000920790F48C2F8F700E940B1394E0D6951F
:102B4000C7959A95E1F7CF70D0E0DC2FCC27D069FC
:102B50009E01282BC90114C090568115904270F433
:102B60008D2F8F710E940B13282F2F71CE01992763
:102B70009062922B05C081E090E002C080E090E07E
:102B8000DF91CF910895CF9384E090E00E94112AC5
:102B9000C82F82E290E00E94112A2C2F30E0A90178
:102BA000582BCA01CF91089568EE7EEF80E090E047
:102BB0000E943D2A60E082E090E00E941F2A60E0CF
:102BC00083E090E00E941F2A1092680260E084E097
:102BD00090E00E941F2A64E082E290E00E941F2A97
:102BE00060E085E090E00E941F2A60E086E090E0CF
:102BF0000E941F2A6FEF87E090E00E941F2A40E0AA
:102C000050E0BA0188E090E00E94312A60E08DE057
:102C100090E00E941F2A40E050E0BA0188E190E075
:102C20000E94312A60E087E190E00E941F2A40E084
:102C300050E0BA018CE190E00E94312A60E070E03F
:102C400080E290E00E943D2A40E050E0BA0188E135
:102C500090E00E94312A80E00E9429250E944825A8
:102C600040E050E0BA018FE090E00E94312A40E05D
:102C700050E0BA0183E190E00E94312A08958091EA
:102C80006702811110926702089580959091660203
:102C90008923809366020895EF92FF920F931F930A
:102CA000CF939091660280916502982B9093EC01EE
:102CB000809167028823D9F0892B8093EC01809161
:102CC0000C01882331F08091B20287FF02C08EE1AF
:102CD00001C086E0EEEEF1E090E0815028F0219115
:102CE0002223D9F39F5FF9CF91110E943F1640E252
:102CF00050E065E472E08CEE91E00E94CB2A892BD3
:102D000009F453C080E2ECEEF1E0A5E4B2E00190FA
:102D10000D928A95E1F7E091A802F091A90230970F
:102D200009F443C080910C01882359F08091B202CC
:102D300087FF07C08091EC018093ED0186E08093CE
:102D4000EC010280F381E02D8CEE91E009958091F9
:102D5000AC0282FF2AC080FF04C089EA92E00E9490
:102D600094070CEE11E0C8E083EAE82E82E0F82E2A
:102D70008091AC0280FF0CC0F80180811F928F937C
:102D8000FF92EF920E942D080F900F900F900F90DE
:102D9000C1500F5F1F4FC111EBCF8091AC0280FF7C
:102DA00004C081EA92E00E949407CF911F910F9195
:102DB000FF90EF90089520914402809582238093A4
:102DC0004402982F977099F430E0482F082E000C99
:102DD000550B2417350759F09091B30292FF07C0A5
:102DE0008595859585950E94202810924402089526
:102DF000CF93DF93C091B302C2FB992790F9981744
:102E000019F1D82F80FBC2F9C093B3026091B202CE
:102E100084E090E00E941F2A6C2F82E290E00E94E2
:102E20001F2A82E00E94DB168091AC0280FF0CC05A
:102E30001F92DF938CE892E09F938F930E942D085E
:102E40000F900F900F900F90DF91CF910895809188
:102E5000430290911202891719F08F5F8770FBCFA0
:102E600008950F931F93CF93DF9380911102829562
:102E70008F7009F05AC080910E02882309F455C062
:102E8000809143021091120260910C0270910D0228
:102E9000C0910F02D091100291E06F3F09F090E0D5
:102EA000292F06E0811709F440C0209721F07F3FC9
:102EB00021F030E003C031E001C0322F90E030FD5E
:102EC00031C0089FF001099FF00D1124DF01AD5EB4
:102ED000BD4F11963C911197371324C03C91361386
:102EE00021C012963C91129731111CC013964D913E
:102EF0005C9114974C1B5D0B483C510598F48091F4
:102F000011028F70806180931102E85EFD4F808115
:102F10008F70806180838CE092E00E94E9080E94BB
:102F2000271703C001968770BDCFDF91CF911F9106
:102F30000F910895CF93DF93EC010E948327BE0188
:102F40000E9452220E942914DF91CF910895A1E19D
:102F5000B0E0EDEAF7E10C94872A8C0185E0F801F6
:102F6000DE011D9601900D928A95E1F7F801E2804D
:102F700090910C0260910D0240910F02509110024D
:102F80004115510531F06F3F31F481E09F3F19F455
:102F900003C081E001C080E0F82FF1709F2E80FD1A
:102FA0001BC1F80130812181C380D4808CE0A82E20
:102FB00082E0B82EF0900E02F601E41BF50BFF2024
:102FC00009F4C7C080911102E83CF10508F092C0F5
:102FD000482F407F09F051C0621311C093130FC0F6
:102FE000FE2CE1100CC08F70806180931102C5012E
:102FF0000E94E90880911102F80185832AC1C11459
:10300000D10431F02F3F31F481E03F3F19F403C088
:1030100081E001C080E080FD03C081E08E2502C018
:1030200080E090E0F82FF170FF2E80FF1CC08091AF
:1030300043024091120256E0841709F4E8C090E080
:10304000589FF001599FF00D1124ED5EFD4F6181F5
:10305000261306C06081631303C06281E61203C0B9
:1030600001968770E9CFFE2CEE2009F4F2C0809122
:10307000110281608093110249C0621306C093134C
:1030800004C0E11002C0F80186C0C8010E943E28B9
:10309000882351F1EE2041F120911102822F829577
:1030A0008F7090E0029774F080910C0290910D0265
:1030B00098878F831986DB86CA862C87CE01079670
:1030C0000E94E90886E0F801ACE0B2E001900D92C0
:1030D0008A95E1F70E9431170AC06217C9F0C8014A
:1030E0000E943E2881111EC0C8010E94E908FF24E9
:1030F000F394AFC0482F407F81F78CE092E00E94AC
:10310000E90886E0F50111928A95E9F7F12CA1C052
:103110009313E5CFE110E3CFF8018583C8010E9446
:10312000E90854C0EE2001F320911102822F82950C
:103130008F7090E0029734F280910C0290910D0212
:103140009A8389831B82DD82CC822E83CE010196F5
:10315000B7CFE83CF105D0F5FE2CEE2029F2621342
:1031600027C0931325C02091110220FD18C0822F83
:1031700082958F70482F50E04115510581F0F8017C
:1031800025834F30510541F08F5F982F9295907FA6
:10319000822F8F70892B8583C8010E94E90886E001
:1031A000F801ACE0B2E001900D928A95E1F751C0D0
:1031B000C8010E943E28811185CF80911102816053
:1031C00080931102C8010E94E90843C086E0F5011E
:1031D00011928A95E9F73DC0EE2009F485CFC80128
:1031E0000E943E28F82E882309F47ECF86E0F8015D
:1031F000ACE0B2E001900D928A95E1F780910C026B
:1032000090910D020E949A170E94311722C03D87AB
:103210002E878D859E850E949A17292F22952F70C3
:10322000223028F49F7039F0811105C00BC0243082
:1032300028F49F7049F4805E883020F0C8010E9415
:10324000E9089F2CF92C05C0F8019581907F99F72A
:10325000F9CF8F2D6196EBE00C94A32A80919D020B
:10326000982F9670963011F4886001C0877F0E9475
:103270001B280895AAE2B0E0E0E4F9E10C948F2A5B
:10328000E5E9F2E08091F100819342E0ED39F40745
:10329000C9F780919602833009F463C030F481301D
:1032A00071F0823009F49DC0B4C08A3009F489C03D
:1032B0008B3009F46EC0893009F0ABC020C080911A
:1032C0009502813A09F0A5C08091E800877F80933C
:1032D000E8008091990290919A02892B21F460E292
:1032E00081E792E003C060E080E090E070E00E943F
:1032F0009F1F8091E8008B778093E8008AC08091BF
:103300009502813209F085C08091990290919A02CC
:10331000009719F0029709F07CC08091E800877F40
:103320008093E8008091E80082FD05C080919302BF
:103330008111F8CF6EC02091F3008091F20090E0EF
:10334000922B029731F48091F100813011F0863098
:1033500021F48091F100809370028091E8008B77D6
:1033600054C080919502813A09F053C0809199022E
:1033700090919A02892B09F04CC08091E800877FD8
:103380008093E8008091E80080FFFCCF80910C01E1
:1033900037C0809195028132E1F580919902909138
:1033A0009A02892BB1F58091E800877F8093E8002D
:1033B0000E944B1F8091970280930C010E945E280F
:1033C00028C080919502813221F58091E800877FA5
:1033D0008093E8000E944B1F8091980280936F02B7
:1033E00018C080919502813AA1F48091E800877F0E
:1033F0008093E8008091E80080FFFCCF80916F020D
:103400008093F1008091E8008E778093E8000E941D
:103410004B1F8091E80083FFE5C180919502909158
:103420009602492F50E04A30510508F0DBC1FA01FD
:10343000EB58FF4F0C94732A803821F0823809F042
:10344000D1C108C08091910290919202992389F094
:1034500082600FC0809199028F70873008F0C2C1DE
:103460008093E9008091EB0085FB882780F910921A
:10347000E9009091E800977F9093E8008093F10035
:103480001092F10071C1282F2D7F09F0ABC1882364
:1034900019F0823061F0A6C180919702813009F065
:1034A000A1C1933009F080E0809392022EC08091F8
:1034B000970281112AC0809199028F702FEF280FF7
:1034C000263008F08FC18093E9002091EB0020FFA7
:1034D0001CC0933021F48091EB00806214C0909165
:1034E000EB0090619093EB0021E030E0A90102C075
:1034F000440F551F8A95E2F74093EA001092EA00C4
:103500008091EB0088608093EB001092E90080913D
:10351000E800877F8093E8000E944B1F63C1811100
:1035200061C1109197021F778091E3008078812B11
:103530008093E3008091E800877F8093E8000E94F9
:103540004B1F8091E80080FFFCCF8091E3008068F2
:103550008093E300111102C082E001C083E08093F8
:10356000930240C18058823008F03CC120919702FC
:10357000309198022C3D53E0350779F583E08A833A
:103580008AE289834FB7F894DE01139620E03EE08B
:1035900051E2E32FF0E050935700E49120FF03C085
:1035A000E295EF703F5FEF708E2F90E0EA3010F001
:1035B000C79601C0C0968D939D932F5F243149F724
:1035C0004FBF8091E800877F8093E8006AE270E057
:1035D000CE0101960E949F1FB5C0809199029091E3
:1035E0009A02432F552743305105A9F068F4413022
:1035F000510509F406C14230510509F0F3C08BE7CB
:1036000090E0E9E0F4E04BC04132510529F142324B
:10361000510589F1E7C0C901992781309105A1F0D1
:1036200058F0029709F0DEC0E6E9F4E0E4918E2F4D
:1036300090E0E6E9F4E030C0E4EEF4E0E4918E2FAF
:1036400090E0E4EEF4E028C0E0EDF4E0E4918E2FA9
:1036500090E0E0EDF4E020C08430910508F0C2C0B5
:10366000880F991FFC01EC59FE4F0190F081E02D6D
:1036700089E090E014C08430910508F0B3C0FC01EB
:10368000EE0FFF1FE45AFE4F0190F081E02DDC01A8
:10369000A85ABE4F8C9190E0009709F4A3C02091E6
:1036A000E800277F2093E80020919B0230919C0244
:1036B0008217930708F49C0140E02115310589F138
:1036C00080919302882309F43DC08530D9F180911F
:1036D000E80083FD37C08091E80082FD2FC0809113
:1036E000E80080FFEACF4091F3008091F20090E083
:1036F000942B2115310559F08830910540F44491FF
:103700004093F1003196215031090196F2CF41E00A
:10371000089709F040E08091E8008E778093E800F8
:10372000CCCF4111CDCF0AC080919302882351F0B4
:10373000853041F08091E80083FD04C08091E8006D
:1037400082FFF2CF8091E8008B778093E8004AC037
:10375000803809F047C08091E800877F8093E800B7
:10376000809194028093F1008091E8008E77D2CE10
:10377000811138C080919702909198029927029701
:103780008CF58091E800877F8093E8001091970284
:10379000109394020E944B1F111106C08091E30008
:1037A00087FD02C081E001C084E08093930242E083
:1037B00061EC81E00E946A1F42E261EC84E00E94B9
:1037C0006A1F42E261EC82E00E946A1F42E260EC02
:1037D00083E00E946A1F42E261EC85E00E946A1F5A
:1037E000809193028091E80083FF10C08091E800EF
:1037F000877F8093E8008091EB0080628093EB00EC
:1038000005C082E190E0E4E8F4E049CFAA96E3E065
:103810000C94AB2A1F920F920FB60F9211242F9384
:103820003F934F935F936F937F938F939F93AF9348
:10383000BF93CF93DF93EF93FF93C091E900CF70D5
:103840008091EC00D82FD17080FDD0E81092E90073
:103850008091F000877F8093F00078940E943A195D
:103860001092E9008091F00088608093F000CD2BE9
:10387000CF70C093E900FF91EF91DF91CF91BF919D
:10388000AF919F918F917F916F915F914F913F91F8
:103890002F910F900FBE0F901F901895E8EDF0E05C
:1038A00080818E7F80831092E2001092DA00109265
:1038B000E100A0EEB0E08C9181608C9380818F77E5
:1038C000808319BCA7EDB0E08C918E7F8C938081B2
:1038D0008F7E808310926E020895A0E0B0E0E3E74F
:1038E000FCE10C948A2AC8EDD0E088818F7E888321
:1038F000E7EDF0E080818160808384E082BF81E039
:1039000080936E0288818E7F888302EE10E0F8013A
:1039100010821092DA0081EEC82ED12CF6011082AE
:1039200088818F77888388818068888388818F7D6C
:10393000888319BC10929302109294021092920202
:103940001092910290EEE92EF12CF70180818B7F8D
:10395000808388818160888342E060E080E00E940B
:103960006A1FF60180818E7F8083F80180818160EB
:103970008083808188608083F70180818E7F80834F
:10398000888180618883CDB7DEB7E8E00C94A62AF1
:103990001F920F920FB60F9211242F933F934F93C4
:1039A0005F936F937F938F939F93AF93BF93EF93A7
:1039B000FF938091E10082FF49C08091E20082FF85
:1039C00045C08091E1008B7F8093E10020916D02E2
:1039D0002F5F822F62E30E94532A992319F02093CC
:1039E0006D0234C010926D0280916C02882371F1D7
:1039F00080919302843041F58091E9008F7020918D
:103A0000EC00922F917020FD90E8892B95E0909327
:103A1000E9009091EB0090FF14C09091EE0097FFA9
:103A200010C09091E80095FF03C01092F100F9CF0B
:103A30009091E80090FF05C09091E8009E779093E8
:103A4000E8008F708093E90010926C028091DA0098
:103A500080FF32C08091D80080FF2EC08091DA00B4
:103A60008E7F8093DA008091D90080FF1CC080E1B6
:103A700089BD82E189BD09B400FEFDCF81E080935C
:103A8000930285EF93E00E94940780916E0281116A
:103A900013C00E944E1C0E946D1C8091E200846045
:103AA0008093E20009C019BC1092930289EF93E061
:103AB0000E94940710926E028091E10080FF1BC06B
:103AC0008091E20080FF17C08091E2008E7F80939A
:103AD000E2008091E20080618093E2008091D80052
:103AE00080628093D80019BC85E0809393028DEFAB
:103AF00093E00E9494078091E10084FF34C080919C
:103B0000E20084FF30C080E189BD82E189BD09B453
:103B100000FEFDCF8091D8008F7D8093D8008091EA
:103B2000E1008F7E8093E1008091E2008F7E8093A0
:103B3000E2008091E20081608093E2008091940233
:103B4000882311F084E007C08091E30087FD02C064
:103B500081E001C083E08093930281E094E00E94C1
:103B60009407809193028091E10083FF2BC08091A4
:103B7000E20083FF27C08091E100877F8093E1000E
:103B800082E080939302109294028091E1008E7FF4
:103B90008093E1008091E2008E7F8093E20080912B
:103BA000E20080618093E20042E060E080E00E94F9
:103BB0006A1F8091F00088608093F00085E094E0B7
:103BC0000E949407FF91EF91BF91AF919F918F91C8
:103BD0007F916F915F914F913F912F910F900FBE09
:103BE0000F901F9018952091E4003091E50095E624
:103BF0004091EC00842F817040FF23C08091E80049
:103C000080FD1DC080919302882399F0853099F042
:103C10008091EB0085FD11C04091E4005091E500DA
:103C20002417350729F3915011F09A01E1CF84E070
:103C3000089582E0089583E0089581E0089580E08A
:103C400008954091E80042FFDDCF0895EF92FF9282
:103C50000F931F93CF93DF937C018B010E94F31D81
:103C6000811119C0E70101151105A1F08091E8004B
:103C700085FD0AC08091E8008E778093E8000E945D
:103C8000F31D882381F307C089918093F1000150CF
:103C90001109E9CF80E0CDB7DEB7E6E00C94A82AA1
:103CA00008958091700208959FB7F89410926C0265
:103CB0009FBF90919302943009F057C09091E90012
:103CC0009F703091EC00232F217030FD20E8922B63
:103CD00025E02093E9002091EB0020FF43C02091D4
:103CE000EE0027FF3FC02091B702222321F0209150
:103CF000E80025FF37C01092B70226E03091E800B7
:103D000035FD15C030919302343061F53091EB00F0
:103D100035FD28C0215021F481E08093B70222C0F4
:103D2000EFE9FFE03197F1F700C00000E7CF8093A3
:103D3000F1008091E80085FD0AC08091E80080FFD5
:103D4000FCCF8091E8008E778093E80006C08FB7A3
:103D5000F89421E020936C028FBF9F709093E9004C
:103D600080E008959F709093E9008FEF089580930D
:103D7000B4027093B6026093B502809193028430CE
:103D8000F9F48093E9008FEF9091E800815095FD60
:103D900006C095ED9A95F1F700008111F5CF80915D
:103DA000E80085FF0DC040E050E063E070E084EB88
:103DB00092E00E94261E8091E8008E778093E800B2
:103DC0000895BC0184E00E94B71E0895BC0183E001
:103DD0000E94B71E089524E02093E9002FEF309150
:103DE000E800215035FD06C035ED3A95F1F70000A9
:103DF0002111F5CF2091E80025FF0BC040E050E0F5
:103E000066E070E00E94261E8091E8008E77809325
:103E1000E8000895CF93DF9320910C01222339F01D
:103E20002091B20227FF03C060E224E002C068E0F4
:103E300021E02093E9002FEF3091E800215035FD7B
:103E400006C035ED3A95F1F700002111F5CF20912C
:103E5000E80025FF1DC0EC0180910C01811105C017
:103E600040E050E068E070E003C070E040E050E007
:103E7000CE010E94261E8091E8008E778093E80094
:103E800080E2FE01A1E7B2E001900D928A95E1F790
:103E9000DF91CF9108958091950287FF11C08091A5
:103EA000E80082FD05C0809193028111F8CF11C016
:103EB0008091E8008B770BC080919302882349F0B2
:103EC0008091E80080FFF8CF8091E8008E778093A2
:103ED000E8000895982F973068F59093E9009817B7
:103EE00039F07091EC002091ED005091F00003C08A
:103EF000242F762F50E021FD02C09F5FECCF309140
:103F0000EB003E7F3093EB003091ED003D7F30932E
:103F1000ED003091EB0031603093EB007093EC00DA
:103F20002093ED005093F0002091EE0027FDE5CFA7
:103F300080E008958F708093E90081E008952091DA
:103F40009B0230919C022617370748F061157105D6
:103F500039F42091E8002E772093E80001C0B901E0
:103F6000FC0120E06115710579F1809193028823AD
:103F7000F1F18530F1F18091E80083FD3CC0809142
:103F8000E80082FD2EC08091E80080FFEBCF2091F9
:103F9000F3008091F20090E0922B6115710551F0D1
:103FA0008830910538F421912093F1006150710916
:103FB0000196F3CF21E0089709F020E08091E80016
:103FC0008E778093E800CECF2111CFCF0AC08091A9
:103FD0009302882361F0853061F08091E80083FDD1
:103FE0000AC08091E80082FFF2CF80E0089582E06D
:103FF000089583E0089581E0089581E08093E000D2
:1040000080E28093D8001092C9008FE19EE401976E
:10401000F1F700C0000087E090EBDC018093E40240
:104020009093E502A093E602B093E7029CE088E15A
:104030000FB6F894A895809360000FBE909360002F
:10404000FFCF78941F920F920FB60F9211248F9387
:104050009F93AF93BF938091AE029091AF02A091D6
:10406000B002B091B1020196A11DB11D8093AE02C4
:104070009093AF02A093B002B093B102BF91AF9101
:104080009F918F910F900FBE0F901F9018959C01DC
:104090004FB7F8948091AE029091AF02A091B00218
:1040A000B091B1024FBF821B930B08952FB7F894C4
:1040B0006091AE027091AF028091B0029091B10216
:1040C0002FBF08952FB7F8948091AE029091AF0260
:1040D000A091B002B091B1022FBF08951F920F922C
:1040E0000FB60F9211248F939F93AF93BF9380913C
:1040F000AD02811113C08091AE029091AF02A091E8
:10410000B002B091B1024196A11DB11D8093AE02E3
:104110009093AF02A093B002B093B102BF91AF9160
:104120009F918F910F900FBE0F901F901895209127
:104130000C01222351F12091B20227FF26C0262F25
:104140002695269526952E3178F4FC01E20FF11D77
:10415000677081E090E001C0880F6A95EAF780956A
:1041600092818923828308958091AC0280FF17C0D9
:104170001F926F938AE798E09F938F930E942D0878
:104180000F900F900F900F900895FC0106962281DA
:10419000621301C012823196E817F907C1F708953A
:1041A00020910C01222349F12091B20227FF25C062
:1041B000262F2695269526952E3170F4FC01E20FC8
:1041C000F11D677081E090E001C0880F6A95EAF701
:1041D0009281892B828308958091AC0280FF25C053
:1041E0001F926F938CE598E09F938F930E942D0808
:1041F0000F900F900F900F900895FC0132962FEFC3
:1042000030E04191641789F02F3F19F4411101C04A
:10421000232F3F5F3630A9F72F3F39F0FC01E20F23
:10422000F11D27FDFA956283089508952091AA0251
:104230003091AB022817390771F09093AB0280934D
:10424000AA02E091A802F091A902309721F000841F
:10425000F185E02D099508952091A6023091A702DD
:104260002817390771F09093A7028093A602E09176
:10427000A802F091A902309721F00680F781E02D85
:1042800009950895E091A802F091A902309729F0CC
:104290000190F081E02D0995089580E008950F9335
:1042A0001F93CF93DF93C42FD22FFC0182818823E9
:1042B000B1F04093A5020E9462209093A4028093E3
:1042C000A30280E28C0F883008F04DC0C77081E0F7
:1042D00001C0880FCA95EAF70E947B2844C08091EC
:1042E000A502481330C08091A3029091A4020E94BD
:1042F0004720883C910538F510E21D0FCD17B9F025
:1043000080E28C0F883040F4C77081E001C0880FD4
:10431000CA95EAF70E947428183010F581E09D2FA5
:10432000977001C0880F9A95EAF70E947B28802F2A
:104330000E94F2291830B8F4D77081E001C0880FCC
:10434000DA95EAF70AC080E28C0F883060F4C77013
:1043500081E001C0880FCA95EAF70E94742803C063
:10436000802F0E94F229DF91CF911F910F91089524
:10437000CF93DF93CFE7D2E060E0CE010E941F2A07
:104380002196C11584E0D807B9F7DF91CF91089540
:104390001F93CF93DF93962F8430E8F46530D8F4E1
:1043A0004F30C8F4632F122FC42FD0E0CC0FDD1F85
:1043B0002EE1929FC00DD11D112496E9899FC00D59
:1043C000D11D1124CE0187960E941F2A612FCE0194
:1043D00088960E941F2ADF91CF911F910895A0E037
:1043E000B0E0E5EFF1E20C94882AA12CE12CF12C4D
:1043F000B12C00E010E0C0E0D0E06701C00ED11E9B
:10440000FE01EE0FFF1FEC0DFD1DEC5FF94F259136
:1044100034914C2F6B2D8A2D0E94C8212196CF30CC
:10442000D10571F7025E1F4FB39485E0B812E3CF58
:1044300086E9E80EF11CA39484E0A812D9CFCDB789
:10444000DEB7EAE00C94A42A0F931F93CF93DF9377
:10445000843008F56530F8F44F30E8F4C42FD0E02C
:10446000CC0FDD1F2EE1629FC00DD11D112436E956
:10447000839FC00DD11D1124CE0187960E94112A61
:1044800090E0182F0027CE0188960E94112A9801EB
:10449000282BC90102C080E090E0DF91CF911F91ED
:1044A0000F910895843048F4753038F46F3028F453
:1044B000462F672F0E942422089580E090E00895FF
:1044C000CF93C82F1F928F938FEF95E09F938F9379
:1044D0000E942D0881E001C0880FCA95EAF70E946A
:1044E00039280E945E280F900F900F900F90CF9167
:1044F0000895883220F58E3108F068C08B3091F134
:10450000C0F4873009F0BEC081E08093120184E1DD
:10451000809311018AE0809310018EE180930F0156
:1045200088E080930E0188E280930D018DEC95E088
:10453000C6C0833109F443C0843169F1A3C08F340C
:1045400009F49EC028F4893231F1883359F09AC0B9
:10455000813531F008F4D4C0823509F4A7C092C087
:104560008FEFA5C08FEE95E00E9494070E949623DE
:104570001F9281E08F931F9288E08F9388EE94E0E2
:104580009F938F930E942D080F900F900F900F9084
:104590000F900F9096C08CEE95E00E94940780914A
:1045A000A202882309F4AAC01092A2021092A102CA
:1045B0001092A00210929F0210929E02B1C08EED46
:1045C00095E00E9494070E9496237BC08D518093B2
:1045D000A202833031F170F48130D1F0823009F0E1
:1045E0003FC081E191E09093A1028093A00289E70E
:1045F00091E01FC0853059F108F1863089F58DE0D2
:1046000091E09093A1028093A00284EB91E011C00D
:1046100082E191E09093A1028093A00280E791E073
:1046200008C080E191E09093A1028093A00285E808
:1046300091E090939F0280939E0218C08FE091E0DA
:104640009093A1028093A00282E991E0F2CF8EE0E4
:1046500091E09093A1028093A00281EA91E0E9CFDA
:104660001092A2028BED95E00E9494078091A20225
:10467000882309F455C01F928F9387ED95E00DC0F4
:104680008AE015C08AEC95E01AC097FF47C01082F7
:1046900080811F928F9384EC95E09F938F930E946B
:1046A0002D080F900F900F900F900BC081E0E091BC
:1046B000A002F091A102309729F581EC95E00E94CB
:1046C00094072091A202222359F180919E02909199
:1046D0009F02009711F48CE691E09F938F931F92B5
:1046E0002F9388EB95E09F938F930E942D080F9056
:1046F0000F900F900F900F900F9016C080E00895CC
:1047000086EFD5CF2081082E000C990B820F911DCA
:104710008F3F910509F00CF4B8CF8FEF8083B8CFAD
:1047200084EB95E00E94940781E0089580910D014B
:104730001F928F9380910E011F928F9380910F0192
:104740001F928F93809110011F928F93809111017E
:104750001F928F93809112011F928F9389E19EE0A7
:104760009F938F930E942D088DB79EB70E960FB61C
:10477000F8949EBF0FBE8DBF0895A0E0B0E0E3ECBB
:10478000F3E20C948B2A482F50E0FA013597EF336F
:10479000F10508F04EC1E158FF4F0C94732A83E0F5
:1047A00090E00E94112A1F928F9380E19AE09F93DC
:1047B0008F930E942D0882E090E00E94112A83FBD3
:1047C000992790F91F929F9382FB992790F91F9246
:1047D0009F9381FB992790F91F929F93982F917037
:1047E0001F929F931F928F9387EC99E09F938F93D3
:1047F0000E942D080E94C31587FB222720F91F92D3
:104800002F9386FB222720F91F922F9385FB2227C7
:1048100020F91F922F9384FB222720F91F922F93B8
:1048200083FB222720F91F922F9382FB222720F956
:104830001F922F9391FB222720F91F922F93292F4C
:1048400021701F922F9381FB222720F91F922F9313
:10485000282F21701F922F939F938F9382EE98E0C1
:104860009F938F930E942D088DB79EB788960FB6A1
:10487000F8949EBF0FBE8DBF06C088E09EE00E94E8
:1048800094070E94D415C1E0D9C08DE29AE0C6C059
:104890008091AC02817F8E7F8093AC0282EE9BE0A0
:1048A0000E94940784E09EE00E94940781E0809338
:1048B000C502E9CF88EE9DE00E9494070E945E2821
:1048C0009FEF24E38CE0915020408040E1F700C04E
:1048D00000000E94FD1FD7CF8091AC02C82FC09569
:1048E000C170C0FB80F98093AC02CC2319F08CED31
:1048F0009DE08FC08FEC9DE00E9494078091AC02F8
:10490000897F877F8093AC02BECF9091AC0291FBF0
:10491000CC27C0F981E0C827892FC0FB81F980939B
:10492000AC02CC2319F082EC9DE027C084EB9DE023
:1049300075C09091AC0292FBCC27C0F981E0C827EA
:10494000892FC0FB82F98093AC02CC2319F085EA51
:104950009DE013C085E99DE061C09091AC0293FB9E
:10496000CC27C0F981E0C827892FC0FB83F9809349
:10497000AC02CC2351F089E89DE00E94940780911D
:10498000AC0281608093AC0259C08CE79DE046C0C8
:1049900089E09CE043C00E945620062FF72EE82EA7
:1049A000D92EC091B202C7FBCC27C0F910916F027B
:1049B000D0910C010E944221DF92EF92FF920F935F
:1049C0001F92CF931F921F931F92DF931F928F937B
:1049D00081EE9CE09F938F930E942D088DB79EB728
:1049E0000E960FB6F8949EBF0FBE8DBF4CCF0E949F
:1049F0005E289091B20297FBCC27C0F981E0C827CE
:104A0000892FC0FB87F98093B202CC2329F082E77B
:104A10009DE00E94940712C087E69DE00E949407E3
:104A200032CF895303C08D5101C080E00E946022C3
:104A30002ACF85E69DE00E949407C0E08C2FCDB779
:104A4000DEB7E7E00C94A72A86E290E00E941F2AD6
:104A50000895CF93C82F811102C06FEF01C062E2A9
:104A600083E290E00E941F2AC11102C06FEF01C0D3
:104A700068E084E290E00E941F2AC11102C06FEF3B
:104A800001C062E185E290E00E941F2ACF91089563
:104A900080E00E94292560E070E0CB010E9424257F
:104AA0000E94EF210E94B82181E00E9429250895EB
:104AB00083E290E00E94112A823281F484E290E045
:104AC0000E94112A883051F485E290E00E94112A58
:104AD00091E0823109F090E0892F01C080E081707F
:104AE00008958091AC0283FF7EC08FEB98E00E9416
:104AF00094078091C0021F928F938AEB98E09F9356
:104B00008F930E942D0888EB98E00E949407809173
:104B1000C102282F082E000C330B3F938F9385EB97
:104B200098E09F938F930E942D0883EB98E00E945A
:104B300094078091C202282F082E000C330B3F935C
:104B40008F9380EB98E09F938F930E942D088EEABD
:104B500098E00E9494078091C302282F082E000C31
:104B6000330B3F938F938BEA98E09F938F930E9430
:104B70002D0889EA98E00E9494078091C402282FAA
:104B8000082E000C330B3F938F9386EA98E09F9397
:104B90008F930E942D0883EA98E00E9494078091E9
:104BA000BA021F928F9380EA98E09F938F930E949E
:104BB0002D088EE998E00E9494078091B9021F9217
:104BC0008F938BE998E09F938F930E942D0888E93B
:104BD00098E00E9494078DB79EB74C960FB6F89454
:104BE0009EBF0FBE8DBF0E9462202091C102211185
:104BF00004C02091C202222321F09093BE02809330
:104C0000BD022091C302211104C02091C4022223BD
:104C100021F09093BC028093BB02E091A802F09136
:104C2000A902309749F082E08093BF020480F581A9
:104C3000E02D8FEB92E009950895803F39F4909133
:104C4000C20297FF35C01092C20259C0813F29F4B9
:104C50009091C2021916BCF32BC09091C102823F01
:104C600029F497FF25C01092C10249C0833F19F46F
:104C70001916CCF31DC09091C302893F29F419166F
:104C8000BCF41092C3023BC08A3F19F497FF10C0D6
:104C9000F8CF8B3F39F49091C40297FF09C010926E
:104CA000C4022DC08C3F21F49091C4021916BCF3AC
:104CB0009CE0980F953080F421E030E0A90102C01B
:104CC000440F551F9A95E2F7CA0180959091C00252
:104CD00089238093C00213C08D3F21F48091B902D3
:104CE0008E7F0BC08E3F21F48091B9028D7F05C06D
:104CF0008F3F29F48091B9028B7F8093B902809114
:104D0000C102811106C08091C202811102C01092BD
:104D1000BA028091C302811106C08091C402811140
:104D200002C01092B80208958091B90280FF08C0B5
:104D300060910E0170E0759567957595679521C036
:104D400081FF06C060910E0170E07595679519C0EE
:104D500082FF04C060910E0170E010C09091B80213
:104D6000992399F060910D019617A0F780910E019B
:104D7000899FC001112470E00E945F2A603871058C
:104D800040F46115710519F406C061E070E0862FEA
:104D900008958FE7089581E008958091B90280FF1A
:104DA00006C06091100170E0660F771F26C081FF7A
:104DB00004C06091100184E005C082FF07C06091CB
:104DC000100188E0689FB001112417C09091BA02C9
:104DD0009923D1F060910F01961788F72091100167
:104DE00088E0289F90011124929FA001939F500D6D
:104DF000112470E0CA010E945F2A6038710540F4F6
:104E00006115710519F406C068E070E0862F0895F9
:104E10008FE7089581E00895803F21F40E94CD2618
:104E2000819504C0813F29F40E94CD268093C2025F
:104E30000895823F21F40E94CD26819504C0833FCE
:104E400029F40E94CD268093C1020895893F19F468
:104E50000E94942605C08A3F31F40E9494268195D1
:104E60008093C30208958B3F21F40E94942681957C
:104E700004C08C3F29F40E9494268093C4020895B4
:104E80009CE0980F953078F421E030E0A90102C051
:104E9000440F551F9A95E2F7CA019091C002892BE1
:104EA0008093C00208958D3F21F48091B902816002
:104EB0000BC08E3F21F48091B902826005C08F3F04
:104EC00029F48091B90284608093B902089580E04A
:104ED00090E00E942C2180E090E00E941621109228
:104EE00065020E944C16EFEBF2E086E0DF011D92B6
:104EF0008A95E9F71092BA021092B8021092B9029C
:104F00000E9471250895CF92DF92FF920F931F9315
:104F1000CF93DF936C0100919D0280916802082B72
:104F2000C7E0D0E010E0C8010C2E02C0959587952F
:104F30000A94E2F780FD04C02197A8F7F12C09C07C
:104F4000FC2EB6018C2F0E9452220E942914019738
:104F500099F38F2DDF91CF911F910F91FF90DF90EB
:104F6000CF900895292F953078F58F3068F590E02F
:104F70003FE0239F800D911D1124682F677023E06F
:104F8000969587952A95E1F7FC01EE0FFF1FE80F34
:104F9000F91FEA53FD4F40E050E080E0219130E0FE
:104FA000062E02C0369527950A94E2F72170332722
:104FB000042E01C0220F0A94EAF7822B4F5F5F4F45
:104FC0004330510559F7089580E00895292F953011
:104FD00088F58F3078F590E03FE0239F800D911D9C
:104FE0001124282F277051E001C0550F2A95EAF7A8
:104FF00023E0969587952A95E1F7FC01EE0FFF1FB8
:10500000E80FF91FEA53FD4F20E030E070E04081E7
:10501000CB01022E02C0969587950A94E2F7817023
:10502000819584278523842781932F5F3F4F2330E9
:10503000310569F7089580939D020E9467270895BE
:1050400021E030E001C0220F8A95EAF72095809197
:105050009D0282230E941B28089521E030E001C0B8
:10506000220F8A95EAF780919D02822B0E941B28CD
:105070000895809368020E9467270895FC0180814B
:1050800091810E949A1792959F70963079F010F452
:10509000925001C09A50923068F4803F69F018F441
:1050A000883E40F409C0843F29F406C0883E20F0C1
:1050B000813F11F080E0089581E00895109266022A
:1050C00080910C01882331F08091B20287FF02C0E9
:1050D0008EE101C086E0EEEEF1E0DF011D928A95DF
:1050E000E9F70E9467270895882321F00E9445165A
:1050F0000E944C160895882339F090916602892BFE
:10510000809366020E944C160895882309F45FC0BC
:10511000823869F40E94422181FF59C069E38CEE14
:1051200091E00E94D0200E944C1669E30EC08338A3
:1051300099F40E94422180FF4AC063E58CEE91E021
:105140000E94D0200E944C1663E58CEE91E00E94F4
:1051500097200E944C160895843869F40E944221D9
:1051600082FF35C067E48CEE91E00E94D0200E945F
:105170004C1667E4EACF9CEF980F913A10F4682F31
:10518000E4CF90E2980F983050F4877091E001C01E
:10519000990F8A95EAF7892F0E944516DACF9BE589
:1051A000980F933028F480E090E00E942C2108951D
:1051B00098E5980F973128F480E090E00E9416213E
:1051C0000895803F20F00E941D260E9471250895B9
:1051D000CF93882309F404C1C82F8238B1F40E9408
:1051E000422181FDFDC069E38CEE91E00E94D02058
:1051F0000E944C162FEF81EE94E0215080409040A9
:10520000E1F700C0000069E317C08338E1F40E94B1
:10521000422180FDE5C063E58CEE91E00E94D02044
:105220000E944C162FEF81EE94E021508040904078
:10523000E1F700C0000063E58CEE91E00E9497204A
:105240000E944C16CDC08438B1F40E94422182FDE8
:10525000C7C067E48CEE91E00E94D0200E944C16FB
:105260002FEF81EE94E0215080409040E1F700C0A4
:10527000000067E4E1CF8CEF8C0F813AF0F580916C
:10528000C502813081F030F08230A1F58C2F0E9470
:105290007922A6C080916602823209F069C08C2F03
:1052A0000E94BD2363C0809166028232C1F3C43183
:1052B000C9F058F4CB3069F0C031B9F482E0809382
:1052C000C50288E30E9479224CC0C93259F0C83324
:1052D00061F482EE9BE00E94940788E99EE00E94C0
:1052E00094073FC01092C5023FC086E99EE00E942D
:1052F00094073AC01092C5023BC080E28C0F883000
:1053000068F4C77081E090E001C0880FCA95EAF7A1
:1053100090916602892B8093660292CFEBE5EC0FA9
:10532000E33040F4F0E0E95DFE4F808190E00E94C0
:105330002C2156C0E8E5EC0FE73150F4F0E0EE0F19
:10534000FF1FE65DFE4F808191810E94162148C0BB
:10535000C03F08F445C08C2F0E940C270E94712585
:105360003FC081E0817002C080E0FCCF811138C075
:1053700080910C018823E1F08091B20287FF18C070
:10538000EC2FE695E695E695F0E0E451FE4F82813C
:10539000282F30E04C2F477081E090E002C0880F4A
:1053A000991F4A95E2F782239323892B61F412C057
:1053B000EEEEF1E084EF91E02191C21721F08E171B
:1053C0009F07D1F707C06C2F8CEE91E00E949720C9
:1053D0000E944C166C2F8CEE91E00E94D02030CFB2
:1053E000CF9108951F93CF93DF93182F893319F02E
:1053F000C0E0D0E002C0C0E5D0E0812F0E94E828E4
:10540000209741F08FE99FE00197F1F700C000007D
:105410002197F6CF812F0E948528DF91CF911F9190
:105420000895F999FECF92BD81BDF89A992780B56C
:105430000895A8E1B0E042E050E00C94452A262F00
:10544000F999FECF92BD81BDF89A019700B402167A
:1054500039F01FBA20BD0FB6F894FA9AF99A0FBE28
:1054600008950396272F0E94202A0E941F2A252F85
:105470000E94202A242F0C94202A0196272F0E9474
:10548000202A0C941F2ADC01CB01FC01F999FECFE4
:1054900006C0F2BDE1BDF89A319600B40D924150BC
:1054A0005040B8F70895991B79E004C0991F9617EA
:1054B00008F0961B881F7A95C9F78095089597FB89
:1054C000072E16F4009407D077FD09D00E94B72A62
:1054D00007FC05D03EF4909581959F4F08957095F7
:1054E00061957F4F0895EE0FFF1F0590F491E02D19
:1054F00009946927962769277827872778270895A9
:105500002F923F924F925F926F927F928F929F92D3
:10551000AF92BF92CF92DF92EF92FF920F931F93C1
:10552000CF93DF93CDB7DEB7CA1BDB0B0FB6F89472
:10553000DEBF0FBECDBF09942A88398848885F84B2
:105540006E847D848C849B84AA84B984C884DF8023
:10555000EE80FD800C811B81AA81B981CE0FD11D07
:105560000FB6F894DEBF0FBECDBFED010895AA1BA4
:10557000BB1B51E107C0AA1FBB1FA617B70710F03E
:10558000A61BB70B881F991F5A95A9F78095909570
:10559000BC01CD010895FB01DC0104C08D91019097
:1055A000801921F441505040C8F7881B990B089589
:0455B000F894FFCF9D
:1055B400511E0A1FEB1EE61EE11E501E0128081E86
:1055C4000A14013031F0F1F4C695323393F6F767DB
:1055D40066363534979694818283E200E900EA00C6
:1055E400B500B600B700CD008301CC008A0192015A
:1055F40094012102230224022502260227022A0200
:10560400B300B4006F0070004022B622B5039303C8
:10561400DD02BB021B04340454046D043F3F3F000D
:105624006D6B5F64656C6179006D6B5F696E746549
:105634007276616C006D6B5F6D61785F7370656528
:1056440064006D6B5F74696D655F746F5F6D617825
:10565400006D6B5F776865656C5F6D61785F737013
:10566400656564006D6B5F776865656C5F74696D13
:0A567400655F746F5F6D61780000E0
:00000001FF
