:100000000C9473030C9490030C9490030C94C131E2
:100010000C9490030C9490030C9490030C94900314
:100020000C9490030C9490030C942F260C94EA24C7
:100030000C94BA280C9490030C9490030C949003A5
:100040000C9490030C9490030C9490030C949003E4
:100050000C9490030C946D280C9490030C949003D2
:100060000C9490030C9490030C9490030C949003C4
:100070000C9490030C9490030C9490030C949003B4
:100080000C9490030C9490030C9490030C949003A4
:100090000C9490030C9490030C9490030C94900394
:1000A0000C9490030C9490030C949003D60AD60AF7
:1000B000110B110B420B410C410C410C5E0BD20B8E
:1000C000E40BE40B4C124F126B1278127F128A125F
:1000D0008D12CC12F712A213A213021304130813E9
:1000E0002F13541357135A137F139022B7226B24E4
:1000F000B7226B24032326236B241C242C2400000A
:1001000000000000000000000000000000000000EF
:1001100000000000000000000000000000000000DF
:1001200000007E0F00D4FFFFFFC700000078000032
:100130000000000000002A2B280000000000000042
:1001400000000000000000000029000000002C1E3C
:100150003420212224342627252E362D3738271EF9
:100160001F202122232425263333362E37381F041F
:1001700005060708090A0B0C0D0E0F1011121314B7
:1001800015161718191A1B1C1D2F3130232D350475
:1001900005060708090A0B0C0D0E0F101112131497
:1001A00015161718191A1B1C1D2F3130354C00015C
:1001B0000101010101010101020202020202020227
:1001C00002030303030303030304040404040404F9
:1001D00005050505050606060606070707070708BD
:1001E000080808090909090A0A0A0B0B0B0C0C0C70
:1001F0000D0D0D0E0E0E0F0F0F101011111112120A
:1002000013131414151516161717181819191A1A86
:100210001B1B1C1D1D1E1E1F2020212222232424E7
:10022000252626272829292A2B2C2D2D2E2F303123
:100230003232333435363738393A3B3C3D3E3F4035
:100240004142434445464748494A4C4D4E4F505120
:100250005354555658595A5B5D5E5F6162646566DA
:1002600068696B6C6D6F7072737577787A7B7D7E61
:100270008082838587888A8C8E8F91939596989AB1
:100280009C9EA0A2A3A5A7A9ABADAFB1B3B5B7BAC9
:10029000BCBEC0C2C4C6C9CBCDCFD1D4D6D8DBDD9D
:1002A000DFE2E4E7E9EBEEF0F3F5F8FAFDFF050134
:1002B0000980A101850319012AB700150126B7009D
:1002C000950175108100C0050C0901A10185041973
:1002D000012AA002150126A002950175108100C017
:1002E0000660FF0961A1010962150026FF00952043
:1002F000750881020963150026FF00952075089195
:1003000002C005010906A101050719E029E715004A
:100310002501950875018102950175088101050780
:10032000190029FF150026FF0095067508810005B4
:10033000081901290595057501910295017503912B
:1003400001C00902BF00050100A0FA090400000174
:10035000030101000921110100012240000705816C
:100360000308000109040100020300000009211133
:100370000100012222000705820320000107050376
:1003800003200001090402000103000000092111FB
:1003900001000122320007058403200001080B033D
:1003A000020101000009040300000101000009240A
:1003B0000100010900010409040400020103000016
:1003C0000724010001410006240201010006240265
:1003D00002020009240301030102010009240302AF
:1003E0000401010100090506024000050000052581
:1003F00001010109058502400005000005250101F4
:10040000031201000200000008EDFEB5F401000136
:100410000200011C03620061006E0064006F006D49
:100420000069006E00650064006F006E00690000E6
:10043000000E033300610072006100680074000068
:1004400000040309043D5C435C455C485C4C5C5B18
:100450005C00003F5C445C4E5C4A5C585C515C4014
:100460005C495C505C535C575C475C425C01534B9D
:100470005C4F5C525C555C595C545C415C465C5A18
:100480005C5C5C565C4D5C3E5C3B5C0000000000CC
:100490000000000000AA00A9004F5C505C525C53B1
:1004A0005C545C765C0153515C585C575C555C74E1
:1004B0005C735C0151565C5D5C605C5A5C715C72A3
:1004C0005CA843645C5B5C595C695C6F5C705C66F7
:1004D0005C625C5E5C5C5C6B5C6E5C6A5C6C5C650C
:1004E0005C615C5F5C6D5C635C675C685C3F5C434B
:1004F0005C455C4A5C565C5A5C00003D5C495C5162
:100500005C535C485C475C415C425C4E5C525C55B1
:100510005C585C4D5C0153445C4B5C505C545C57D4
:100520005C4F5C465C4B5C595C5B5C5E5C4C5C3C71
:100530005C405C00000000000000000000AA00A970
:10054000004F5C505C525C555C535C745C015351D1
:100550005C585C595C545C725C735C0151565C572E
:100560005C655C5B5C695C715CA843645C5C5C5A68
:100570005C5D5C6B5C705C625C635C605C5E5C5F81
:100580005C6E5C6C5C6F5C675C635C615C6D5C6644
:100590005C685C6A5C01000100010001000100016F
:1005A0000000000100010001000100010001000144
:1005B0000001000100010001000100010001000133
:1005C0000001000100010001000100010001000123
:1005D0000001000100010001000100000000000016
:1005E0000000000000010001000100010001000105
:1005F00000010001000100010001000100010001F3
:1006000000010001000100010001000100010001E2
:1006100000010001000100010001000100010001D2
:1006200000010001000100010001000100010001C2
:1006300000010001000100010001000100000000B4
:100640005200000000000000000000000000000058
:10065000000000000000000000000000000000009A
:100660000000000000010000000000000000000089
:10067000000000000000000000000000000000007A
:1006800000000000000000000000000000C45CC387
:100690005C0000C85C000000000000815C010000FC
:1006A00000C75C000000000000825C01000000C682
:1006B0005C0000000000009C5C01000000C55C00C4
:1006C00000000000009D5CC25C0000CC5C000000EB
:1006D000000000C95CDE5CC45CCB5C000000000074
:1006E00000CA5CC35C0011241FBECFEFDAE0DEBF9E
:1006F000CDBF13E0A0E0B1E0EEEEF8E602C0059059
:100700000D92AC30B107D9F726E0ACE0B3E001C000
:100710001D92A93EB207E1F70E94020D0C947534B8
:100720000C9400000E94932D2FEF84E39CE0215055
:1007300080409040E1F700C000009AE088E10FB6E9
:10074000F894A895809360000FBE90936000FFCF4F
:100750008823B9F19CEF980F913A60F4E0E6F5E058
:100760009281891301C01282319645E0E636F40782
:10077000B9F714C090E2980F983098F4877021E090
:1007800030E0A90102C0440F551F8A95E2F7CA0163
:1007900080959091CA0589238093CA050E947D2A7D
:1007A00008959BE5980F933028F480E090E00E9434
:1007B00013290895885A873120F480E090E00E9440
:1007C000FD280895CF93882309F44FC0C82F8CEFDC
:1007D0008C0F813AF0F4E2E6F5E088E695E02191AD
:1007E000C21721F08E179F07D1F70DC0E0E6F5E0A4
:1007F0008281C81301C01282319685E0E636F8077F
:10080000B9F70E947D2A6C2F80E695E00E94E328CC
:1008100010C080E28C0F883078F4C77081E090E0DF
:1008200001C0880FCA95EAF79091CA05892B809379
:10083000CA050E947D2A19C0EBE5EC0FE33040F4B5
:10084000F0E0EE58FE4F808190E00E9413290DC029
:10085000C85AC73150F4EC2FF0E0EE0FFF1FEB58F1
:10086000FE4F808191810E94FD28CF910895A7E1DC
:10087000B0E0EDE3F4E00C94F1324B8B5C8B6D8BCC
:100880007E8B8F8B61111092C90586E09E01235FDC
:100890003F4FD901E82F1D92EA95E9F795E0FE0157
:1008A0007396D90101900D929A95E1F79C894E8932
:1008B0005F897B897D879E876F87598B488BF9017C
:1008C000DE01179601900D928A95E1F7CE01079609
:1008D0000E94802B81113EC086E0FE013796DE012A
:1008E000119601900D928A95E1F7FF81E8856A855E
:1008F0007B856115710531F0EF3F31F481E0FF3FF9
:1009000019F403C081E001C080E080FD23C0209184
:100910008F0530E0C9010196877099274091C00585
:1009200050E08417950779F1F983EA837D836C831E
:1009300096E0929FD001939FB00D1124A057BA4F1B
:10094000FE01319601900D929A95E1F780938F0503
:100950000E94B12A16E08091C00590918F058917F9
:10096000F9F0189FC001112480579A4F0E94802BE4
:100970008823B1F08091C00590E001968770992797
:100980008093C005E8CF0E94932D10928F0510929E
:10099000C005E9E8F5E086E0DF011D928A95E9F7F8
:1009A0006796E3E00C940D33A9E0B0E0EAEDF4E0E3
:1009B0000C94E532FC018081918123813481232BC9
:1009C00031F09F3F31F491E08F3F19F403C091E083
:1009D00001C090E090FDE1C77F0185E0DE01119646
:1009E00001900D928A95E1F7F701228189819A8120
:1009F000222349F00E94242B182F682F89819A8185
:100A00000E943B2D03C00E94072D182F69817A8117
:100A1000812F0E94B3298C01F7019281992309F457
:100A200038C7980122513F452031310508F0EEC00A
:100A30008FEF93E00E9485338111AFC7025147ECDD
:100A4000A42E42E0B42E002379F0A114F4E0BF06F6
:100A500009F4A3C7C5010E948533811101C001506B
:100A60002FEFA21AB20AEFCF1E821F8218861986B4
:100A7000662463943AE0532E85010F5F1F4FC50132
:100A80000E9485338E831F82882309F486C79FEFD7
:100A9000980F933060F48F836E8232E0A30EB11C06
:100AA000C8010E9485338887811102C076C758012A
:100AB0008E010A5F1F4FF80120812223E9F22130C5
:100AC00009F04CC08181813049F47801F2E0EF0EE9
:100AD000F11CF80182810E94B42D0AC0823051F4C9
:100AE0007801F2E0EF0EF11CF80182810E94E2032E
:100AF000870189C0833049F47801F2E0EF0EF11CE0
:100B0000F80182810E94A803F3CF843019F00F5FAF
:100B10001F4F79C0F80122810E5F1F4F80E090E0E7
:100B200030E0205331092A30310568F4589EA00185
:100B3000599E500D1124C901840F951F0F5F1F4F3F
:100B4000F8012081EDCF009709F45DC0EFE9FFE0E7
:100B50003197F1F700C000000197F5CFE22FF0E0E8
:100B6000E25DFE4F7490822F86958695869590E083
:100B7000FC01E25EFE4FE4902770F12C022E02C0D1
:100B8000F594E7940A94E2F7F1E0EF22FF24FC01E8
:100B9000E25FFE4FC490D12C022E02C0D594C794C0
:100BA0000A94E2F731E0C322DD24FC01E250FF4F5A
:100BB0008490912C02C0959487942A95E2F741E0A5
:100BC00084229924E114F10419F081EE0E94E203D9
:100BD000C114D10419F086EE0E94E203872D0E9411
:100BE000B42DC114D10419F086EE0E94A803E114BB
:100BF000F10419F081EE0E94A8038114910419F008
:100C00008CE20E94B42D0F5F1F4F55CF0031FFE5DE
:100C10001F0711F481E005C001312FE5120731F4FF
:100C200082E00E94822D0E940E1FB7C60E3AECE5AC
:100C30001E0708F068C10E39FCE51F0798F09923DC
:100C400009F4ABC60E5980910A0400FB87F9809322
:100C50000A040695077080910B04887F082B009387
:100C60000B049BC600392CE5120708F0ADC0033811
:100C70003CE5130770F0992309F48FC60958802FBB
:100C80008295807F009109040F70082B009309045E
:100C900084C601384CE5140708F06CC007375CE5E2
:100CA000150750F0992309F478C60757802F8F70E5
:100CB00000910904007FE9CF0F328CE5180708F492
:100CC00041C220910A04822F881F8827881F4091E3
:100CD0000B044770440F482B822F8F7721EDE22EB3
:100CE000E00EF12C992351F110910904912F9F707E
:100CF00015951595159515951F525CE0959F100D4E
:100D00001124100F212F2F774069E0916104F09199
:100D10006204082F63E070E081E694E00995F70132
:100D2000E758FC4FDF01A85BBF4F8C918F5F8C931E
:100D300080818F3F09F031C610832FC6F701E75835
:100D4000FC4F7F012081E85BFF4F908191509083A1
:100D5000911123C62F774068E0916104F0916204FD
:100D6000082F63E070E081E694E009958FEFF701CA
:100D7000808313C60138ECE51E0759F4992309F462
:100D80000CC620910904822F8F7009F406C6815F7A
:100D900013C00238FCE51F0709F0D4C1992309F4F8
:100DA000FCC520910904822F8F70482F50E04930F4
:100DB00051050CF0F2C58F5F982F9F70822F807FB6
:100DC000892B80930904E9C50C392CE5120708F03A
:100DD00058C002393CE5130788F0992309F4DDC5B2
:100DE00002598EE0089F002D1124802F8F770091EB
:100DF0000A040078082B00930A04CFC500394CE59B
:100E00001407A1F4992309F4C8C520910904822F7D
:100E100085958595859585958B3F0CF4BEC5815F3D
:100E2000982F9295907F822F8F70CACF01395CE501
:100E3000150709F087C1992309F4AFC5209109046A
:100E4000822F859585958595859586300CF0A5C56D
:100E500091E0980F9295907F95959595959595959C
:100E6000392F3295307F2F70232B209309041816C9
:100E70000CF093C597FF91C58295807F922F9F704C
:100E80009FCF0C398CE51807F9F4992309F485C52F
:100E900090910A04892F8F77282F30E02115310592
:100EA00009F47BC590788F3719F4892F856706C0C0
:100EB0002D30310534F08D508F77892B80930A04C3
:100EC0006CC590930A0469C50D39ECE51E0709F05D
:100ED00039C1992309F461C520910A04822F8F77C3
:100EE000482F50E04F37510509F457C54337510596
:100EF00034F4835F982F9F77822F8078DECF2F671F
:100F000020930A044AC5043BFCE51F0799F491119C
:100F10000FC040E090910A04991F9927991F809172
:100F20000B048770880F63E4892B0E94FB1E35C574
:100F30004FE7F0CF053B2CE5120708F07FC0003BE0
:100F40003CE5130779F4992309F427C590910A0425
:100F5000991F9927991F80910B048770880F40E093
:100F60006BE7E2CF013B4CE51407B8F50E3A5CE5C0
:100F7000150789F4992309F410C530910A04932FB9
:100F8000991F9927991F20910B04822F8770880F32
:100F9000892B815F15C00F3A8CE5180709F0D2C084
:100FA000992309F4FAC430910A04932F991F9927C1
:100FB000991F20910B04822F8770880F892B8F5FD8
:100FC000982F9F7080FB37F930930A049695822FF3
:100FD000887F892B80930B04E0C480910A042091C0
:100FE0000B04023BECE51E0769F4992311F04FE76F
:100FF00001C040E0881F8827881F2770220F61E406
:10100000822B93CF033BFCE51F0760F4992311F07B
:101010004FE701C040E0881F8827881F2770220FF4
:1010200060E4EECF992311F04FE701C040E0881F44
:101030008827881F2770220F62E4E2CF073B2CE548
:101040001207F1F4992309F4A8C480910B04282F06
:101050002695269526952F7091E0920F9F70990FF7
:10106000990F990F8778892B80930B04982F987785
:1010700009F093C4220F220F220F8778822BAACF68
:10108000083B3CE5130790F4053B4CE5140709F4D5
:101090003ECF063B5CE5150709F054C0992311F0DB
:1010A00081E001C08FEF8093770377C4093B8CE523
:1010B0001807D1F4992361F090910A04991F992798
:1010C000991F80910B048770880F60E070EE21C03B
:1010D00090910A04991F9927991F80910B0487709A
:1010E000880F60E070E015C0093BECE51E07A8F032
:1010F0000A3BFCE51F0731F5992351F390910A044F
:10110000991F9927991F80910B048770880F6FEFA3
:101110007FE1892B0E94D31E40C4992309F43DC46A
:1011200020910B04822F8695869586958F7009F401
:1011300034C4815F8F70982F990F990F990F822F68
:10114000877847CF033F2CE5120799F406E221EE9A
:1011500040EE63EF7CE509C0073D8CE5180711F50B
:1011600006E221EE41EE67ED7CE5C7010E943A29D7
:1011700014C4043F3CE5130708F060C1083D4CE58A
:10118000140731F407E225EE45EE68ED7CE5EDCF7E
:10119000093D5CE5150701F708E221E045EE69ED40
:1011A0007CE5E3CF992309F47EC11092500503300A
:1011B000FDE51F0760F40A3F2CE5120788F498014B
:1011C00022503C452431310508F057C109C0013691
:1011D0003DE5130729F0053A4DE5140709F04DC127
:1011E0000E947C19909323038093220301315CE5D4
:1011F000150709F4C9C008F043C009309CE5190778
:1012000009F49EC008F50530FCE51F0709F488C005
:1012100080F403303CE5130709F47BC008F07DC07F
:1012200002305CE5150709F0F9C080912203816066
:10123000F3C007308CE5180709F47AC008F07CC0C9
:10124000809122038061E8C00D30ECE51E0709F4AF
:1012500089C058F40B302CE5120709F47BC008F064
:101260007DC080912203886071C00F304CE5140767
:1012700009F482C008F084C080912203877FCCC02B
:101280000D3F8CE5180709F473C008F50531ECE54E
:101290001E0709F487C068F403312CE5120709F42E
:1012A00077C008F097C00E94932D809122038F771A
:1012B000B3C00B3F4CE51407B9F108F056C00A3F24
:1012C0008CE5180709F0AAC08091230341C00130C2
:1012D0009DE5190709F48AC058F40F3FFCE51F0784
:1012E00009F45BC008F06AC080912303826030C0BB
:1012F00001363DE5130709F47FC0053A4DE51407B3
:1013000009F484C002305DE5150709F087C060E08C
:101310006EC08091220382607FC08091220316C03C
:1013200080912203886078C08091230382604FC03F
:1013300080912203806270C08091220380646CC01F
:101340000E94932D80912203806866C0846064C0EF
:1013500081603DC0809122038E7F5EC08091220318
:101360008D7F5AC08091220316C08091230318C03C
:10137000809123038D7F2BC0809122038F7E4CC0F0
:10138000809122038F7D48C0809122038F7B44C0CF
:1013900080912203877F8B7F3FC0809123038D7FC5
:1013A0008E7F15C08091220382FB222720F991E0D5
:1013B000922790FB82F990FB83F92EC08091230342
:1013C000982F909591708E7F892B90FB81F9809357
:1013D000230324C00E94932D8091220387FB2227A0
:1013E00020F991E0922790FB87F916C061E08EE02A
:1013F00090E00E94A33312C08091220384FB222735
:1014000020F991E0922790FB84F906C08091220395
:10141000982F909590FB80F980932203609122038E
:101420001091230384E090E00E94A333612F82E2B5
:1014300090E00E94A3330E94932DAFC2053FECE5DC
:101440001E0731F406E221EE42EE65EF7CE58DCE1B
:10145000053FFCE51F0730F407E225EE44EE64EF9C
:101460007CE583CE063F2CE5120709F09BCE07E210
:1014700025EE46EE66EF7CE578CE06313CE51307B7
:1014800051F58091CA058A7A91E009F490E0909331
:101490000E03882311F065E301C069E280E695E060
:1014A0000E94E32815C006315CE5150791F580918F
:1014B0000E03882309F4FCC185E3E0E6F5E09281A0
:1014C000891301C01282319695E0E636F907B9F723
:1014D0000E947D2A62C20E3D4CE51407B1F0073A26
:1014E0005DE51507A1F001158CE5180769F50E9467
:1014F000932D9FEFE4E3FCE09150E040F040E1F7F2
:1015000000C000000E945C2848C20E94F6290E9488
:1015100092038091CA0582720A3CECE51E0709F429
:1015200029C208F4C7C10E3C4CE5140709F431C2C6
:1015300008F4F1C1063DFCE51F0708F4F6C10D35BE
:101540003DE5130709F429C2F701008111819923B0
:1015500049F0C8010E94242BD82E682FC8010E9490
:101560003B2D04C0C8010E94072DD82EB8018D2D37
:101570000E94B3290E94A417082FC82EF7012281C8
:101580004581342F32953F70D92ED2948FE0D822E6
:101590008D2C912CA12CB12CFCE08F16910408F01D
:1015A00070C1F401EA5AFF4F0C945234892F807FA6
:1015B0009F70192F882311F01295107F2223B9F004
:1015C000112309F445C180E2800F883010F0C1106A
:1015D00006C09091CA05192B1093CA0505C09091B9
:1015E000C905192B1093C9050E947D2A31C1802F8E
:1015F0000E94A803112309F444C1005E109508302D
:1016000010F0C11006C09091CA0519231093CA05A5
:1016100005C09091C90519231093C9050E947D2A20
:1016200030C1592F507F892F8F70503211F0829521
:10163000807F51E0C5120AC0222321F0363008F025
:1016400020C10DC0353008F01CC119C0222351F053
:10165000332329F040FFFCC04F70F70145830E94FF
:10166000AA2D0FC1332359F0093309F001C1FFEF4F
:1016700027EE33E0F15020403040E1F7FDC00E94FA
:101680009F2DFFC0892F86958695837019F0813034
:1016900059F0F7C0222319F0802F937002C080E028
:1016A00090E00E94132979C1222319F0802F9370B2
:1016B00002C080E090E00E94FD286FC1892F8370F6
:1016C000A9F52111E3C0802F829586958770880F38
:1016D000880F202F2F70082E01C0220F0A94EAF7DE
:1016E00004FF09C04FE050E001C0440F8A95EAF7BB
:1016F000842F809501C080E096959695492F437080
:10170000423069F088F49091CB05413019F0822B7A
:10171000892302C0922B892B0E948E2DB7C0822B69
:101720009091CB058927F8CF822BF6CF222319F091
:10173000892F817001C08695882309F4A7C0802F66
:10174000829586958770880F880F202F2F70082E1E
:1017500001C0220F0A94EAF704FF09C04FE050E0ED
:1017600001C0440F8A95EAF7842F809501C080E07C
:1017700096959695492F4370423059F078F49091A0
:101780006004413019F0822B892309C0922B892BE8
:1017900006C0822B90916004892701C0822B0E9491
:1017A000702D74C0192F1F70222339F0812F0E94D1
:1017B000822D802F0E94AA2D69C0802F0E949F2D0C
:1017C000812F0E94752D62C0802FE1EF0E1709F165
:1017D000E01720F0F0EF0F1741F036C042EF04178A
:1017E000F9F053EF051719F12FC0222379F03530A6
:1017F00008F047C0292F2F7181E090E001C0880FC9
:101800002A95EAF79091600489271BC03630C8F505
:10181000F1CF222339F0892F8F710E94822D31C0A0
:101820002223C9F3892F8F710E94752D2AC022238C
:1018300039F09F7181E001C0880F9A95EAF701C0E5
:1018400080E00E94702D1DC0222331F0332319F354
:10185000802F0E94E20315C0332321F3893341F422
:101860008FEF97EEE3E081509040E040E1F704C055
:101870008FE39CE90197F1F700C00000802F0E94E0
:10188000A80388EF8D0D843008F087C00E942929B5
:1018900084C000313FE5130721F481E00E94752DDB
:1018A000C2C901314FE5140709F0C0C982E0F6CF83
:1018B00089E203CE053C2CE5120709F447C0C0F4C9
:1018C000033C4CE51407C1F1E0F5023C8CE5180738
:1018D00009F03ACE9091270481E08927809327046C
:1018E00010924D018091040681608093040655C0DA
:1018F000073CECE51E07A1F170F1083C2CE512074E
:10190000A1F1093C3CE5130709F01ECE48E25FE275
:1019100066E37FE238C00C3C9CE5190781F1B0F525
:1019200049EE5DE267EF7DE22EC0003D2CE5120737
:10193000A0F561E087E02FC04FE85FE26AE97FE24F
:1019400022C04AE95FE26FE87FE21DC040E65FE245
:101950006BE67FE218C04BE65FE260E67FE213C011
:1019600044E45FE262E57FE20EC042E55FE264E4E8
:101970007FE209C046E35FE268E27FE204C047EF2E
:101980005DE269EE7DE20E94E42E07C061E081E045
:1019900002C061E083E00E94762F2996EFE00C946C
:1019A0000133A5E0B0E0E7EDFCE00C94EE32E62E6A
:1019B000082F10E0F801EE0FFF1F662319F0E9551C
:1019C000FE4F02C0ED55FE4F808191819A8389833D
:1019D000FF24F394FB820E94AE288160782F9D83C0
:1019E0008C83F801E35BFC4FFE24EE0CFE28F082B2
:1019F00049815A816B818D810E9437042596E6E0EA
:101A00000C940A33AAE2B0E0E8E0FDE00C94E23284
:101A100085B7806885BF85B7806885BF0E94B21E84
:101A200010928604109288041092870480EC8093B0
:101A30004B0589E894E090934D0580934C051092F6
:101A40004A0510924905109266041092650410929E
:101A500068041092670410926A041092690410924C
:101A60006C0410926B0410926E0410926D0410922C
:101A7000700410926F04109272041092710410920C
:101A800074041092730410927604109275041092EC
:101A900078041092770410927A04109279041092CC
:101AA0007C0410927B041092800410927F048BE0DF
:101AB00098E290936204809361048AE897E290939D
:101AC00082048093810489E894E290937E04809359
:101AD0007D0488E894E2909364048093630484B75F
:101AE000877F84BF0FB6F894A895809160008861C5
:101AF00080936000109260000FBE90E080E80FB607
:101B0000F89480936100909361000FBE8BEE93E197
:101B100090930D0380930C030E942E250E94D425E0
:101B20008091E20084608093E200789480911904AF
:101B30008823A1F01091E9001F709091EC00892F8B
:101B4000817090FD80E8182B1092E9008091E800E8
:101B500083FD0E94AE211F701093E90082E084BDD6
:101B600093E095BD9AEF97BD80936E0010920F039E
:101B70001092100310921103109212030E94CB2EA8
:101B8000811102C00E94BB2E90911303911109C0D4
:101B90000E942415811102C091E001C092E090934F
:101BA000130381E0913009F080E0809304010E94EA
:101BB000241581110E947C318091040180910401DF
:101BC000882311F090E001C096E09093210386E015
:101BD000891B8093200301E511E097E5E92E91E050
:101BE000F92ED8018D918D018F3F11F00E9447157C
:101BF000E016F106B1F707E511E08EE5E82E81E089
:101C0000F82EF80181918F018F3F11F00E94471546
:101C1000E016F106B1F78CE0ECE3F3E0DF01282FEA
:101C20001D922A95E9F7E4E1F3E0DF011D928A9520
:101C3000E9F70E948D19811102C00E94F62982E005
:101C400090E00E948533809326030E947C19909334
:101C50002303809322030E945E15EFE3FCE9319792
:101C6000F1F700C000000E945E1580913C0380FFE8
:101C700008C06FEF7FEF80E090E00E94C1330E94C8
:101C80005C2883E090E00E9485330E948E2D1092A4
:101C90002D04ECE4F4E080E694E02FEF3FEF219395
:101CA00031938E179F07D9F71092CC05EBEEF5E034
:101CB0008FEF95E02FEF3FEF219331938E179F0722
:101CC000D9F70E948D19811104C00E94F6290E9443
:101CD000381B46E050E06CE170E087E294E00E943F
:101CE000753310920406809127048C7F11F40E94B2
:101CF000381B9091040181E0982790933703F82FC7
:101D0000F91BF0932503909104018093380390917F
:101D100004018093240380910401811106C085EFA2
:101D20008093120184EF8093110180911201E82FBA
:101D3000E295EF70F0E041A1282F2F7081E090E054
:101D4000BC0102C0660F771F2A95E2F79B01362F70
:101D50003095342331A332A1232B22A320911101EA
:101D6000E22FE295EF70F0E031A12F7001C0880FF3
:101D70002A95EAF7982F9095932391A392A1892B06
:101D800082A38FE891E00197F1F700C00000709105
:101D9000380349E353E002E111E0A1E1B1E060E082
:101DA000671751F1F80121918F01822F82958F7071
:101DB00090E0FC0180A190E02F7002C0959587957E
:101DC0002A95E2F781709D91292F22952F7030E09E
:101DD000F90120A130E09F7002C0359527959A95B2
:101DE000E2F720FF02C092E001C090E0892BFA01E7
:101DF0008193AF016F5FD4CF0E942415811102C07F
:101E00000E947F3180910904807F82608093090461
:101E100080910A048078856780930A0485E091E0C8
:101E20009093540580935305CC24C39477247394E2
:101E300080911904853009F05EC000E4B3E0FB2E08
:101E400010E180911904853009F04FC08091190488
:101E5000843009F438C00E94B32F809103068111A9
:101E60000DC00E94181C10924C01809127048370B1
:101E700080934B010E94052EF0924D017092030653
:101E80001092570528E130E00FB6F894A8952093FA
:101E900060000FBE0093600083B7817F846083BFC2
:101EA00083B7816083BF7894889583B78E7F83BF23
:101EB0000FB6F894A89580916000886180936000C7
:101EC000109260000FBE80911804882309F4B9CFE6
:101ED0000E945E15ECE3F3E0819181115CC468E43B
:101EE00073E06E177F07C1F7ACCF0E94932D0E945D
:101EF0002929109203060E945E1581110E94A228D2
:101F0000ACE34A2EA3E05A2EA7E2B3E0F20100E0D0
:101F100010E0A02EB1908D918B2509F4ACC0E12C7E
:101F2000FF24F3949F2D982309F4A0C00E94241548
:101F30008823A1F0E9A2AAA291E08F2D8B2109F4B8
:101F400090E09BA30E94AE288160782F9DA38CA374
:101F500049A15AA16BA18DA10E943704F801E95D46
:101F6000FC4F80818F2580830E942415882309F4EB
:101F700098C0FB2089F087E0809FF001819FF00DE1
:101F80001124EC53FE4FEE0DF11D80818F3F21F0A7
:101F9000D82EBB24B39401C0B12C0B2D10E080913E
:101FA000CC05D801A80FB11D1B97ACF18AE090E0D9
:101FB0007C01E01AF10AB8016F5F7F4F64537A4FDA
:101FC000A7018DEC95E00E946C34B801655F7F4FEE
:101FD00064537A4FA70187ED95E00E946C34A70106
:101FE000440F551FB801660F771F615E7F4F645322
:101FF0007A4F8BEE95E00E946C34B8016B5E7F4F98
:1020000064537A4FA70181EE95E00E946C348AE018
:102010008B198093CC058091CC0590E0AD2DB0E07C
:102020009D01220F331F285E3D4FAA0FBB1FBD012C
:10203000675E7D4F41E0480F9B15A8F490E0FC01DE
:10204000E453FA4FD9015C915183DB015C915387D2
:10205000D58A880F991FFC01E453FA4F10A2178EFE
:1020600091E0842FE7CF8093CC051BC0E394FF0C55
:1020700027E0E21257CF0F5F1F4F0C30110509F018
:1020800048CF8FEF8EA38FA318A60E94AE28816041
:10209000782F9AA789A74EA15FA168A58AA50E945B
:1020A00037040E9424150E94B32FE12CB12C80919B
:1020B0003803E81608F079C00E2D10E0F801EE5E46
:1020C000FE4F8081E82FE295EF70F0E0E0A1F0E0B4
:1020D0008F7002C0F595E7958A95E2F7E170D80117
:1020E000AF5EBE4F2C91A22FA295AF70B0E090963C
:1020F0008C9190E02F7002C0959587952A95E2F714
:1021000080FF02C082E001C080E04E2F482BD80142
:10211000A75CBC4FEC918E2F837090E0242F042E8F
:10212000000C330B82179307F1F1EE0FEE0FE42B47
:10213000EC93F0903703FE0CEF70F0E0E25AFE4FA4
:102140000B5C1C4F9081D8018C91890F8C9384304B
:102150006CF0EF2DF0E0ED5CFC4F80818F5F8083B1
:1021600060E08F2D0E94D10C21E001C020E0F80139
:1021700080818D3F64F4EF2DF0E0ED5CFC4F8081B9
:102180008150808361E08F2D0E94D10C21E0D80125
:102190008C91082E000C990B64E070E00E943E3494
:1021A000F8018083B22AE39482CFB1100E941F19F4
:1021B000E0918104F0918204309719F081E694E077
:1021C00009952FB7F89480904A0590914905891692
:1021D00018F480914B05880E891A2FBF00E010E09B
:1021E000912C83E0A82EB12CEE24E394F12C24E072
:1021F000222E0815190508F0B3C08091490590E01A
:1022000060914B0570E00E943E34E0914C05F091E6
:102210004D05E80FF91F608030908604F7EFF61542
:1022200060F4C092860420E040E0662D81E090E0FA
:102230000E946C203092860482C067FE4FC024E06A
:10224000321631F060928304F0928804E0928704A1
:10225000862D0E946427813031F080F0823059F061
:10226000833049F034C08093860420E040E0662D3E
:1022700081E090E027C08093860461C030EF631650
:10228000E1F067EF661223C0209187043091880443
:10229000C901B5010E942A34FC01EF59FB4F62A22B
:1022A000C901019690938804809387042091850446
:1022B000409184046091830405C02092860460925A
:1022C000830433C00E946C201092860438C01092A0
:1022D0008604109288041092870431C0332079F16B
:1022E0002091870430918804C901B5010E942A34E5
:1022F000AC01FC01EF59FB4F62A2C901019690931A
:1023000088048093870441305105A1F04230510583
:10231000B1F42091850440918404609183040E946B
:102320006C2080918604843051F0F0928804E09211
:10233000870405C072E0371202C020E0ECCF2FB74F
:10234000F8948091490590E0019660914B0570E00A
:102350000E943E34809349052FBF0F5F1F4F49CF26
:1023600080917503909176030E94932820910B042D
:102370002695269526952F7030E08217930798F1C1
:102380000E94AE2890937603809375038091770323
:10239000882349F190910A04991F9927991F8091E8
:1023A0000B048770880F4091780361E0892B0E94AD
:1023B000FB1E909177038091780397FF0FC0282F21
:1023C00030E0A92FBB27A1950CF4B0952A173B0745
:1023D0002CF4109278031092770305C0890F87FDC3
:1023E0008FE7809378030E94292990913B038913FA
:1023F00080933B03809119048430F1F48091400173
:102400008F708093E9009091E80090FF15C0909143
:102410001904943089F48093E9002091F3008091AD
:10242000F20090E0922B892B39F08091E8008E77B2
:102430008093E8000E944D2580911904843009F0B2
:10244000F7CC83E08093E9008091E80082FFF0CC34
:102450008091E80085FF0AC040E050E060E270E053
:10246000CE0101960E94842191E001C090E080910C
:10247000E8008B778093E800992309F4D9CCE981AF
:102480008E2F90E0FC013197E331F10508F05AC13D
:10249000EE59FF4F0C9452341A8289E0B7C08A81FA
:1024A000823009F48FC1833051F0813009F04AC184
:1024B0000E94A2289B838C837D836E8345C1FE018D
:1024C0003396CE010F96D2012D912D0121938E17B7
:1024D0009F07C9F739C18A81823009F033C16B8106
:1024E0007C818D819E810E9458340E94972E2CC140
:1024F0004C816B818A810E94522E9D836AC12D81FD
:102500003E813227232732274C816B818A810E94AA
:102510002B2E1AC10E94C12917C18A818138B1F0BE
:1025200050F4803809F010C18091280420E04B81DC
:10253000609129042DC08238F9F0833809F004C174
:102540008B8120E040912A046C8122C060E08B8165
:102550000E94762F8B8181110CC08091270483709B
:1025600011F010924D01809127048C7F80932704F5
:10257000EBC00E94A62FE8C0EB81E43028F4F0E025
:10258000E259FE4F808101C08FE780932B04DCC0AD
:1025900090E00E94152FD8C08A81813899F030F4DC
:1025A000803809F0D1C080912A0430C0823879F097
:1025B000833809F0C9C0809128048B838091290455
:1025C0008C83C2C080912704869586951FC0809118
:1025D0002B04873230F08F3530F08E3930F482E0C2
:1025E00015C080E013C081E011C083E00FC046E059
:1025F00050E06CE170E087E294E00E949333109227
:102600000406A2C080E154C0CA8289E38B839CC0C7
:102610000A811B81102701271027AC80B12CFE01F5
:1026200031964F017F01C80189539D4F97012819A9
:1026300039092A153B0508F087C00933F1E01F0767
:1026400030F40E948533D70114968C9302C0F701B1
:1026500014820F5F1F4FFFEFEF1AFF0AE4CF0A81CA
:102660001B81102701271027AC80B12C9E012F5F02
:102670003F4F49017901C80189539D4F970128199E
:1026800039092A153B0508F05FC0093331E013070B
:1026900028F4D70114966C910E94A3330F5F1F4F4B
:1026A000BFEFEB1AFB0AE7CF0E94A3294DC084E0DD
:1026B0008A834AC00A811B81102701271027AC801A
:1026C000B12CFE0131964F017F01C8018796970119
:1026D000281939092A153B05B8F5003AF2E01F0719
:1026E00030F40E948533D70114968C9302C0F70111
:1026F00014820F5F1F4FFFEFEF1AFF0AE6CF0A8128
:102700001B81102701271027AC80B12C9E012F5F61
:102710003F4F49017901C801879697012819390966
:102720002A153B0588F4003A32E0130728F4D70154
:1027300014966C910E94A3330F5F1F4FBFEFEB1AEB
:10274000FB0AE9CF8FEF898380911904843009F067
:102750006FCB1091E9001F709091EC00892F817070
:1027600090FD80E8182B82E08093E9008091E800DA
:1027700080FF0DC040E050E060E270E0CE010196C5
:102780000E945A218091E8008E778093E8001F70A4
:102790001093E9004DCB19BD82E189BD09B400FE5B
:1027A000FDCF8091D8008F7D8093D8008091E0008C
:1027B00082608093E0008091E00081FDFCCF0E9468
:1027C000932D3FCB86E290E00E9485331B821C82D2
:1027D0001D828E83B9CF80E008959091220392FFED
:1027E0000DC0282F2871283019F4877F846006C017
:1027F000282F2471243011F48B7F886093FF0DC043
:10280000282F2871283119F4877E846106C0282F6B
:102810002471243111F48B7E88612091230320FFE1
:102820000DC0382F3871383019F4877F816006C0A9
:10283000382F3171313011F48E7F886021FF0DC047
:10284000282F2871283119F4877E816106C0282F2E
:102850002171213111F48E7E886194FD877E089567
:10286000A0E0B0E0E6E3F4E10C94EA327C015B0125
:102870006A01809174038A3018F001E010E002C010
:102880000AE010E0C1E0D0E0B501C701F60109950A
:10289000811115C021960C171D0794F0CC9F900153
:1028A000CD9F300D300D112480E090E045E34A9536
:1028B000F1F70000019682179307C1F7E5CF81E099
:1028C000CDB7DEB7EAE00C940633A1E0B0E0EBE66A
:1028D000F4E10C94E632C62E4A015901682E880FA5
:1028E0007708C3010E946732882309F473C0C301CB
:1028F00023E0880F991F2A95E1F7FC01ED5EFE4F5A
:10290000438150E04115510511F041E050E0FC01D8
:10291000ED5EFE4F648175816D597C4FCE0101964D
:102920000E946C34F40140815181628173812FB720
:10293000F8948091580590915905A0915A05B0914D
:102940005B052FBF841B950BA60BB70B8436910537
:10295000A105B10538F4B701C8010E94802E998104
:102960008917D1F10C2C000CDD08C6010E946732DA
:10297000782E8823E1F0E114F104C9F0960183E098
:10298000220F331F8A95E1F7F901ED5EFE4F438177
:1029900050E0E416F50608F4A701F901ED5EFE4FDC
:1029A000648175816D597C4FC5010E946C34B701FB
:1029B000C8010E94802E91E02981281390E0D92E31
:1029C000D72089F00E94A228F4016083718382835A
:1029D000938309C0D12C02C0DD24D394A701B80190
:1029E000C5010E946C348D2D2196EEE00C940233CB
:1029F000A6E0B0E0EEEFF4E10C94EC326B0186E07F
:102A0000E82EF12C04E613E09E012F5F3F4F4BE5CB
:102A100053E061E080E00E946514882349F096E06D
:102A2000FE013196A5E5B3E001900D929A95E1F78C
:102A300096E0E5E5F3E0D60101900D929A95E1F775
:102A40002696E8E00C94083380915403811118C055
:102A50008091D80080618093D8008AE18A95F1F74F
:102A600000C08091D90080FD02C082E001C081E0F9
:102A700080935403823021F40E942E251092190471
:102A800081E090915403913009F080E00895F8942A
:102A9000E82FE295EF70F0E031A1282F2F7081E050
:102AA00090E001C0880F2A95EAF7982F909593231C
:102AB00091A392A1892B82A378940895A7E1B0E015
:102AC000E4E6F5E10C94E9329E012F5F3F4F790176
:102AD0008CE0D9011D928A95E9F701E511E06901C1
:102AE000AA24A394B12CF80180818F3F09F441C03E
:102AF000F894E82FE295EF70F0E021A18F70A50126
:102B000002C0440F551F8A95E2F7CA01922F982BF5
:102B100091A392A18095892382A3789400C0E7E5D0
:102B2000F1E0912C31E021912F3F89F0A22FA29565
:102B3000AF70B0E090968C9190E02F7002C09595A8
:102B400087952A95E2F780FD02C0832F01C080E0BF
:102B5000982A330F51E0EE35F50729F7D8018C910B
:102B60008F3F11F00E944715B0EABA95F1F7F601D0
:102B700090820F5F1F4FFFEFCF1ADF0A21E007356A
:102B8000120709F0B0CF4CE050E0B70184E193E0C8
:102B90000E945F348C01892B41F08CE0F701A4E1A5
:102BA000B3E001900D928A95E1F7F09021030115B1
:102BB000110549F081E080934A030E94AE2890936A
:102BC00049038093480380914A038823B9F0809198
:102BD0004803909149030E949328059778F0A4E157
:102BE000B3E0EF2DF0E0E45CFC4F8AE193E02D913F
:102BF00021938A179B07D9F710924A0301151105F3
:102C000009F009C10E942415E0912103AE01435F40
:102C10005F4F7A01882309F4A7C086E0DA011D928C
:102C20008A95E9F70E2F10E0045C1C4F8091740325
:102C30008A3048F448EF54E1B701C8010E943014CB
:102C4000882371F10AC080914B0390914C030E943C
:102C50009328843F914070F734C042E259E1B701B4
:102C6000C8010E9430148823D9F04CE257E1B70123
:102C7000C8010E943014882399F010927403809147
:102C8000200390E046E050E0B701845C9C4F0E9436
:102C90005F3421E020935303892BF1F4912C2AC057
:102CA000809174038F3F19F08F5F8093740380913C
:102CB00074038A3020F30E94AE2890934C038093D3
:102CC0004B0380915303882349F386E0F701119267
:102CD0008A95E9F710925303A0912003B0E0A45C19
:102CE000BC4F86E0FE013D9601900D928A95E1F77A
:102CF000992493940DE413E087EAC82E81E0D82E3E
:102D000093EAE92E91E0F92E2FE4A22E23E0B22ED1
:102D1000D8018C918823D1F0869521F0F60180812D
:102D2000918103C0D7018D919C919C8B8B8B1D8AC7
:102D30000E94AE288160782F9F8B8E8BF8011082C5
:102D40004B895C896D898F890E9437040F5F1F4F03
:102D5000F2E0CF0ED11C22E0E20EF11CA016B1066B
:102D6000B9F6092D10E059C0F0E0E45CFC4F86E0B4
:102D7000A4E6B3E001900D928A95E1F766E070E079
:102D800084E693E00E94802E809363034091380391
:102D900050E06091370370E06D5C7C4FC7010E948A
:102DA0006C348D8580936B0361E070E0C7010E94F5
:102DB000802E80936A03C0906C03D0906D03E090E6
:102DC0006E03F0906F0380914F0390915003A09198
:102DD0005103B0915203C816D906EA06FB06E9F082
:102DE000C0924F03D0925003E0925103F0925203ED
:102DF0000E942415811111C00E94A228C61AD70A68
:102E0000E80AF90AC0920F03D0921003E09211036E
:102E1000F092120302C001E010E0802F6796EBE011
:102E20000C9405330F931F930E942415882319F0E7
:102E30000E94A2280EC00E94A22800910F031091A8
:102E400010032091110330911203600F711F821F34
:102E5000931F1F910F910895A4E0B0E0E2E3F7E122
:102E60000C94F2324091700350917103609172039F
:102E7000709173032FB7F89480915805909159057C
:102E8000A0915A05B0915B052FBF841B950BA60B33
:102E9000B70B84369105A105B10570F10E94121798
:102EA000DC01CB010296A11DB11D89839A83AB83FE
:102EB000BC8380913401909135018D599C4F409194
:102EC000330150E04530510510F044E050E0BE01C0
:102ED0006F5F7F4F0E946C3484E090E00E94673205
:102EE000882359F00E94A2286093700370937103A5
:102EF000809372039093730381E02496E2E00C9434
:102F00000E33CF92DF92EF92FF926B017C010E9411
:102F10002415882371F02FB7F8948091580590916B
:102F20005905A0915A05B0915B052FBFBC01CD0199
:102F300002C00E9412176C197D098E099F09FF902B
:102F4000EF90DF90CF900895CF93DF938238910573
:102F500069F1B0F48133910509F46FC048F4893206
:102F6000910509F465C08A32910509F46BC08AC0E5
:102F70008533910509F457C089339105B9F082C0B2
:102F8000833E910571F138F4803E9105B1F0823EA7
:102F9000910511F177C0863E9105B9F1873E910503
:102FA000C9F1843E910509F06DC024C0209122032F
:102FB00020FD53C021FD51C065C08091220380FDDA
:102FC00046C08091230380FF48C08091220384FD86
:102FD00031C183EE90E030C18091220382FF3AC07C
:102FE000F4CF8091220382FD35C08091230380FDC0
:102FF00034C0EBCF8091230381FF35C08091220341
:1030000084FD18C187EE90E017C18091220383FFF1
:1030100027C0F4CF8091220383FD22C08091230337
:1030200081FD21C0EBCF8091220385FD1FC021C00F
:103030008091220385FD1DC019C08091220386FD69
:103040001BC01DC08091220386FD19C015C089E3F5
:1030500090E0F2C082EE90E0EFC080EE90E0ECC035
:1030600086EE90E0E9C084EE90E0E6C089E290E070
:10307000E3C085E390E0E0C08AE290E0DDC081E358
:1030800090E0DAC0811531E5930708F062C0811540
:1030900040E59407F0F09C0154E0369527955A9549
:1030A000E1F7922F9370482F437021E030E002C087
:1030B000220F331F4A95E2F73C68392B982F9F70F7
:1030C0009695969540E2949FC0011124822B932BF4
:1030D000B3C08F3B910520F5883A910558F0885A86
:1030E000E82FF0E0EE0FFF1FEB58FE4F808191813B
:1030F0009464A2C0853A910548F0855AE82FF0E023
:10310000EE58FE4F808190E0906496C08430910527
:1031100008F092C0019709F08DC081E090E08CC06A
:10312000811520E2920768F4811531E0930708F0D9
:1031300083C09C01205E31092830310508F07AC037
:103140007BC0811540E4940708F474C09F70906AB6
:1031500073C0811524E59207C8F5811533E59307FF
:10316000B0F09C012370332741E050E002C0440FCF
:10317000551F2A95E2F7282F2695269580E2289F4D
:1031800090011124CA01822B932B9A6855C0811596
:1031900042E5940728F4982F8827816F906A4CC0E5
:1031A0009C012370332741E050E002C0440F551FBB
:1031B0002A95E2F7282F2695269580E2289F9001F0
:1031C0001124CA01822B932B9C6836C0EC01C115D7
:1031D0008AE5D807F8F4C11529E5D20790F08C2FBD
:1031E0008F700E94ED1394E0D695C7959A95E1F7FC
:1031F000CF70D0E0DC2FCC27D0699E01282BC901ED
:103200001BC0C11538E5D307A8F09C2F8827806F15
:10321000906A12C0CE0190568115904258F48D2FBD
:103220008F710E94ED13282F2F71CE019927906284
:10323000922B02C080E090E0DF91CF9108950E9430
:10324000A2280895A1E0B0E0E8E2F9E10C94EB32A5
:10325000EE24E394F12C0BE613E09E012F5F3F4F29
:103260004FE553E063E082E00E946514B82E8823A6
:1032700009F43DC000E080E0909124030917A0F517
:10328000D0902503D00E2D2D30E0A9014D5C5C4F70
:103290007A01E1E0F0E0EC0FFD1FE00FF11D10817D
:1032A000FA019081191BC12E1C145CF4CA94F70119
:1032B00080818F5F808360E08D2D0E94D10C81E042
:1032C000F3CF912F17FD90E0191B112359F01F5FC9
:1032D000F70180818150808361E08D2D0E94D10CA7
:1032E00081E0F3CF0F5FC8CF81110E941F198B2D92
:1032F0002196E9E00C940733CF9384E090E00E949C
:103300008533C82F82E290E00E9485332C2F30E075
:10331000A901582BCA01CF91089580E090E00E9446
:103320008D33883E9E4F19F40E94CB2E089580E085
:103330000895EF92FF920F939701201B31092F3FC1
:10334000310519F010F02FEF30E02095382F320FB3
:1033500008F43FEF832F0F91FF90EF900895EF92C5
:10336000FF920F939701201B31092F3F310519F070
:1033700010F02FEF30E0322F3095482F430F08F434
:103380004FEF842F620F0F91FF90EF900895EF920F
:10339000FF920F93972F093438F4B701601B71091E
:1033A0006F3F710519F010F06FEF70E0485F5F4FED
:1033B0004131510540F0A901485F5F4F413151054E
:1033C00010F06FEF70E06095482F460F08F44FEF54
:1033D000842F37FF02C02D5F3F4F359527953595D8
:1033E000279560912804620F792F0F91FF90EF903D
:1033F0000895EF92FF920F93E00EF11CF90137FF51
:1034000003C0F195E195F10924E0EE0FFF1F2A9525
:10341000E1F7EF3FF10519F014F0EFEFF0E09A015A
:1034200057FF03C031952195310994E0220F331FD6
:103430009A95E1F72E173F070CF4F901EE0DFF1DE9
:10344000EF3FF10519F010F0EFEFF0E02E2F20958F
:10345000382F320F08F43FEF832F0F91FF90EF903A
:103460000895EF92FF920F93970195E0099F200D29
:10347000311D11242F3F310519F010F02FEF30E0EE
:103480002095382F320F08F43FEF832F0F91FF90D4
:10349000EF90089522E8241B08F420E0620F0895BD
:1034A0004095282F429F412D1124842F0895E42F09
:1034B000F0E0EE0FFF1FE85EFD4F6081621B089594
:1034C000E42FF0E0EE0FFF1FE85EFD4F408134EE89
:1034D000439F412D1124E72FF0E050E0445E5F4F01
:1034E000DA01A21BB1099D01B7FF03C031952195F7
:1034F000310993E0220F331F9A95E1F7AF01421B88
:10350000530B9A0157FF02C020E030E0279F212D86
:103510001124722F08950E94D12D08950F931F93A7
:1035200010E0F801EE0FFF1FE85EFD4F908190570D
:1035300097FD9195000F111FF801E75EFD4FE081A7
:10354000F0E0B097DF01AA0FBB1F8D010E0F1F1F08
:103550002003D001219FB00D1124E8E3F0E0E91B26
:10356000F10997FDF3959F01220F331F89010E0F7B
:103570001F1F40039001419F300D11242A0F3B1F54
:1035800037FF02C021583F4F220F232F221F330B3A
:10359000620F1F910F910895482F982F46FD909527
:1035A000E92FEF739F7046FD9F5FE295EF70EE0F7E
:1035B000F0E0E355FE4F2181299F802D212D11241C
:1035C00082958F702295207F822B3081982F930FC8
:1035D000892F47FD819580580895EF920F931F938F
:1035E000CF93DF93D62F172FC82FC9010E19070FBE
:1035F000009721F457FF06C080E805C0BA010E9479
:10360000EB2E01C080E0702F781B719F712D11246B
:103610006D2F8C2FDF91CF911F910F91EF90089517
:10362000FF920F931F93CF93DF93F62E172FD82F70
:10363000C901C72FC01B009721F457FF06C080E8BF
:1036400005C0BA010E94EB2E01C080E0982F990FAF
:10365000890F7C2F781B719F712D11246F2D8D2F59
:10366000CDB7DEB7E5E00C940B330E94DD2D089555
:10367000E7E2F4E08DE1808380914E0190914F016B
:10368000A091500181839283A3838FE784838FEF7E
:10369000858346E050E06CE170E0CF010E949333F7
:1036A000109204060895BC018230910508F4089533
:1036B000613E8EE1780748F49B0195E036952795A9
:1036C0009A95E1F748E0420F01C04FEF91E0242FB7
:1036D00030E0290F311D35952795229FF001239F5A
:1036E000F00DF00D11246E177F0718F44FEF420F05
:1036F00004C02F3F39F091E0920F491740F78FEF48
:10370000890F08958FEF089520E030E0869F212DE6
:10371000969F200D311D1124C9010895A0E0B0E04D
:10372000E4E9FBE10C94EC32F62E472FE82FF0E0B1
:10373000711106C0E255FE4F8491782F682F73C037
:10374000272F30E0E255FE4FE491FE2F0E2F10E0C0
:1037500056E0659FC0011124CFEFD0E0BE010E946A
:103760002A345BEA5603C001579F900D11248F0D38
:10377000911D8F0D911D982F990F980F7E01E21AC0
:10378000F30AE09ED001E19EB00DF09EB00D112431
:103790008B2F499FA0011124452F55277E01E41A44
:1037A000F50AE09EA001E19E500DF09E500D1124FF
:1037B0006E01C91AD108C29E7001C39EF00CD29E40
:1037C000F00C11242F2D3327C21BD30BC09F900167
:1037D000C19F300DD09F300D1124932F62307105A1
:1037E00091F048F461157105E1F061307105B9F4AB
:1037F0009E2FE52F16C06430710569F040F06630E9
:10380000710579F00CC09E2FEB2F832F0AC0EB2F90
:103810008F2F952F06C09B2F8E2FE32F02C09B2F3B
:10382000852F7E2F692FCDB7DEB7E8E00C940833E3
:10383000A0E0B0E0EEE1FCE10C94E832C82F80910A
:103840004C018C130DC020912704237030E040916F
:103850004B0150E081E02417350719F480E001C0E6
:1038600081E0817080933E0180912C0490913D0114
:10387000981739F080933D0140E060E080E00E94BD
:103880008B1AC83009F044C0D0913C01D295D07F4A
:1038900010E11D0F1D3408F01CE460912B046695A7
:1038A000669580912304909124040E94841BF82E35
:1038B00080E48F0D0E94CC1A30E8B32EB80E8F2D05
:1038C0000E94CC1A40E8A42EA80ED11708F041C0DF
:1038D000CD2ED12CF601E055FD4F908180913D0118
:1038E0008923A1F0609128047091290480912A0411
:1038F000EF2C0D2F2A2D4B2D0E948E1A0E948E1B0D
:10390000462F282F672FC6010E94351BDF5FDDCFB2
:10391000C93008F08DC1C33009F440C008F0CBC0F5
:10392000C130D9F4D0913C01D295D07F10E11D0F68
:103930001D3408F01CE460912804709129048091E2
:103940002A040E948E1B062FF72ED82ED11708F4BA
:1039500067C081E01C3470F00CC0C23008F072C047
:1039600080913E01882329F040E060E080E00E94E1
:103970008B1A80E090913C019F5F90933C018111F4
:10398000ECC182E080934D0180913E018111E5C13F
:10399000C111E3C183E080934D01DFC1D0913C01AF
:1039A000D295D07F10E11D0F1D3408F01CE4F0907B
:1039B000280400912904D0902A0460912B04669574
:1039C0006695669580912304909124040E94841B3F
:1039D0000E94CC1A805887FD8195880F282F3D2D95
:1039E000239F212D1124822F6F2D702F0E948E1B5B
:1039F000062FF72ED82ED11708F0ABCFED2FF0E021
:103A0000DF01A055BD4F8C9190913D01982331F07D
:103A10002D2D402F6F2DCF010E94351BDF5FEBCF87
:103A2000ED2FF0E0DF01A055BD4F8C9190913D014D
:103A3000982331F02D2D402F6F2DCF010E94351B83
:103A4000DF5F84CFD0913C01D295D07F10E11D0F74
:103A50001D3408F01CE4F0902904B0902A04209151
:103A60002B0400E4029F012D1124D11708F071CF1F
:103A7000CD2ED12CF601E055FD4F908180913D0176
:103A80008923B9F0F601EE0FFF1FE75EFD4F80813D
:103A900082958F7060912804809F600D11247F2D86
:103AA0008B2D0E948E1B462F282F672FC6010E9448
:103AB000351BDF5FDACFC53009F045C0D0913C013E
:103AC000D295D07F10E11D0F1D3408F01CE46091E9
:103AD0002B04669580912304909124040E94841BFA
:103AE000F82ED11708F035CFCD2ED12CF601E055A8
:103AF000FD4F908180913D01892319F1F601EE0F70
:103B0000FF1FE75EFD4F208130E020523109F601B2
:103B1000EE0FFF1FE85EFD4F408150E04057510916
:103B2000609128047091290480912A040F2D0E942D
:103B3000101B0E948E1B462F282F672FC6010E9444
:103B4000351BDF5FCECFC53018F480E69AE107C0A1
:103B5000C63041F0C73009F065C087E59AE10E94A0
:103B6000242008CFD0913C01D295D07F10E11D0FC9
:103B70001D3408F01CE460912B04669580912304A9
:103B8000909124040E94841BF82ED11708F0E1CEF6
:103B90008D2E912CF401E055FD4F908180913D01D7
:103BA0008923C1F1F401EE0FFF1FE85EFD4FC080D5
:103BB000D12C80E7C81AD108F401EE0FFF1FE75E91
:103BC000FD4FA080B12C20E2A21AB108CC9C90013C
:103BD000CD9C300D300D1124AA9CC001AB9C900DE2
:103BE000900D1124820F931F0E94531B082F609188
:103BF00028047091290480912A04EF2C9501A601D4
:103C00000E94ED1A0E948E1B462F282F672FC40199
:103C10000E94351BDF5FB9CFC03109F454C0CF3FDC
:103C200009F46AC080913C018F5F80933C01A9CE6A
:103C3000CD30D1F480912D0421E0382F321B08F4CF
:103C400030E0832F67EC79E10CC0CB30D9F4809160
:103C50002D0421E0382F321B08F430E0832F61E37C
:103C60007AE10E941A1F86CECE3090F4CA3029F431
:103C70008AE49AE10E94B71F7DCECA3030F780E512
:103C80009AE1F8CFCC3071F669EF79E180E0E9CFC5
:103C9000CF3059F480912D0421E0382F321B08F4E5
:103CA00030E0832F69E979E1DCCFCF3008F0B4CF81
:103CB00080912D0421E0382F321B08F430E0832F4F
:103CC0006FEA79E1CECFD0913C01D295D07FD05F21
:103CD0000E946533182F0E946533612F782F8091E1
:103CE0002A040E948E1B482F872F0E948B1A81E086
:103CF000DC3408F43FCE3DCE80912304909124041F
:103D0000A0912504B091260488279C70AA27BB2780
:103D10002AE0B695A795979587952A95D1F7823091
:103D20009105A105B10571F083309105A105B1059B
:103D300069F040E00197A105B10511F060E008C00D
:103D400064E102C044E160E080E003C044E164E17A
:103D500084E10E948B1A82E01ECECDB7DEB7ECE084
:103D60000C94043384E0809309048FE780930A0461
:103D700080910B048078806480930B04E9E7F3E082
:103D80008FEF8193DF01A95BBF4F1C9293E0E13C71
:103D9000F907B9F71092780310927703109276031F
:103DA0001092750308950F931F93611590E27907A0
:103DB0003CF4611590EE790734F09B01305E05C04C
:103DC0002FEF3FE302C020E030E08901000F012F18
:103DD000001F110B11952F77482F4F70406EE09107
:103DE0006104F091620463E070E081E694E009957B
:103DF0001F910F9108950F93042F0F77262F2F7780
:103E00008F70482F406BE0916104F091620463E091
:103E100070E081E694E009950F9108958091600427
:103E2000982F9670963011F4886001C0877F0E94A9
:103E3000702D0895A7E0B0E0E0E2FFE10C94E232DB
:103E4000282E4B0120913C012295207F2E83122F9A
:103E5000105F1D3408F01CE430912D043983AE81CD
:103E6000A11708F07CC08E81682E712CF301E055FB
:103E7000FD4F908180913D01892309F46CC0309001
:103E8000280440902904522C1F82C301880F991FD7
:103E9000DC01A85EBD4FBB83AA83C301880F991FB5
:103EA000FC01E75EFD4FFD83EC83F9815F1608F0AE
:103EB00040C0E52CF12CAA81BB81CC90D12CF7011C
:103EC000E35DFB4F8181C81AD108AC81BD81AC9004
:103ED000B12C8385A81AB108CC9C9001CD9C300DE3
:103EE000300D1124AA9CC001AB9C900D900D1124A3
:103EF000820F931F0E94531B082F60912B0421E017
:103F0000620F08F46FEFF701EE0FFF1FE35DFB4F49
:103F1000878D90A10E94841B7C019501A601632DD1
:103F2000742D8F81F4010995362E472E8F8353947B
:103F3000BCCF20912A048F81382F329F312D11243C
:103F4000832F632D742D0E948E1B462F282F672FE1
:103F5000C3010E94351B8E818F5F8E8380CF81E0ED
:103F60001C3408F080E02796E2E10C94FE32A0E0D9
:103F7000B0E0EDEBFFE10C94EC328C01C0913C0120
:103F8000C295C07FD0E1DC0FDD3408F0DCE4209185
:103F90002B0431E0230F08F42FEF30E040E050E035
:103FA0006FEF7FEF80E090E00E94C7337901CD177B
:103FB00008F041C0CC2ED12CF601E055FD4F908188
:103FC00080913D018923A9F190912D04915097FD95
:103FD00015C0492F092E000C550BFA01E35DFB4F6C
:103FE0008589C813F3CF440F551FFA01E35DFB4FDA
:103FF000278D30A12E153F0548F701C0970160912C
:104000002B0441E0640F08F46FEFC9010E94841B88
:10401000AC01609128047091290480912A04F80170
:1040200009950E948E1B462F282F672FC6010E94DC
:10403000351BCF5FBCCF81E0DC3408F080E0CDB72A
:10404000DEB7E8E00C940833A0E0B0E0EAE2F0E28A
:104050000C94ED328C01C0913C01C295C07FD0E13F
:10406000DC0FDD3408F0DCE460912B046695669586
:1040700021E0620F08F46FEF8091230490912404F3
:104080000E94841BD82ECD17F0F4EC2EF12CF701F2
:10409000E055FD4F908180913D01892391F0609121
:1040A00028047091290480912A042D2D4C2FF801A9
:1040B00009950E948E1B462F282F672FC7010E944B
:1040C000351BCF5FE0CF81E0DC3408F080E0CDB776
:1040D000DEB7E7E00C940933A3E0B0E0E2E7F0E2FA
:1040E0000C94EC327C01162FD42EC22E80918604C3
:1040F0008430F9F4E0917B04F0917C04309709F46A
:10410000B7C0C701019763E070E00E942A34CB0179
:10411000880F991F860F971F19834A83CB824E2DD4
:10412000481B9E012F5F3F4FBC0181E694E009953B
:10413000ACC082E0E816F10409F44FC083E0E81651
:10414000F10431F081E0E816F10409F08DC078C087
:10415000862F807F803AE1F050F48038A1F08039DA
:1041600009F086C0E0916504F091660425C0803EA8
:10417000A1F0803FB9F0803B09F07AC0E091630480
:10418000F091640419C0E0916704F091680414C0D0
:10419000E0916904F0916A040FC0E0916B04F09122
:1041A0006C040AC0623F09F063C0E0916D04F091B5
:1041B0006E04309731F45CC0309709F459C0123F57
:1041C00021F42C2D4D2D62EF04C02C2D4D2D612F8F
:1041D0006F7081E694E0099558C0862F807F803DFE
:1041E00051F0803F69F0803C09F042C0E0916F04DB
:1041F000F091700415C0E0917104F091720410C048
:10420000633F29F4E0917304F091740406C0613FA8
:1042100079F5E0917504F0917604309739F428C06F
:10422000309731F1812F8D7F813F19F44D2D612F12
:1042300003C04D2D612F6F7081E694E0099525C074
:10424000683F28F0E0917704F091780406C0663F5B
:1042500079F4E0917904F0917A04309749F0612F74
:1042600081E694E0099511C084E0E816F104D8F4E1
:10427000E0917D04F0917E04309739F00C2D2D2DC6
:10428000412FB70181E694E00995E0917F04F09118
:104290008004309759F00C2D2D2D412FB70181E668
:1042A00094E0099503C0E12CF12CE2CF2396E8E0DD
:1042B0000C940833EF92FF920F931F93CF93DF93E9
:1042C0007C018B010E944D25811119C0E701011568
:1042D0001105A1F08091E80085FD0AC08091E800F9
:1042E0008E778093E8000E944D25882381F307C0D4
:1042F00089918093F10001501109E9CF80E0CDB799
:10430000DEB7E6E00C940A33EF92FF920F931F930F
:10431000CF93DF937C018B010E944D25811119C041
:10432000E70101151105A1F08091E80085FD0AC0A3
:104330008091E8008B778093E8000E944D258823C8
:1043400081F307C08091F100899301501109E9CFF1
:1043500080E0CDB7DEB7E6E00C940A33AAE2B0E025
:10436000E4EBF1E20C94F132EBE1F4E08091F10046
:10437000819344E0E332F407C9F780911C04833051
:1043800009F463C030F4813071F0823009F49DC0CB
:10439000B4C08A3009F489C08B3009F46EC089300A
:1043A00009F0ABC020C080911B04813A09F0A5C080
:1043B0008091E800877F8093E80080911F049091AE
:1043C0002004892B21F468E08FE094E003C060E0D2
:1043D00080E090E070E00E9406278091E8008B77F3
:1043E0008093E8008AC080911B04813209F085C067
:1043F00080911F0490912004009719F0029709F012
:104400007CC08091E800877F8093E8008091E8007D
:1044100082FD05C0809119048111F8CF6EC02091F2
:10442000F3008091F20090E0922B029731F480919A
:10443000F100813011F0863021F48091F1008093F9
:104440000E048091E8008B7754C080911B04813A60
:1044500009F053C080911F0490912004892B09F02A
:104460004CC08091E800877F8093E8008091E8004D
:1044700080FFFCCF80913B0137C080911B048132CB
:10448000E1F580911F0490912004892BB1F5809172
:10449000E800877F8093E8000E94802580911D04BA
:1044A00080933B010E94932D28C080911B04813290
:1044B00021F58091E800877F8093E8000E948025A5
:1044C00080911E0480930D0418C080911B04813AD2
:1044D000A1F48091E800877F8093E8008091E80054
:1044E00080FFFCCF80910D048093F1008091E80063
:1044F0008E778093E8000E9480258091E80083FFFA
:10450000EAC180911B0490911C04492F50E04A306D
:10451000510508F0E0C1FA01EB58FF4F0C945234FA
:10452000803821F0823809F0D6C108C08091170484
:1045300090911804992389F082600FC080911F0424
:104540008F70873008F0C7C18093E9008091EB003D
:1045500085FB882780F91092E9009091E800977F09
:104560009093E8008093F1001092F10071C1282F20
:104570002D7F09F0B0C1882319F0823061F0ABC102
:1045800080911D04813009F0A6C1933009F080E0CC
:10459000809318042EC080911D0481112AC080913F
:1045A0001F048F702FEF280F263008F094C18093DE
:1045B000E9002091EB0020FF1CC0933021F4809192
:1045C000EB00806214C09091EB0090619093EB003F
:1045D00021E030E0A90102C0440F551F8A95E2F79F
:1045E0004093EA001092EA008091EB00886080938B
:1045F000EB001092E9008091E800877F8093E8004B
:104600000E94802568C1811166C110911D041F7729
:104610008091E3008078812B8093E3008091E80013
:10462000877F8093E8000E9480258091E80080FFCA
:10463000FCCF8091E30080688093E300111102C0F9
:1046400082E001C083E08093190445C18058823024
:1046500008F041C120911D0430911E042C3D53E00F
:10466000350779F583E08A838AE289834FB7F89426
:10467000DE01139620E03EE051E2E32FF0E050939C
:104680005700E49120FF03C0E295EF703F5FEF70A9
:104690008E2F90E0EA3010F0C79601C0C0968D933F
:1046A0009D932F5F243149F74FBF8091E800877FAA
:1046B0008093E8006AE270E0CE0101960E9406272E
:1046C000B5C080911F0490912004432F552743309B
:1046D0005105A9F068F44130510509F40BC142308D
:1046E000510509F0F8C08FEB90E0E2E4F3E04BC035
:1046F0004132510529F14232510589F1ECC0C9011D
:10470000992781309105A1F058F0029709F0E3C094
:10471000E3E1F4E0E4918E2F90E0E3E1F4E030C0D7
:10472000E1E4F4E0E4918E2F90E0E1E4F4E028C0CD
:10473000E1E3F4E0E4918E2F90E0E1E3F4E020C0C7
:104740008330910508F0C7C0880F991FFC01E2541F
:10475000FE4F0190F081E02D89E090E014C083309D
:10476000910508F0B8C0FC01EE0FFF1FE854FE4FA2
:104770000190F081E02DDC01AB54BE4F8C9190E0B4
:10478000009709F4A8C02091E800277F2093E80053
:1047900020912104309122048217930708F49C0190
:1047A00040E02115310589F180911904882309F42D
:1047B0003DC08530D9F18091E80083FD37C08091FC
:1047C000E80082FD2FC08091E80080FFEACF409191
:1047D000F3008091F20090E0942B2115310559F0FF
:1047E0008830910540F444914093F1003196215076
:1047F00031090196F2CF41E0089709F040E080913D
:10480000E8008E778093E800CCCF4111CDCF0AC06D
:1048100080911904882351F0853041F08091E8009F
:1048200083FD04C08091E80082FFF2CF8091E80010
:104830008B778093E8004FC0803809F04CC080919E
:10484000E800877F8093E80080911A048093F1004C
:104850008091E8008E77D2CE81113DC080911D04F9
:1048600090911E0499270297B4F58091E800877F04
:104870008093E80010911D0410931A040E94802573
:10488000111106C08091E30087FD02C081E001C0E4
:1048900084E08093190442E061EC81E00E949F254E
:1048A00042E261EC84E00E949F2542E261EC82E0FA
:1048B0000E949F2542E260EC83E00E949F2542E334
:1048C00061E885E00E949F2542E361E886E00E945E
:1048D0009F25809119048091E80083FF10C080918A
:1048E000E800877F8093E8008091EB0080628093EE
:1048F000EB0005C082E190E0E1E0F4E044CFAA964D
:10490000E3E00C940D330895089580910E0408950A
:104910000895089580935C0570935E0560935D052E
:10492000809119048430F9F48093E9008FEF90911D
:10493000E800815095FD06C095ED9A95F1F70000CD
:104940008111F5CF8091E80085FF0DC040E050E077
:1049500063E070E08CE595E00E945A218091E800C8
:104960008E778093E8000895BC0184E00E948A2439
:104970000895BC0183E00E948A240895CF93DF93B9
:1049800021E02093E9002FEF3091E800215035FD20
:1049900006C035ED3A95F1F700002111F5CF2091D1
:1049A000E80025FF14C0EC0140E050E068E070E052
:1049B0000E945A218091E8008E778093E80088E079
:1049C000FE01AFE0B4E001900D928A95E1F7DF912E
:1049D000CF9108951F920F920FB60F9211242F932B
:1049E0003F934F935F936F937F938F939F93AF9377
:1049F000BF93CF93DF93EF93FF93C091E900CF7004
:104A00008091EC00D82FD17080FDD0E81092E900A1
:104A10008091F000877F8093F00078940E94AE210F
:104A20001092E9008091F00088608093F000CD2B17
:104A3000CF70C093E900FF91EF91DF91CF91BF91CB
:104A4000AF919F918F917F916F915F914F913F9126
:104A50002F910F900FBE0F901F901895E8EDF0E08A
:104A600080818E7F80831092E2001092DA00109293
:104A7000E100A0EEB0E08C9181608C9380818F7713
:104A8000808319BCA7EDB0E08C918E7F8C938081E0
:104A90008F7E808310925F0508952091E40030910D
:104AA000E50095E64091EC00842F817040FF23C023
:104AB0008091E80080FD1DC080911904882399F041
:104AC000853099F08091EB0085FD11C04091E400A4
:104AD0005091E5002417350729F3915011F09A0100
:104AE000E1CF84E0089582E0089583E0089581E0B5
:104AF000089580E008954091E80042FFDDCF0895D9
:104B000080911B0487FF11C08091E80082FD05C0E1
:104B1000809119048111F8CF11C08091E8008B7742
:104B20000BC080911904882349F08091E80080FF30
:104B3000F8CF8091E8008E778093E8000895982F51
:104B4000973068F59093E900981739F07091EC0070
:104B50002091ED005091F00003C0242F762F50E0FB
:104B600021FD02C09F5FECCF3091EB003E7F309380
:104B7000EB003091ED003D7F3093ED003091EB0084
:104B800031603093EB007093EC002093ED00509374
:104B9000F0002091EE0027FDE5CF80E008958F70B2
:104BA0008093E90081E00895A0E0B0E0EAEDF5E24D
:104BB0000C94EC32C8EDD0E088818F7E8883E7EDDD
:104BC000F0E080818160808384E082BF81E0809317
:104BD0005F0588818E7F888302EE10E0F8011082E5
:104BE0001092DA0081EEC82ED12CF6011082888155
:104BF0008F77888388818068888388818F7D888388
:104C000019BC1092190410921A04109218041092F0
:104C1000170490EEE92EF12CF70180818B7F8083C1
:104C200088818160888342E060E080E00E949F2567
:104C3000F60180818E7F8083F8018081816080838E
:104C4000808188608083F70180818E7F8083888166
:104C500080618883CDB7DEB7E8E00C9408331F92FB
:104C60000F920FB60F9211242F933F934F935F93A0
:104C70006F937F938F939F93AF93BF93EF93FF9324
:104C80008091E10082FF09C08091E20082FF05C0AF
:104C90008091E1008B7F8093E1008091DA0080FFBA
:104CA0002AC08091D80080FF26C08091DA008E7FD4
:104CB0008093DA008091D90080FF18C080E189BD1F
:104CC00082E189BD09B400FEFDCF81E08093190423
:104CD00080915F0581110FC00E942E250E94D4256E
:104CE0008091E20084608093E20005C019BC1092BC
:104CF000190410925F058091E10080FF17C0809138
:104D0000E20080FF13C08091E2008E7F8093E2007A
:104D10008091E20080618093E2008091D8008062FF
:104D20008093D80019BC85E0809319048091E1003C
:104D300084FF30C08091E20084FF2CC080E189BDF7
:104D400082E189BD09B400FEFDCF8091D8008F7D3E
:104D50008093D8008091E1008F7E8093E100809164
:104D6000E2008F7E8093E2008091E2008160809378
:104D7000E20080911A04882311F084E007C080913A
:104D8000E30087FD02C081E001C083E08093190445
:104D9000809119048091E10083FF27C08091E20097
:104DA00083FF23C08091E100877F8093E10082E050
:104DB0008093190410921A048091E1008E7F8093F1
:104DC000E1008091E2008E7F8093E2008091E2001A
:104DD00080618093E20042E060E080E00E949F25D5
:104DE0008091F00088608093F000FF91EF91BF9177
:104DF000AF919F918F917F916F915F914F913F9173
:104E00002F910F900FBE0F901F90189520912104A5
:104E1000309122042617370748F06115710539F4DF
:104E20002091E8002E772093E80001C0B901FC0131
:104E300020E06115710579F1809119048823F1F161
:104E40008530F1F18091E80083FD3CC08091E8005D
:104E500082FD2EC08091E80080FFEBCF2091F3000F
:104E60008091F20090E0922B6115710551F088302D
:104E7000910538F421912093F10061507109019658
:104E8000F3CF21E0089709F020E08091E8008E77C9
:104E90008093E800CECF2111CFCF0AC080911904B2
:104EA000882361F0853061F08091E80083FD0AC0BD
:104EB0008091E80082FFF2CF80E0089582E00895BB
:104EC00083E0089581E00895982F907F903BF1F062
:104ED00038F49039D9F0903AC9F09038C9F416C036
:104EE000903D49F018F4903C31F012C0903E71F0C2
:104EF000903F19F00DC082E00895815F8F3040F43B
:104F0000E82FF0E0E450FD4F8081089583E008959C
:104F100080E00895A7E0B0E0E0E9F7E20C94EB321E
:104F20007E0125E0E20EF11C8C0108511F4F80919B
:104F30001904843009F06BC0809145018F70809313
:104F4000E9008091E80082FF62C08091E80085FF5F
:104F50005EC040E050E064E070E0CE0101960E9447
:104F600084218091E80085FD05C08091E8008B7761
:104F70008093E800DA808D2D0E946427282FDD823F
:104F80008B818E838C818F8321110EC08981843027
:104F900041F0873031F0863031F0853041F621E044
:104FA00003C023E001C022E067018C2D8E19821717
:104FB00008F0BDCFD601BD906D013FB7F894D80180
:104FC0001196EC911197F0E0CF01019612966C9139
:104FD00070E00E943E34D8014C9150E08417950750
:104FE000A1F0D80113968D919C911497E80FF91FA9
:104FF000B08211968C91119790E0019612966C9167
:1050000070E00E943E34F80181833FBFCECF2796E7
:10501000E9E00C940733A4E0B0E0E1E1F8E20C949D
:10502000ED327B01142FD22E4A832B830C83842FE5
:105030000E94642781111DC082E0E816F10479F016
:1050400083E0E816F10429F081E0E816F10481F527
:105050000BC0073F11F487E00AC084E008C087EF67
:10506000D812FBCF86E003C0173FB9F785E08983EC
:1050700003C012951F701983809119048430C1F404
:10508000809140018F708093E90040E050E064E03F
:1050900070E0CE0101960E945A21811109C08091D1
:1050A000E80085FD05C08091E8008E778093E800D8
:1050B0002496E7E00C94093387E797E7909301087B
:1050C000809300089AE088E10FB6F894A895809341
:1050D00060000FBE90936000FFCF78941F920F92F4
:1050E0000FB60F9211248F939F93AF93BF9380912C
:1050F000580590915905A0915A05B0915B0501960C
:10510000A11DB11D8093580590935905A0935A0590
:10511000B0935B05BF91AF919F918F910F900FBEA0
:105120000F901F9018959C014FB7F89480915805E7
:1051300090915905A0915A05B0915B054FBF821B14
:10514000930B08952FB7F894609158057091590505
:1051500080915A0590915B052FBF08952FB7F89461
:105160008091580590915905A0915A05B0915B0521
:105170002FBF08951F920F920FB60F9211248F9395
:105180009F93AF93BF9380915705811113C0809176
:10519000580590915905A0915A05B0915B0541962B
:1051A000A11DB11D8093580590935905A0935A05F0
:1051B000B0935B05BF91AF919F918F910F900FBE00
:1051C0000F901F9018959C01FC0132969FEF80E094
:1051D0004191461789F09F3F19F4411101C0982F62
:1051E0008F5F8630A9F79F3F39F0F901E90FF11D74
:1051F00097FDFA95628308950895209155053091A1
:1052000056052817390771F0909356058093550578
:10521000E0915305F0915405309721F00084F18519
:10522000E02D0995089520915105309152052817D8
:10523000390771F09093520580935105E091530521
:10524000F0915405309721F00680F781E02D099503
:1052500008950E942415882359F0E0915305F09198
:105260005405309729F00190F081E02D09950895BB
:1052700080E008950F931F93CF93DF93C42FD22F15
:10528000FC0182818823B1F0409350050E94AE2832
:1052900090934F0580934E0580E28C0F883008F084
:1052A0004DC0C77081E001C0880FCA95EAF70E941F
:1052B000AA2D44C080915005481330C080914E05FE
:1052C00090914F050E949328883C910538F510E293
:1052D0001D0FCD17B9F080E28C0F883040F4C770F5
:1052E00081E001C0880FCA95EAF70E949F2D18300F
:1052F00010F581E09D2F977001C0880F9A95EAF70D
:105300000E94AA2D802F0E94B42D1830B8F4D770B7
:1053100081E001C0880FDA95EAF70AC080E28C0FBD
:10532000883060F4C77081E001C0880FCA95EAF741
:105330000E949F2D03C0802F0E94B42DDF91CF913A
:105340001F910F910895CF93DF93C7ECD2E060E0F7
:10535000CE010E94A3332196C11584E0D807B9F786
:10536000DF91CF910895843048F47C3038F4673071
:1053700028F4462F672F0E94522E089580E090E077
:105380000895A0E0B0E0E7ECF9E20C94EA32A12C39
:10539000E12CF12CB12C00E010E0C0E0D0E067017E
:1053A000C00ED11EFE01EE0FFF1FEC0DFD1DEB5BCD
:1053B000FB4F259134914C2F6B2D8A2D0E942B2E63
:1053C0002196C730D10571F7025F1F4FB3948CE06F
:1053D000B812E3CF88EAE80EF11CA39484E0A81287
:1053E000D9CFCDB7DEB7EAE00C94063368EE7EEF96
:1053F00080E090E00E94C13360E082E090E00E9493
:10540000A33360E083E090E00E94A3331092CB05C9
:1054100060E084E090E00E94A33364E082E290E0E8
:105420000E94A33360E085E090E00E94A33360E037
:1054300086E090E00E94A3336FEF87E090E00E9447
:10544000A33340E050E0BA0188E090E00E94B53319
:1054500060E08DE090E00E94A33340E050E0BA01AC
:1054600088E190E00E94B53360E087E190E00E941F
:10547000A33340E050E0BA018CE190E00E94B533E4
:1054800060E070E080E290E00E94C13340E050E0D4
:10549000BA0188E190E00E94B53380E00E949C2E22
:1054A0000E94BB2E40E050E0BA018FE090E00E94E5
:1054B000B5330E94B21EE9E0F4E08081807F826013
:1054C0008083EAE0F4E080818078856780830E94B1
:1054D000A62F809104068160809304068FE7809355
:1054E0002B0421E04FEF6FEF8AEA90E00E94152F26
:1054F00061E08AE00E94762F08959091CA0580911C
:10550000C905892B8093600548E050E061EC75E0A7
:1055100080E695E00E945F34892BA9F088E0E0E600
:10552000F5E0A1ECB5E001900D928A95E1F7E091EC
:105530005305F0915405309731F00280F381E02D4E
:1055400080E695E00995089580E090E00E94132997
:1055500080E090E00E94FD281092C9050E947D2AFB
:1055600008958091C00590918F05891719F08F5F7C
:105570008770FBCF08950F931F93CF93DF93809194
:105580008E0582958F7009F05AC080918B05882313
:1055900009F455C08091C00510918F05609189056F
:1055A00070918A05C0918C05D0918D0591E06F3F77
:1055B00009F090E0292F06E0811709F440C02097F8
:1055C00021F07F3F21F030E003C031E001C0322FF5
:1055D00090E030FD31C0089FF001099FF00D1124CB
:1055E000DF01A057BA4F11963C911197371324C091
:1055F0003C91361321C012963C91129731111CC078
:1056000013964D915C9114974C1B5D0B483C5105D2
:1056100098F480918E058F70806180938E05EB5693
:10562000FA4F80818F708061808389E895E00E94C5
:10563000D4040E94B12A03C001968770BDCFDF91C8
:10564000CF911F910F910895CF92DF92FF920F9308
:105650001F93CF93DF936C01009160048091CB0581
:10566000082BC7E0D0E010E0C8010C2E02C09595D1
:1056700087950A94E2F780FD04C02197A8F7F12CE2
:1056800009C0FC2EB6018C2F0E94B3290E94A417DA
:10569000019799F38F2DDF91CF911F910F91FF907B
:1056A000DF90CF900895CF93DF93EC010E94242BDD
:1056B000BE010E94B3290E94A417DF91CF910895E3
:1056C000FC01808191810E94532B92959F709630AE
:1056D00079F010F4925001C09A50923068F4803FF3
:1056E00069F018F4883E40F409C0843F29F406C0EC
:1056F000883E20F0813F11F080E0089581E0089518
:10570000A1E1B0E0E6E8FBE20C94E9328C0185E02F
:10571000F801DE011D9601900D928A95E1F7F801DE
:10572000E2809091890560918A0540918C055091A5
:105730008D054115510531F06F3F31F481E09F3FF8
:1057400019F403C081E001C080E0F82FF1709F2EB2
:1057500080FD1BC1F80130812181C380D48089E89C
:10576000A82E85E0B82EF0908B05F601E41BF50B12
:10577000FF2009F4C7C080918E05E83CF10508F0D0
:1057800092C0482F407F09F051C0621311C093139B
:105790000FC0FE2CE1100CC08F70806180938E05CD
:1057A000C5010E94D40480918E05F80185832AC129
:1057B000C114D10431F02F3F31F481E03F3F19F49F
:1057C00003C081E001C080E080FD03C081E08E2540
:1057D00002C080E090E0F82FF170FF2E80FF1CC027
:1057E0008091C00540918F0556E0841709F4E8C008
:1057F00090E0589FF001599FF00D1124E057FA4FA7
:105800006181261306C06081631303C06281E612C2
:1058100003C001968770E9CFFE2CEE2009F4F2C098
:1058200080918E05816080938E0549C0621306C009
:10583000931304C0E11002C0F80186C0C8010E94A1
:10584000602B882351F1EE2041F120918E05822FAB
:1058500082958F7090E0029774F080918905909105
:105860008A0598878F831986DB86CA862C87CE01A6
:1058700007960E94D40486E0F801A9E8B5E00190FB
:105880000D928A95E1F70E94BB2A0AC06217C9F0FF
:10589000C8010E94602B81111EC0C8010E94D4045F
:1058A000FF24F394AFC0482F407F81F789E895E04B
:1058B0000E94D40486E0F50111928A95E9F7F12C53
:1058C000A1C09313E5CFE110E3CFF8018583C801B0
:1058D0000E94D40454C0EE2001F320918E05822F43
:1058E00082958F7090E0029734F2809189059091B3
:1058F0008A059A8389831B82DD82CC822E83CE0126
:105900000196B7CFE83CF105D0F5FE2CEE2029F248
:10591000621327C0931325C020918E0520FD18C067
:10592000822F82958F70482F50E04115510581F0EC
:10593000F80125834F30510541F08F5F982F9295E4
:10594000907F822F8F70892B8583C8010E94D40499
:1059500086E0F801A9E8B5E001900D928A95E1F79B
:1059600051C0C8010E94602B811185CF80918E05A6
:10597000816080938E05C8010E94D40443C086E0F4
:10598000F50111928A95E9F73DC0EE2009F485CF23
:10599000C8010E94602BF82E882309F47ECF86E090
:1059A000F801A9E8B5E001900D928A95E1F78091A0
:1059B000890590918A050E94532B0E94BB2A22C020
:1059C0003D872E878D859E850E94532B292F2295FA
:1059D0002F70223028F49F7039F0811105C00BC060
:1059E000243028F49F7049F4805E883020F0C8018C
:1059F0000E94D4049F2CF92C05C0F8019581907F5A
:105A000099F7F9CF8F2D6196EBE00C940533292F90
:105A10009C3078F5873068F590E037E0239F800D63
:105A2000911D1124682F677023E0969587952A951C
:105A3000E1F7FC01EE0FFF1FE80FF91FE859FA4FDD
:105A400040E050E080E0219130E0062E02C0369523
:105A500027950A94E2F721703327042E01C0220F04
:105A60000A94EAF7822B4F5F5F4F4330510559F795
:105A7000089580E00895292F9C3088F5873078F5C7
:105A800090E037E0239F800D911D1124282F27706F
:105A900051E001C0550F2A95EAF723E096958795C6
:105AA0002A95E1F7FC01EE0FFF1FE80FF91FE859F7
:105AB000FA4F20E030E070E04081CB01022E02C0BE
:105AC000969587950A94E2F78170819584278523BE
:105AD000842781932F5F3F4F2330310569F7089565
