:100000000C9444040C947C040C947C040C947C04A8
:100010000C947C040C947C040C947C040C947C0460
:100020000C947C040C947C040C9444280C941629A5
:100030000C94E3220C947C040C947C040C947C04BB
:100040000C947C040C947C040C947C040C947C0430
:100050000C947C040C9441230C947C040C947C043C
:100060000C947C040C947C040C947C040C947C0410
:100070000C947C040C947C040C947C040C947C0400
:100080000C947C040C947C040C947C040C947C04F0
:100090000C947C040C947C040C947C040C947C04E0
:1000A0000C947C040C947C040C947C0419081908AE
:1000B00045084508AD08A709A709A709CB083309D2
:1000C000440944094B1D4E1D6F1D801D881D931D45
:1000D000961D991D9C1DE21DE21D9F1DA21DA71DC1
:1000E000B41DC11DC41DC81DD51D7E29A5299D2A6D
:1000F000A5299D2AF129142A9D2A6B2A7A2A2900EA
:1001000000003A003B003C003D003E003F00400044
:1001100041004200430044004500460047004800BB
:1001200035001E001F0020002100220023002400B3
:100130002500260027002D002E002A0049004A0035
:100140004B002B0014001A000800150017001C00BB
:1001500018000C00120013002F00300031004C007A
:100160004D004E00390004001600070009000A0087
:100170000B000D000E000F003300340028000000BB
:10018000000000000000E10000001D001B00060050
:100190001900050011001000360037003800E50096
:1001A0000000000052000000E000E300E200000058
:1001B00000002C00000000000000E6000151650076
:1001C000E4005000000051004F00005C00000100FE
:1001D0000100010001000100010001000100010017
:1001E000010001000100CD5CCE5CCF5C010001008C
:1001F00001000100010001000100010001000100F7
:100200000100010001000100C55CC75CC95C010080
:1002100001000100010001000100010001000100D6
:1002200001000100010001000100C65CC85CCA5C5D
:1002300001000100010001000100010001000100B6
:1002400001000100010001000100000000000000A9
:100250000000010000000100010001000100010098
:10026000145C010001000100010001000000000019
:10027000CC5C000001000100010000000000010052
:100280000000000000000100010001000100C45C4A
:100290000000C25CC35C010000000100010001001D
:1002A0000100010001000100010001000100010046
:1002B0000100010001000100010001000100010036
:1002C0000100010001000100010001000100010026
:1002D0000100010001000100010001000100010016
:1002E0000100010001000100010001000100010006
:1002F00001000100010001000100010001000100F6
:1003000001000100010001000100010001000100E5
:1003100001000100010000000000000000000100D9
:1003200000000100010001000100010001000100C6
:1003300001000100010001000000000001000000B8
:1003400001000100010000000000010000000000A9
:100350000000010001000100010001000000010097
:100360000100010000000100010001000100010086
:100370000100010001000100010001000100010075
:100380000100010001000100010001000100010065
:100390000100010001000100010001000100010055
:1003A0000100010001000100010001000100010045
:1003B0000100010001000100010001000100010035
:1003C0000100010001000100010001000100010025
:1003D0000100010001000100010001000100010015
:1003E000010000000000000000000100000001000A
:1003F00001000100010001000100010001000100F5
:1004000001000100000000000100000001000100E7
:1004100001000000000001000000000000000100D9
:1004200001000100010001000000010001000000C6
:100430000000000000002A2B28000000000000003F
:1004400000000000000000000029000000002C1E39
:100450003420212224342627252E362D3738271EF6
:100460001F202122232425263333362E37381F041C
:1004700005060708090A0B0C0D0E0F1011121314B4
:1004800015161718191A1B1C1D2F3130232D350472
:1004900005060708090A0B0C0D0E0F101112131494
:1004A00015161718191A1B1C1D2F3130354C00005A
:1004B000000000000000000000000000000000003C
:1004C000000000000000000000000000000000002C
:1004D00000007E0F00D4FFFFFFC70000007800047B
:1004E0007F3F1F643214643214783C1E1E140A05C8
:1004F0002223252628292A2C2D2F30323335363831
:100500003A3B3D3E4042434547494A4C4E50515389
:100510005557595A5C5E6062646668696B6D6F71AD
:10052000737577797B7D7F81838587898A8C8E90AF
:10053000929496989A9C9E9FA1A3A5A7A8AAACAEB8
:10054000AFB1B3B4B6B8B9BBBCBEBFC1C2C3C5C6F8
:10055000C7C9CACBCCCDCED0D1D2D2D3D4D5D6D7A1
:10056000D7D8D9D9DADADBDBDBDCDCDCDCDCDDDDDF
:10057000DDDDDCDCDCDCDCDBDBDBDADAD9D9D8D7CF
:10058000D7D6D5D4D3D2D2D1D0CECDCCCBCAC9C771
:10059000C6C5C3C2C1BFBEBCBBB9B8B6B4B3B1AFA8
:1005A000AEACAAA8A7A5A3A19F9E9C9A9896949248
:1005B000908E8C8A89878583817F7D7B797775731F
:1005C000716F6D6B6968666462605E5C5A595755FD
:1005D0005351504E4C4A4947454342403E3D3B3AB9
:1005E0003836353332302F2D2C2A29282625232240
:1005F000FFAA7F5540000101010101010101010233
:1006000002020202020202020303030303030303C2
:10061000040404040404040505050505060606068D
:1006200006070707070708080808090909090A0A49
:100630000A0B0B0B0C0C0C0D0D0D0E0E0E0F0F0FED
:100640001010111111121213131414151516161778
:1006500017181819191A1A1B1B1C1D1D1E1E1F20E6
:1006600020212222232424252626272829292A2B33
:100670002C2D2D2E2F303132323334353637383958
:100680003A3B3C3D3E3F4041424344454647484952
:100690004A4C4D4E4F50515354555658595A5B5D24
:1006A0005E5F616264656668696B6C6D6F707273C2
:1006B0007577787A7B7D7E8082838587888A8C8E29
:1006C0008F91939596989A9C9EA0A2A3A5A7A9AB5B
:1006D000ADAFB1B3B5B7BABCBEC0C2C4C6C9CBCD4D
:1006E000CFD1D4D6D8DBDDDFE2E4E7E9EBEEF0F3FF
:1006F000F5F8FAFDFF340343006100700073005504
:10070000006E006C006F0063006B006500640020E9
:1007100000430055003800300020007600320020F1
:100720000041004E005300490000001A03430061DD
:10073000007000730055006E006C006F0063006B6A
:10074000006500640000000403090409025B000363
:100750000100A0FA090400000103010100092111B0
:10076000010001224000070581030800010904017E
:1007700000020300000009211101000122220007EC
:10078000058203200001070503032000010904027C
:10079000000103000000092111010001226D000782
:1007A00005840320000112010002000000085543E7
:1007B00081000100010200010660FF0961A1010939
:1007C00062150026FF009520750881020963150057
:1007D00026FF00952075089102C005010980A1013E
:1007E000850319012AB700150126B7009501751078
:1007F0008100C0050C0901A101850419012AA0028C
:10080000150126A002950175108100C00501090699
:10081000A1018506050719E029E7150025019508BE
:10082000750181020507190029EF1500250195F0D2
:1008300075018102050819012905950575019102C7
:10084000950175039101C005010906A1010507196C
:10085000E029E715002501950875018102950175CC
:100860000881010507190029FF150026FF009506DC
:100870007508810005081901290595057501910282
:10088000950175039101C00011241FBECFEFDAE07E
:10089000DEBFCDBF04B603FE18C08091270490913F
:1008A0002804A0912904B0912A048730904BA740D6
:1008B000B04B59F410922704109228041092290486
:1008C00010922A04E0E0F8E3099511E0A0E0B1E01D
:1008D000E0E1F8E502C005900D92A03DB107D9F71F
:1008E00024E0A0EDB1E001C01D92A732B207E1F70C
:1008F0000E94CF140C94062C0C94000081E0089503
:1009000081E008950E948004089508950E9485045E
:100910000895A5E0B0E0EFE8F4E00C94702B498373
:100920005A833091D30189819A81311114C0662391
:1009300059F0222349F00E944E0B182F682F89810D
:100940009A810E942A0B03C00E943C0B182F6981D8
:100950007A81812F04C00E944E0B69817A810E94A6
:10096000FB1F2596E3E00C948C2BFC01262F408185
:1009700051816281738184810E948904089581E09C
:100980000895CF93DF93EC0160E00E94B504BE01AF
:100990000E948604DF91CF910895E1E0F0E0DF014D
:1009A00002C0AA0FBB1F6A95E2F7BD01DF0102C0BA
:1009B000AA0FBB1F4A95E2F7AD01462B01C0EE0F0F
:1009C0002A95EAF7942F9823491302C08E2B089595
:1009D000E0958E230895242F462F682F8091FB01E8
:1009E0000E94CD040E94890A08950E946E13089502
:1009F0000E946813089508950E94260A0E94FB042D
:100A00002FEF84E39CE0215080409040E1F700C04C
:100A1000000008950E94FC040E94672308950E942C
:100A2000FC040E948B2308950F931F93CF93DF93B1
:100A30008C0161E00E94B504EC01B8010E94A81C81
:100A4000882309F44EC0B801CE010E948204882395
:100A500009F447C0B801CE010E944521882309F45A
:100A600040C0B801CE010E94ED1D8823D1F1B8012C
:100A7000CE010E94AB208823A1F1B801CE010E94D3
:100A8000431B882371F1F8018281882331F1CA3533
:100A90008DE5D807E9F050F4C115FCE5DF0779F0E2
:100AA000CE3DDC45D1F40E9443100CC0CC35EDE5C1
:100AB000DE0759F080F0C73ADD4521F00EC00E94F4
:100AC0000A050FC00E940F050CC00E947A0F05C0D6
:100AD0000E94840F02C00E94880FC8010E947E04F9
:100AE00001C080E0DF91CF911F910F9108950E9486
:100AF00057060E94D9220895A0E0B0E0E2E8F5E0B0
:100B00000C946C2BE82FF0E0E25DFB4FD490282F83
:100B100026952695269530E0F901E253FB4F049186
:100B2000877010E0082E02C0159507950A94E2F729
:100B300001701127F901E254FB4FE490F12C082ECB
:100B400002C0F594E7940A94E2F791E0E922FF24C9
:100B5000F901E255FB4FC491D0E002C0D595C7958D
:100B60008A95E2F7C170DD270115110519F081EEB4
:100B70000E94AE06E114F10419F086EE0E94AE0662
:100B80008D2D0E94C807E114F10419F086EE0E9431
:100B90004F070115110519F081EE0E944F07CD2B6B
:100BA00019F08CE20E94C807CDB7DEB7E7E00C94DD
:100BB000882BEF92FF920F931F93CF93DF93EC015B
:100BC000162F0AE08881882309F455C0813009F086
:100BD00043C08981813041F47E0182E0E80EF11C3E
:100BE0008A810E94C80709C0823049F47E01E2E090
:100BF000EE0EF11C8A810E94AE06E7012FC0833001
:100C000041F47E01F2E0EF0EF11C8A810E944F0751
:100C1000F4CF843011F0219621C02A81229680E001
:100C200090E030E0205331092A30310558F4089F14
:100C3000A001099F500D1124C901840F951F219611
:100C40002881EFCF009751F0EFE9FFE03197F1F7FE
:100C500000C000000197F6CF0E947C052196812FED
:100C6000882309F4AFCFEFE9FFE03197F1F700C037
:100C700000008150F5CFCDB7DEB7E6E00C94892BAC
:100C800060E00E94D905089508950E9444060895E1
:100C900081E008950E94480608950895CF93C82FD3
:100CA0000E9445068C2F0E944A06CF9108950E940B
:100CB000A1210E944E0608950E94A1219091D20187
:100CC000891721F08093D2010E944E060895ABE06F
:100CD000B0E0EDE6F6E00C94712B4F8358876987FE
:100CE0007A878B8761110E94C20E9E012F5F3F4F52
:100CF00086E0F90111928A95E9F785E0FE013796C1
:100D0000D90101900D928A95E1F789819A814C81F0
:100D10005D81452B31F09F3F31F491E08F3F19F415
:100D200003C091E001C090E090FF09C049815A8161
:100D30006B817C818D819E810E94EE0D05C0C90171
:100D40000E94BF048111F2CF2B96E2E00C948D2B10
:100D5000FC01808191810E947B0B0895CF938823B1
:100D600009F49BC0C82F8238C1F40E94A12181FDE3
:100D700094C069E380910001909101010E948A2250
:100D80000E94E60E2FEF81EE94E0215080409040CB
:100D9000E1F700C0000069E319C0833801F50E9443
:100DA000A12180FD7AC063E580910001909101014D
:100DB0000E948A220E94E60E2FEF81EE94E02150DD
:100DC00080409040E1F700C0000063E580910001A1
:100DD000909101010E9498220E94E60E5EC0843824
:100DE000C1F40E94A12182FD58C067E480910001F6
:100DF000909101010E948A220E94E60E2FEF81EE5F
:100E000094E0215080409040E1F700C0000067E48A
:100E1000DDCF8CEF8C0F813AD0F46C2F80910001E4
:100E2000909101010E940A22882349F06C2F809141
:100E30000001909101010E9498220E94E60E6C2F01
:100E400080910001909101010E948A22C5CF80E229
:100E50008C0F883048F4C77081E001C0880FCA95B4
:100E6000EAF70E94A50EB8CFEBE5EC0FE33040F4B3
:100E7000F0E0E05BFE4F808190E00E94C8210DC051
:100E8000C85AC73150F4EC2FF0E0EE0FFF1FEE5DB3
:100E9000FE4F808191810E94DE21CF9108958823A9
:100EA00009F45DC0682F823879F40E94A12181FF86
:100EB00056C069E380910001909101010E948A224D
:100EC0000E94E60E69E310C08338B9F40E94A121A4
:100ED00080FF45C063E580910001909101010E946F
:100EE0008A220E94E60E63E5809100019091010143
:100EF0000E9498220E94E60E0895843879F40E9498
:100F0000A12182FF2CC067E4809100019091010132
:100F10000E948A220E94E60E67E4E6CF8CEF860FDD
:100F2000813A10F380E2860F883048F4677081E0E0
:100F300001C0880F6A95EAF70E94AB0EDBCF8BE504
:100F4000860F833028F480E090E00E94C821089545
:100F5000685A673120F480E090E00E94DE21089515
:100F60001F93CF93DF93182FEB010E94AE062097BB
:100F700041F08FE99FE00197F1F700C00000219751
:100F8000F6CF812F0E944F07DF91CF911F910895D7
:100F9000893319F060E070E002C060E570E00E9403
:100FA000B0070895882321F00E94A50E0E94E60E46
:100FB0000895882321F00E94AB0E0E94E60E08954A
:100FC000A0E0B0E0E6EEF7E00C946B2B7C01162F6E
:100FD000C72FFC01D281058102950F700E949B0EE4
:100FE0008823B9F0DD23A9F08C2F807F803421F095
:100FF00080E2810F883068F08091DB0282FF09C0B7
:1010000082E00E94480F0E949B0E91E0D82ED926C4
:1010100001C0D12CCC2EC2948FE0C8228C2D90E040
:101020008C30910508F093C1FC01EA5AFF4F0C94F3
:10103000232B8C2F807FCF70882311F0C295C07F27
:10104000DD2399F0CC2309F46EC180E2810F883052
:1010500010F0111104C08C2F0E94A50E03C08C2F1C
:101060000E94B50E0E94E60E5EC1812F0E944F07BE
:10107000CC2309F46CC180E2810F883038F1112350
:1010800029F18C2F0E94BB0E24C08C2F807FCF7043
:10109000803211F0C295C07F112319F01130A1F1F7
:1010A0003DC08091DB0282FD17C0DD2349F0CC23D7
:1010B00029F08C2F0E94A50E0E94E60E80E034C11C
:1010C00080E00E944F07CC2309F441C18C2F0E947D
:1010D000AB0E0E94E60E3BC1DD2371F0002341F010
:1010E000013031F40E94C50E8C2B0E94CF0E2FC10F
:1010F0000E94C50E8C2B1DC0002319F0013009F48D
:1011000026C10E94DC0E25C0DD2321F0063008F048
:101110001EC10EC0053008F01AC11BC0DD2361F0EE
:10112000002331F0F701858180FFFDC08F7085833A
:101130008C2F0E94D2070BC1002359F0193309F0FC
:1011400003C1FFEF27EE83E0F15020408040E1F73C
:10115000F9C08C2F0E94D907FAC08C2F86958695EE
:10116000837019F0813061F0F2C0DD2321F0812F0E
:101170009C2F937002C080E090E00E94C821EFC0D5
:10118000DD2321F0812F9C2F937002C080E090E03E
:101190000E94DE21E4C08C2F837079F5D111DBC071
:1011A000412F429546954770440F440F212F2F70D1
:1011B000042E01C0220F0A94EAF714FF08C08FE042
:1011C00090E001C0880F4A95EAF7809501C080E061
:1011D000C695C695C370822BC23049F058F4C13011
:1011E00019F00E947A0AB7C00E94740AB4C00E9423
:1011F000800AB1C00E94710AAEC0DD2319F08C2FA5
:10120000817001C08695882309F4A5C0412F4295BD
:1012100046954770440F440F212F2F70042E01C0B4
:10122000220F0A94EAF714FF08C08FE090E001C093
:10123000880F4A95EAF7809501C080E0C695C6956B
:10124000C370822BC23049F058F4C13019F00E94AB
:10125000C80A81C00E94C20A7EC00E94CE0A7BC01A
:101260000E94890A78C0CF70DD2339F08C2F0E944C
:101270009D0A812F0E94D2076EC0812F0E94D9073C
:101280008C2F0E94A90A67C0123F21F128F4103F59
:1012900041F0113FC1F043C0133F19F1143F79F001
:1012A0003EC0DD2341F0053008F051C08C2F8F7116
:1012B0000E94B60A4CC0063008F049C0F7CF8091B2
:1012C000DB0282FD18C0DD2339F08C2F8F710E9464
:1012D0009D0A3DC0DD23C9F38C2F8F710E94A90A9E
:1012E00036C0DD2329F08C2F8F710E94940A2FC005
:1012F0000E94900A2CC0DD2349F0CF718C2F0E94F0
:101300009D0A63E08C2F0E942A0F21C081E00E9479
:10131000480F0230E0F082E00E94480F18C0DD2341
:1013200031F0002391F2812F0E94AE0610C00023FD
:1013300099F2193349F49FEFE7EEF3E09150E04062
:10134000F040E1F700C00000812F0E944F0788EFB6
:101350008C0D843020F40E94A1210E944E06DD20D5
:1013600089F00E94970E80FD0DC0F70112820E9445
:10137000910E0E949D0AC7010E94DF090E94910EF2
:101380000E94A90ACDB7DEB7E8E00C94872B0F9333
:101390001F93CF93DF93EC01688179818A810E944A
:1013A000860B8C010E94D40A0E94620AB801CE0109
:1013B0000E94E007DF91CF911F910F910895CF9385
:1013C000DF93EC01988189812B813C81232B31F0C3
:1013D0008F3F31F481E09F3F19F403C081E001C0E9
:1013E00080E080FD1AC0CE010E94140581110FC05B
:1013F0000E949B0E882389F08A81882371F0809156
:10140000DB0282FF0AC082E00E94480F06C0CE01C4
:101410000E94C709CE010E94C104DF91CF910895B7
:1014200080E090E00E94C82180E090E00E94DE21F0
:101430000E94C20E0E94E60E0895809100019091D4
:1014400001010E94A6220E94100A08950E94B20E75
:101450000E941D0A089592959F70963079F010F4BD
:10146000925001C09A50923068F4803F69F018F4AD
:10147000883E40F409C0843F29F406C0883E20F02D
:10148000813F11F080E0089581E00895FC018081A2
:1014900091810E947B0B0E942B0A0895A5E0B0E089
:1014A000E4E5FAE00C94712B2596E2E00C948D2B88
:1014B000A6E0B0E0EEE5FAE00C94712B2696E2E0AF
:1014C0000C948D2B089508950E94630A08950E943C
:1014D000640A08950E94670A8093FC010E94100A22
:1014E00008950E946A0A08959091FC01892B0E9438
:1014F0006A0A08959091FC0189230E946A0A08955E
:101500009091FC0189270E946A0A08950E94630A4B
:1015100008950E94860A8093FB010E94100A089594
:1015200080E00E94890A089591E001C0990F8A9590
:10153000EAF7892F0E94890A089521E030E001C06E
:10154000220F8A95EAF78091FB01822B0E94890A7B
:10155000089521E030E001C0220F8A95EAF7209536
:101560008091FB0182230E94890A089521E030E0E6
:1015700001C0220F8A95EAF78091FB0182270E9421
:10158000890A08959091FB01892B0E94890A089588
:101590009091FB0189230E94890A08959091FB0193
:1015A00089270E94890A08950895962F9770A1E0CF
:1015B00001C0AA0F9A95EAF793E0769567959A95F8
:1015C000E1F7FB01EE0FFF1F6E0F7F1FFA01E60F21
:1015D000F71F40E050E0682F70E090819B01042EDF
:1015E00002C0369527950A94E2F7217021952927A4
:1015F0002A23292721934F5F5F4F4330510569F715
:1016000008959B01782F777043E0969587954A95CA
:10161000E1F7FC01EE0FFF1F8E0F9F1FF901E80F8E
:10162000F91F40E050E080E0219130E0072E02C039
:10163000369527950A94E2F721703327042E01C0CE
:10164000220F0A94EAF7822B4F5F5F4F4330510518
:1016500059F70895282F963070F4813160F4862F61
:10166000622F70E021E1929F600D711D112444ED05
:1016700051E00E94D50A0895963070F4813160F4EB
:10168000292F90E064ED71E031E1239F800D911DE1
:1016900011240E94010B089580E00895CF92DF92FB
:1016A000FF920F931F93CF93DF936C010091FB0187
:1016B0008091FC01082BC7E0D0E010E0C8010C2E9F
:1016C00002C0959587950A94E2F780FD04C02197A2
:1016D000A8F7F12C07C0FC2EB6018C2F0E943B12FC
:1016E0000197A9F38F2DDF91CF911F910F91FF905B
:1016F000DF90CF900895CF93DF93EC010E944E0BC3
:10170000BE010E943B12DF91CF9108951F93CF93AA
:10171000DF93EB019091D301992321F0CB010E943B
:101720007B0B13C0882349F0CB010E944E0B182F6E
:10173000682FCE010E942A0B04C0CB010E943C0BF3
:10174000182FBE01812F0E943B12DF91CF911F9174
:1017500008951F93CF93DF93C091FD0116E0809110
:10176000FE01C81799F0D0E01C9FF0011D9FF00DFD
:101770001124E150FE4F4081518162817381848147
:1017800095810E94580A2196C770E9CFDF91CF91C9
:101790001F91089540912F025091300260913102C3
:1017A0007091320280913302909134020E94580A63
:1017B00008950F931F93CF93DF9380913402829506
:1017C0008F7009F05AC080913102882309F455C006
:1017D0008091FD011091FE0160912F027091300205
:1017E000C0913202D091330291E06F3F09F090E056
:1017F000292F06E0811709F440C0209721F07F3F90
:1018000021F030E003C031E001C0322F90E030FD24
:1018100031C0089FF001099FF00D1124DF01A15094
:10182000BE4F11963C911197371324C03C9136134B
:1018300021C012963C91129731111CC013964D9104
:101840005C9114974C1B5D0B483C510598F48091BA
:1018500034028F70806180933402EC5FFD4F808191
:101860008F70806180838FE292E00E94DF090E9486
:10187000A90B03C001968770BDCFDF91CF911F9157
:101880000F910895A1E1B0E0E8E4FCE00C94682B2E
:101890008C0185E0F801DE011D9601900D928A957C
:1018A000E1F7F801E28090912F02609130022091DF
:1018B0003202309133022115310531F06F3F31F49E
:1018C00081E09F3F19F403C081E001C080E0F82F60
:1018D000F1709F2E80FD40C1F80140815181A380AD
:1018E000B4808FE2C82E82E0D82EF0903102F5014C
:1018F000E21BF30BFF2009F4DAC080913402E83CCC
:10190000F10508F096C0282F207F09F053C0561328
:1019100013C0491311C0FE2CE1100EC08F708061FE
:10192000809334020E94CA0BC6010E94DF09809195
:101930003402F80185834DC1A114B10431F05F3F39
:1019400031F481E04F3F19F403C081E001C080E031
:1019500080FD03C081E08E2502C080E090E0F82F7A
:10196000F170FF2E80FF1CC08091FD012091FE01CF
:1019700036E0821709F40BC190E0389FF001399FDF
:10198000F00D1124E150FE4F6181561306C06081B5
:10199000461303C06281E61203C001968770E9CF47
:1019A000FE2CEE2009F415C18091340281608093F1
:1019B000340254C0561306C0491304C0E11002C0DB
:1019C000F80199C0C8010E94460A882361F1EE20FF
:1019D00051F120913402822F82958F7090E002970E
:1019E00074F080912F029091300298878F8319862E
:1019F000BB86AA862C87CE0107960E94DF0986E067
:101A0000F801AFE2B2E001900D928A95E1F70E94F1
:101A1000D90B0E94CA0B0AC0561711F1C8010E94C7
:101A2000460A81112CC0C8010E94DF09FF24F394EB
:101A3000D0C0282F207F81F77A2DB98AA88A6E2DF1
:101A400089890E944E0A8FE292E00E94DF0986E0B7
:101A5000F60111928A95E9F70E94CA0BF12CB9C0E0
:101A60004913DCCFE110DACFF8018583C8010E9469
:101A7000DF0986E0F60111928A95E9F7AAC0EE2007
:101A800091F220913402822F82958F7090E002971C
:101A90000CF4B5CF80912F02909130029A83898304
:101AA0001B82BD82AC822E83CE010196A6CFE83C7C
:101AB000F10508F044C0FE2CEE2009F4B4CF561313
:101AC00030C049132EC02091340220FD21C0822F46
:101AD00082958F70482F50E041155105C9F0F801EB
:101AE00025834F30510541F08F5F982F9295907F5D
:101AF000822F8F70892B8583C8010E94DF0986E0C1
:101B0000F801AFE2B2E001900D928A95E1F73CC096
:101B100086E0F801AFE2B2E001900D928A95E1F71C
:101B200058C0C8010E94460A811169CF80913402D1
:101B3000816080933402C8010E94DF094AC07A2D77
:101B4000B98AA88A6E2D89890E944E0A86E0F6011C
:101B500011928A95E9F718C0EE2009F464CFC80104
:101B60000E94460AF82E882309F45DCF86E0F8012A
:101B7000AFE2B2E001900D928A95E1F78FE292E038
:101B80000E94A8060E94D90B0E94CA0B22C04D8752
:101B90005E878D859E850E947B0B292F22952F7055
:101BA000223028F49F7039F0811105C00BC0243019
:101BB00028F49F7049F4805E883020F0C8010E94AC
:101BC000DF099F2CF92C05C0F8019581907F99F7CA
:101BD000F9CF8F2D6196EBE00C94842BACE0B0E054
:101BE000E4EFFDE00C94702B4F83588769877A8768
:101BF0008B879C87CE0107960E94420C8823D1F0E8
:101C00009F8188852A853B85232B31F08F3F31F4D6
:101C100081E09F3F19F403C081E001C080E080FDB6
:101C200047C04F81588569857A858B859C850E9440
:101C3000580A3EC086E0FE013796DE0111960190FB
:101C40000D928A95E1F7FF81E8856A857B856115AC
:101C5000710531F0EF3F31F481E0FF3F19F403C02B
:101C600081E001C080E080FD23C02091FE0130E0D2
:101C7000C9010196877099274091FD0150E08417B2
:101C80009507F1F1F983EA837D836C8396E0929F57
:101C9000D001939FB00D1124A150BE4FFE0131968B
:101CA00001900D929A95E1F78093FE010E94A90B95
:101CB00016E08091FD019091FE01891771F1189F46
:101CC000C001112481509E4F0E94420C882329F1AB
:101CD000E091FD011E9FF0011124E150FE4F408173
:101CE000518162817381848195810E94580A80911B
:101CF000FD0190E00196877099278093FD01D9CF6F
:101D00000E94260A1092FE011092FD01EFE2F2E01D
:101D100086E0DF011D928A95E9F72C96E3E00C94AA
:101D20008C2B809155028595859585950895809198
:101D300055028770089590915502977081E009F4DB
:101D400080E0089580917802089590917802892B1F
:101D500080937802089580959091780289238093EA
:101D60007802089510927802089590917702892B55
:101D700080937702089580959091770289238093CC
:101D8000770208951092770208958091560208957F
:101D900008950E94C80E08950E94C90E089590915A
:101DA000DB0292FF08C090915602981721F08093B1
:101DB00056020E94CC0E089580915602882329F085
:101DC0001092560280E00E94CC0E0895CF93DF93CC
:101DD000E0910001F0910101809178028083E0910F
:101DE0000001F0910101908180917702892B80831D
:101DF00080915602882381F0E0910001F091010169
:101E00009081892B808380910001909101010E9433
:101E1000F42181110E94DC0EC0910001D0910101DA
:101E200040E250E065E372E0CE010E94B12B892BC5
:101E300059F080E2FE01A5E3B2E001900D928A958F
:101E4000E1F7CE010E94AE21DF91CF9108950E946B
:101E5000C80E08959091DB0292FF11C098E0899F0F
:101E600090011124262B209355020E949D0A8091F7
:101E700055028595859585950E94270F08950E94A6
:101E80009D0A08951092550280E00E94270F089540
:101E9000209155028095822380935502982F977048
:101EA00099F430E0482F082E000C550B2417350705
:101EB00059F09091DB0292FF07C085958595859535
:101EC0000E94A90A0E94420F08959091DB0292FBA2
:101ED000222720F9281769F080FB92F99093DB0202
:101EE0008091DA029091DB020E94BA0F82E00E9498
:101EF000480F08958091DB0282FB882780F991E0EA
:101F000089270E94650F089581E00E94650F08955A
:101F100080E00E94650F08956FEF7FEF80E090E012
:101F20000E94F02B089580E090E00E94CC2B883E28
:101F30009E4F19F40E943D1C089580E0089582E0B0
:101F400090E00E94BE2B089583E090E00E94BE2B9B
:101F50000895CF9384E090E00E94BE2BC82F82E2C8
:101F600090E00E94BE2B2C2F30E0A901582BCA0113
:101F7000CF910895CF93C92F682F84E090E00E94FD
:101F8000D22B6C2F82E290E00E94D22BCF91089549
:101F9000AB01BC018FE090E00E94E42B0895AB01FF
:101FA000BC0183E190E00E94E42B089560E070E0C2
:101FB000CB010E94CF0F089560E070E0CB010E943A
:101FC000C80F0E94D60F089568EE7EEF80E090E083
:101FD0000E94F02B60E082E090E00E94D22B60E053
:101FE00083E090E00E94D22B1092FC0160E084E03C
:101FF00090E00E94D22B64E082E290E00E94D22B1B
:1020000060E085E090E00E94D22B60E086E090E006
:102010000E94D22B6FEF87E090E00E94D22B40E02D
:1020200050E0BA0188E090E00E94E42B60E08DE08F
:1020300090E00E94D22B40E050E0BA0188E190E0AD
:102040000E94E42B60E087E190E00E94D22B40E008
:1020500050E0BA018CE190E00E94E42B60E070E077
:1020600080E290E00E94F02B40E050E0BA0188E16D
:1020700090E00E94E42B80E00E94561C0E948B1C82
:102080000E94DC0F08950E94E40F0895682F8EE0EF
:1020900090E00E94D22B08950E942623609395021F
:1020A00070939602809397029093980260939102A6
:1020B000709392028093930290939402089581E02A
:1020C00008950E945F10089508950E946410089575
:1020D0000E94641008950E94681008950E94641080
:1020E00008950E946E1008950E946410089587E17B
:1020F00093E10E9497210E9474100E94711008952C
:102100000E9465100E94641008950E9433130E947B
:102110004D0608950E9411230E949B1C0E943314B7
:102120000E9485100E945C1A0E946B100895ADE019
:10213000B0E0EDE9F0E10C94612B0E944914282EE7
:1021400081110E944C1089E792E09D878C8700E006
:1021500010E0302E802F0E944E132B013C01EC85A5
:10216000FD8581919191A191B191FD87EC875301FA
:10217000420188269926AA26BB2681149104A1042F
:10218000B104B1F40F5F1F4F0630110511F78FEF47
:1021900089838A831B820E941A238160782F9D8302
:1021A0008C8349815A816B818D810E94670652C060
:1021B0008091990281FD0E945A131B86C12CD12C5B
:1021C0007601C394D501C4018C219D21AE21BF218C
:1021D000892B8A2B8B2B99F10E9461108823D9F0CF
:1021E000FB85FE833F824C205D206E207F2081E0B6
:1021F000411451046104710409F480E088870E944D
:102200001A238160782F9A8789874E815F8168853C
:102210008A850E946706000F111F000F111FF80129
:10222000E758FD4F80819181A281B381C826D926CC
:10223000EA26FB26C082D182E282F3820BC08B8524
:102240008F5F8B87CC0CDD1CEE1CFF1C813109F0ED
:10225000B9CF98CF81E0211001C080E02D96E2E156
:102260000C947D2B0E9497100E94981A0E945C0685
:102270000895CF93DF930E944012EC01811522E56F
:102280009207E8F5811531E5930708F0B6C0883E5E
:10229000910528F5803E910508F0E9C0883A91053E
:1022A00070F4853A910508F07AC08130910509F4FF
:1022B00073C008F4D9C0049708F0D9C0D5C08F3BCB
:1022C000910508F0D1C0C85AD0E0CC0FDD1FCD5A1F
:1022D000DE4F0990D881C02DCE019464C9C081150C
:1022E00040E5940708F069C0811550E4950708F0AF
:1022F00060C09A9581159F4108F4B9C0B5C0811599
:1023000036E5930728F5811545E5940708F092C056
:10231000811554E5950708F087C0AC014370552737
:10232000282F26952695C115D34508F06CC081E06D
:1023300090E002C0880F991F4A95E2F740E2249F7F
:1023400090011124EC01C22BD32BCE019C6890C0CC
:1023500081152AE5920780F4811539E5930708F085
:1023600072C0811548E5940708F47EC0D82FCC27A9
:10237000CE01806F906A7CC090568115904208F023
:1023800073C08D2F8F710E94D412DD27D0628F71A0
:10239000AE01582BCA016CC081E090E069C0C55AFB
:1023A000D0E0CF57DE4F8881C82FD0E0CE019064B7
:1023B0005FC0DF70CE01906A5BC074E09695879530
:1023C0007A95E1F7282F23703C2F337081E090E05D
:1023D00002C0880F991F3A95E2F79C68AC01522B16
:1023E0009A019C2F9F709695969550E2959FE001DB
:1023F0001124C9018C2B9D2B3BC0D82FCC27CE019B
:10240000816F906A35C081E090E002C0880F991F0B
:102410004A95E2F750E2259F90011124EC01C22B6E
:10242000D32BCE019A6824C0D82FCC27CE01846F3D
:10243000906A1EC00E94D4128F7190E0D82FCC27D2
:10244000CE01906215C08F700E94D41294E0D69590
:10245000C7959A95E1F7CF70D0E0DC2FCC27D069F3
:102460009E01282BC90104C080E090E001C0CE018C
:10247000DF91CF9108950E94FB1F0E9439110895AA
:102480008238910569F1B0F48133910509F46DC08A
:1024900048F48932910509F463C08A32910509F440
:1024A00069C008958533910509F455C089339105B4
:1024B000B9F00895833E910569F138F4803E9105A5
:1024C000B1F0823E910509F10895863E9105A9F18A
:1024D000873E9105B9F1843E910509F064C023C09F
:1024E0002091DA0220FD4FC021FD4DC0089580915A
:1024F000DA0280FD44C08091DB0280FF44C08091FD
:10250000DA0284FD42C083EE4DC08091DA0282FF80
:1025100038C0F5CF8091DA0282FD33C08091DB02B2
:1025200080FD31C0ECCF8091DB0281FF32C0809111
:10253000DA0284FD2AC087EE35C08091DA0283FF7B
:1025400026C0F5CF8091DA0283FD21C08091DB02A5
:1025500081FD1FC0ECCF8091DA0285FD1CC01DC03B
:102560008091DA0285FD19C016C08091DA0286FDDD
:1025700016C017C08091DA0286FD13C010C089E32F
:1025800011C082EE0FC080EE0DC080E00BC086EE61
:1025900009C084EE07C089E205C085E303C08AE272
:1025A00001C081E390E008959091DA0292FF0DC09E
:1025B000282F2871283019F4877F846006C0282FBF
:1025C0002471243011F48B7F886093FF0DC0282F75
:1025D0002871283119F4877E846106C0282F247160
:1025E000243111F48B7E88612091DB0220FF0DC025
:1025F000382F3871383019F4877F816006C0382F42
:102600003171313011F48E7F886021FF0DC0282F89
:102610002871283119F4877E816106C0282F217125
:10262000213111F48E7E886194FD877E089580E0CB
:1026300008950E948C0F08950E9449148FE39CE92D
:102640000197F1F700C000000E94491480E00E9449
:102650004E1360FF04C00E9419130E94672308955F
:102660000E941C1308950E94930F811102C00E94C2
:1026700043100E949F0F809399020E94A90F90938C
:10268000DB028093DA020E9430130E94A40F0E94A2
:10269000710A8091FB010E94860A089524E0829FBE
:1026A000C0011124FC01EC50FD4F608171818281D9
:1026B00093810895089580EA8A95F1F7089500C0FE
:1026C00008950E945B13089508950E94641308956D
:1026D0000E94651308950E94641308950E946B136D
:1026E0000895F894E82FE295EF70F0E031A1282FDB
:1026F0002F7081E090E001C0880F2A95EAF7982FAB
:102700009095932391A392A1892B82A37894089505
:102710000F931F93CF93DF93C5E9D1E089918F3F4A
:1027200011F00E94711381E0CB39D807B9F7C4E8E2
:10273000D1E005E911E089918F3F11F00E947113FA
:102740000C171D07C1F7DF91CF911F910F910895CD
:102750004F925F926F927F928F929F92AF92BF92B1
:10276000DF92EF92FF920F931F93CF93DF938C0131
:10277000C62FD0E0CE018B569E4F7C01FC0190818C
:102780009F3F09F460C0D62EF894E92FE295EF70D0
:10279000F0E081A19F7021E030E001C0220F9A9506
:1027A000EAF7822B81A382A12095282322A3789483
:1027B0000E945F13E4E8F1E025E931E0412C512C5F
:1027C00032014394812C912C540181918F3F99F0D7
:1027D000A82FA295AF70B0E090964C9150E08F700A
:1027E000BA0102C0759567958A95E2F760FD03C04E
:1027F000D301C20103C080E090E0DC01882A992A5D
:10280000AA2ABB2A440C551C661C771C2E173F07AE
:10281000E1F6F70180818F3F11F00E94711361E0B2
:1028200081149104A104B10409F460E08D2D0E948B
:102830006113CC0FDD1FCC0FDD1FC00FD11F8882AD
:102840009982AA82BB82DF91CF911F910F91FF9055
:10285000EF90DF90BF90AF909F908F907F906F90A0
:102860005F904F9008950E94881388E1E4EFF2E0B2
:10287000DF01982F1D929A95E9F7ECEDF2E0DF0168
:102880001D928A95E9F786E00E9485140E94F5045E
:102890000895A8E1B0E0EFE4F4E10C946E2B8E0112
:1028A0000F5F1F4F88E1F80111928A95E9F7F12C2B
:1028B0006F2DC8010E94A813F394F6E0FF12F8CF21
:1028C00048E150E0B8018CED92E00E94B12BFF246A
:1028D000F394009709F4F12C892B41F088E1F80179
:1028E000ACEDB2E001900D928A95E1F72F2D46E014
:1028F00064EF72E08CED92E00E9486140E94F8046E
:102900008F2D6896E5E00C948A2B0895FF920F9323
:102910001F93CF93DF93F82ED92F8B01C42F22233F
:1029200049F081E080939C020E941A2390939B02BD
:1029300080939A0280919C028823F1F080919A0200
:1029400090919B020E9432230597B0F0EF2DFD2F4E
:10295000D80180E090E04C2F50E08417950754F4A4
:1029600001911191219131910D931D932D933D93DF
:102970000196F3CF10929C02CDB7DEB7E5E00C9440
:102980008A2B0E945C250E948A100E946925089566
:102990000E946E250E9432110E946F2508950E94A8
:1029A000DC220E9442250E9477100E94C1140E94DE
:1029B000C8140E948010FBCFEF92FF920F931F93D9
:1029C000CF93DF938B01682F11110AC0442329F0A4
:1029D000E82FF0E0EB50FA4F6491762F862F75C008
:1029E000212F30E0E82FF0E0442321F0EB50FA4FA4
:1029F000E491F0E046E0049FC0011124CFEFD0E065
:102A0000BE010E94D92A4BEA4603C001479F900DA0
:102A10001124800F911D800F911D982F990F890F00
:102A2000AE01421B530B4E9FD0014F9FB00D5E9FD6
:102A3000B00D11249B2F189FA0011124452F55275D
:102A40008E01041B150B0E9FA0010F9F500D1E9FA2
:102A5000500D11247E01E81AF108E29E8001E39EE8
:102A6000100DF29E100D1124212F3327C21BD30B02
:102A7000CE9F9001CF9F300DDE9F300D112462302C
:102A80007105A9F048F46115710569F061307105AF
:102A9000C9F48B2F752F0DC06430710581F058F08B
:102AA0006630710579F47E2F8B2F932F0DC0832F05
:102AB0007B2F9E2F09C08E2F7B2F952F05C08E2F29
:102AC000732F02C07E2F852F692FCDB7DEB7E6E0CA
:102AD0000C94892B41E00E94DC14089508950E9413
:102AE0006A150895CF93DF93762FE901682F842F1D
:102AF0000E946F15798368838A83DF91CF9108954F
:102B0000433308F042E30E947215089580910C034C
:102B1000282F269530E02115310519F48170826047
:102B200005C02532310524F08170886480930C0340
:102B300080910F03833318F082E380930F0308958D
:102B400088E090E00E94C62B0895CF92DF92EF922A
:102B5000FF926B017C010E948615B701A60188E0F7
:102B600090E00E94E42BFF90EF90DF90CF900895CB
:102B700060910C0370910D0380910E0390910F03EF
:102B80000E94A5150895ECE0F3E083E080831182B4
:102B90008FEF828382E383831482608171818281DB
:102BA00093810E94A515089580910C0380FF02C0B7
:102BB0008695089580E0089590911003933018F45D
:102BC0009F5F90931003882351F060910C037091E4
:102BD0000D0380910E0390910F030E94A515089597
:102BE00081E00E94DC15089590911003992319F05B
:102BF000915090931003882351F060910C037091D1
:102C00000D0380910E0390910F030E94A515089566
:102C100081E00E94F4150895809110030895809337
:102C20001003662351F060910C0370910D038091A5
:102C30000E0390910F030E94A515089560E00E9475
:102C40000F16089580910D03089580910E03089545
:102C500080910F03089570E00E94121C0895609106
:102C6000060180910C0380FF0BC08091050123E0D9
:102C7000829FC00111248F5E9C4F0E942B160895E5
:102C80008091070190910801891778F7E82FF0E00B
:102C90009F01220F331FE20FF31FEF5EFC4F1182E3
:102CA000108212828F5FF0CF90910C0390FF16C0BC
:102CB0009091070120910801921770F4E92FF0E03C
:102CC000DF01AA0FBB1FEA0FFB1FEF5EFC4F8183E2
:102CD000608342839F5FF0CF0E942F160895A3E088
:102CE000B0E0E5E7F6E10C94712B90910C0390FFB6
:102CF0000AC09E012F5F3F4F0E9480154B81698162
:102D00008A810E9454162396E2E00C948D2BCF9377
:102D1000DF93EC01EC81F0E0E051FB4F4491ECE0FB
:102D2000F3E0628181810E946F168C818F5F8C83BA
:102D3000DF91CF910895CF93DF93EC01ECE0F3E0C6
:102D4000438162818C810E946F168C818F5F8C839E
:102D5000DF91CF910895A3E0B0E0E1EBF6E10C94B0
:102D60006F2B8C0180919D0281110AC09E012F5F03
:102D70003F4F42E36FEF0E9480158A8180939D024E
:102D8000F8018481813051F028F0823061F4409163
:102D90009D020AC080919D0240E007C060919D02A3
:102DA00040E080E003C040E080E060E00E94541614
:102DB000F801848190E0019663E070E00E94ED2AC2
:102DC00084832396E4E00C948B2BA3E0B0E0EBEE3D
:102DD000F6E10C946A2B082FE62EF42ED22E909159
:102DE0000C0390FF67C0E92FE695AE2FB0E0A55623
:102DF000BE4F8C918093A7029E7F923061F49E011A
:102E00002F5F3F4F802F0E9480154B8169818A81FF
:102E10000E9454163DC0823019F4F0900F0338C060
:102E2000863019F400910D0333C08930D9F389310C
:102E300079F5E9518E2F8170C82EE695F0E0E051CA
:102E4000FA4F1491B12C60910901B616F8F4B19EB5
:102E5000C001112470E00E94D92A802FC11002C045
:102E6000860F01C0861B909107012B2D30E0290FA2
:102E7000311DA901440F551F240F351F2F5E3C4FF4
:102E80004F2D6E2D0E948015B394DDCF0E942F161A
:102E900000930D03E0920E03F0920F03DD2051F03A
:102EA00060910C0370910D0380910E0390910F03BC
:102EB0000E94A5152396E9E00C94862BECE0F3E044
:102EC0009181282F4381628188E0890F0E94E51655
:102ED000089581E00E945E170895ECE0F3E091818F
:102EE000282F4381628188EF890F0E94E51608959B
:102EF00081E00E946D170895ECE0F3E0628128E024
:102F0000620F08F46FEF282F438181810E94E5163C
:102F1000089581E00E947C170895ECE0F3E062815F
:102F200028E0621B08F460E0282F438181810E9421
:102F3000E516089581E00E948D170895ECE0F3E016
:102F4000438128E0420F08F44FEF282F62818181EE
:102F50000E94E516089581E00E949E170895ECE016
:102F6000F3E0438128E0421B08F440E0282F62810F
:102F700081810E94E516089581E00E94AF170895AF
:102F800020E00E94E5160895FF920F931F93CF93C0
:102F9000DF93EC01F12C0FEF10E060910901F616C0
:102FA000F0F4809107012F2D30E0280F311DC90169
:102FB000880F991F280F391F2F5E3C4F70E0C80102
:102FC0000E94ED2A962F8C8140910F0360910E0391
:102FD000F99E800D11240E948015F394DECF0E948B
:102FE0002F169A818C8190FF02C08F5F01C08150A3
:102FF0008C83CDB7DEB7E5E00C948A2BA0E0B0E07F
:10300000E4E0F8E10C94692BFC01828180FF02C0AE
:103010000FEF01C001E010E047E5A42E8091090107
:10302000181708F043C080910701C12ED12CE6018A
:10303000C80FD11DCE01880F991FC80FD91FCF5EB1
:10304000DC4F198218821A8234E0E32EF12CB12C65
:1030500080919F028B0D88352CF06A2D0E94CB2A1F
:10306000892F05C087FF03C090910901890F082EA1
:10307000000C990BC816D90691F480910F038E9D10
:10308000A0018F9D500D1124559547955595479555
:103090009E0160910E0380910D030E948015B00E79
:1030A000F1E0EF1AF108A1F61F5FB8CF0E942F16CA
:1030B00080919F02013031F4811102C08091090199
:1030C000815007C090E001966091090170E00E9474
:1030D000ED2A80939F02CDB7DEB7EAE00C94852BF2
:1030E000CF938091070190910801891770F4E82F20
:1030F000F0E09F01220F331FE20FF31FEF5EFC4F42
:103100001182108212828F5FF0CFC0E060910901BE
:10311000C617C0F5EC2FF0E070E0CF010E94ED2A59
:1031200020910701820F20919E02022E000C330B8A
:1031300090E0E217F307CCF020910401022E000C7E
:10314000330B2E173F078CF09C01220F331F820F89
:10315000931F9C012F5E3C4F40910F0360910E0323
:1031600080910D030E9480150BC0FC01EE0FFF1F24
:103170008E0F9F1FFC01EF5EFC4F118210821282A6
:10318000CF5FC4CF0E942F162091030180919E0231
:10319000820F80939E0290910401920F90930401FC
:1031A00019165CF4082E000C990B4091090150E0AF
:1031B00041505109841795071CF021952093030174
:1031C000CF910895A0E0B0E0E8EEF8E10C94672B11
:1031D0008C01FC014481C42FD0E09E01DE010E94DD
:1031E000382B9B01AC010E944E2B6B017C01E0E26D
:1031F000F0E0EC1BFD0BA5E5B0E09B01AC010E94EB
:103200004E2B4B015C019F01DF010E94302B9B0183
:10321000AC010E94592B9B01AC012C0D3D1D4E1D94
:103220005F1DC501B4010E94012BC22FD22F2A328B
:1032300028F4F3E02F9F900111240DC025E530E024
:103240002C1B3109C901880F991F280F391F37FF1F
:1032500002C02F5F3F4F35952795C22FC095F12CA7
:1032600085E5E82EED1A80910901F816C8F4F1FC05
:1032700002C08E2D01C08D2F909107012F2D30E0BF
:10328000290F311DA901440F551F240F351F2F5E33
:103290003C4F4C2F60910E030E948015F394E3CFB6
:1032A0000E942F16F8018481811102C091E003C0B1
:1032B000803219F49FEF9093020190910201890FDF
:1032C000F8018483CDB7DEB7ECE00C94832B0F9329
:1032D0001F93CF93DF93EC0100E010E08091090190
:1032E000282F30E00217130724F590910701980169
:1032F000290F311DA901440F551F240F351F2F5EC3
:103300003C4F869590E04C81081719071CF4442324
:1033100031F002C0411103C040910F0301C040E0F1
:1033200060910E0380910D030E9480150F5F1F4F67
:10333000D5CF0E942F168C8190E00196817099273D
:103340008C83DF91CF911F910F910895ECE0F3E012
:1033500080818E7F808360817181828193810E94D0
:10336000A5151092A8022FEF80E792E0215080402F
:103370009040E1F700C000000E942F160895ECE095
:10338000F3E080818E7F80831092A8022FEF80E788
:1033900092E0215080409040E1F700C000000E9480
:1033A0002F16089560910C03669570E04BE050E095
:1033B0008AE091E00E94A42B892B19F481E080938C
:1033C000A8020E941A239093A1028093A00208955C
:1033D00090910C0390FF35C09170811102C09260F2
:1033E00006C0853210F0986402C0880F982B909325
:1033F0000C03662351F060910C0370910D038091D2
:103400000E0390910F030E94A51560910C03669521
:1034100070E04BE050E08AE091E00E94A42B892B01
:1034200019F01092A80202C00E94D21981E0809384
:10343000A30240910F0360910E0380910D030E943F
:10344000C0170895682F90910C03969581E0890F1D
:10345000853208F081E00E94E819089581E00E9419
:10346000221A0895682F90910C0396958FEF890F7B
:1034700009F484E20E94E819089581E00E94321A5A
:10348000089561E00E94E8190895ECE0F3E080817E
:103490008160808386950E94411A089580910C0373
:1034A00080FF03C00E94A61908950E94451A08953E
:1034B00060E00E94E81908958091A60281112EC053
:1034C0000E94930F811104C00E9443100E94C315F3
:1034D0000E94A01560930C0370930D0380930E035C
:1034E00090930F036E7F61F40E94C3150E94A01594
:1034F00060930C0370930D0380930E0390930F035E
:103500000E9486151092A80280910C0380FF03C0D0
:1035100086950E94581A81E08093A6020895ECE0F7
:10352000F3E080818160808386950E94581A089517
:103530000F931F93CF93DF938091A802882309F400
:1035400081C08091A702E0910C03E695E81BE0930F
:10355000A202823049F4F0E0E451FB4FE491CE2F17
:10356000D0E007E816E149C0863049F4F0E0E751C1
:10357000FB4FE491CE2FD0E00BE916E13EC089303D
:1035800051F4E695F0E0EA51FB4FE491CE2FD0E004
:1035900004EC17E132C08F3051F4E695F0E0ED51C4
:1035A000FB4FE491CE2FD0E00EEF17E126C085311E
:1035B00049F4F0E0E052FB4FE491CE2FD0E000E779
:1035C00018E11BC0883181F0833239F4EEEDF4E06C
:1035D000C591D4910BEA16E110C0843251F4C4EFC6
:1035E000D1E007E619E109C0C8E2D0E002EE18E137
:1035F00004C0C0EDD7E00EE615E18091A302882358
:1036000061F01092A3020E941A239093A10280936A
:10361000A0021092A5021092A4020E941A23E09127
:10362000A002F091A1028E1B9F0B8F3F9F4750F489
:10363000EC0FFD1FF093A102E093A00280EA92E05C
:10364000F8010995DF91CF911F910F91089588237B
:1036500011F0FA0101C0FB0109950895CF93DF93A2
:10366000C82FD62F0E94D4158C1738F00E94D4157D
:103670008D1718F40E942E1A03C08C2F0E94411A35
:10368000DF91CF9108951F93CF93DF93FB011281B8
:103690001111C3C0EC010E94A20E8272CC3CFCE569
:1036A000DF0709F49AC0A8F5C63CECE5DE0709F48B
:1036B00076C0A8F4C33C9CE5D90709F45FC028F4A0
:1036C000C23CDC4509F457C054C0C43C9CE5D90752
:1036D00009F459C0C53CDC4509F45CC04AC0C93C8A
:1036E000FCE5DF0709F46AC050F4C73CECE5DE07EF
:1036F00009F45AC0C83CDC4509F45BC03AC0CA3C76
:103700009CE5D90709F45FC0CB3CDC4509F460C0F7
:1037100030C0C13DFCE5DF0709F46FC088F4CE3C42
:103720009CE5D90709F460C008F45CC0CF3CFCE517
:10373000DF0709F45CC0C03DDC4509F45BC019C07B
:10374000C43D9CE5D90709F460C050F4C23DFCE5D6
:10375000DF0709F455C0C33DDC4509F454C009C076
:10376000C53D9CE5D90709F455C0CD35DD4509F4C3
:1037700054C011E052C00E944E1A4FC04DE35AE1AE
:103780006EE27AE104C04EE25AE16DE37AE10E9412
:10379000271B43C048E757E169E677E1F8CF49E6E0
:1037A00057E168E777E1F3CF4AE957E169E877E164
:1037B000EECF49E857E16AE977E1E9CF4CEB57E111
:1037C0006BEA77E1E4CF4BEA57E16CEB77E1DFCFCF
:1037D00048E056E160EF75E1DACF40EF55E168E08F
:1037E00076E1D5CF81E017C065E082E010C068E0E7
:1037F00086E00DC06EE089E00AC064E18FE007C09A
:1038000067E185E104C088E106C062E289E10E94C7
:103810002E1B03C083E20E94411A812FDF91CF91BA
:103820001F9108956E9A2EB12F7B3EB130644FB731
:10383000F894FC01CB01880F991F680F791F6E0F58
:103840007F1FE617F70789F0819198E03EB90000E5
:1038500000C087FF2EB9880F000000C000C000C064
:103860002EB900C09A9591F7ECCF4FBF8FE594E049
:103870000197F1F700C00000089583E290E00E94F4
:10388000BE2B823281F484E290E00E94BE2B88300D
:1038900051F485E290E00E94BE2B91E0823109F064
:1038A00090E0892F01C080E081700895CF93C82FE8
:1038B000811102C06FEF01C062E283E290E00E94DA
:1038C000D22BC11102C06FEF01C068E084E290E02A
:1038D0000E94D22BC11102C06FEF01C062E185E2EC
:1038E00090E00E94D22BCF910895089586E290E057
:1038F0000E94BE2B682F70E080E090E0089508954C
:10390000CF93C62F0E947F1C6C2F86E290E00E940E
:10391000D22BCF91089580E00E94561C60E070E0A9
:10392000CB010E94801C0E94841F0E94502081E0D5
:103930000E94561C08950E94751C0E94761C0E94CD
:103940007F1C0E943D1C811102C00E948B1C0895A7
:10395000CF93FB01C281CC23E9F09C0122513F456A
:103960002031310520F482510E9460200CC080314A
:10397000FFE59F0751F481E00E949D0A43E062E069
:1039800081E00E94EB04C0E018C081319F45A9F49A
:1039900082E0F2CF8031EFE59E0711F481E004C0B0
:1039A00081319F4549F482E00E94A90A43E062E028
:1039B00081E00E94EB0401C0C1E08C2FCF910895FB
:1039C0002FEFFC0120830895CF93DF93EC018881D2
:1039D000813889F028F48038A1F40E94281610C09C
:1039E000823861F0833869F40E94221689830E942C
:1039F00025168A8306C00E94D41502C00E940C16A8
:103A00008983DF91CF910895CF93DF93EC01888173
:103A10008138B1F058F4803829F5D9810E942516F3
:103A2000C82F0E9422164D2F6C2F1AC08238A1F089
:103A30008338C1F40E942816482F6A81898110C0FA
:103A400089810E94581A8981811103C00E94BF197F
:103A500009C00E948F1A06C089810E941E1602C0EA
:103A60000E94C017DF91CF910895EF92FF920F93BC
:103A70001F93CF93DF93EC01E62E0196E8814E2F42
:103A800050E0FA013197E331F10508F09BC0EE599F
:103A9000FF4F0C94232B198289E057C08981823013
:103AA00039F0833061F0813031F50E94262302C065
:103AB0000E94761C9A838B837C836D8385C08E01E4
:103AC000F12C8F2D0E944E13F8018283738364833F
:103AD000F3940D5F1F4FF6E0FF12F3CF75C089819D
:103AE000823049F46A817B818C819D810E94292BDF
:103AF0000E94801C69C06E2DCE010E94E01C64C033
:103B00004B816A8189810E94481F9C838D835CC0A0
:103B10002C813D813227232732274B816A8189817D
:103B20000E94691F51C00E94841F4EC00E94041D44
:103B30004BC00E94E41C48C00E94B81545C00E94BA
:103B4000092024C00E940B2099838A833DC06B8189
:103B500070E089819A81AE014C5F5F4F9827892779
:103B600098270E940E2030C06B8170E089819A8175
:103B7000AE014C5F5F4F9827892798270E9430201D
:103B800023C00E94502020C00E94351F89831CC082
:103B90006B8170E089819A81AE014C5F5F4F9827FD
:103BA000892798270E94B91F0FC06B8170E0898117
:103BB0009A81AE014C5F5F4F9827892798270E9412
:103BC000DB1F02C08FEF88836E2DCE010E94102470
:103BD000CDB7DEB7E6E00C94892BCF93DF93EC01F1
:103BE000FB018281882309F43CC1C330FDE5DF0776
:103BF00060F4CA3F9CE5D90788F49E0122503C45F9
:103C00002431310508F02EC109C0C136EDE5DE07CB
:103C100029F0C53AFDE5DF0709F024C10E94A90F8C
:103C20009093DB028093DA02C1318CE5D80709F466
:103C3000C6C008F042C0C930ECE5DE0709F49BC0FD
:103C400000F5C5308CE5D80709F485C078F4C33099
:103C5000ECE5DE0709F478C008F07AC0C230DC4534
:103C600009F0F5C08091DA028160EFC0C7309CE5B1
:103C7000D90709F478C008F07AC08091DA0280612F
:103C8000E4C0CD30FCE5DF0709F487C058F4CB3041
:103C90009CE5D90709F479C008F07BC08091DA026D
:103CA00088606FC0CF30FCE5DF0709F480C008F002
:103CB00082C08091DA02877FC8C0CD3F9CE5D907DA
:103CC00009F471C000F5C531FCE5DF0709F485C0D2
:103CD00068F4C3319CE5D90709F475C008F095C0B4
:103CE0000E94260A8091DA028F77AFC0CB3FFCE5B5
:103CF000DF07A9F108F054C0CA3FDC4509F0A7C0AE
:103D00008091DB0240C0C130EDE5DE0709F489C0D7
:103D100058F4CF3F8CE5D80709F45AC008F069C0C1
:103D20008091DB0282602FC0C136EDE5DE0709F429
:103D30007CC0C53AFDE5DF0709F481C0C230DD452E
:103D400009F085C080E06EC08091DA0282607DC09B
:103D50008091DA0216C08091DA02886076C0809184
:103D6000DB0282604FC08091DA0280626EC0809177
:103D7000DA0280646AC00E94260A8091DA028068B2
:103D800064C0846062C081603DC08091DA028E7F31
:103D90005CC08091DA028D7F58C08091DA0216C033
:103DA0008091DB0218C08091DB028D7F2BC0809157
:103DB000DA028F7E4AC08091DA028F7D46C0809100
:103DC000DA028F7B42C08091DA02877F8B7F3DC011
:103DD0008091DB028D7F8E7F15C08091DA0282FB9D
:103DE000222720F991E0922790FB82F990FB83F93A
:103DF0002CC08091DB02982F909591708E7F892B3B
:103E000090FB81F98093DB0222C00E94260A8091F8
:103E1000DA0287FB222720F991E0922790FB87F9AD
:103E200014C081E00E94461012C08091DA0284FB27
:103E3000222720F991E0922790FB84F906C0809117
:103E4000DA02982F909590FB80F98093DA028091A6
:103E5000DA029091DB020E94BA0F0E94260A80E0EB
:103E600001C081E0DF91CF91089584E0089550E092
:103E7000440F551F22E2629F400D511D11249A01EB
:103E80006CEC869F200D311D1124C9018796089581
:103E90000F931F93CF93DF938430A0F4663090F498
:103EA000413180F40E94371F8C010E94BE2B90E0AC
:103EB000D82FCC27C80101960E94BE2B9E01282B2B
:103EC000C90102C080E090E0DF91CF911F910F9176
:103ED00008950F931F93CF93DF93843080F466305F
:103EE00070F4413160F4E9010E94371F8C016D2F9D
:103EF0000E94D22B6C2FC80101960E94D22BDF9119
:103F0000CF911F910F910895A0E0B0E0EAE8FFE1A2
:103F10000C94692BA12CE12CF12CB12C00E010E0C9
:103F2000C0E0D0E06701C00ED11EFE01EE0FFF1F02
:103F3000EC0DFD1DE250FF4F259134914C2F6B2D60
:103F40008A2D0E94691F2196C131D10571F70E5D3E
:103F50001F4FB39486E0B812E3CF8CECE80EF11C4F
:103F6000A39484E0A812D9CFCDB7DEB7EAE00C94D1
:103F7000852BEF92FF920F931F93CF93DF93EA016C
:103F80007A01E60EF71E8C01C8018796CE15DF0573
:103F900069F0003323E0120720F40E94BE2B8883CF
:103FA00001C0188221960F5F1F4FEECFCDB7DEB74D
:103FB000E6E00C94892BEF92FF920F931F93CF931F
:103FC000DF93EA017A01E60EF71E8C01C80187969D
:103FD000CE15DF0559F0003323E0120718F468818D
:103FE0000E94D22B21960F5F1F4FF0CFCDB7DEB7C7
:103FF000E6E00C94892B843048F4763038F4613153
:1040000028F4462F672F0E94481F089580E090E013
:10401000089580E1089589EA90E00895EF92FF9273
:104020000F931F93CF93DF93EA017A01E60EF71EF9
:104030008C01C801895A9C4FCE15DF0561F0093A01
:10404000110520F40E94BE2B888301C0188221969E
:104050000F5F1F4FEECFCDB7DEB7E6E00C94892B94
:10406000EF92FF920F931F93CF93DF93EA017A01B0
:10407000E60EF71E8C01C801895A9C4FCE15DF054C
:1040800051F0093A110518F468810E94D22B21964B
:104090000F5F1F4FF0CFCDB7DEB7E6E00C94892B52
:1040A000CF93DF93C7E5D3E060E0CE010E94D22B2F
:1040B0002196C11584E0D807B9F7DF91CF91089513
:1040C000A4E0B0E0E6E6F0E20C946C2BF82E8FE072
:1040D0008F15E8F18FEF93E00E94BE2B811137C05E
:1040E00007E513E0FF2069F0011584E0180779F176
:1040F000C8010E94BE2B811101C0FA940F5F1F4FAF
:10410000F1CF19821A821B821C82DD24D39478019C
:104110008FEFE81AF80AC8010E94BE2B89831A8221
:104120008823A9F09FEF980F933058F48A83D9829F
:104130000E5F1F4FC7010E94BE2B8B83882339F06F
:104140007801CE0101960E9440068701E0CF2496B7
:10415000E7E00C94882BCF93DF9386319C4541F5A3
:10416000EB010E94A20E982F8A81209100013091CC
:104170000101882379F09A7A81E009F480E0809344
:10418000A902911102C069E201C065E3C9010E9460
:104190008A220AC08091A902811102C069E201C08D
:1041A00065E3C9010E9498220E94E60E80E001C0EA
:1041B00081E0DF91CF9108950F931F93CF93DF9309
:1041C000C42FD22FFC0182818823B1F04093AC022E
:1041D0000E941A239093AB028093AA0280E28C0F74
:1041E000883008F04DC0C77081E001C0880FCA95C3
:1041F000EAF70E94D20744C08091AC02481330C055
:104200008091AA029091AB020E943223883C9105D2
:1042100038F510E21D0FCD17B9F080E28C0F883011
:1042200040F4C77081E001C0880FCA95EAF70E9488
:10423000D907183010F581E09D2F977001C0880FC5
:104240009A95EAF70E94D207802F0E94C80718307B
:10425000B8F4D77081E001C0880FDA95EAF70AC098
:1042600080E28C0F883060F4C77081E001C0880F55
:10427000CA95EAF70E94D90703C0802F0E94C80799
:10428000DF91CF911F910F9108950F939C01CB0166
:10429000233F4CE5340731F188F4283DFCE53F0726
:1042A000D9F0293D4CE5340779F1273D3C45A9F586
:1042B00006E221EE41EE67ED7CE52BC0253FFCE5F3
:1042C0003F07E1F0A8F0263F3C4539F507E225EE2F
:1042D00046EE66EF7CE51DC007E225EE45EE68ED93
:1042E0007CE517C006E221EE40EE63EF7CE511C0ED
:1042F00007E225EE44EE64EF7CE50BC006E221EE1A
:1043000042EE65EF7CE505C008E221E045EE69ED8F
:104310007CE50E94DC2080E008C0FC0182818823CB
:1043200019F01092AC0201C081E00F9108959093B2
:10433000D1018093D00108959093B2028093B1028D
:104340000895E091B102F091B202309729F0019006
:10435000F081E02D0995089580E00895FC01A09179
:10436000B102B091B202109791F08091210188239F
:1043700041F08091DA0287FF04C08081818386E06A
:104380008083CF011296ED91FC91139709950895C2
:104390002091AF023091B0022817390771F0909345
:1043A000B0028093AF02E091B102F091B202309777
:1043B00021F00680F781E02D099508952091AD0246
:1043C0003091AE022817390771F09093AE028093B6
:1043D000AD02E091B102F091B202309721F0008479
:1043E000F185E02D09950895FC0132968091210117
:1043F000882331F08091DA0287FF02C09EE101C07C
:1044000096E080E0915028F021912223D9F38F5F2C
:10441000F9CF0895662351F1209121012223E9F07B
:104420002091DA0227FF19C0462F469546954695FA
:104430004E31E0F4677021E030E002C0220F331FFC
:104440006A95E2F7FC01E40FF11D828190E02823D8
:10445000392381E0232B69F409C0FC0132960896C8
:104460002191621729F0E817F907D1F780E0089544
:1044700081E008959C01FC0132969FEF80E041911C
:10448000461789F09F3F19F4411101C0982F8F5FA3
:104490008630A9F79F3F39F0F901E90FF11D97FD2B
:1044A000FA956283089508959C012A5F3F4FFC01AD
:1044B0004281461301C01282019682179307B9F711
:1044C0000895262F2695269526952E3168F4FC0111
:1044D000E20FF11D677021E030E001C0220F6A9504
:1044E000EAF78281282B22830895262F2695269588
:1044F00026952E3170F4FC01E20FF11D677021E06A
:1045000030E001C0220F6A95EAF7209582812823C6
:104510002283089520912101222339F02091DA028B
:1045200027FF03C00E94612208950E943A22089545
:1045300020912101222339F02091DA0227FF03C0C4
:104540000E94752208950E9454220895209121010D
:10455000FC013296222331F08091DA0287FF02C0FB
:104560008EE101C086E0DF011D928A95E9F708958A
:1045700008950E94B822089583E08093B3020E94B8
:10458000B9220895811102C081E001C082E08093C8
:10459000B3020E94B92208950E94C222089581E0C8
:1045A0008093B3020E94B92208950E94CF220895F9
:1045B00008950E94D822089585B7806885BF85B781
:1045C000806885BF08951F920F920FB60F92112435
:1045D0008F939F93AF93BF938091B402811113C0C7
:1045E0008091160490911704A0911804B0911904B9
:1045F0004196A11DB11D8093160490931704A093BA
:104600001804B0931904BF91AF919F918F910F90AF
:104610000FBE0F901F9018950E94260A0E947705E2
:10462000089582E084BD93E095BD9AEF97BD809395
:104630006E0008952FB7F894809116049091170496
:10464000A0911804B09119042FBF08952FB7F894C2
:1046500060911604709117048091180490911904C8
:104660002FBF08959C014FB7F89480911604909144
:104670001704A0911804B09119044FBF821B930B2B
:10468000089578941F920F920FB60F9211248F9372
:104690009F93AF93BF938091160490911704A091BC
:1046A0001804B09119040196A11DB11D8093160440
:1046B00090931704A0931804B0931904BF91AF917D
:1046C0009F918F910F900FBE0F901F90189581E0D2
:1046D0008093E00080E28093D8001092C9008FE1BF
:1046E0009EE40197F1F700C0000087E090EBDC0149
:1046F0008093270490932804A0932904B0932A045C
:104700009CE088E10FB6F894A895809360000FBEF6
:1047100090936000FFCF9CE088E10FB6F894A895D5
:10472000809360000FBE90936000FFCF8091D8020D
:1047300008950895CF93DF9320912101222339F02A
:104740002091DA0227FF03C060E224E002C068E0A3
:1047500021E02093E9002FEF3091E800215035FD52
:1047600006C035ED3A95F1F700002111F5CF209103
:10477000E80025FF1DC0EC0180912101811105C0D9
:1047800040E050E068E070E003C070E040E050E0DE
:10479000CE010E94F8258091E8008E778093E80092
:1047A00080E2FE01A8EBB2E001900D928A95E1F75C
:1047B000DF91CF9108958093B5027093B702609313
:1047C000B60280911E048430F9F48093E9008FEFE3
:1047D0009091E800815095FD06C095ED9A95F1F70E
:1047E00000008111F5CF8091E80085FF0DC040E009
:1047F00050E063E070E085EB92E00E94F825809144
:10480000E8008E778093E8000895BC0184E00E9460
:10481000DB230895BC0183E00E94DB230895089503
:10482000CF93603219F520911E042430F9F4C09121
:10483000E900CF703091EC00232F217030FD20E88B
:10484000C22B22E02093E9002091E80020FF0BC05A
:1048500040E050E060E270E00E94F8258091E800BE
:104860008E778093E800CF70C093E900CF910895D0
:1048700080911D04811109C00E94C8270E9425282B
:104880008091E20084608093E200089510921D04FC
:1048900008950E94D522089560911A0481E0611163
:1048A00001C080E00E94BC2208950E940C239091D8
:1048B0001E0481E0943009F080E060911A040E94A7
:1048C000C222089542E061EC81E00E94412742E269
:1048D00061EC84E00E94412742E261EC82E00E94A8
:1048E000412742E260EC83E00E94412790911E0440
:1048F00081E0943009F080E060911A040E94CC229B
:10490000089580912004833009F463C030F481302D
:1049100071F0823009F49DC008958A3009F489C08D
:104920008B3009F46EC0893009F0ABC020C0809193
:104930001F04813A09F0A5C08091E800877F809329
:10494000E8008091230490912404892B21F460E2F3
:1049500088EB92E003C060E080E090E070E00E94AD
:1049600082268091E8008B778093E80008958091FB
:104970001F04813209F085C08091230490912404A2
:10498000009719F0029709F07CC08091E800877FBA
:104990008093E8008091E80082FD05C080911E04AC
:1049A0008111F8CF6EC02091F3008091F20090E069
:1049B000922B029731F48091F100813011F0863012
:1049C00021F48091F1008093D8028091E8008B77E8
:1049D00054C080911F04813A09F053C08091230490
:1049E00090912404892B09F04CC08091E800877FC6
:1049F0008093E8008091E80080FFFCCF8091210146
:104A000037C080911F048132E1F580912304909199
:104A10002404892BB1F58091E800877F8093E8001A
:104A20000E94762780912104809321010E94260A0A
:104A3000089580911F04813221F58091E800877FDD
:104A40008093E8000E947627809122048093D90207
:104A5000089580911F04813AA1F48091E800877F36
:104A60008093E8008091E80080FFFCCF8091D9021C
:104A70008093F1008091E8008E778093E8000E9497
:104A80007627089584B7877F84BF0FB6F894A895DA
:104A900080916000886180936000109260000FBE7A
:104AA00090E080E80FB6F8948093610090936100E5
:104AB0000FBE0E94CF2208950E94C8270E94252879
:104AC000E2EEF0E080818460808378940E94B02AD6
:104AD000089585E191E00E949C2108950895A0E247
:104AE000B0E0E5E7F5E20C94712B80911E04843070
:104AF00011F583E08093E9008091E80082FF1BC0FC
:104B00008091E80085FF0AC040E050E060E270E07C
:104B1000CE0101960E943D2691E001C090E0809177
:104B2000E8008B778093E800992329F060E2CE01BA
:104B300001960E94351DA096E2E00C948D2B0E94F8
:104B4000A2250895292F332723303105C9F060F4B9
:104B50002130310581F02230310509F041C08BE56B
:104B600090E02BE437E040C021323105E1F0223201
:104B7000310531F135C082E190E026EA37E034C0FA
:104B800099278130910549F028F0029749F5E5EF22
:104B9000F6E005C0E7E4F7E002C0EBE2F7E084915D
:104BA00090E09F0121C063307105D0F4660F771F3C
:104BB000FB01E753FE4F2081318189E090E014C072
:104BC0006330710568F4FB01EE0FFF1FED53FE4FDC
:104BD00020813181FB01E054FE4F808190E004C0D0
:104BE00080E090E020E030E0FA01318320830895F6
:104BF000A0E0B0E0EEEFF5E20C946B2BEC018B0142
:104C00007A010E949527811133C0E114F10439F033
:104C1000F70180819181081B190BC80FD91FC12C86
:104C2000D12C0115110519F18091E80085FD16C000
:104C30008091E8008E778093E800E114F10449F058
:104C4000F70180819181C80ED91ED182C08285E092
:104C50000FC00E949527882321F30AC08991809371
:104C6000F10001501109FFEFCF1ADF0ADACF80E01F
:104C7000CDB7DEB7E8E00C94872BA0E0B0E0E3E42A
:104C8000F6E20C946B2BEC018B017A010E949527C4
:104C9000811133C0E114F10439F0F7018081918171
:104CA000081B190BC80FD91FC12CD12C01151105D8
:104CB00019F18091E80085FD16C08091E8008B779E
:104CC0008093E800E114F10449F0F70180819181BB
:104CD000C80ED91ED182C08285E00FC00E949527E0
:104CE000882321F30AC08091F100899301501109B2
:104CF000FFEFCF1ADF0ADACF80E0CDB7DEB7E8E00A
:104D00000C94872B20912504309126042617370711
:104D100048F06115710539F42091E8002E77209351
:104D2000E80001C0B901FC0120E06115710579F1CD
:104D300080911E048823F1F18530F1F18091E80023
:104D400083FD3CC08091E80082FD2EC08091E80088
:104D500080FFEBCF2091F3008091F20090E0922B46
:104D60006115710551F08830910538F42191209337
:104D7000F100615071090196F3CF21E0089709F025
:104D800020E08091E8008E778093E800CECF21115B
:104D9000CFCF0AC080911E04882361F0853061F076
:104DA0008091E80083FD0AC08091E80082FFF2CF85
:104DB00080E0089582E0089583E0089581E00895F9
:104DC00020912504309126042617370748F06115F5
:104DD000710539F42091E8002E772093E80001C096
:104DE000B901FC0120E06115710591F180911E046B
:104DF000882309F440C0853009F43FC08091E80061
:104E000083FD3DC08091E80082FD2FC08091E800C5
:104E100080FFE9CF2091F3008091F20090E0922B87
:104E20006115710559F08830910540F42491209363
:104E3000F1003196615071090196F2CF21E0089797
:104E400009F020E08091E8008E778093E800CBCFD6
:104E50002111CCCF0AC080911E04882361F08530D7
:104E600061F08091E80083FD0AC08091E80082FF34
:104E7000F2CF80E0089582E0089583E0089581E014
:104E80000895982F973068F59093E900981739F0B6
:104E90007091EC002091ED005091F00003C0242FA0
:104EA000762F50E021FD02C09F5FECCF3091EB00E8
:104EB0003E7F3093EB003091ED003D7F3093ED006D
:104EC0003091EB0031603093EB007093EC00209355
:104ED000ED005093F0002091EE0027FDE5CF80E03B
:104EE00008958F708093E90081E0089580911F04F8
:104EF00087FF11C08091E80082FD05C080911E04EB
:104F00008111F8CF11C08091E8008B770BC08091A0
:104F10001E04882349F08091E80080FFF8CF80913B
:104F2000E8008E778093E80008952091E4003091A6
:104F3000E50095E64091EC00842F817040FF23C08E
:104F40008091E80080FD1DC080911E04882399F0A7
:104F5000853099F08091EB0085FD11C04091E4000F
:104F60005091E5002417350729F3915011F09A016B
:104F7000E1CF84E0089582E0089583E0089581E020
:104F8000089580E008954091E80042FFDDCF089544
:104F90000E9437280E943F28E0EEF0E08081816087
:104FA0008083E8EDF0E080818F77808319BCA7EDE6
:104FB000B0E08C918E7F8C9380818F7E8083109265
:104FC0001D0408950F931F93CF93DF930E943728FA
:104FD0000E943F28C8EDD0E088818F778883888140
:104FE0008068888388818F7D888319BC10921E0415
:104FF00010921A0410921C0410921B0400EE10E090
:10500000F80180818B7F808388818160888342E082
:1050100060E080E00E944127E1EEF0E080818E7F39
:105020008083E2EEF0E0808181608083808188600F
:105030008083F80180818E7F80838881806188836E
:10504000DF91CF911F910F910895E8EDF0E08081FD
:105050008F7E8083E7EDF0E080818160808384E053
:1050600082BF81E080931D040E94E2270895E8ED4D
:10507000F0E080818E7F80831092E200089510928C
:10508000DA001092E10008951F920F920FB60F926E
:1050900011242F933F934F935F936F937F938F933D
:1050A0009F93AF93BF93EF93FF938091E10082FFB3
:1050B0000BC08091E20082FF07C08091E1008B7FEE
:1050C0008093E1000E94AF2A8091DA0080FF1FC028
:1050D0008091D80080FF1BC08091DA008E7F809382
:1050E000DA008091D90080FF0DC080E189BD82E1A6
:1050F00089BD09B400FEFDCF81E080931E040E94AB
:10510000382405C019BC10921E040E9446248091C8
:10511000E10080FF19C08091E20080FF15C08091FE
:10512000E2008E7F8093E2008091E20080618093B4
:10513000E2008091D80080628093D80019BC85E09D
:1051400080931E040E944C248091E10084FF30C0B3
:105150008091E20084FF2CC080E189BD82E189BD9D
:1051600009B400FEFDCF8091D8008F7D8093D800D8
:105170008091E1008F7E8093E1008091E2008F7E3C
:105180008093E2008091E20081608093E200809150
:105190001A04882311F084E007C08091E30087FDA2
:1051A00002C081E001C083E080931E040E94552468
:1051B0008091E10083FF29C08091E20083FF25C038
:1051C0008091E100877F8093E10082E080931E045C
:1051D00010921A048091E1008E7F8093E10080910B
:1051E000E2008E7F8093E2008091E20080618093F4
:1051F000E20042E060E080E00E9441278091F00000
:1052000088608093F0000E944924FF91EF91BF9144
:10521000AF919F918F917F916F915F914F913F914E
:105220002F910F900FBE0F901F9018951F920F9205
:105230000FB60F9211242F933F934F935F936F9369
:105240007F938F939F93AF93BF93CF93DF93EF930E
:10525000FF93C091E900CF708091EC00D82FD170FE
:1052600080FDD0E81092E9008091F000877F809364
:10527000F00078940E945A291092E9008091F00081
:1052800088608093F000CD2BCF70C093E900FF9130
:10529000EF91DF91CF91BF91AF919F918F917F91CE
:1052A0006F915F914F913F912F910F900FBE0F9093
:1052B0001F901895AAE2B0E0E0E6F9E20C94702B9A
:1052C000EFE1F4E08091F100819324E0E732F2070E
:1052D000C9F70E9481248091E80083FF2EC180914C
:1052E0001F0490912004492F50E04A30510508F0E6
:1052F00024C1FA01EB58FF4F0C94232B803821F086
:10530000823809F01AC108C080911B0490911C04D6
:10531000992389F082600FC0809123048F708730B9
:1053200008F00BC18093E9008091EB0085FB882792
:1053300080F91092E9009091E800977F9093E8003F
:105340008093F1001092F100D1C0282F2D7F09F039
:10535000F4C0882319F0823061F0EFC080912104FD
:10536000813009F0EAC0933009F080E080931C049A
:105370002EC08091210481112AC0809123048F7056
:105380002FEF280F263008F0D8C08093E900209135
:10539000EB0020FF1CC0933021F48091EB00806271
:1053A00014C09091EB0090619093EB0021E030E00D
:1053B000A90102C0440F551F8A95E2F74093EA0005
:1053C0001092EA008091EB0088608093EB001092CD
:1053D000E9008091E800877F8093E8000E947627AB
:1053E000ACC08111AAC0109121041F778091E30005
:1053F0008078812B8093E3008091E800877F809301
:10540000E8000E9476278091E80080FFFCCF809121
:10541000E30080688093E300111102C082E001C0C4
:1054200083E080931E0489C08058823008F085C0D4
:1054300080912104909122048C3D53E0950779F5E9
:1054400083E08A838AE289834FB7F894DE0113965A
:1054500020E03EE051E2E32FF0E050935700E4916A
:1054600020FF03C0E295EF703F5FEF708E2F90E05A
:10547000EA3010F0C79601C0C0968D939D932F5FC0
:10548000243149F74FBF8091E800877F8093E8007F
:105490006AE270E0CE0101960E94822616C06091F9
:1054A000230470912404AE014F5F5F4F0E949F253B
:1054B000BC01892B09F441C09091E800977F90933B
:1054C000E80089819A810E94E0268091E8008B772C
:1054D0008093E80032C0803881F58091E800877FB2
:1054E0008093E80080911A048093F1008091E80095
:1054F0008E7772CF811121C0809121049091220476
:1055000099270297D4F48091E800877F8093E80080
:105510008091210480931A040E94762780911A04B6
:10552000811106C08091E30087FD02C081E001C0C7
:1055300084E080931E040E9462248091E80083FF2F
:105540000AC08091E800877F8093E8008091EB009B
:1055500080628093EB00AA96E3E00C948C2B089574
:10556000CF9380911E048823A1F0C091E900CF70F1
:105570009091EC00892F817090FD80E8C82B1092EB
:10558000E9008091E80083FD0E945A29CF70C09302
:10559000E900CF91089587FB082E062687FD8195A7
:1055A00067FD61950E94982B0EF4919507FC8195FB
:1055B0000895AA1BBB1B51E107C0AA1FBB1FA6175A
:1055C000B70710F0A61BB70B881F991F5A95A9F7AC
:1055D00080959095BC01CD01089597FB072E16F498
:1055E000009407D077FD09D00E94D92A07FC05D086
:1055F0003EF4909581959F4F0895709561957F4FEA
:105600000895A1E21A2EAA1BBB1BFD010DC0AA1F03
:10561000BB1FEE1FFF1FA217B307E407F50720F01B
:10562000A21BB30BE40BF50B661F771F881F991F96
:105630001A9469F760957095809590959B01AC01DF
:10564000BD01CF010895EE0FFF1F0590F491E02DED
:105650000994692796276927782787277827089547
:105660000E94382B332312F48A1B9B0B0C94492B7A
:10567000A29FB001B39FC001A39F700D811D112493
:10568000911DB29F700D811D1124911D08950E94DE
:10569000382BB7FF0895821B930B08950E94382B77
:1056A000A59F900DB49F900DA49F800D911D112476
:1056B0000895B7FF0C944E2B0E944E2B821B930B28
:1056C00008952F923F924F925F926F927F928F92A6
:1056D0009F92AF92BF92CF92DF92EF92FF920F9381
:1056E0001F93CF93DF93CDB7DEB7CA1BDB0B0FB68B
:1056F000F894DEBF0FBECDBF09942A883988488848
:105700005F846E847D848C849B84AA84B984C884DD
:10571000DF80EE80FD800C811B81AA81B981CE0FD4
:10572000D11D0FB6F894DEBF0FBECDBFED010895B9
:10573000991B79E004C0991F961708F0961B881FE3
:105740007A95C9F780950895FC014150504030F09A
:1057500001900616D1F73197CF0108958827992730
:105760000895FB01DC0104C08D910190801921F4A2
:1057700041505040C8F7881B990B0895F999FECF06
:1057800092BD81BDF89A992780B50895A6E1B0E051
:1057900044E050E00C94F82BA8E1B0E042E050E087
:1057A0000C94F82B262FF999FECF92BD81BDF89A63
:1057B000019700B4021639F01FBA20BD0FB6F89455
:1057C000FA9AF99A0FBE08950396272F0E94D32BB9
:1057D0000E94D22B252F0E94D32B242F0C94D32B45
:1057E0000196272F0E94D32B0C94D22BDC01CB01E6
:1057F000FC01F999FECF06C0F2BDE1BDF89A3196E1
:1058000000B40D9241505040B8F70895F894FFCF7E
:105810005702010102005700575701191A1B1C1D9E
:105820001E1F20212296239A230F240A240524993F
:105830002301E200E900EA00B500B600B700CD00A0
:105840008301CC008A0192019401210223022402E7
:105850002502260227022A02B300B4006F0070005E
:10586000818283E200E900EA00B500B600B700CD0E
:10587000008301CC008A01920194012102230224B9
:10588000022502260227022A02B300B4006F00702C
:105890000081828330313233F4F5F6F736359734B0
:1058A00096F0916694939237F16795000102020297
:1058B000020606060909090909090F0F0F0F0F0F44
:1058C0001515151819191919191919191919232440
:1058D00040226D4708B807DA075D0776079607008C
:00000001FF
