:100000000C9404030C9421030C9421030C942103FD
:100010000C9421030C9421030C9421030C942103D0
:100020000C9421030C9421030C94C4200C940620FE
:100030000C9428240C9421030C9421030C94210388
:100040000C9421030C9421030C9421030C942103A0
:100050000C9421030C94DB230C9421030C942103B6
:100060000C9421030C9421030C9421030C94210380
:100070000C9421030C9421030C9421030C94210370
:100080000C9421030C9421030C9421030C94210360
:100090000C9421030C9421030C9421030C94210350
:1000A0000C9421030C9421030C942103CD07D00759
:1000B000F307000807081208150854087F082C09E0
:1000C0002C098A088C089108B908DE08E108E408C0
:1000D00009098C0D9C0DAE0DB80D790D690D010D42
:1000E00015101510501050108110801180118011C2
:1000F0009D10111123112311131E3A1EEE1F3A1EDB
:10010000EE1F861EA91EEE1F9F1FAF1F6368726F32
:100110006D61746F6E656D696E693A7669612040D4
:1001200020302E31372E38207C20323032322D30A4
:10013000382D31322D31323A32323A343100050124
:100140000980A101850319012AB700150126B7000E
:10015000950175108100C0050C0901A101850419E4
:10016000012AA002150126A002950175108100C088
:100170000660FF0961A1010962150026FF009520B4
:10018000750881020963150026FF00952075089106
:1001900002C005010906A101050719E029E71500BC
:1001A00025019508750181029501750881010507F2
:1001B000190029FF150026FF009506750881000526
:1001C000081901290595057501910295017503919D
:1001D00001C00902BF00050100A0FA0904000001E6
:1001E00003010100092111010001224000070581DE
:1001F00003080001090401000203000000092111A5
:1002000001000122220007058203200001070503E7
:10021000032000010904020001030000000921116C
:1002200001000122320007058403200001080B03AE
:10023000020101000009040300000101000009247B
:100240000100010900010409040400020103000087
:1002500007240100014100062402010100062402D6
:100260000202000924030103010201000924030220
:1002700004010101000905060240000500000525F2
:100280000101010905850240000500000525010165
:10029000031201000200000008EDFEB4F4010001A9
:1002A0000200011E036300680072006F006D0061B0
:1002B0000074006F006E0065006D0069006E0069DB
:1002C0000000000E033300610072006100680074DA
:1002D00000000004030904A843B95C805F815FBA91
:1002E0005C475C485CB15C495C4A5C4B5C4C5C4D77
:1002F0005C4E5C4F5CAA00505C515C525C535C5499
:100300005C555C565CA900575C585C595C5A5C5B58
:100310005C5C5C5D5C00005E5C5F5C605C615C62C0
:100320005C635C645C0000655C665C675C685C697F
:100330005C6A5C6B5C000001000100905C915C01F8
:1003400000010001000100010001000100010001A5
:100350000001000100010001000100010001000195
:100360000001000100010001000100010001000185
:100370000001000100000001000100010001000176
:100380000001000100000001000100010001000166
:100390000001000100000001000100010001000156
:1003A0000001000100010001000100010001000145
:1003B0000001000100010001000100010001000135
:1003C0000001000100010001000100010001000125
:1003D0000001000100000001000100010001000116
:1003E0000001000100000001000100010001000106
:1003F0000001000100000001009C5C815C825C9DAA
:100400005C855F835F00000252845F000000000093
:100410000000000000C45C00000000C85C0000C7D1
:100420005C0000C65CC35C0000C55C0000CC5C00E6
:1004300000CB5C00000000CA5C0000C95C0000C486
:100440005C0000C35C00000000DE5C865F825F0031
:1004500000C25C0000000000010101010101010176
:100460000102020202020202020203030303030367
:100470000303040404040404040505050505060635
:1004800006060607070707070808080809090909F3
:100490000A0A0A0B0B0B0C0C0C0D0D0D0E0E0E0F99
:1004A0000F0F101011111112121313141415151629
:1004B000161717181819191A1A1B1B1C1D1D1E1E9A
:1004C0001F202021222223242425262627282929EB
:1004D0002A2B2C2D2D2E2F30313232333435363716
:1004E00038393A3B3C3D3E3F404142434445464714
:1004F00048494A4C4D4E4F50515354555658595AED
:100500005B5D5E5F616264656668696B6C6D6F7090
:1005100072737577787A7B7D7E8082838587888AFF
:100520008C8E8F91939596989A9C9EA0A2A3A5A736
:10053000A9ABADAFB1B3B5B7BABCBEC0C2C4C6C932
:10054000CBCDCFD1D4D6D8DBDDDFE2E4E7E9EBEEEB
:10055000F0F3F5F8FAFDFF000000000000000000D5
:10056000000000000000000000000000000000008B
:1005700000000000000000000000007E0F00D4FF1B
:10058000FFFFC70000007800000000000000002A04
:100590002B28000000000000000000000000000008
:1005A000000029000000002C1E34202122243426C3
:1005B00027252E362D3738271E1F202122232425BC
:1005C000263333362E37381F0405060708090A0B71
:1005D0000C0D0E0F101112131415161718191A1BE3
:1005E0001C1D2F3130232D350405060708090A0B81
:1005F0000C0D0E0F101112131415161718191A1BC3
:100600001C1D2F3130354C0011241FBECFEFDAE016
:10061000DEBFCDBF14E0A0E0B1E0E2E8F7E602C043
:1006200005900D92A033B107D9F728E0A0E3B4E01C
:1006300001C01D92A033B207E1F70E9423030C947E
:10064000BF330C940000AAE2B0E0E9E2F3E00C94BE
:10065000723385B7806885BF85B7806885BF0E9483
:100660007C2D10928606109288061092870680ECE8
:1006700080934B0789E896E090934D0780934C0751
:1006800010924A071092490710926606109265066A
:10069000109268061092670610926A061092690618
:1006A00010926C0610926B0610926E0610926D06F8
:1006B0001092700610926F061092720610927106D8
:1006C00010927406109273061092760610927506B8
:1006D000109278061092770610927A061092790698
:1006E00010927C0610927B061092800610927F0674
:1006F00089E793E2909362068093610688EF92E225
:10070000909382068093810683ED91E290937E061A
:1007100080937D0682ED91E2909364068093630658
:1007200084B7877F84BF0FB6F894A8958091600046
:10073000886180936000109260000FBE90E080E8B6
:100740000FB6F89480936100909361000FBE89E228
:1007500097E190933104809330040E944A200E94D4
:1007600069208091E20084608093E2007894809117
:10077000AB048823A1F01091E9001F709091EC0068
:10078000892F817090FD80E8182B1092E9008091EC
:10079000E80083FD0E94311D1F701093E90082E084
:1007A00084BD93E095BD9AEF97BD80936E000E9443
:1007B000E925811102C00E94D92508E211E09EE2DC
:1007C000E92E91E0F92ED8018D918D018F3F11F026
:1007D0000E946E17E016F106B1F70EE211E086E313
:1007E000E82E81E0F82EF80181918F018F3F11F002
:1007F0000E946E17E016F106B1F786E0E7E4F4E038
:10080000DF01282F1D922A95E9F7E2E3F4E0DF01EA
:100810001D928A95E9F70E94CE19811102C00E94AB
:10082000DA1982E090E00E94983280933A040E94A4
:10083000BD1990933904809338040E948517EFE323
:10084000FCE93197F1F700C000000E948517809104
:10085000470480FF08C06FEF7FEF80E090E00E94C8
:10086000D4320E94CA2383E090E00E9498320E9412
:100870006D2E10922D06ECE4F6E080E696E02FEF68
:100880003FEF219331938E179F07D9F71092F80706
:10089000E7E1F8E08FEF9FEF8193919328E0EB324F
:1008A000F207D1F70E94CE19811104C00E94DA1913
:1008B0000E940E1746E050E06CE170E087E296E09F
:1008C0000E9488321092B504809127068C7F11F423
:1008D0000E940E1781E08093440425982D9A249855
:1008E0002C9A8FE891E00197F1F700C00000309159
:1008F0004404E5E4F4E020E0231769F083B185FBCC
:10090000882780F91C9B02C092E001C090E0892BEF
:1009100081932F5FF1CF0E94153284E091E0909394
:10092000180680931706552453941DE4612E14E095
:10093000712E04E0E02EF12C8091AB04853009F09B
:100940005DC000E4B3E0DB2E10E18091AB048530A4
:1009500009F04EC08091AB04843009F439C00E9484
:10096000AF2F80912F0881110DC00E943F1310926C
:100970002301809127068370809322010E94082220
:10098000D092240191E090932F0810921B06A8E1C9
:10099000B0E00FB6F894A895A09360000FBE009346
:1009A000600083B7817F846083BF83B7816083BF2A
:1009B0007894889583B78E7F83BF0FB6F894A895F7
:1009C00080916000886180936000109260000FBE8B
:1009D0008091AA04882309F4B8CF0E948517E7E420
:1009E000F4E08191811161C46E167F06D1F7ADCF1D
:1009F0000E94922E0E94972410922F080E94851721
:100A000081110E941024E7E4F4E0ABE3B4E000E0DD
:100A100010E0902FB1908D918B2509F4A2C0D12CBC
:100A2000CC24C3942C2D282309F496C0D9A29AA3D0
:100A3000BC2081E009F480E08BA30E941C2481602B
:100A4000782F9DA38CA349A15AA16BA18DA10E94CF
:100A5000C930F801E55CFB4F8081C826C082BB200D
:100A600089F0F801A3E0EE0FFF1FAA95E1F7E35626
:100A7000FE4FED0DF11D80818F3F21F0282EBB240C
:100A8000B39401C0B12C0B2D10E08091F807F80150
:100A9000E80FF11D3B97ACF18AE090E06C01C01AC1
:100AA000D10AB8016F5F7F4F6850784FA60189EF78
:100AB00097E00E94B633B801655F7F4F6850784F6A
:100AC000A60183E098E00E94B633A601440F551FAB
:100AD000B801660F771F615E7F4F6850784F87E1DE
:100AE00098E00E94B633B8016B5E7F4F6850784F34
:100AF000A6018DE098E00E94B6338AE08B198093BE
:100B0000F8078091F80790E0A22DB0E09D01220F38
:100B1000331F23533E4FAA0FBB1FBD0162537E4FAD
:100B200041E0480F9B15A8F490E0FC01E850F84F15
:100B3000D9015C915183DB015C915387258A880F31
:100B4000991FFC01E850F84F10A2178E91E0842FF6
:100B5000E7CF8093F8071BC0D394CC0C28E0D212C7
:100B600061CF0F5F1F4F0630110509F052CF8FEF95
:100B70008EA38FA318A60E941C248160782F9AA7A9
:100B800089A74EA15FA168A58AA50E94C9300E94CD
:100B9000AF2FB12CA12C42E0942E80914404B816C2
:100BA00008F084C0CB2CD12CE3B1E5FBEE27E0F9B3
:100BB0001C9B02C092E001C090E08E2F892BD601D1
:100BC000AB5BBB4FEC912E2F237030E0482F082EEB
:100BD000000C550B2417350709F466C0EE0FEE0F15
:100BE000E82BEC93EF70F0E0E65CFE4F86010D5BC6
:100BF0001B4F9081D8018C91890F8C9384301CF10C
:100C0000F601EE5BFB4F80818F5F8083F601EE0F74
:100C1000FF1FEA5CFE4F808191819A8389835B820A
:100C20000E941C248160782F9D838C83F601EF5BEA
:100C3000FB4FB1E0B08349815A816B818D810E9465
:100C4000C93021E001C020E0F80180818D3F0CF522
:100C5000F601EE5BFB4F808181508083F601EE0F41
:100C6000FF1FE85CFE4F808191819A8389835B82BC
:100C70000E941C248160782F9D838C83F601EF5B9A
:100C8000FB4F908249815A816B818D810E94C930CE
:100C900021E0D8018C91082E000C990BB7010E941D
:100CA0005133F8018083A22AB39477CFA1100E9418
:100CB0001024E0918106F0918206309719F081E6C8
:100CC00096E009952FB7F89400914A07909149074B
:100CD000091718F480914B07080F091B2FBFC12C6F
:100CE000D12C10E083E0882E912CAA24A394B12C5F
:100CF000C016D10608F0B5C08091490790E0609118
:100D00004B0770E00E945133E0914C07F0914D0782
:100D1000E80FF91F408030908606F7EFF41560F475
:100D20005092860620E040E0642D81E090E00E9431
:100D30002E293092860683C047FE50C024E032162A
:100D400031F040928306B0928806A0928706842DE7
:100D50000E94D222813031F080F0823059F083300D
:100D600049F035C08093860620E040E0642D81E0A4
:100D700090E028C08093860662C030EF4316E1F011
:100D800067EF461224C02091870630918806C9017A
:100D9000B4010E943D33FC01EF59F94F42A2C90151
:100DA000019690938806809387062091850640914E
:100DB00084066091830606C074E0709386064092B4
:100DC000830633C00E942E291092860638C01092E6
:100DD0008606109288061092870631C0332079F17A
:100DE0002091870630918806C901B4010E943D33E5
:100DF000AC01FC01EF59F94F42A2C9010196909351
:100E000088068093870641305105A1F04230510594
:100E1000B1F42091850640918406609183060E947A
:100E20002E2980918606843051F0B0928806A092D7
:100E3000870605C0A2E03A1202C020E0ECCF2FB72F
:100E4000F8948091490790E0019660914B0770E01B
:100E50000E945133809349072FBFBFEFCB1ADB0AA3
:100E600047CF80914E0790914F070E940124209117
:100E7000E4072695269526952F7030E08217930774
:100E800098F10E941C2490934F0780934E07809105
:100E90005007882349F19091E307991F9927991FDB
:100EA0008091E4078770880F4091510761E0892B9A
:100EB0000E949026909150078091510797FF0FC094
:100EC000282F30E0E92FFF27E1950CF4F0952E173D
:100ED0003F072CF4109251071092500705C0890F5C
:100EE00087FD8FE7809351070E94972490914604D5
:100EF0008913809346048091AB048430F1F480918F
:100F000014018F708093E9009091E80090FF15C064
:100F10009091AB04943089F48093E9002091F30020
:100F20008091F20090E0922B892B39F08091E800BB
:100F30008E778093E8000E949B218091AB048430DF
:100F400009F0FACC83E08093E9008091E80082FF09
:100F5000F3CC8091E80085FF0AC040E050E060E2F9
:100F600070E0CE0101960E94462A91E001C090E017
:100F70008091E8008B778093E800992309F4DCCC1A
:100F8000E9818E2F90E0FC013197E331F10508F003
:100F900063C1EA5AFF4F0C9465331A8289E0BFC0DF
:100FA0008A81823009F498C1833051F0813009F090
:100FB00053C10E9410249B838C837D836E834EC11A
:100FC000809147048B83809148048C8380914904ED
:100FD0008D8380914A048E8380914B048F8380910E
:100FE0004C0488873BC18A81823009F035C16B810E
:100FF0007C818D819E810E946B330E94B5252EC11C
:101000004C816B818A810E9479259D836CC12D81E1
:101010003E813227232732274C816B818A810E94AF
:101020001D251CC10E94442519C18A818138B1F057
:1010300050F4803809F012C18091280620E04B81DD
:10104000609129062DC08238F9F0833809F006C175
:101050008B8120E040912A066C8122C060E08B8168
:101060000E94722F8B8181110CC0809127068370A2
:1010700011F010922401809127068C7F809327061F
:10108000EDC00E94A22FEAC0EB81E43028F4F0E02A
:10109000E65BFE4F808101C08FE780932B06DEC0A8
:1010A00090E00E945F2FDAC08A81813899F030F495
:1010B000803809F0D3C080912A0631C0823879F097
:1010C000833809F0CBC0809128068B838091290654
:1010D0008C83C4C0809127068695869520C0809118
:1010E0002B06873230F08F3530F08E3930F482E0C5
:1010F00016C080E014C081E012C083E010C046E05A
:1011000050E06CE170E087E296E00E94A632109217
:10111000B504A4C080E156C082E08A8389E58B8350
:101120009DC00A811B81102701271027AC80B12C9C
:101130009E012F5F3F4F49016901C80189559E4FAC
:101140009601281939092A153B0508F087C0093589
:1011500032E0130730F40E949832D60114968C9333
:1011600002C0F60114820F5F1F4FFFEFCF1ADF0A94
:10117000E4CF0A811B81102701271027AC80B12CF6
:101180009E012F5F3F4F49016901C80189559E4F5C
:101190009601281939092A153B0508F05FC0093561
:1011A00032E0130728F4D60114966C910E94B632EF
:1011B0000F5F1F4FBFEFCB1ADB0AE7CF0E940D2551
:1011C0004DC084E08A834AC00A811B811027012711
:1011D0001027AC80B12CFE0131964F016F01C80180
:1011E00087969601281939092A153B05B8F5003864
:1011F000F1E01F0730F40E949832D60114968C93C8
:1012000002C0F60114820F5F1F4FFFEFCF1ADF0AF3
:10121000E6CF0A811B81102701271027AC80B12C53
:101220009E012F5F3F4F49016901C80187969601D2
:10123000281939092A153B0588F4003831E01307CD
:1012400028F4D60114966C910E94B6320F5F1F4F9E
:10125000BFEFCB1ADB0AE9CF8FEF89838091AB0414
:10126000843009F069CB1091E9001F709091EC0077
:10127000892F817090FD80E8182B82E08093E9002F
:101280008091E80080FF0DC040E050E060E270E037
:10129000CE0101960E941C2A8091E8008E778093EF
:1012A000E8001F701093E90047CB19BD82E189BDAA
:1012B00009B400FEFDCF8091D8008F7D8093D800C7
:1012C0008091E00082608093E0008091E00081FDE9
:1012D000FCCF0E94922E39CB86E290E00E94983299
:1012E0001B821C821D828E83B9CFA9E0B0E0EBE7A0
:1012F000F9E00C947833FC01808191812381348161
:10130000232B31F09F3F31F491E08F3F19F403C05C
:1013100091E001C090E090FF02C00C941A127F018E
:1013200085E0DE01119601900D928A95E1F7F701B3
:10133000228189819A81222349F00E94AA2D182FA7
:10134000682F89819A810E941A2E03C00E94E62D7F
:10135000182F69817A81812F0E94A7258C01F701BE
:101360009281992309F4D4C7980122513F45203135
:10137000310508F09EC08FEF93E00E9498328111F2
:101380000C941A12025167EAE62EFF24F39400230C
:1013900081F0E114F4E0FF0611F40C941A12C70175
:1013A0000E949832811101C001502FEFE21AF20A17
:1013B000EECF1E821F8218861986DD24D3945AE050
:1013C000C52E87010F5F1F4FC7010E9498328E8381
:1013D0001F82882311F40C941A129FEF980F9330F8
:1013E00068F48F83DE8232E0E30EF11CC8010E94B4
:1013F00098328887811103C00C941A1278018E01EB
:101400000A5F1F4FF80180818823D9F2813009F0EB
:101410004BC08181813049F45801F2E0AF0EB11C1C
:10142000F80182810E94422F0AC0823051F4580193
:10143000F2E0AF0EB11CF80182810E94ED2E850111
:1014400035C0833049F45801F2E0AF0EB11CF80109
:1014500082810E94B32EF3CF843019F00F5F1F4FAB
:1014600025C0F80122810E5F1F4F80E090E030E040
:10147000205331092A30310568F4C89EA001C99E65
:10148000500D1124C901840F951F0F5F1F4FF801E4
:101490002081EDCF009751F0EFE9FFE03197F1F7B0
:1014A00000C000000197F6CF0E9466310F5F1F4F0A
:1014B000A9CF0031FFE51F0711F481E005C001311C
:1014C0002FE5120731F482E00E94612E0E94A326CC
:1014D000B1C7F801E058FF45E730F10508F48DC2C7
:1014E0000E3A2CE5120708F047C00E393CE5130709
:1014F00008F095C100394CE51407F8F403385CE5B1
:10150000150708F001C101388CE5180758F40737B2
:10151000ECE51E0708F0CAC00F32FCE51F0708F013
:101520006CC099C401382CE5120709F4C9C002380F
:101530003CE5130709F4D2C08EC40C394CE51407FE
:1015400080F402395CE5150708F026C100398CE506
:10155000180709F4E7C00139ECE51E0709F4F6C0E5
:101560007AC40C39FCE51F0709F427C10D392CE5B5
:10157000120709F440C16FC4043B3CE5130709F4AA
:10158000C5C1E8F4003B5CE5150709F489C158F4CE
:101590000E3AECE51E0709F455C10F3AFCE51F07AA
:1015A00009F461C158C48091E3072091E407023B2C
:1015B0003CE5130709F492C108F09CC180C1073BC8
:1015C0005CE5150709F4BBC158F4053BECE51E07C3
:1015D00009F49CC1063BFCE51F0709F4A8C13BC404
:1015E000093B2CE5120709F4DDC108F4C6C10A3B2A
:1015F0004CE5140709F4F0C12EC42091E307822FB3
:10160000881F8827881F4091E4074770440F482BA4
:10161000822F8F7721EDE22EE00EF12C992351F1EC
:101620001091E207912F9F701595159515951595B9
:101630001F525CE0959F100D1124100F212F2F7762
:101640004069E0916106F0916206082F63E070E066
:1016500081E696E00995F701EE5AF84FDF01A85BA5
:10166000BF4F8C918F5F8C9380818F3F09F0E2C6D2
:101670001083E0C6F701EE5AF84F7F012081E85B46
:10168000FF4F9081915090839111D4C62F7740687D
:10169000E0916106F0916206082F63E070E081E658
:1016A00096E009958FEFF7018083C4C6992309F46A
:1016B000C1C60757802F8F700091E207007F2EC0B0
:1016C000992309F4B7C62091E207822F8F7009F49D
:1016D000B1C6815F982F9F70822F11C0992309F4A2
:1016E000A9C68091E2078F70282F30E0293031059C
:1016F0000CF0A0C68F5F982F9F708091E207807FCB
:10170000892B8093E20796C6992309F493C609585A
:10171000802F8295807F0091E2070F70082B009345
:10172000E20788C6992309F485C62091E207822F33
:1017300085958595859585958B3F0CF47BC6815F56
:10174000982F9295907F822F8F70DACF992309F48A
:1017500071C68091E207859585958595859586303A
:101760000CF068C631E0380F3295307F35953595ED
:1017700035953595232F2295207F9091E2079F7014
:10178000922B9093E20718160CF054C637FF52C6FE
:101790008295807F9F70B4CF992309F44BC602597C
:1017A0008EE0089F002D1124802F8F770091E30792
:1017B0000078082B0093E3073DC6992309F43AC645
:1017C0008091E307982F9F77292F30E0211531056D
:1017D00009F430C69F3719F48078856707C02D302B
:1017E00031053CF09D509F778078892B8093E307EB
:1017F00021C68078FBCF992309F41CC68091E307AA
:10180000982F9F77292F30E02F37310509F412C622
:101810002337310514F4935FE6CF8F67E7CF992321
:1018200009F408C60E598091E30700FB87F98093FD
:10183000E307069507708091E407887F082B0093E3
:10184000E407F8C5992309F4F5C53091E307932F10
:10185000991F9927991F2091E407822F8770880F7D
:10186000892B815F10C0992309F4E4C53091E30707
:10187000932F991F9927991F2091E407822F877032
:10188000880F892B8F5F982F9F7080FB37F93093DB
:10189000E3079695822F887F892B8093E407CAC53A
:1018A000992309F4C7C59091E307991F9927991FB8
:1018B0008091E4078770880F40E06BE734C099237C
:1018C00011F04FE701C040E0881F8827881F27706C
:1018D000220F60E4822B0E949026ACC5992311F060
:1018E0004FE701C040E0881F8827881F2770220F1C
:1018F00061E4F0CF992311F04FE701C040E0881F69
:101900008827881F2770220F62E4E4CF91110DC051
:1019100040E09091E307991F9927991F8091E40770
:101920008770880F63E4892BD6CF4FE7F2CF9923D6
:1019300011F081E001C08FEF809350077BC59923A0
:1019400009F478C58091E407282F269526952695D9
:101950002F7091E0920F9F70990F990F990F8778D0
:10196000892B8093E407982F987709F063C5220F9D
:10197000220F220F8778822B90CF992309F45AC522
:101980008091E4078695869586958F7009F452C5F7
:10199000815F8F70982F990F990F990F8091E407AD
:1019A00087787ACF992361F09091E307991F99275F
:1019B000991F8091E4078770880F60E070EE19C06E
:1019C0009091E307991F9927991F8091E4078770E9
:1019D000880F60E070E00DC0992391F39091E307C8
:1019E000991F9927991F8091E4078770880F6FEFDF
:1019F0007FE1892B0E9468261DC5E759FF4F0C9493
:101A00006533992309F427C23CE0A32E31E0B32EBD
:101A10004AE0942EF5018491882309F41CC2813098
:101A200009F04FC06501FFEFCF1ADF0AF60184917C
:101A3000813049F46501F2E0CF0ED11CF6018491AA
:101A40000E94422F41C0823049F46501F2E0CF0E7E
:101A5000D11CF60184910E94ED2E36C0833049F4EA
:101A60006501F2E0CF0ED11CF60184910E94B32EE5
:101A70002BC0843049F56501F2E0CF0ED11CF60190
:101A8000249180E090E030E0205331092A30310584
:101A900070F4989EA001999E500D1124C901840FE5
:101AA000951FFFEFCF1ADF0AF6012491ECCF0097C4
:101AB00059F0EFE9FFE03197F1F700C0000001971E
:101AC000F6CF0E94663165015601FFEFAF1ABF0ADB
:101AD000A1CF992309F4BFC18091E2078F70809351
:101AE000E20710924D0481E08093100110924E04A1
:101AF00062C0992309F4AFC18091E2078F7080938F
:101B0000E20710924D0481E08093100190914E0401
:101B1000892780934E044FC0992309F49CC180917A
:101B20006006813009F097C180914D04882311F03F
:101B3000815011C08BE00FC0992309F48CC18091B2
:101B40006006813009F087C180914D048B3010F41C
:101B50008F5F01C080E080934D042FC0992309F46A
:101B60007AC19091110181E089278093110125C0EC
:101B7000992309F470C1909160068091E2079B302F
:101B800081F49091100121E0292720931001909376
:101B90004D04992311F0806F01C08F708093E2078C
:101BA0000CC01092100191E090934D04806F8093CF
:101BB000E20790934E040E940B32F7019281992321
:101BC00009F4AEC1109214060330FDE51F0760F45E
:101BD0000A3F2CE5120788F4980122503C45243135
:101BE000310508F087C109C001363DE5130729F02A
:101BF000053A4DE5140709F07DC10E94BD19909387
:101C000039048093380401315CE5150709F4C9C033
:101C100008F043C009309CE5190709F49EC008F597
:101C20000530FCE51F0709F488C080F403303CE56B
:101C3000130709F47BC008F07DC002305CE515078E
:101C400009F0F9C0809138048160F3C007308CE559
:101C5000180709F47AC008F07CC0809138048061CC
:101C6000E8C00D30ECE51E0709F489C058F40B30CC
:101C70002CE5120709F47BC008F07DC08091380480
:101C8000886071C00F304CE5140709F482C008F079
:101C900084C080913804877FCCC00D3F8CE5180745
:101CA00009F473C008F50531ECE51E0709F487C097
:101CB00068F403312CE5120709F477C008F097C0E7
:101CC0000E94922E809138048F77B3C00B3F4CE571
:101CD0001407B9F108F056C00A3F8CE5180709F05F
:101CE000AAC08091390441C001309DE5190709F46B
:101CF0008AC058F40F3FFCE51F0709F45BC008F0E9
:101D00006AC080913904826030C001363DE5130716
:101D100009F47FC0053A4DE5140709F484C0023088
:101D20005DE5150709F087C060E06EC0809138045A
:101D300082607FC08091380416C08091380488602A
:101D400078C08091390482604FC0809138048062ED
:101D500070C08091380480646CC00E94922E809183
:101D60003804806866C0846064C081603DC0809132
:101D700038048E7F5EC0809138048D7F5AC0809178
:101D8000380416C08091390418C0809139048D7FC1
:101D90002BC0809138048F7E4CC0809138048F7D99
:101DA00048C0809138048F7B44C080913804877F7D
:101DB0008B7F3FC0809139048D7F8E7F15C08091CD
:101DC000380482FB222720F991E0922790FB82F9C8
:101DD00090FB83F92EC080913904982F90959170D3
:101DE0008E7F892B90FB81F98093390424C00E9457
:101DF000922E8091380487FB222720F991E09227C8
:101E000090FB87F916C061E08EE090E00E94B63248
:101E100012C08091380484FB222720F991E0922798
:101E200090FB84F906C080913804982F909590FB20
:101E300080F980933804609138041091390484E06B
:101E400090E00E94B632612F82E290E00E94B632AA
:101E50000E94922EEFC2033F9CE51907A1F406E20F
:101E600021EE40EE63EF7CE50AC0073D3CE5130739
:101E700009F0A3CE06E221EE41EE67ED7CE5C70155
:101E80000E94A424D7C2043FECE51E07A0F4083D3D
:101E9000FCE51F0731F407E225EE45EE68ED7CE531
:101EA000EECF093D2CE5120701F708E221E045EEEF
:101EB00069ED7CE5E4CF053F4CE5140731F406E21B
:101EC00021EE42EE65EF7CE5DACF053F5CE51507D4
:101ED00030F407E225EE44EE64EF7CE5D0CF063F18
:101EE0008CE5180709F069CE07E225EE46EE66EFAD
:101EF0007CE5C5CF0631ECE51E0759F580919904C4
:101F00008A7A91E009F490E090934F04882311F0CD
:101F100065E301C069E280E594E00E94512416C0A7
:101F200006315CE51507A1F580914F04882309F47B
:101F3000FEC185E3E0E5F4E026E534E09281891313
:101F400001C0128231962E173F07C1F70E94531A23
:101F500071C20E3DECE51E07B1F0073AFDE51F0723
:101F6000A1F001152CE5120771F50E94922E3FEFAA
:101F700044E35CE0315040405040E1F700C00000D5
:101F80000E94CA2357C20E94DA190E94C33152C26A
:101F90008091990482720A3CECE51E0709F432C272
:101FA00008F4C7C10F3C4CE5140709F43FC208F41C
:101FB000F3C1063D4CE5140708F4FFC10D358DE56E
:101FC000180709F437C2F70100811181992349F0FC
:101FD000C8010E94AA2DD82E682FC8010E941A2E6F
:101FE00004C0C8010E94E62DD82EB8018D2D0E9494
:101FF000A7250E944218082FC82EF701228145818B
:10200000342F32953F70D92ED2948FE0D8228D2C68
:10201000912CA12CB12CFCE08F16910408F070C11A
:10202000F401E059FF4F0C946533892F807F9F7036
:10203000192F882311F01295107F2223B9F0112354
:1020400009F445C180E2800F883010F0C11006C04D
:1020500090919904192B1093990405C090919804BC
:10206000192B109398040E94531A31C1802F0E949B
:10207000B32E112309F444C1005E1095083010F00E
:10208000C11006C09091990419231093990405C0BA
:10209000909198041923109398040E94531A30C108
:1020A000592F507F892F8F70503211F08295807F89
:1020B00051E0C5120AC0222321F0363008F020C1B9
:1020C0000DC0353008F01CC119C0222351F0332354
:1020D00029F040FFFCC04F70F70145830E94A92EF4
:1020E0000FC1332359F0093309F001C1FFEF27EE87
:1020F00033E0F15020403040E1F7FDC00E949E2EB9
:10210000FFC0892F86958695837019F0813059F02C
:10211000F7C0222319F0802F937002C080E090E076
:102120000E94812487C1222319F0802F937002C05E
:1021300080E090E00E946B247DC1892F8370A9F517
:102140002111E3C0802F829586958770880F880FB4
:10215000202F2F70082E01C0220F0A94EAF704FFE7
:1021600009C04FE050E001C0440F8A95EAF7842F80
:10217000809501C080E096959695492F4370423036
:1021800069F088F490919A04413019F0822B8923E8
:1021900002C0922B892B0E946D2EB7C0822B90918A
:1021A0009A048927F8CF822BF6CF222319F0892FA2
:1021B000817001C08695882309F4A7C0802F82957D
:1021C00086958770880F880F202F2F70082E01C0EA
:1021D000220F0A94EAF704FF09C04FE050E001C063
:1021E000440F8A95EAF7842F809501C080E0969588
:1021F0009695492F4370423059F078F490916006DB
:10220000413019F0822B892309C0922B892B06C0FB
:10221000822B90916006892701C0822B0E944F2E4D
:1022200074C0192F1F70222339F0812F0E94612E54
:10223000802F0E94A92E69C0802F0E949E2E812F80
:102240000E94542E62C0802FE1EF0E1709F1E017B3
:1022500020F0F0EF0F1741F036C042EF0417F9F00D
:1022600053EF051719F12FC0222379F0353008F00C
:1022700047C0292F2F7181E090E001C0880F2A9577
:10228000EAF79091600689271BC03630C8F5F1CF78
:10229000222339F0892F8F710E94612E31C02223B1
:1022A000C9F3892F8F710E94542E2AC0222339F03E
:1022B0009F7181E001C0880F9A95EAF701C080E024
:1022C0000E944F2E1DC0222331F0332319F3802F9B
:1022D0000E94ED2E15C0332321F3893341F48FEF93
:1022E00097EEE3E081509040E040E1F704C08FE3D7
:1022F0009CE90197F1F700C00000802F0E94B32EE7
:1023000088EF8D0D843008F095C00E94972492C00C
:1023100000313FE5130721F481E00E94542ED6C816
:1023200001314FE5140709F0D4C882E0F6CF89E205
:1023300001CE053C2CE5120709F450C0D0F4033C53
:102340004CE5140709F440C008F043C0023C8CE59A
:10235000180709F038CE9091270681E089278093ED
:102360002706109224018091B50481608093B50402
:1023700061C0073CECE51E07D9F1A8F1083C2CE54B
:102380001207D9F1093C3CE5130709F01CCE4AE5D8
:1023900052E268E672E244C00C3CECE51E07E1F153
:1023A000B0F10D3C2CE51207F1F10E3C3CE51307B2
:1023B00009F009CE61E084E03BC0013D5CE5150712
:1023C000C8F561E081E134C04BE85FE266E97FE295
:1023D00027C046E95FE26BE87FE222C042E952E2B1
:1023E0006DE972E21DC04DE952E262E972E218C085
:1023F00046E752E264E872E213C044E852E266E75C
:1024000072E20EC048E652E26AE572E209C04CEEA2
:1024100051E26AEF71E204C04AEF51E26CEE71E200
:102420000E94022607C061E081E002C061E08CE00A
:102430000E94722F2996ECE00C949433EF92FF9255
:102440000F93E00EF11C9A0157FF03C031952195BF
:10245000310994E0220F331F9A95E1F72F3F3105A0
:1024600019F014F02FEF30E02E0D3F1D2F3F3105F6
:1024700019F010F02FEF30E02095382F320F08F4CC
:102480003FEF832F0F91FF90EF900895EF92FF920F
:102490000F939701201B31092F3F310519F010F0E0
:1024A0002FEF30E02095382F320F08F43FEF832FC5
:1024B0000F91FF90EF900895EF92FF920F93970185
:1024C000201B31092F3F310519F010F02FEF30E0BC
:1024D000322F3095482F430F08F44FEF842F620FAF
:1024E0000F91FF90EF900895EF92FF920F93972F27
:1024F000093438F4B701601B71096F3F710519F099
:1025000010F06FEF70E0485F5F4F4131510540F0D0
:10251000A901485F5F4F4131510510F06FEF70E046
:102520006095482F460F08F44FEF842F37FF02C005
:102530002D5F3F4F35952795359527956091280656
:10254000620F792F0F91FF90EF900895EF92FF9215
:102550000F93E00EF11CF90137FF03C0F195E195EF
:10256000F10924E0EE0FFF1F2A95E1F7EF3FF10597
:1025700019F014F0EFEFF0E09A0157FF03C0319526
:102580002195310994E0220F331F9A95E1F72E1718
:102590003F070CF4F901EE0DFF1DEF3FF10519F0B7
:1025A00010F0EFEFF0E02E2F2095382F320F08F4C7
:1025B0003FEF832F0F91FF90EF900895EF92FF92DE
:1025C0000F93970195E0099F200D311D11242F3F96
:1025D000310519F010F02FEF30E02095382F320F31
:1025E00008F43FEF832F0F91FF90EF90089522E8BA
:1025F000241B08F420E0620F08954095282F429F85
:10260000412D1124842F0895E42FF0E0EE0FFF1FD9
:10261000E353FE4F9081921B97FD9195292F38E14E
:10262000239F212D1124620F08950E94D421089523
:102630000F931F93CF93DF93D62F072F182FC42FFD
:10264000822F0E946D2CEC2FF0E0EE0FFF1FE35362
:10265000FE4F90819058890F87FD8195880F682FD4
:102660002CE0629F612D11246D0F702F812FDF915F
:10267000CF911F910F9108950E94E0210895A0E04D
:10268000B0E0E5E4F3E10C947933C82F80912301A5
:102690008C130DC020912706237030E04091220159
:1026A00050E081E02417350719F480E001C081E093
:1026B00081708093210180912C06909120019817C0
:1026C00039F08093200140E060E080E00E94151323
:1026D000C53119F580E79AE20E9407280AC0C83080
:1026E00008F03CC1C53009F040C188E79BE20E9478
:1026F000BD2790911F019F5F90931F01811189C396
:1027000082E08093240180912101811182C3C11153
:1027100080C383E0809324017CC3C63108F067C185
:10272000CA3029F48BEF9BE20E945C28E2CFCB30C9
:1027300008F025C1C43009F043C0D0911F0188E1E1
:10274000D89FD02D112418E11D0F153708F014E77C
:10275000F090280600912906E0902A0660912B0649
:1027600066956695669580912306909124060E9451
:10277000E82C0E946D2C805887FD8195880F282FAA
:102780003E2D239F212D1124822F6F2D702F0E940B
:10279000F22C062FF72EE82ED11778F5ED2FF0E06A
:1027A000DF01AB54BD4F8C9190912001982331F003
:1027B0002E2D402F6F2DCF010E943C13DF5FECCFF9
:1027C000C53008F0C5C0C130E9F480911F01D8E1DF
:1027D0008D9FD02D112418E11D0F153708F014E737
:1027E000609128067091290680912A060E94F22C99
:1027F000062FF72EE82ED11790F081E0143708F459
:1028000078CF0BC0C130E8F480912101882329F0F2
:1028100040E060E080E00E94151380E06ACFED2F79
:10282000F0E0DF01AB54BD4F8C91909120019823D3
:1028300031F02E2D402F6F2DCF010E943C13DF5F12
:10284000DACF80911F01C23009F039C0D8E18D9FE5
:10285000D02D112418E11D0F153708F014E7D09082
:102860002906C0902A0620912B0600E4029F012D24
:102870001124D11708F0C1CFED2EF12CF701EB5444
:10288000FD4F9081809120018923B9F0F701EE0F6F
:10289000FF1FE356FE4F81A982958F706091280635
:1028A000809F600D11247D2D8C2D0E94F22C462FCF
:1028B000282F672FC7010E943C13DF5FDACFC33098
:1028C00009F040C0D8E18D9FD02D112418E11D0FD3
:1028D000153708F014E7D0902906C0902A062091F9
:1028E0002B0600E4029F012D1124D11708F085CF9B
:1028F000ED2EF12CF701EB54FD4F908180912001DA
:102900008923D9F0F701EE0FFF1FE353FE4F6081DB
:10291000069FB0011124B5E075956795BA95E1F76A
:1029200080912806680F7D2D8C2D0E94F22C462F59
:10293000282F672FC7010E943C13DF5FD6CFCF3F00
:1029400009F436C280911F018F5F80931F01D8CE9A
:10295000C73009F0C4CE80E59CE204C0C83051F411
:1029600082E39CE20E94D828C4CEC63059F78CE49A
:102970009BE2BDCEC93031F787E19CE2D5CECF30A6
:1029800019F48EE09BE2D0CEC031A0F4CC3019F423
:1029900081E49BE2ACCECC3018F48AE49BE2A7CE73
:1029A000CD3019F488E39BE2A2CECE3059F68DE10A
:1029B0009BE29DCEC23119F486ED9BE2B5CEC331C8
:1029C00058F4C03119F48FEB9CE2CCCFC13109F03F
:1029D000B9CF8AEE9BE2C6CFC33119F480EE9AE2FA
:1029E0007BCEC43109F0AECF8EEA9AE275CEC0320A
:1029F00079F466EA72E108C0CE3108F411C1CE3133
:102A000009F01BC16EED72E180E00E94AF2671CE2D
:102A1000C13208F020C1CA3119F484E093E167CED5
:102A2000CB3108F0EFC0C73109F061C080912101BE
:102A300081111EC060912B0620E1620F08F46FEF38
:102A400080912306909124060E94E82C65E070E0B6
:102A50000E943D33892B09F0E0CE0E94783264E772
:102A600070E00E945133609120010E940926D5CE6A
:102A700080911F0108E1809F002D1124D8E1D00F23
:102A8000D53708F0D4E710E0ED2EF12C0E151F0518
:102A90004CF560912001C8010E9409260F5F1F4F6D
:102AA000F5CFC63208F4E5C0C83209F407C108F40E
:102AB00074C1C93209F043CF80911F01D8E18D9FC5
:102AC000D02D1124D85E0E947832182F0E947832BF
:102AD000612F782F80912A060E94F22C482F872F91
:102AE0000E94151381E0D43708F403CE96CEC73187
:102AF00008F03CC08091210181111EC060912B061D
:102B000020E1620F08F46FEF809123069091240674
:102B10000E94E82C6AE070E00E943D33892B09F0A6
:102B20007CCE0E94783264E770E00E94513360915D
:102B300020010E942D2671CE80911F0108E1809F07
:102B4000002D1124D8E1D00FD53708F0D4E710E0DC
:102B5000ED2EF12C0E151F050CF0C4CF6091200155
:102B6000C8010E942D260F5F1F4FF4CFC83109F016
:102B700043C0D0911F01DC9FD02D112418E11D0FFF
:102B8000153708F014E7F090290600912A06E09026
:102B9000280660912B0666956695669580912306BA
:102BA000909124060E94E82C0E946D2C805887FD8D
:102BB0008195880F682F2CE0629F612D11246E0D86
:102BC0007F2D802F0E94F22C062FF72EE82ED11792
:102BD00008F013CEED2FF0E0DF01AB54BD4F8C9128
:102BE00090912001982331F02E2D402F6F2DCF0191
:102BF0000E943C13DF5FEBCFC93109F0A3CE88E11F
:102C000093E175CDCD3109F0F7CE80912D0621E00D
:102C1000382F321B08F430E0832F6EED72E1F5CED1
:102C2000CB3119F48DEF92E105C0CC3109F08ACE99
:102C300087EF92E10E944E275CCDCF3109F082CE22
:102C400080912D0621E0382F321B08F430E0832FCD
:102C500066EA72E1DACEC53209F023CF80912D0603
:102C600021E0382F321B08F430E0832F66E472E154
:102C7000CCCEC23219F464E772E1C6CEC23258F447
:102C800080912D0621E0382F321B08F430E0832F8D
:102C900064E772E1BACEC33259F480912D0621E087
:102CA000382F321B08F430E0832F6CE572E1ADCE93
:102CB000C43209F047CE6CE572E1A6CED0911F0177
:102CC00088E1D89FD02D112478E1D72EDD0E84E73E
:102CD0008D1510F464E7D62E20912B0630E040E0ED
:102CE00050E06FEF7FEF80E090E00E94DA328901E0
:102CF00052E8B52EDD1508F04AC0ED2EF12CF70193
:102D0000EB54FD4F908180912001892309F43DC04F
:102D100090902906A0902A06C090280690912D0632
:102D20009150D701AA0FBB1FA353BE4F97FD17C0E9
:102D3000492F092E000C550BFA01E35DF94F218153
:102D40008C9128130AC0440F551FFA01E35DF94F17
:102D5000278D30A12017310718F09150E7CF980147
:102D600060912B06C9010E94E82C6B2D282F621B55
:102D700008F460E06C0D792D8A2D0E94F22C462F0C
:102D8000282F672FC7010E943C13DF5FB3CF81E07C
:102D900033E73D1508F0ADCC40CDC63219F466E4FA
:102DA00072E132CEC73209F0CDCD6EE172E12CCEA8
:102DB0008091230690912406A0912506B0912606C5
:102DC00088279C70AA27BB272AE0B695A7959795D8
:102DD00087952A95D1F782309105A105B10571F04B
:102DE00083309105A105B10569F040E00197A10587
:102DF000B10511F060E008C064E102C044E160E0A8
:102E000080E003C044E164E184E10E94151382E0A4
:102E100081CCCDB7DEB7EBE00C949533E7E2F6E07A
:102E200081E380838091250190912601A091270163
:102E300081839283A3838FE784838FEF858346E02A
:102E400050E06CE170E0CF010E94A6321092B50410
:102E5000089580E008959091380492FF0DC0282FC6
:102E60002871283019F4877F846006C0282F2471C8
:102E7000243011F48B7F886093FF0DC0282F2871B8
:102E8000283119F4877E846106C0282F24712431EB
:102E900011F48B7E88612091390420FF0DC0382FFA
:102EA0003871383019F4877F816006C0382F31714E
:102EB000313011F48E7F886021FF0DC0282F2871DA
:102EC000283119F4877E816106C0282F21712131B4
:102ED00011F48E7E886194FD877E0895F894E82F22
:102EE000E295EF70F0E031A1282F2F7081E090E0A3
:102EF00001C0880F2A95EAF7982F9095932391A304
:102F000092A1892B82A378940895ABE0B0E0EBE81E
:102F1000F7E10C947933AE014F5F5F4F7A0186E0A1
:102F2000FA0111928A95E9F708E211E06A01AA24F0
:102F3000A394B12CF80180818F3F09F441C0F8942B
:102F4000E82FE295EF70F0E021A18F70A50102C09B
:102F5000440F551F8A95E2F7CA01922F982B91A32F
:102F600092A18095892382A3789400C0EEE2F1E0DB
:102F7000912C31E021912F3F89F0A22FA295AF70C3
:102F8000B0E090968C9190E02F7002C09595879557
:102F90002A95E2F780FD02C0832F01C080E0982AC5
:102FA000330F51E0E633F50729F7F80180818F3FB1
:102FB00011F00E946E17F0EAFA95F1F7F60190828F
:102FC0000F5F1F4FFFEFCF1ADF0A41E00E321407E9
:102FD00009F0B0CF46E050E0B70182E394E00E94F0
:102FE000A93311E0009709F410E0892B89F086E0FD
:102FF000F701A2E3B4E001900D928A95E1F781E038
:1030000080939D040E941C2490939C0480939B04B5
:1030100080919D048823A1F080919B0490919C0451
:103020000E940124059760F0E2E3F4E0A7E4B4E035
:1030300081918D9354E0E833F507D1F710929D0408
:10304000809141048823C9F0869521F487E08F831D
:1030500081E003C087E08F8382E0888719860E9421
:103060001C248160782F9B878A87109241044F81AE
:10307000588569858B850E94C930812F2B96EBE09E
:103080000C949533CF93DF938238910569F1B0F4B6
:103090008133910509F46FC048F48932910509F430
:1030A00065C08A32910509F46BC08AC085339105E9
:1030B00009F457C089339105B9F082C0833E910568
:1030C00071F138F4803E9105B1F0823E910511F125
:1030D00077C0863E9105B9F1873E9105C9F1843EDE
:1030E000910509F06DC024C02091380420FD53C023
:1030F00021FD51C065C08091380480FD46C080919B
:10310000390480FF48C08091380484FD31C183EECA
:1031100090E030C18091380482FF3AC0F4CF8091B2
:10312000380482FD35C08091390480FD34C0EBCF76
:103130008091390481FF35C08091380484FD18C125
:1031400087EE90E017C18091380483FF27C0F4CF49
:103150008091380483FD22C08091390481FD21C013
:10316000EBCF8091380485FD1FC021C080913804C9
:1031700085FD1DC019C08091380486FD1BC01DC08F
:103180008091380486FD19C015C089E390E0F2C033
:1031900082EE90E0EFC080EE90E0ECC086EE90E032
:1031A000E9C084EE90E0E6C089E290E0E3C085E308
:1031B00090E0E0C08AE290E0DDC081E390E0DAC018
:1031C000811531E5930708F062C0811540E5940749
:1031D000F0F09C0154E0369527955A95E1F7922F2F
:1031E0009370482F437021E030E002C0220F331F5C
:1031F0004A95E2F73C68392B982F9F7096959695E3
:1032000040E2949FC0011124822B932BB3C08F3BCB
:10321000910520F5883A910558F0885AE82FF0E09A
:10322000EE0FFF1FEF5AFE4F808191819464A2C080
:10323000853A910548F0855AE82FF0E0E25BFE4FB1
:10324000808190E0906496C08430910508F092C02F
:10325000019709F08DC081E090E08CC0811520E2DB
:10326000920768F4811531E0930708F083C09C0150
:10327000205E31092830310508F07AC07BC0811505
:1032800040E4940708F474C09F70906A73C081157D
:1032900024E59207C8F5811533E59307B0F09C014A
:1032A0002370332741E050E002C0440F551F2A9598
:1032B000E2F7282F2695269580E2289F9001112479
:1032C000CA01822B932B9A6855C0811542E5940759
:1032D00028F4982F8827816F906A4CC09C01237036
:1032E000332741E050E002C0440F551F2A95E2F712
:1032F000282F2695269580E2289F90011124CA0147
:10330000822B932B9C6836C0EC01C1158AE5D80747
:10331000F8F4C11529E5D20790F08C2F8F700E9428
:103320002B1794E0D695C7959A95E1F7CF70D0E02A
:10333000DC2FCC27D0699E01282BC9011BC0C115E9
:1033400038E5D307A8F09C2F8827806F906A12C0B9
:10335000CE0190568115904258F48D2F8F710E94A6
:103360002B17282F2F71CE0199279062922B02C024
:1033700080E090E0DF91CF910895CF9384E090E0DA
:103380000E949832C82F82E290E00E9498322C2F3F
:1033900030E0A901582BCA01CF91089580E090E058
:1033A0000E94A032883E9E4F19F40E94E92508959C
:1033B00080E0089568EE7EEF80E090E00E94D432D5
:1033C00060E082E090E00E94B63260E083E090E04E
:1033D0000E94B63210929A0460E084E090E00E946D
:1033E000B63264E082E290E00E94B63260E085E0AE
:1033F00090E00E94B63260E086E090E00E94B63233
:103400006FEF87E090E00E94B63240E050E0BA01F2
:1034100088E090E00E94C83260E08DE090E00E9479
:10342000B63240E050E0BA0188E190E00E94C83234
:1034300060E087E190E00E94B63240E050E0BA01DF
:103440008CE190E00E94C83260E070E080E290E0A1
:103450000E94D43240E050E0BA0188E190E00E943E
:10346000C83280E00E94BA250E94D92540E050E091
:10347000BA018FE090E00E94C8320E947C2D0E9429
:10348000A22F8091B50481608093B5048FE780936B
:103490002B0621E04FEF6FEF8AEA90E00E945F2F4A
:1034A0000E94153208959091990480919804892B77
:1034B0008093500448E050E060E974E080E594E0D7
:1034C0000E94A933892BA9F088E0E0E5F4E0A0E9A7
:1034D000B4E001900D928A95E1F7E0911706F09122
:1034E0001806309731F00280F381E02D80E594E0FA
:1034F0000995089580918F0490915E04891719F0C1
:103500008F5F8770FBCF08950F931F93CF93DF9347
:1035100080915D0482958F7009F05AC080915A04A1
:10352000882309F455C080918F0410915E04609146
:10353000580470915904C0915B04D0915C0491E0EF
:103540006F3F09F090E0292F06E0811709F440C091
:10355000209721F07F3F21F030E003C031E001C02F
:10356000322F90E030FD31C0089FF001099FF00D2F
:103570001124DF01A15ABB4F11963C9111973713CB
:1035800024C03C91361321C012963C911297311100
:103590001CC013964D915C9114974C1B5D0B483CDD
:1035A000510598F480915D048F70806180935D0473
:1035B000EC59FB4F80818F708061808388E594E0B7
:1035C0000E9475090E947A1A03C001968770BDCFC8
:1035D000DF91CF911F910F910895A1E1B0E0E3EF4A
:1035E000FAE10C9479338C0185E0F801DE011D9637
:1035F00001900D928A95E1F7F801E28090915804CC
:103600006091590440915B0450915C04411551054F
:1036100031F06F3F31F481E09F3F19F403C081E046
:1036200001C080E0F82FF1709F2E80FD1BC1F801D2
:1036300030812181C380D48088E5A82E84E0B82E13
:10364000F0905A04F601E41BF50BFF2009F4C7C003
:1036500080915D04E83CF10508F092C0482F407F5E
:1036600009F051C0621311C093130FC0FE2CE1107A
:103670000CC08F70806180935D04C5010E94750944
:1036800080915D04F80185832AC1C114D10431F011
:103690002F3F31F481E03F3F19F403C081E001C0C6
:1036A00080E080FD03C081E08E2502C080E090E0D4
:1036B000F82FF170FF2E80FF1CC080918F04409185
:1036C0005E0456E0841709F4E8C090E0589FF001CA
:1036D000599FF00D1124E15AFB4F6181261306C05A
:1036E0006081631303C06281E61203C00196877094
:1036F000E9CFFE2CEE2009F4F2C080915D048160D8
:1037000080935D0449C0621306C0931304C0E110A6
:1037100002C0F80186C0C8010E94722E882351F1B0
:10372000EE2041F120915D04822F82958F7090E010
:10373000029774F0809158049091590498878F8370
:103740001986DB86CA862C87CE0107960E947509EA
:1037500086E0F801A8E5B4E001900D928A95E1F7C2
:103760000E94841A0AC06217C9F0C8010E94722E12
:1037700081111EC0C8010E947509FF24F394AFC0D7
:10378000482F407F81F788E594E00E94750986E024
:10379000F50111928A95E9F7F12CA1C09313E5CFB9
:1037A000E110E3CFF8018583C8010E94750954C078
:1037B000EE2001F320915D04822F82958F7090E0BE
:1037C000029734F280915804909159049A83898326
:1037D0001B82DD82CC822E83CE010196B7CFE83CDE
:1037E000F105D0F5FE2CEE2029F2621327C09313C9
:1037F00025C020915D0420FD18C0822F82958F7016
:10380000482F50E04115510581F0F80125834F30D4
:10381000510541F08F5F982F9295907F822F8F7086
:10382000892B8583C8010E94750986E0F801A8E507
:10383000B4E001900D928A95E1F751C0C8010E9451
:10384000722E811185CF80915D04816080935D042B
:10385000C8010E94750943C086E0F50111928A955E
:10386000E9F73DC0EE2009F485CFC8010E94722E11
:10387000F82E882309F47ECF86E0F801A8E5B4E0AD
:1038800001900D928A95E1F7809158049091590426
:103890000E94D92D0E94841A22C03D872E878D85D3
:1038A0009E850E94D92D292F22952F70223028F431
:1038B0009F7039F0811105C00BC0243028F49F702F
:1038C00049F4805E883020F0C8010E9475099F2C61
:1038D000F92C05C0F8019581907F99F7F9CF8F2DCC
:1038E0006196EBE00C9495338091AD0487FF11C095
:1038F0008091E80082FD05C08091AB048111F8CF72
:1039000011C08091E8008B770BC08091AB048823B5
:1039100049F08091E80080FFF8CF8091E8008E7731
:103920008093E8000895982F973068F59093E90008
:10393000981739F07091EC002091ED005091F00053
:1039400003C0242F762F50E021FD02C09F5FECCFF3
:103950003091EB003E7F3093EB003091ED003D7FE6
:103960003093ED003091EB0031603093EB007093B9
:10397000EC002093ED005093F0002091EE0027FD25
:10398000E5CF80E008958F708093E90081E008958D
:103990002091B3043091B4042617370748F061151D
:1039A000710539F42091E8002E772093E80001C0DA
:1039B000B901FC0120E06115710579F18091AB043A
:1039C0008823F1F18530F1F18091E80083FD3CC05E
:1039D0008091E80082FD2EC08091E80080FFEBCF4F
:1039E0002091F3008091F20090E0922B6115710517
:1039F00051F08830910538F421912093F100615005
:103A000071090196F3CF21E0089709F020E0809139
:103A1000E8008E778093E800CECF2111CFCF0AC087
:103A20008091AB04882361F0853061F08091E800DB
:103A300083FD0AC08091E80082FFF2CF80E0089504
:103A400082E0089583E0089581E008950895BC011F
:103A500084E00E94A8220895BC0183E00E94A8226D
:103A60000895AAE2B0E0E7E3FDE10C948133EDEACA
:103A7000F4E08091F100819344E0E53BF407C9F75D
:103A80008091AE04833009F463C030F4813071F06A
:103A9000823009F49DC0B4C08A3009F489C08B30EB
:103AA00009F46EC0893009F0ABC020C08091AD042C
:103AB000813A09F0A5C08091E800877F8093E800F3
:103AC0008091B1049091B204892B21F468E081EADD
:103AD00094E003C060E080E090E070E00E94C81CC9
:103AE0008091E8008B778093E8008AC08091AD04D4
:103AF000813209F085C08091B1049091B2040097A1
:103B000019F0029709F07CC08091E800877F8093CC
:103B1000E8008091E80082FD05C08091AB0481112E
:103B2000F8CF6EC02091F3008091F20090E0922BCC
:103B3000029731F48091F100813011F0863021F448
:103B40008091F1008093A0048091E8008B7754C0AD
:103B50008091AD04813A09F053C08091B1049091F5
:103B6000B204892B09F04CC08091E800877F8093D4
:103B7000E8008091E80080FFFCCF8091120137C0FF
:103B80008091AD048132E1F58091B1049091B2044D
:103B9000892BB1F58091E800877F8093E8000E942F
:103BA000741C8091AF04809312010E94922E28C051
:103BB0008091AD04813221F58091E800877F809368
:103BC000E8000E94741C8091B00480939F0418C088
:103BD0008091AD04813AA1F48091E800877F8093C1
:103BE000E8008091E80080FFFCCF80919F048093E3
:103BF000F1008091E8008E778093E8000E94741CA9
:103C00008091E80083FFEAC18091AD049091AE04F9
:103C1000492F50E04A30510508F0E0C1FA01E4585C
:103C2000FF4F0C946533803821F0823809F0D6C1FB
:103C300008C08091A9049091AA04992389F0826018
:103C40000FC08091B1048F70873008F0C7C1809396
:103C5000E9008091EB0085FB882780F91092E9004C
:103C60009091E800977F9093E8008093F100109284
:103C7000F10071C1282F2D7F09F0B0C1882319F000
:103C8000823061F0ABC18091AF04813009F0A6C1F0
:103C9000933009F080E08093AA042EC08091AF0495
:103CA00081112AC08091B1048F702FEF280F263028
:103CB00008F094C18093E9002091EB0020FF1CC024
:103CC000933021F48091EB00806214C09091EB005E
:103CD00090619093EB0021E030E0A90102C0440F15
:103CE000551F8A95E2F74093EA001092EA0080910E
:103CF000EB0088608093EB001092E9008091E8006F
:103D0000877F8093E8000E94741C68C1811166C19E
:103D10001091AF041F778091E3008078812B80930E
:103D2000E3008091E800877F8093E8000E94741C84
:103D30008091E80080FFFCCF8091E3008068809351
:103D4000E300111102C082E001C083E08093AB0464
:103D500045C18058823008F041C12091AF043091B4
:103D6000B0042C3D53E0350779F583E08A838AE27D
:103D700089834FB7F894DE01139620E03EE051E2CC
:103D8000E32FF0E050935700E49120FF03C0E29549
:103D9000EF703F5FEF708E2F90E0EA3010F0C79623
:103DA00001C0C0968D939D932F5F243149F74FBF7B
:103DB0008091E800877F8093E8006AE270E0CE019E
:103DC00001960E94C81CB5C08091B1049091B204C4
:103DD000432F552743305105A9F068F44130510570
:103DE00009F40BC14230510509F0F8C08FEB90E0A7
:103DF000E2EDF1E04BC04132510529F1423251056B
:103E000089F1ECC0C901992781309105A1F058F0E2
:103E1000029709F0E3C0E3EAF2E0E4918E2F90E02C
:103E2000E3EAF2E030C0E3EDF2E0E4918E2F90E0BF
:103E3000E3EDF2E028C0E3ECF2E0E4918E2F90E0B5
:103E4000E3ECF2E020C08330910508F0C7C0880F92
:103E5000991FFC01E857FE4F0190F081E02D89E0A9
:103E600090E014C08330910508F0B8C0FC01EE0F5B
:103E7000FF1FEE57FE4F0190F081E02DDC01A158AD
:103E8000BE4F8C9190E0009709F4A8C02091E80003
:103E9000277F2093E8002091B3043091B404821767
:103EA000930708F49C0140E02115310589F18091C8
:103EB000AB04882309F43DC08530D9F18091E80036
:103EC00083FD37C08091E80082FD2FC08091E8001B
:103ED00080FFEACF4091F3008091F20090E0942BB4
:103EE0002115310559F08830910540F444914093F3
:103EF000F1003196215031090196F2CF41E0089747
:103F000009F040E08091E8008E778093E800CCCF04
:103F10004111CDCF0AC08091AB04882351F0853088
:103F200041F08091E80083FD04C08091E80082FFA9
:103F3000F2CF8091E8008B778093E8004FC0803803
:103F400009F04CC08091E800877F8093E800809161
:103F5000AC048093F1008091E8008E77D2CE81117D
:103F60003DC08091AF049091B00499270297B4F5B9
:103F70008091E800877F8093E8001091AF04109350
:103F8000AC040E94741C111106C08091E30087FDEF
:103F900002C081E001C084E08093AB0442E061ECA8
:103FA00081E00E94931C42E261EC84E00E94931C39
:103FB00042E261EC82E00E94931C42E260EC83E00A
:103FC0000E94931C42E361E885E00E94931C42E357
:103FD00061E886E00E94931C8091AB048091E80028
:103FE00083FF10C08091E800877F8093E800809174
:103FF000EB0080628093EB0005C082E190E0E1E994
:10400000F2E044CFAA96E3E00C949D331F920F9206
:104010000FB60F9211242F933F934F935F936F939B
:104020007F938F939F93AF93BF93CF93DF93EF9340
:10403000FF93C091E900CF708091EC00D82FD17030
:1040400080FDD0E81092E9008091F000877F809396
:10405000F00078940E94311D1092E9008091F000E8
:1040600088608093F000CD2BCF70C093E900FF9162
:10407000EF91DF91CF91BF91AF919F918F917F9100
:104080006F915F914F913F912F910F900FBE0F90C5
:104090001F901895E8EDF0E080818E7F808310926C
:1040A000E2001092DA001092E100A0EEB0E08C91F4
:1040B00081608C9380818F77808319BCA7EDB0E0FD
:1040C0008C918E7F8C9380818F7E808310929E0452
:1040D0000895A0E0B0E0EFE6F0E20C947C33C8ED88
:1040E000D0E088818F7E8883E7EDF0E08081816079
:1040F000808384E082BF81E080939E0488818E7FEC
:10410000888302EE10E0F80110821092DA0081EE4E
:10411000C82ED12CF601108288818F778883888100
:104120008068888388818F7D888319BC1092AB0456
:104130001092AC041092AA041092A90490EEE92EF9
:10414000F12CF70180818B7F808388818160888357
:1041500042E060E080E00E94931CF60180818E7F47
:104160008083F80180818160808380818860808382
:10417000F70180818E7F8083888180618883CDB7BD
:10418000DEB7E8E00C9498331F920F920FB60F92AF
:1041900011242F933F934F935F936F937F938F934C
:1041A0009F93AF93BF93EF93FF938091E10082FFC2
:1041B00009C08091E20082FF05C08091E1008B7F01
:1041C0008093E1008091DA0080FF2AC08091D800BE
:1041D00080FF26C08091DA008E7F8093DA00809184
:1041E000D90080FF18C080E189BD82E189BD09B492
:1041F00000FEFDCF81E08093AB0480919E0481118D
:104200000FC00E944A200E9469208091E2008460D1
:104210008093E20005C019BC1092AB0410929E047A
:104220008091E10080FF17C08091E20080FF13C001
:104230008091E2008E7F8093E2008091E2008061B5
:104240008093E2008091D80080628093D80019BCEE
:1042500085E08093AB048091E10084FF30C08091C1
:10426000E20084FF2CC080E189BD82E189BD09B4F0
:1042700000FEFDCF8091D8008F7D8093D800809183
:10428000E1008F7E8093E1008091E2008F7E809339
:10429000E2008091E20081608093E2008091AC04B2
:1042A000882311F084E007C08091E30087FD02C0FD
:1042B00081E001C083E08093AB048091AB048091E6
:1042C000E10083FF27C08091E20083FF23C080913B
:1042D000E100877F8093E10082E08093AB0410923D
:1042E000AC048091E1008E7F8093E1008091E20038
:1042F0008E7F8093E2008091E20080618093E200F3
:1043000042E060E080E00E94931C8091F0008860B1
:104310008093F000FF91EF91BF91AF919F918F91AA
:104320007F916F915F914F913F912F910F900FBEB1
:104330000F901F9018952091E4003091E50095E6CC
:104340004091EC00842F817040FF23C08091E800F1
:1043500080FD1DC08091AB04882399F0853099F0D1
:104360008091EB0085FD11C04091E4005091E50083
:104370002417350729F3915011F09A01E1CF84E019
:10438000089582E0089583E0089581E0089580E033
:1043900008954091E80042FFDDCF0895089580918F
:1043A000A004089508950895E6EBF4E096E0E23164
:1043B000F90729F08183608342833396F7CF08950C
:1043C000FC01EE0FFF1F8E0F9F1FFC01EA54FB4FF5
:1043D0006183408322830895E7E2F6E0248130E19F
:1043E000231B08F420E024838091B504816080932E
:1043F000B5040895E7E2F6E0248130E1230F08F4E4
:104400002FEF24838091B50481608093B5040895D3
:10441000539A8BB1877F9BB198602FB7F894E6EBE6
:10442000F4E036E0E231F30789F0319148E09BB9DE
:10443000000000C037FF8BB9330F000000C000C080
:1044400000C08BB900C04A9591F7EBCF2FBF8FE525
:1044500094E00197F1F700C000000895CF93DF9337
:1044600021E02093E9002FEF3091E800215035FD45
:1044700006C035ED3A95F1F700002111F5CF2091F6
:10448000E80025FF14C0EC0140E050E068E070E077
:104490000E941C2A8091E8008E778093E80088E0D3
:1044A000FE01A1EAB4E001900D928A95E1F7DF9157
:1044B000CF910895E7E2F6E0438120E1421B08F442
:1044C00040E0818121E0628190E00E945F2F0895A9
:1044D000E7E2F6E0438120E1420F08F44FEF8181EB
:1044E00021E0628190E00E945F2F0895E7E2F6E00C
:1044F000628120E1621B08F460E0818121E0438158
:1045000090E00E945F2F0895E7E2F6E0628120E1EB
:10451000620F08F46FEF818121E0438190E00E94F7
:104520005F2F0895E7E2F6E0818190E021E043818A
:10453000628108970E945F2F0895E7E2F6E081818B
:1045400090E021E04381628108960E945F2F0895E8
:104550008093200670932206609321068091AB041D
:104560008430F9F48093E9008FEF9091E800815056
:1045700095FD06C095ED9A95F1F700008111F5CFF4
:104580008091E80085FF0DC040E050E063E070E0FE
:1045900080E296E00E941C2A8091E8008E7780934A
:1045A000E8000895982F907F903BF1F038F490390F
:1045B000D9F0903AC9F09038C9F416C0903D49F04E
:1045C00018F4903C31F012C0903E71F0903F19F019
:1045D0000DC082E00895815F8F3040F4E82FF0E055
:1045E000E257FE4F8081089583E0089580E00895AA
:1045F000A7E0B0E0EEEFF2E20C947B337E0125E021
:10460000E20EF11C8C0108511F4F8091AB048430E5
:1046100009F06BC0809119018F708093E90080913F
:10462000E80082FF62C08091E80085FF5EC040E044
:1046300050E064E070E0CE0101960E94462A80912D
:10464000E80085FD05C08091E8008B778093E80045
:10465000DA808D2D0E94D222282FDD828B818E83DD
:104660008C818F8321110EC08981843041F0873085
:1046700031F0863031F0853041F621E003C023E08F
:1046800001C022E067018C2D8E19821708F0BDCF82
:10469000D601BD906D013FB7F894D8011196EC9109
:1046A0001197F0E0CF01019612966C9170E00E9494
:1046B0005133D8014C9150E084179507A1F0D801EF
:1046C00013968D919C911497E80FF91FB082119663
:1046D0008C91119790E0019612966C9170E00E9477
:1046E0005133F80181833FBFCECF2796E9E00C9488
:1046F0009733A4E0B0E0EFE7F3E20C947D337B0165
:10470000142FD22E4A832B830C83842F0E94D22213
:1047100081111DC082E0E816F10479F083E0E8160B
:10472000F10429F081E0E816F10481F50BC0073FA0
:1047300011F487E00AC084E008C087EFD812FBCFED
:1047400086E003C0173FB9F785E0898303C012955F
:104750001F7019838091AB048430C1F480911401DF
:104760008F708093E90040E050E064E070E0CE019B
:1047700001960E941C2A811109C08091E80085FDE4
:1047800005C08091E8008E778093E8002496E7E0EA
:104790000C94993387E797E790930108809300087A
:1047A0009AE088E10FB6F894A895809360000FBE58
:1047B00090936000FFCF78941F920F920FB60F92E4
:1047C00011248F939F93AF93BF9380911C06909178
:1047D0001D06A0911E06B0911F060196A11DB11DD8
:1047E00080931C0690931D06A0931E06B0931F068F
:1047F000BF91AF919F918F910F900FBE0F901F901F
:1048000018959C014FB7F89480911C0690911D0655
:10481000A0911E06B0911F064FBF821B930B0895F7
:104820002FB7F89460911C0670911D0680911E06AA
:1048300090911F062FBF08952FB7F89480911C0602
:1048400090911D06A0911E06B0911F062FBF0895DE
:104850001F920F920FB60F9211248F939F93AF93D5
:10486000BF9380911B06811113C080911C0690910B
:104870001D06A0911E06B0911F064196A11DB11DF7
:1048800080931C0690931D06A0931E06B0931F06EE
:10489000BF91AF919F918F910F900FBE0F901F907E
:1048A00018959C01FC0132969FEF80E041914617DC
:1048B00089F09F3F19F4411101C0982F8F5F863016
:1048C000A9F79F3F39F0F901E90FF11D97FDFA951E
:1048D0006283089508952091190630911A062817C9
:1048E000390771F090931A0680931906E091170624
:1048F000F0911806309721F00084F185E02D09959C
:10490000089520911506309116062817390771F081
:104910009093160680931506E0911706F0911806FD
:10492000309721F00680F781E02D09950895E091F8
:104930001706F0911806309729F00190F081E02DCC
:104940000995089580E008950F931F93CF93DF9307
:10495000C42FD22FFC0182818823B1F0409314062A
:104960000E941C24909313068093120680E28C0F01
:10497000883008F04DC0C77081E001C0880FCA952B
:10498000EAF70E94A92E44C080911406481330C053
:1049900080911206909113060E940124883C910593
:1049A00038F510E21D0FCD17B9F080E28C0F88307A
:1049B00040F4C77081E001C0880FCA95EAF70E94F1
:1049C0009E2E183010F581E09D2F977001C0880F42
:1049D0009A95EAF70E94A92E802F0E94422F183044
:1049E000B8F4D77081E001C0880FDA95EAF70AC001
:1049F00080E28C0F883060F4C77081E001C0880FBE
:104A0000CA95EAF70E949E2E03C0802F0E94422F73
:104A1000DF91CF911F910F910895CF93DF93C7EA54
:104A2000D1E060E0CE010E94B6322196C11584E04B
:104A3000D807B9F7DF91CF9108951F93CF93DF93F4
:104A4000962F8430E8F46630D8F44830C8F4632FE9
:104A5000122FC42FD0E0CC0FDD1F20E1929FC00D9C
:104A6000D11D112490E6899FC00DD11D1124CE01C6
:104A700087960E94B632612FCE0188960E94B63288
:104A8000DF91CF911F910895A0E0B0E0EAE4F5E254
:104A90000C947A33A12CE12CF12CB12C00E010E025
:104AA000C0E0D0E06701C00ED11EF601EC0FFD1F83
:104AB000EE0FFF1FE952FD4F259134914C2F6B2DC6
:104AC0008A2D0E941D252196C830D10571F7085FF7
:104AD0001F4FB39486E0B812E3CF80E3E80EF11CD9
:104AE000A39484E0A812D9CFCDB7DEB7EAE00C9446
:104AF00096330F931F93CF93DF93843008F566307E
:104B0000F8F44830E8F4C42FD0E0CC0FDD1F20E1EA
:104B1000629FC00DD11D112430E6839FC00DD11DB1
:104B20001124CE0187960E94983290E0182F00271A
:104B3000CE0188960E9498329801282BC90102C0A4
:104B400080E090E0DF91CF911F910F910895843024
:104B500048F4763038F4683028F4462F672F0E94E6
:104B60007925089580E090E0089586E290E00E9423
:104B7000B6320895CF93C82F811102C06FEF01C0E4
:104B800062E283E290E00E94B632C11102C06FEF90
:104B900001C068E084E290E00E94B632C11102C018
:104BA0006FEF01C062E185E290E00E94B632CF91E2
:104BB000089580E00E94BA2560E070E0CB010E9479
:104BC000B5250E9444250E940D2581E00E94BA254A
:104BD000089583E290E00E949832823281F484E268
:104BE00090E00E949832883051F485E290E00E9473
:104BF000983291E0823109F090E0892F01C080E085
:104C000081700895882311F0FA0101C0FB01099514
:104C100008951F93CF93DF93FC01EB54FD4F208148
:104C20006223B9F0EC010E947832182F0E9478328A
:104C30008F77782F20E8720F08F47FEF612F809133
:104C40002A060E94F22C462F282F672FCE010E94A1
:104C50003C13DF91CF911F910895A0E0B0E0E3E312
:104C6000F6E20C947D33EC01FC01EB54FD4F908196
:104C7000692349F1D090290600912A06109128064F
:104C8000E12EF12C0E947832282FC7018C549F4FBF
:104C900068E671E00E9451338E199F0997FD0396D3
:104CA00095958795959587952370612F289F600D21
:104CB00011247D2D802F0E94F22C462F282F672F44
:104CC000CE010E943C13CDB7DEB7E7E00C949933D8
:104CD0000F931F93611590E279073CF4611590EEF4
:104CE000790734F09B01305E05C02FEF3FE302C02F
:104CF00020E030E08901000F012F001F110B1195FA
:104D00002F77482F4F70406EE0916106F091620658
:104D100063E070E081E696E009951F910F91089598
:104D20000F93042F0F77262F2F778F70482F406B0C
:104D3000E0916106F091620663E070E081E696E042
:104D400009950F91089580916006982F967096307E
:104D500011F4886001C0877F0E944F2E0895A7E05C
:104D6000B0E0E5EBF6E20C947233282E4B01209173
:104D70001F0188E1289F802D11248E83182F185E33
:104D8000153708F014E730912D0639839E8191176D
:104D900008F07CC08E81682E712CF301EB54FD4F1E
:104DA000908180912001892309F46CC030902806FD
:104DB00040902906522C1F82C301880F991FDC01E5
:104DC000A353BE4FBB83AA83C301880F991FFC0165
:104DD000E253FE4FFD83EC83F9815F1608F040C07B
:104DE000E52CF12CAA81BB81CC90D12CF701E35D9D
:104DF000F94F8181C81AD108AC81BD81AC90B12C2A
:104E00008385A81AB108CC9C9001CD9C300D300D43
:104E10001124AA9CC001AB9C900D900D1124820F0F
:104E2000931F0E948E2C082F60912B0621E0620FA9
:104E300008F46FEFF701EE0FFF1FE35DF94F878D69
:104E400090A10E94E82C7C019501A601632D742D90
:104E50008F81F4010995362E472E8F835394BCCF52
:104E600020912A068F81382F329F312D1124832FD4
:104E7000632D742D0E94F22C462F282F672FC3011B
:104E80000E943C138E818F5F8E8380CF81E0143728
:104E900008F080E02796E2E10C948E33A0E0B0E0C9
:104EA000E4E5F7E20C947C338C01C0911F0188E1AA
:104EB000C89FC02D1124D8E1DC0FD53708F0D4E706
:104EC00020912B0631E0230F08F42FEF30E040E073
:104ED00050E06FEF7FEF80E090E00E94DA327901DE
:104EE000CD1708F041C0CC2ED12CF601EB54FD4F6C
:104EF0009081809120018923A9F190912D069150F4
:104F000097FD15C0492F092E000C550BFA01E35DE2
:104F1000F94F8589C813F3CF440F551FFA01E35D9C
:104F2000F94F278D30A12E153F0548F701C0970195
:104F300060912B0641E0640F08F46FEFC9010E94F5
:104F4000E82CAC01609128067091290680912A0610
:104F5000F80109950E94F22C462F282F672FC601D1
:104F60000E943C13CF5FBCCF81E0D43708F080E0D3
:104F7000CDB7DEB7E8E00C949833A0E0B0E0E3EC06
:104F8000F7E20C947D338C01C0911F0188E1C89F2A
:104F9000C02D1124D8E1DC0FD53708F0D4E760919B
:104FA0002B066695669521E0620F08F46FEF8091FD
:104FB0002306909124060E94E82CD82ECD17F0F4F9
:104FC000EC2EF12CF701EB54FD4F908180912001E4
:104FD000892391F0609128067091290680912A0614
:104FE0002D2D4C2FF80109950E94F22C462F282FC9
:104FF000672FC7010E943C13CF5FE0CF81E0D43719
:1050000008F080E0CDB7DEB7E7E00C949933A0E07C
:10501000B0E0EDE0F8E20C9479336C01C0911F012F
:1050200088E1C89FC02D1124D8E1DC0FD53708F0E6
:10503000D4E760912B066695669580912306909142
:1050400024060E94E82C182F80E4810F0E946D2C0A
:1050500090E8F92EF80E812F0E946D2C20E8922EF8
:10506000980ECD1700F5AC2EB12CF501EB54FD4F89
:105070009081809120018923A1F060912806709190
:10508000290680912A06E12E0C2F292D4F2DF6019D
:1050900009950E94F22C462F282F672FC5010E94E8
:1050A0003C13CF5FDECF81E0D43708F080E0CDB78E
:1050B000DEB7EBE00C9495336F927F928F929F92C4
:1050C000AF92BF92CF92DF92EF920F931F93CF9345
:1050D000DF933C01C0911F0188E1C89FC02D1124BE
:1050E000D8E1DC0FD53708F0D4E760912B06669540
:1050F00080912306909124060E94E82C182FCD174A
:1051000008F044C08C2E912CF401EB54FD4F90819B
:10511000809120018923C1F1F401EE0FFF1FE353B9
:10512000FE4FC080D12C8CE7C81AD108F401EE0FD5
:10513000FF1FE356FE4FA1A8B12CE0E2AE1AB10862
:10514000CC9C9001CD9C300D300D1124AA9CC00147
:10515000AB9C900D900D1124820F931F0E948E2CFA
:10516000082F609128067091290680912A06E12E69
:105170009501A601F30109950E94F22C462F282FD4
:10518000672FC4010E943C13CF5FB9CF81E0D437B1
:1051900008F080E0DF91CF911F910F91EF90DF90A9
:1051A000CF90BF90AF909F908F907F906F90089519
:1051B000A0E0B0E0EEEDF8E20C947C336C01C0911D
:1051C0001F0188E1C89FC02D1124D8E1DC0FD5371D
:1051D00008F0D4E760912B066695809123069091A4
:1051E00024060E94E82C182FCD1778F5EC2EF12C10
:1051F000F701EB54FD4F908180912001892319F133
:10520000F701EE0FFF1FE356FE4F21A930E02052B9
:105210003109F701EE0FFF1FE353FE4F408150E0CD
:105220004C575109609128067091290680912A06F1
:10523000012FF60109950E94F22C462F282F672F87
:10524000C7010E943C13CF5FCFCF81E0D43708F075
:1052500080E0CDB7DEB7E8E00C949833A3E0B0E08F
:10526000E4E3F9E20C947C337C01162FD42EC22E99
:10527000809186068430F9F4E0917B06F0917C06FB
:10528000309709F4B7C0C701019763E070E00E944E
:105290003D33CB01880F991F860F971F19834A83CF
:1052A000CB824E2D481B9E012F5F3F4FBC0181E6F4
:1052B00096E00995ACC082E0E816F10409F44FC00D
:1052C00083E0E816F10431F081E0E816F10409F01A
:1052D0008DC078C0862F807F803AE1F050F480380E
:1052E000A1F0803909F086C0E0916506F09166066C
:1052F00025C0803EA1F0803FB9F0803B09F07AC024
:10530000E0916306F091640619C0E0916706F091A0
:10531000680614C0E0916906F0916A060FC0E0913A
:105320006B06F0916C060AC0623F09F063C0E09121
:105330006D06F0916E06309731F45CC0309709F439
:1053400059C0123F21F42C2D4D2D62EF04C02C2D9D
:105350004D2D612F6F7081E696E0099558C0862F1C
:10536000807F803D51F0803F69F0803C09F042C071
:10537000E0916F06F091700615C0E0917106F09112
:10538000720610C0633F29F4E0917306F091740631
:1053900006C0613F79F5E0917506F0917606309789
:1053A00039F428C0309731F1812F8D7F813F19F476
:1053B0004D2D612F03C04D2D612F6F7081E696E05A
:1053C000099525C0683F28F0E0917706F0917806AE
:1053D00006C0663F79F4E0917906F0917A0630973D
:1053E00049F0612F81E696E0099511C084E0E81646
:1053F000F104D8F4E0917D06F0917E06309739F003
:105400000C2D2D2D412FB70181E696E00995E091F5
:105410007F06F0918006309759F00C2D2D2D412FED
:10542000B70181E696E0099503C0E12CF12CE2CFAB
:105430002396E8E00C949833EF92FF920F931F931A
:10544000CF93DF937C018B010E949B21811119C0B6
:10545000E70101151105A1F08091E80085FD0AC062
:105460008091E8008E778093E8000E949B2188233A
:1054700081F307C089918093F10001501109E9CFB0
:1054800080E0CDB7DEB7E6E00C949A33EF92FF925E
:105490000F931F93CF93DF937C018B010E949B217D
:1054A000811119C0E70101151105A1F08091E800F3
:1054B00085FD0AC08091E8008B778093E8000E9408
:1054C0009B21882381F307C08091F10089930150CB
:1054D0001109E9CF80E0CDB7DEB7E6E00C949A334E
:1054E0000F931F9310E0F801EE0FFF1FE353FE4FE1
:1054F00090819C5797FD9195000F111FF801E3567D
:10550000FE4FE1A9F0E0B097DF01AA0FBB1F8D01AC
:105510000E0F1F1F2003D001219FB00D1124E8E3BF
:10552000F0E0E91BF10997FDF3959F01220F331F6E
:1055300089010E0F1F1F40039001419F300D112460
:105540002A0F3B1F37FF02C021583F4F220F232F46
:10555000221F330B620F1F910F9108950F931F931A
:10556000522F10E0F801EE0FFF1FE356FE4FE1A9A6
:10557000F0E0B097EE0FFF1F9F015203D001539F41
:10558000B00D1124000F111FF801E353FE4F0081ED
:1055900010E00C571109000F111F40039001419FAB
:1055A000300D11242A0F3B1F37FF02C021583F4FF7
:1055B000220F232F221F330B620F1F910F9108958B
:1055C0000F931F93522F10E0F801EE0FFF1FE356C9
:1055D000FE4FE1A9F0E0B0979F015203D001539F25
:1055E000B00D1124000F111FF801E353FE4F00818D
:1055F00010E00C57110940039001419F300D112418
:105600002A0F3B1F37FF02C021583F4F220F232F85
:10561000221F330B620F1F910F910895EF920F938A
:105620001F9393E0099F80011124159507956E2D16
:10563000600F1F910F91EF900895A22F50E0FA0193
:10564000EE0FFF1FE356FE4F91A9905297FD9195E3
:10565000440F551FFA01E353FE4F3081232F30E0F2
:105660002A1B3109290F311D97FD3A95620F0895C4
:10567000E42FF0E0EE0FFF1FE356FE4F61A9621B1F
:105680000895E42FF0E0EE0FFF1FE353FE4F60811B
:10569000621B0895622F0895E42FF0E0EE0FFF1FC4
:1056A000E353FE4F408134EE439F412D1124E82FF8
:1056B000F0E050E0445E5F4FDA01A21BB1099D01AA
:1056C000B7FF03C031952195310993E0220F331FB5
:1056D0009A95E1F7AF01421B530B9A0157FF02C0A5
:1056E00020E030E0582F259F212D1124822F08958E
:1056F000E42FF0E0EE0FFF1FE353FE4F408134EE46
:10570000439F412D1124E72FF0E050E0445E5F4FAE
:10571000DA01A21BB1099D01B7FF03C031952195A4
:10572000310993E0220F331F9A95E1F7AF01421B35
:10573000530B9A0157FF02C020E030E0279F212D34
:105740001124722F0895FC019B01009721F477FF2B
:105750002BC080E80895AC0197FF04C0442755276B
:10576000481B590BB901640F751F37FD0CC0241B72
:10577000350BC901A5E0880F991FAA95E1F70E9492
:10578000513380E20CC0CB0165E0880F991F6A9508
:10579000E1F7BA01621B730B0E94513380E6861B4E
:1057A000F7FF03C08195089580E00895EF920F936D
:1057B000CF93DF93D72FC82FC9010E19BA010E94CA
:1057C000A32B602F681B7D2F8C2FDF91CF910F9122
:1057D000EF9008950F93CF93DF93D72FC82FC90170
:1057E000BA010E94A32B682F600F7D2F8C2FDF91B1
:1057F000CF910F910895EF920F931F93CF93DF9363
:10580000D62FC72F182FC9010E19010FBA010E94F8
:10581000A32B081B202F219F212D1124822F6D2FB8
:105820007C2FDF91CF911F910F91EF900895EF9210
:105830000F931F93CF93DF93D62F172FC82FC90134
:105840000E19070FBA010E94A32B702F781B719FAE
:10585000712D11246D2F8C2FDF91CF911F910F91FE
:10586000EF900895FF920F931F93CF93DF93F62E3F
:10587000D72F182FC901C12FC01BBA010E94A32B1B
:10588000982F990F890FC81B2C2F219F212D112490
:10589000822F6F2D7D2FCDB7DEB7E5E00C949B33C3
:1058A000FF920F931F93CF93DF93F62E172FD82FCE
:1058B000C901C72FC01BBA010E94A32B982F990FB3
:1058C000890F7C2F781B719F712D11246F2D8D2FC7
:1058D000CDB7DEB7E5E00C949B33482F982F46FDFB
:1058E0009095E92FEF739F7046FD9F5FE295EF70F3
:1058F000EE0FF0E0E75DFC4F2181299F802D212DE7
:10590000112482958F702295207F822B3081982FD1
:10591000930F892F47FD819580580895BC018230EF
:10592000910508F40895613E8EE1780748F49B01E3
:1059300095E0369527959A95E1F748E0420F01C02A
:105940004FEF91E0242F30E0290F311D3595279539
:10595000229FF001239FF00DF00D11246E177F0799
:1059600018F44FEF420F04C02F3F39F091E0920F2F
:10597000491740F78FEF890F08958FEF08950F9320
:10598000CF93DF93D72FC82F47FD4195EEE3F0E08B
:10599000CF01841B910947FD9395889FB001899F92
:1059A000700D700D1124229FC001239F900D900D4A
:1059B0001124860F971F0E948E2C682F660F860F6A
:1059C000682F600F7D2F8C2FDF91CF910F9108955D
:1059D00020E030E0869F212D969F200D311D11245F
:1059E000C9010895A0E0B0E0E8EFFCE20C947C333C
:1059F000F62E472FE82FF0E0711106C0E95AFB4F51
:105A00008491782F682F73C0272F30E0E95AFB4F1D
:105A1000E491FE2F0E2F10E056E0659FC001112487
:105A2000CFEFD0E0BE010E943D335BEA5603C001D8
:105A3000579F900D11248F0D911D8F0D911D982F43
:105A4000990F980F7E01E21AF30AE09ED001E19EC1
:105A5000B00DF09EB00D11248B2F499FA001112491
:105A6000452F55277E01E41AF50AE09EA001E19E2C
:105A7000500DF09E500D11246E01C91AD108C29E1E
:105A80007001C39EF00CD29EF00C11242F2D3327F1
:105A9000C21BD30BC09F9001C19F300DD09F300D12
:105AA0001124932F6230710591F048F4611571054E
:105AB000E1F061307105B9F49E2FE52F16C0643016
:105AC000710569F040F06630710579F00CC09E2FC9
:105AD000EB2F832F0AC0EB2F8F2F952F06C09B2F04
