:100000000C9416030C9433030C9433030C944D1E80
:100010000C9433030C9433030C9433030C94330388
:100020000C9433030C9433030C9440260C94122745
:100030000C9475200C9433030C9433030C94330309
:100040000C9433030C9433030C9433030C94330358
:100050000C9433030C941A210C9433030C94330343
:100060000C9433030C9433030C9433030C94330338
:100070000C9433030C9433030C9433030C94330328
:100080000C9433030C9433030C9433030C94330318
:100090000C9433030C9433030C9433030C94330308
:1000A0000C9433030C9433030C943303E406E406FA
:1000B00010071007780796077D087D08A107090833
:1000C0001A081A0858195B197B198C1994199F1969
:1000D000E519E519E519E519E519A219A519AA19EE
:1000E000B719C419C719CB19D8197A27A127992884
:1000F000A1279928ED271028992867287628290014
:1001000014001A00080015001700000000002B68FA
:1001100004001600070009000A0000000000E000CB
:100120001D001B0006001900050000000000000073
:10013000000000004C6491622C42000000000000AE
:10014000000000000000000000002A000000000085
:100150000000000000000000000000004C002D0026
:10016000130012000C0018001C00000000002A6898
:1001700033000F000E000D000B0000000000E40033
:1001800038003700360010001100000000000000A9
:10019000000000004C649062284100000000000054
:1001A000000000000000000000002A000000000025
:1001B0000000000000000000000000004C000100F2
:1001C000310023021E022402310200000000260238
:1001D0002002210234023400350200000000010038
:1001E0000100010001002F022F00000000000000AC
:1001F00000000000010001000100000000000000FC
:1002000000000000000000000000010000000000ED
:1002100000000000000000000000000001002D00B0
:10022000220225022E022E001F02000000002702DB
:1002300035004F0052005100500000000000010046
:100240000100010001003002300000000000000049
:1002500000000000005C0100010000000000000040
:10026000000000000000000000000100000000008D
:1002700000000000000000000000000001003A0043
:100280003B003C003D003E003F000000000001003C
:100290001E001F002000210022000000000040007E
:1002A00041004200430044004500000000000000FF
:1002B00000000000005C01000100000000000000E0
:1002C000000000000000000000000100000000002D
:1002D00000000000000000000000000001002D00F0
:1002E000220225022E022E00010000000000010063
:1002F0002700260025002400230000000000010044
:100300003800370036000100010000000000000046
:1003100000000000010001000100000000000000DA
:1003200000000000000000000000010000000000CC
:1003300000000000000000000000000001000100BB
:1003400001000100010001000100000000000100A7
:100350000100010001000100010000000000010097
:100360000100010001000100010000000000000088
:10037000000000000100010001000000000000007A
:10038000000000000000000000000100000000006C
:10039000000000000000000000000000010001005B
:1003A0000100010001000100010000000000010047
:1003B0000100010001000100010000000000010037
:1003C0000100010001000100010000000000000028
:1003D000000000000100010001000000000000001A
:1003E000000000000000000000000100000000000C
:1003F00000000000000000000000000001000000FC
:100400000000000000002A2B28000000000000006F
:1004100000000000000000000029000000002C1E69
:100420003420212224342627252E362D3738271E26
:100430001F202122232425263333362E37381F044C
:1004400005060708090A0B0C0D0E0F1011121314E4
:1004500015161718191A1B1C1D2F3130232D3504A2
:1004600005060708090A0B0C0D0E0F1011121314C4
:1004700015161718191A1B1C1D2F3130354C00008A
:10048000000000000000000000000000000000006C
:10049000000000000000000000000000000000005C
:1004A00000007E0F00D4FFFFFFC70000007820038C
:1004B000770069006E00670073003400320020008E
:1004C0006500780074006B0065007900730000001F
:1004D0000C037900660075006B00750000000403D2
:1004E000090409025B00030100A0FA0904000001ED
:1004F00003010100092111010001224000070581CB
:100500000308000109040100020300000009211191
:1005100001000122220007058203200001070503D4
:100520000320000109040200010300000009211159
:10053000010001227B000705840320000112010055
:1005400002000000084659040001000102000106F3
:1005500060FF0961A1010962150026FF0095207561
:100560000881020963150026FF0095207508910295
:10057000C005010902A10185020901A100050919AF
:100580000129081500250195087501810205010959
:100590003009311581257F950275088106093815C6
:1005A00081257F950175088106050C0A38021581A1
:1005B000257F950175088106C0C005010980A1014C
:1005C000850319012AB700150126B700950175109A
:1005D0008100C0050C0901A101850419012AA002AE
:1005E000150126A002950175108100C005010906BC
:1005F000A101050719E029E71500250195087501F6
:1006000081029501750881010507190029FF150070
:1006100026FF009506750881000508190129059532
:100620000575019102950175039101C011241FBE4A
:10063000CFEFDAE0DEBFCDBF11E0A0E0B1E0EEE346
:10064000F3E502C005900D92A23BB107D9F722E075
:10065000A2EBB1E001C01D92AA3BB207E1F70E94F4
:1006600004160C949D290C94000081E0089581E00B
:1006700008950E943703089508950E943C03089549
:10068000A5E0B0E0E6E4F3E00C94092949835A833D
:100690003091B50189819A81311114C0662359F0D6
:1006A000222349F00E94280A182F682F89819A81F5
:1006B0000E94040A03C00E94160A182F69817A81D9
:1006C000812F04C00E94280A69817A810E94161C29
:1006D0002596E3E00C942529FC01262F40815181C9
:1006E0006281738184810E944003089581E00895AE
:1006F000CF93DF93EC0160E00E946C03BE010E9487
:100700003D03DF91CF910895E1E0F0E0DF0102C009
:10071000AA0FBB1F6A95E2F7BD01DF0102C0AA0F55
:10072000BB1F4A95E2F7AD01462B01C0EE0F2A959B
:10073000EAF7942F9823491302C08E2B0895E09571
:100740008E230895242F462F682F8091DA010E946E
:1007500084030E94630908950E94661208950E940E
:100760006012089508950E9400090E94B2032FEFBD
:1007700084E39CE0215080409040E1F700C00000FD
:1007800008950E94B3030E94402108950E94B3037C
:100790000E94512108950F931F93CF93DF938C01F3
:1007A00061E00E946C03EC01B8010E9407198823E4
:1007B00009F447C0B801CE010E943903882309F427
:1007C00040C0B801CE010E94601D8823D1F1B8015C
:1007D000CE010E94081A8823A1F1B801CE010E941F
:1007E000C61C882371F1F8018281882331F1CA3552
:1007F0008DE5D807E9F050F4C115FCE5DF0779F085
:10080000CE3DDC45D1F40E941D0F0CC0CC35EDE58A
:10081000DE0759F080F0C73ADD4521F00EC00E9496
:10082000C1030FC00E94C6030CC00E94540E05C035
:100830000E945E0E02C00E94620EC8010E94350333
:1008400001C080E0DF91CF911F910F9108950E9428
:100850004E200E940C0508950E9410050E9457200A
:100860000895A0E0B0E0E7E3F4E00C940529E82F58
:10087000F0E0E250FC4FD490282F2695269526953F
:1008800030E0F901E256FB4F0491877010E0082E2A
:1008900002C0159507950A94E2F701701127F90136
:1008A000E257FB4FE490F12C082E02C0F594E79438
:1008B0000A94E2F791E0E922FF24F901E258FB4FA4
:1008C000C491D0E002C0D595C7958A95E2F7C17072
:1008D000DD270115110519F081EE0E946705E1146D
:1008E000F10419F086EE0E9467058D2D0E94930693
:1008F000E114F10419F086EE0E94100601151105AD
:1009000019F081EE0E941006CD2B19F08CE20E94A6
:100910009306CDB7DEB7E7E00C942129EF92FF9262
:100920000F931F93CF93DF93EC01162F0AE088817A
:10093000882309F455C0813009F043C08981813092
:1009400041F47E0182E0E80EF11C8A810E94930648
:1009500009C0823049F47E01E2E0EE0EF11C8A818A
:100960000E946705E7012FC0833041F47E01F2E069
:10097000EF0EF11C8A810E941006F4CF843011F032
:10098000219621C02A81229680E090E030E0205319
:1009900031092A30310558F4089FA001099F500DF4
:1009A0001124C901840F951F21962881EFCF00974C
:1009B00051F0EFE9FFE03197F1F700C00000019737
:1009C000F6CF0E9431042196812F882309F4AFCFFE
:1009D000EFE9FFE03197F1F700C000008150F5CF5B
:1009E000CDB7DEB7E6E00C94222960E00E948E04C9
:1009F000089508950E94F904089581E008950E94E1
:100A0000FD0408950895CF93C82F0E94FA048C2FF7
:100A10000E94FF04CF91089580E00E94030508958D
:100A20000E94781F0E94030508950E94781F9091EC
:100A3000B401891721F08093B4010E940305089541
:100A4000ABE0B0E0E6E2F5E00C940A294F8358876A
:100A500069877A878B8761110E949C0D9E012F5FA9
:100A60003F4F86E0F90111928A95E9F785E0FE0192
:100A70003796D90101900D928A95E1F789819A8183
:100A80004C815D81452B31F09F3F31F491E08F3FE8
:100A900019F403C091E001C090E090FF09C04981C2
:100AA0005A816B817C818D819E810E94C80C05C01A
:100AB000C9010E9476038111F2CF2B96E2E00C94DB
:100AC0002629FC01808191810E94550A0895CF93C7
:100AD000882309F4A3C0C82F8238C1F40E94781F6C
:100AE00081FD9CC069E380910001909101010E9409
:100AF00013200E94C00D2FEF81EE94E02150804022
:100B00009040E1F700C0000069E319C0833801F5A7
:100B10000E94781F80FD82C063E580910001909162
:100B200001010E9413200E94C00D2FEF81EE94E07E
:100B3000215080409040E1F700C0000063E58091C3
:100B40000001909101010E9416200E94C00D66C014
:100B50008438C1F40E94781F82FD60C067E48091F0
:100B60000001909101010E9413200E94C00D2FEFFF
:100B700081EE94E0215080409040E1F700C00000F9
:100B800067E4DDCF8CEF8C0F813AD0F46C2F80912D
:100B90000001909101010E94DD1F882349F06C2F14
:100BA00080910001909101010E9416200E94C00DC9
:100BB0006C2F80910001909101010E941320C5CFFC
:100BC00080E28C0F883048F4C77081E001C0880F44
:100BD000CA95EAF70E947F0DB8CFEBE5EC0FE33042
:100BE00040F4F0E0E25AFE4F808190E00E94A51FA1
:100BF00015C0E8E5EC0FE73150F4F0E0EE0FFF1F11
:100C0000E05DFE4F808191810E94BB1F07C0C03F05
:100C100028F08C2F0E9489160E945B17CF910895AF
:100C2000882309F467C0823879F40E94781F81FF15
:100C300061C069E380910001909101010E9413203D
:100C40000E94C00D69E310C08338B9F40E94781F78
:100C500080FF50C063E580910001909101010E94E6
:100C600013200E94C00D63E5809100019091010165
:100C70000E9416200E94C00D0895843879F40E94C5
:100C8000781F82FF37C067E48091000190910101D5
:100C90000E9413200E94C00D67E4E6CF9CEF980FDE
:100CA000913A10F4682FE0CF90E2980F983050F40A
:100CB000877091E001C0990F8A95EAF7892F0E9409
:100CC000850DD8CF9BE5980F933028F480E090E015
:100CD0000E94A51F089598E5980F973128F480E0A9
:100CE00090E00E94BB1F0895803F20F00E94E41610
:100CF0000E945B1708951F93CF93DF93182FEB018A
:100D00000E946705209741F08FE99FE00197F1F776
:100D100000C000002197F6CF812F0E941006DF91BE
:100D2000CF911F910895893319F060E070E002C0FF
:100D300060E570E00E947B060895882321F00E9400
:100D40007F0D0E94C00D0895882321F00E94850D1B
:100D50000E94C00D0895A0E0B0E0E1EBF6E00C9435
:100D600004297C01162FC72FFC01D2810581029531
:100D70000F700E94750D8823B9F0DD23A9F08C2F28
:100D8000807F803421F080E2810F883068F080918C
:100D90008E0282FF09C082E00E94220E0E94750D21
:100DA00091E0D82ED92601C0D12CCC2EC2948FE050
:100DB000C8228C2D90E08C30910508F09EC1FC017A
:100DC000EA5AFF4F0C94ED288C2F807FCF70882338
:100DD00011F0C295C07FDD2399F0CC2309F479C1CD
:100DE00080E2810F883010F0111104C08C2F0E9416
:100DF0007F0D03C08C2F0E948F0D0E94C00D69C112
:100E0000812F0E941006CC2309F477C180E2810F64
:100E1000883038F1112329F18C2F0E94950D24C0C0
:100E20008C2F807FCF70803211F0C295C07F11234C
:100E300019F01130A1F13DC080918E0282FD17C0E2
:100E4000DD2349F0CC2329F08C2F0E947F0D0E94D6
:100E5000C00D80E03FC180E00E941006CC2309F461
:100E60004CC18C2F0E94850D0E94C00D46C1DD2310
:100E700071F0002341F0013031F40E949F0D8C2B62
:100E80000E94A90D3AC10E949F0D8C2B1DC000230A
:100E900019F0013009F431C10E94B60D25C0DD23DF
:100EA00021F0063008F029C10EC0053008F025C138
:100EB0001BC0DD2361F0002331F0F701858180FF45
:100EC00008C18F7085838C2F0E949D0616C1002358
:100ED00059F0193309F00EC1FFEF27EE83E0F1500E
:100EE00020408040E1F704C18C2F0E94A40605C178
:100EF0008C2F86958695837019F0813061F0FDC046
:100F0000DD2321F0812F9C2F937002C080E090E0C0
:100F10000E94A51FFAC0DD2321F0812F9C2F937022
:100F200002C080E090E00E94BB1FEFC0812FDD2354
:100F300019F00E94891602C00E94E4160E945B17F5
:100F4000E4C08C2F837079F5D111DBC0412F42951D
:100F500046954770440F440F212F2F70042E01C077
:100F6000220F0A94EAF714FF08C08FE090E001C056
:100F7000880F4A95EAF7809501C080E0C695C6952E
:100F8000C370822BC23049F058F4C13019F00E946E
:100F90005409B7C00E944E09B4C00E945A09B1C09A
:100FA0000E944B09AEC0DD2319F08C2F817001C067
:100FB0008695882309F4A5C0412F42954695477030
:100FC000440F440F212F2F70042E01C0220F0A94CA
:100FD000EAF714FF08C08FE090E001C0880F4A953F
:100FE000EAF7809501C080E0C695C695C370822B54
:100FF000C23049F058F4C13019F00E94A20981C0F2
:101000000E949C097EC00E94A8097BC00E946309BF
:1010100078C0CF70DD2339F08C2F0E947709812FA3
:101020000E949D066EC0812F0E94A4068C2F0E94F4
:10103000830967C0123F21F128F4103F41F0113FAE
:10104000C1F043C0133F19F1143F79F03EC0DD23D6
:1010500041F0053008F051C08C2F8F710E9490092B
:101060004CC0063008F049C0F7CF80918E0282FD57
:1010700018C0DD2339F08C2F8F710E9477093DC095
:10108000DD23C9F38C2F8F710E94830936C0DD23C5
:1010900029F08C2F8F710E946E092FC00E946A095F
:1010A0002CC0DD2349F0CF718C2F0E94770963E0BB
:1010B0008C2F0E94040E21C081E00E94220E02307B
:1010C000E0F082E00E94220E18C0DD2331F0002300
:1010D00091F2812F0E94670510C0002399F2193305
:1010E00049F49FEFE7EEF3E09150E040F040E1F784
:1010F00000C00000812F0E94100688EF8C0D843004
:1011000020F40E94781F0E940305DD2089F00E94D0
:10111000710D80FD0DC0F70112820E946B0D0E94BF
:101120007709C7010E94B5080E946B0D0E948309D0
:10113000CDB7DEB7E8E00C9420290F931F93CF932F
:10114000DF93EC01688179818A810E94600A8C01B9
:101150000E94AE090E943C09B801CE010E94AB0674
:10116000DF91CF911F910F910895CF93DF93EC0101
:10117000988189812B813C81232B31F08F3F31F481
:1011800081E09F3F19F403C081E001C080E080FD51
:101190001AC0CE010E94CB0381110FC00E94750DB1
:1011A000882389F08A81882371F080918E0282FFE2
:1011B0000AC082E00E94220E06C0CE010E949D0855
:1011C000CE010E947803DF91CF91089580E090E0F6
:1011D0000E94A51F80E090E00E94BB1F0E949C0D12
:1011E0000E94C00D0E947A170E945B17089580919B
:1011F0000001909101010E9419200E94E6080895C3
:101200000E948C0D0E94F708089592959F70963069
:1012100079F010F4925001C09A50923068F4803FF7
:1012200069F018F4883E40F409C0843F29F406C0F0
:10123000883E20F0813F11F080E0089581E008951C
:10124000FC01808191810E94550A0E940509089540
:10125000A5E0B0E0EEE2F9E00C940A292596E2E080
:101260000C942629A6E0B0E0E8E3F9E00C940A2902
:101270002696E2E00C942629089508950E943D09DF
:1012800008950E943E0908950E9441098093DB0160
:101290000E94E60808950E94440908959091DB0198
:1012A000892B0E94440908959091DB0189230E94B3
:1012B000440908959091DB0189270E94440908950B
:1012C0000E943D0908950E9460098093DA010E94FE
:1012D000E608089580E00E946309089591E001C046
:1012E000990F8A95EAF7892F0E946309089521E0F2
:1012F00030E001C0220F8A95EAF78091DA01822B53
:101300000E946309089521E030E001C0220F8A9510
:10131000EAF720958091DA0182230E9463090895FB
:1013200021E030E001C0220F8A95EAF78091DA01CE
:1013300082270E94630908959091DA01892B0E9407
:10134000630908959091DA0189230E946309089541
:101350009091DA0189270E94630908950895962FD4
:101360009770A1E001C0AA0F9A95EAF793E07695ED
:1013700067959A95E1F7FB01EE0FFF1F6E0F7F1F38
:10138000FA01E60FF71F40E050E0682F70E090810F
:101390009B01042E02C0369527950A94E2F721702E
:1013A000219529272A23292721934F5F5F4F433017
:1013B000510569F708959B01782F777043E0969562
:1013C00087954A95E1F7FC01EE0FFF1F8E0F9F1FD7
:1013D000F901E80FF91F40E050E080E0219130E092
:1013E000072E02C0369527950A94E2F7217033271D
:1013F000042E01C0220F0A94EAF7822B4F5F5F4F41
:101400004330510559F70895282F9C3070F48830E7
:1014100060F4862F622F70E028E0929F600D711DAE
:10142000112446EB51E00E94AF0908959C3070F4FE
:10143000883060F4292F90E066EB71E038E0239F5C
:10144000800D911D11240E94DB09089580E008950C
:10145000CF92DF92FF920F931F93CF93DF936C0194
:101460000091DA018091DB01082BC7E0D0E010E0A9
:10147000C8010C2E02C0959587950A94E2F780FD6D
:1014800004C02197A8F7F12C07C0FC2EB6018C2FC1
:101490000E94F9100197A9F38F2DDF91CF911F9131
:1014A0000F91FF90DF90CF900895CF93DF93EC01E1
:1014B0000E94280ABE010E94F910DF91CF91089581
:1014C0001F93CF93DF93EB019091B501992321F006
:1014D000CB010E94550A13C0882349F0CB010E941A
:1014E000280A182F682FCE010E94040A04C0CB01DD
:1014F0000E94160A182FBE01812F0E94F910DF9159
:10150000CF911F9108951F93CF93DF93C091DC017A
:1015100016E08091DD01C81799F0D0E01C9FF00122
:101520001D9FF00D1124E252FE4F408151816281D6
:101530007381848195810E9432092196C770E9CF19
:10154000DF91CF911F91089540910E0250910F02AB
:101550006091100270911102809112029091130219
:101560000E94320908950F931F93CF93DF938091C8
:10157000130282958F7009F05AC08091100288235F
:1015800009F455C08091DC011091DD0160910E02DB
:1015900070910F02C0911102D091120291E06F3F41
:1015A00009F090E0292F06E0811709F440C0209748
:1015B00021F07F3F21F030E003C031E001C0322F45
:1015C00090E030FD31C0089FF001099FF00D11241B
:1015D000DF01A252BE4F11963C911197371324C0E0
:1015E0003C91361321C012963C91129731111CC0C8
:1015F00013964D915C9114974C1B5D0B483C510523
:1016000098F4809113028F70806180931302ED51E2
:10161000FE4F80818F70806180838EE092E00E9417
:10162000B5080E94830A03C001968770BDCFDF9181
:10163000CF911F910F910895A1E1B0E0E2E2FBE0AC
:101640000C9401298C0185E0F801DE011D960190C2
:101650000D928A95E1F7F801E28090910E02609177
:101660000F0220911102309112022115310531F043
:101670006F3F31F481E09F3F19F403C081E001C066
:1016800080E0F82FF1709F2E80FD40C1F80140816D
:101690005181A380B4808EE0C82E82E0D82EF090D5
:1016A0001002F501E21BF30BFF2009F4DAC0809170
:1016B0001302E83CF10508F096C0282F207F09F0BE
:1016C00053C0561313C0491311C0FE2CE1100EC0B5
:1016D0008F708061809313020E94A40AC6010E9449
:1016E000B50880911302F80185834DC1A114B1049E
:1016F00031F05F3F31F481E04F3F19F403C081E0E6
:1017000001C080E080FD03C081E08E2502C080E042
:1017100090E0F82FF170FF2E80FF1CC08091DC015B
:101720002091DD0136E0821709F40BC190E0389F6B
:10173000F001399FF00D1124E252FE4F61815613E2
:1017400006C06081461303C06281E61203C00196A1
:101750008770E9CFFE2CEE2009F415C180911302A9
:1017600081608093130254C0561306C0491304C00D
:10177000E11002C0F80199C0C8010E942009882325
:1017800061F1EE2051F120911302822F82958F702A
:1017900090E0029774F080910E0290910F0298876A
:1017A0008F831986BB86AA862C87CE0107960E9456
:1017B000B50886E0F801AEE0B2E001900D928A959E
:1017C000E1F70E94B30A0E94A40A0AC0561711F159
:1017D000C8010E94200981112CC0C8010E94B508CF
:1017E000FF24F394D0C0282F207F81F77A2DB98A67
:1017F000A88A6E2D89890E9428098EE092E00E94B5
:10180000B50886E0F60111928A95E9F70E94A40ACC
:10181000F12CB9C04913DCCFE110DACFF801858390
:10182000C8010E94B50886E0F60111928A95E9F791
:10183000AAC0EE2091F220911302822F82958F7020
:1018400090E002970CF4B5CF80910E0290910F02B8
:101850009A8389831B82BD82AC822E83CE0101963E
:10186000A6CFE83CF10508F044C0FE2CEE2009F4B8
:10187000B4CF561330C049132EC02091130220FD5F
:1018800021C0822F82958F70482F50E0411551055D
:10189000C9F0F80125834F30510541F08F5F982F33
:1018A0009295907F822F8F70892B8583C8010E942B
:1018B000B50886E0F801AEE0B2E001900D928A959D
:1018C000E1F73CC086E0F801AEE0B2E001900D9295
:1018D0008A95E1F758C0C8010E942009811169CF9B
:1018E00080911302816080931302C8010E94B508A1
:1018F0004AC07A2DB98AA88A6E2D89890E94280942
:1019000086E0F60111928A95E9F718C0EE2009F4F5
:1019100064CFC8010E942009F82E882309F45DCF06
:1019200086E0F801AEE0B2E001900D928A95E1F711
:101930008EE092E00E9461050E94B30A0E94A40A10
:1019400022C04D875E878D859E850E94550A292F6E
:1019500022952F70223028F49F7039F0811105C034
:101960000BC0243028F49F7049F4805E883020F04A
:10197000C8010E94B5089F2CF92C05C0F80195817B
:10198000907F99F7F9CF8F2D6196EBE00C941D298C
:10199000ACE0B0E0EEECFCE00C9409294F835887F2
:1019A00069877A878B879C87CE0107960E941C0BDC
:1019B0008823D1F09F8188852A853B85232B31F0B0
:1019C0008F3F31F481E09F3F19F403C081E001C0F3
:1019D00080E080FD47C04F81588569857A858B8579
:1019E0009C850E9432093EC086E0FE013796DE01EA
:1019F000119601900D928A95E1F7FF81E8856A853D
:101A00007B856115710531F0EF3F31F481E0FF3FD7
:101A100019F403C081E001C080E080FD23C0209163
:101A2000DD0130E0C9010196877099274091DC0102
:101A300050E084179507F1F1F983EA837D836C8385
:101A400096E0929FD001939FB00D1124A252BE4FF9
:101A5000FE01319601900D929A95E1F78093DD0198
:101A60000E94830A16E08091DC019091DD018917C4
:101A700071F1189FC001112482529E4F0E941C0BCD
:101A8000882329F1E091DC011E9FF0011124E2522C
:101A9000FE4F4081518162817381848195810E94D2
:101AA00032098091DC0190E001968770992780933C
:101AB000DC01D9CF0E9400091092DD011092DC01F7
:101AC000EEE0F2E086E0DF011D928A95E9F72C96C0
:101AD000E3E00C94252980911C02859585958595D8
:101AE000089580911C028770089590911C02977050
:101AF00081E009F480E00895809127020895909193
:101B00002702892B809327020895809590912702C0
:101B100089238093270208951092270208959091B7
:101B20002602892B809326020895809590912602A3
:101B300089238093260208951092260208958091A9
:101B40001D02089508950E94A20D08950E94A30DFC
:101B5000089590918E0292FF08C090911D029817EF
:101B600021F080931D020E94A60D089580911D0210
:101B7000882329F010921D0280E00E94A60D08958E
:101B8000CF93DF93E0910001F09101018091270252
:101B90008083E0910001F091010190818091260203
:101BA000892B808380911D02882381F0E0910001C0
:101BB000F09101019081892B8083809100019091A7
:101BC00001010E94D11F81110E94B60DC091000138
:101BD000D091010148E050E064E172E0CE010E9442
:101BE0004529892B59F088E0FE01A4E1B2E001907B
:101BF0000D928A95E1F7CE010E948C1FDF91CF9163
:101C000008950E94A20D089590918E0292FF11C036
:101C100098E0899F90011124262B20931C020E949A
:101C2000770980911C028595859585950E94010E06
:101C300008950E947709089510921C0280E00E9486
:101C4000010E089520911C028095822380931C022E
:101C5000982F977099F430E0482F082E000C550B00
:101C60002417350759F090918E0292FF07C0859591
:101C7000859585950E9483090E941C0E0895909178
:101C80008E0292FB222720F9281769F080FB92F937
:101C900090938E0280918D0290918E020E94940EFC
:101CA00082E00E94220E089580918E0282FB882796
:101CB00080F991E089270E943F0E089581E00E94FB
:101CC0003F0E089580E00E943F0E08956FEF7FEF72
:101CD00080E090E00E948729089580E090E00E94D3
:101CE0006329883E9E4F19F40E949C18089580E055
:101CF000089582E090E00E945B29089583E090E0DF
:101D00000E945B290895CF9384E090E00E945B29B4
:101D1000C82F82E290E00E945B292C2F30E0A901BD
:101D2000582BCA01CF910895CF93C92F682F84E013
:101D300090E00E9469296C2F82E290E00E9469295C
:101D4000CF910895AB01BC018FE090E00E947B2908
:101D50000895AB01BC0183E190E00E947B290895C6
:101D600060E070E0CB010E94A90E089560E070E091
:101D7000CB010E94A20E0E94B00E089568EE7EEF85
:101D800080E090E00E94872960E082E090E00E947D
:101D9000692960E083E090E00E9469291092DB01EC
:101DA00060E084E090E00E94692964E082E290E0D3
:101DB0000E94692960E085E090E00E94692960E066
:101DC00086E090E00E9469296FEF87E090E00E9432
:101DD000692940E050E0BA0188E090E00E947B2948
:101DE00060E08DE090E00E94692940E050E0BA0197
:101DF00088E190E00E947B2960E087E190E00E940A
:101E0000692940E050E0BA018CE190E00E947B2912
:101E100060E070E080E290E00E94872940E050E0BE
:101E2000BA0188E190E00E947B2980E00E94B51809
:101E30000E94EA180E94B60E08950E94BE0E0895F0
:101E4000682F8EE090E00E94692908950E94E320A7
:101E5000609338027093390280933A0290933B0268
:101E60006093340270933502809336029093370268
:101E700008950E94FB13089508950E943C0F089551
:101E80000E943C0F08950E94400F08950E943C0F4D
:101E900008950E94460F08950E943C0F089585E121
:101EA00092E10E946E1F0E944C0F0E94490F0895FC
:101EB0000E943D0F0E943C0F08950E9431120E9423
:101EC000020508950E94CE200E94D5110E94FA18A2
:101ED0000E9416140E945C130E945D0F0E94F0196C
:101EE0000E9420140E94430F0895AAE0B0E0EBE79F
:101EF000FFE00C9400290E948113982E81110E940A
:101F0000260F88E2A82E82E0B82E00E010E0802E96
:101F1000802F0E944C12D82EF501C1905F01C82677
:101F2000B1F40F5F1F4F0C30110589F78FEF8983D4
:101F30008A831B820E94D7208160782F9D838C83A7
:101F400049815A816B818D810E9420052FC080912B
:101F50003C0281FD0E945212E12CFF24F3948C2D4F
:101F60008F21F1F00E94390F882399F0EE828F8241
:101F7000DF2081E009F480E088870E94D72081601B
:101F8000782F9A8789874E815F8168858A850E942C
:101F90002005F801E85DFD4F8081F826F08206C03B
:101FA000E394FF0CF8E0EF12DACFBBCF81E09110A1
:101FB00001C080E02A96ECE00C941C290E94750F69
:101FC0000E94FB130E949C170E9415050895CF9351
:101FD000DF930E94FE10EC01811521E5920708F0C5
:101FE00045C0811530E5930708F094C0883E9105FF
:101FF00028F5803E910508F0F8C0883A910570F404
:10200000853A910508F07CC08130910509F475C0CE
:1020100008F4E8C0049708F0E8C0E4C08F3B9105DD
:1020200008F0E0C0C85AD0E0CC0FDD1FCF59DE4F1A
:102030000990D881C02DCE019464D8C0811540E2AA
:10204000940758F4811551E0950708F0CEC0803F01
:10205000910508F4C7C09065C9C0C11580E4D807D0
:1020600008F4C0C0DF70CE01906AC0C0811525E5BC
:102070009207A8F4811534E5930708F095C08115FF
:1020800043E5940708F07BC0811552E5950708F0F9
:1020900061C0D82FCC27CE01816F906AA7C0C1152F
:1020A00089E5D807A0F4C11528E5D20708F082C059
:1020B000C11536E5D30708F095C08C2F0E94921108
:1020C0008F7190E0D82FCC27CE0190628FC0C115C0
:1020D0004AE5D40708F474C0CE01905681159042A9
:1020E00008F080C08D2F8F710E949211DD27D06281
:1020F0008F71AE01582BCA0179C081E090E076C0A3
:10210000C55AD0E0C157DE4F8881C82FD0E0CE013C
:1021100090646CC074E0969587957A95E1F7282FC6
:1021200023703C2F337081E090E002C0880F991F2C
:102130003A95E2F79C68AC01522B9A019C2F9F7054
:102140009695969550E2959FE0011124C9018C2B3C
:102150009D2B4CC08370992721E030E002C0220FF4
:10216000331F8A95E2F79C2F9695969580E2989F6B
:10217000E0011124C22BD32BCE019C6837C08370A1
:10218000992721E030E002C0220F331F8A95E2F741
:102190009C2F9695969540E2949FE0011124C22BC6
:1021A000D32BCE019A6822C0D82FCC27CE01846FC2
:1021B000906A1CC0DC2FCC27CE01806F906A16C0BD
:1021C0008C2F8F700E94921194E0D695C7959A95A6
:1021D000E1F7CF70D0E0DC2FCC27D0699E01282B0F
:1021E000C90104C080E090E001C0CE01DF91CF9131
:1021F00008950E94161C0E94E70F089582389105E9
:1022000069F1B0F48133910509F46DC048F4893265
:10221000910509F463C08A32910509F469C00895F3
:102220008533910509F455C089339105B9F00895B6
:10223000833E910569F138F4803E9105B1F0823E0C
:10224000910509F10895863E9105A9F1873E910512
:10225000B9F1843E910509F064C023C020918D023C
:1022600020FD4FC021FD4DC0089580918D0280FD5D
:1022700044C080918E0280FF44C080918D0284FD15
:1022800042C083EE4DC080918D0282FF38C0F5CFF1
:1022900080918D0282FD33C080918E0280FD31C01D
:1022A000ECCF80918E0281FF32C080918D0284FD3F
:1022B0002AC087EE35C080918D0283FF26C0F5CFFE
:1022C00080918D0283FD21C080918E0281FD1FC00F
:1022D000ECCF80918D0285FD1CC01DC080918D02C8
:1022E00085FD19C016C080918D0286FD16C017C0ED
:1022F00080918D0286FD13C010C089E311C082EE6B
:102300000FC080EE0DC080E00BC086EE09C084EEE9
:1023100007C089E205C085E303C08AE201C081E30A
:1023200090E0089590918D0292FF0DC0282F2871A2
:10233000283019F4877F846006C0282F2471243048
:1023400011F48B7F886093FF0DC0282F28712831EE
:1023500019F4877E846106C0282F2471243111F47A
:102360008B7E886120918E0220FF0DC0382F38713E
:10237000383019F4877F816006C0382F31713130D1
:1023800011F48E7F886021FF0DC0282F287128311D
:1023900019F4877E816106C0282F2171213111F443
:1023A0008E7E886194FD877E089510928902109236
:1023B0008A0210928B0210928C020895CF92DF92C3
:1023C000EF92FF926B017C010E94FB1381110EC002
:1023D0000E94E320C61AD70AE80AF90AC0928902C5
:1023E000D0928A02E0928B02F0928C02FF90EF90E2
:1023F000DF90CF9008950F931F930E94FB138823C3
:1024000019F00E94E3200EC00E94E320009189028F
:1024100010918A0220918B0230918C02600F711F03
:10242000821F931F1F910F91089580E008950E94CD
:10243000660E08950E9481138FE39CE90197F1F7DE
:1024400000C000000E94811380E00E944C1280FFB7
:1024500004C00E9417120E94402108950E941A127F
:1024600008950E946D0E811102C00E941D0F0E94EE
:10247000790E80933C020E94830E90938E0280938B
:102480008D020E942E120E947E0E0E944B098091A6
:10249000DA010E9460090895E82FF0E0E456FD4F4C
:1024A00080810895089580EA8A95F1F7089500C023
:1024B00008950E945312089508950E945C12089591
:1024C0000E945D1208950E945C1208950E9463129A
:1024D00008950E945C120895A6E0B0E0E2E7F2E100
:1024E0000C9407290E94FB136091A8028823E9F14C
:1024F00086E0F82E8E010F5F1F4FF8018F2D11928D
:102500008A95E9F7862F90E0B80184569D4F0E9486
:102510002E14882389F080918F0290E046E050E0ED
:10252000B80184569D4F0E94452921E020933D0229
:10253000892B61F410E016C080913D028823D1F30D
:10254000F8011192FA94E9F710923D02A0918F02DE
:10255000B0E0A456BD4F86E0F80101900D928A9537
:10256000E1F711E00E94AF030DC070E064567D4FAB
:1025700080918F0290E084569D4F0E94B7140E9474
:10258000691210E0812F2696E5E00C942329F89437
:10259000E82FE295EF70F0E031A1282F2F7081E055
:1025A00090E001C0880F2A95EAF7982F9095932321
:1025B00091A392A1892B82A3789408950F931F93DE
:1025C000CF93DF93CAE9D1E089918F3F11F00E9448
:1025D000C71281E0C03AD807B9F7C2E9D1E00AE9E9
:1025E00011E089918F3F11F00E94C7120C171D074F
:1025F000C1F7DF91CF911F910F910895A0E0B0E056
:10260000E4E0F3E10C9404298C01C62FD0E0CE0164
:1026100086569E4F7C01FC0190819F3F09F447C084
:10262000D62EF894E92FE295EF70F0E081A19F702B
:1026300021E030E001C0220F9A95EAF7822B81A3B6
:1026400082A12095282322A378940E945712E2E9C0
:10265000F1E04AE951E031E0C12C21912F3F89F0AE
:10266000A22FA295AF70B0E090968C9190E02F7061
:1026700002C0959587952A95E2F780FD02C0832FC9
:1026800001C080E0C82A330F4E175F0731F7F7010A
:1026900080818F3F11F00E94C71261E0C11001C01C
:1026A00060E08D2D0E945912C00FD11FC882CDB796
:1026B000DEB7E8E00C9420298091020180910201AC
:1026C000811102C096E001C090E09093A80286E0DC
:1026D000891B80938F020E94DE128CE0ECE9F2E00D
:1026E000DF01982F1D929A95E9F7E0E9F2E0DF010A
:1026F0001D928A95E9F786E00E94C5130E94AC03FB
:102700000895ACE0B0E0E7E8F3E10C9406298E010F
:102710000F5F1F4F8CE0F80111928A95E9F7F12CB9
:102720006F2DC8010E94FE12F394F6E0FF12F8CF5D
:102730004CE050E0B80180E992E00E9445297C011C
:1027400021E0892B09F420E0E114F10441F08CE050
:10275000F801A0E9B2E001900D928A95E1F760914D
:10276000A80270E064567D4F46E080E992E00E9446
:10277000C613E114F10419F40E946C1202C081E046
:1027800090E02C96E6E00C9422290895FF920F9396
:102790001F93CF93DF938C01F62ED72FC42F2223C4
:1027A00049F081E0809340020E94D72090933F023D
:1027B00080933E02809140028823C1F080913E02C6
:1027C00090913F020E94EF20059780F0EF2DFD2FA2
:1027D000D8014C2F50E0CD01801B910B8417950739
:1027E0001CF48D918193F7CF10924002CDB7DEB7E4
:1027F000E5E00C9423298091430281110DC00E94D1
:10280000CC28811102C082E001C081E080934302A4
:10281000823011F40E94C72881E0909143029130E8
:1028200009F080E008950E94FB1308950E9413149C
:10283000809302010E94FB1381110E946614089587
:102840000E94FB13811102C00E946914089581E067
:10285000909144029A3008F080E008950F931F93FE
:10286000CF93DF93EC018B01809144028A3038F4DE
:10287000B801CE010E94B41481111DC00AC080911C
:102880004102909142020E94EF20843F914080F7E4
:1028900015C0809144028F3F19F08F5F80934402EE
:1028A000809144028A3060F00E94D72090934202C7
:1028B0008093410203C01092440202C080E001C034
:1028C00081E0DF91CF911F910F9108950E94081E22
:1028D00008950E940B1E0895A0E0B0E0E2E7F4E145
:1028E0000C9405297901C82F880FDD0B411551057E
:1028F000A9F0FE0193E0EE0FFF1F9A95E1F7ED5F5F
:10290000FE4F818192818B5B9D4F208130E0421789
:10291000530708F49A01A9010E945229CE010E948E
:10292000F31ED82E8823D1F001151105B9F083E0EC
:10293000CC0FDD1F8A95E1F7FE01ED5FFE4F43816D
:1029400050E00417150708F4A801CD5FDE4F6C8135
:102950007D816B5B7D4FC7010E9452298D2DCDB7C4
:10296000DEB7E7E00C9421290E94A91508950E9482
:10297000C0150895A4E0B0E0E0ECF4E10C9408295F
:1029800060915E0270915F0280916002909161029D
:102990000E94FE20643671058105910528F10E9490
:1029A000FB11DC01CB010296A11DB11D89839A8325
:1029B000AB83BC8300E010E020E030E044E050E076
:1029C000BE016F5F7F4F82E00E946C14182F882336
:1029D00061F00E94E32060935E0270935F02809337
:1029E00060029093610201C011E0812F2496E4E01F
:1029F0000C942429A0E0B0E0E0E0F5E10C94022979
:102A00007C015B016A010E942714811103C001E06F
:102A100010E002C00AE010E0C1E0D0E0B501C7015B
:102A2000F6010995811115C021960C171D0794F028
:102A3000CC9F9001CD9F300D300D112480E090E0AF
:102A400045E34A95F1F70000019682179307C1F715
:102A5000E5CF81E0CDB7DEB7EAE00C941E29A7E010
:102A6000B0E0E5E3F5E10C9402297B01C090A00100
:102A7000D090A10101E010E09E01295F3F4F40E0AE
:102A800050E060E070E080E00E946C14182F882312
:102A900009F43EC056018FEFA81AB80A60915A0295
:102AA00070915B0280915C0290915D020E94FE2019
:102AB000643671058105910518F106E010E09E016C
:102AC0002F5F3F4F40E050E060E070E081E00E9407
:102AD0006C14182F66E070E0C5010E94F11991E0B6
:102AE0002F81281390E0192339F10E94E32060938D
:102AF0005A0270935B0280935C0290935D0211C056
:102B000066E070E0C5010E94F1199F818913D5CF5D
:102B100086E0F6013196DE01119601900D928A95BC
:102B2000E1F7112349F086E0FE013196A4E5B2E019
:102B300001900D928A95E1F786E0E4E5F2E0D70195
:102B400001900D928A95E1F7812F2796EAE00C9487
:102B50001E290F931F93CF93DF93EC018B014FE25C
:102B600055E10E94FA14882331F04AEB54E1B80190
:102B7000CE010E94FA14DF91CF911F910F91089519
:102B80000F931F93CF93DF93C091A001D091A10128
:102B9000CE01019626E0FB01DC0101900D922A9501
:102BA000E1F766E070E00E94F11988836F81788513
:102BB00089859A850091500210915102209152020C
:102BC00030915302601771078207930751F06093A9
:102BD00050027093510280935202909353020E94CC
:102BE000DE11DF91CF911F910F9108950E9429234B
:102BF0000E94620F0E94362308950E943B230E9488
:102C0000DE0F0E94552308950E946E200E940F231C
:102C10000E944F0F0E94F6150E94FD150E94580F4A
:102C2000FBCF8091680280FF06C06091200170E0B8
:102C3000660F771F26C081FF04C06091200184E0E9
:102C400005C082FF07C06091200188E0689FB00145
:102C5000112417C0909167029923D1F060911F0150
:102C6000961788F72091200188E0289F9001112471
:102C7000929FA001939F500D112470E0CA010E9401
:102C8000D9286038710540F46115710519F406C042
:102C900068E070E0862F08958FE7089581E0089539
:102CA0008091680280FF08C060911C0170E07595FA
:102CB00067957595679521C081FF06C060911C01DD
:102CC00070E07595679519C082FF04C060911C0182
:102CD00070E010C090916602992399F060911B01F9
:102CE0009617A0F780911C01899FC001112470E004
:102CF0000E94D9286038710540F46115710519F4F6
:102D000006C061E070E0862F08958FE7089581E0A6
:102D10000895803F21F40E941116819504C0813FDF
:102D200029F40E94111680936C020895823F21F4C9
:102D30000E941116819504C0833F29F40E94111648
:102D400080936B020895893F19F40E94501605C0C4
:102D50008A3F31F40E945016819580936D02089548
:102D60008B3F21F40E945016819504C08C3F29F4BA
:102D70000E94501680936E0208959CE0980F953043
:102D800078F421E030E0A90102C0440F551F9A9564
:102D9000E2F7CA0190916A02892B80936A02089532
:102DA0008D3F21F48091680281600BC08E3F21F439
:102DB00080916802826005C08F3F29F4809168028B
:102DC0008460809368020895803F39F490916C028A
:102DD00097FF35C010926C0259C0813F29F4909141
:102DE0006C021916BCF32BC090916B02823F29F440
:102DF00097FF25C010926B0249C0833F19F4191642
:102E0000CCF31DC090916D02893F29F41916BCF4D2
:102E100010926D023BC08A3F19F497FF10C0F8CFA3
:102E20008B3F39F490916E0297FF09C010926E02A9
:102E30002DC08C3F21F490916E021916BCF39CE0DA
:102E4000980F953080F421E030E0A90102C0440FD2
:102E5000551F9A95E2F7CA01809590916A028923DD
:102E600080936A0213C08D3F21F4809168028E7FA7
:102E70000BC08E3F21F4809168028D7F05C08F3F8B
:102E800029F4809168028B7F8093680280916B02A5
:102E9000811106C080916C02811102C010926702FC
:102EA00080916D02811106C080916E02811102C075
:102EB0001092660208950E94D72020916B02211182
:102EC00004C020916C02222321F09093650280932C
:102ED000640220916D02211104C020916E02222310
:102EE00021F0909363028093620289E692E00E944F
:102EF000971F0895E9E6F2E086E0DF011D928A95CA
:102F0000E9F7109267021092660210926802089523
:102F1000FC01828181110DC0838181110AC08481ED
:102F2000811107C091E08581811101C090E0892F56
:102F300001C081E081700895A6E0B0E0E2EAF7E127
:102F40000C94092986E0E9E6F2E0DE011196019091
:102F50000D928A95E1F710926B0210926C0210921A
:102F60006D0210926E028B81811104C08C818823C6
:102F700009F45FC080916402909165020E94EF2085
:102F8000AC0190916702992339F02091210130E042
:102F90002417350758F04DC0209122018AE0289F60
:102FA000900111242417350718F043C09F3F19F0F2
:102FB0009F5F909367021B81112361F00E9411169D
:102FC000111614F09FEF01C091E0989F902D1124ED
:102FD00090936B021C81112361F00E94111611164F
:102FE00014F09FEF01C091E0989F902D11249093D1
:102FF0006C0230916B023323E1F020916C022223AA
:10300000C1F045EB3403C0011124992319F09093CA
:103010006B0203C081E080936B0235EB2303C00198
:103020001124992319F090936C0203C081E08093DE
:103030006C028D81811104C08E81882309F45FC0E8
:1030400080916202909163020E94EF20AC01909106
:103050006602992339F020911D0130E024173507CD
:1030600058F04DC020911E018AE0289F9001112444
:103070002417350718F043C09F3F19F09F5F9093C6
:1030800066021D81112361F00E945016111614F082
:103090009FEF01C091E0989F902D112490936D02B5
:1030A0001E81112361F00E945016111614F09FEF3B
:1030B00001C091E0989F902D112490936E02309161
:1030C0006D023323E1F020916E022223C1F045EB23
:1030D0003403C0011124992319F090936D0203C0A9
:1030E00081E080936D0235EB2303C0011124992305
:1030F00019F090936E0203C081E080936E02BE01CE
:103100006F5F7F4F89E692E00E942020811105C009
:1031100089E692E00E94881781110E945B1786E081
:10312000FE013196A9E6B2E001900D928A95E1F791
:103130002696E3E00C94252983E290E00E945B2927
:10314000823281F484E290E00E945B29883051F45D
:1031500085E290E00E945B2991E0823109F090E0E5
:10316000892F01C080E081700895CF93C82F81110D
:1031700002C06FEF01C062E283E290E00E94692921
:10318000C11102C06FEF01C068E084E290E00E94CC
:103190006929C11102C06FEF01C062E185E290E0D0
:1031A0000E946929CF910895089586E290E00E94D7
:1031B0005B29682F70E080E090E008950895CF9338
:1031C000C62F0E94DE186C2F86E290E00E946929CB
:1031D000CF91089580E00E94B51860E070E0CB01C7
:1031E0000E94DF180E949F1B0E946B1C81E00E94BE
:1031F000B51808950E94D4180E94D5180E94DE18B0
:103200000E949C18811102C00E94EA180895CF9371
:10321000FB01C281CC23E9F09C0122513F452031C2
:10322000310520F482510E947B1C0CC08031FFE5E7
:103230009F0751F481E00E94770943E062E081E05A
:103240000E94A203C0E018C081319F45A9F482E02A
:10325000F2CF8031EFE59E0711F481E004C08131A7
:103260009F4549F482E00E94830943E062E081E0E7
:103270000E94A20301C0C1E08C2FCF9108952FEFCF
:10328000FC0120830895EF92FF920F931F93CF9339
:10329000DF93EC01062FE8818E2F90E0FC0131973F
:1032A000E331F10508F091C0EE59FF4F0C94ED2881
:1032B000198289E04DC08981823039F0833061F014
:1032C000813029F50E94E32002C00E94D5189A831C
:1032D0008B837C836D837BC07E0182E0E80EF11CD2
:1032E00010E0812F0E944C12F70181937F011F5F34
:1032F0001C30B9F76CC08981823049F46A817B81C6
:103300008C819D810E94F3280E94DF1860C0602F8D
:10331000CE010E943F195BC04B816A8189810E9466
:10332000631B9C838D8353C02C813D8132272327CF
:1033300032274B816A8189810E94841B48C00E9488
:103340009F1B45C00E94241C24C00E94261C9983F8
:103350008A833DC06B8170E089819A81AE014C5FA8
:103360005F4F9827892798270E94291C30C06B81BE
:1033700070E089819A81AE014C5F5F4F9827892761
:1033800098270E944B1C23C00E946B1C20C00E94E7
:10339000501B89831CC06B8170E089819A81AE01CA
:1033A0004C5F5F4F9827892798270E94D41B0FC036
:1033B0006B8170E089819A81AE014C5F5F4F9827E5
:1033C000892798270E94F61B02C08FEF8883602F01
:1033D000CE010E94DF21CDB7DEB7E6E00C942229B2
:1033E0000895FC01680F791F8FEF91E3E617F70747
:1033F00071F02191822728E030E087FF03C0880F19
:10340000892701C0880F21503109B9F7EFCF0895FE
:10341000CF93DF93EC01FB018281882309F43CC147
:10342000C330FDE5DF0760F4CA3F9CE5D90788F4A7
:103430009E0122503C452431310508F02EC109C0BF
:10344000C136EDE5DE0729F0C53AFDE5DF0709F0F5
:1034500024C10E94830E90938E0280938D02C1310D
:103460008CE5D80709F4C6C008F042C0C930ECE5C5
:10347000DE0709F49BC000F5C5308CE5D80709F4D8
:1034800085C078F4C330ECE5DE0709F478C008F0B5
:103490007AC0C230DC4509F0F5C080918D028160B0
:1034A000EFC0C7309CE5D90709F478C008F07AC0AE
:1034B00080918D028061E4C0CD30FCE5DF0709F426
:1034C00087C058F4CB309CE5D90709F479C008F0DF
:1034D0007BC080918D0288606FC0CF30FCE5DF0734
:1034E00009F480C008F082C080918D02877FC8C037
:1034F000CD3F9CE5D90709F471C000F5C531FCE565
:10350000DF0709F485C068F4C3319CE5D90709F4E5
:1035100075C008F095C00E94000980918D028F77D8
:10352000AFC0CB3FFCE5DF07A9F108F054C0CA3FAC
:10353000DC4509F0A7C080918E0240C0C130EDE5A6
:10354000DE0709F489C058F4CF3F8CE5D80709F4A9
:103550005AC008F069C080918E0282602FC0C136C7
:10356000EDE5DE0709F47CC0C53AFDE5DF0709F4A7
:1035700081C0C230DD4509F085C080E06EC0809119
:103580008D0282607DC080918D0216C080918D0277
:10359000886076C080918E0282604FC080918D02DB
:1035A00080626EC080918D0280646AC00E940009B2
:1035B00080918D02806864C0846062C081603DC07B
:1035C00080918D028E7F5CC080918D028D7F58C06E
:1035D00080918D0216C080918E0218C080918E025B
:1035E0008D7F2BC080918D028F7E4AC080918D028D
:1035F0008F7D46C080918D028F7B42C080918D026D
:10360000877F8B7F3DC080918E028D7F8E7F15C01E
:1036100080918D0282FB222720F991E0922790FB76
:1036200082F990FB83F92CC080918E02982F90959F
:1036300091708E7F892B90FB81F980938E0222C03E
:103640000E94000980918D0287FB222720F991E0DA
:10365000922790FB87F914C081E00E94200F12C0CE
:1036600080918D0284FB222720F991E0922790FB24
:1036700084F906C080918D02982F909590FB80F977
:1036800080938D0280918D0290918E020E94940E03
:103690000E94000980E001C081E0DF91CF91089590
:1036A00084E0089550E0440F551F20E1629F400DD3
:1036B000511D11249A0160EC869F200D311D1124AB
:1036C000C901879608950F931F93CF93DF9384309A
:1036D000A0F46C3090F4483080F40E94521B8C01AE
:1036E0000E945B2990E0D82FCC27C80101960E9448
:1036F0005B299E01282BC90102C080E090E0DF9188
:10370000CF911F910F9108950F931F93CF93DF9344
:10371000843080F46C3070F4483060F4E9010E9429
:10372000521B8C016D2F0E9469296C2FC8010196D4
:103730000E946929DF91CF911F910F910895A0E018
:10374000B0E0E5EAFBE10C940229A12CE12CF12C7C
:10375000B12C00E010E0C0E0D0E06701C00ED11E47
:10376000F601EC0FFD1FEE0FFF1FE250FF4F2591FA
:1037700034914C2F6B2D8A2D0E94841B2196C830CA
:10378000D10571F7085F1F4FB3948CE0B812E3CFF7
:1037900080E6E80EF11CA39484E0A812D9CFCDB73F
:1037A000DEB7EAE00C941E29EF92FF920F931F936D
:1037B000CF93DF93EA017A01E60EF71E8C01C80170
:1037C0008796CE15DF0569F0011523E0120720F476
:1037D0000E945B29888301C0188221960F5F1F4FCA
:1037E000EECFCDB7DEB7E6E00C942229EF92FF9240
:1037F0000F931F93CF93DF93EA017A01E60EF71E32
:103800008C01C8018796CE15DF0559F0011523E01C
:10381000120718F468810E94692921960F5F1F4FD3
:10382000F0CFCDB7DEB7E6E00C942229843048F41F
:103830007C3038F4683028F4462F672F0E94631BD1
:10384000089580E090E0089580E1089589ED90E08A
:103850000895EF92FF920F931F93CF93DF93EA01A6
:103860007A01E60EF71E8C01C801895D9C4FCE15CA
:10387000DF0561F0093D110520F40E945B29888372
:1038800001C0188221960F5F1F4FEECFCDB7DEB774
:10389000E6E00C942229EF92FF920F931F93CF93AF
:1038A000DF93EA017A01E60EF71E8C01C801895DFB
:1038B0009C4FCE15DF0551F0093D110518F46881C4
:1038C0000E94692921960F5F1F4FF0CFCDB7DEB759
:1038D000E6E00C942229CF93DF93C7E2D3E060E0C7
:1038E000CE010E9469292196C11584E0D807B9F755
:1038F000DF91CF910895A4E0B0E0E1E8FCE10C9401
:103900000529F82E8FE08F15E8F18FEF93E00E94E4
:103910005B29811137C007E213E0FF2069F0011530
:1039200084E0180779F1C8010E945B29811101C068
:10393000FA940F5F1F4FF1CF19821A821B821C82EB
:10394000DD24D39478018FEFE81AF80AC8010E94A9
:103950005B2989831A828823A9F09FEF980F9330FF
:1039600058F48A83D9820E5F1F4FC7010E945B29DA
:103970008B83882339F07801CE0101960E94F504EB
:103980008701E0CF2496E7E00C942129CF93DF93C1
:1039900086319C4541F5EB010E947C0D982F8A8170
:1039A0002091000130910101882379F09A7A81E019
:1039B00009F480E080936F02911102C069E201C0B6
:1039C00065E3C9010E9413200AC080916F02811132
:1039D00002C069E201C065E3C9010E9416200E948D
:1039E000C00D80E001C081E0DF91CF9108950F9379
:1039F0001F93CF93DF93C42FD22FFC0182818823A2
:103A0000B1F0409372020E94D7209093710280938C
:103A1000700280E28C0F883008F04DC0C77081E0E2
:103A200001C0880FCA95EAF70E949D0644C08091A4
:103A30007202481330C080917002909171020E940E
:103A4000EF20883C910538F510E21D0FCD17B9F035
:103A500080E28C0F883040F4C77081E001C0880F8D
:103A6000CA95EAF70E94A406183010F581E09D2F50
:103A7000977001C0880F9A95EAF70E949D06802FE3
:103A80000E9493061830B8F4D77081E001C0880F07
:103A9000DA95EAF70AC080E28C0F883060F4C770CC
:103AA00081E001C0880FCA95EAF70E94A40603C00E
:103AB000802F0E949306DF91CF911F910F9108955F
:103AC0000F939C01CB01233F4CE5340731F188F47F
:103AD000283DFCE53F07D9F0293D4CE5340779F155
:103AE000273D3C45A9F506E221EE41EE67ED7CE578
:103AF0002BC0253FFCE53F07E1F0A8F0263F3C4501
:103B000039F507E225EE46EE66EF7CE51DC007E2DB
:103B100025EE45EE68ED7CE517C006E221EE40EEAD
:103B200063EF7CE511C007E225EE44EE64EF7CE52F
:103B30000BC006E221EE42EE65EF7CE505C008E22F
:103B400021E045EE69ED7CE50E94F71C80E008C0AD
:103B5000FC018281882319F01092720201C081E079
:103B60000F9108958EE14A9B02C08150E1F74A9B74
:103B7000FECF08955A9880E28A95F1F75A9A0895EF
:103B8000FC012AE02A95F1F728E090E080E031E09E
:103B900040E14A95F1F7880F4A9B02C08160932764
:103BA00000C0000040E14A95F1F7215089F720E17B
:103BB0002A95F1F729B100C0000030E13A95F1F7FC
:103BC00022FB222720F992272081920F90830895CB
:103BD000A1E0B0E0EEEEFDE10C94062919828C0123
:103BE0007C01E60EF11C0E151F0551F00E94B21D5E
:103BF000CE0101960E94C01DF80181938F01F3CF81
:103C000081E09981911180E02196E6E00C942229CF
:103C1000529A5A9A089552985A9AEA9AE9E6F0E026
:103C200080818F7C80830895615091E001C0990F5D
:103C30006A95EAF720E031E0992361F0492F4823A3
:103C400019F05A9A232701C05A9840E24A95F1F791
:103C50009695F2CF222311F05A9A01C05A9880E229
:103C60008A95F1F75A980895FF920F931F93CF9377
:103C7000DF93EC018C01060F111DC017D10741F035
:103C8000F9900E94BA1D68E08F2D0E94141EF5CF96
:103C9000CDB7DEB7E5E00C9423291F920F920FB643
:103CA0000F9211240F931F932F933F934F935F9382
:103CB0006F937F938F939F93AF93BF93EF93FF93F4
:103CC000CF93DF931F92CDB7DEB719820E94B21D4A
:103CD000CE0101960E94C01D082F069506950695F7
:103CE000902F96959570202F2570920F292F237075
:103CF00096959695920F877089135FC0898181117F
:103D00005CC0043008F059C080E18A95F1F75A9AF6
:103D1000529A82E08A95F1F700C05A9888E0089F8D
:103D200080011124D801AD5FBE4F1696ED91FC9134
:103D300017973097A9F06091A0017091A101149696
:103D40002D913C911597260F371F11968D919C91BF
:103D50001297680F791F13964C9113978C910995C0
:103D6000F801ED5FFE4F6381662351F08091A00161
:103D70009091A10124813581820F931F0E94341EEE
:103D80000E94BA1D80E18A95F1F75A9852985A9A82
:103D900080E18A95F1F7F801ED5FFE4F60816623BF
:103DA00051F08091A0019091A10121813281820F77
:103DB000931F0E94E81D0E94B21D0F90DF91CF91CA
:103DC000FF91EF91BF91AF919F918F917F916F91F3
:103DD0005F914F913F912F911F910F910F900FBEC7
:103DE0000F901F9018950F931F93CF93DF938430FC
:103DF00091050CF06DC0EC01F894529A5A9885E048
:103E00008A95F1F700009C2F969595702C2F2570C0
:103E1000920F892F83709695969523E0CC0FDD1F26
:103E20002A95E1F7980F8E01092B0E94BA1D84E0B4
:103E30008A95F1F700C068E0802F0E94141E80E18F
:103E40008A95F1F752985A9A4A9902C000C0FCCF5D
:103E500087E090E04A9B08C0019721F4529A5A9A51
:103E6000789436C000C0F6CFFE01ED5FFE4F63814F
:103E7000662381F08091A0019091A1012481358178
:103E8000820F931F0E94E81D811104C0529A5A9A12
:103E900078941FC00E94B21D80E28A95F1F75A986B
:103EA000529A80E18A95F1F7CD5FDE4F68816623F3
:103EB00051F08091A0019091A10129813A81820F56
:103EC000931F0E94341E0E94BA1D789481E001C0A5
:103ED00080E0DF91CF911F910F9108959093B301EE
:103EE0008093B201089590937902809378020895A7
:103EF0000E94FB13811103C0809173020895E09129
:103F00007802F0917902309729F00190F081E02D4C
:103F10000995089580E00895E0917802F091790282
:103F2000309721F00280F381E02D09950895E0910A
:103F30007802F0917902309739F022E0DC012C937D
:103F40000480F581E02D0995089520917602309145
:103F500077022817390771F09093770280937602E1
:103F6000E0917802F0917902309721F00680F78194
:103F7000E02D09950895209174023091750228175B
:103F8000390771F09093750280937402E091780282
:103F9000F0917902309721F00084F185E02D0995A8
:103FA0000895FC01329697E080E0915029F021912C
:103FB0002223D9F38F5FF9CF0895662349F0FC01DE
:103FC000329608962191621729F0E817F907D1F780
:103FD00080E0089581E008959C01FC0132969FEFF6
:103FE00080E04191461789F09F3F19F4411101C0CB
:103FF000982F8F5F8630A9F79F3F39F0F901E90FBD
:10400000F11D97FDFA956283089508959C012A5F3A
:104010003F4FFC014281461301C012820196821774
:104020009307B9F708950E94EC1F08950E94062097
:104030000895029626E0FC0111922A95E9F7089569
:1040400046E050E00E94452921E0892B09F420E058
:10405000822F089508950E942A20089583E0809376
:104060007A020E942B200895811102C081E001C0D4
:1040700082E080937A020E942B2008950E943420CF
:10408000089581E080937A020E942B2008950E9477
:104090004120089508950E944A2008950E944B20CF
:1040A00008950E944A2008950E944A2008950E947F
:1040B0004A200895CF930E9454200E9481130E94A9
:1040C0005120C0E08C2F0E944C12811104C0CF5FA0
:1040D000CC30C1F701C081E0CF91089585B78068E9
:1040E00085BF85B7806885BF08951F920F920FB670
:1040F0000F9211248F939F93AF93BF9380917B0274
:10410000811113C08091A9029091AA02A091AB02E3
:10411000B091AC024196A11DB11D8093A90290936C
:10412000AA02A093AB02B093AC02BF91AF919F9152
:104130008F910F900FBE0F901F9018958091B10234
:10414000843031F10E94270410927B0220E488E140
:1041500090E00FB6F894A895809360000FBE20936E
:10416000600083B7817F846083BF83B7816083BF32
:104170007894889583B78E7F83BF0FB6F894A895FF
:1041800080916000886180936000109260000FBE93
:1041900008950E9400090E942C04089582E084BDC5
:1041A00093E095BD9AEF97BD80936E0008952FB769
:1041B000F8948091A9029091AA02A091AB02B091CB
:1041C000AC022FBF08952FB7F8946091A9027091A7
:1041D000AA028091AB029091AC022FBF08959C017E
:1041E0004FB7F8948091A9029091AA02A091AB02D6
:1041F000B091AC024FBF821B930B0895CF92DF9218
:10420000EF92FF922FB7F894C090A902D090AA0223
:10421000E090AB02F090AC022FBFA7019601261BE5
:10422000370B480B590BCA01B901FF90EF90DF9093
:10423000CF90089578941F920F920FB60F92112489
:104240008F939F93AF93BF938091A9029091AA02FD
:10425000A091AB02B091AC020196A11DB11D80935B
:10426000A9029093AA02A093AB02B093AC02BF91B3
:10427000AF919F918F910F900FBE0F901F90189547
:1042800087E797E790930108809300089AE088E118
:104290000FB6F894A895809360000FBE90936000CD
:1042A000FFCF9AE088E10FB6F894A895809360005C
:1042B0000FBE90936000FFCF80918702089508950C
:1042C00024E02093E9002FEF3091E800215035FDE4
:1042D00006C035ED3A95F1F700002111F5CF209198
:1042E000E80025FF0BC040E050E066E070E00E946F
:1042F000F4238091E8008E778093E8000895CF93AF
:10430000DF9321E02093E9002FEF3091E800215066
:1043100035FD06C035ED3A95F1F700002111F5CFD6
:104320002091E80025FF14C0EC0140E050E068E077
:1043300070E00E94F4238091E8008E778093E8007B
:1043400088E0FE01AFE7B2E001900D928A95E1F7B7
:10435000DF91CF91089580937C0270937E026093E9
:104360007D028091B1028430F9F48093E9008FEFEF
:104370009091E800815095FD06C095ED9A95F1F772
:1043800000008111F5CF8091E80085FF0DC040E06D
:1043900050E063E070E08CE792E00E94F4238091AB
:1043A000E8008E778093E8000895BC0184E00E94C5
:1043B000AB210895BC0183E00E94AB210895CF9307
:1043C000603219F52091B1022430F9F4C091E9006E
:1043D000CF703091EC00232F217030FD20E8C22BEC
:1043E00022E02093E9002091E80020FF0BC040E08C
:1043F00050E060E270E00E94F4238091E8008E7744
:104400008093E800CF70C093E900CF910895809128
:10441000B002811109C00E94C4250E94212680910A
:10442000E20084608093E20008951092B002089543
:104430000E94472008956091AD0281E0611101C0A2
:1044400080E00E942E2008959091B10281E0943086
:1044500009F080E06091AD020E943420089542E0AE
:1044600061EC81E00E943D2542E261EC84E00E9423
:104470003D2542E261EC82E00E943D2542E260EC93
:1044800083E00E943D259091B10281E0943009F0D3
:1044900080E06091AD020E943E2008958091B302B9
:1044A000833009F463C030F4813071F0823009F454
:1044B0009DC008958A3009F489C08B3009F46EC01C
:1044C000893009F0ABC020C08091B202813A09F076
:1044D000A5C08091E800877F8093E8008091B602B4
:1044E0009091B702892B21F468E08FE792E003C036
:1044F00060E080E090E070E00E947E248091E8001F
:104500008B778093E80008958091B202813209F0A0
:1045100085C08091B6029091B702009719F002977A
:1045200009F07CC08091E800877F8093E80080914B
:10453000E80082FD05C08091B1028111F8CF6EC004
:104540002091F3008091F20090E0922B029731F4D9
:104550008091F100813011F0863021F48091F100DA
:10456000809387028091E8008B7754C08091B202DB
:10457000813A09F053C08091B6029091B702892B1D
:1045800009F04CC08091E800877F8093E80080911B
:10459000E80080FFFCCF80912F0137C08091B202EC
:1045A0008132E1F58091B6029091B702892BB1F585
:1045B0008091E800877F8093E8000E9472258091B7
:1045C000B40280932F010E94000908958091B202E5
:1045D000813221F58091E800877F8093E8000E9476
:1045E00072258091B5028093880208958091B2026D
:1045F000813AA1F48091E800877F8093E800809160
:10460000E80080FFFCCF809188028093F1008091C8
:10461000E8008E778093E8000E947225089584B7A1
:10462000877F84BF0FB6F894A89580916000886159
:1046300080936000109260000FBE90E080E80FB69B
:10464000F89480936100909361000FBE0E94412016
:1046500008950E94C4250E942126E2EEF0E08081A8
:104660008460808378940E94AC28089583E291E06E
:104670000E94731F08958091B1028530A9F4809142
:10468000B102853079F40E949E208091AF02882388
:10469000B1F30E945A20882391F30E94DE230E94E6
:1046A0000009EDCF0E94C9200895A0E2B0E0EBE53B
:1046B000F3E20C940A298091B102843011F583E071
:1046C0008093E9008091E80082FF1BC08091E800A0
:1046D00085FF0AC040E050E060E270E0CE01019644
:1046E0000E94392491E001C090E08091E8008B772E
:1046F0008093E800992329F060E2CE0101960E94A0
:104700004319A096E2E00C9426290E94882308957C
:10471000292F332723303105C9F060F421303105CA
:1047200081F02230310509F041C08BE590E022EEA6
:1047300034E040C021323105E1F02232310531F15F
:1047400035C082E190E02DE335E034C09927813017
:10475000910549F028F0029749F5EEEAF4E005C02A
:10476000EEEDF4E002C0E0EDF4E0849190E09F0112
:1047700021C063307105D0F4660F771FFB01E5554A
:10478000FE4F2081318189E090E014C063307105D3
:1047900068F4FB01EE0FFF1FEB55FE4F20813181C6
:1047A000FB01EE55FE4F808190E004C080E090E078
:1047B00020E030E0FA0131832083089580E189BD53
:1047C00082E189BD09B400FEFDCF8091D8008F7DC4
:1047D0008093D8008091E00082608093E000809117
:1047E000E00081FDFCCF0895A0E0B0E0EAEFF3E245
:1047F0000C940429EC018B017A010E94912581110E
:1048000033C0E114F10439F0F70180819181081B74
:10481000190BC80FD91FC12CD12C0115110519F185
:104820008091E80085FD16C08091E8008E77809326
:10483000E800E114F10449F0F70180819181C80E8C
:10484000D91ED182C08285E00FC00E9491258823A5
:1048500021F30AC089918093F10001501109FFEF03
:10486000CF1ADF0ADACF80E0CDB7DEB7E8E00C94EC
:104870002029A0E0B0E0EFE3F4E20C940429EC017D
:104880008B017A010E949125811133C0E114F1045A
:1048900039F0F70180819181081B190BC80FD91FCE
:1048A000C12CD12C0115110519F18091E80085FD6D
:1048B00016C08091E8008B778093E800E114F10442
:1048C00049F0F70180819181C80ED91ED182C08242
:1048D00085E00FC00E949125882321F30AC08091B2
:1048E000F100899301501109FFEFCF1ADF0ADACFE7
:1048F00080E0CDB7DEB7E8E00C9420292091B80223
:104900003091B9022617370748F06115710539F45F
:104910002091E8002E772093E80001C0B901FC0146
:1049200020E06115710579F18091B1028823F1F1E0
:104930008530F1F18091E80083FD3CC08091E80072
:1049400082FD2EC08091E80080FFEBCF2091F30024
:104950008091F20090E0922B6115710551F0883042
:10496000910538F421912093F1006150710901966D
:10497000F3CF21E0089709F020E08091E8008E77DE
:104980008093E800CECF2111CFCF0AC08091B10231
:10499000882361F0853061F08091E80083FD0AC0D2
:1049A0008091E80082FFF2CF80E0089582E00895D0
:1049B00083E0089581E008952091B8023091B90212
:1049C0002617370748F06115710539F42091E80082
:1049D0002E772093E80001C0B901FC0120E06115A9
:1049E000710591F18091B102882309F440C08530AE
:1049F00009F43FC08091E80083FD3DC08091E8004C
:104A000082FD2FC08091E80080FFE9CF2091F30064
:104A10008091F20090E0922B6115710559F0883079
:104A2000910540F424912093F10031966150710971
:104A30000196F2CF21E0089709F020E08091E8008C
:104A40008E778093E800CBCF2111CCCF0AC0809124
:104A5000B102882361F0853061F08091E80083FD28
:104A60000AC08091E80082FFF2CF80E0089582E0E2
:104A7000089583E0089581E00895982F973068F5B0
:104A80009093E900981739F07091EC002091ED00B7
:104A90005091F00003C0242F762F50E021FD02C07A
:104AA0009F5FECCF3091EB003E7F3093EB00309175
:104AB000ED003D7F3093ED003091EB00316030939D
:104AC000EB007093EC002093ED005093F0002091E8
:104AD000EE0027FDE5CF80E008958F708093E90018
:104AE00081E008958091B20287FF11C08091E800B3
:104AF00082FD05C08091B1028111F8CF11C0809173
:104B0000E8008B770BC08091B102882349F0809137
:104B1000E80080FFF8CF8091E8008E778093E8006E
:104B200008952091E4003091E50095E64091EC0075
:104B3000842F817040FF23C08091E80080FD1DC05C
:104B40008091B102882399F0853099F08091EB0033
:104B500085FD11C04091E4005091E5002417350710
:104B600029F3915011F09A01E1CF84E0089582E099
:104B7000089583E0089581E0089580E008954091CC
:104B8000E80042FFDDCF08950E9433260E943B26B5
:104B9000E0EEF0E0808181608083E8EDF0E08081EC
:104BA0008F77808319BCA7EDB0E08C918E7F8C93BA
:104BB00080818F7E80831092B00208950F931F939F
:104BC000CF93DF930E9433260E943B26C8EDD0E0AE
:104BD00088818F77888388818068888388818F7DAA
:104BE000888319BC1092B1021092AD021092AF02EC
:104BF0001092AE0200EE10E0F80180818B7F80837E
:104C000088818160888342E060E080E00E943D25E9
:104C1000E1EEF0E080818E7F8083E2EEF0E0808143
:104C200081608083808188608083F80180818E7FAD
:104C30008083888180618883DF91CF911F910F915C
:104C40000895E8EDF0E080818F7E8083E7EDF0E06D
:104C500080818160808384E082BF81E08093B002A4
:104C60000E94DE250895E8EDF0E080818E7F80834C
:104C70001092E20008951092DA001092E100089577
:104C80001F920F920FB60F9211242F933F934F93C1
:104C90005F936F937F938F939F93AF93BF93EF93A4
:104CA000FF938091E10082FF0BC08091E20082FFC0
:104CB00007C08091E1008B7F8093E1000E94AB28C8
:104CC0008091DA0080FF1FC08091D80080FF1BC058
:104CD0008091DA008E7F8093DA008091D90080FF86
:104CE0000DC080E189BD82E189BD09B400FEFDCF20
:104CF00081E08093B1020E94072205C019BC109286
:104D0000B1020E9415228091E10080FF19C08091BC
:104D1000E20080FF15C08091E2008E7F8093E20068
:104D20008091E20080618093E2008091D8008062EF
:104D30008093D80019BC85E08093B1020E941B22A9
:104D40008091E10084FF30C08091E20084FF2CC09C
:104D500080E189BD82E189BD09B400FEFDCF80916B
:104D6000D8008F7D8093D8008091E1008F7E809362
:104D7000E1008091E2008F7E8093E2008091E2006A
:104D800081608093E2008091AD02882311F084E07D
:104D900007C08091E30087FD02C081E001C083E08D
:104DA0008093B1020E9424228091E10083FF29C0F8
:104DB0008091E20083FF25C08091E100877F80938E
:104DC000E10082E08093B1021092AD028091E10097
:104DD0008E7F8093E1008091E2008E7F8093E200DD
:104DE0008091E20080618093E20042E060E080E038
:104DF0000E943D258091F00088608093F0000E9421
:104E00001822FF91EF91BF91AF919F918F917F9168
:104E10006F915F914F913F912F910F900FBE0F9027
:104E20001F9018951F920F920FB60F9211242F9377
:104E30003F934F935F936F937F938F939F93AF9322
:104E4000BF93CF93DF93EF93FF93C091E900CF70AF
:104E50008091EC00D82FD17080FDD0E81092E9004D
:104E60008091F000877F8093F00078940E9456270D
:104E70001092E9008091F00088608093F000CD2BC3
:104E8000CF70C093E900FF91EF91DF91CF91BF9177
:104E9000AF919F918F917F916F915F914F913F91D2
:104EA0002F910F900FBE0F901F901895AAE2B0E0BF
:104EB000ECE5F7E20C940929E2EBF2E08091F100D5
:104EC000819322E0EA3BF207C9F70E944E228091CB
:104ED000E80083FF2EC18091B2029091B302492F66
:104EE00050E04A30510508F024C1FA01EB58FF4F59
:104EF0000C94ED28803821F0823809F01AC108C0DE
:104F00008091AE029091AF02992389F082600FC028
:104F10008091B6028F70873008F00BC18093E90052
:104F20008091EB0085FB882780F91092E900909131
:104F3000E800977F9093E8008093F1001092F100D1
:104F4000D1C0282F2D7F09F0F4C0882319F08230BA
:104F500061F0EFC08091B402813009F0EAC0933073
:104F600009F080E08093AF022EC08091B4028111DD
:104F70002AC08091B6028F702FEF280F263008F0DC
:104F8000D8C08093E9002091EB0020FF1CC0933033
:104F900021F48091EB00806214C09091EB0090614D
:104FA0009093EB0021E030E0A90102C0440F551FAF
:104FB0008A95E2F74093EA001092EA008091EB00B4
:104FC00088608093EB001092E9008091E800877F71
:104FD0008093E8000E947225ACC08111AAC0109194
:104FE000B4021F778091E3008078812B8093E300E7
:104FF0008091E800877F8093E8000E94722580916D
:10500000E80080FFFCCF8091E30080688093E3009C
:10501000111102C082E001C083E08093B10289C017
:105020008058823008F085C08091B4029091B5021A
:105030008C3D53E0950779F583E08A838AE2898382
:105040004FB7F894DE01139620E03EE051E2E32FE3
:10505000F0E050935700E49120FF03C0E295EF7019
:105060003F5FEF708E2F90E0EA3010F0C79601C0DE
:10507000C0968D939D932F5F243149F74FBF809148
:10508000E800877F8093E8006AE270E0CE01019635
:105090000E947E2416C06091B6027091B702AE01E4
:1050A0004F5F5F4F0E948523BC01892B09F441C0EB
:1050B0009091E800977F9093E80089819A810E94FF
:1050C000DC248091E8008B778093E80032C0803840
:1050D00081F58091E800877F8093E8008091AD02A0
:1050E0008093F1008091E8008E7772CF811121C00A
:1050F0008091B4029091B50299270297D4F48091DF
:10510000E800877F8093E8008091B4028093AD022D
:105110000E9472258091AD02811106C08091E3004A
:1051200087FD02C081E001C084E08093B1020E944B
:105130002F228091E80083FF0AC08091E800877FDA
:105140008093E8008091EB0080628093EB00AA9648
:10515000E3E00C9425290895CF938091B102882330
:10516000A1F0C091E900CF709091EC00892F81707F
:1051700090FD80E8C82B1092E9008091E80083FD43
:105180000E945627CF70C093E900CF9108950E94E6
:10519000C4251092B1020895E8EDF0E080818061AD
:1051A00080838AE18A95F1F700C08091D9008170EF
:1051B000089597FB072E16F4009407D077FD09D0C9
:1051C0000E94312907FC05D03EF4909581959F4FB0
:1051D0000895709561957F4F0895EE0FFF1F05901C
:1051E000F491E02D09946927962769277827872766
:1051F000782708952F923F924F925F926F927F92FD
:105200008F929F92AF92BF92CF92DF92EF92FF92D6
:105210000F931F93CF93DF93CDB7DEB7CA1BDB0B82
:105220000FB6F894DEBF0FBECDBF09942A88398827
:1052300048885F846E847D848C849B84AA84B9842E
:10524000C884DF80EE80FD800C811B81AA81B9813A
:10525000CE0FD11D0FB6F894DEBF0FBECDBFED014E
:105260000895AA1BBB1B51E107C0AA1FBB1FA617AD
:10527000B70710F0A61BB70B881F991F5A95A9F7FF
:1052800080959095BC01CD010895FB01DC0104C01F
:105290008D910190801921F441505040C8F7881B2E
:1052A000990B0895FB01DC0102C001900D92415061
:1052B0005040D8F70895F999FECF92BD81BDF89A74
:1052C000992780B50895A8E1B0E042E050E00C9441
:1052D0008F29262FF999FECF92BD81BDF89A0197AB
:1052E00000B4021639F01FBA20BD0FB6F894FA9A2E
:1052F000F99A0FBE08950396272F0E946A290E94EB
:105300006929252F0E946A29242F0C946A29019665
:10531000272F0E946A290C946929DC01CB01FC012A
:10532000F999FECF06C0F2BDE1BDF89A319600B4FE
:0E5330000D9241505040B8F70895F894FFCF09
:10533E001E02010000000100000000000000060136
:10534E000000000407000000000000280850011EA5
:10535E000A14015C217F216021DA21D5215F210110
:10536E00E200E900EA00B500B600B700CD00830107
:10537E00CC008A019201940121022302240225020B
:10538E00260227022A02B300B4006F007000818249
:10539E0083E200E900EA00B500B600B700CD008355
:1053AE0001CC008A019201940121022302240225DC
:1053BE0002260227022A02B300B4006F0070008199
:1053CE0082833331F7F6F5F43635946697C6323468
:1053DE00450240227BEC054F057105F4040D052DA9
:0253EE000500B8
:00000001FF
