:100000000C944E020C946B020C946B020C948F1D9A
:100010000C946B020C946B020C946B020C946B02AC
:100020000C946B020C946B020C9482250C94542655
:100030000C94B71F0C946B020C946B020C946B0223
:100040000C946B020C946B020C946B020C946B027C
:100050000C946B020C945C200C946B020C946B025D
:100060000C946B020C946B020C946B020C946B025C
:100070000C946B020C946B020C946B020C946B024C
:100080000C946B020C946B020C946B020C946B023C
:100090000C946B020C946B020C946B020C946B022C
:1000A0000C946B020C946B020C946B021C061C06E5
:1000B00048064806B006CE06B507B507D90641077B
:1000C0005207520798189B18BB18CC18D418DF1881
:1000D00025192519251925192519E218E518EA18F1
:1000E000F718041907190B191819BC26E326DB2782
:1000F000E326DB272F275227DB27A927B82729004C
:1001000014001A000800150017002B6804001600E0
:10011000070009000A00E0001D001B00060019008E
:1001200005000000000000004C6491622C422D008C
:10013000130012000C0018001C002A6833000F0086
:100140000E000D000B00E4003800370036001000F0
:1001500011000000000000004C6490622841010082
:10016000310023021E022402310226022002210253
:1001700034023400350201000100010001002F02A9
:100180002F000000000000000100010001002D0010
:10019000220225022E022E001F02270235004F00E8
:1001A0005200510050000100010001000100300226
:1001B0003000000000000000005C010001003A0077
:1001C0003B003C003D003E003F0001001E001F00C0
:1001D0002000210022004000410042004300440072
:1001E0004500000000000000005C010001002D003F
:1001F000220225022E022E00010001002700260007
:1002000025002400230001003800370036000100DB
:1002100001000000000000000100010001000100D9
:1002200001000100010001000100010001000100C6
:1002300001000100010001000100010001000100B6
:1002400001000000000000000100010001000100A9
:100250000100010001000100010001000100010096
:100260000100010001000100010001000100010086
:10027000010000000000000001000100010000007A
:100280000000000000002A2B2800000000000000F1
:1002900000000000000000000029000000002C1EEB
:1002A0003420212224342627252E362D3738271EA8
:1002B0001F202122232425263333362E37381F04CE
:1002C00005060708090A0B0C0D0E0F101112131466
:1002D00015161718191A1B1C1D2F3130232D350424
:1002E00005060708090A0B0C0D0E0F101112131446
:1002F00015161718191A1B1C1D2F3130354C00000C
:1003000000000000000000000000000000000000ED
:1003100000000000000000000000000000000000DD
:1003200000007E0F00D4FFFFFFC70000007810031D
:10033000770069006E00670073003400320000002F
:100340000C037900660075006B0075000000040363
:10035000090409025B00030100A0FA09040000017E
:10036000030101000921110100012240000705815C
:100370000308000109040100020300000009211123
:100380000100012222000705820320000107050366
:1003900003200001090402000103000000092111EB
:1003A000010001227B0007058403200001120100E7
:1003B0000200000008465903000100010200010686
:1003C00060FF0961A1010962150026FF00952075F3
:1003D0000881020963150026FF0095207508910227
:1003E000C005010902A10185020901A10005091941
:1003F00001290815002501950875018102050109EB
:100400003009311581257F95027508810609381557
:1004100081257F950175088106050C0A3802158132
:10042000257F950175088106C0C005010980A101DD
:10043000850319012AB700150126B700950175102B
:100440008100C0050C0901A101850419012AA0023F
:10045000150126A002950175108100C0050109064D
:10046000A101050719E029E7150025019508750187
:1004700081029501750881010507190029FF150002
:1004800026FF0095067508810005081901290595C4
:100490000575019102950175039101C011241FBEDC
:1004A000CFEFDAE0DEBFCDBF11E0A0E0B1E0E2ECDB
:1004B000F1E502C005900D92AE3AB107D9F722E0FE
:1004C000AEEAB1E001C01D92A439B207E1F70E9483
:1004D00044150C94DF280C94000081E0089581E01D
:1004E00008950E946F02089508950E94740208956D
:1004F000A5E0B0E0EEE7F2E00C944B2849835A8384
:100500003091B10189819A81311114C0662359F06B
:10051000222349F00E946009182F682F89819A814F
:100520000E943C0903C00E944E09182F69817A81FC
:10053000812F04C00E94600969817A810E94561B44
:100540002596E3E00C946728FC01262F4081518119
:100550006281738184810E947802089581E0089508
:10056000CF93DF93EC0160E00E94A402BE010E94E1
:100570007502DF91CF910895E1E0F0E0DF0102C064
:10058000AA0FBB1F6A95E2F7BD01DF0102C0AA0FE7
:10059000BB1F4A95E2F7AD01462B01C0EE0F2A952D
:1005A000EAF7942F9823491302C08E2B0895E09503
:1005B0008E230895242F462F682F8091C4010E9416
:1005C000BC020E949B0808950E949E1108950E94FB
:1005D0009811089508950E9438080E94EA022FEFAA
:1005E00084E39CE0215080409040E1F700C000008F
:1005F00008950E94EB020E94822008950E94EB025F
:100600000E94932008950F931F93CF93DF938C0143
:1006100061E00E94A402EC01B8010E9447188823FF
:1006200009F447C0B801CE010E947102882309F481
:1006300040C0B801CE010E94A21C8823D1F1B801AC
:10064000CE010E9448198823A1F1B801CE010E9471
:10065000081C882371F1F8018281882331F1CA35A1
:100660008DE5D807E9F050F4C115FCE5DF0779F016
:10067000CE3DDC45D1F40E94550E0CC0CC35EDE5E5
:10068000DE0759F080F0C73ADD4521F00EC00E9428
:10069000F9020FC00E94FE020CC00E948C0D05C022
:1006A0000E94960D02C00E949A0DC8010E946D0220
:1006B00001C080E0DF91CF911F910F9108950E94BA
:1006C000901F0E94440408950E9448040E94991FAC
:1006D0000895A0E0B0E0EFE6F3E00C944728E82F9F
:1006E000F0E0E258FD4FD490282F269526952695C8
:1006F00030E0F901E25EFC4F0491877010E0082EB3
:1007000002C0159507950A94E2F701701127F901C7
:10071000E25FFC4FE490F12C082E02C0F594E794C0
:100720000A94E2F791E0E922FF24F901E250FD4F3B
:10073000C491D0E002C0D595C7958A95E2F7C17003
:10074000DD270115110519F081EE0E949F04E114C7
:10075000F10419F086EE0E949F048D2D0E94CB05B6
:10076000E114F10419F086EE0E9448050115110507
:1007700019F081EE0E944805CD2B19F08CE20E9401
:10078000CB05CDB7DEB7E7E00C946328EF92FF927C
:100790000F931F93CF93DF93EC01162F0AE088810C
:1007A000882309F455C0813009F043C08981813024
:1007B00041F47E0182E0E80EF11C8A810E94CB05A3
:1007C00009C0823049F47E01E2E0EE0EF11C8A811C
:1007D0000E949F04E7012FC0833041F47E01F2E0C4
:1007E000EF0EF11C8A810E944805F4CF843011F08D
:1007F000219621C02A81229680E090E030E02053AB
:1008000031092A30310558F4089FA001099F500D85
:100810001124C901840F951F21962881EFCF0097DD
:1008200051F0EFE9FFE03197F1F700C000000197C8
:10083000F6CF0E9469032196812F882309F4AFCF58
:10084000EFE9FFE03197F1F700C000008150F5CFEC
:10085000CDB7DEB7E6E00C94642860E00E94C603E2
:10086000089508950E943104089581E008950E943A
:10087000350408950895CF93C82F0E9432048C2F19
:100880000E943704CF91089580E00E943B040895B0
:100890000E94BA1E0E943B0408950E94BA1E9091C5
:1008A000B001891721F08093B0010E943B040895A4
:1008B000ABE0B0E0EEE5F4E00C944C284F835887B1
:1008C00069877A878B8761110E94D40C9E012F5F04
:1008D0003F4F86E0F90111928A95E9F785E0FE0124
:1008E0003796D90101900D928A95E1F789819A8115
:1008F0004C815D81452B31F09F3F31F491E08F3F7A
:1009000019F403C091E001C090E090FF09C0498153
:100910005A816B817C818D819E810E94000C05C073
:10092000C9010E94AE028111F2CF2B96E2E00C9435
:100930006828FC01808191810E948D090895CF93E0
:10094000882309F4A3C0C82F8238C1F40E94BA1EBC
:1009500081FD9CC069E380910001909101010E949A
:10096000551F0E94F80C2FEF81EE94E0215080403B
:100970009040E1F700C0000069E319C0833801F539
:100980000E94BA1E80FD82C063E5809100019091B3
:1009900001010E94551F0E94F80C2FEF81EE94E098
:1009A000215080409040E1F700C0000063E5809155
:1009B0000001909101010E94581F0E94F80C66C02E
:1009C0008438C1F40E94BA1E82FD60C067E4809141
:1009D0000001909101010E94551F0E94F80C2FEF19
:1009E00081EE94E0215080409040E1F700C000008B
:1009F00067E4DDCF8CEF8C0F813AD0F46C2F8091BF
:100A00000001909101010E941F1F882349F06C2F63
:100A100080910001909101010E94581F0E94F80CE2
:100A20006C2F80910001909101010E94551FC5CF4C
:100A300080E28C0F883048F4C77081E001C0880FD5
:100A4000CA95EAF70E94B70CB8CFEBE5EC0FE3309C
:100A500040F4F0E0E25AFE4F808190E00E94E71EF1
:100A600015C0E8E5EC0FE73150F4F0E0EE0FFF1FA2
:100A7000E05DFE4F808191810E94FD1E07C0C03F56
:100A800028F08C2F0E94C9150E949B16CF910895C3
:100A9000882309F467C0823879F40E94BA1E81FF66
:100AA00061C069E380910001909101010E94551F8E
:100AB0000E94F80C69E310C08338B9F40E94BA1E92
:100AC00080FF50C063E580910001909101010E9478
:100AD000551F0E94F80C63E580910001909101017F
:100AE0000E94581F0E94F80C0895843879F40E94DF
:100AF000BA1E82FF37C067E4809100019091010126
:100B00000E94551F0E94F80C67E4E6CF9CEF980FF7
:100B1000913A10F4682FE0CF90E2980F983050F49B
:100B2000877091E001C0990F8A95EAF7892F0E949A
:100B3000BD0CD8CF9BE5980F933028F480E090E06F
:100B40000E94E71E089598E5980F973128F480E0F9
:100B500090E00E94FD1E0895803F20F00E94241620
:100B60000E949B1608951F93CF93DF93182FEB01DC
:100B70000E949F04209741F08FE99FE00197F1F7D1
:100B800000C000002197F6CF812F0E944805DF9119
:100B9000CF911F910895893319F060E070E002C091
:100BA00060E570E00E94B3050895882321F00E945B
:100BB000B70C0E94F80C0895882321F00E94BD0C08
:100BC0000E94F80C0895A0E0B0E0E9EEF5E00C9486
:100BD00046287C01162FC72FFC01D2810581029582
:100BE0000F700E94AD0C8823B9F0DD23A9F08C2F83
:100BF000807F803421F080E2810F883068F080911E
:100C0000700282FF09C082E00E945A0D0E94AD0C62
:100C100091E0D82ED92601C0D12CCC2EC2948FE0E1
:100C2000C8228C2D90E08C30910508F09EC1FC010B
:100C3000EA5AFF4F0C942F288C2F807FCF70882387
:100C400011F0C295C07FDD2399F0CC2309F479C15E
:100C500080E2810F883010F0111104C08C2F0E94A7
:100C6000B70C03C08C2F0E94C70C0E94F80C69C1FE
:100C7000812F0E944805CC2309F477C180E2810FBF
:100C8000883038F1112329F18C2F0E94CD0C24C01B
:100C90008C2F807FCF70803211F0C295C07F1123DE
:100CA00019F01130A1F13DC08091700282FD17C092
:100CB000DD2349F0CC2329F08C2F0E94B70C0E9431
:100CC000F80C80E03FC180E00E944805CC2309F485
:100CD0004CC18C2F0E94BD0C0E94F80C46C1DD2334
:100CE00071F0002341F0013031F40E94D70C8C2BBD
:100CF0000E94E10C3AC10E94D70C8C2B1DC000232E
:100D000019F0013009F431C10E94EE0C25C0DD2339
:100D100021F0063008F029C10EC0053008F025C1C9
:100D20001BC0DD2361F0002331F0F701858180FFD6
:100D300008C18F7085838C2F0E94D50516C10023B2
:100D400059F0193309F00EC1FFEF27EE83E0F1509F
:100D500020408040E1F704C18C2F0E94DC0505C1D2
:100D60008C2F86958695837019F0813061F0FDC0D7
:100D7000DD2321F0812F9C2F937002C080E090E052
:100D80000E94E71EFAC0DD2321F0812F9C2F937073
:100D900002C080E090E00E94FD1EEFC0812FDD23A5
:100DA00019F00E94C91502C00E9424160E949B16C9
:100DB000E4C08C2F837079F5D111DBC0412F4295AF
:100DC00046954770440F440F212F2F70042E01C009
:100DD000220F0A94EAF714FF08C08FE090E001C0E8
:100DE000880F4A95EAF7809501C080E0C695C695C0
:100DF000C370822BC23049F058F4C13019F00E9400
:100E00008C08B7C00E948608B4C00E949208B1C086
:100E10000E948308AEC0DD2319F08C2F817001C0C1
:100E20008695882309F4A5C0412F429546954770C1
:100E3000440F440F212F2F70042E01C0220F0A945B
:100E4000EAF714FF08C08FE090E001C0880F4A95D0
:100E5000EAF7809501C080E0C695C695C370822BE5
:100E6000C23049F058F4C13019F00E94DA0881C04C
:100E70000E94D4087EC00E94E0087BC00E949B08AC
:100E800078C0CF70DD2339F08C2F0E94AF08812FFE
:100E90000E94D5056EC0812F0E94DC058C2F0E9418
:100EA000BB0867C0123F21F128F4103F41F0113F09
:100EB000C1F043C0133F19F1143F79F03EC0DD2368
:100EC00041F0053008F051C08C2F8F710E94C80886
:100ED0004CC0063008F049C0F7CF8091700282FD07
:100EE00018C0DD2339F08C2F8F710E94AF083DC0F0
:100EF000DD23C9F38C2F8F710E94BB0836C0DD2320
:100F000029F08C2F8F710E94A6082FC00E94A20882
:100F10002CC0DD2349F0CF718C2F0E94AF0863E015
:100F20008C2F0E943C0D21C081E00E945A0D02309E
:100F3000E0F082E00E945A0D18C0DD2331F000235A
:100F400091F2812F0E949F0410C0002399F219335F
:100F500049F49FEFE7EEF3E09150E040F040E1F715
:100F600000C00000812F0E94480588EF8C0D84305E
:100F700020F40E94BA1E0E943B04DD2089F00E94EA
:100F8000A90C80FD0DC0F70112820E94A30C0E94E3
:100F9000AF08C7010E94ED070E94A30C0E94BB0886
:100FA000CDB7DEB7E8E00C9462280F931F93CF9380
:100FB000DF93EC01688179818A810E9498098C0114
:100FC0000E94E6080E947408B801CE010E94E30561
:100FD000DF91CF911F910F910895CF93DF93EC0193
:100FE000988189812B813C81232B31F08F3F31F413
:100FF00081E09F3F19F403C081E001C080E080FDE3
:101000001AC0CE010E94030381110FC00E94AD0CD3
:10101000882389F08A81882371F08091700282FF91
:101020000AC082E00E945A0D06C0CE010E94D50778
:10103000CE010E94B002DF91CF91089580E090E050
:101040000E94E71E80E090E00E94FD1E0E94D40CEA
:101050000E94F80C0E94BA160E949B160895809177
:101060000001909101010E945B1F0E941E080895DB
:101070000E94C40C0E942F08089592959F7096308C
:1010800079F010F4925001C09A50923068F4803F89
:1010900069F018F4883E40F409C0843F29F406C082
:1010A000883E20F0813F11F080E0089581E00895AE
:1010B000FC01808191810E948D090E943D08089564
:1010C000A5E0B0E0E6E6F8E00C944C282596E2E0D6
:1010D0000C946828A6E0B0E0E0E7F8E00C944C2817
:1010E0002696E2E00C946828089508950E947508F9
:1010F00008950E94760808950E9479088093C5019A
:101100000E941E0808950E947C0808959091C501D0
:10111000892B0E947C0808959091C50189230E9423
:101120007C0808959091C50189270E947C08089544
:101130000E94750808950E9498088093C4010E9437
:101140001E08089580E00E949B08089591E001C068
:10115000990F8A95EAF7892F0E949B08089521E04C
:1011600030E001C0220F8A95EAF78091C401822BFA
:101170000E949B08089521E030E001C0220F8A956B
:10118000EAF720958091C40182230E949B0808956C
:1011900021E030E001C0220F8A95EAF78091C40176
:1011A00082270E949B0808959091C401892B0E9478
:1011B0009B0808959091C40189230E949B0808957B
:1011C0009091C40189270E949B0808950895962F45
:1011D0009770A1E001C0AA0F9A95EAF793E076957F
:1011E00067959A95E1F7FB01EE0FFF1F6E0F7F1FCA
:1011F000FA01E60FF71F40E050E0682F70E09081A1
:101200009B01042E02C0369527950A94E2F72170BF
:10121000219529272A23292721934F5F5F4F4330A8
:10122000510569F708959B01782F777043E09695F3
:1012300087954A95E1F7FC01EE0FFF1F8E0F9F1F68
:10124000F901E80FF91F40E050E080E0219130E023
:10125000072E02C0369527950A94E2F721703327AE
:10126000042E01C0220F0A94EAF7822B4F5F5F4FD2
:101270004330510559F70895282F983070F486307F
:1012800060F4862F622F70E026E0929F600D711D42
:10129000112442EB51E00E94E7080895983070F461
:1012A000863060F4292F90E062EB71E036E0239FF6
:1012B000800D911D11240E941309089580E0089566
:1012C000CF92DF92FF920F931F93CF93DF936C0126
:1012D0000091C4018091C501082BC7E0D0E010E067
:1012E000C8010C2E02C0959587950A94E2F780FDFF
:1012F00004C02197A8F7F12C07C0FC2EB6018C2F53
:101300000E9431100197A9F38F2DDF91CF911F918A
:101310000F91FF90DF90CF900895CF93DF93EC0172
:101320000E946009BE010E943110DF91CF910895A3
:101330001F93CF93DF93EB019091B101992321F09B
:10134000CB010E948D0913C0882349F0CB010E9474
:101350006009182F682FCE010E943C0904C0CB0100
:101360000E944E09182FBE01812F0E943110DF917B
:10137000CF911F9108951F93CF93DF93C091C60122
:1013800016E08091C701C81799F0D0E01C9FF001CA
:101390001D9FF00D1124E853FE4F40815181628161
:1013A0007381848195810E946A082196C770E9CF74
:1013B000DF91CF911F9108954091F8015091F9016B
:1013C0006091FA017091FB018091FC019091FD0107
:1013D0000E946A0808950F931F93CF93DF93809123
:1013E000FD0182958F7009F05AC08091FA0188231F
:1013F00009F455C08091C6011091C7016091F801B0
:101400007091F901C091FB01D091FC0191E06F3F17
:1014100009F090E0292F06E0811709F440C02097D9
:1014200021F07F3F21F030E003C031E001C0322FD6
:1014300090E030FD31C0089FF001099FF00D1124AC
:10144000DF01A853BE4F11963C911197371324C06A
:101450003C91361321C012963C91129731111CC059
:1014600013964D915C9114974C1B5D0B483C5105B4
:1014700098F48091FD018F7080618093FD01E353AA
:10148000FE4F80818F708061808388EF91E00E94A1
:10149000ED070E94BB0903C001968770BDCFDF91A5
:1014A000CF911F910F910895A1E1B0E0EAE5FAE034
:1014B0000C9443288C0185E0F801DE011D96019013
:1014C0000D928A95E1F7F801E2809091F801609120
:1014D000F9012091FB013091FC012115310531F01A
:1014E0006F3F31F481E09F3F19F403C081E001C0F8
:1014F00080E0F82FF1709F2E80FD40C1F8014081FF
:101500005181A380B48088EFC82E81E0D82EF0905E
:10151000FA01F501E21BF30BFF2009F4DAC0809118
:10152000FD01E83CF10508F096C0282F207F09F066
:1015300053C0561313C0491311C0FE2CE1100EC046
:101540008F7080618093FD010E94DC09C6010E94BA
:10155000ED078091FD01F80185834DC1A114B1040F
:1015600031F05F3F31F481E04F3F19F403C081E077
:1015700001C080E080FD03C081E08E2502C080E0D4
:1015800090E0F82FF170FF2E80FF1CC08091C60103
:101590002091C70136E0821709F40BC190E0389F13
:1015A000F001399FF00D1124E853FE4F618156136D
:1015B00006C06081461303C06281E61203C0019633
:1015C0008770E9CFFE2CEE2009F415C18091FD0152
:1015D00081608093FD0154C0561306C0491304C0B6
:1015E000E11002C0F80199C0C8010E945808882380
:1015F00061F1EE2051F12091FD01822F82958F70D3
:1016000090E0029774F08091F8019091F901988729
:101610008F831986BB86AA862C87CE0107960E94E7
:10162000ED0786E0F801A8EFB1E001900D928A95F0
:10163000E1F70E94EB090E94DC090AC0561711F17C
:10164000C8010E94580881112CC0C8010E94ED07F2
:10165000FF24F394D0C0282F207F81F77A2DB98AF8
:10166000A88A6E2D89890E94600888EF91E00E9407
:10167000ED0786E0F60111928A95E9F70E94DC09F0
:10168000F12CB9C04913DCCFE110DACFF801858322
:10169000C8010E94ED0786E0F60111928A95E9F7EC
:1016A000AAC0EE2091F22091FD01822F82958F70C9
:1016B00090E002970CF4B5CF8091F8019091F90178
:1016C0009A8389831B82BD82AC822E83CE010196D0
:1016D000A6CFE83CF10508F044C0FE2CEE2009F44A
:1016E000B4CF561330C049132EC02091FD0120FD08
:1016F00021C0822F82958F70482F50E041155105EF
:10170000C9F0F80125834F30510541F08F5F982FC4
:101710009295907F822F8F70892B8583C8010E94BC
:10172000ED0786E0F801A8EFB1E001900D928A95EF
:10173000E1F73CC086E0F801A8EFB1E001900D921E
:101740008A95E1F758C0C8010E945808811169CFF5
:101750008091FD0181608093FD01C8010E94ED0729
:101760004AC07A2DB98AA88A6E2D89890E9460089C
:1017700086E0F60111928A95E9F718C0EE2009F487
:1017800064CFC8010E945808F82E882309F45DCF61
:1017900086E0F801A8EFB1E001900D928A95E1F79B
:1017A00088EF91E00E9499040E94EB090E94DC09F5
:1017B00022C04D875E878D859E850E948D09292FC9
:1017C00022952F70223028F49F7039F0811105C0C6
:1017D0000BC0243028F49F7049F4805E883020F0DC
:1017E000C8010E94ED079F2CF92C05C0F8019581D6
:1017F000907F99F7F9CF8F2D6196EBE00C945F28DD
:10180000ACE0B0E0E6E0FCE00C944B284F83588756
:1018100069877A878B879C87CE0107960E94540A36
:101820008823D1F09F8188852A853B85232B31F041
:101830008F3F31F481E09F3F19F403C081E001C084
:1018400080E080FD47C04F81588569857A858B850A
:101850009C850E946A083EC086E0FE013796DE0144
:10186000119601900D928A95E1F7FF81E8856A85CE
:101870007B856115710531F0EF3F31F481E0FF3F69
:1018800019F403C081E001C080E080FD23C02091F5
:10189000C70130E0C9010196877099274091C601C0
:1018A00050E084179507F1F1F983EA837D836C8317
:1018B00096E0929FD001939FB00D1124A853BE4F84
:1018C000FE01319601900D929A95E1F78093C70140
:1018D0000E94BB0916E08091C6019091C70189174B
:1018E00071F1189FC001112488539E4F0E94540A21
:1018F000882329F1E091C6011E9FF0011124E853CD
:10190000FE4F4081518162817381848195810E9463
:101910006A088091C60190E00196877099278093AC
:10192000C601D9CF0E9438081092C7011092C60193
:10193000E8EFF1E086E0DF011D928A95E9F72C9649
:10194000E3E00C946728809106028595859585953E
:10195000089580910602877008959091060297700D
:1019600081E009F480E0089580911102089590913A
:101970001102892B80931102089580959091110294
:101980008923809311020895109211020895909175
:101990001002892B80931002089580959091100277
:1019A0008923809310020895109210020895809167
:1019B0000702089508950E94DA0C08950E94DB0C36
:1019C00008959091700292FF08C0909107029817B5
:1019D00021F0809307020E94DE0C08958091070297
:1019E000882329F01092070280E00E94DE0C0895FF
:1019F000CF93DF93E0910001F091010180911102FA
:101A00008083E0910001F0910101908180911002AA
:101A1000892B808380910702882381F0E091000167
:101A2000F09101019081892B808380910001909138
:101A300001010E94131F81110E94EE0CC091000150
:101A4000D091010148E050E06EEF71E0CE010E94BC
:101A50008728892B59F088E0FE01AEEFB1E00190B4
:101A60000D928A95E1F7CE010E94CE1EDF91CF91B3
:101A700008950E94DA0C08959091700292FF11C0AF
:101A800098E0899F90011124262B209306020E9442
:101A9000AF08809106028595859585950E94390D40
:101AA00008950E94AF0808951092060280E00E94F7
:101AB000390D0895209106028095822380930602B5
:101AC000982F977099F430E0482F082E000C550B92
:101AD0002417350759F09091700292FF07C0859541
:101AE000859585950E94BB080E94540D089590919C
:101AF000700292FB222720F9281769F080FB92F9E7
:101B00009093700280916F02909170020E94CC0DB0
:101B100082E00E945A0D08958091700282FB88270E
:101B200080F991E089270E94770D089581E00E9455
:101B3000770D089580E00E94770D08956FEF7FEF95
:101B400080E090E00E94C928089580E090E00E9423
:101B5000A528883E9E4F19F40E94DC17089580E066
:101B6000089582E090E00E949D28089583E090E02F
:101B70000E949D280895CF9384E090E00E949D28C4
:101B8000C82F82E290E00E949D282C2F30E0A9010E
:101B9000582BCA01CF910895CF93C92F682F84E0A5
:101BA00090E00E94AB286C2F82E290E00E94AB286C
:101BB000CF910895AB01BC018FE090E00E94BD2859
:101BC0000895AB01BC0183E190E00E94BD28089517
:101BD00060E070E0CB010E94E10D089560E070E0EC
:101BE000CB010E94DA0D0E94E80D089568EE7EEFA9
:101BF00080E090E00E94C92860E082E090E00E94CE
:101C0000AB2860E083E090E00E94AB281092C50111
:101C100060E084E090E00E94AB2864E082E290E023
:101C20000E94AB2860E085E090E00E94AB2860E075
:101C300086E090E00E94AB286FEF87E090E00E9482
:101C4000AB2840E050E0BA0188E090E00E94BD2857
:101C500060E08DE090E00E94AB2840E050E0BA01E7
:101C600088E190E00E94BD2860E087E190E00E945A
:101C7000AB2840E050E0BA018CE190E00E94BD2822
:101C800060E070E080E290E00E94C92840E050E00F
:101C9000BA0188E190E00E94BD2880E00E94F5171B
:101CA0000E942A180E94EE0D08950E94F60D0895D4
:101CB000682F8EE090E00E94AB2808950E942520B6
:101CC00060931E0270931F02809320029093210262
:101CD00060931A0270931B0280931C0290931D0262
:101CE00008950E943313089508950E94740E089574
:101CF0000E94740E08950E94780E08950E94740E3A
:101D000008950E947E0E08950E94740E08958DE439
:101D100091E10E94B01E0E94840E0E94810E0895DF
:101D20000E94750E0E94740E08950E9469110E940F
:101D30003A0408950E9410200E940D110E943A1842
:101D40000E944E130E9494120E94950E0E94301918
:101D50000E9458130E947B0E0895AAE0B0E0E3EBC6
:101D6000FEE00C9442280E94B912982E81110E9424
:101D70005E0E82E1A82E82E0B82E00E010E0802EF8
:101D8000802F0E948411D82EF501C1905F01C826D2
:101D9000B1F40F5F1F4F0830110589F78FEF89836A
:101DA0008A831B820E9419208160782F9D838C83F7
:101DB00049815A816B818D810E9458042FC0809186
:101DC000220281FD0E948A11E12CFF24F3948C2DC4
:101DD0008F21F1F00E94710E882399F0EE828F829C
:101DE000DF2081E009F480E088870E94192081606B
:101DF000782F9A8789874E815F8168858A850E94BE
:101E00005804F801EE5EFD4F8081F826F08206C08E
:101E1000E394FF0CF6E0EF12DACFBBCF81E0911034
:101E200001C080E02A96ECE00C945E280E94AD0E82
:101E30000E9433130E94DC160E944D040895CF9334
:101E4000DF930E943610EC01811521E5920708F01E
:101E500045C0811530E5930708F094C0883E910590
:101E600028F5803E910508F0F8C0883A910570F495
:101E7000853A910508F07CC08130910509F475C060
:101E800008F4E8C0049708F0E8C0E4C08F3B91056F
:101E900008F0E0C0C85AD0E0CC0FDD1FCF59DE4FAC
:101EA0000990D881C02DCE019464D8C0811540E23C
:101EB000940758F4811551E0950708F0CEC0803F93
:101EC000910508F4C7C09065C9C0C11580E4D80762
:101ED00008F4C0C0DF70CE01906AC0C0811525E54E
:101EE0009207A8F4811534E5930708F095C0811591
:101EF00043E5940708F07BC0811552E5950708F08B
:101F000061C0D82FCC27CE01816F906AA7C0C115C0
:101F100089E5D807A0F4C11528E5D20708F082C0EA
:101F2000C11536E5D30708F095C08C2F0E94CA1062
:101F30008F7190E0D82FCC27CE0190628FC0C11551
:101F40004AE5D40708F474C0CE019056811590423A
:101F500008F080C08D2F8F710E94CA10DD27D062DB
:101F60008F71AE01582BCA0179C081E090E076C034
:101F7000C55AD0E0C157DE4F8881C82FD0E0CE01CE
:101F800090646CC074E0969587957A95E1F7282F58
:101F900023703C2F337081E090E002C0880F991FBE
:101FA0003A95E2F79C68AC01522B9A019C2F9F70E6
:101FB0009695969550E2959FE0011124C9018C2BCE
:101FC0009D2B4CC08370992721E030E002C0220F86
:101FD000331F8A95E2F79C2F9695969580E2989FFD
:101FE000E0011124C22BD32BCE019C6837C0837033
:101FF000992721E030E002C0220F331F8A95E2F7D3
:102000009C2F9695969540E2949FE0011124C22B57
:10201000D32BCE019A6822C0D82FCC27CE01846F53
:10202000906A1CC0DC2FCC27CE01806F906A16C04E
:102030008C2F8F700E94CA1094E0D695C7959A9500
:10204000E1F7CF70D0E0DC2FCC27D0699E01282BA0
:10205000C90104C080E090E001C0CE01DF91CF91C2
:1020600008950E94561B0E941F0F08958238910503
:1020700069F1B0F48133910509F46DC048F48932F7
:10208000910509F463C08A32910509F469C0089585
:102090008533910509F455C089339105B9F0089548
:1020A000833E910569F138F4803E9105B1F0823E9E
:1020B000910509F10895863E9105A9F1873E9105A4
:1020C000B9F1843E910509F064C023C020916F02EC
:1020D00020FD4FC021FD4DC0089580916F0280FD0D
:1020E00044C08091700280FF44C080916F0284FDE3
:1020F00042C083EE4DC080916F0282FF38C0F5CFA1
:1021000080916F0282FD33C08091700280FD31C0EA
:10211000ECCF8091700281FF32C080916F0284FD0C
:102120002AC087EE35C080916F0283FF26C0F5CFAD
:1021300080916F0283FD21C08091700281FD1FC0DC
:10214000ECCF80916F0285FD1CC01DC080916F0295
:1021500085FD19C016C080916F0286FD16C017C09C
:1021600080916F0286FD13C010C089E311C082EE1A
:102170000FC080EE0DC080E00BC086EE09C084EE7B
:1021800007C089E205C085E303C08AE201C081E39C
:1021900090E0089590916F0292FF0DC0282F287152
:1021A000283019F4877F846006C0282F24712430DA
:1021B00011F48B7F886093FF0DC0282F2871283180
:1021C00019F4877E846106C0282F2471243111F40C
:1021D0008B7E88612091700220FF0DC0382F3871EE
:1021E000383019F4877F816006C0382F3171313063
:1021F00011F48E7F886021FF0DC0282F28712831AF
:1022000019F4877E816106C0282F2171213111F4D4
:102210008E7E886194FD877E089510926B021092E5
:102220006C0210926D0210926E020895CF92DF92AE
:10223000EF92FF926B017C010E94331381110EC05B
:102240000E942520C61AD70AE80AF90AC0926B0232
:10225000D0926C02E0926D02F0926E02FF90EF90CD
:10226000DF90CF9008950F931F930E94331388231C
:1022700019F00E9425200EC00E94252000916B02BB
:1022800010916C0220916D0230916E02600F711FEF
:10229000821F931F1F910F91089580E008950E945F
:1022A0009E0D08950E94B9128FE39CE90197F1F702
:1022B00000C000000E94B91280E00E94841180FFDB
:1022C00004C00E944F110E94822008950E94521162
:1022D00008950E94A50D811102C00E94550E0E9412
:1022E000B10D809322020E94BB0D909370028093E7
:1022F0006F020E9466110E94B60D0E9483088091B1
:10230000C4010E9498080895E82FF0E0E658FD4FB8
:1023100080810895089580EA8A95F1F7089500C0B4
:1023200008950E948B11089508950E9494110895B4
:102330000E94951108950E94941108950E949B1186
:1023400008950E9494110895A4E0B0E0EAEAF1E152
:102350000C944A280E943313609182028823E9F189
:1023600019821A821B821C82862F90E08E010F5FD9
:102370001F4FB80186589D4F0E946613882389F02D
:102380008091710290E044E050E0B80186589D4F82
:102390000E94872821E020932302892B69F410E012
:1023A00019C0809123028823D1F384E0F8011192AF
:1023B0008A95E9F710922302E0917102F0E0E65865
:1023C000FD4F89819A81AB81BC8180839183A283F7
:1023D000B38311E00E94E7020DC070E066587D4FA4
:1023E0008091710290E086589D4F0E94EF130E94E9
:1023F000A11110E0812F2496E4E00C946628F89453
:10240000E82FE295EF70F0E031A1282F2F7081E0E6
:1024100090E001C0880F2A95EAF7982F90959323B2
:1024200091A392A1892B82A3789408950F931F936F
:10243000CF93DF93C8E9D1E089918F3F11F00E94DB
:10244000FF1181E0CC39D807B9F7C2E9D1E008E93A
:1024500011E089918F3F11F00E94FF110C171D07A9
:10246000C1F7DF91CF911F910F910895A0E0B0E0E7
:10247000ECE3F2E10C9446288C01C62FD0E0CE01AB
:1024800088569E4F7C01FC0190819F3F09F447C014
:10249000D62EF894E92FE295EF70F0E081A19F70BD
:1024A00021E030E001C0220F9A95EAF7822B81A348
:1024B00082A12095282322A378940E948F11E2E91B
:1024C000F1E048E951E031E0C12C21912F3F89F042
:1024D000A22FA295AF70B0E090968C9190E02F70F3
:1024E00002C0959587952A95E2F780FD02C0832F5B
:1024F00001C080E0C82A330F4E175F0731F7F7019C
:1025000080818F3F11F00E94FF1161E0C11001C076
:1025100060E08D2D0E949111C00FD11FC882CDB7F0
:10252000DEB7E8E00C9462288091020180910201FC
:10253000811102C094E001C090E09093820284E097
:10254000891B809371020E94161288E0EAE7F2E08C
:10255000DF01982F1D929A95E9F7E2E7F2E0DF019B
:102560001D928A95E9F784E00E94FD120E94E40220
:102570000895A8E0B0E0EFEBF2E10C9448288E015A
:102580000F5F1F4F88E0F80111928A95E9F7F12C4F
:102590006F2DC8010E943612F394F4E0FF12F8CFB9
:1025A00048E050E0B80182E792E00E9487287C0171
:1025B00021E0892B09F420E0E114F10441F088E0E6
:1025C000F801A2E7B2E001900D928A95E1F76091DF
:1025D000820270E066587D4F44E082E792E00E94FC
:1025E000FE12E114F10419F40E94A41102C081E06A
:1025F00090E02896E6E00C9464280895FF920F93EB
:102600001F93CF93DF938C01F62ED72FC42F222355
:1026100049F081E0809326020E94192090932502C0
:1026200080932402809126028823C1F080912402A5
:10263000909125020E943120059780F0EF2DFD2F0B
:10264000D8014C2F50E0CD01801B910B84179507CA
:102650001CF48D918193F7CF10922602CDB7DEB78F
:10266000E5E00C9465288091290281110DC00E943B
:102670000E28811102C082E001C081E0809329020E
:10268000823011F40E94092881E090912902913052
:1026900009F080E008950E94331308950E944B13BF
:1026A000809302010E94331381110E949E130895AA
:1026B0000E943313811102C00E94A113089581E08A
:1026C00090912A029A3008F080E008950F931F93AA
:1026D000CF93DF93EC018B0180912A028A3038F48A
:1026E000B801CE010E94EC1381111DC00AC0809177
:1026F0002702909128020E943120843F914080F768
:1027000015C080912A028F3F19F08F5F80932A02B3
:1027100080912A028A3060F00E941920909328024A
:102720008093270203C010922A0202C080E001C0F9
:1027300081E0DF91CF911F910F9108950E944A1D72
:1027400008950E944D1D0895A0E0B0E0EAEAF3E18B
:102750000C9447287901C82F880FDD0B41155105CE
:10276000A9F0FE0193E0EE0FFF1F9A95E1F7ED5FF0
:10277000FE4F81819281855D9D4F208130E042171F
:10278000530708F49A01A9010E949428CE010E94DF
:10279000351ED82E8823D1F001151105B9F083E03C
:1027A000CC0FDD1F8A95E1F7FE01ED5FFE4F4381FF
:1027B00050E00417150708F4A801CD5FDE4F6C81C7
:1027C0007D81655D7D4FC7010E9494288D2DCDB719
:1027D000DEB7E7E00C9463280E94E91408950E9494
:1027E00000150895A4E0B0E0E8EFF3E10C944A2866
:1027F00060914002709141028091420290914302A7
:102800000E944020643671058105910528F10E94DF
:102810003311DC01CB010296A11DB11D89839A837E
:10282000AB83BC8300E010E020E030E044E050E007
:10283000BE016F5F7F4F82E00E94A413182F882390
:1028400061F00E94252060934002709341028093C2
:1028500042029093430201C011E0812F2496E4E0EC
:102860000C946628A0E0B0E0E8E3F4E10C9444287E
:102870007C015B016A010E945F13811103C001E0CA
:1028800010E002C00AE010E0C1E0D0E0B501C701ED
:10289000F6010995811115C021960C171D0794F0BA
:1028A000CC9F9001CD9F300D300D112480E090E041
:1028B00045E34A95F1F70000019682179307C1F7A7
:1028C000E5CF81E0CDB7DEB7EAE00C946028A5E063
:1028D000B0E0EDE6F4E10C9444285B01E0909C014B
:1028E000F0909D0101E010E09E012B5F3F4F40E022
:1028F00050E060E070E080E00E94A413182F88236D
:1029000009F43EC067018FEFC81AD80A60913C02F3
:1029100070913D0280913E0290913F020E944020C2
:10292000643671058105910518F104E010E09E01FF
:102930002F5F3F4F40E050E060E070E081E00E9498
:10294000A413182F64E070E0C6010E94311991E0D1
:102950002D81281390E0192351F10E9425206093C6
:102960003C0270933D0280933E0290933F0211C05F
:1029700064E070E0C6010E9431199D818913D5CFB2
:10298000F70181819281A381B48189839A83AB838A
:10299000BC83112361F089819A81AB81BC818093D2
:1029A000380290933902A0933A02B0933B0280918F
:1029B000380290913902A0913A02B0913B02F501A0
:1029C00080839183A283B383812F2596EAE00C94C0
:1029D00060280F931F93CF93DF93EC018B0147E6A1
:1029E00054E10E943214882331F042EF53E1B801E0
:1029F000CE010E943214DF91CF911F910F91089563
:102A00000F931F93CF93DF93C0919C01D0919D01B1
:102A1000CE01019624E0FB01DC0101900D922A9584
:102A2000E1F764E070E00E94311988836D817E8156
:102A30008F819885009134021091350220913602E1
:102A400030913702601771078207930751F0609346
:102A500034027093350280933602909337020E94BD
:102A60001611DF91CF911F910F9108950E946B2253
:102A70000E949A0E0E94782208950E947D220E9450
:102A8000160F0E94972208950E94B01F0E945122A3
:102A90000E94870E0E9436150E943D150E94900EDE
:102AA000FBCF80914A0280FF06C06091200170E058
:102AB000660F771F26C081FF04C06091200184E06B
:102AC00005C082FF07C06091200188E0689FB001C7
:102AD000112417C0909149029923D1F060911F01F0
:102AE000961788F72091200188E0289F90011124F3
:102AF000929FA001939F500D112470E0CA010E9483
:102B00001B286038710540F46115710519F406C081
:102B100068E070E0862F08958FE7089581E00895BA
:102B200080914A0280FF08C060911C0170E0759599
:102B300067957595679521C081FF06C060911C015E
:102B400070E07595679519C082FF04C060911C0103
:102B500070E010C090914802992399F060911B0198
:102B60009617A0F780911C01899FC001112470E085
:102B70000E941B286038710540F46115710519F435
:102B800006C061E070E0862F08958FE7089581E028
:102B90000895803F21F40E945115819504C0813F22
:102BA00029F40E94511580934E020895823F21F42A
:102BB0000E945115819504C0833F29F40E9451154C
:102BC00080934D020895893F19F40E94901505C025
:102BD0008A3F31F40E949015819580934F020895A9
:102BE0008B3F21F40E949015819504C08C3F29F4FD
:102BF0000E9490158093500208959CE0980F9530A4
:102C000078F421E030E0A90102C0440F551F9A95E5
:102C1000E2F7CA0190914C02892B80934C020895EF
:102C20008D3F21F480914A0281600BC08E3F21F4D8
:102C300080914A02826005C08F3F29F480914A0248
:102C4000846080934A020895803F39F490914E0247
:102C500097FF35C010924E0259C0813F29F49091E0
:102C60004E021916BCF32BC090914D02823F29F4FD
:102C700097FF25C010924D0249C0833F19F41916E1
:102C8000CCF31DC090914F02893F29F41916BCF472
:102C900010924F023BC08A3F19F497FF10C0F8CF43
:102CA0008B3F39F49091500297FF09C01092500267
:102CB0002DC08C3F21F4909150021916BCF39CE07A
:102CC000980F953080F421E030E0A90102C0440F54
:102CD000551F9A95E2F7CA01809590914C0289237D
:102CE00080934C0213C08D3F21F480914A028E7F65
:102CF0000BC08E3F21F480914A028D7F05C08F3F2B
:102D000029F480914A028B7F80934A0280914D0280
:102D1000811106C080914E02811102C010924902B9
:102D200080914F02811106C080915002811102C032
:102D30001092480208950E94192020914D022111FD
:102D400004C020914E02222321F0909347028093E9
:102D5000460220914F02211104C0209150022223EB
:102D600021F090934502809344028BE492E00E940C
:102D7000D91E0895EBE4F2E086E0DF011D928A950A
:102D8000E9F7109249021092480210924A020895FF
:102D9000FC01828181110DC0838181110AC084816F
:102DA000811107C091E08581811101C090E0892FD8
:102DB00001C081E081700895A6E0B0E0E2EEF6E1A6
:102DC0000C944B2886E0EBE4F2E0DE0111960190D2
:102DD0000D928A95E1F710924D0210924E021092D8
:102DE0004F02109250028B81811104C08C81882384
:102DF00009F45FC080914602909147020E94312001
:102E0000AC0190914902992339F02091210130E0E1
:102E10002417350758F04DC0209122018AE0289FE1
:102E2000900111242417350718F043C09F3F19F073
:102E30009F5F909349021B81112361F00E945115FD
:102E4000111614F09FEF01C091E0989F902D11246E
:102E500090934D021C81112361F00E9451151116AF
:102E600014F09FEF01C091E0989F902D1124909352
:102E70004E0230914D023323E1F020914E02222385
:102E8000C1F045EB3403C0011124992319F090934C
:102E90004D0203C081E080934D0235EB2303C00156
:102EA0001124992319F090934E0203C081E080937E
:102EB0004E028D81811104C08E81882309F45FC088
:102EC00080914402909145020E943120AC01909182
:102ED0004802992339F020911D0130E0241735076D
:102EE00058F04DC020911E018AE0289F90011124C6
:102EF0002417350718F043C09F3F19F09F5F909348
:102F000048021D81112361F00E949015111614F0E2
:102F10009FEF01C091E0989F902D112490934F0254
:102F20001E81112361F00E949015111614F09FEF7D
:102F300001C091E0989F902D112490935002309100
:102F40004F023323E1F0209150022223C1F045EBE0
:102F50003403C0011124992319F090934F0203C048
:102F600081E080934F0235EB2303C00111249923A4
:102F700019F09093500203C081E080935002BE018B
:102F80006F5F7F4F8BE492E00E94621F811105C04A
:102F90008BE492E00E94C81681110E949B1686E085
:102FA000FE013196ABE4B2E001900D928A95E1F713
:102FB0002696E3E00C94672883E290E00E949D2827
:102FC000823281F484E290E00E949D28883051F49E
:102FD00085E290E00E949D2891E0823109F090E026
:102FE000892F01C080E081700895CF93C82F81118F
:102FF00002C06FEF01C062E283E290E00E94AB2862
:10300000C11102C06FEF01C068E084E290E00E944D
:10301000AB28C11102C06FEF01C062E185E290E010
:103020000E94AB28CF910895089586E290E00E9417
:103030009D28682F70E080E090E008950895CF9378
:10304000C62F0E941E186C2F86E290E00E94AB28CB
:10305000CF91089580E00E94F51760E070E0CB0109
:103060000E941F180E94DF1A0E94AD1B81E00E947F
:10307000F51708950E9414180E9415180E941E1832
:103080000E94DC17811102C00E942A180895CF9374
:10309000FB01C281CC23E9F09C0122513F45203144
:1030A000310520F482510E94BD1B0CC08031FFE528
:1030B0009F0751F481E00E94AF0843E062E081E0A5
:1030C0000E94DA02C0E018C081319F45A9F482E075
:1030D000F2CF8031EFE59E0711F481E004C0813129
:1030E0009F4549F482E00E94BB0843E062E081E032
:1030F0000E94DA0201C0C1E08C2FCF9108952FEF1A
:10310000FC0120830895EF92FF920F931F93CF93BA
:10311000DF93EC01062FE8818E2F90E0FC013197C0
:10312000E331F10508F091C0EE59FF4F0C942F28C0
:10313000198289E04DC08981823039F0833061F095
:10314000813029F50E94252002C00E9415189A831B
:103150008B837C836D837BC07E0182E0E80EF11C53
:1031600010E0812F0E948411F70181937F011F5F7E
:103170001830B9F76CC08981823049F46A817B814B
:103180008C819D810E9435280E941F1860C0602F8D
:10319000CE010E947F185BC04B816A8189810E94A9
:1031A000A31A9C838D8353C02C813D813227232712
:1031B00032274B816A8189810E94C41A48C00E94CB
:1031C000DF1A45C00E94641B24C00E94661B9983BD
:1031D0008A833DC06B8170E089819A81AE014C5F2A
:1031E0005F4F9827892798270E94691B30C06B8101
:1031F00070E089819A81AE014C5F5F4F98278927E3
:1032000098270E948C1B23C00E94AD1B20C00E94E7
:10321000901A89831CC06B8170E089819A81AE010C
:103220004C5F5F4F9827892798270E94141B0FC077
:103230006B8170E089819A81AE014C5F5F4F982766
:10324000892798270E94361B02C08FEF8883602F42
:10325000CE010E942121CDB7DEB7E6E00C946428B0
:103260000895FC01680F791F8FEF91E3E617F707C8
:1032700071F02191822728E030E087FF03C0880F9A
:10328000892701C0880F21503109B9F7EFCF089580
:10329000CF93DF93EC01FB018281882309F43CC1C9
:1032A000C330FDE5DF0760F4CA3F9CE5D90788F429
:1032B0009E0122503C452431310508F02EC109C041
:1032C000C136EDE5DE0729F0C53AFDE5DF0709F077
:1032D00024C10E94BB0D9093700280936F02C13194
:1032E0008CE5D80709F4C6C008F042C0C930ECE547
:1032F000DE0709F49BC000F5C5308CE5D80709F45A
:1033000085C078F4C330ECE5DE0709F478C008F036
:103310007AC0C230DC4509F0F5C080916F0281604F
:10332000EFC0C7309CE5D90709F478C008F07AC02F
:1033300080916F028061E4C0CD30FCE5DF0709F4C5
:1033400087C058F4CB309CE5D90709F479C008F060
:103350007BC080916F0288606FC0CF30FCE5DF07D3
:1033600009F480C008F082C080916F02877FC8C0D6
:10337000CD3F9CE5D90709F471C000F5C531FCE5E6
:10338000DF0709F485C068F4C3319CE5D90709F467
:1033900075C008F095C00E94380880916F028F7741
:1033A000AFC0CB3FFCE5DF07A9F108F054C0CA3F2E
:1033B000DC4509F0A7C08091700240C0C130EDE546
:1033C000DE0709F489C058F4CF3F8CE5D80709F42B
:1033D0005AC008F069C08091700282602FC0C13667
:1033E000EDE5DE0709F47CC0C53AFDE5DF0709F429
:1033F00081C0C230DD4509F085C080E06EC080919B
:103400006F0282607DC080916F0216C080916F0252
:10341000886076C08091700282604FC080916F0298
:1034200080626EC080916F0280646AC00E9438081A
:1034300080916F02806864C0846062C081603DC01A
:1034400080916F028E7F5CC080916F028D7F58C02B
:1034500080916F0216C08091700218C08091700236
:103460008D7F2BC080916F028F7E4AC080916F024A
:103470008F7D46C080916F028F7B42C080916F022A
:10348000877F8B7F3DC0809170028D7F8E7F15C0BE
:1034900080916F0282FB222720F991E0922790FB16
:1034A00082F990FB83F92CC080917002982F90953F
:1034B00091708E7F892B90FB81F98093700222C0DE
:1034C0000E94380880916F0287FB222720F991E043
:1034D000922790FB87F914C081E00E94580E12C019
:1034E00080916F0284FB222720F991E0922790FBC4
:1034F00084F906C080916F02982F909590FB80F917
:1035000080936F0280916F02909170020E94CC0DA7
:103510000E94380880E001C081E0DF91CF910895DA
:1035200084E0089550E0440F551F2CE0629F400D49
:10353000511D11249A0160E6869F200D311D112432
:10354000C901879608950F931F93CF93DF9384301B
:10355000A0F4683090F4463080F40E94921A8C01F6
:103560000E949D2890E0D82FCC27C80101960E9488
:103570009D289E01282BC90102C080E090E0DF91C8
:10358000CF911F910F9108950F931F93CF93DF93C6
:10359000843080F4683070F4463060F4E9010E94B1
:1035A000921A8C016D2F0E94AB286C2FC8010196D6
:1035B0000E94AB28DF91CF911F910F910895A0E059
:1035C000B0E0E5EEFAE10C944428A12CE12CF12CBA
:1035D000B12C00E010E0C0E0D0E06701C00ED11EC9
:1035E000FE01EE0FFF1FEC0DFD1DE250FF4F259178
:1035F00034914C2F6B2D8A2D0E94C41A2196C6300F
:10360000D10571F7045F1F4FB39488E0B812E3CF80
:1036100080E6E80EF11CA39484E0A812D9CFCDB7C0
:10362000DEB7EAE00C946028EF92FF920F931F93AD
:10363000CF93DF93EA017A01E60EF71E8C01C801F1
:103640008796CE15DF0569F0003821E0120720F4D7
:103650000E949D28888301C0188221960F5F1F4F0A
:10366000EECFCDB7DEB7E6E00C946428EF92FF9280
:103670000F931F93CF93DF93EA017A01E60EF71EB3
:103680008C01C8018796CE15DF0559F0003821E07E
:10369000120718F468810E94AB2821960F5F1F4F14
:1036A000F0CFCDB7DEB7E6E00C946428843048F460
:1036B000783038F4663028F4462F672F0E94A31A1A
:1036C000089580E090E0089580E1089589E592E012
:1036D0000895EF92FF920F931F93CF93DF93EA0128
:1036E0007A01E60EF71E8C01C80189559E4FCE1552
:1036F000DF0569F0093522E0120720F40E949D28B9
:10370000888301C0188221960F5F1F4FEDCFCDB780
:10371000DEB7E6E00C946428EF92FF920F931F93BC
:10372000CF93DF93EA017A01E60EF71E8C01C80100
:1037300089559E4FCE15DF0559F0093522E0120755
:1037400018F468810E94AB2821960F5F1F4FEFCFBE
:10375000CDB7DEB7E6E00C946428CF93DF93C7EAD9
:10376000D1E060E0CE010E94AB282196C11584E033
:10377000D807B9F7DF91CF910895A4E0B0E0E3EC6A
:10378000FBE10C944728F82E8FE08F15E8F18FEFBE
:1037900093E00E949D28811137C007EA11E0FF20C5
:1037A00069F0011584E0180779F1C8010E949D288D
:1037B000811101C0FA940F5F1F4FF1CF19821A8255
:1037C0001B821C82DD24D39478018FEFE81AF80A5B
:1037D000C8010E949D2889831A828823A9F09FEF3F
:1037E000980F933058F48A83D9820E5F1F4FC70118
:1037F0000E949D288B83882339F07801CE010196A1
:103800000E942D048701E0CF2496E7E00C94632802
:10381000CF93DF9386319C4541F5EB010E94B40CB8
:10382000982F8A812091000130910101882379F03D
:103830009A7A81E009F480E080935102911102C0EC
:1038400069E201C065E3C9010E94551F0AC0809169
:103850005102811102C069E201C065E3C9010E9401
:10386000581F0E94F80C80E001C081E0DF91CF91E9
:1038700008950F931F93CF93DF93C42FD22FFC0192
:1038800082818823B1F0409354020E9419209093C2
:1038900053028093520280E28C0F883008F04DC0B2
:1038A000C77081E001C0880FCA95EAF70E94D5056C
:1038B00044C080915402481330C0809152029091CC
:1038C00053020E943120883C910538F510E21D0F0B
:1038D000CD17B9F080E28C0F883040F4C77081E0DA
:1038E00001C0880FCA95EAF70E94DC05183010F570
:1038F00081E09D2F977001C0880F9A95EAF70E948A
:10390000D505802F0E94CB051830B8F4D77081E020
:1039100001C0880FDA95EAF70AC080E28C0F883080
:1039200060F4C77081E001C0880FCA95EAF70E9471
:10393000DC0503C0802F0E94CB05DF91CF911F9142
:103940000F9108950F939C01CB01233F4CE5340761
:1039500031F188F4283DFCE53F07D9F0293D4CE5DD
:10396000340779F1273D3C45A9F506E221EE41EE09
:1039700067ED7CE52BC0253FFCE53F07E1F0A8F0B3
:10398000263F3C4539F507E225EE46EE66EF7CE53D
:103990001DC007E225EE45EE68ED7CE517C006E2A6
:1039A00021EE40EE63EF7CE511C007E225EE44EE28
:1039B00064EF7CE50BC006E221EE42EE65EF7CE5AC
:1039C00005C008E221E045EE69ED7CE50E94391C66
:1039D00080E008C0FC018281882319F01092540213
:1039E00001C081E00F9108958EE14A9B02C0815091
:1039F000E1F74A9BFECF08955A9880E28A95F1F745
:103A00005A9A0895FC012AE02A95F1F728E090E0FF
:103A100080E031E040E14A95F1F7880F4A9B02C00F
:103A20008160932700C0000040E14A95F1F72150E2
:103A300089F720E12A95F1F729B100C0000030E1B3
:103A40003A95F1F722FB222720F992272081920F45
:103A500090830895A1E0B0E0E0E3FDE10C944828F4
:103A600019828C017C01E60EF11C0E151F0551F028
:103A70000E94F41CCE0101960E94021DF801819360
:103A80008F01F3CF81E09981911180E02196E6E0EA
:103A90000C946428529A5A9A089552985A9AEA9A1B
:103AA000E9E6F0E080818F7C80830895615091E0A9
:103AB00001C0990F6A95EAF720E031E0992361F09F
:103AC000492F482319F05A9A232701C05A9840E2F7
:103AD0004A95F1F79695F2CF222311F05A9A01C038
:103AE0005A9880E28A95F1F75A980895FF920F93B9
:103AF0001F93CF93DF93EC018C01060F111DC017AC
:103B0000D10741F0F9900E94FC1C68E08F2D0E94C3
:103B1000561DF5CFCDB7DEB7E5E00C9465281F92B2
:103B20000F920FB60F9211240F931F932F933F9371
:103B30004F935F936F937F938F939F93AF93BF93B5
:103B4000EF93FF93CF93DF931F92CDB7DEB7198228
:103B50000E94F41CCE0101960E94021D082F0695BA
:103B600006950695902F96959570202F2570920FAB
:103B7000292F237096959695920F877089135FC0B1
:103B8000898181115CC0043008F059C080E18A95B8
:103B9000F1F75A9A529A82E08A95F1F700C05A9842
:103BA00088E0089F80011124D801AD5FBE4F1696B2
:103BB000ED91FC9117973097A9F060919C0170915D
:103BC0009D0114962D913C911597260F371F119644
:103BD0008D919C911297680F791F13964C911397B2
:103BE0008C910995F801ED5FFE4F6381662351F0DA
:103BF00080919C0190919D0124813581820F931FBA
:103C00000E94761D0E94FC1C80E18A95F1F75A986B
:103C100052985A9A80E18A95F1F7F801ED5FFE4FCC
:103C20006081662351F080919C0190919D012181DA
:103C30003281820F931F0E942A1D0E94F41C0F9054
:103C4000DF91CF91FF91EF91BF91AF919F918F91B4
:103C50007F916F915F914F913F912F911F910F91A4
:103C60000F900FBE0F901F9018950F931F93CF9337
:103C7000DF93843091050CF06DC0EC01F894529AFA
:103C80005A9885E08A95F1F700009C2F96959570DB
:103C90002C2F2570920F892F83709695969523E08F
:103CA000CC0FDD1F2A95E1F7980F8E01092B0E949A
:103CB000FC1C84E08A95F1F700C068E0802F0E9428
:103CC000561D80E18A95F1F752985A9A4A9902C096
:103CD00000C0FCCF87E090E04A9B08C0019721F428
:103CE000529A5A9A789436C000C0F6CFFE01ED5F22
:103CF000FE4F6381662381F080919C0190919D012C
:103D000024813581820F931F0E942A1D811104C0D6
:103D1000529A5A9A78941FC00E94F41C80E28A95A5
:103D2000F1F75A98529A80E18A95F1F7CD5FDE4F0C
:103D30006881662351F080919C0190919D012981B9
:103D40003A81820F931F0E94761D0E94FC1C78947A
:103D500081E001C080E0DF91CF911F910F91089524
:103D60009093AF018093AE01089590935B0280938E
:103D70005A0208950E943313811103C080915502A5
:103D80000895E0915A02F0915B02309729F001907A
:103D9000F081E02D0995089580E00895E0915A02A0
:103DA000F0915B02309721F00280F381E02D0995BC
:103DB0000895E0915A02F0915B02309739F022E0C9
:103DC000DC012C930480F581E02D09950895209164
:103DD0005802309159022817390771F0909359020F
:103DE00080935802E0915A02F0915B02309721F0E3
:103DF0000680F781E02D09950895209156023091B3
:103E000057022817390771F0909357028093560292
:103E1000E0915A02F0915B02309721F00084F18525
:103E2000E02D09950895FC01329697E080E09150CD
:103E300029F021912223D9F38F5FF9CF08956623CA
:103E400049F0FC01329608962191621729F0E81793
:103E5000F907D1F780E0089581E008959C01FC0105
:103E600032969FEF80E04191461789F09F3F19F409
:103E7000411101C0982F8F5F8630A9F79F3F39F01D
:103E8000F901E90FF11D97FDFA95628308950895F0
:103E90009C012A5F3F4FFC014281461301C0128200
:103EA000019682179307B9F708950E942E1F08956F
:103EB0000E94481F0895029626E0FC0111922A955F
:103EC000E9F7089546E050E00E94872821E0892B19
:103ED00009F420E0822F089508950E946C1F089530
:103EE00083E080935C020E946D1F0895811102C0DF
:103EF00081E001C082E080935C020E946D1F089502
:103F00000E94761F089581E080935C020E946D1FDD
:103F100008950E94831F089508950E948C1F08959C
:103F20000E948D1F08950E948C1F08950E948C1F6F
:103F300008950E948C1F0895CF930E94961F0E949F
:103F4000B9120E94931FC0E08C2F0E94841181112E
:103F500004C0CF5FC830C1F701C081E0CF910895A0
:103F600085B7806885BF85B7806885BF08951F9233
:103F70000F920FB60F9211248F939F93AF93BF931D
:103F800080915D02811113C080918302909184021F
:103F9000A0918502B09186024196A11DB11D80932A
:103FA000830290938402A0938502B0938602BF910E
:103FB000AF919F918F910F900FBE0F901F9018950A
:103FC00080918B02843031F10E945F0310925D0278
:103FD00020E488E190E00FB6F894A8958093600003
:103FE0000FBE2093600083B7817F846083BF83B757
:103FF000816083BF7894889583B78E7F83BF0FB627
:10400000F894A89580916000886180936000109278
:1040100060000FBE08950E9438080E94640308954E
:1040200082E084BD93E095BD9AEF97BD80936E00CA
:1040300008952FB7F8948091830290918402A09103
:104040008502B09186022FBF08952FB7F894609132
:1040500083027091840280918502909186022FBF25
:1040600008959C014FB7F894809183029091840247
:10407000A0918502B09186024FBF821B930B0895D9
:10408000CF92DF92EF92FF922FB7F894C090830205
:10409000D0908402E0908502F09086022FBFA701A5
:1040A0009601261B370B480B590BCA01B901FF902B
:1040B000EF90DF90CF90089578941F920F920FB6F3
:1040C0000F9211248F939F93AF93BF93809183029C
:1040D00090918402A0918502B09186020196A11D63
:1040E000B11D8093830290938402A0938502B093C4
:1040F0008602BF91AF919F918F910F900FBE0F904D
:104100001F90189587E797E7909301088093000820
:104110009AE088E10FB6F894A895809360000FBEEE
:1041200090936000FFCF9AE088E10FB6F894A895CD
:10413000809360000FBE90936000FFCF8091690272
:104140000895089524E02093E9002FEF3091E800CE
:10415000215035FD06C035ED3A95F1F700002111EB
:10416000F5CF2091E80025FF0BC040E050E066E06D
:1041700070E00E9436238091E8008E778093E800FB
:104180000895CF93DF9321E02093E9002FEF309142
:10419000E800215035FD06C035ED3A95F1F70000F5
:1041A0002111F5CF2091E80025FF14C0EC0140E07B
:1041B00050E068E070E00E9436238091E8008E773E
:1041C0008093E80088E0FE01A1E6B2E001900D9244
:1041D0008A95E1F7DF91CF91089580935E02709305
:1041E000600260935F0280918B028430F9F48093C7
:1041F000E9008FEF9091E800815095FD06C095EDA4
:104200009A95F1F700008111F5CF8091E80085FFC4
:104210000DC040E050E063E070E08EE592E00E9467
:1042200036238091E8008E778093E8000895BC01E2
:1042300084E00E94ED200895BC0183E00E94ED20FF
:104240000895CF93603219F520918B022430F9F450
:10425000C091E900CF703091EC00232F217030FD28
:1042600020E8C22B22E02093E9002091E80020FF03
:104270000BC040E050E060E270E00E943623809185
:10428000E8008E778093E800CF70C093E900CF916B
:10429000089580918A02811109C00E9406250E941A
:1042A00063258091E20084608093E200089510927B
:1042B0008A0208950E94891F08956091870281E013
:1042C000611101C080E00E94701F089590918B02DF
:1042D00081E0943009F080E0609187020E94761FAF
:1042E000089542E061EC81E00E947F2442E261ECAB
:1042F00084E00E947F2442E261EC82E00E947F24FD
:1043000042E260EC83E00E947F2490918B0281E086
:10431000943009F080E0609187020E94801F089528
:1043200080918D02833009F463C030F4813071F0E4
:10433000823009F49DC008958A3009F489C08B3019
:1043400009F46EC0893009F0ABC020C080918C02A6
:10435000813A09F0A5C08091E800877F8093E8004A
:104360008091900290919102892B21F468E081E67E
:1043700092E003C060E080E090E070E00E94C02323
:104380008091E8008B778093E800089580918C02FB
:10439000813209F085C0809190029091910200973E
:1043A00019F0029709F07CC08091E800877F809324
:1043B000E8008091E80082FD05C080918B028111A8
:1043C000F8CF6EC02091F3008091F20090E0922B24
:1043D000029731F48091F100813011F0863021F4A0
:1043E0008091F100809369028091E8008B7754C03E
:1043F00080918C02813A09F053C080919002909193
:104400009102892B09F04CC08091E800877F80934E
:10441000E8008091E80080FFFCCF80912F0137C039
:1044200080918C028132E1F580919002909191020D
:10443000892BB1F58091E800877F8093E8000E9486
:10444000B42480918E0280932F010E943808089531
:1044500080918C02813221F58091E800877F8093E2
:10446000E8000E94B42480918F0280936A0208952C
:1044700080918C02813AA1F48091E800877F80933B
:10448000E8008091E80080FFFCCF80916A02809371
:10449000F1008091E8008E778093E8000E94B424B8
:1044A000089584B7877F84BF0FB6F894A89580914C
:1044B0006000886180936000109260000FBE90E001
:1044C00080E80FB6F89480936100909361000FBE6E
:1044D0000E94831F08950E9406250E946325E2EE34
:1044E000F0E080818460808378940E94EE270895B4
:1044F00083E291E00E94B51E089580918B02853081
:10450000A9F480918B02853079F40E94E01F80919C
:1045100089028823B1F30E949C1F882391F30E9493
:1045200020230E943808EDCF0E940B200895A0E2BE
:10453000B0E0EDE9F2E20C944C2880918B028430DB
:1045400011F583E08093E9008091E80082FF1BC0B1
:104550008091E80085FF0AC040E050E060E270E032
:10456000CE0101960E947B2391E001C090E08091F2
:10457000E8008B778093E800992329F060E2CE0170
:1045800001960E948318A096E2E00C9468280E948D
:10459000CA220895292F332723303105C9F060F44A
:1045A0002130310581F02230310509F041C08BE521
:1045B00090E022E533E040C021323105E1F02232C3
:1045C000310531F135C082E190E02DEA33E034C0AD
:1045D00099278130910549F028F0029749F5EEE2DC
:1045E000F3E005C0EEE4F3E002C0E0E4F3E0849120
:1045F00090E09F0121C063307105D0F4660F771FF2
:10460000FB01E955FE4F2081318189E090E014C023
:104610006330710568F4FB01EE0FFF1FEF55FE4F8D
:1046200020813181FB01E256FE4F808190E004C081
:1046300080E090E020E030E0FA01318320830895AB
:1046400080E189BD82E189BD09B400FEFDCF809182
:10465000D8008F7D8093D8008091E00082608093A5
:10466000E0008091E00081FDFCCF0895A0E0B0E083
:10467000ECE3F3E20C944628EC018B017A010E94F2
:10468000D324811133C0E114F10439F0F7018081A2
:104690009181081B190BC80FD91FC12CD12C0115F2
:1046A000110519F18091E80085FD16C08091E800A0
:1046B0008E778093E800E114F10449F0F7018081DE
:1046C0009181C80ED91ED182C08285E00FC00E94A0
:1046D000D324882321F30AC089918093F1000150EB
:1046E0001109FFEFCF1ADF0ADACF80E0CDB7DEB7CE
:1046F000E8E00C946228A0E0B0E0E1E8F3E20C947A
:104700004628EC018B017A010E94D324811133C029
:10471000E114F10439F0F70180819181081B190B34
:10472000C80FD91FC12CD12C0115110519F1809189
:10473000E80085FD16C08091E8008B778093E80043
:10474000E114F10449F0F70180819181C80ED91E6E
:10475000D182C08285E00FC00E94D324882321F338
:104760000AC08091F100899301501109FFEFCF1A1F
:10477000DF0ADACF80E0CDB7DEB7E8E00C9462283C
:1047800020919202309193022617370748F0611565
:10479000710539F42091E8002E772093E80001C0DC
:1047A000B901FC0120E06115710579F180918B025E
:1047B0008823F1F18530F1F18091E80083FD3CC060
:1047C0008091E80082FD2EC08091E80080FFEBCF51
:1047D0002091F3008091F20090E0922B6115710519
:1047E00051F08830910538F421912093F100615007
:1047F00071090196F3CF21E0089709F020E080913C
:10480000E8008E778093E800CECF2111CFCF0AC089
:1048100080918B02882361F0853061F08091E800FF
:1048200083FD0AC08091E80082FFF2CF80E0089506
:1048300082E0089583E0089581E008952091920236
:10484000309193022617370748F06115710539F446
:104850002091E8002E772093E80001C0B901FC0107
:1048600020E06115710591F180918B02882309F494
:1048700040C0853009F43FC08091E80083FD3DC011
:104880008091E80082FD2FC08091E80080FFE9CF91
:104890002091F3008091F20090E0922B6115710558
:1048A00059F08830910540F424912093F10031961D
:1048B000615071090196F2CF21E0089709F020E0DC
:1048C0008091E8008E778093E800CBCF2111CCCF88
:1048D0000AC080918B02882361F0853061F080915D
:1048E000E80083FD0AC08091E80082FFF2CF80E0FB
:1048F000089582E0089583E0089581E00895982F57
:10490000973068F59093E900981739F07091EC00B2
:104910002091ED005091F00003C0242F762F50E03D
:1049200021FD02C09F5FECCF3091EB003E7F3093C2
:10493000EB003091ED003D7F3093ED003091EB00C6
:1049400031603093EB007093EC002093ED005093B6
:10495000F0002091EE0027FDE5CF80E008958F70F4
:104960008093E90081E0089580918C0287FF11C057
:104970008091E80082FD05C080918B028111F8CF03
:1049800011C08091E8008B770BC080918B02882347
:1049900049F08091E80080FFF8CF8091E8008E77A1
:1049A0008093E80008952091E4003091E50095E6B9
:1049B0004091EC00842F817040FF23C08091E8007B
:1049C00080FD1DC080918B02882399F0853099F07D
:1049D0008091EB0085FD11C04091E4005091E5000D
:1049E0002417350729F3915011F09A01E1CF84E0A3
:1049F000089582E0089583E0089581E0089580E0BD
:104A000008954091E80042FFDDCF08950E9475258A
:104A10000E947D25E0EEF0E0808181608083E8EDFA
:104A2000F0E080818F77808319BCA7EDB0E08C9196
:104A30008E7F8C9380818F7E808310928A0208956E
:104A40000F931F93CF93DF930E9475250E947D25BE
:104A5000C8EDD0E088818F778883888180688883DB
:104A600088818F7D888319BC10928B0210928702F7
:104A7000109289021092880200EE10E0F801808105
:104A80008B7F808388818160888342E060E080E062
:104A90000E947F24E1EEF0E080818E7F8083E2EE51
:104AA000F0E0808181608083808188608083F8016C
:104AB00080818E7F8083888180618883DF91CF9120
:104AC0001F910F910895E8EDF0E080818F7E808343
:104AD000E7EDF0E080818160808384E082BF81E047
:104AE00080938A020E9420250895E8EDF0E08081FD
:104AF0008E7F80831092E20008951092DA00109267
:104B0000E10008951F920F920FB60F9211242F9378
:104B10003F934F935F936F937F938F939F93AF9345
:104B2000BF93EF93FF938091E10082FF0BC08091D0
:104B3000E20082FF07C08091E1008B7F8093E1005B
:104B40000E94ED278091DA0080FF1FC08091D8007D
:104B500080FF1BC08091DA008E7F8093DA00809105
:104B6000D90080FF0DC080E189BD82E189BD09B413
:104B700000FEFDCF81E080938B020E94492105C099
:104B800019BC10928B020E9457218091E10080FF96
:104B900019C08091E20080FF15C08091E2008E7FF5
:104BA0008093E2008091E20080618093E200809136
:104BB000D80080628093D80019BC85E080938B0276
:104BC0000E945D218091E10084FF30C08091E2006D
:104BD00084FF2CC080E189BD82E189BD09B400FE5B
:104BE000FDCF8091D8008F7D8093D8008091E10027
:104BF0008F7E8093E1008091E2008F7E8093E200BF
:104C00008091E20081608093E20080918702882396
:104C100011F084E007C08091E30087FD02C081E0CD
:104C200001C083E080938B020E9466218091E100A5
:104C300083FF29C08091E20083FF25C08091E100BD
:104C4000877F8093E10082E080938B02109287023D
:104C50008091E1008E7F8093E1008091E2008E7F61
:104C60008093E2008091E20080618093E20042E064
:104C700060E080E00E947F248091F0008860809353
:104C8000F0000E945A21FF91EF91BF91AF919F9147
:104C90008F917F916F915F914F913F912F910F90E5
:104CA0000FBE0F901F9018951F920F920FB60F9284
:104CB00011242F933F934F935F936F937F938F9321
:104CC0009F93AF93BF93CF93DF93EF93FF93C091E5
:104CD000E900CF708091EC00D82FD17080FDD0E832
:104CE0001092E9008091F000877F8093F000789423
:104CF0000E9498261092E9008091F00088608093CD
:104D0000F000CD2BCF70C093E900FF91EF91DF91C0
:104D1000CF91BF91AF919F918F917F916F915F9153
:104D20004F913F912F910F900FBE0F901F901895AC
:104D3000AAE2B0E0EEE9F6E20C944B28ECE8F2E0EF
:104D40008091F100819322E0E439F207C9F70E94D3
:104D500090218091E80083FF2EC180918C02909178
:104D60008D02492F50E04A30510508F024C1FA0164
:104D7000EB58FF4F0C942F28803821F0823809F02F
:104D80001AC108C08091880290918902992389F004
:104D900082600FC0809190028F70873008F00BC145
:104DA0008093E9008091EB0085FB882780F91092C1
:104DB000E9009091E800977F9093E8008093F100DC
:104DC0001092F100D1C0282F2D7F09F0F4C0882364
:104DD00019F0823061F0EFC080918E02813009F0CD
:104DE000EAC0933009F080E0809389022EC0809160
:104DF0008E0281112AC0809190028F702FEF280FB0
:104E0000263008F0D8C08093E9002091EB0020FF05
:104E10001CC0933021F48091EB00806214C090910B
:104E2000EB0090619093EB0021E030E0A90102C01B
:104E3000440F551F8A95E2F74093EA001092EA006A
:104E40008091EB0088608093EB001092E9008091E4
:104E5000E800877F8093E8000E94B424ACC08111F1
:104E6000AAC010918E021F778091E3008078812B79
:104E70008093E3008091E800877F8093E8000E94A0
:104E8000B4248091E80080FFFCCF8091E30080682B
:104E90008093E300111102C082E001C083E080939F
:104EA0008B0289C08058823008F085C080918E02C4
:104EB00090918F028C3D53E0950779F583E08A83CA
:104EC0008AE289834FB7F894DE01139620E03EE032
:104ED00051E2E32FF0E050935700E49120FF03C02C
:104EE000E295EF703F5FEF708E2F90E0EA3010F0A8
:104EF000C79601C0C0968D939D932F5F243149F7CB
:104F00004FBF8091E800877F8093E8006AE270E0FD
:104F1000CE0101960E94C02316C06091900270914C
:104F20009102AE014F5F5F4F0E94C722BC01892BE7
:104F300009F441C09091E800977F9093E80089813F
:104F40009A810E941E248091E8008B778093E8006C
:104F500032C0803881F58091E800877F8093E80037
:104F6000809187028093F1008091E8008E7772CF64
:104F7000811121C080918E0290918F029927029712
:104F8000D4F48091E800877F8093E80080918E02BE
:104F9000809387020E94B42480918702811106C009
:104FA0008091E30087FD02C081E001C084E080932E
:104FB0008B020E9471218091E80083FF0AC08091DA
:104FC000E800877F8093E8008091EB008062809307
:104FD000EB00AA96E3E00C9467280895CF938091A4
:104FE0008B028823A1F0C091E900CF709091EC0072
:104FF000892F817090FD80E8C82B1092E900809184
:10500000E80083FD0E949826CF70C093E900CF91FD
:1050100008950E94062510928B020895E8EDF0E0B5
:105020008081806180838AE18A95F1F700C0809158
:10503000D9008170089597FB072E16F4009407D0CD
:1050400077FD09D00E94732807FC05D03EF49095A7
:1050500081959F4F0895709561957F4F0895EE0F4C
:10506000FF1F0590F491E02D099469279627692781
:1050700078278727782708952F923F924F925F9243
:105080006F927F928F929F92AF92BF92CF92DF9258
:10509000EF92FF920F931F93CF93DF93CDB7DEB7BD
:1050A000CA1BDB0B0FB6F894DEBF0FBECDBF099451
:1050B0002A88398848885F846E847D848C849B84A8
:1050C000AA84B984C884DF80EE80FD800C811B81B6
:1050D000AA81B981CE0FD11D0FB6F894DEBF0FBEE5
:1050E000CDBFED010895AA1BBB1B51E107C0AA1F4C
:1050F000BB1FA617B70710F0A61BB70B881F991F79
:105100005A95A9F780959095BC01CD010895FB01B2
:10511000DC0104C08D910190801921F44150504070
:10512000C8F7881B990B0895FB01DC0102C00190B0
:105130000D9241505040D8F70895F999FECF92BD95
:1051400081BDF89A992780B50895A8E1B0E042E0C2
:1051500050E00C94D128262FF999FECF92BD81BD45
:10516000F89A019700B4021639F01FBA20BD0FB6A5
:10517000F894FA9AF99A0FBE08950396272F0E9481
:10518000AC280E94AB28252F0E94AC28242F0C9419
:10519000AC280196272F0E94AC280C94AB28DC0188
:1051A000CB01FC01F999FECF06C0F2BDE1BDF89A32
:1051B000319600B40D9241505040B8F70895F894DC
:0251C000FFCF1F
:1051C20008020100000001000000000000000401CC
:1051D2000000000405000000000000280850011E25
:1051E2000A14019E20C120A2201C211721A1200106
:1051F200E200E900EA00B500B600B700CD00830185
:10520200CC008A0192019401210223022402250288
:10521200260227022A02B300B4006F0070008182C6
:1052220083E200E900EA00B500B600B700CD0083D2
:1052320001CC008A01920194012102230224022559
:1052420002260227022A02B300B4006F0070008116
:1052520082833331F7F6F5F4946697C62B02402227
:0E5262007B5C04BF03E10364037D039D030036
:00000001FF
