:100000000C9486040C94A3040C94A3040C94A304F1
:100010000C94A3040C94A3040C94A3040C94A304C4
:100020000C94A3040C94A3040C9401270C94D327E0
:100030000C9452210C94A3040C94A3040C94A304D8
:100040000C94A3040C94A3040C94A3040C94A30494
:100050000C94A3040C94DB210C94A3040C94A3042F
:100060000C94A3040C94A3040C94A3040C94A30474
:100070000C94A3040C94A3040C94A3040C94A30464
:100080000C94A3040C94A3040C94A3040C94A30454
:100090000C94A3040C94A3040C94A3040C94A30444
:1000A0000C94A3040C94A3040C94A3049508950841
:1000B000C108C108290947092E0A2E0A5209BA099E
:1000C000CB09CB09431846186018711879188418A1
:1000D000CA18CA18CA18CA18CA1887188A188F18CE
:1000E0009C18A918AC18B018BD183B2862285A29CA
:1000F00062285A29AE28D1285A29282937294C6143
:100100007965723A20556E646566696E6564004C67
:10011000617965723A2033004C617965723A203218
:10012000004C617965723A2031004C617965723A10
:100130002044656661756C74001E001F002000215C
:1001400000220023002400250026002700010001D2
:100150000001000100010001000100010001000197
:100160000001000100010001000100010001000187
:100170000001000100010001000100010001000177
:10018000000100010001000100000000000000006B
:10019000002A2B28000000000000000000000000E2
:1001A0000000000029000000002C1E342021222421
:1001B000342627252E362D3738271E1F20212223AF
:1001C0002425263333362E37381F04050607080941
:1001D0000A0B0C0D0E0F1011121314151617181907
:1001E0001A1B1C1D2F3130232D3504050607080965
:1001F0000A0B0C0D0E0F10111213141516171819E7
:100200001A1B1C1D2F3130354C000000000000006F
:1002100000000000000000000000000000000000DE
:10022000000000000000000000000000007E0F0041
:10023000D4FFFFFFC70000007800AE00AF00DA0275
:1002400081FFD9F1DB20A4A62EAF00A0C000A1C879
:1002500000AED580A81FD300408D14200007087F72
:100260000807003E5B4F5B3E003E6B4F6B3E001C41
:100270003E7C3E1C00183C7E3C18001C577D571CE1
:10028000001C5E7F5E1C0000183C180000FFE7C3E6
:10029000E7FF00001824180000FFE7DBE7FF00304D
:1002A000483A060E00262979292600407F050507D1
:1002B00000407F05253F005A3CE73C5A007F3E1C2A
:1002C0001C0800081C1C3E7F0014227F2214005FC3
:1002D0005F005F5F0006097F017F00006689956A05
:1002E0000060606060600094A2FFA2940008047E39
:1002F00004080010207E20100008082A1C080008AE
:100300001C2A0808001E10101010000C1E0C1E0CD9
:100310000030383E383000060E3E0E060000000069
:1003200000000000005F000000000700070000144C
:100330007F147F1400242A7F2A120023130864628A
:1003400000364956205000000807030000001C2218
:100350004100000041221C00002A1C7F1C2A0008CA
:10036000083E0808000080703000000808080808EF
:10037000000000606000002010080402003E5149A7
:10038000453E0000427F4000007249494946002135
:1003900041494D33001814127F1000274545453957
:1003A000003C4A49493100412111090700364949B9
:1003B000493600464949291E00000014000000008B
:1003C00040340000000008142241001414141414D6
:1003D000000041221408000201590906003E415D57
:1003E000594E007C1211127C007F49494936003E6B
:1003F00041414122007F4141413E007F49494941FD
:10040000007F09090901003E41415173007F08083E
:10041000087F0000417F4100002040413F01007FF4
:1004200008142241007F40404040007F021C027FB0
:10043000007F0408107F003E4141413E007F0909D2
:100440000906003E4151215E007F09192946002618
:10045000494949320003017F0103003F4040403FCA
:10046000001F2040201F003F4038403F0063140819
:100470001463000304780403006159494D430000EC
:100480007F41414100020408102000004141417FAA
:100490000004020102040040404040400000030705
:1004A0000800002054547840007F28444438003825
:1004B0004444442800384444287F00385454541895
:1004C0000000087E09020018A4A49C78007F08049C
:1004D00004780000447D4000002040403D00007F43
:1004E000102844000000417F4000007C047804781C
:1004F000007C0804047800384444443800FC182484
:1005000024180018242418FC007C0804040800485F
:10051000545454240004043F4424003C4040207CB4
:10052000001C2040201C003C4030403C004428106F
:100530002844004C9090907C004464544C4400004B
:100540000836410000000077000000004136080036
:10055000000201020402003C2623263C00000000A9
:10056000000000404040F0F8F8FF38FFF8F83FF88E
:10057000F8FF38FFF8F8F0404040000000000000AD
:1005800080C0C0C0800000C0C08000000080C0C02B
:1005900000C0C0000080C0C00000000000C0C0C09B
:1005A000C0C000C0C000000000000000000000004B
:1005B000000000000000000000000000000000003B
:1005C000000000000000000000000000000000002B
:1005D000000000000000000000000000C0F0F8FC77
:1005E0003E1E06010000007F4141417F007F4141E6
:1005F000417F000080C0E07E5B4F5BFEC00000C01A
:1006000000DCD7DEDEDED7DC00C00000000000002A
:1006100000000000000000000000000000000000DA
:10062000000000494949FFFFFFFFE0DFBFBF00BFF7
:10063000BFDFE0FFFFFFFF49494900000000001F46
:100640003F6060E0BF1F007F7F071E381E077F7F6F
:10065000007F7F0E1F3B716000000000007F7F0C59
:100660000C0C007E7E007F7E0303007F7E03037EF2
:100670007E03037F7E000F3E703C063C703E0F0001
:10068000327B49493F7E007F7E0303001E3F69693C
:100690006F2600000000000000000000030F1F3F55
:1006A0003C7870600000007F4141417F007F414104
:1006B000417F00307B7F7830202030787F3B000303
:1006C000000F7F0F0F0F7F0F0003000000000000DE
:1006D000000000000000000000000000000000001A
:1006E000000000010101070F0F7F0F7F0F0F7E0F2A
:1006F0000F7F0F7F0F0F07010101000000000000B6
:1007000000000000010100000000000000000000E7
:1007100000000000000000000000000000000000D9
:1007200000000000000000000000000000000000C9
:1007300000000000000000000000000000000000B9
:1007400000000000000000000000000000000000A9
:100750000000000000000000000000000000000099
:100760000000000000000000000000000000000089
:100770000000000000000000000000000000000079
:100780000000000000000000000000000000000069
:1007900000000000000000000000000000100373D3
:1007A0000061006E00640062006F00780000000CC1
:1007B000037900660075006B0075000000040309F2
:1007C0000409025B00030100A0FA09040000010310
:1007D00001010009211101000122400007058103E8
:1007E00008000109040100020300000009211101B1
:1007F00000012222000705820320000107050303F0
:100800002000010904020001030000000921110178
:100810000001227B00070584032000011201000271
:1008200000000008465909000100010200010660AD
:10083000FF0961A1010962150026FF0095207508D6
:1008400081020963150026FF00952075089102C0FA
:1008500005010902A10185020901A100050919018B
:100860002908150025019508750181020501093047
:1008700009311581257F9502750881060938158192
:10088000257F950175088106050C0A38021581251A
:100890007F950175088106C0C005010980A1018509
:1008A0000319012AB700150126B7009501751081BB
:1008B00000C0050C0901A101850419012AA0021537
:1008C0000126A002950175108100C005010906A14D
:1008D00001050719E029E715002501950875018133
:1008E000029501750881010507190029FF150026E9
:1008F000FF00950675088100050819012905950571
:1009000075019102950175039101C00011241FBE6C
:10091000CFEFDAE0DEBFCDBF11E0A0E0B1E0E4EB65
:10092000F4E502C005900D92AE39B107D9F724E085
:10093000AEE9B1E001C01D92A437B207E1F70E9411
:10094000F2140C94582A0C940000CF930E94A50432
:10095000C82F882301F18091A8010E94960681305A
:1009600069F040F0823071F0833081F460E08FE014
:1009700091E00FC060E08AE291E00BC060E081E2AC
:1009800091E007C060E088E191E003C060E08EEF95
:1009900090E00E944C1A8C2FCF91089582E0089528
:1009A00081E0089581E008950E94D2040895089599
:1009B0000E94D7040895A5E0B0E0E1EEF4E00C94C5
:1009C000D82949835A833091A10189819A813111B3
:1009D00014C0662359F0222349F00E94D90B182F26
:1009E000682F89819A810E94B50B03C00E94C70BB2
:1009F000182F69817A81812F04C00E94D90B6981E7
:100A00007A810E94BB1D2596E3E00C94F429FC0139
:100A1000262F408151816281738184810E94DB0491
:100A2000089581E00895CF93DF93EC0160E00E9488
:100A30000705BE010E94D804DF91CF910895E1E03F
:100A4000F0E0DF0102C0AA0FBB1F6A95E2F7BD010B
:100A5000DF0102C0AA0FBB1F4A95E2F7AD01462B8A
:100A600001C0EE0F2A95EAF7942F9823491302C08C
:100A70008E2B0895E0958E230895242F462F682FFE
:100A80008091A8010E941F050E94140B08950E94E6
:100A9000DA1308950E94D413089508950E94B10AAC
:100AA0000E944D052FEF84E39CE021508040904050
:100AB000E1F700C0000008950E944E050E94012247
:100AC00008950E944E050E94122208950F931F93CD
:100AD000CF93DF938C0161E00E940705EC01B80120
:100AE0000E94F517882309F447C0B801CE010E947F
:100AF000D404882309F440C0B801CE010E94071F26
:100B00008823D1F1B801CE010E94AF1B8823A1F147
:100B1000B801CE010E946D1E882371F1F801828117
:100B2000882331F1CA358DE5D807E9F050F4C115B5
:100B3000FCE5DF0779F0CE3DDC45D1F40E94CE1014
:100B40000CC0CC35EDE5DE0759F080F0C73ADD4545
:100B500021F00EC00E945C050FC00E9461050CC010
:100B60000E94051005C00E940F1002C00E941310C1
:100B7000C8010E94D00401C080E0DF91CF911F9195
:100B80000F9108950E9429210E94BD060E94661BB4
:100B900008950E94C1060E9432210895A0E0B0E0AD
:100BA000E4EDF5E00C94D429E82FF0E0E757FE4F90
:100BB000D490282F26952695269530E0F901E75DFB
:100BC000FD4F0491877010E0082E02C0159507951F
:100BD0000A94E2F701701127F901E75EFD4FE490F6
:100BE000F12C082E02C0F594E7940A94E2F791E004
:100BF000E922FF24F901E75FFD4FC491D0E002C074
:100C0000D595C7958A95E2F7C170DD2701151105C5
:100C100019F081EE0E941807E114F10419F086EE34
:100C20000E9418078D2D0E944408E114F10419F068
:100C300086EE0E94C1070115110519F081EE0E9490
:100C4000C107CD2B19F08CE20E944408CDB7DEB766
:100C5000E7E00C94F029EF92FF920F931F93CF934C
:100C6000DF93EC01162F0AE08881882309F455C030
:100C7000813009F043C08981813041F47E0182E0F6
:100C8000E80EF11C8A810E94440809C0823049F4B0
:100C90007E01E2E0EE0EF11C8A810E941807E70156
:100CA0002FC0833041F47E01F2E0EF0EF11C8A8107
:100CB0000E94C107F4CF843011F0219621C02A810F
:100CC000229680E090E030E0205331092A3031054F
:100CD00058F4089FA001099F500D1124C901840FE9
:100CE000951F21962881EFCF009751F0EFE9FFE0A3
:100CF0003197F1F700C000000197F6CF0E94CE05B2
:100D00002196812F882309F4AFCFEFE9FFE03197D7
:100D1000F1F700C000008150F5CFCDB7DEB7E6E0B7
:100D20000C94F12960E00E942B060895982F92956B
:100D30009F7019F0892F24E001C020E0982F96952C
:100D4000969511F02E5F892F982F969509F02F5FB9
:100D5000822F089508950E94AA06089581E00895BB
:100D60000E94AE0608950895CF93C82F0E94AB0647
:100D70008C2F0E94B006CF91089580E00E94B406A7
:100D800008950E945A200E94B40608950E945A2095
:100D90009091A001891721F08093A0010E94B406D0
:100DA0000895ABE0B0E0E7EDF6E00C94D9294F836D
:100DB000588769877A878B8761110E944D0F9E0142
:100DC0002F5F3F4F86E0F90111928A95E9F785E0A0
:100DD000FE013796D90101900D928A95E1F789813C
:100DE0009A814C815D81452B31F09F3F31F491E038
:100DF0008F3F19F403C091E001C090E090FF09C05B
:100E000049815A816B817C818D819E810E94790EFE
:100E100005C0C9010E9411058111F2CF2B96E2E0B5
:100E20000C94F529FC01808191810E94060C0895A3
:100E3000CF93882309F4A3C0C82F8238C1F40E943D
:100E40005A2081FD9CC069E38091000190910101CD
:100E50000E94EE200E94710F2FEF81EE94E021504E
:100E600080409040E1F700C0000069E319C083387A
:100E700001F50E945A2080FD82C063E58091000147
:100E8000909101010E94EE200E94710F2FEF81EEE0
:100E900094E0215080409040E1F700C0000063E5FD
:100EA00080910001909101010E94F1200E94710F38
:100EB00066C08438C1F40E945A2082FD60C067E495
:100EC00080910001909101010E94EE200E94710F1B
:100ED0002FEF81EE94E0215080409040E1F700C078
:100EE000000067E4DDCF8CEF8C0F813AD0F46C2FDB
:100EF00080910001909101010E94B820882349F05F
:100F00006C2F80910001909101010E94F1200E94BC
:100F1000710F6C2F80910001909101010E94EE20D1
:100F2000C5CF80E28C0F883048F4C77081E001C0E3
:100F3000880FCA95EAF70E94300FB8CFEBE5EC0FA7
:100F4000E33040F4F0E0E45BFE4F808190E00E94EB
:100F5000802015C0E8E5EC0FE73150F4F0E0EE0F2B
:100F6000FF1FE25EFE4F808191810E94962007C0A4
:100F7000C03F28F08C2F0E9477150E944916CF9110
:100F80000895882309F467C0823879F40E945A20B2
:100F900081FF61C069E380910001909101010E948D
:100FA000EE200E94710F69E310C08338B9F40E94EB
:100FB0005A2080FF50C063E58091000190910101AB
:100FC0000E94EE200E94710F63E5809100019091D4
:100FD00001010E94F1200E94710F0895843879F474
:100FE0000E945A2082FF37C067E4809100019091EF
:100FF00001010E94EE200E94710F67E4E6CF9CEF92
:10100000980F913A10F4682FE0CF90E2980F983043
:1010100050F4877091E001C0990F8A95EAF7892F03
:101020000E94360FD8CF9BE5980F933028F480E0CC
:1010300090E00E948020089598E5980F973128F459
:1010400080E090E00E9496200895803F20F00E946A
:10105000D2150E94491608951F93CF93DF93182F3E
:10106000EB010E941807209741F08FE99FE001975C
:10107000F1F700C000002197F6CF812F0E94C10731
:10108000DF91CF911F910895893319F060E070E0EE
:1010900002C060E570E00E942C080895882321F0CA
:1010A0000E94300F0E94710F0895882321F00E9442
:1010B000360F0E94710F0895A0E0B0E0E2E6F8E07C
:1010C0000C94D3297C01162FC72FFC01D2810581F6
:1010D00002950F700E94260F8823B9F0DD23A9F036
:1010E0008C2F807F803421F080E2810F883068F07F
:1010F0008091580282FF09C082E00E94D30F0E94B3
:10110000260F91E0D82ED92601C0D12CCC2EC29426
:101110008FE0C8228C2D90E08C30910508F09EC1A4
:10112000FC01EA5AFF4F0C94BC298C2F807FCF70B2
:10113000882311F0C295C07FDD2399F0CC2309F4F8
:1011400079C180E2810F883010F0111104C08C2F1A
:101150000E94300F03C08C2F0E94400F0E94710F1D
:1011600069C1812F0E94C107CC2309F477C180E2B5
:10117000810F883038F1112329F18C2F0E94460FFE
:1011800024C08C2F807FCF70803211F0C295C07F39
:10119000112319F01130A1F13DC08091580282FD58
:1011A00017C0DD2349F0CC2329F08C2F0E94300F8B
:1011B0000E94710F80E03FC180E00E94C107CC23F4
:1011C00009F44CC18C2F0E94360F0E94710F46C14A
:1011D000DD2371F0002341F0013031F40E94500F03
:1011E0008C2B0E945A0F3AC10E94500F8C2B1DC0AD
:1011F000002319F0013009F431C10E94670F25C0A6
:10120000DD2321F0063008F029C10EC0053008F0BA
:1012100025C11BC0DD2361F0002331F0F70185817A
:1012200080FF08C18F7085838C2F0E944E0816C1E5
:10123000002359F0193309F00EC1FFEF27EE83E0C8
:10124000F15020408040E1F704C18C2F0E945508E6
:1012500005C18C2F86958695837019F0813061F0D9
:10126000FDC0DD2321F0812F9C2F937002C080E010
:1012700090E00E948020FAC0DD2321F0812F9C2F76
:10128000937002C080E090E00E949620EFC0812F12
:10129000DD2319F00E94771502C00E94D2150E942A
:1012A0004916E4C08C2F837079F5D111DBC0412F32
:1012B000429546954770440F440F212F2F70042EFE
:1012C00001C0220F0A94EAF714FF08C08FE090E0F3
:1012D00001C0880F4A95EAF7809501C080E0C69565
:1012E000C695C370822BC23049F058F4C13019F052
:1012F0000E94050BB7C00E94FF0AB4C00E940B0BEE
:10130000B1C00E94FC0AAEC0DD2319F08C2F8170A1
:1013100001C08695882309F4A5C0412F42954695C2
:101320004770440F440F212F2F70042E01C0220F4D
:101330000A94EAF714FF08C08FE090E001C0880F1C
:101340004A95EAF7809501C080E0C695C695C370BE
:10135000822BC23049F058F4C13019F00E94530B6F
:1013600081C00E944D0B7EC00E94590B7BC00E9421
:10137000140B78C0CF70DD2339F08C2F0E94280B1E
:10138000812F0E944E086EC0812F0E9455088C2F1D
:101390000E94340B67C0123F21F128F4103F41F046
:1013A000113FC1F043C0133F19F1143F79F03EC023
:1013B000DD2341F0053008F051C08C2F8F710E9461
:1013C000410B4CC0063008F049C0F7CF809158025D
:1013D00082FD18C0DD2339F08C2F8F710E94280BFD
:1013E0003DC0DD23C9F38C2F8F710E94340B36C0B2
:1013F000DD2329F08C2F8F710E941F0B2FC00E94BC
:101400001B0B2CC0DD2349F0CF718C2F0E94280BC1
:1014100063E08C2F0E94B50F21C081E00E94D30FA2
:101420000230E0F082E00E94D30F18C0DD2331F0DB
:10143000002391F2812F0E94180710C0002399F217
:10144000193349F49FEFE7EEF3E09150E040F040AC
:10145000E1F700C00000812F0E94C10788EF8C0DCA
:10146000843020F40E945A200E94B406DD2089F0C6
:101470000E94220F80FD0DC0F70112820E941C0FF6
:101480000E94280BC7010E94660A0E941C0F0E943E
:10149000340BCDB7DEB7E8E00C94EF290F931F9320
:1014A000CF93DF93EC01688179818A810E94110CCE
:1014B0008C010E945F0B0E94ED0AB801CE010E94D0
:1014C0005C08DF91CF911F910F910895CF93DF9327
:1014D000EC01988189812B813C81232B31F08F3F56
:1014E00031F481E09F3F19F403C081E001C080E046
:1014F00080FD1AC0CE010E94660581110FC00E94B6
:10150000260F882389F08A81882371F08091580200
:1015100082FF0AC082E00E94D30F06C0CE010E9463
:101520004E0ACE010E941305DF91CF91089580E00D
:1015300090E00E94802080E090E00E9496200E942F
:101540004D0F0E94710F0E9468160E94491608955F
:1015500080910001909101010E94F4200E94970A5D
:1015600008950E943D0F0E94A80A089592959F70C9
:10157000963079F010F4925001C09A50923068F48D
:10158000803F69F018F4883E40F409C0843F29F494
:1015900006C0883E20F0813F11F080E0089581E090
:1015A0000895FC01808191810E94060C0E94B60A78
:1015B0000895A5E0B0E0EFEDFAE00C94D929259666
:1015C000E2E00C94F529A6E0B0E0E9EEFAE00C9434
:1015D000D9292696E2E00C94F529089508950E94F1
:1015E000EE0A08950E94EF0A08950E94F20A80937D
:1015F000A9010E94970A08950E94F50A0895909102
:10160000A901892B0E94F50A08959091A9018923C7
:101610000E94F50A08959091A90189270E94F50A70
:1016200008950E94EE0A08950E94110B8093A8016C
:101630000E94970A089580E00E94140B089591E09B
:1016400001C0990F8A95EAF7892F0E94140B08951B
:1016500021E030E001C0220F8A95EAF78091A801CD
:10166000822B0E94140B089521E030E001C0220F6C
:101670008A95EAF720958091A80182230E94140B95
:10168000089521E030E001C0220F8A95EAF78091A9
:10169000A80182270E94140B08959091A801892B1C
:1016A0000E94140B08959091A80189230E94140BA5
:1016B00008959091A80189270E94140B0895089518
:1016C000962F9770A1E001C0AA0F9A95EAF793E0D0
:1016D000769567959A95E1F7FB01EE0FFF1F6E0F68
:1016E0007F1FFA01E60FF71F40E050E0682F70E01F
:1016F00090819B01042E02C0369527950A94E2F74B
:101700002170219529272A23292721934F5F5F4F95
:101710004330510569F708959B01782F777043E0B6
:10172000969587954A95E1F7FC01EE0FFF1F8E0F06
:101730009F1FF901E80FF91F40E050E080E0219180
:1017400030E0072E02C0369527950A94E2F7217003
:101750003327042E01C0220F0A94EAF7822B4F5F31
:101760005F4F4330510559F70895282F923070F498
:10177000853060F4862F622F70E025E0929F600D27
:10178000711D112442EA51E00E94600B08959230CD
:1017900070F4853060F4292F90E062EA71E035E062
:1017A000239F800D911D11240E948C0B089580E0D1
:1017B0000895CF92DF92FF920F931F93CF93DF9301
:1017C0006C010091A8018091A901082BC7E0D0E02D
:1017D00010E0C8010C2E02C0959587950A94E2F797
:1017E00080FD04C02197A8F7F12C07C0FC2EB6019C
:1017F0008C2F0E94AD120197A9F38F2DDF91CF910D
:101800001F910F91FF90DF90CF900895CF93DF93BA
:10181000EC010E94D90BBE010E94AD12DF91CF9165
:1018200008951F93CF93DF93EB019091A10199232A
:1018300021F0CB010E94060C13C0882349F0CB0194
:101840000E94D90B182F682FCE010E94B50B04C03F
:10185000CB010E94C70B182FBE01812F0E94AD1231
:10186000DF91CF911F9108951F93CF93DF93C09184
:10187000AA0116E08091AB01C81799F0D0E01C9F37
:10188000F0011D9FF00D1124E455FE4F4081518160
:1018900062817381848195810E94E30A2196C770D9
:1018A000E9CFDF91CF911F9108954091DC015091D4
:1018B000DD016091DE017091DF018091E001909186
:1018C000E1010E94E30A08950F931F93CF93DF93E2
:1018D0008091E10182958F7009F05AC08091DE01FC
:1018E000882309F455C08091AA011091AB01609141
:1018F000DC017091DD01C091DF01D091E00191E048
:101900006F3F09F090E0292F06E0811709F440C0ED
:10191000209721F07F3F21F030E003C031E001C08B
:10192000322F90E030FD31C0089FF001099FF00D8B
:101930001124DF01A455BE4F11963C911197371326
:1019400024C03C91361321C012963C91129731115C
:101950001CC013964D915C9114974C1B5D0B483C39
:10196000510598F48091E1018F7080618093E101CD
:10197000EF54FE4F80818F70806180838CED91E009
:101980000E94660A0E94340C03C001968770BDCF86
:10199000DF91CF911F910F910895A1E1B0E0E3EDA8
:1019A000FCE00C94D0298C0185E0F801DE011D9645
:1019B00001900D928A95E1F7F801E2809091DC01A7
:1019C0006091DD012091DF013091E00121153105A9
:1019D00031F06F3F31F481E09F3F19F403C081E0A3
:1019E00001C080E0F82FF1709F2E80FD40C1F8010A
:1019F00040815181A380B4808CEDC82E81E0D82E27
:101A0000F090DE01F501E21BF30BFF2009F4DAC0D0
:101A10008091E101E83CF10508F096C0282F207F75
:101A200009F053C0561313C0491311C0FE2CE11026
:101A30000EC08F7080618093E1010E94550CC60139
:101A40000E94660A8091E101F80185834DC1A114CD
:101A5000B10431F05F3F31F481E04F3F19F403C02E
:101A600081E001C080E080FD03C081E08E2502C0DE
:101A700080E090E0F82FF170FF2E80FF1CC0809175
:101A8000AA012091AB0136E0821709F40BC190E066
:101A9000389FF001399FF00D1124E455FE4F61810C
:101AA000561306C06081461303C06281E61203C06C
:101AB00001968770E9CFFE2CEE2009F415C18091C4
:101AC000E10181608093E10154C0561306C04913BF
:101AD00004C0E11002C0F80199C0C8010E94D10AF7
:101AE000882361F1EE2051F12091E101822F82954E
:101AF0008F7090E0029774F08091DC019091DD018D
:101B000098878F831986BB86AA862C87CE01079675
:101B10000E94660A86E0F801ACEDB1E001900D92FA
:101B20008A95E1F70E94640C0E94550C0AC0561772
:101B300011F1C8010E94D10A81112CC0C8010E9474
:101B4000660AFF24F394D0C0282F207F81F77A2DD6
:101B5000B98AA88A6E2D89890E94D90A8CED91E0F4
:101B60000E94660A86E0F60111928A95E9F70E94C2
:101B7000550CF12CB9C04913DCCFE110DACFF801D4
:101B80008583C8010E94660A86E0F60111928A9553
:101B9000E9F7AAC0EE2091F22091E101822F82950F
:101BA0008F7090E002970CF4B5CF8091DC0190919A
:101BB000DD019A8389831B82BD82AC822E83CE0194
:101BC0000196A6CFE83CF10508F044C0FE2CEE20BB
:101BD00009F4B4CF561330C049132EC02091E1014F
:101BE00020FD21C0822F82958F70482F50E0411533
:101BF0005105C9F0F80125834F30510541F08F5F41
:101C0000982F9295907F822F8F70892B8583C801A2
:101C10000E94660A86E0F801ACEDB1E001900D92F9
:101C20008A95E1F73CC086E0F801ACEDB1E00190A7
:101C30000D928A95E1F758C0C8010E94D10A81111E
:101C400069CF8091E10181608093E101C8010E9428
:101C5000660A4AC07A2DB98AA88A6E2D89890E949F
:101C6000D90A86E0F60111928A95E9F718C0EE20AC
:101C700009F464CFC8010E94D10AF82E882309F420
:101C80005DCF86E0F801ACEDB1E001900D928A9550
:101C9000E1F78CED91E00E9412070E94640C0E9413
:101CA000550C22C04D875E878D859E850E94060C4F
:101CB000292F22952F70223028F49F7039F081113E
:101CC00005C00BC0243028F49F7049F4805E883032
:101CD00020F0C8010E94660A9F2CF92C05C0F8016B
:101CE0009581907F99F7F9CF8F2D6196EBE00C9459
:101CF000EC29ACE0B0E0EFE7FEE00C94D8294F838C
:101D0000588769877A878B879C87CE0107960E94C0
:101D1000CD0C8823D1F09F8188852A853B85232B94
:101D200031F08F3F31F481E09F3F19F403C081E02F
:101D300001C080E080FD47C04F81588569857A8564
:101D40008B859C850E94E30A3EC086E0FE013796A3
:101D5000DE01119601900D928A95E1F7FF81E885E9
:101D60006A857B856115710531F0EF3F31F481E0C3
:101D7000FF3F19F403C081E001C080E080FD23C073
:101D80002091AB0130E0C9010196877099274091FD
:101D9000AA0150E084179507F1F1F983EA837D8366
:101DA0006C8396E0929FD001939FB00D1124A455AF
:101DB000BE4FFE01319601900D929A95E1F7809306
:101DC000AB010E94340C16E08091AA019091AB0106
:101DD000891771F1189FC001112484559E4F0E94EC
:101DE000CD0C882329F1E091AA011E9FF001112456
:101DF000E455FE4F408151816281738184819581D8
:101E00000E94E30A8091AA0190E0019687709927C9
:101E10008093AA01D9CF0E94B10A1092AB0110920F
:101E2000AA01ECEDF1E086E0DF011D928A95E9F769
:101E30002C96E3E00C94F4298091EA018595859530
:101E4000859508958091EA01877008959091EA013F
:101E5000977081E009F480E008958091F50108957C
:101E60009091F501892B8093F501089580959091CB
:101E7000F50189238093F50108951092F5010895E5
:101E80009091F401892B8093F401089580959091AD
:101E9000F40189238093F40108951092F4010895C8
:101EA0008091EB01089508950E94530F08950E94B8
:101EB000540F08959091580292FF08C09091EB0141
:101EC000981721F08093EB010E94570F089580919D
:101ED000EB01882329F01092EB0180E00E94570F5C
:101EE0000895CF93DF93E0910001F091010180917B
:101EF000F5018083E0910001F091010190818091D2
:101F0000F401892B80838091EB01882381F0E0919B
:101F10000001F09101019081892B80838091000163
:101F2000909101010E94AC2081110E94670FC09125
:101F30000001D091010148E050E062EE71E0CE0175
:101F40000E94092A892B59F088E0FE01A2EEB1E037
:101F500001900D928A95E1F7CE010E946720DF91F2
:101F6000CF9108950E94530F08959091580292FFC7
:101F700011C098E0899F90011124262B2093EA013B
:101F80000E94280B8091EA018595859585950E9490
:101F9000B20F08950E94280B08951092EA0180E084
:101FA0000E94B20F08952091EA01809582238093C8
:101FB000EA01982F977099F430E0482F082E000C12
:101FC000550B2417350759F09091580292FF07C01E
:101FD0008595859585950E94340B0E94CD0F0895B7
:101FE0009091580292FB222720F9281769F080FB74
:101FF00092F99093580280915702909158020E9452
:10200000451082E00E94D30F08958091580282FB10
:10201000882780F991E089270E94F00F089581E0D8
:102020000E94F00F089580E00E94F00F08956FEF76
:102030007FEF80E090E00E94422A089580E090E0E7
:102040000E941E2A883E9E4F19F40E948A17089506
:1020500080E0089582E090E00E94162A089583E0CF
:1020600090E00E94162A0895CF9384E090E00E94A9
:10207000162AC82F82E290E00E94162A2C2F30E008
:10208000A901582BCA01CF910895CF93C92F682F6A
:1020900084E090E00E94242A6C2F82E290E00E946B
:1020A000242ACF910895AB01BC018FE090E00E94FB
:1020B000362A0895AB01BC0183E190E00E94362AE4
:1020C000089560E070E0CB010E945A10089560E02E
:1020D00070E0CB010E9453100E946110089568EED9
:1020E0007EEF80E090E00E94422A60E082E090E093
:1020F0000E94242A60E083E090E00E94242A10924B
:10210000A90160E084E090E00E94242A64E082E279
:1021100090E00E94242A60E085E090E00E94242A5A
:1021200060E086E090E00E94242A6FEF87E090E074
:102130000E94242A40E050E0BA0188E090E00E942A
:10214000362A60E08DE090E00E94242A40E050E0D2
:10215000BA0188E190E00E94362A60E087E190E0D1
:102160000E94242A40E050E0BA018CE190E00E94F5
:10217000362A60E070E080E290E00E94422A40E06F
:1021800050E0BA0188E190E00E94362A80E00E9487
:10219000A3170E94D8170E94671008950E946F101D
:1021A0000895682F8EE090E00E94242A08950E94EE
:1021B000C0216093FC017093FD018093FE01909318
:1021C000FF016093F8017093F9018093FA019093F5
:1021D000FB01089581E008950E94EA100895089592
:1021E0000E94EF1008950E94EF1008950E94F310CE
:1021F00008950E94EF1008950E94F91008950E941A
:10220000EF10089589E893E10E9450200E94FF108A
:102210000E94FC1008950E94F0100E94EF10089593
:102220000E94A5130E94B30608950E94AB210E944C
:10223000E8170E9468140E94101180E00E94111992
:102240000E94F6100895AAE0B0E0E9E2F1E10C94F2
:10225000CF290E947814982E81110E94D71086EF02
:10226000A82E81E0B82E00E010E0802E802F0E9482
:10227000C013D82EF501C1905F01C826B1F40F5FDD
:102280001F4F0230110589F78FEF89838A831B82E4
:102290000E94B4218160782F9D838C8349815A816B
:1022A0006B818D810E94D1062FC08091000281FD3B
:1022B0000E94C613E12CFF24F3948C2D8F21F1F0A2
:1022C0000E94EC10882399F0EE828F82DF2081E05B
:1022D00009F480E088870E94B4218160782F9A8772
:1022E00089874E815F8168858A850E94D106F801C1
:1022F000EA50FE4F8081F826F08206C0E394FF0C7E
:10230000F5E0EF12DACFBBCF81E0911001C080E0A1
:102310002A96ECE00C94EB29CF930E942311C82F4E
:102320000E94831BC1110E94521A0E948A160E94A9
:10233000C606CF910895CF93DF930E94B212EC01AD
:10234000811521E5920708F045C0811530E5930716
:1023500008F094C0883E910528F5803E910508F06C
:10236000F8C0883A910570F4853A910508F07CC070
:102370008130910509F475C008F4E8C0049708F0AD
:10238000E8C0E4C08F3B910508F0E0C0C85AD0E037
:10239000CC0FDD1FC15BDE4F0990D881C02DCE016F
:1023A0009464D8C0811540E2940758F4811551E037
:1023B000950708F0CEC0803F910508F4C7C090652E
:1023C000C9C0C11580E4D80708F4C0C0DF70CE01D1
:1023D000906AC0C0811525E59207A8F4811534E5FF
:1023E000930708F095C0811543E5940708F07BC07A
:1023F000811552E5950708F061C0D82FCC27CE0192
:10240000816F906AA7C0C11589E5D807A0F4C115EE
:1024100028E5D20708F082C0C11536E5D30708F0D9
:1024200095C08C2F0E9446138F7190E0D82FCC2737
:10243000CE0190628FC0C1154AE5D40708F474C07C
:10244000CE0190568115904208F080C08D2F8F717B
:102450000E944613DD27D0628F71AE01582BCA014E
:1024600079C081E090E076C0C55AD0E0C358DE4F15
:102470008881C82FD0E0CE0190646CC074E096953E
:1024800087957A95E1F7282F23703C2F337081E0F0
:1024900090E002C0880F991F3A95E2F79C68AC0162
:1024A000522B9A019C2F9F709695969550E2959F7E
:1024B000E0011124C9018C2B9D2B4CC083709927FE
:1024C00021E030E002C0220F331F8A95E2F79C2FF3
:1024D0009695969580E2989FE0011124C22BD32B0C
:1024E000CE019C6837C08370992721E030E002C09C
:1024F000220F331F8A95E2F79C2F9695969540E21E
:10250000949FE0011124C22BD32BCE019A6822C0E4
:10251000D82FCC27CE01846F906A1CC0DC2FCC272B
:10252000CE01806F906A16C08C2F8F700E94461368
:1025300094E0D695C7959A95E1F7CF70D0E0DC2F5F
:10254000CC27D0699E01282BC90104C080E090E00F
:1025500001C0CE01DF91CF9108950E94BB1D0E9462
:102560009B1108958238910569F1B0F4813391058A
:1025700009F46DC048F48932910509F463C08A32C8
:10258000910509F469C008958533910509F455C092
:1025900089339105B9F00895833E910569F138F4C6
:1025A000803E9105B1F0823E910509F10895863E85
:1025B0009105A9F1873E9105B9F1843E910509F095
:1025C00064C023C02091570220FD4FC021FD4DC0A3
:1025D00008958091570280FD44C08091580280FF89
:1025E00044C08091570284FD42C083EE4DC080916B
:1025F000570282FF38C0F5CF8091570282FD33C069
:102600008091580280FD31C0ECCF8091580281FF4B
:1026100032C08091570284FD2AC087EE35C0809178
:10262000570283FF26C0F5CF8091570283FD21C05A
:102630008091580281FD1FC0ECCF8091570285FD2B
:102640001CC01DC08091570285FD19C016C0809125
:10265000570286FD16C017C08091570286FD13C031
:1026600010C089E311C082EE0FC080EE0DC080E083
:102670000BC086EE09C084EE07C089E205C085E381
:1026800003C08AE201C081E390E00895909157026F
:1026900092FF0DC0282F2871283019F4877F84609D
:1026A00006C0282F2471243011F48B7F886093FF9B
:1026B0000DC0282F2871283119F4877E846106C047
:1026C000282F2471243111F48B7E886120915802C7
:1026D00020FF0DC0382F3871383019F4877F8160A2
:1026E00006C0382F3171313011F48E7F886021FFA0
:1026F0000DC0282F2871283119F4877E816106C00A
:10270000282F2171213111F48E7E886194FD877EFE
:10271000089580E008950E94171008950E9478148B
:102720008FE39CE90197F1F700C000000E94781444
:1027300080E00E94C01380FF04C00E948B130E949F
:10274000012208950E948E1308950E941E10811187
:1027500002C00E94CE100E942A10809300020E94A4
:10276000341090935802809357020E94A2130E9443
:102770002F100E94FC0A8091A8010E94110B08955D
:10278000E82FF0E0E55AFD4F80810895089580EA32
:102790008A95F1F7089500C008950E94C71308951F
:1027A00008950E94D01308950E94D11308950E94A5
:1027B000D01308950E94D7130895F894E82FE29556
:1027C000EF70F0E031A1282F2F7081E090E001C080
:1027D000880F2A95EAF7982F9095932391A392A1B9
:1027E000892B82A378940895CF93DF9385E30E9489
:1027F000DD1384E30E94DD13C0E8D1E089918F3FAF
:1028000011F00E94DD1381E0C538D807B9F7DF91D8
:10281000CF910895A0E0B0E0E0E1F4E10C94D32979
:102820008C01C62FD0E0CE018B579E4F7C01FC015E
:1028300090819F3F09F447C0D62EF894E92FE29586
:10284000EF70F0E081A19F7021E030E001C0220F25
:102850009A95EAF7822B81A382A12095282322A3AF
:1028600078940E94CB13E0E8F1E045E851E031E0D4
:10287000C12C21912F3F89F0A22FA295AF70B0E01B
:1028800090968C9190E02F7002C0959587952A952F
:10289000E2F780FD02C0832F01C080E0C82A330F19
:1028A0004E175F0731F7F70180818F3F11F00E94CB
:1028B000DD1361E0C11001C060E08D2D0E94CD13D9
:1028C000C00FD11FC882CDB7DEB7E8E00C94EF2966
:1028D0000E94F41310925C0210925B0210925A0252
:1028E0001092590282E00E94AE140E94470508959A
:1028F000A2E0B0E0EEE7F4E10C94D8291A82198244
:1029000060E0CE0101960E940A1461E0CE010196BA
:102910000E940A1442E050E0BE016F5F7F4F89E5DC
:1029200092E00E94092A11E0009709F410E0892B37
:1029300031F089819A8190935A0280935902212F14
:1029400042E06BE572E089E592E00E94AF140E94DC
:102950004A05812F2296E3E00C94F4290895FF9212
:102960000F931F93CF93DF938C01F62ED72FC42F95
:10297000222349F081E0809303020E94B4219093C6
:10298000020280930102809103028823C1F08091AA
:102990000102909102020E94CC21059780F0EF2D58
:1029A000FD2FD8014C2F50E0CD01801B910B8417D7
:1029B00095071CF48D918193F7CF10920302CDB748
:1029C000DEB7E5E00C94F2290E94EA230E9415117B
:1029D0000E94F72308950E94FC230E948C110E94FC
:1029E000162408950E944B210E94D0230E940211B8
:1029F0000E94E4140E94EB140E940B11FBCF809103
:102A00000A0280FF06C06091070170E0660F771F21
:102A100026C081FF04C06091070184E005C082FFE9
:102A200007C06091070188E0689FB001112417C0BA
:102A3000909109029923D1F060910601961788F7C9
:102A40002091070188E0289F90011124929FA00106
:102A5000939F500D112470E0CA010E94A82960388C
:102A6000710540F46115710519F406C068E070E065
:102A7000862F08958FE7089581E0089580910A02D6
:102A800080FF08C06091030170E0759567957595AA
:102A9000679521C081FF06C06091030170E07595C4
:102AA000679519C082FF04C06091030170E010C0F7
:102AB00090910802992399F0609102019617A0F76E
:102AC00080910301899FC001112470E00E94A82910
:102AD0006038710540F46115710519F406C061E0B4
:102AE00070E0862F08958FE7089581E00895803F74
:102AF00021F40E94FF14819504C0813F29F40E94B3
:102B0000FF1480930E020895823F21F40E94FF1467
:102B1000819504C0833F29F40E94FF1480930D0225
:102B20000895893F19F40E943E1505C08A3F31F48B
:102B30000E943E15819580930F0208958B3F21F4EA
:102B40000E943E15819504C08C3F29F40E943E15D9
:102B50008093100208959CE0980F953078F421E05E
:102B600030E0A90102C0440F551F9A95E2F7CA014F
:102B700090910C02892B80930C0208958D3F21F4D3
:102B800080910A0281600BC08E3F21F480910A027D
:102B9000826005C08F3F29F480910A02846080938F
:102BA0000A020895803F39F490910E0297FF35C0D4
:102BB00010920E0259C0813F29F490910E0219160D
:102BC000BCF32BC090910D02823F29F497FF25C0E2
:102BD00010920D0249C0833F19F41916CCF31DC0A1
:102BE00090910F02893F29F41916BCF410920F023C
:102BF0003BC08A3F19F497FF10C0F8CF8B3F39F4E0
:102C00009091100297FF09C0109210022DC08C3FC6
:102C100021F4909110021916BCF39CE0980F9530A6
:102C200080F421E030E0A90102C0440F551F9A95BD
:102C3000E2F7CA01809590910C02892380930C02DF
:102C400013C08D3F21F480910A028E7F0BC08E3F0E
:102C500021F480910A028D7F05C08F3F29F4809175
:102C60000A028B7F80930A0280910D02811106C0B7
:102C700080910E02811102C01092090280910F0210
:102C8000811106C080911002811102C010920802C9
:102C900008950E94B42120910D02211104C02091B9
:102CA0000E02222321F090930702809306022091C6
:102CB0000F02211104C020911002222321F09093D1
:102CC0000502809304028BE092E00E947220089536
:102CD000EBE0F2E086E0DF011D928A95E9F71092C1
:102CE00009021092080210920A020895FC018281E2
:102CF00081110DC0838181110AC08481811107C0B7
:102D000091E08581811101C090E0892F01C081E0AF
:102D100081700895A6E0B0E0E0E9F6E10C94D829CE
:102D200086E0EBE0F2E0DE01119601900D928A95CB
:102D3000E1F710920D0210920E0210920F02109203
:102D400010028B81811104C08C81882309F45FC03B
:102D500080910602909107020E94CC21AC019091D3
:102D60000902992339F02091080130E02417350732
:102D700058F04DC0209109018AE0289F900111244C
:102D80002417350718F043C09F3F19F09F5F9093B9
:102D900009021B81112361F00E94FF14111614F027
:102DA0009FEF01C091E0989F902D112490930D0208
:102DB0001C81112361F00E94FF14111614F09FEF83
:102DC00001C091E0989F902D112490930E023091B4
:102DD0000D023323E1F020910E022223C1F045EBD6
:102DE0003403C0011124992319F090930D0203C0FC
:102DF00081E080930D0235EB2303C0011124992358
:102E000019F090930E0203C081E080930E028D8131
:102E1000811104C08E81882309F45FC0809104026F
:102E2000909105020E94CC21AC0190910802992357
:102E300039F02091040130E02417350758F04DC0D7
:102E4000209105018AE0289F90011124241735075D
:102E500018F043C09F3F19F09F5F909308021D81B7
:102E6000112361F00E943E15111614F09FEF01C06E
:102E700091E0989F902D112490930F021E811123B1
:102E800061F00E943E15111614F09FEF01C091E011
:102E9000989F902D11249093100230910F023323AC
:102EA000E1F0209110022223C1F045EB3403C00170
:102EB0001124992319F090930F0203C081E08093AD
:102EC0000F0235EB2303C0011124992319F09093CD
:102ED000100203C081E080931002BE016F5F7F4F3C
:102EE0008BE092E00E94FB20811105C08BE092E014
:102EF0000E94761681110E94491686E0FE013196E5
:102F0000ABE0B2E001900D928A95E1F72696E3E0FE
:102F10000C94F42983E290E00E94162A823281F414
:102F200084E290E00E94162A883051F485E290E015
:102F30000E94162A91E0823109F090E0892F01C0A9
:102F400080E081700895CF93C82F811102C06FEF88
:102F500001C062E283E290E00E94242AC11102C013
:102F60006FEF01C068E084E290E00E94242AC11162
:102F700002C06FEF01C062E185E290E00E94242A66
:102F8000CF910895089586E290E00E94162A682F56
:102F900070E080E090E008950895CF93C62F0E94DE
:102FA000CC176C2F86E290E00E94242ACF910895DE
:102FB00080E00E94A31760E070E0CB010E94CD1773
:102FC0000E94461D0E94121E81E00E94A3170895D0
:102FD0000E94C2170E94C3170E94CC170E948A1732
:102FE000811102C00E94D8170895CF93FB01C281BE
:102FF000CC23E9F09C0122513F452031310520F4DA
:1030000082510E94221E0CC08031FFE59F0751F4BF
:1030100081E00E94280B43E062E081E00E943D05D0
:10302000C0E018C081319F45A9F482E0F2CF803121
:10303000EFE59E0711F481E004C081319F4549F41A
:1030400082E00E94340B43E062E081E00E943D0593
:1030500001C0C1E08C2FCF9108952FEFFC01208398
:1030600008951F93CF93DF93EC01162FE8818E2FE5
:1030700090E0FC013197E331F10508F08BC0EE5987
:10308000FF4F0C94BC29198289E047C089818230A6
:1030900081F0833029F08130F9F40E94C0210BC007
:1030A00080E00E94C0138A8381E00E94C0138B835A
:1030B00073C00E94C3179A838B837C836D836CC01B
:1030C0008981823049F46A817B818C819D810E9453
:1030D000C2290E94CD1760C0612FCE010E942D1819
:1030E0005BC04B816A8189810E940A1D9C838D830C
:1030F00053C02C813D813227232732274B816A819F
:1031000089810E942B1D48C00E94461D45C00E9417
:10311000C91D24C00E94CB1D99838A833DC06B8149
:1031200070E089819A81AE014C5F5F4F98278927B3
:1031300098270E94CE1D30C06B8170E089819A81F2
:10314000AE014C5F5F4F9827892798270E94F11D99
:1031500023C00E94121E20C00E94F71C89831CC03D
:103160006B8170E089819A81AE014C5F5F4F982737
:10317000892798270E947B1D0FC06B8170E0898191
:103180009A81AE014C5F5F4F9827892798270E944C
:103190009C1D02C08FEF8883612FCE010E94A02268
:1031A000DF91CF911F910895EF92FF920F931F939C
:1031B000CF93DF93EC017B0164E670E088E70E9427
:1031C0005F1F8C01EC0EFD1ECE15DF0561F017FDB3
:1031D0000AC0FE01849164E670E00E94D41F8C0155
:1031E0002196892B89F30E944C20C801CDB7DEB708
:1031F000E6E00C94F1290895EDE5F2E080E092E03C
:10320000DF019C011D9221503040E1F7F0936204F0
:10321000E09361048FEF9FEF90933D0280933C0217
:1032200008950E94CE040E94FB188093380280FD0E
:1032300002C080E801C080E2809337020E94591FDB
:103240006DE070E080E592E00E94D418892B11F0C7
:1032500080E008958091380263E070E081FD03C052
:103260008DE492E002C08AE492E00E94D418892B97
:1032700079F76DE070E08DE392E00E94D418892B1D
:1032800039F70E94C021DC01CB01805A9541AF4F34
:10329000BF4F80935D0490935E04A0935F04B0934E
:1032A00060040E94FC1881E080933B0280933A0204
:1032B0001092390208952091370236E0839FC001B1
:1032C0001124629F800D911D1124811522E0920727
:1032D00014F080E090E0835A9D4F909362048093B5
:1032E00061040895209161043091620427553240B1
:1032F00040913702642F70E0C9010E949429481B55
:10330000463010F4240F311D211582E0380710F0EB
:1033100020E030E0235A3D4F309362042093610453
:1033200008951F93CF93DF93162F8A3011F481E015
:1033300003C08D3021F480E00E94091A66C0C0915C
:103340006104D091620496E0FE01A1E1B2E0019037
:103350000D929A95E1F7803E30F086E0FE011192E1
:103360008A95E9F70BC0F6E08F9FB0011124635AEC
:103370007D4F46E050E0CE010E94002A111135C079
:10338000C0916104D091620446E050E0BE0181E149
:1033900092E00E94092A892BB1F1CD55D2409E01BD
:1033A00085E0369527958A95E1F781E090E0AC01BC
:1033B00002C0440F551F2A95E2F720913C0230913C
:1033C0003D02242B352B259645E0D695C7954A9589
:1033D000E1F702C0880F991FCA95E2F7822B932B61
:1033E00090933D0280933C020EC0E0916104F09105
:1033F00062049F012A5F3F4F2E173F0709F2808129
:1034000080958193F9CF0E947219DF91CF911F911E
:103410000895CF93E82F20916104309162042D55D7
:10342000324040913702642F70E0C9010E94942914
:10343000481B842FEE2359F066E00E948829C82F8C
:10344000C150B0F060E080E20E949119F9CFA9016B
:10345000480F511D4115524018F080E020E030E047
:10346000280F311D235A3D4F30936204209361048D
:10347000CF9108951F93CF93DF93EC01162FFE0198
:103480008491882329F0612F0E9491192196F7CF0A
:10349000DF91CF911F9108950E943A1A81E00E9416
:1034A000091A089580913B028823F9F00E94C021F7
:1034B000DC01CB01805A9541AF4FBF4F80935D0433
:1034C00090935E04A0935F04B093600480913A02ED
:1034D00081110BC062E070E08BE392E00E94D4188F
:1034E000892B19F481E080933A0280913A02089581
:1034F000A0E0B0E0EEE7FAE10C94CD2980913B0228
:10350000882309F4DEC020913C0230913D02211550
:10351000310509F4D6C0809139028111D2C061E031
:1035200070E0082F10E03B01082E02C0660C771CEB
:103530000A94E2F7A90146215721452B11F48F5F28
:10354000F0CF90913802980165E0220F331F6A9501
:10355000E1F790FD12C08295880F807680930C0170
:10356000220F232F221F330B319520930F01815EF1
:1035700080930D011092100112C045E036952795F9
:103580004A95E1F7220F220F220F20930C0110928F
:103590000F01295F20930D0183E08093100124E641
:1035A00030E047E050E06AE071E088E70E940420E4
:1035B000892B09F086C08091380280FD23C0A801C4
:1035C00095E0440F551F9A95E1F7435A5D4F04E685
:1035D00010E020E230E060E488E70E942520892B9B
:1035E00009F06FC00E94521AE301C095D0958091F6
:1035F0003C0290913D02C823D923D0933D02C09351
:103600003C025FC080E2E7E1F2E0DF011D928A95B3
:10361000E9F785E0000F111F8A95E1F7ABE8B1E00B
:1036200047E851E0992493942D91EA018991AE01E4
:10363000B801680F711D635A7D4F30E0295E3D4F20
:10364000F90197E07F01E21AF30AA92C01C0AA0C44
:10365000EA94EAF77B01B12CE70189917E018A2186
:10366000892E8B18D82DD770CD2E0D2E000CDD088D
:10367000C82F01C0CC0FDA95EAF78C2ED194C194F3
:10368000D108D7E0CD22DD240C2C01C086950A9408
:10369000EAF78C2BD0808D298083B39488E0B81210
:1036A000DBCF915031969F3F69F6C1E0AF38BC0740
:1036B00009F0BACF04E610E020E230E047E152E042
:1036C0008ACFCDB7DEB7EEE00C94E92980913B02BA
:1036D00090913A02882389F0992369F062E070E0C2
:1036E00089E392E00E94D418892B19F080913A0264
:1036F000089510923A0290913A0281E08927089544
:103700000E94A50408950F931F9380913B02882384
:1037100019F160E080E00E945B190E94801B0E940A
:10372000781A80913A028823B9F00E94C021009152
:103730005D0410915E0420915F0430916004DC010F
:10374000CB01801B910BA20BB30B8F3F9F4FAF4F51
:10375000BF4710F40E94661B1F910F910895CF93ED
:10376000DF93EC01FB018281882309F43CC1C33063
:10377000FDE5DF0760F4CA3F9CE5D90788F49E01A8
:1037800022503C452431310508F02EC109C0C13614
:10379000EDE5DE0729F0C53AFDE5DF0709F024C1B4
:1037A0000E9434109093580280935702C1318CE5E7
:1037B000D80709F4C6C008F042C0C930ECE5DE07FE
:1037C00009F49BC000F5C5308CE5D80709F485C025
:1037D00078F4C330ECE5DE0709F478C008F07AC06D
:1037E000C230DC4509F0F5C0809157028160EFC01E
:1037F000C7309CE5D90709F478C008F07AC08091F9
:1038000057028061E4C0CD30FCE5DF0709F487C0D2
:1038100058F4CB309CE5D90709F479C008F07BC097
:103820008091570288606FC0CF30FCE5DF0709F454
:1038300080C008F082C080915702877FC8C0CD3F0A
:103840009CE5D90709F471C000F5C531FCE5DF0737
:1038500009F485C068F4C3319CE5D90709F475C043
:1038600008F095C00E94B10A809157028F77AFC0CF
:10387000CB3FFCE5DF07A9F108F054C0CA3FDC45A7
:1038800009F0A7C08091580240C0C130EDE5DE07C5
:1038900009F489C058F4CF3F8CE5D80709F45AC021
:1038A00008F069C08091580282602FC0C136EDE5F2
:1038B000DE0709F47CC0C53AFDE5DF0709F481C0E5
:1038C000C230DD4509F085C080E06EC080915702AE
:1038D00082607DC08091570216C080915702886037
:1038E00076C08091580282604FC0809157028062FA
:1038F0006EC08091570280646AC00E94B10A8091B4
:103900005702806864C0846062C081603DC080915D
:1039100057028E7F5CC0809157028D7F58C0809186
:10392000570216C08091580218C0809158028D7FAE
:103930002BC0809157028F7E4AC0809157028F7DA5
:1039400046C0809157028F7B42C080915702877F8B
:103950008B7F3DC0809158028D7F8E7F15C08091F6
:10396000570282FB222720F991E0922790FB82F9EF
:1039700090FB83F92CC080915802982F90959170FC
:103980008E7F892B90FB81F98093580222C00E9480
:10399000B10A8091570287FB222720F991E09227F4
:1039A00090FB87F914C081E00E94D11012C0809171
:1039B000570284FB222720F991E0922790FB84F99B
:1039C00006C080915702982F909590FB80F98093C4
:1039D000570280915702909158020E9445100E9410
:1039E000B10A80E001C081E0DF91CF91089584E0C9
:1039F000089550E0440F551F2AE0629F400D511D6D
:103A000011249A0164E1869F200D311D1124C90102
:103A1000879608950F931F93CF93DF938430A0F47C
:103A2000623090F4453080F40E94F91C8C010E94B1
:103A3000162A90E0D82FCC27C80101960E94162A9A
:103A40009E01282BC90102C080E090E0DF91CF9158
:103A50001F910F9108950F931F93CF93DF9384309D
:103A600080F4623070F4453060F4E9010E94F91C82
:103A70008C016D2F0E94242A6C2FC80101960E9490
:103A8000242ADF91CF911F910F910895A0E0B0E01B
:103A9000ECE4FDE10C94D129A12CE12CF12CB12C0A
:103AA00000E010E0C0E0D0E06701C00ED11EFE01D2
:103AB000EE0FFF1FEC0DFD1DE75CFE4F25913491CD
:103AC0004C2F6B2D8A2D0E942B1D2196C530D105C0
:103AD00071F7065F1F4FB39482E0B812E3CF84E121
:103AE000E80EF11CA39484E0A812D9CFCDB7DEB7BD
:103AF000EAE00C94ED29EF92FF920F931F93CF937E
:103B0000DF93EA017A01E60EF71E8C01C801879661
:103B1000CE15DF0561F00035110520F40E94162A4C
:103B2000888301C0188221960F5F1F4FEFCFCDB75A
:103B3000DEB7E6E00C94F129EF92FF920F931F930A
:103B4000CF93DF93EA017A01E60EF71E8C01C801DC
:103B50008796CE15DF0551F00035110518F4688100
:103B60000E94242A21960F5F1F4FF1CFCDB7DEB7F9
:103B7000E6E00C94F129843048F4723038F4653072
:103B800028F4462F672F0E940A1D089580E090E0D8
:103B9000089580E1089589E893E00895EF92FF92F7
:103BA0000F931F93CF93DF93EA017A01E60EF71E7E
:103BB0008C01C80189589F4FCE15DF0569F009387F
:103BC00023E0120720F40E94162A888301C018827D
:103BD00021960F5F1F4FEDCFCDB7DEB7E6E00C9417
:103BE000F129EF92FF920F931F93CF93DF93EA0196
:103BF0007A01E60EF71E8C01C80189589F4FCE1539
:103C0000DF0559F0093823E0120718F468810E9493
:103C1000242A21960F5F1F4FEFCFCDB7DEB7E6E026
:103C20000C94F129CF93DF93C7E7D0E060E0CE0199
:103C30000E94242A2196C11584E0D807B9F7DF91A4
:103C4000CF910895A4E0B0E0E8E2FEE10C94D4291D
:103C5000F82E8FE08F15E8F18FEF93E00E94162A7F
:103C6000811137C007E710E0FF2069F0011584E0FB
:103C7000180779F1C8010E94162A811101C0FA942F
:103C80000F5F1F4FF1CF19821A821B821C82DD2425
:103C9000D39478018FEFE81AF80AC8010E94162A17
:103CA00089831A828823A9F09FEF980F933058F4E4
:103CB0008A83D9820E5F1F4FC7010E94162A8B8309
:103CC000882339F07801CE0101960E94920687017F
:103CD000E0CF2496E7E00C94F029CF93DF93863170
:103CE0009C4541F5EB010E942D0F982F8A81209170
:103CF000000130910101882379F09A7A81E009F47A
:103D000080E080933E02911102C069E201C065E348
:103D1000C9010E94EE200AC080913E02811102C0BA
:103D200069E201C065E3C9010E94F1200E94710FA0
:103D300080E001C081E0DF91CF9108950F931F9340
:103D4000CF93DF93C42FD22FFC0182818823B1F05F
:103D5000409341020E94B4219093400280933F021D
:103D600080E28C0F883008F04DC0C77081E001C040
:103D7000880FCA95EAF70E944E0844C0809141021C
:103D8000481330C080913F02909140020E94CC21A4
:103D9000883C910538F510E21D0FCD17B9F080E28F
:103DA0008C0F883040F4C77081E001C0880FCA953D
:103DB000EAF70E945508183010F581E09D2F9770A2
:103DC00001C0880F9A95EAF70E944E08802F0E9442
:103DD00044081830B8F4D77081E001C0880FDA9534
:103DE000EAF70AC080E28C0F883060F4C77081E087
:103DF00001C0880FCA95EAF70E94550803C0802FBA
:103E00000E944408DF91CF911F910F9108950F9365
:103E10009C01CB01233F4CE5340731F188F4283D68
:103E2000FCE53F07D9F0293D4CE5340779F1273D02
:103E30003C45A9F506E221EE41EE67ED7CE52BC09D
:103E4000253FFCE53F07E1F0A8F0263F3C4539F56A
:103E500007E225EE46EE66EF7CE51DC007E225EEA3
:103E600045EE68ED7CE517C006E221EE40EE63EF1B
:103E70007CE511C007E225EE44EE64EF7CE50BC063
:103E800006E221EE42EE65EF7CE505C008E221E0A6
:103E900045EE69ED7CE50E949E1E80E008C0FC01B5
:103EA0008281882319F01092410201C081E00F91B4
:103EB00008951092B9008CE08093B8000895A0E0B6
:103EC000B0E0E5E6FFE10C94D029B82EEB010E94AA
:103ED000B4216C01C431D10558F0CF3F8FEFD80722
:103EE00059F0CE0164E170E00E9494297B0107C083
:103EF000EE24E394F12C03C025E0E22EF12C84E8BB
:103F0000A82E94EA992E1092BC009092BC000E94B8
:103F1000B4218C018091BC0087FD08C00E94B421AF
:103F2000801B910B8E159F05A8F32AC08091B900C4
:103F3000887F883041F08091B900887F803119F006
:103F40000FEF1FEF1FC0B092BB00A092BC000E94F9
:103F5000B4218C018091BC0087FD08C00E94B4216F
:103F6000801B910B8E159F05A8F30AC08091B900A4
:103F7000887F883111F0803419F700E010E00EC01E
:103F80000EEF1FEFCF3F8FEFD80709F4BCCFC6016C
:103F90000E94CC218C179D0708F4B5CFC801CDB77E
:103FA000DEB7EBE00C94EC290F931F93CF93DF93D4
:103FB000EB018093BB0084E88093BC000E94B42195
:103FC0008C018091BC0087FD0EC0CF3F8FEFD807DA
:103FD000C1F30E94B421801B910B8C179D0788F3BD
:103FE0008EEF9FEF0CC02091B900287F81E090E018
:103FF000283211F480E090E0919581959109DF914C
:10400000CF911F910F910895A0E0B0E0EAE0F0E2B7
:104010000C94D3296B018A017901B9010E945F1FB9
:10402000E6010C0D1D1DC017D10741F424E92093B2
:10403000BC00CDB7DEB7E8E00C94EF2997FDF6CFD2
:10404000B70189910E94D41FEECFA0E0B0E0EBE26F
:10405000F0E20C94D329C62F6A017901B8010E94BD
:104060005F1F97FD11C0B8018C2F0E94D41FE6017D
:10407000EC0CFD1CCE15DF0539F097FD05C0B8012D
:1040800089910E94D41FF6CF24E92093BC00CDB7BC
:10409000DEB7E8E00C94EF2984E98093BC00089532
:1040A00090939F0180939E0108959093470280937F
:1040B00046020895E0914602F0914702309729F0B8
:1040C0000190F081E02D0995089580E00895E09138
:1040D0004602F0914702309721F00280F381E02DF3
:1040E00009950895E0914602F0914702309739F022
:1040F00022E0DC012C930480F581E02D09950895E0
:1041000020914402309145022817390771F09093AD
:10411000450280934402E0914602F09147023097B5
:1041200021F00680F781E02D099508952091420243
:10413000309143022817390771F09093430280931E
:104140004202E0914602F0914702309721F000844C
:10415000F185E02D09950895FC01329697E080E005
:10416000915029F021912223D9F38F5FF9CF08953F
:10417000662349F0FC01329608962191621729F0D6
:10418000E817F907D1F780E0089581E008959C01D0
:10419000FC0132969FEF80E04191461789F09F3FE6
:1041A00019F4411101C0982F8F5F8630A9F79F3F06
:1041B00039F0F901E90FF11D97FDFA956283089531
:1041C00008959C012A5F3F4FFC014281461301C0C4
:1041D0001282019682179307B9F708950E94C720AB
:1041E00008950E94E1200895029626E0FC011192B4
:1041F0002A95E9F7089546E050E00E94092A21E057
:10420000892B09F420E0822F089508950E9405214A
:10421000089583E0809348020E9406210895811149
:1042200002C081E001C082E0809348020E94062122
:1042300008950E940F21089581E0809348020E9412
:10424000062108950E941C21089508950E942521A9
:1042500008950E94262108950E94252108950E9414
:10426000252108950E94252108950E942F210E9452
:1042700078140E942C2180E00E94C013811108C094
:1042800081E00E94C01391E0811103C090E001C061
:1042900091E0892F089585B7806885BF85B78068CC
:1042A00085BF08951F920F920FB60F9211248F931E
:1042B0009F93AF93BF9380914902811113C0809166
:1042C000630490916404A0916504B09166044196E2
:1042D000A11DB11D8093630490936404A0936504B1
:1042E000B0936604BF91AF919F918F910F900FBED5
:1042F0000F901F90189580916B04843031F10E94CB
:10430000C2051092490220E488E190E00FB6F894CB
:10431000A895809360000FBE2093600083B7817FD3
:10432000846083BF83B7816083BF7894889583B7A7
:104330008E7F83BF0FB6F894A89580916000886146
:1043400080936000109260000FBE08950E94B10A31
:104350000E94C905089582E084BD93E095BD9AEF5F
:1043600097BD80936E0008952FB7F89480916304F1
:1043700090916404A0916504B09166042FBF0895E4
:104380002FB7F89460916304709164048091650480
:10439000909166042FBF08959C014FB7F8948091C7
:1043A000630490916404A0916504B09166044FBFCA
:1043B000821B930B089578941F920F920FB60F9261
:1043C00011248F939F93AF93BF9380916304909137
:1043D0006404A0916504B09166040196A11DB11D0D
:1043E0008093630490936404A0936504B09366047F
:1043F000BF91AF919F918F910F900FBE0F901F9023
:10440000189587E797E790930108809300089AE052
:1044100088E10FB6F894A895809360000FBE909342
:104420006000FFCF9AE088E10FB6F894A8958093DA
:1044300060000FBE90936000FFCF809155020895F9
:10444000089524E02093E9002FEF3091E8002150F7
:1044500035FD06C035ED3A95F1F700002111F5CF95
:104460002091E80025FF0BC040E050E066E070E0DE
:104470000E94B5248091E8008E778093E80008952B
:10448000CF93DF9321E02093E9002FEF3091E800F4
:10449000215035FD06C035ED3A95F1F700002111A8
:1044A000F5CF2091E80025FF14C0EC0140E050E07A
:1044B00068E070E00E94B5248091E8008E778093D8
:1044C000E80088E0FE01ADE4B2E001900D928A952B
:1044D000E1F7DF91CF91089580934A0270934C02E7
:1044E00060934B0280916B048430F9F48093E9006F
:1044F0008FEF9091E800815095FD06C095ED9A955B
:10450000F1F700008111F5CF8091E80085FF0DC023
:1045100040E050E063E070E08AE492E00E94B5245D
:104520008091E8008E778093E8000895BC0184E0D4
:104530000E946C220895BC0183E00E946C220895C1
:10454000CF93603219F520916B042430F9F4C091B7
:10455000E900CF703091EC00232F217030FD20E86E
:10456000C22B22E02093E9002091E80020FF0BC03D
:1045700040E050E060E270E00E94B5248091E800E5
:104580008E778093E800CF70C093E900CF910895B3
:1045900080916A04811109C00E9485260E94E2264A
:1045A0008091E20084608093E200089510926A0492
:1045B00008950E94222108956091670481E06111AD
:1045C00001C080E00E940921089590916B0481E070
:1045D000943009F080E0609167040E940F210895F3
:1045E00042E061EC81E00E94FE2542E261EC84E061
:1045F0000E94FE2542E261EC82E00E94FE2542E23A
:1046000060EC83E00E94FE2590916B0481E0943081
:1046100009F080E0609167040E941921089580915B
:104620006D04833009F463C030F4813071F082305E
:1046300009F49DC008958A3009F489C08B3009F4CB
:104640006EC0893009F0ABC020C080916C04813A03
:1046500009F0A5C08091E800877F8093E8008091F1
:10466000700490917104892B21F468E08DE492E04C
:1046700003C060E080E090E070E00E943F25809100
:10468000E8008B778093E800089580916C04813274
:1046900009F085C08091700490917104009719F021
:1046A000029709F07CC08091E800877F8093E80042
:1046B0008091E80082FD05C080916B048111F8CFE4
:1046C0006EC02091F3008091F20090E0922B02974F
:1046D00031F48091F100813011F0863021F4809125
:1046E000F100809355028091E8008B7754C080914F
:1046F0006C04813A09F053C0809170049091710468
:10470000892B09F04CC08091E800877F8093E800F6
:104710008091E80080FFFCCF80911D0137C080911F
:104720006C048132E1F58091700490917104892BC1
:10473000B1F58091E800877F8093E8000E943326DE
:1047400080916E0480931D010E94B10A08958091AA
:104750006C04813221F58091E800877F8093E80026
:104760000E94332680916F048093560208958091B1
:104770006C04813AA1F48091E800877F8093E8007F
:104780008091E80080FFFCCF809156028093F10079
:104790008091E8008E778093E8000E943326089588
:1047A00084B7877F84BF0FB6F894A8958091600086
:1047B000886180936000109260000FBE90E080E8F6
:1047C0000FB6F89480936100909361000FBE0E9431
:1047D0001C2108950E9485260E94E226E2EEF0E068
:1047E00080818460808378940E946D29089581E19E
:1047F00091E00E945520089580916B048530A9F4C2
:1048000080916B04853079F40E947B21809169044A
:104810008823B1F30E943521882391F30E949F24BD
:104820000E94B10AEDCF0E94A6210895A0E2B0E057
:10483000ECE1F4E20C94D92980916B04843011F5F9
:1048400083E08093E9008091E80082FF1BC08091A3
:10485000E80085FF0AC040E050E060E270E0CE0171
:1048600001960E94FA2491E001C090E08091E80056
:104870008B778093E800992329F060E2CE010196BE
:104880000E943118A096E2E00C94F5290E94492478
:104890000895292F332723303105C9F060F42130E2
:1048A000310581F02230310509F041C08BE590E0FF
:1048B00021EC37E040C021323105E1F022323105F0
:1048C00031F135C082E190E02CE138E034C0992725
:1048D0008130910549F028F0029749F5EDE9F7E0BC
:1048E00005C0EDEBF7E002C0EFEAF7E0849190E05D
:1048F0009F0121C063307105D0F4660F771FFB0163
:10490000E856FE4F2081318189E090E014C0633089
:10491000710568F4FB01EE0FFF1FEE56FE4F20817C
:104920003181FB01E157FE4F808190E004C080E0BF
:1049300090E020E030E0FA0131832083089580E1A7
:1049400089BD82E189BD09B400FEFDCF8091D80008
:104950008F7D8093D8008091E00082608093E0009A
:104960008091E00081FDFCCF0895A0E0B0E0EBEB8A
:10497000F4E20C94D329EC018B017A010E945226B7
:10498000811133C0E114F10439F0F7018081918184
:10499000081B190BC80FD91FC12CD12C01151105EB
:1049A00019F18091E80085FD16C08091E8008E77AE
:1049B0008093E800E114F10449F0F70180819181CE
:1049C000C80ED91ED182C08285E00FC00E94522637
:1049D000882321F30AC089918093F10001501109C5
:1049E000FFEFCF1ADF0ADACF80E0CDB7DEB7E8E01D
:1049F0000C94EF29A0E0B0E0E0E0F5E20C94D329BC
:104A0000EC018B017A010E945226811133C0E1141E
:104A1000F10439F0F70180819181081B190BC80F4F
:104A2000D91FC12CD12C0115110519F18091E80075
:104A300085FD16C08091E8008B778093E800E11433
:104A4000F10449F0F70180819181C80ED91ED1820D
:104A5000C08285E00FC00E945226882321F30AC03D
:104A60008091F100899301501109FFEFCF1ADF0AFD
:104A7000DACF80E0CDB7DEB7E8E00C94EF292091E3
:104A80007204309173042617370748F061157105D9
:104A900039F42091E8002E772093E80001C0B90195
:104AA000FC0120E06115710579F180916B04882388
:104AB000F1F18530F1F18091E80083FD3CC08091F7
:104AC000E80082FD2EC08091E80080FFEBCF2091AE
:104AD000F3008091F20090E0922B6115710551F086
:104AE0008830910538F421912093F10061507109CB
:104AF0000196F3CF21E0089709F020E08091E800CB
:104B00008E778093E800CECF2111CFCF0AC080915D
:104B10006B04882361F0853061F08091E80083FDAB
:104B20000AC08091E80082FFF2CF80E0089582E021
:104B3000089583E0089581E00895209172043091F2
:104B400073042617370748F06115710539F4209171
:104B5000E8002E772093E80001C0B901FC0120E0B5
:104B60006115710591F180916B04882309F440C0AF
:104B7000853009F43FC08091E80083FD3DC08091FD
:104B8000E80082FD2FC08091E80080FFE9CF2091EE
:104B9000F3008091F20090E0922B6115710559F0BD
:104BA0008830910540F424912093F10031966150B2
:104BB00071090196F2CF21E0089709F020E0809179
:104BC000E8008E778093E800CBCF2111CCCF0AC0CC
:104BD00080916B04882361F0853061F08091E8005A
:104BE00083FD0AC08091E80082FFF2CF80E0089543
:104BF00082E0089583E0089581E00895982F97302A
:104C000068F59093E900981739F07091EC002091C5
:104C1000ED005091F00003C0242F762F50E021FDCD
:104C200002C09F5FECCF3091EB003E7F3093EB00F2
:104C30003091ED003D7F3093ED003091EB0031601D
:104C40003093EB007093EC002093ED005093F00054
:104C50002091EE0027FDE5CF80E008958F708093CE
:104C6000E90081E0089580916C0487FF11C0809174
:104C7000E80082FD05C080916B048111F8CF11C05E
:104C80008091E8008B770BC080916B04882349F0FA
:104C90008091E80080FFF8CF8091E8008E778093C4
:104CA000E80008952091E4003091E50095E64091F8
:104CB000EC00842F817040FF23C08091E80080FDCC
:104CC0001DC080916B04882399F0853099F0809104
:104CD000EB0085FD11C04091E4005091E5002417E0
:104CE000350729F3915011F09A01E1CF84E008953E
:104CF00082E0089583E0089581E0089580E00895BA
:104D00004091E80042FFDDCF08950E94F4260E9402
:104D1000FC26E0EEF0E0808181608083E8EDF0E049
:104D200080818F77808319BCA7EDB0E08C918E7F56
:104D30008C9380818F7E808310926A0408950F93F4
:104D40001F93CF93DF930E94F4260E94FC26C8EDA8
:104D5000D0E088818F778883888180688883888184
:104D60008F7D888319BC10926B0410926704109297
:104D700069041092680400EE10E0F80180818B7FD6
:104D8000808388818160888342E060E080E00E94C7
:104D9000FE25E1EEF0E080818E7F8083E2EEF0E0A0
:104DA000808181608083808188608083F801808138
:104DB0008E7F8083888180618883DF91CF911F916E
:104DC0000F910895E8EDF0E080818F7E8083E7ED1C
:104DD000F0E080818160808384E082BF81E0809305
:104DE0006A040E949F260895E8EDF0E080818E7F9E
:104DF00080831092E20008951092DA001092E10090
:104E000008951F920F920FB60F9211242F933F9384
:104E10004F935F936F937F938F939F93AF93BF93C2
:104E2000EF93FF938091E10082FF0BC08091E2003D
:104E300082FF07C08091E1008B7F8093E1000E9498
:104E40006C298091DA0080FF1FC08091D80080FF1C
:104E50001BC08091DA008E7F8093DA008091D900A8
:104E600080FF0DC080E189BD82E189BD09B400FEEB
:104E7000FDCF81E080936B040E94C82205C019BC5D
:104E800010926B040E94D6228091E10080FF19C02D
:104E90008091E20080FF15C08091E2008E7F8093B8
:104EA000E2008091E20080618093E2008091D8006E
:104EB00080628093D80019BC85E080936B040E94C7
:104EC000DC228091E10084FF30C08091E20084FF09
:104ED0002CC080E189BD82E189BD09B400FEFDCF0F
:104EE0008091D8008F7D8093D8008091E1008F7EE3
:104EF0008093E1008091E2008F7E8093E2008091B8
:104F0000E20081608093E20080916704882311F0C1
:104F100084E007C08091E30087FD02C081E001C00A
:104F200083E080936B040E94E5228091E10083FF7F
:104F300029C08091E20083FF25C08091E100877F36
:104F40008093E10082E080936B041092670480916B
:104F5000E1008E7F8093E1008091E2008E7F80935C
:104F6000E2008091E20080618093E20042E060E034
:104F700080E00E94FE258091F00088608093F00020
:104F80000E94D922FF91EF91BF91AF919F918F9194
:104F90007F916F915F914F913F912F910F900FBE35
:104FA0000F901F9018951F920F920FB60F92112419
:104FB0002F933F934F935F936F937F938F939F9321
:104FC000AF93BF93CF93DF93EF93FF93C091E9002B
:104FD000CF708091EC00D82FD17080FDD0E8109276
:104FE000E9008091F000877F8093F00078940E9420
:104FF00017281092E9008091F00088608093F000FB
:10500000CD2BCF70C093E900FF91EF91DF91CF914D
:10501000BF91AF919F918F917F916F915F914F91D0
:105020003F912F910F900FBE0F901F901895AAE2FD
:10503000B0E0EDE1F8E20C94D829ECE6F4E08091E0
:10504000F100819324E0E437F207C9F70E940F23AF
:105050008091E80083FF2EC180916C0490916D04D3
:10506000492F50E04A30510508F024C1FA01EB58AD
:10507000FF4F0C94BC29803821F0823809F01AC106
:1050800008C08091680490916904992389F0826036
:105090000FC0809170048F70873008F00BC180932F
:1050A000E9008091EB0085FB882780F91092E900E8
:1050B0009091E800977F9093E8008093F100109220
:1050C000F100D1C0282F2D7F09F0F4C0882319F0FA
:1050D000823061F0EFC080916E04813009F0EAC047
:1050E000933009F080E0809369042EC080916E04B3
:1050F00081112AC0809170048F702FEF280F263005
:1051000008F0D8C08093E9002091EB0020FF1CC07C
:10511000933021F48091EB00806214C09091EB00F9
:1051200090619093EB0021E030E0A90102C0440FB0
:10513000551F8A95E2F74093EA001092EA008091A9
:10514000EB0088608093EB001092E9008091E8000A
:10515000877F8093E8000E943326ACC08111AAC0EB
:1051600010916E041F778091E3008078812B8093EB
:10517000E3008091E800877F8093E8000E94332657
:105180008091E80080FFFCCF8091E30080688093ED
:10519000E300111102C082E001C083E080936B0440
:1051A00089C08058823008F085C080916E0490914B
:1051B0006F048C3D53E0950779F583E08A838AE29A
:1051C00089834FB7F894DE01139620E03EE051E268
:1051D000E32FF0E050935700E49120FF03C0E295E5
:1051E000EF703F5FEF708E2F90E0EA3010F0C796BF
:1051F00001C0C0968D939D932F5F243149F74FBF17
:105200008091E800877F8093E8006AE270E0CE0139
:1052100001960E943F2516C0609170047091710440
:10522000AE014F5F5F4F0E944624BC01892B09F4F9
:1052300041C09091E800977F9093E80089819A811E
:105240000E949D258091E8008B778093E80032C012
:10525000803881F58091E800877F8093E800809115
:1052600067048093F1008091E8008E7772CF8111FE
:1052700021C080916E0490916F0499270297D4F415
:105280008091E800877F8093E80080916E0480938E
:1052900067040E94332680916704811106C08091C3
:1052A000E30087FD02C081E001C084E080936B04CD
:1052B0000E94F0228091E80083FF0AC08091E800FC
:1052C000877F8093E8008091EB0080628093EB0001
:1052D000AA96E3E00C94F4290895CF9380916B048F
:1052E0008823A1F0C091E900CF709091EC00892F44
:1052F000817090FD80E8C82B1092E9008091E80051
:1053000083FD0E941728CF70C093E900CF910895C4
:10531000991B79E004C0991F961708F0961B881F07
:105320007A95C9F780950895AA1BBB1B51E107C068
:10533000AA1FBB1FA617B70710F0A61BB70B881F25
:10534000991F5A95A9F780959095BC01CD010895B4
:1053500097FB072E16F4009407D077FD09D00E9422
:10536000942907FC05D03EF4909581959F4F0895B0
:10537000709561957F4F0895EE0FFF1F0590F49192
:10538000E02D0994692796276927782787277827AA
:1053900008952F923F924F925F926F927F928F92D9
:1053A0009F92AF92BF92CF92DF92EF92FF920F93B4
:1053B0001F93CF93DF93CDB7DEB7CA1BDB0B0FB6BE
:1053C000F894DEBF0FBECDBF09942A88398848887B
:1053D0005F846E847D848C849B84AA84B984C88411
:1053E000DF80EE80FD800C811B81AA81B981CE0F08
:1053F000D11D0FB6F894DEBF0FBECDBFED010895ED
:10540000FB01DC0102C005900D9241505040D8F7DD
:105410000895FB01DC0104C08D910190801921F4F5
:1054200041505040C8F7881B990B0895F999FECF59
:1054300092BD81BDF89A992780B50895A8E1B0E0A2
:1054400042E050E00C944A2A262FF999FECF92BDF3
:1054500081BDF89A019700B4021639F01FBA20BD39
:105460000FB6F894FA9AF99A0FBE08950396272F6B
:105470000E94252A0E94242A252F0E94252A242FB3
:105480000C94252A0196272F0E94252A0C94242A61
:10549000DC01CB01FC01F999FECF06C0F2BDE1BDF4
:1054A000F89A319600B40D9241505040B8F70895E3
:0454B000F894FFCF9E
:1054B400EC01280850011E0A14010021007F22007B
:1054C400031D22402221229B229622202201E20057
:1054D400E900EA00B500B600B700CD008301CC00B6
:1054E4008A01920194012102230224022502260248
:1054F40027022A02B300B4006F007000818283E2A5
:1055040000E900EA00B500B600B700CD008301CC85
:10551400008A019201940121022302240225022619
:105524000227022A02B300B4006F00700081828354
:10553400F73133323635340008101818100800409B
:0E554400227BCB082E085008D307EC070C087A
:00000001FF
