:100000000C9418040C9450040C9450040C94500458
:100010000C9450040C9450040C9450040C94500410
:100020000C9450040C9450040C94AC220C94EE21CB
:100030000C94A7130C9450040C9450040C9450048A
:100040000C9450040C9450040C9450040C945004E0
:100050000C948E150C9466130C9450040C9450045C
:100060000C9450040C9450040C9450040C945004C0
:100070000C9450040C9450040C9450040C945004B0
:100080000C9450040C9450040C9450040C945004A0
:100090000C9450040C9450040C9450040C94500490
:1000A0000C9450040C9450040C945004D908D908B2
:1000B0000C090C097F099D09AB0AAB0AA8091C0AA7
:1000C0002D0A2D0AD00AD20ADA0A100B290BEA0AE5
:1000D000440B0F101210381045104C1057105A10C6
:1000E000B710F1109A119A110011021106112C117A
:1000F0004F1152115511791106202D20D6212D2096
:10010000D62179209C20D6219121A1210000000038
:1001100000000000000000000000000000000000DF
:1001200000000000000000000000000000000000CF
:100130007E0F00D4FFFFFFC7000000780000000022
:10014000000000002A2B2800000000000000000032
:100150000000000000000029000000002C1E3420D8
:10016000212224342627252E362D3738271E1F20FE
:100170002122232425263333362E37381F04050643
:100180000708090A0B0C0D0E0F1011121314151687
:100190001718191A1B1C1D2F3130232D3504050685
:1001A0000708090A0B0C0D0E0F1011121314151667
:1001B0001718191A1B1C1D2F3130354C00047F3FB6
:1001C0001F643214643214783C1E1E140A05222364
:1001D000252628292A2C2D2F3032333536383A3B24
:1001E0003D3E4042434547494A4C4E505153555776
:1001F000595A5C5E6062646668696B6D6F71737595
:1002000077797B7D7F81838587898A8C8E90929494
:1002100096989A9C9E9FA1A3A5A7A8AAACAEAFB1A1
:10022000B3B4B6B8B9BBBCBEBFC1C2C3C5C6C7C9EB
:10023000CACBCCCDCED0D1D2D2D3D4D5D6D7D7D8A5
:10024000D9D9DADADBDBDBDCDCDCDCDCDDDDDDDDF7
:10025000DCDCDCDCDCDBDBDBDADAD9D9D8D7D7D6FF
:10026000D5D4D3D2D2D1D0CECDCCCBCAC9C7C6C5B6
:10027000C3C2C1BFBEBCBBB9B8B6B4B3B1AFAEACFC
:10028000AAA8A7A5A3A19F9E9C9A98969492908EA7
:100290008C8A89878583817F7D7B79777573716F80
:1002A0006D6B6968666462605E5C5A59575553515C
:1002B000504E4C4A4947454342403E3D3B3A383612
:1002C000353332302F2D2C2A2928262523220000D1
:1002D0000000000000000000000101020304050608
:1002E000080A0C0F1114181C2024292E33393F46FC
:1002F0004C535B626A7179818A929AA2AAB2B9C19F
:10030000C8CFD5DCE1E7EBF0F4F7FAFCFDFEFFFE29
:10031000FDFCFAF7F4F0EBE7E1DCD5CFC8C1B9B2E8
:10032000AAA29A928A8179716A625B534C463F39DC
:10033000332E2924201C1814110F0C0A080605045A
:10034000030201010000000000000000000029007D
:100350003A003B003C003D003E003F0040004100B1
:1003600035001E001F002000210022002300240071
:1003700025002B0014001A000800150017001C00AF
:1003800018000C00390004001600070009000A00DC
:100390000B000D000E00E10000001D001B00060018
:1003A0001900050011001000E000E300E200E40085
:1003B000E70000002C00E6000000000048004700B5
:1003C00001514500440046004300420027004B0015
:1003D0004A002A0000002E0049002D0026000000DF
:1003E0004E004D00280030002F004C00130012007A
:1003F0000000000052000000310034000000330013
:100400000F0000004F0051000000E50038005000D0
:100410003700360001000100010001000100010069
:10042000010001000100C35CC25C01000100010089
:1004300001000100010001000100010001000100B4
:10044000005C0100010001000100BF5C010001002F
:100450000100010001000100010001000100000095
:100460000100010001000100010001000100010084
:100470000100010001000100000001000100000076
:100480000000010001000100010001000100010065
:100490000100010001000100010000000100010055
:1004A0000100010000000100010001000100010045
:1004B0000100010001000000000001000000010037
:1004C0000100000001000100000001000100000027
:1004D0000100010001000100010001000100010014
:1004E0000100010001000100010001000100010004
:1004F00001000100010001000100010001000100F4
:1005000001000100010001000100010001000100E3
:1005100001000100010001000100010001000100D3
:1005200001000100000001000100010001000100C4
:1005300001000100010001000100010001000000B4
:1005400001000100000000000100010001000100A5
:100550000100010001000100010001000100010093
:100560000000010001000100010000000100010085
:100570000100010001000100010001000000000075
:100580000100000001000100000001000100000066
:100590000100010000000100010001000100010054
:1005A00005010902A10185020901A100050919013E
:1005B00029081500250195087501810205010930FA
:1005C00009311581257F9502750881060938158145
:1005D000257F950175088106050C0A3802158125CD
:1005E0007F950175088106C0C005010980A10185BC
:1005F0000319012AB700150126B70095017510816E
:1006000000C0050C0901A101850419012AA00215E9
:100610000126A002950175108100C00660FF0961E6
:10062000A1010962150026FF0095207508810209C5
:1006300063150026FF00952075089102C005010989
:1006400006A101050719E029E715002501950875A0
:100650000181029501750881010507190029FF151F
:100660000026FF0095067508810005081901290577
:10067000950575019102950175039101C009025B11
:1006800000030100A0FA09040000010301010009B0
:100690002111010001224000070581030800010922
:1006A00004010002030000000921110100012222BF
:1006B000000705820320000107050303200001094C
:1006C0000402000103000000092111010001227B46
:1006D0000007058403200001120100020000000849
:1006E000584552E80100010200012403450038008A
:1006F0002E003500200053006F006C006400650080
:1007000072006500640020005000430042000000B9
:1007100014034500780063006C00750073006900E5
:1007200076006500000004030904000101010101D5
:10073000010101010202020202020202020303039A
:10074000030303030304040404040404050505056A
:10075000050606060606070707070708080808092A
:100760000909090A0A0A0B0B0B0C0C0C0D0D0D0ED6
:100770000E0E0F0F0F10101111111212131314146B
:10078000151516161717181819191A1A1B1B1C1DE0
:100790001D1E1E1F20202122222324242526262739
:1007A0002829292A2B2C2D2D2E2F3031323233346B
:1007B00035363738393A3B3C3D3E3F404142434471
:1007C00045464748494A4C4D4E4F50515354555653
:1007D00058595A5B5D5E5F616264656668696B6CFF
:1007E0006D6F7072737577787A7B7D7E808283857A
:1007F00087888A8C8E8F91939596989A9C9EA0A2BA
:10080000A3A5A7A9ABADAFB1B3B5B7BABCBEC0C2C3
:10081000C4C6C9CBCDCFD1D4D6D8DBDDDFE2E4E787
:10082000E9EBEEF0F3F5F8FAFDFFFFAA7F55400083
:1008300011241FBECFEFDAE0DEBFCDBF04B603FE4A
:1008400018C08091D9029091DA02A091DB02B09198
:10085000DC028730904BA740B04B59F41092D9027C
:100860001092DA021092DB021092DC02E0E0F8E370
:10087000099511E0A0E0B1E0EAE8F5E502C00590D5
:100880000D92A639B107D9F722E0A6E9B1E001C07F
:100890001D92A93DB207E1F70E94290C0C94C32ACE
:1008A0000C9400000E9435282FEF84E39CE0215037
:1008B00080409040E1F700C000009CE088E10FB666
:1008C000F894A895809360000FBE90936000FFCFCE
:1008D000A7E1B0E0EEE6F4E00C94752A4B8B5C8B5C
:1008E0006D8B7E8B8F8B61111092860286E09E014C
:1008F000235F3F4FD901E82F1D92EA95E9F795E074
:10090000FE017396D90101900D929A95E1F79C89A9
:100910004E895F897B897D879E876F87598B488B3E
:10092000F901DE01179601900D928A95E1F7CE014B
:1009300007960E94D31C81113EC086E0FE013796C7
:10094000DE01119601900D928A95E1F7FF81E8850D
:100950006A857B856115710531F0EF3F31F481E0E7
:10096000FF3F19F403C081E001C080E080FD23C097
:1009700020914B0230E0C901019687709927409180
:100980007C0250E08417950779F1F983EA837D832F
:100990006C8396E0929FD001939FB00D1124A45BCD
:1009A000BD4FFE01319601900D929A95E1F780932B
:1009B0004B020E94531C16E080917C0290914B02E6
:1009C0008917F9F0189FC0011124845B9D4F0E9484
:1009D000D31C8823B1F080917C0290E0019687704F
:1009E000992780937C02E8CF0E94352810924B0211
:1009F00010927C02E5E4F2E086E0DF011D928A9528
:100A0000E9F76796E3E00C94912A82FB992790F925
:100A100081FF02C0479A01C04798992311F02D9A8F
:100A200008952D980895A9E0B0E0E9E1F5E00C946F
:100A3000672AFC018081918123813481232B31F04D
:100A40009F3F31F491E08F3F19F403C091E001C062
:100A500090E090FDFAC67F0185E0DE0111960190DD
:100A60000D928A95E1F7F701228189819A812223EB
:100A700049F00E945A27182F682F89819A810E9475
:100A8000BD2703C00E948927182F69817A81812F91
:100A90000E9433158C01F7018281882309F4F5C087
:100AA000980122513F452031310508F00AC18FEFEE
:100AB00093E00E9478298111F2C0025139E7832E18
:100AC00032E0932E002379F08114F4E09F0609F4BC
:100AD000E6C0C4010E947829811101C001502FEFA6
:100AE000821A920AEFCF1E821F821886198644242A
:100AF00043942AE0322E84010F5F1F4FC4010E94ED
:100B000078298E831F82882309F4C9C09FEF980F2C
:100B1000933060F48F834E8232E0830E911CC801C3
:100B20000E9478298887811102C0B9C048018E01CE
:100B30000A5F1F4FF80120812223E9F2213009F0DA
:100B40004CC08181813049F46801F2E0CF0ED11CA4
:100B5000F80182810E9459290AC0823051F468014B
:100B6000F2E0CF0ED11CF80182810E94B5288601E7
:100B700089C0833049F46801F2E0CF0ED11CF8013E
:100B800082810E945228F3CF843019F00F5F1F4FEB
:100B900079C0F80122810E5F1F4F80E090E030E0C5
:100BA000205331092A30310568F4389EA001399E5E
:100BB000500D1124C901840F951F0F5F1F4FF801BD
:100BC0002081EDCF009709F45DC0EFE9FFE0319798
:100BD000F1F700C000000197F5CFE22FF0E0E45CF0
:100BE000FE4F5490822F86958695869590E0FC0165
:100BF000E45DFE4F64902770712C022E02C0759444
:100C000067940A94E2F7F1E06F227724FC01E45E36
:100C1000FE4FA490B12C022E02C0B594A7940A9462
:100C2000E2F731E0A322BB24FC01E45FFE4FC49055
:100C3000D12C02C0D594C7942A95E2F781E0C8224E
:100C4000DD246114710419F081EE0E94B528A1140D
:100C5000B10419F086EE0E94B528852D0E9459290D
:100C6000A114B10419F086EE0E9452286114710497
:100C700019F081EE0E945228C114D10419F08CE2BF
:100C80000E9459290F5F1F4F55CF00313FE51307D1
:100C900009F004C581E00E94F7270E94171F809188
:100CA0007D02877009F4D1C5F7018281882309F498
:100CB000CCC58091B00182FFC8C582E00E941A1C99
:100CC000C4C50031FFE51F0711F481E005C0013103
:100CD0002FE5120721F482E00E940428DECFF801FC
:100CE000EB5BFC45E730F10508F456C4033FFCE537
:100CF0001F0799F406E221EE40EE63EF7CE509C0A0
:100D0000073DECE51E0711F506E221EE41EE67ED29
:100D10007CE5C7010E943014C2CF043F2CE51207C6
:100D200008F05FC1083D3CE5130731F407E225EE0A
:100D300045EE68ED7CE5EDCF093D9CE5190701F72F
:100D400008E221E045EE69ED7CE5E3CF882309F474
:100D50007DC110922E0203309DE5190758F40A3F19
:100D6000ECE51E0780F4C80182509C45449708F0CA
:100D700057C109C00136FDE51F0729F0053A2DE5E9
:100D8000120709F04DC10E94491B9093B001809356
:100D9000AF0101313CE5130709F4C9C008F043C0B5
:100DA00009309CE5190709F49EC008F50530FCE5FB
:100DB0001F0709F488C080F403303CE5130709F4E9
:100DC0007BC008F07DC002309CE5190709F0F9C02E
:100DD0008091AF018160F3C00730ECE51E0709F494
:100DE0007AC008F07CC08091AF018061E8C00D300E
:100DF0002CE5120709F489C058F40B308CE518076C
:100E000009F47BC008F07DC08091AF01886071C09B
:100E10000F30ECE51E0709F482C008F084C0809111
:100E2000AF01877FCCC00D3F2CE5120709F473C0DA
:100E300008F505318CE5180709F487C068F403311B
:100E4000ECE51E0709F477C008F097C00E9435282A
:100E50008091AF018F77B3C00B3F2CE51207B9F13A
:100E600008F056C00A3F8CE5180709F0AAC0809127
:100E7000B00141C001309DE5190709F48AC058F45A
:100E80000F3FFCE51F0709F45BC008F06AC08091C2
:100E9000B001826030C001363DE5130709F47FC020
:100EA000053A8DE5180709F484C002309DE519075D
:100EB00009F087C060E06EC08091AF0182607FC0A2
:100EC0008091AF0116C08091AF01886078C0809199
:100ED000B00182604FC08091AF01806270C080918C
:100EE000AF0180646CC00E9435288091AF0180689A
:100EF00066C0846064C081603DC08091AF018E7F18
:100F00005EC08091AF018D7F5AC08091AF0116C045
:100F10008091B00118C08091B0018D7F2BC080916D
:100F2000AF018F7E4CC08091AF018F7D48C0809112
:100F3000AF018F7B44C08091AF01877F8B7F3FC023
:100F40008091B0018D7F8E7F15C08091AF0182FBB3
:100F5000222720F991E0922790FB82F990FB83F9F8
:100F60002EC08091B001982F909591708E7F892B23
:100F700090FB81F98093B00124C00E9435288091B4
:100F8000AF0187FB222720F991E0922790FB87F998
:100F900016C061E08EE090E00E948C2912C0809122
:100FA000AF0184FB222720F991E0922790FB84F97E
:100FB00006C08091AF01982F909590FB80F98093A7
:100FC000AF016091AF011091B00184E090E00E9408
:100FD0008C29612F82E290E00E948C290E943528A2
:100FE0005ECE053FFCE51F0731F406E221EE42EE3E
:100FF00065EF7CE58ECE053F2CE5120730F407E265
:1010000025EE44EE64EF7CE584CE063F3CE5130715
:1010100009F09CCE07E225EE46EE66EF7CE579CE40
:1010200006318CE5180721F5809187028A7A91E0D4
:1010300009F490E090939801882311F065E301C0D2
:1010400069E28DE392E00E94DD130FC00631ECE50A
:101050001E0709F044C080919801882309F425C334
:1010600065E38DE392E00E94D0130E94DE1B17CE51
:101070000A353DE5130769F158F401159CE5190798
:1010800081F00E3D1C4509F047C00E94661B17C049
:101090000C35FDE51F07A9F0F0F0073A1D4579F082
:1010A0003BC00E9435288FEF94E3ECE081509040E4
:1010B000E040E1F700C000000E944213F0CD0E9422
:1010C00052048091B00182FB882780F991E0892742
:1010D00003C081E001C080E00E94371C1DC08091E8
:1010E000870282720C3CECE51E0709F48EC308F0FF
:1010F00011C3063C2CE5120709F473C308F0E6C2DD
:10110000033C9CE5190709F462C308F0D0C2023C15
:10111000FCE51F0709F436C3F701828100811181C4
:10112000882349F0C8010E945A27D82E682FC80189
:101130000E94BD2704C0C8010E948927D82EB8018B
:101140008D2D0E9433150E94AF19B82E192F982E9D
:10115000F7010281A580A2949FE0A92280917D02DF
:101160008770B9F00023A9F0812F807F803421F0AF
:1011700080E28B0D883068F08091B00182FF09C059
:1011800082E00E941A1C80917D028770DD24D39436
:101190008111D12CC12EC2948FE0C8228C2D90E0F9
:1011A0008C30910508F0D7C1FC01EA5AFF4F0C942E
:1011B000282A812F807F1F70882311F01295107FBD
:1011C0000023B9F0112309F4B4C180E28B0D8830FB
:1011D00010F0911006C080918702182B109387029F
:1011E00005C080918602182B109386020E94DE1B98
:1011F000A0C18B2D0E945228112309F4ACC180E2BA
:101200008B0D883080F1992071F1109580918602C4
:101210001823109386022AC0812F807F1F7080328E
:1012200011F01295107F8B2D992021F0F1E09F167F
:10123000D9F149C08091B00182FD1BC0002369F043
:10124000112339F080918702182B109387020E9496
:10125000DE1B80E00E94B5287EC180E00E945228FB
:10126000112309F478C1812F0E94D71B0E94DE1B35
:1012700072C1002381F080918802AA2051F021E000
:10128000A21207C0182B181709F465C11093880221
:1012900062C1812B10C0AA2021F031E0A31609F40D
:1012A0005AC10E94D11B27C0002341F085E08A1556
:1012B00008F451C1812F0E9448284DC194E09A152D
:1012C00008F449C118C0002349F0AA2099F3F70196
:1012D000858180FF2EC18F708583ECCFAA2059F0C5
:1012E000893309F035C1FFEF27EE33E0F15020409C
:1012F0003040E1F72BC1812F0E9441282CC1812F62
:1013000086958695837019F0813061F024C10023A1
:1013100021F08B2D912F937002C080E090E00E940D
:101320000D1421C1002321F08B2D912F937002C049
:1013300080E090E00E94F71316C18B2D002319F076
:101340000E94E32602C00E942A260E9400260BC1AA
:10135000812F8370A9F5011102C14B2D429546954D
:101360004770440F440F8B2D8F7090E09C01042E2A
:1013700001C0220F0A94EAF7B4FE08C08FE090E0A3
:1013800001C0880F4A95EAF7809501C080E0169564
:1013900016951370123069F088F49091890211301B
:1013A00019F0822B892302C0922B892B0E941028CE
:1013B000D6C0822B909189028927F8CF822BF6CF55
:1013C000002319F0812F817001C08695882309F4CC
:1013D000C6C04B2D429546954770440F440F8B2D48
:1013E0008F7090E09C01042E01C0220F0A94EAF74E
:1013F000B4FE08C08FE090E001C0880F4A95EAF77C
:10140000809501C080E0169516951370123059F042
:1014100078F49091A402113019F0822B892309C02D
:10142000922B892B06C0822B9091A402892701C0A0
:10143000822B0E94F22793C01F70002339F0812F66
:101440000E9404288B2D0E94482889C08B2D0E9461
:101450004128812F0E94F72782C08B2D92EF991689
:1014600081F1991538F0E0EF9E1659F0F1EF9F16D3
:1014700019F15BC023EF921659F134EF9316C1F0C6
:1014800054C0002381F084E08A1508F464C01F7101
:1014900081E090E0012E01C0880F0A94EAF7909154
:1014A000A402892720C095E09A1508F454C0EFCF14
:1014B0008091B00182FD1AC0002329F0812F8F7125
:1014C00027C00023D9F3812F8F710E94F72743C0D3
:1014D000002341F01F7181E0012E01C0880F0A94A2
:1014E000EAF701C080E00E94F22735C0002399F09E
:1014F0001F71812F0E9404288091B00182FF07C0D4
:10150000E8E01E9FC0011124836080937D02812F3B
:101510000E94042820C081E00E941A1CF1E0FA1504
:10152000D0F482E00E941A1C16C0002321F0AA20E9
:1015300029F28B2D8FCEAA2031F2893349F42FEF77
:1015400037EE83E0215030408040E1F700C00000DA
:101550008B2D0E94522888EF8C0D843020F40E943D
:1015600023140E940505DD2009F46FC180917D02DE
:1015700080FD6BC1F70112828595859585950E9446
:101580000428C7010E94130580917D0285958595E9
:1015900085950E94F72759C1EE59FF4F0C94282AD0
:1015A00086E001C080E00E946616809128020E94B9
:1015B000351675CB80912802982F9695969596951D
:1015C00049F1915E990F990F990F8770892B80933C
:1015D000280214C090912802892F869586958695B9
:1015E0008F5F8F719770873008F04BC0880F880F1E
:1015F000880F892B8093280280912802887F91E0B0
:1016000009F490E08091280290FB80F980932802F1
:101610000E9435168091280286958695869523C06E
:1016200020912802822F869586958695482F50E036
:101630004630510554F48F5F982F990F990F990FE9
:10164000822F8770892B80932802809128028160E5
:10165000DDCF8091280280FF09C08E7F8093280211
:101660000E94351680E00E94071619CB8160809396
:101670002802813019F489E08093280280912802A1
:10168000C7CF90932802B8CF8091280281FF03C072
:101690000E943B1604CB0E94511601CB01319FE5FD
:1016A000190709F023CB82E0F6CA69E2DACC043CE0
:1016B0002CE5120709F490C0053C3CE5130709F03E
:1016C0002BCD4CE955E266EA75E2A3C0093C9CE5E6
:1016D000190709F490C078F4073CFCE51F0709F4EA
:1016E00085C0083C2CE5120709F016CD4FE855E2FD
:1016F00062E875E28EC00A3C3CE5130709F480C03D
:101700000B3C9CE5190709F007CD47E154E269E27B
:1017100074E27FC0013DECE51E0709F486C0A0F429
:101720000E3C2CE5120709F47AC008F475C00F3C92
:101730008CE5180709F476C0003D9CE5190709F00F
:10174000EBCC6EE089E079C0043DECE51E0709F4BE
:1017500072C068F4023D2CE5120709F469C0033D2C
:101760003CE5130709F0D8CC61E088E16BC0053D8A
:101770008CE5180709F464C00D359DE5190709F4D7
:101780008ECACACC8091230280FF1BC08E7F8093BB
:10179000230260912302709124028091250290918E
:1017A00026020E9404241092E901EFEFF0E722E004
:1017B000E150F0402040E1F700C000000E94DD163B
:1017C0006ECA81608093230261E086953BC04BEE38
:1017D00055E265EF75E21DC045EF55E26BEE75E22F
:1017E00018C046EA55E26CE975E213C042E855E2DA
:1017F0006FE875E20EC048E655E265E775E209C09C
:1018000045E755E268E675E204C049E254E267E163
:1018100074E20E94C01643CA61E081E013C065E033
:1018200082E00BC068E086E008C064E18FE005C09C
:1018300067E185E102C062E289E10E94AC162FCA2D
:1018400061E083E20E94B0252ACA2996E1E10C9466
:10185000832AAAE2B0E0EFE2FCE00C94672A85B7A5
:10186000806885BF85B7806885BF84B7877F84BF60
:101870000FB6F894A895809160008861809360000D
:10188000109260000FBE90E080E80FB6F89480934D
:101890006100909361000FBE83EA98E190939701F5
:1018A000809396013F9A259A0E9432220E945122EB
:1018B0008091E20084608093E200789480919A02A3
:1018C0008823A1F01091E9001F709091EC00892FFE
:1018D000817090FD80E8182B1092E9008091E8005B
:1018E00083FD0E94231F1F701093E90082E084BDD6
:1018F00093E095BD9AEF97BD80936E000E94751599
:10190000811102C00E9465150CE111E0D8018D9192
:101910008D018F3F11F00E94E818B1E005321B07DE
:10192000A9F705E211E0B0E3EB2EB1E0FB2EF801E0
:1019300081918F018F3F11F00E94E818E016F106A7
:10194000B1F786E1ECECF1E0DF01282F1D922A953A
:10195000E9F7E9E9F1E0DF011D928A95E9F70E94D4
:101960005A1B811102C00E94661B82E090E00E9417
:1019700078298093B4010E94491B9093B001809311
:10198000AF010E94FF18EFE3FCE93197F1F700C0C7
:1019900000000E94FF188091CC0180FF08C06FEF0B
:1019A0007FEF80E090E00E94AA290E94421383E02A
:1019B00090E00E9478290E941028269A2E9882E2B0
:1019C0008093800089E1809381008FEF9FEF909357
:1019D0008700809386000E9480168091280281FFF4
:1019E0000BC010922B0210922A02109229028091B1
:1019F0006F00816080936F000E9480168091B1011A
:101A0000811133C00E945A1B811104C00E94661BC1
:101A10000E943B2488E090E00E948029609323028A
:101A20007093240280932502909326026E7F71F4B6
:101A30000E943B2488E090E00E948029609323026A
:101A40007093240280932502909326020E94F12332
:101A50001092E9018091230280FF04C060E0869526
:101A60000E94B02581E08093B10180E091E09093E5
:101A7000320280933102E8E14E2E512CF0E43F2EE9
:101A8000A2EE6A2EA1E07A2E8E010F5F1F4F4E014B
:101A9000F7E18F0E911C80919A02853009F07EC08B
:101AA000DD24D39460E1E62E72E1F72E80919A0254
:101AB000853009F05AC080919A02843009F443C0FD
:101AC00080E00E94071680E00E9405051092E9015F
:101AD0008091B301811116C0D092B301809123028D
:101AE000982F91709093B2018E7F809323022FEFF5
:101AF00030E742E0215030404040E1F700C00000B4
:101B00000E94DD16109235020FB6F894A895409207
:101B100060000FBE3092600083B7817F846083BF16
:101B200083B7816083BF7894889583B78E7F83BFA6
:101B30000FB6F894A895809160008861809360004A
:101B4000109260000FBE80919902882309F4AECFF5
:101B50000E94FF18ECECF1E081919191892B09F042
:101B600013C46E167F06C1F7A1CF0E9435280E94CC
:101B700080160E9423140E9405051092B3018091E3
:101B8000B201882349F0809123028160809323026F
:101B900060E086950E94B0250E94C7160E94FF183B
:101BA000882359F08FB7F89440913602509137024C
:101BB00060913802709139028FBF5CECA52E51E024
:101BC000B52EA5EBB1E0F501E12CF12C6E2D2191A4
:101BD00031918D919D9182279327009779F170E043
:101BE000CC24C394D12CAC014C215D21452B09F1AF
:101BF00079A36AA32C213D2181E0232B09F480E005
:101C00008BA30E949B138160782F9DA38CA349A175
:101C10005AA16BA18DA10E946804F701EE0FFF1F6E
:101C2000EB54FE4F80819181C826D926D182C08293
:101C30001CC07F5FCC0CDD1C7930A9F68FEFE81A51
:101C4000F80A9BE0E916F10409F68FEF8EA38FA343
:101C500018A60E949B138160782F9AA789A74EA18E
:101C60005FA168A58AA50E9468048091E901882384
:101C700009F498C08091E801E0912302E695E81B01
:101C8000E093E401823059F4F0E0E653FE4FE49132
:101C9000EE2EF12C84E0C82E83E1D82E5EC0863073
:101CA00059F4F0E0E953FE4FE491EE2EF12CB4EF3D
:101CB000CB2EB2E1DB2E51C0893061F4E695F0E025
:101CC000EC53FE4FE491EE2EF12CA9E7CA2EA8E1C9
:101CD000DA2E43C08F3061F4E695F0E0EF53FE4F0B
:101CE000E491EE2EF12CF4E1CF2EF8E1DF2E35C099
:101CF000853159F4F0E0E254FE4FE491EE2EF12CE0
:101D0000E6ECCE2EE7E1DE2E28C08831B1F083323A
:101D100049F4ECEBF1E0E590F4907AEBC72E72E138
:101D2000D72E1BC0843289F050EDE52E57E0F52EFA
:101D30006EE6C62E62E1D62E10C038E2E32EF12CFC
:101D40004BE4C42E47E1D42E08C094EFE92EFF24C3
:101D5000F39423E1C22E27E1D22E8091E50188235E
:101D600061F01092E5010E949B139093E301809330
:101D7000E2011092E7011092E6010E949B13E091AC
:101D8000E201F091E3018E1B9F0B8F3F9F4750F4C0
:101D9000EE0EFF1EF092E301E092E20182EE91E08E
:101DA000F601099586E0ECEAF2E0D80101900D9287
:101DB0008A95E1F71092AE021092AF021092B00233
:101DC0001092B1028B81811104C08C81882309F4A7
:101DD00053C08091AA029091AB020E948C139C0187
:101DE0009091A602992309F4EEC22531310508F439
:101DF00043C09F3F19F09F5F9093A602FB80FF2096
:101E000061F00E94C3261F1414F491E001C09FEFFB
:101E1000899F802D11248093AE02FC80FF2061F009
:101E20000E94C3261F1414F491E001C09FEF899F04
:101E3000802D11248093AF023091AE023323E1F064
:101E40002091AF022223C1F045EB3403C0011124DD
:101E5000992319F09093AE0203C081E08093AE0203
:101E600035EB2303C0011124992319F09093AF029D
:101E700003C081E08093AF028D81811104C08E8107
:101E8000882309F453C08091A8029091A9020E946E
:101E90008C139C019091A502992309F499C22135D4
:101EA000310508F443C09F3F19F09F5F9093A5024E
:101EB000FD80FF2061F00E94A1261F1414F491E020
:101EC00001C09FEF899F802D11248093B002FE8076
:101ED000FF2061F00E94A1261F1414F491E001C0BC
:101EE0009FEF899F802D11248093B1023091B00221
:101EF0003323E1F02091B1022223C1F045EB3403FA
:101F0000C0011124992319F09093B00203C081E01D
:101F10008093B00235EB2303C0011124992319F0FB
:101F20009093B10203C081E08093B10246E050E09B
:101F3000B8018CEA92E00E94B62A892BA9F480911C
:101F4000AE0281110FC08091AF0281110BC0809150
:101F5000B002811107C081E09091B102911103C0DC
:101F600080E001C081E080FD0E94002686E0F8014B
:101F7000ACEAB2E001900D928A95E1F70E94231439
:101F80009091CB01891721F08093CB010E94050528
:101F900080919A02843009F07ECD83E08093E9003D
:101FA0008091E80082FF77CD8091E80085FF21C015
:101FB0000E94832381111BC080E2E82EF12C68016E
:101FC00009C08091F100D6018D936D01B1E0EB1A4B
:101FD000F10869F08091E80085FDF3CF8091E80079
:101FE0008B778093E8000E948323882399F391E004
:101FF00001C090E08091E8008B778093E8009923FE
:1020000009F449CDE9818E2F90E0FC013197E3314D
:10201000F10508F08FC1E759FF4F0C94282A1A8266
:1020200089E0DDC08A81823009F4C4C1833089F03F
:10203000813009F07FC12FB7F894809136029091DA
:102040003702A0913802B09139022FBFBB83AC8315
:1020500021C0F801D5018C9111969C91B2E0AB0E94
:10206000B11C9283838332968E169F0699F764C1C2
:102070008A81823009F05EC16B817C818D819E8175
:102080000E942E2A0E94411557C14C816B818A8182
:102090000E9405159D8395C12D813E8132272327FE
:1020A00032274C816B818A810E94A91445C10E940C
:1020B000D01442C18A81893019F08A3071F015C07C
:1020C0008B81E6E08E9FC00111246FEF70E00E94CB
:1020D000DE29862F0E94661608C08B81811103C0FD
:1020E0000E943B1602C00E9451168A818138B1F0CD
:1020F00050F4803809F020C120E04B816091250226
:102100008091240231C0823859F1833809F014C11A
:1021100020E0409126026C818B8126C060E08B819B
:102120000E94B0259B8180912302911111C08E7F66
:10213000809323021092E901FFEF20E732E0F15093
:1021400020403040E1F700C000000E94DD16F4C0DE
:1021500081608093230260E086950E94B025ECC0E8
:102160008B8180932702E8C00E94EF24E5C08A811A
:10217000893039F08A30A1F48091280286958170E7
:102180002EC0809128028695869586954FEF849F74
:10219000C001112466E070E00E94DE296B83CCC090
:1021A000813899F030F4803809F0C6C08091260259
:1021B00016C0823891F0833809F0BEC080912402A5
:1021C0008B83809125028C83B7C08091230280FF8E
:1021D00002C0869504C080E002C0809127028B83F4
:1021E000ABC0809128020E94351660912302709145
:1021F000240280912502909126020E9404249CC012
:1022000080E151C081E08A8387E8E9CFEA80FB80E2
:10221000FE24EF24FE24AC80B12C6801C70187584E
:102220009D4F9601201B310B2A153B0508F084C0F9
:10223000A7E8EA16A1E0FA0628F40E947829F60138
:10224000848303C0D60114961C92BFEFEB1AFB0ADD
:10225000EFEFCE1ADE0AE2CFEA80FB80FE24EF2405
:10226000FE24AC80B12C6801C70187589D4F9601B0
:10227000201B310B2A153B0508F05EC0F7E8EF166E
:10228000F1E0FF0628F4D60114966C910E948C2987
:10229000BFEFEB1AFB0AEFEFCE1ADE0AE5CF0E9482
:1022A00099144AC083E08A8347C0EA80FB80FE24F9
:1022B000EF24FE24AC80B12C6801C70187969601FB
:1022C000201B310B2A153B05B8F5F2E5EF16F2E0BD
:1022D000FF0630F40E947829D60114968C9302C030
:1022E000F6011482FFEFEF1AFF0A2FEFC21AD20A8B
:1022F000E4CFEA80FB80FE24EF24FE24AC80B12CE6
:102300006801C70187969601201B310B2A153B05F2
:1023100098F432E5E31632E0F30628F4D601149679
:102320006C910E948C29BFEFEB1AFB0AEFEFCE1ADB
:10233000DE0AE7CF8FEF898380919A02843009F01B
:10234000AACB8091E9008F702091EC00922F9170C0
:1023500020FD90E8F92EF82A82E08093E900809130
:10236000E80080FF0CC040E050E060E270E0C8018F
:102370000E94B6238091E8008E778093E8008F2D2D
:102380008F708093E90087CBE9BCF9BC09B400FEEB
:10239000FDCF8091D8008F7D8093D8008091E000A0
:1023A00082608093E0008091E00081FDFCCF0E947C
:1023B00035287CCB86E290E00E9478291B821C8223
:1023C0001D828E83B9CF2B30310508F014CD54CD4A
:1023D0002B30310508F069CDA9CD80918F02089589
:1023E000A0E0B0E0E6EFF1E10C946C2A8C01809162
:1023F0008600909187006CE070E00E94DE296017F3
:10240000710730F0C80169E070E00E94DE2960C009
:102410008091860090918700E0908600F090870080
:10242000E0918600F0918700C6E0D0E0BE010E94F6
:10243000DE2920E030E0060F171F211D311D480165
:10244000590185E0880C991CAA1CBB1C8A95D1F700
:10245000C701BE010E94DE296F01E12CF12CA7010A
:102460009601260F371F411D511DC501B4010E9461
:10247000062A69017A01E0918600F0918700CA017D
:10248000B9010E94C0299B01AC01DF010E94532ABF
:102490009B01AC01C701B6010E94C029DC01CB0140
:1024A0002FE0B695A795979587952A95D1F7009136
:1024B00086001091870020E030E0081719072A07EE
:1024C0003B0728F46091860070918700CB01BC0126
:1024D000CB01CDB7DEB7ECE00C94882A089524E058
:1024E0002093E9002FEF3091E800215035FD06C020
:1024F00035ED3A95F1F700002111F5CF2091E80074
:1025000025FF0BC040E050E066E070E00E94B6237B
:102510008091E8008E778093E8000895CF93DF9351
:1025200021E02093E9002FEF3091E800215035FDA4
:1025300006C035ED3A95F1F700002111F5CF209155
:10254000E80025FF14C0EC0140E050E068E070E0D6
:102550000E94B6238091E8008E778093E80088E09F
:10256000FE01A0E9B2E001900D928A95E1F7DF91BA
:10257000CF910895A3E0B0E0E0ECF2E10C94742A6E
:102580008C018091EC0181110AC09E012F5F3F4FA9
:102590004FEF6FEF0E944B248A818093EC01F8018A
:1025A0008481813051F028F0823061F44091EC0157
:1025B0000AC08091EC0140E007C06091EC0140E06E
:1025C00080E003C040E080E060E00E94E023F8018A
:1025D000848190E0019663E070E00E94F229848398
:1025E0002396E4E00C94902ACF93DF93EC01E3E28E
:1025F000F2E0438162818C810E94D7248C818F5FBD
:102600008C83DF91CF910895CF93DF93EC01EC8120
:10261000F0E0E253FE4F4491E3E2F2E06281818117
:102620000E94D7248C818F5F8C83DF91CF91089596
:1026300080933A0270933C0260933B0280919A022D
:102640008430F9F48093E9008FEF9091E800815095
:1026500095FD06C095ED9A95F1F700008111F5CF33
:102660008091E80085FF0DC040E050E063E070E03D
:102670008AE392E00E94B6238091E8008E778093EF
:10268000E800089581E08093E00080E28093D80024
:102690001092C9008FE19EE40197F1F700C000009D
:1026A00087E090EBDC018093D9029093DA02A0934B
:1026B000DB02B093DC029CE088E10FB6F894A895A9
:1026C000809360000FBE90936000FFCF78941F92BC
:1026D0000F920FB60F9211248F939F93AF93BF93D6
:1026E0008091360290913702A0913802B091390260
:1026F0000196A11DB11D8093360290933702A093DD
:102700003802B0933902BF91AF919F918F910F9092
:102710000FBE0F901F9018959C014FB7F8948091B1
:10272000360290913702A0913802B09139024FBF22
:10273000821B930B08952FB7F894809136029091E5
:102740003702A0913802B09139022FBF08951F922D
:102750000F920FB60F9211248F939F93AF93BF9355
:1027600080913502811113C0809136029091370219
:10277000A0913802B09139024196A11DB11D8093FC
:10278000360290933702A0933802B0933902BF917A
:10279000AF919F918F910F900FBE0F901F90189542
:1027A0009C012A5F3F4FFC014281461301C0128207
:1027B000019682179307B9F708959C01FC013296A0
:1027C0009FEF80E04191461789F09F3F19F4411136
:1027D00001C0982F8F5F8630A9F79F3F39F0F9012C
:1027E000E90FF11D97FDFA956283089508952091F0
:1027F0003302309134022817390771F09093340274
:1028000080933302E0913102F0913202309721F04F
:102810000084F185E02D0995089520912F023091D3
:1028200030022817390771F09093300280932F02FD
:10283000E0913102F0913202309721F00680F78169
:10284000E02D09950895E0913102F0913202309720
:1028500029F00190F081E02D0995089580E0089518
:102860000F931F93CF93DF93C42FD22FFC0182814C
:102870008823B1F040932E020E949B1390932D0267
:1028800080932C0280E28C0F883008F04DC0C77016
:1028900081E001C0880FCA95EAF70E94482844C029
:1028A00080912E02481330C080912C0290912D020D
:1028B0000E948C13883C910538F510E21D0FCD174E
:1028C000B9F080E28C0F883040F4C77081E001C01D
:1028D000880FCA95EAF70E944128183010F581E068
:1028E0009D2F977001C0880F9A95EAF70E9448289B
:1028F000802F0E9459291830B8F4D77081E001C0A8
:10290000880FDA95EAF70AC080E28C0F883060F40D
:10291000C77081E001C0880FCA95EAF70E9441287C
:1029200003C0802F0E945929DF91CF911F910F91F1
:102930000895CF93DF93C9E7D2E060E0CE010E9413
:102940008C292196C11584E0D807B9F7DF91CF9182
:1029500008951F93CF93DF93962F8330E8F46B3065
:10296000D8F44930C8F4632F122FC42FD0E0CC0F15
:10297000DD1F22E1929FC00DD11D112496EC899F8D
:10298000C00DD11D1124CE0187960E948C29612F84
:10299000CE0188960E948C29DF91CF911F910895D6
:1029A000A0E0B0E0E6EDF4E10C946E2AA12CE12C5D
:1029B000F12CB12C00E010E0C0E0D0E06701C00EC7
:1029C000D11EFE01EE0FFF1FEC0DFD1DE25BFC4F63
:1029D000259134914C2F6B2D8A2D0E94A91421969C
:1029E000C930D10571F70E5E1F4FB3948BE0B8125A
:1029F000E3CF86ECE80EF11CA39483E0A812D9CFB4
:102A0000CDB7DEB7EAE00C948A2A0F931F93CF93D9
:102A1000DF93833008F56B30F8F44930E8F4C42FC5
:102A2000D0E0CC0FDD1F22E1629FC00DD11D11242B
:102A300036EC839FC00DD11D1124CE0187960E94D4
:102A4000782990E0182F0027CE0188960E947829D7
:102A50009801282BC90102C080E090E0DF91CF915E
:102A60001F910F910895833048F47B3038F469301A
:102A700028F4462F672F0E940515089580E090E006
:102A8000089586E290E00E948C290895CF93C82F84
:102A9000811102C06FEF01C062E283E290E00E9408
:102AA0008C29C11102C06FEF01C068E084E290E0A0
:102AB0000E948C29C11102C06FEF01C062E185E262
:102AC00090E00E948C29CF91089580E00E944615E5
:102AD00060E070E0CB010E9441150E94D0140E947A
:102AE000991481E00E944615089583E290E00E94C7
:102AF0007829823281F484E290E00E94782988303B
:102B000051F485E290E00E94782991E0823109F049
:102B100090E0892F01C080E0817008951F920F928C
:102B20000FB60F9211242F933F934F935F936F93A0
:102B30007F938F939F93AF93BF93EF93FF93809176
:102B40001A0191E0980F823019F090931A014EC04B
:102B500081E080931A0180912A0290912B020196C4
:102B600060ED72E00E94DE2990932B0280932A028E
:102B700065E070E00E94DE2967FD6FE78091290221
:102B8000823019F4603451F404C0813039F46F3765
:102B900029F480916F008E7F80936F00E62FF0E024
:102BA000E253FD4F2491A0918600B091870030E060
:102BB0000E943D2A2FEF30E040E050E00E94062ABC
:102BC000C90166E070E00E94DE29809128028695A6
:102BD00086958695282F269FC001279F900D11244A
:102BE0000E94F01190938B0080938A00FF91EF91E7
:102BF000BF91AF919F918F917F916F915F914F9115
:102C00003F912F910F900FBE0F901F901895873016
:102C100048F4811108C0909180009F7D90938000BE
:102C20002E9806C086E0909180009062909380007C
:102C3000A0918600B0918700282F30E00E943D2AA5
:102C400026E030E040E050E00E94062AB42FA32F97
:102C5000922F8827892F9A2FAB2FBB270E94F01124
:102C600090938B0080938A000895682F86E090E00F
:102C70000E948C2908958091280281FF11C08D7FC8
:102C8000809328020E94351680916F008E7F80937A
:102C90006F00809128028695869586950E9407167A
:102CA00008958091280281FD10C0826080932802DF
:102CB0000E94351610922B0210922A0210922902BD
:102CC00080916F00816080936F000895873008F0D5
:102CD00086E0909128029770282F220F220F220F52
:102CE000922B90932802987F21E009F420E09091A4
:102CF000280220FB90F9909328020E94071608955D
:102D00000E945A1B81110AC00E94661B80912802F2
:102D100084708163809328020E94351686E090E0DB
:102D20000E94782980932802282F2695269526959B
:102D300030E02730310524F08770806380932802CB
:102D40008091280280FF04C086958695869501C0F3
:102D500080E00E94071608959091230290FF04C01E
:102D60009695981748F003C0811106C090E0961719
:102D700018F40E94F525089561E00E94B025089599
:102D8000882311F0FA0101C0FB01099508956091B3
:102D90002302669570E04BE050E08CE091E00E94E9
:102DA000A92A892B19F481E08093E9010E949B13E1
:102DB0009093E3018093E20108958091230280FFC4
:102DC0000AC06A9A8EB18B7F9EB194602FB7F89437
:102DD000EDEEF1E00BC0EDEEF1E011821082128217
:102DE000339632E0E332F307C1F7EBCF32E0E33260
:102DF000F30789F0319148E09EB9000000C037FF29
:102E00008EB9330F000000C000C000C08EB900C0F2
:102E10004A9591F7EBCF2FBF8FE594E00197F1F73B
:102E200000C000000895EF92FF920F931F93CF937D
:102E3000DF938C01CDEED1E0E12CF12CF8018481FF
:102E4000F9E0EF16F1041CF4882339F002C0811177
:102E500004C09E014091260202C09E0140E06091A4
:102E60002502809124020E944B248FEFE81AF80A71
:102E7000239692E1E916F10409F70E94DD16F801A4
:102E8000848190E00196817099278483CDB7DEB765
:102E9000E6E00C948E2AA0E0B0E0E1E5F7E10C94C6
:102EA0006C2AEC014C81042F10E09801D8010E949B
:102EB0003D2A9B01AC010E94532A6B017C01E0E298
:102EC000F0E0E01BF10BA5E5B0E09B01AC010E9436
:102ED000532A4B015C019F01DF010E94352A9B01AF
:102EE000AC010E945E2A9B01AC012C0D3D1D4E1DC4
:102EF0005F1DC501B4010E94062A822FF22E99E2BD
:102F0000921728F093E0299F900111240DC025E528
:102F100030E0281B3109C901880F991F280F391F7C
:102F200037FF02C02F5F3F4F35952795122F109521
:102F30009DEEC92E91E0D92E00E085E5E82EEF1830
:102F400001FD02C08E2D01C08F2D9601412F609191
:102F500025020E944B240F5F83E0C80ED11C023172
:102F600079F70E94DD168C81811102C091E003C0C7
:102F7000803219F49FEF9093190190911901890FF4
:102F80008C83CDB7DEB7ECE00C94882A0F931F93A7
:102F9000CF93DF93CDEED1E0FE0111821082128239
:102FA000339682E0E332F807C1F700E010E0809149
:102FB000EB01082E000C990B0817190794F080916B
:102FC0001801082E000C990B8017910754F09E01F0
:102FD0004091260260912502809124020E944B2498
:102FE00003C0198218821A820F5F1F4F2396023185
:102FF0001105E9F60E94DD16809117019091EB0111
:10300000980F9093EB0120911801280F209318013D
:10301000121614F491311CF0819580931701DF9101
:10302000CF911F910F910895A0E0B0E0EAE1F8E19F
:103030000C946F2AFC01828180FF03C0DD24DA94A6
:1030400002C0DD24D3940DEE11E0C0E0D0E022E117
:10305000B22EF80111821082128294E0E92EF12C36
:10306000C12C8091EA018C0D83312CF06B2D0E94D4
:10307000D029892F02C087FD8E5E082E000C990B87
:10308000C817D90791F4809126028E9DA0018F9DCB
:10309000500D112455954795559547959801609188
:1030A0002502809124020E944B24CD0CF1E0EF1AFE
:1030B000F108B9F621960D5F1F4FC231D10549F6CF
:1030C0000E94DD168091EA0191E0D91206C08111BB
:1030D00002C081E107C0815005C090E00196BE01A9
:1030E0000E94F2298093EA01CDB7DEB7E9E00C94A3
:1030F0008B2AEF92FF921F93CF93DF93EC018DEE1B
:10310000E82E81E0F82E10E08C8197014091260294
:1031100060912502810F0E944B24125F83E0E80E2C
:10312000F11C1C3F89F70E94DD169A818C8190FF6B
:1031300002C08F5F01C081508C83DF91CF911F91BE
:10314000FF90EF90089580E008959091AF0192FF75
:103150000DC0282F2871283019F4877F846006C09D
:10316000282F2471243011F48B7F886093FF0DC0C9
:10317000282F2871283119F4877E846106C0282FF2
:103180002471243111F48B7E88612091B00120FFDD
:103190000DC0382F3871383019F4877F816006C030
:1031A000382F3171313011F48E7F886021FF0DC0CE
:1031B000282F2871283119F4877E816106C0282FB5
:1031C0002171213111F48E7E886194FD877E0895EE
:1031D000F894E82FE295EF70F0E031A1282F2F70DE
:1031E00081E090E001C0880F2A95EAF7982F90952A
:1031F000932391A392A1892B82A378940895A6E1A9
:10320000B0E0E5E0F9E10C946C2AAE014F5F5F4F4E
:103210007A0186E1DA011D928A95E9F70CE111E065
:10322000CC24C394D12CAA24A394B12C4E01B7E191
:103230008B0E911CF80180818F3F09F44AC0F894ED
:10324000E82FE295EF70F0E021A18F70A50102C098
:10325000440F551F8A95E2F7CA01922F982B91A32C
:1032600092A18095892382A3789400C065E271E0E1
:10327000F701A60140955095DB012D91BD012F3F2F
:10328000A9F0822F82958F7090E0DC0190968C914E
:1032900090E02F7002C0959587952A95E2F780FD02
:1032A00005C0808191818C299D2904C080819181F4
:1032B000842395239183808332968E169F06E1F6B0
:1032C000F80180818F3F11F00E94E818F0EAFA952A
:1032D000F1F7CC0CDD1C0F5F1F4F41E005321407E6
:1032E00009F0A8CF46E150E0B70189E991E00E94DA
:1032F000B62A11E0009709F410E0892B89F086E1E5
:10330000F701A9E9B1E001900D928A95E1F781E01A
:1033100080938C020E949B1390938B0280938A026D
:1033200080918C028823B1F080918A0290918B0267
:103330000E948C13059770F0E9E9F1E0ACECB1E084
:10334000819191918D939D9351E0EF3AF507C1F7EB
:1033500010928C02812F6696ECE00C94882ACF9311
:10336000DF938238910569F1B0F48133910509F456
:103370006FC048F48932910509F465C08A3291051D
:1033800009F46BC08AC08533910509F457C08933AD
:103390009105B9F082C0833E910571F138F4803E09
:1033A0009105B1F0823E910511F177C0863E9105FD
:1033B000B9F1873E9105C9F1843E910509F06DC0D0
:1033C00024C02091AF0120FD53C021FD51C065C034
:1033D0008091AF0180FD46C08091B00180FF48C060
:1033E0008091AF0184FD50C183EE90E04FC1809188
:1033F000AF0182FF3AC0F4CF8091AF0182FD35C0AA
:103400008091B00180FD34C0EBCF8091B00181FF8D
:1034100035C08091AF0184FD37C187EE90E036C1A1
:103420008091AF0183FF27C0F4CF8091AF0183FD6E
:1034300022C08091B00181FD21C0EBCF8091AF010E
:1034400085FD1FC021C08091AF0185FD1DC019C041
:103450008091AF0186FD1BC01DC08091AF0186FD2C
:1034600019C015C089E390E011C182EE90E00EC151
:1034700080EE90E00BC186EE90E008C184EE90E013
:1034800005C189E290E002C185E390E0FFC08AE2D5
:1034900090E0FCC081E390E0F9C0811531E593072D
:1034A00008F069C0811540E59407F0F09C0174E0D4
:1034B000369527957A95E1F7922F9370482F4370B0
:1034C00021E030E002C0220F331F4A95E2F73C684A
:1034D000392B982F9F709695969540E2949FC00146
:1034E0001124822B932BD2C0883E910568F5803E33
:1034F000910508F0CBC0883A9105B8F4853A91055A
:1035000048F0855AE82FF0E0E05DFE4F808190E0C2
:103510009064BCC08130910509F4B3C008F4B4C014
:103520008430910508F4B0C0B1C08F3B910508F01C
:10353000ABC0885AE82FF0E0EE0FFF1FED5CFE4FA6
:10354000808191819464A2C0811520E2920758F491
:10355000811531E0930708F099C0803F910508F488
:1035600093C0906593C0811540E4940708F48CC023
:103570009F70906A8BC0811525E5920708F042C0C4
:10358000811534E5930728F0982F8827846F906A77
:103590007DC0811543E59407B0F09C01237033276B
:1035A00041E050E002C0440F551F2A95E2F7282F52
:1035B0002695269580E2289F90011124CA01822B2E
:1035C000932B9A6863C0811522E5920728F4982FFF
:1035D0008827816F906A5AC09C012370332741E08D
:1035E00050E002C0440F551F2A95E2F7282F269578
:1035F000269580E2289F90011124CA01822B932BEB
:103600009C6844C0EC01811539E59307A8F4811545
:10361000984528F09C2F8827806F906A37C0C11585
:1036200086E5D80788F58C2F0E94A5188F7190E049
:10363000982F882790622AC081152AE5920790F476
:103640008C2F8F700E94A51894E0D695C7959A95F7
:10365000E1F7CF70D0E0DC2FCC27D0699E01282B7A
:10366000C90114C090568115904270F48D2F8F714E
:103670000E94A518282F2F71CE0199279062922BB6
:1036800005C081E090E002C080E090E0DF91CF9142
:103690000895CF9384E090E00E947829C82F82E2B9
:1036A00090E00E9478292C2F30E0A901582BCA0104
:1036B000CF91089580E090E00E948629883E9E4F39
:1036C00019F40E947515089580E0089568EE7EEF64
:1036D00080E090E00E94AA2960E082E090E00E94F1
:1036E0008C2960E083E090E00E948C29109289028E
:1036F00060E084E090E00E948C2964E082E290E047
:103700000E948C2960E085E090E00E948C2960E0B6
:1037100086E090E00E948C296FEF87E090E00E94A5
:103720008C2940E050E0BA0188E090E00E949E2998
:1037300060E08DE090E00E948C2940E050E0BA010A
:1037400088E190E00E949E2960E087E190E00E947D
:103750008C2940E050E0BA018CE190E00E949E2963
:1037600060E070E080E290E00E94AA2940E050E032
:10377000BA0188E190E00E949E2980E00E944615EF
:103780000E94651540E050E0BA018FE090E00E9491
:103790009E2940E050E0BA0183E190E00E949E291A
:1037A0000895809188028111109288020895809571
:1037B00090918702892380938702089590918702D0
:1037C00080918602982B90933D02809188028823F5
:1037D00089F0892B80933D02EFE3F2E097E080E0EF
:1037E000915029F021912223D9F38F5FF9CF8111D4
:1037F0000E94D11B48E050E06EE772E08DE392E05A
:103800000E94B62A892BA9F088E0EDE3F2E0AEE74A
:10381000B2E001900D928A95E1F7E0913102F091CA
:103820003202309731F00280F381E02D8DE392E097
:103830000995089520917D028095822380937D02D1
:10384000982F977099F430E0482F082E000C550BF4
:103850002417350759F09091B00192FF07C0859564
:10386000859585950E94F72710927D020895CF9344
:10387000C091B001C2FB992790F9981791F080FB95
:10388000C2F9C093B0016091AF0184E090E00E9462
:103890008C296C2F82E290E00E948C2982E00E94A9
:1038A0001A1CCF91089580917C0290914B02891748
:1038B00019F08F5F8770FBCF08950F931F93CF93FD
:1038C000DF9380914A0282958F7009F05AC08091EF
:1038D0004702882309F455C080917C0210914B0265
:1038E0006091450270914602C0914802D091490210
:1038F00091E06F3F09F090E0292F06E0811709F46D
:1039000040C0209721F07F3F21F030E003C031E03C
:1039100001C0322F90E030FD31C0089FF001099FB7
:10392000F00D1124DF01A45BBD4F11963C9111975E
:10393000371324C03C91361321C012963C91129744
:1039400031111CC013964D915C9114974C1B5D0B6B
:10395000483C510598F480914A028F7080618093B1
:103960004A02EF5AFD4F80818F708061808385E429
:1039700092E00E9413050E94531C03C001968770B9
:10398000BDCFDF91CF911F910F910895CF93DF931A
:10399000EC010E945A27BE010E9433150E94AF1904
:1039A000DF91CF910895A1E1B0E0E9EDFCE10C9445
:1039B0006D2A8C0185E0F801DE011D9601900D92C3
:1039C0008A95E1F7F801E280909145026091460204
:1039D00040914802509149024115510531F06F3F25
:1039E00031F481E09F3F19F403C081E001C080E021
:1039F000F82FF1709F2E80FD1BC1F80130812181CD
:103A0000C380D48085E4A82E82E0B82EF0904702CF
:103A1000F601E41BF50BFF2009F4C7C080914A02B0
:103A2000E83CF10508F092C0482F407F09F051C0F2
:103A3000621311C093130FC0FE2CE1100CC08F70E5
:103A4000806180934A02C5010E94130580914A0259
:103A5000F80185832AC1C114D10431F02F3F31F41C
:103A600081E03F3F19F403C081E001C080E080FDA8
:103A700003C081E08E2502C080E090E0F82FF17055
:103A8000FF2E80FF1CC080917C0240914B0256E0CB
:103A9000841709F4E8C090E0589FF001599FF00D99
:103AA0001124E45BFD4F6181261306C0608163131E
:103AB00003C06281E61203C001968770E9CFFE2C35
:103AC000EE2009F4F2C080914A02816080934A029C
:103AD00049C0621306C0931304C0E11002C0F8018C
:103AE00086C0C8010E941528882351F1EE2041F1BB
:103AF00020914A02822F82958F7090E0029774F095
:103B0000809145029091460298878F831986DB86C3
:103B1000CA862C87CE0107960E94130586E0F8011D
:103B2000A5E4B2E001900D928A95E1F70E945D1C38
:103B30000AC06217C9F0C8010E94152881111EC071
:103B4000C8010E941305FF24F394AFC0482F407FA3
:103B500081F785E492E00E94130586E0F501119259
:103B60008A95E9F7F12CA1C09313E5CFE110E3CFDB
:103B7000F8018583C8010E94130554C0EE2001F3AB
:103B800020914A02822F82958F7090E0029734F242
:103B900080914502909146029A8389831B82DD823F
:103BA000CC822E83CE010196B7CFE83CF105D0F54B
:103BB000FE2CEE2029F2621327C0931325C020911A
:103BC0004A0220FD18C0822F82958F70482F50E046
:103BD0004115510581F0F80125834F30510541F021
:103BE0008F5F982F9295907F822F8F70892B85837E
:103BF000C8010E94130586E0F801A5E4B2E0019037
:103C00000D928A95E1F751C0C8010E9415288111D3
:103C100085CF80914A02816080934A02C8010E9448
:103C2000130543C086E0F50111928A95E9F73DC07E
:103C3000EE2009F485CFC8010E941528F82E8823AC
:103C400009F47ECF86E0F801A5E4B2E001900D9280
:103C50008A95E1F780914502909146020E94C61C28
:103C60000E945D1C22C03D872E878D859E850E9407
:103C7000C61C292F22952F70223028F49F7039F00E
:103C8000811105C00BC0243028F49F7049F4805E78
:103C9000883020F0C8010E9413059F2CF92C05C024
:103CA000F8019581907F99F7F9CF8F2D6196EBE020
:103CB0000C94892A80919C0287FF11C08091E800B2
:103CC00082FD05C080919A028111F8CF11C08091C8
:103CD000E8008B770BC080919A02882349F080918D
:103CE000E80080FFF8CF8091E8008E778093E800AD
:103CF0000895982F973068F59093E900981739F058
:103D00007091EC002091ED005091F00003C0242F41
:103D1000762F50E021FD02C09F5FECCF3091EB0089
:103D20003E7F3093EB003091ED003D7F3093ED000E
:103D30003091EB0031603093EB007093EC002093F6
:103D4000ED005093F0002091EE0027FDE5CF80E0DC
:103D500008958F708093E90081E008952091A20278
:103D60003091A3022617370748F06115710539F421
:103D70002091E8002E772093E80001C0B901FC01F2
:103D800020E06115710579F180919A028823F1F1A3
:103D90008530F1F18091E80083FD3CC08091E8001E
:103DA00082FD2EC08091E80080FFEBCF2091F300D0
:103DB0008091F20090E0922B6115710551F08830EE
:103DC000910538F421912093F10061507109019619
:103DD000F3CF21E0089709F020E08091E8008E778A
:103DE0008093E800CECF2111CFCF0AC080919A02F4
:103DF000882361F0853061F08091E80083FD0AC07E
:103E00008091E80082FFF2CF80E0089582E008957B
:103E100083E0089581E008950895BC0184E00E9444
:103E200018130895BC0183E00E941813089580912F
:103E3000A402982F9670963011F4886001C0877F95
:103E40000E94F2270895AAE2B0E0E9E2FFE10C94B3
:103E5000752AECE9F2E084EA92E02091F1002193E6
:103E60008E179F07D1F780919D02833009F463C0BC
:103E700030F4813071F0823009F49DC0B4C08A30D2
:103E800009F489C08B3009F46EC0893009F0ABC0E9
:103E900020C080919C02813A09F0A5C08091E80081
:103EA000877F8093E8008091A0029091A102892BE6
:103EB00021F468E080E992E003C060E080E090E0F7
:103EC00070E00E94AE1E8091E8008B778093E8003E
:103ED0008AC080919C02813209F085C08091A00245
:103EE0009091A102009719F0029709F07CC080918F
:103EF000E800877F8093E8008091E80082FD05C09C
:103F000080919A028111F8CF6EC02091F3008091C8
:103F1000F20090E0922B029731F48091F100813011
:103F200011F0863021F48091F10080938F0280910E
:103F3000E8008B7754C080919C02813A09F053C00D
:103F40008091A0029091A102892B09F04CC0809130
:103F5000E800877F8093E8008091E80080FFFCCF35
:103F600080911B0137C080919C028132E1F58091E4
:103F7000A0029091A102892BB1F58091E800877F82
:103F80008093E8000E945A1E80919E0280931B013C
:103F90000E94352828C080919C02813221F58091B1
:103FA000E800877F8093E8000E945A1E80919F025C
:103FB00080938E0218C080919C02813AA1F4809176
:103FC000E800877F8093E8008091E80080FFFCCFC5
:103FD00080918E028093F1008091E8008E7780932B
:103FE000E8000E945A1E8091E80083FFDFC18091A3
:103FF0009C0290919D02492F50E04A30510508F0F3
:10400000D5C1FA01E458FF4F0C94282A803821F0DA
:10401000823809F0CBC108C0809198029091990232
:10402000992389F082600FC08091A0028F70873041
:1040300008F0BCC18093E9008091EB0085FB8827E4
:1040400080F91092E9009091E800977F9093E80042
:104050008093F1001092F10070C1282F2D7F09F09C
:10406000A5C1882319F0823061F0A0C180919E0221
:10407000813009F09BC1933009F080E08093990270
:104080002EC080919E0281112AC08091A0028F7063
:104090002FEF280F263008F089C18093E900209186
:1040A000EB0020FF1CC0933021F48091EB00806274
:1040B00014C09091EB0090619093EB0021E030E010
:1040C000A90102C0440F551F8A95E2F74093EA0008
:1040D0001092EA008091EB0088608093EB001092D0
:1040E000E9008091E800877F8093E8000E945A1ED3
:1040F0005DC181115BC110919E021F778091E30029
:104100008078812B8093E3008091E800877F809303
:10411000E8000E945A1E8091E80080FFFCCF809149
:10412000E30080688093E300111102C082E001C0C7
:1041300083E080939A023AC18058823008F036C1F9
:1041400020919E0230919F022C3D53E0350779F576
:1041500083E08A838AE289834FB7F894DE0113965D
:1041600020E03EE051E2E32FF0E050935700E4916D
:1041700020FF03C0E295EF703F5FEF708E2F90E05D
:10418000EA3010F0C79601C0C0968D939D932F5FC3
:10419000243149F74FBF8091E800877F8093E80082
:1041A0006AE270E0CE0101960E94AE1EB4C080911A
:1041B000A0029091A102432F552743305105A9F049
:1041C00068F44130510509F400C14230510509F04D
:1041D000EDC08BE590E0EDE7F6E04BC041325105D4
:1041E00029F14232510589F1E1C0C9019927813095
:1041F0009105A1F058F0029709F0D8C0EAEEF6E078
:10420000E4918E2F90E0EAEEF6E030C0E6E2F7E0CF
:10421000E4918E2F90E0E6E2F7E028C0E0E1F7E0DD
:10422000E4918E2F90E0E0E1F7E020C0833091052B
:1042300008F0BCC0880F991FFC01E659FE4F0190A1
:10424000F081E02D89E090E014C08330910508F002
:10425000ADC0FC01EE0FFF1FEC59FE4F0190F08145
:10426000E02DDC01AF59BE4F8C9190E0009709F42E
:104270009DC02091E800277F2093E8002091A202B2
:104280003091A3022817390708F4C90140E00097CC
:1042900089F120919A02222309F43DC02530D9F1F9
:1042A0002091E80023FD37C02091E80022FD2FC0B7
:1042B0002091E80020FFEBCF4091F3002091F20025
:1042C00030E0342B009759F02830310540F4449108
:1042D0004093F100319601972F5F3F4FF3CF41E0BC
:1042E0002830310509F040E02091E8002E77209336
:1042F000E800CDCF4111CDCF0AC080919A0288232A
:1043000051F0853041F08091E80083FD04C0809138
:10431000E80082FFF2CF8091E8008B778093E8007D
:1043200045C0803809F042C08091E800877F8093C3
:10433000E80080919B028093F1008091E8008E77E5
:10434000D3CE811133C080919E0290919F02992714
:10435000029764F58091E800877F8093E8001091D0
:104360009E0210939B020E945A1E111106C080915A
:10437000E30087FD02C081E001C084E080939A02DF
:1043800042E061EC81E00E94791E42E261EC84E04F
:104390000E94791E42E261EC82E00E94791E42E2B4
:1043A00060EC83E00E94791E80919A028091E8007F
:1043B00083FF10C08091E800877F8093E8008091A0
:1043C000EB0080628093EB0005C082E190E0E8EDB5
:1043D000F6E04FCFAA96E3E00C94912A1F920F9239
:1043E0000FB60F9211242F933F934F935F936F93C8
:1043F0007F938F939F93AF93BF93CF93DF93EF936D
:10440000FF93C091E900CF708091EC00D82FD1705C
:1044100080FDD0E81092E9008091F000877F8093C2
:10442000F00078940E94231F1092E9008091F00020
:1044300088608093F000CD2BCF70C093E900FF918E
:10444000EF91DF91CF91BF91AF919F918F917F912C
:104450006F915F914F913F912F910F900FBE0F90F1
:104460001F901895E8EDF0E080818E7F8083109298
:10447000E2001092DA001092E100A0EEB0E08C9120
:1044800081608C9380818F77808319BCA7EDB0E029
:104490008C918E7F8C9380818F7E808310928D0291
:1044A0000895A0E0B0E0E7E5F2E20C94702AC8EDD0
:1044B000D0E088818F7E8883E7EDF0E080818160A5
:1044C000808384E082BF81E080938D0288818E7F2B
:1044D000888302EE10E0F80110821092DA0081EE7B
:1044E000C82ED12CF601108288818F77888388812D
:1044F0008068888388818F7D888319BC10929A0296
:1045000010929B02109299021092980290EEE92E5E
:10451000F12CF70180818B7F808388818160888383
:1045200042E060E080E00E94791EF60180818E7F8B
:104530008083F801808181608083808188608083AE
:10454000F70180818E7F8083888180618883CDB7E9
:10455000DEB7E8E00C948C2A1F920F920FB60F92F0
:1045600011242F933F934F935F936F937F938F9378
:104570009F93AF93BF93EF93FF938091E10082FFEE
:1045800009C08091E20082FF05C08091E1008B7F2D
:104590008093E1008091DA0080FF2AC08091D800EA
:1045A00080FF26C08091DA008E7F8093DA008091B0
:1045B000D90080FF18C080E189BD82E189BD09B4BE
:1045C00000FEFDCF81E080939A0280918D028111DF
:1045D0000FC00E9432220E9451228091E20084602A
:1045E0008093E20005C019BC10929A0210928D02CD
:1045F0008091E10080FF17C08091E20080FF13C02E
:104600008091E2008E7F8093E2008091E2008061E1
:104610008093E2008091D80080628093D80019BC1A
:1046200085E080939A028091E10084FF30C0809100
:10463000E20084FF2CC080E189BD82E189BD09B41C
:1046400000FEFDCF8091D8008F7D8093D8008091AF
:10465000E1008F7E8093E1008091E2008F7E809365
:10466000E2008091E20081608093E20080919B02F1
:10467000882311F084E007C08091E30087FD02C029
:1046800081E001C083E080939A0280919A02809138
:10469000E10083FF27C08091E20083FF23C0809167
:1046A000E100877F8093E10082E080939A0210927C
:1046B0009B028091E1008E7F8093E1008091E20077
:1046C0008E7F8093E2008091E20080618093E2001F
:1046D00042E060E080E00E94791E8091F0008860F6
:1046E0008093F000FF91EF91BF91AF919F918F91D7
:1046F0007F916F915F914F913F912F910F900FBEDE
:104700000F901F9018952091E4003091E50095E6F8
:104710004091EC00842F817040FF23C08091E8001D
:1047200080FD1DC080919A02882399F0853099F010
:104730008091EB0085FD11C04091E4005091E500AF
:104740002417350729F3915011F09A01E1CF84E045
:10475000089582E0089583E0089581E0089580E05F
:1047600008954091E80042FFDDCF0895EF92FF9257
:104770000F931F93CF93DF937C018B010E948323C0
:10478000811119C0E70101151105A1F08091E80020
:1047900085FD0AC08091E8008E778093E8000E9432
:1047A0008323882381F307C089918093F10001500E
:1047B0001109E9CF80E0CDB7DEB7E6E00C948E2A90
:1047C0009091230290FF0CC0EDEEF1E081836083B5
:1047D0004283339692E0E332F907C1F70E94DD1677
:1047E000089580912302282F269530E02115310568
:1047F00019F48170826005C02532310524F0817082
:104800008864809323020895CF92DF92EF92FF9203
:104810006B017C010E94F123B701A60188E090E0C2
:104820000E949E29FF90EF90DF90CF900895809195
:104830002702882319F08150809327026091230278
:104840007091240280912502909126020E940424F6
:10485000089580912702833018F48F5F8093270298
:10486000609123027091240280912502909126028A
:104870000E9404240895E3E2F2E083E08083118241
:104880008FEF82838383148260817181828193811F
:104890000E9404240895A0E0B0E0E1E5F4E20C9465
:1048A0006E2AE82EF62EE901E42FF0E0611106C031
:1048B000E65DF84FE4914E2F2E2F71C0062F10E0C9
:1048C000E65DF84F4491F42FC42ED12C26E0829F50
:1048D000C00111242FEF30E0B9010E94DE295BEA0C
:1048E0005603C001579F900D11248E0D911D8E0D02
:1048F000911D582F550F580FD901A01BB10BAC9D1E
:10490000C001AD9D900DBC9D900D1124E92FF59E29
:10491000D0011124AB2FBB277901EA1AFB0AEC9CCA
:10492000D001ED9CB00DFC9CB00D11245901A51ACD
:10493000B108A09E7001A19EF00CB09EF00C112455
:10494000EF2CFF242E193F092C9D80012D9D100D69
:104950003C9D100D1124212F6230710591F048F417
:1049600061157105E1F061307105B9F4242F4B2F09
:1049700016C06430710569F040F06630710579F059
:104980000CC0242F492FE12F0AC0492FEF2F2B2FC6
:1049900006C0292FE42F412F02C0292FEB2F498376
:1049A0002883EA83CDB7DEB7EAE00C948A2AA3E035
:1049B000B0E0EDEDF4E20C94762A9091230290FFA2
:1049C0000AC09E012F5F3F4F0E944B244B8169819B
:1049D0008A810E94E0232396E2E00C94922AA3E0CD
:1049E000B0E0E5EFF4E20C94692AF82E762EE42E7E
:1049F000622E9091230290FF67C0E92FE695AE2FBB
:104A0000B0E0A059BE4F8C918093E8019E7F923018
:104A100061F49E012F5F3F4F8F2D0E944B244B81ED
:104A200069818A810E94E0233DC0823019F4E090C0
:104A3000260238C0863019F4F090240233C0893041
:104A4000D9F3893179F5E9518E2F8170582EE69589
:104A5000F0E0E65DF74FE4910E2F10E08DEEC82EEA
:104A600081E0D82EA12CB12C92E1892E912CC50188
:104A7000B4010E94DE298F2D511002C0860F01C0A3
:104A8000861B96014E2D672D0E944B24A00EB11E51
:104A900083E0C80ED11C83E2C81682E0D80639F73D
:104AA0000E94DD16F092240270922502E092260206
:104AB000662051F0609123027091240280912502BA
:104AC000909126020E9404242396EFE00C94852AFC
:104AD000E3E2F2E0438128E0421B08F440E021E0F9
:104AE000628181810E94EF240895E3E2F2E0438134
:104AF00028E0420F08F44FEF21E0628181810E949B
:104B0000EF240895E3E2F2E0628128E0621B08F4FA
:104B100060E021E0438181810E94EF240895E3E277
:104B2000F2E0628128E0620F08F46FEF21E0438138
:104B300081810E94EF240895E3E2F2E0818121E087
:104B40004381628188500E94EF240895E3E2F2E0FD
:104B5000818121E043816281885F0E94EF24089572
:104B60009091230290FF36C09170811102C0926033
:104B700006C0853210F0986402C0880F982B90937D
:104B80002302662351F060912302709124028091E8
:104B90002502909126020E940424609123026695CA
:104BA00070E04BE050E08CE091E00E94A92A892B54
:104BB00019F01092E90102C00E94C71681E08093AB
:104BC000E50120E0409126026091250280912402B7
:104BD0000E94EF240895809123028695815009F464
:104BE00084E261E00E94B0250895809123028695B9
:104BF0008F5F853208F081E061E00E94B025089562
:104C00000E949B132091AE02211104C02091AF029B
:104C1000222321F09093AB028093AA022091B0024C
:104C2000211104C02091B102222321F09093A90206
:104C30008093A802E0913102F0913202309749F05E
:104C400082E08093AC020480F581E02D8CEA92E052
:104C500009950895803F39F49091AF0297FF35C0D0
:104C60001092AF0259C0813F29F49091AF021916FA
:104C7000BCF32BC09091AE02823F29F497FF25C070
:104C80001092AE0249C0833F19F41916CCF31DC02F
:104C90009091B002893F29F41916BCF41092B00229
:104CA0003BC08A3F19F497FF10C0F8CF8B3F39F40F
:104CB0009091B10297FF09C01092B1022DC08C3FB4
:104CC00021F49091B1021916BCF39CE0980F953035
:104CD00080F421E030E0A90102C0440F551F9A95ED
:104CE000E2F7CA0180959091AD0289238093AD02CD
:104CF00013C08D3F21F48091A7028E7F0BC08E3FA1
:104D000021F48091A7028D7F05C08F3F29F4809107
:104D1000A7028B7F8093A7028091AE02811106C00B
:104D20008091AF02811102C01092A6028091B00260
:104D3000811106C08091B102811102C01092A502BA
:104D400008958091A70280FD16C081FD16C082FDE6
:104D500018C08091A502882391F0883290F428E051
:104D6000829FC001112468E270E00E94F229862F20
:104D7000672B29F007C082E0089584E0089581E060
:104D8000089588E008958091A70280FD14C081FDF8
:104D900014C082FD16C08091A602882381F08E3156
:104DA00080F420E5829FC00111246EE170E00E9432
:104DB000F229862F089584E1089588E2089588E015
:104DC000089580E50895803F21F40E94C3268195CF
:104DD00004C0813F29F40E94C3268093AF02089546
:104DE000823F21F40E94C326819504C0833F29F4A9
:104DF0000E94C3268093AE020895893F19F40E9451
:104E0000A12605C08A3F31F40E94A1268195809396
:104E1000B00208958B3F21F40E94A126819504C021
:104E20008C3F29F40E94A1268093B10208959CE052
:104E3000980F953078F421E030E0A90102C0440FCA
:104E4000551F9A95E2F7CA019091AD02892B809384
:104E5000AD0208958D3F21F48091A70281600BC0BF
:104E60008E3F21F48091A702826005C08F3F29F414
:104E70008091A70284608093A702089580E090E06B
:104E80000E940D1480E090E00E94F71310928602B9
:104E90000E94DE1BECEAF2E086E0DF011D928A95BB
:104EA000E9F71092A6021092A5021092A7020E94A2
:104EB00000260895CF92DF92FF920F931F93CF9316
:104EC000DF936C010091A40280918902082BC7E056
:104ED000D0E010E0C8010C2E02C0959587950A9489
:104EE000E2F780FD04C02197A8F7F12C09C0FC2E41
:104EF000B6018C2F0E9433150E94AF19019799F3C8
:104F00008F2DDF91CF911F910F91FF90DF90CF9068
:104F10000895292F9B3078F5893068F590E039E0C5
:104F2000239F800D911D1124682F677023E09695B3
:104F300087952A95E1F7FC01EE0FFF1FE80FF91F97
:104F4000EE54FD4F40E050E080E0219130E0062E2D
:104F500002C0369527950A94E2F721703327042E74
:104F600001C0220F0A94EAF7822B4F5F5F4F433054
:104F7000510559F7089580E00895292F9B3088F551
:104F8000893078F590E039E0239F800D911D112440
:104F9000282F277051E001C0550F2A95EAF723E02A
:104FA000969587952A95E1F7FC01EE0FFF1FE80F14
:104FB000F91FEE54FD4F20E030E070E04081CB015E
:104FC000022E02C0969587950A94E2F7817081952A
:104FD00084278523842781932F5F3F4F233031051A
:104FE00069F708958093A4020E943E27089521E066
:104FF00030E001C0220F8A95EAF720958091A40243
:1050000082230E94F227089521E030E001C0220FA0
:105010008A95EAF78091A402822B0E94F2270895D4
:10502000809389020E943E270895FC01808191812E
:105030000E94C61C92959F70963079F010F49250A1
:1050400001C09A50923068F4803F69F018F4883EAD
:1050500040F409C0843F29F406C0883E20F0813F17
:1050600011F080E0089581E008951092870286E0B3
:10507000EFE3F2E0DF011D928A95E9F70E943E27F7
:105080000895882321F00E94D71B0E94DE1B0895FB
:10509000882339F090918702892B809387020E94A0
:1050A000DE1B0895882309F45FC0823869F40E94EA
:1050B000231481FF59C069E38DE392E00E94DD1360
:1050C0000E94DE1B69E30EC0833899F40E9423140A
:1050D00080FF4AC063E58DE392E00E94DD130E94E9
:1050E000DE1B63E58DE392E00E94D0130E94DE1B7D
:1050F0000895843869F40E94231482FF35C067E460
:105100008DE392E00E94DD130E94DE1B67E4EACF8C
:105110009CEF980F913A10F4682FE4CF90E2980F2B
:10512000983050F4877091E001C0990F8A95EAF7A2
:10513000892F0E94D71BDACF9BE5980F933028F474
:1051400080E090E00E940D14089598E5980F973143
:1051500028F480E090E00E94F7130895803F20F04B
:105160000E942A260E9400260895CF93882309F4DE
:105170009EC0C82F8238B1F40E94231481FD97C0CD
:1051800069E38DE392E00E94DD130E94DE1B2FEFA6
:1051900081EE94E0215080409040E1F700C0000093
:1051A00069E317C08338E1F40E94231480FD7FC0B7
:1051B00063E58DE392E00E94DD130E94DE1B2FEF7A
:1051C00081EE94E0215080409040E1F700C0000063
:1051D00063E58DE392E00E94D0130E94DE1B67C05E
:1051E0008438B1F40E94231482FD61C067E48DE32A
:1051F00092E00E94DD130E94DE1B2FEF81EE94E00F
:10520000215080409040E1F700C0000067E4E1CF0A
:105210008CEF8C0F813A80F4EFE3F2E085E492E0CA
:105220002191C217E1F18E179F07D1F76C2F8DE303
:1052300092E00E94DD13D1CF80E28C0F883068F4B9
:10524000C77081E090E001C0880FCA95EAF790919D
:105250008702892B80938702C0CFEBE5EC0FE33008
:1052600040F4F0E0E05DFE4F808190E00E940D147C
:105270001EC0E8E5EC0FE73150F4F0E0EE0FFF1F41
:10528000ED5CFE4F808191810E94F71310C0C03FFA
:1052900070F08C2F0E94E3260E94002608C06C2F1D
:1052A0008DE392E00E94D0130E94DE1BBFCFCF910E
:1052B00008951F93CF93DF93182F893319F0C0E01F
:1052C000D0E002C0C0E5D0E0812F0E94B528209731
:1052D00041F08FE99FE00197F1F700C000002197AE
:1052E000F6CF812F0E945228DF91CF911F91089510
:1052F000F999FECF92BD81BDF89A992780B508959E
:10530000A6E1B0E044E050E00C94B229A8E1B0E09E
:1053100042E050E00C94B229262FF999FECF92BDBD
:1053200081BDF89A019700B4021639F01FBA20BD6A
:105330000FB6F894FA9AF99A0FBE08950396272F9C
:105340000E948D290E948C29252F0E948D29242FAF
:105350000C948D290196272F0E948D290C948C295D
:10536000DC01CB01FC01F999FECF06C0F2BDE1BD25
:10537000F89A319600B40D9241505040B8F7089514
:10538000DB018F939F930E94532ABF91AF91A29FFD
:10539000800D911DA39F900DB29F900D1124089533
:1053A00087FB082E062687FD819567FD61950E9483
:1053B0009D2A0EF4919507FC81950895AA1BBB1BAD
:1053C00051E107C0AA1FBB1FA617B70710F0A61B05
:1053D000B70B881F991F5A95A9F780959095BC0126
:1053E000CD01089597FB072E16F4009407D077FDA2
:1053F00009D00E94DE2907FC05D03EF490958195E6
:105400009F4F0895709561957F4F0895A1E21A2EE0
:10541000AA1BBB1BFD010DC0AA1FBB1FEE1FFF1F58
:10542000A217B307E407F50720F0A21BB30BE40BA8
:10543000F50B661F771F881F991F1A9469F76095EF
:105440007095809590959B01AC01BD01CF010895A9
:10545000EE0FFF1F0590F491E02D09946927962720
:10546000692778278727782708950E943D2A3323C4
:1054700012F48A1B9B0B0C944E2AA29FB001B39F7F
:10548000C001A39F700D811D1124911DB29F700D4D
:10549000811D1124911D08950E943D2AB7FF089592
:1054A000821B930B08950E943D2AA59F900DB49FE7
:1054B000900DA49F800D911D11240895B7FF0C94A9
:1054C000532A0E94532A821B930B08952F923F92D6
:1054D0004F925F926F927F928F929F92AF92BF9204
:1054E000CF92DF92EF92FF920F931F93CF93DF93B0
:1054F000CDB7DEB7CA1BDB0B0FB6F894DEBF0FBE0D
:10550000CDBF09942A88398848885F846E847D8459
:105510008C849B84AA84B984C884DF80EE80FD805B
:105520000C811B81AA81B981CE0FD11D0FB6F894D1
:10553000DEBF0FBECDBFED010895991B79E004C019
:10554000991F961708F0961B881F7A95C9F78095C2
:105550000895FC014150504030F001900616D1F7FB
:105560003197CF010895882799270895FB01DC0121
:1055700004C08D910190801921F441505040C8F72A
:0A558000881B990B0895F894FFCFE3
:10558A00ED118E126F12121F0D1F0C1F01191A1B1B
:10559A001C1D1E1F202122010201010190919293DC
:1055AA009594969734C63031323337F7F6F5F4F1DD
:1055BA00818283E200E900EA00B500B600B700CDB7
:1055CA00008301CC008A0192019401210223022462
:1055DA00022502260227022A02B300B4006F0070D5
:1055EA000040227B3D061B06A0058F06A806C806BA
:1055FA000001020202020606060909090909090F41
:10560A000F0F0F0F0F15151518191919191919193F
:06561A00191919232400F8
:00000001FF
