:100000000C94F4030C942C040C942C040C942C04E9
:100010000C942C040C942C040C942C040C942C04A0
:100020000C942C040C942C040C94D2190C948D1860
:100030000C94C01B0C942C040C942C040C942C04D5
:100040000C942C040C942C040C942C040C942C0470
:100050000C942C040C947F1B0C942C040C942C04F6
:100060000C942C040C942C040C942C040C942C0450
:100070000C942C040C942C040C942C040C942C0440
:100080000C942C040C942C040C942C040C942C0430
:100090000C942C040C942C040C942C040C942C0420
:1000A0000C942C040C942C040C942C047A0A7A0AD8
:1000B000AD0AAD0A180B360B420C420C410BB50BC6
:1000C000C60BC60B211024104C10591060106B1079
:1000D0006E107F109610321132119B109D10A210DD
:1000E000C710E910EC10EF101211F41E1B1FCA20EC
:1000F0001B1FCA20671F8A1FCA2080209020686F9C
:1001000074646F782F766961204020302E31372E4D
:1001100038006261636B6C69676874206465637240
:10012000656173653A2025750A006261636B6C69CD
:1001300067687420696E6372656173653A2025751E
:100140000A006261636B6C6967687420646973613B
:10015000626C650A006261636B6C69676874206534
:100160006E61626C650A006261636B6C69676874DA
:1001700020746F67676C653A2025750A00626163B9
:100180006B6C6967687420737465703A2025750A12
:1001900000556E69636F646520696E707574206DBB
:1001A0006F64652073657420746F3A2025750A00AA
:1001B00044454255473A2064697361626C65642E18
:1001C0000A0044454255473A20656E61626C656499
:1001D0002E0A00556E69636F646520696E707574D0
:1001E000206D6F646520696E697420746F3A2025F4
:1001F000750A005B735D000A002530313662003AF3
:10020000200025303258000A722F632030313233FB
:100210003435363738394142434445460A000A00EE
:1002200025303258006C65645F7461736B3A20004E
:100230004F6E6573686F743A206163746976653ACE
:100240002025640A000A002530325820006B6579A9
:10025000626F6172645F7265706F72743A20002E13
:10026000001E001F0020002100220050004F00232C
:100270000024002500260027002D004C0014001A41
:1002800000080015001700015301531C0018000C52
:10029000001200130031002A0004001600070009B4
:1002A000000A00000000000B000D000E000F0033DC
:1002B000423468E1001D611B0006001900050000C2
:1002C0006F006711001000360037003861E5003517
:1002D000413400E10450004F000000000000000025
:1002E00000520051002F003000000000002C002AB6
:1002F000004D004A006564E300E20029614B004EB6
:10030000002B002800000001003A003B003C003DAB
:10031000003E00010001003F004000410042004358
:1003200000440001001E021F022F023002310201B0
:10033000000100520024002500260025024500018E
:100340000020022102260227023500000000005191
:10035000002100220023002E0201000100220223BE
:10036000022F00300035020100010024021E001F90
:100370000020003100010001000100010001000126
:100380000000000000000000000100370027002EE0
:100390000001000000CA5CC95C01000100C35C01EF
:1003A0000001000100010001000100010000000146
:1003B0000001000100010001000100010001000135
:1003C0000001000100010001000100010001000125
:1003D00000F0000100010001000100010001000126
:1003E0000001000100010001000100F200F100F332
:1003F00000010000000000010001000100010001F7
:1004000000AE000100010001000100010001000137
:1004100000010001000100AC00AB0001000100017F
:100420000001000100F400F50000000000000000E1
:1004300000A900AA00A800010001000000010001BD
:1004400000010001000100010001000100010001A4
:10045000000100B60000006164645F6B65795F6253
:1004600069743A2063616E2774206164643A2025C0
:100470003032580A0064656C5F6B65795F6269743D
:100480003A2063616E27742064656C3A202530320F
:10049000580A005B435D005B445D005B535D005B9D
:1004A000575D005B525D000631FF0974A1010975BB
:1004B000150026FF00952075088102097615002693
:1004C000FF00952075089102C005010902A1018570
:1004D000020901A100050919012908150025019546
:1004E00008750181020501093009311581257F95C3
:1004F000027508810609381581257F9501750881E7
:1005000006050C0A38021581257F950175088106BC
:10051000C0C005010980A101850319012AB7001592
:100520000126B700950175108100C0050C0901A1D5
:1005300001850419012AA002150126A00295017562
:10054000108100C005010906A1018506050719E013
:1005500029E7150025019508750181020507190095
:1005600029EF1500250195F0750181020508190193
:100570002905950575019102950175039101C00644
:1005800060FF0961A1010962150026FF0095207531
:100590000881020963150026FF0095207508910265
:1005A000C005010906A101050719E029E715002585
:1005B00001950875018102950175088101050719EA
:1005C0000029FF150026FF00950675088100050823
:1005D0001901290595057501910295017503910190
:1005E000C009027B00040100A0FA09040000010315
:1005F00001010009211101000122400007058103CA
:100600000800010904010002030000000921110192
:1006100000012222000705820320000107050303D1
:10062000200001090402000103000000092111015A
:10063000000122B60007058403200001090403001D
:100640000203000000092111010001222200070518
:1006500085032000010705050320000112010002A7
:10066000000000084B4101000100010200012803C5
:100670004500720067006F0064006F007800200082
:10068000370036002000220048006F00740044004C
:100690006F00780022000000220341006C0070000F
:1006A00061006300610020004B006500790062007A
:1006B0006F0061007200640073000000040309040D
:1006C0006D637032333031372064656174746163F7
:1006D0006865642121210A006D637032333031373F
:1006E0002061747461636865642121210A0000003F
:1006F00000000000000000000000000000000000FA
:1007000000000000000000000000000000000000E9
:1007100000007E0F00D4FFFFFFC70000007800003C
:100720000000000000002A2B28000000000000004C
:1007300000000000000000000029000000002C1E46
:100740003420212224342627252E362D3738271E03
:100750001F202122232425263333362E37381F0429
:1007600005060708090A0B0C0D0E0F1011121314C1
:1007700015161718191A1B1C1D2F3130232D35047F
:1007800005060708090A0B0C0D0E0F1011121314A1
:1007900015161718191A1B1C1D2F3130354C290A34
:1007A000002575002F002575005D280025640020B8
:1007B00000256400200025640020002564007C00E2
:1007C00025303258006D6F7573656B6579205B62FB
:1007D000746E7C782079207620685D287265702F91
:1007E00061636C293A205B0011241FBECFEFDAE071
:1007F000DEBFCDBF04B603FE18C08091BD0290914C
:10080000BE02A091BF02B091C0028730904BA740BA
:10081000B04B59F41092BD021092BE021092BF026A
:100820001092C002E0E0F8E3099511E0A0E0B1E029
:10083000EEE9F3E502C005900D92A235B107D9F7B4
:1008400022E0A2E5B1E001C01D92AD3BB207E1F7A5
:100850000E946D0C0C94CD290C940000FF93EF9333
:10086000E0915201F0915301309709F00995EF9111
:10087000FF910895FC018591803011F0EFDFFBCFEF
:100880000895FF27E0E230E247FF0CC0419597FF53
:1008900009C0EDE26095709580959095611D711D80
:1008A000811D911D27FF02C0219530E350E2AA2748
:1008B000660F771F881F991FAA1FA41710F0A41B8B
:1008C00063955A95A9F7AA3008F0A95FA05DAF9388
:1008D000F395611571058105910541F7ED3211F42C
:1008E000EF93F395F21718F43F93F395FBCF8F91A5
:1008F000B5DFFA95E1F70895E991F9918591803096
:1009000021F0853219F0AADFF9CF089520E0E894AC
:1009100055915532C1F3503311F4689455915A33BF
:1009200048F4505390F3220F022E220F220F200D75
:10093000250FF4CF0EF4219589919991533619F32F
:10094000533729F1533559F1BC0188279927E89489
:100950005C3621F48991999168945591543639F413
:1009600046EF7EF077FF0DC08FEF9FEF0AC055373F
:100970004AE039F0583540E121F0523642E009F0C2
:100980000895FF93EF937DDFEF91FF91B7CFFF9332
:10099000EF93FC0181918030B9F360DFFBCFFF93CF
:1009A000EF9368DFF1CFDF93CF93CDB7DEB7259616
:1009B000A3DFCF91DF910895A9E0B0E0E2EEF4E08B
:1009C0000C948F29FC018081918123813481232B18
:1009D00031F09F3F31F491E08F3F19F403C091E073
:1009E00001C090E090FD75C77F0185E0DE011196A2
:1009F00001900D928A95E1F7F701228189819A8110
:100A0000222349F00E94F714182F682F89819A81B8
:100A10000E94EE1603C00E94BA16182F69817A81CF
:100A2000812F0E941A1D8C01F7018281882309F40D
:100A3000A1C0980122513F452031310508F0B6C0D0
:100A40008FEF93E00E94BA2881119EC002517FE18E
:100A5000C72E72E0D72E002379F0C114F4E0DF0630
:100A600009F492C0C6010E94BA28811101C0015048
:100A70002FEFC21AD20AEFCF1E821F821886198664
:100A8000BB24B3946AE0A62E86010F5F1F4FC601F8
:100A90000E94BA288E831F82882309F475C09FEFB5
:100AA000980F933060F48F83BE8282E0C80ED11C11
:100AB000C8010E94BA288887811102C065C06801F8
:100AC0008E010A5F1F4FF80180818823E9F281308F
:100AD00009F04BC08181813049F44801F2E08F0E6A
:100AE000911CF80182810E949B280AC0823051F437
:100AF0004801F2E08F0E911CF80182810E94D827F4
:100B0000840135C0833049F44801F2E08F0E911C16
:100B1000F80182810E947527F3CF843019F00F5FAE
:100B20001F4F25C0F80122810E5F1F4F80E090E02B
:100B300030E0205331092A30310568F4A89EA00125
:100B4000A99E500D1124C901840F951F0F5F1F4FDF
:100B5000F8012081EDCF009751F0EFE9FFE03197E8
:100B6000F1F700C000000197F6CF0E94F7210F5F58
:100B70001F4FA9CF00319FE5190709F0A1C681E0F9
:100B80000E9428170E94DC1D80914202877009F4A0
:100B9000A0C6F7018281882309F49BC68091770261
:100BA00082FF97C682E00E94351793C60031FFE5A9
:100BB0001F0711F481E005C001312FE5120721F470
:100BC00082E00E948117DECF0D3AFDE51F0709F094
:100BD0005FC08823C9F24EEFC42E40E0D42E5AE005
:100BE000B52EF6018491882379F2813009F048C04E
:100BF00086010F5F1F4FF8018491813039F40F5F38
:100C00001F4FF80184910E949B283DC0823041F41F
:100C100086010E5F1F4FF80184910E94D82733C0D0
:100C2000833041F486010E5F1F4FF80184910E94CA
:100C3000752729C0843039F586010E5F1F4FF801F2
:100C4000249180E090E030E0205331092A303105D2
:100C500068F4B89EA001B99E500D1124C901840FFB
:100C6000951F0F5F1F4FF8012491EDCF009759F0AA
:100C7000EFE9FFE03197F1F700C000000197F6CFF0
:100C80000E94F72186016801FFEFCF1ADF0AA9CF82
:100C90000E3A2DE5120709F477CF882309F41CC119
:100CA0000D3B2CE5120701F158F40B3B9CE51907AD
:100CB00099F00C3BECE51E0709F0EFC080E00DC099
:100CC0000F3BFCE51F0709F462C0B8F1003C8CE55E
:100CD000180709F4A3C0E1C083E00E94F4248091C6
:100CE000BC020E94EE2450CF8091BC02982F9695B2
:100CF00096959695A1F0915E990F990F990F87702F
:100D0000892B8093BC02887F91E009F490E0809168
:100D1000BC0290FB80F98093BC020E94EE2480917B
:100D2000700280FFB2C08091BC0286958695869540
:100D30001F928F9382E191E0A0C02091BC02822F8C
:100D4000869586958695482F50E04330510554F49A
:100D50008F5F982F990F990F990F822F8770892B8A
:100D60008093BC028091BC0281608093BC020E948F
:100D7000EE248091700280FF88C08091BC0286952D
:100D8000869586951F928F938AE291E076C01091A6
:100D9000BC0211708091700280FF0CC01F921F93E3
:100DA00087E691E09F938F930E94D3040F900F905A
:100DB0000F900F908091BC021123A9F080FFE4CE28
:100DC0008E7F8093BC020E94EE248091700280FF8F
:100DD00008C082E491E09F938F930E94D3040F9008
:100DE0000F9080E057C080FDCFCE81608093BC0221
:100DF000813019F489E08093BC028091BC020E948A
:100E0000EE248091700280FF40C085E591E09F93C1
:100E10008F930E94D3040F900F9037C09091BC0223
:100E2000892F8695869586958F5F8F719770843010
:100E300038F4880F880F880F892B8093BC0202C07A
:100E40009093BC028091BC02887F91E009F490E00D
:100E50008091BC0290FB80F98093BC020E94EE243A
:100E60008091700280FF11C08091BC0286958695AA
:100E700086951F928F938DE791E09F938F930E94A9
:100E8000D3040F900F900F900F908091BC02869525
:100E9000869586950E94492477CEC801815E9C453F
:100EA0000597D0F46FE1600F6093AC018CE090E0A7
:100EB0000E94C8288091700280FF0EC08091AC0112
:100EC0001F928F9381E991E09F938F930E94D304A7
:100ED0000F900F900F900F9017FFB4C0F701828111
:100EE000882309F4AFC00E94941C8695817080937A
:100EF00056010E94941C8170809355018091AC0131
:100F0000813039F480915601882319F089E30E94D9
:100F10009B28809164028093540110926402109285
:100F200063028091AC01813071F048F08230C1F0F1
:100F3000843049F586EE0E949B2888E122C082EE2B
:100F40000E94D82720C083E00E945A2788E10E948F
:100F5000D82788E10E94752783E00E944F2713C09D
:100F600080915501811103C083E50E949B2882EE88
:100F70000E94D8278FE39CE90197F1F700C0000099
:100F800087E50E949B28EFE3FCE93197F1F700C069
:100F900000005801E894B7F82CE0C22ED12C3AE0BA
:100FA000832E912CC5010C2C02C0969587950A942E
:100FB000E2F78F709091AC01923069F48A3038F486
:100FC00090E00996B4010E942C29875A01C08650EE
:100FD0000E949B2809C096EF980F963010F0805D14
:100FE00001C0895A0E94F721F4E0CF1AD1082CEFF2
:100FF000C2162FEFD206B1F68091AC01813059F0C4
:1010000030F0823089F08430C9F488E215C082EE75
:101010000E94752713C08CE20E949B288091560184
:10102000882361F089E308C082EE0E9475278091D1
:101030005501811103C083E50E949B2880915401D2
:1010400080936402033F8CE5180741F190F4083D5A
:10105000ECE51E07E9F0093DFCE51F0789F1073DB6
:101060002CE51207B1F506E221EE41EE67ED7CE5D5
:101070002CC0053F8CE51807E9F0B0F0063FECE521
:101080001E0739F507E225EE46EE66EF7CE51DC04A
:1010900007E225EE45EE68ED7CE517C006E221EE9D
:1010A00040EE63EF7CE511C007E225EE44EE64EF0D
:1010B0007CE50BC006E221EE42EE65EF7CE505C063
:1010C00008E221E045EE69ED7CE5C7010E94A11C24
:1010D0005BCDF7018281882309F45EC11092690219
:1010E0000330FDE51F0758F40A3F2CE5120780F492
:1010F000C80182509C45449708F038C109C00136A8
:101100008DE5180729F0053A9DE5190709F02EC16C
:101110000E94601390937702809376020131ECE590
:101120001E0709F4C9C008F043C009302CE51207B6
:1011300009F49EC008F505309CE5190709F488C03C
:1011400080F40330FCE51F0709F47BC008F07DC084
:1011500002308CE5180709F0F9C0809176028160B1
:10116000F3C007309CE5190709F47AC008F07CC089
:10117000809176028061E8C00D30FCE51F0709F41C
:1011800089C058F40B308CE5180709F47BC008F0CF
:101190007DC080917602886071C00F30ECE51E073B
:1011A00009F482C008F084C080917602877FCCC0A9
:1011B0000D3F2CE5120709F473C008F505319CE5D5
:1011C000190709F487C068F40331FCE51F0709F427
:1011D00077C008F097C00E943927809176028F77F8
:1011E000B3C00B3F8CE51807B9F108F056C00A3FB1
:1011F000ECE51E0709F0AAC08091770241C00130DA
:10120000FDE51F0709F48AC058F40F3F8CE5180765
:1012100009F45BC008F06AC080917702826030C038
:101220000136EDE51E0709F47FC0053AFDE51F070D
:1012300009F484C002302DE5120709F087C060E090
:101240006EC08091760282607FC08091760216C067
:1012500080917602886078C08091770282604FC06A
:1012600080917602806270C08091760280646CC04A
:101270000E94392780917602806866C0846064C0CD
:1012800081603DC0809176028E7F5EC08091760243
:101290008D7F5AC08091760216C08091770218C067
:1012A000809177028D7F2BC0809176028F7E4CC01B
:1012B000809176028F7D48C0809176028F7B44C0FA
:1012C00080917602877F8B7F3FC0809177028D7FF0
:1012D0008E7F15C08091760282FB222720F991E053
:1012E000922790FB82F990FB83F92EC080917702C0
:1012F000982F909591708E7F892B90FB81F9809328
:10130000770224C00E9439278091760287FB22272A
:1013100020F991E0922790FB87F916C061E08EE0FA
:1013200090E00E94C82812C08091760284FB222798
:1013300020F991E0922790FB84F906C08091760213
:10134000982F909590FB80F98093760260917602B9
:101350001091770284E090E00E94C828612F82E219
:1013600090E00E94C8280E9439270ECC06318CE5F7
:10137000180721F5809164028A7A91E009F490E0DF
:1013800090935701882311F065E301C069E289EC6D
:1013900091E00E94221C0FC00631FCE51F0709F0F6
:1013A0005CC080915701882309F491C265E389EC00
:1013B00091E00E94E91B0E94F513E6CB0A358DE50A
:1013C000180709F445C0D0F40130ECE51E0701F11F
:1013D0000E3DFCE51F0779F101152CE51207E9F533
:1013E0000E943927FFEF24E38CE0F1502040804039
:1013F000E1F700C000000E945B1BC6CB0C358DE5F9
:101400001807F1F038F1073AEDE51E07B1F025C0F5
:1014100080917002982F9095917090FB80F9809345
:101420007002992319F082EC91E002C080EB91E008
:101430000E943A04A9CB0E947D130E945422A4CB9F
:101440008091770282FB882780F991E0892703C089
:1014500081E001C080E00E945217F7018281008183
:101460001181882349F0C8010E94F714D82E682FF3
:10147000C8010E94EE1604C0C8010E94BA16D82EF8
:10148000B8018D2D0E941A1D0E94C611B82E192F69
:10149000982EF7010281A580A2949FE0A922809155
:1014A00042028770B9F00023A9F0812F807F803439
:1014B00021F080E28B0D883068F08091770282FF06
:1014C00009C082E00E943517809142028770DD24B6
:1014D000D3948111D12CC12EC2948FE0C8228C2DBF
:1014E00090E08C30910508F0CDC1FC01EA5AFF4F25
:1014F0000C946229812F807F1F70882311F0129530
:10150000107F0023B9F0112309F4AAC180E28B0DEA
:10151000883010F0911006C080916402182B10934F
:10152000640205C080916302182B109363020E942D
:10153000F51396C18B2D0E947527112309F4A2C1C2
:1015400080E28B0D883080F1992071F110958091A7
:1015500063021823109363022AC0812F807F1F70BB
:10156000803211F01295107F8B2D992021F0F1E03F
:101570009F16D9F147C08091770282FD1BC00023DE
:1015800069F0112339F080916402182B10936402E2
:101590000E94F51380E00E94D82774C180E00E9469
:1015A0007527112309F46EC1812F0E94EE130E944A
:1015B000F51368C1002381F080916502AA2051F0E3
:1015C00021E0A21207C0182B181709F45BC1109371
:1015D000650258C1812B10C0AA2021F081E0A81615
:1015E00009F450C10E94E8131FC0002341F091E0AC
:1015F0009A1508F447C1812F0E946B2743C1A1109F
:1016000041C112C0002319F0AA20A9F329C1AA20C0
:1016100059F0893309F033C1EFEFF7EE23E0E150E1
:10162000F0402040E1F729C1812F0E9464272AC1A0
:10163000812F86958695837019F0813061F022C1E3
:10164000002321F08B2D912F937002C080E090E059
:101650000E947E1C1DC1002321F08B2D912F9370C1
:1016600002C080E090E00E94681C12C18B2D002314
:1016700019F00E94A22602C00E94E6250E943A2587
:1016800007C1812F8370A9F5011100C14B2D42952F
:1016900046954770440F440F8B2D8F7090E09C014E
:1016A000042E01C0220F0A94EAF7B4FE08C08FE0AE
:1016B00090E001C0880F4A95EAF7809501C080E06C
:1016C000169516951370123069F088F490916602A1
:1016D000113019F0822B892302C0922B892B0E9492
:1016E0008D17D4C0822B909166028927F8CF822B68
:1016F000F6CF002319F0812F817001C086958823D1
:1017000009F4C4C04B2D429546954770440F440FD1
:101710008B2D8F7090E09C01042E01C0220F0A9443
:10172000EAF7B4FE08C08FE090E001C0880F4A9548
:10173000EAF7809501C080E0169516951370123077
:1017400059F078F49091AD02113019F0822B892371
:1017500009C0922B892B06C0822B9091AD0289275C
:1017600001C0822B0E94231791C01F70002339F003
:10177000812F0E9481178B2D0E946B2787C08B2D94
:101780000E946427812F0E94281780C08B2D92EF22
:10179000991671F1991538F0E0EF9E1659F0F1EFB6
:1017A0009F1609F159C023EF921649F194EF99164B
:1017B000B1F052C0002371F0A11064C01F7181E02C
:1017C00090E0012E01C0880F0A94EAF79091AD02D3
:1017D000892720C0E1E0EA1508F454C0EFCF8091DA
:1017E000770282FD1AC0002329F0812F8F7127C054
:1017F0000023D9F3812F8F710E94281743C0002343
:1018000041F01F7181E0012E01C0880F0A94EAF7B0
:1018100001C080E00E94231735C0002399F01F719A
:10182000812F0E9481178091770282FF07C0F8E024
:101830001F9FC0011124836080934202812F0E9468
:10184000811720C081E00E94351721E02A15D0F4CD
:1018500082E00E94351716C0002321F0AA2029F249
:101860008B2D99CEAA2031F2893349F48FEF97EE70
:10187000E3E081509040E040E1F700C000008B2D94
:101880000E94752788EF8C0D843010F40E94941C00
:10189000DD20F9F08091420280FD1BC0F701128229
:1018A0008595859585950E948117C7010E94DC0466
:1018B000809142028595859585950E94281709C0DB
:1018C0000131EFE51E0709F07FC982E059C969E2DD
:1018D0006ECD2996ECE00C94AB29ABE2B0E0E3E7E7
:1018E000FCE00C94892985B7806885BF85B780683E
:1018F00085BF84B7877F84BF0FB6F894A895809181
:101900006000886180936000109260000FBE90E0DC
:1019100080E80FB6F89480936100909361000FBE49
:1019200086E997E190935301809352010E94D11868
:101930000E9477198091E20084608093E20078949D
:101940008091A3028823A1F01091E9001F7090916B
:10195000EC00892F817090FD80E8182B1092E9002F
:101960008091E80083FD0E94121E1F701093E90011
:1019700082E084BD93E095BD9AEF97BD80936E00A1
:101980000E943024811102C00E9420240E946A22F9
:101990000E94752288E591E04CEA51E0EDEBF1E020
:1019A00011921192DC012EE01D922150E9F70E9662
:1019B00048175907A9F7279A2F98259A2D9A269AFA
:1019C0002E9A249A2C9A259A2D982FEF30E742E0F0
:1019D000215030404040E1F700C00000269A2E9888
:1019E0005FEF80E792E0515080409040E1F700C007
:1019F0000000249A2C98EFEFF0E722E0E150F0404D
:101A00002040E1F700C00000259A2D9A3FEF40E703
:101A100052E0315040405040E1F700C00000269AAB
:101A20002E9A8FEF90E7E2E081509040E040E1F79E
:101A300000C00000249A2C9A279A2F9A259A2D9854
:101A4000269A2E98249A2C98FFE722E430E1F15050
:101A500020403040E1F700C00000279A2F98259AD7
:101A60002D9A269A2E9A249A2C9A0E9471138111EB
:101A700002C00E947D1382E090E00E94BA28809309
:101A800070020E94601390937702809376020E9406
:101A900096228FE39CE90197F1F700C000000E94B5
:101AA00096228091BD0180FF08C06FEF7FEF80E03C
:101AB00090E00E94E6280E945B1B83E090E00E9479
:101AC000BA280E948D17279A2F988AE08093800069
:101AD00089E1809381008FEF9FEF9093870080933F
:101AE00086000E940E258CE090E00E94BA2890E0CB
:101AF000A0E0B0E08093AC019093AD01A093AE0163
:101B0000B093AF018091700280FF0EC08091AC0154
:101B10001F928F9383ED91E09F938F930E94D30444
:101B20000F900F900F900F900E940E2580E091E093
:101B300090936D0280936C028091A302853009F02E
:101B40006DC083EF91E00E943A04F0E4FF2E00E1C3
:101B500012E18091A302853009F05AC08091A3025E
:101B6000843031F180E00E94492410927102E8E152
:101B7000F0E00FB6F894A895E09360000FBEF092E5
:101B8000600083B7817F846083BF83B7816083BF38
:101B90007894889583B78E7F83BF0FB6F894A89505
:101BA00080916000886180936000109260000FBE99
:101BB0008091A202882309F4CCCF0E946A220E945D
:101BC00075221092BE011092BD011092C0011092B8
:101BD000BF011092C2011092C1011092C401109273
:101BE000C3011092C6011092C5011092C801109253
:101BF000C7010E949622EDEBF1E081919191892B32
:101C000009F05AC329EC31E02E173F07B1F7A1CFF5
:101C10000E9439270E940E250E94941C0E94962241
:101C2000882359F08FB7F894409172025091730253
:101C300060917402709175028FBF70EB672E71E036
:101C4000772EEDEB4E2EE1E05E2E00E010E00BA7CC
:101C5000F201A190B1902F01F301C190D1903F0109
:101C6000CA24DB24C114D104B1F40F5F1F4F063026
:101C7000110569F78FEF8EA38FA318A60E94B41BDE
:101C80008160782F9AA789A74EA15FA168A58AA530
:101C90000E94482177C08091700281FD05C080E0DC
:101CA000EE24E394F12C48C087E092E00E943A04CD
:101CB0005DEB852E51E0952EE12CF12CFF92EF92F9
:101CC00022E032E03F932F930E94D3048FEF91E004
:101CD0000E943A04F40180812180F2E08F0E911C71
:101CE0000E94E521382E822D0E94E521232D30E02F
:101CF000322F2227A901482BCA019F938F9389EF86
:101D000091E09F938F930E94D30487EF91E00E940C
:101D10003A04FFEFEF1AFF0A0FB6F894DEBF0FBECA
:101D2000CDBF36E0E316F10449F6B9CF8F5FEE0C74
:101D3000FF1C8E3009F499CF97012C213D21232BD4
:101D4000A9F389A34BA54AA3AE20BF2081E0AB280D
:101D500009F480E08BA30E94B41B8160782F9DA3BF
:101D60008CA349A15AA16BA18DA10E944821000F0B
:101D7000111FF801E055FE4F80819181E826F92678
:101D8000F182E08286E0E6EBF2E08E010F5F1F4F0A
:101D9000D80101900D928A95E1F71092B802109245
:101DA000B9021092BA021092BB02FB80F11004C07B
:101DB0008C81882309F452C08091B4029091B502BD
:101DC0000E94A51B9C019091B102992309F493C232
:101DD0002531310508F442C09F3F19F09F5F909371
:101DE000B102FF2061F00E947F261F1414F491E0DD
:101DF00001C09FEF899F802D11248093B802FC8041
:101E0000FF2061F00E947F261F1414F491E001C0AE
:101E10009FEF899F802D11248093B9023091B802E1
:101E20003323E1F02091B9022223C1F055EB3503B1
:101E3000C0011124992319F09093B80203C081E0E6
:101E40008093B80235EB2303C0011124992319F0C4
:101E50009093B90203C081E08093B902FD80F11034
:101E600004C08E81882309F452C08091B2029091FF
:101E7000B3020E94A51B9C019091AF02992309F423
:101E80003EC22135310508F442C09F3F19F09F5FE3
:101E90009093AF02FF2061F00E945D261F1414F49E
:101EA00091E001C09FEF899F802D11248093BA0299
:101EB000FE80FF2061F00E945D261F1414F491E063
:101EC00001C09FEF899F802D11248093BB02309128
:101ED000BA023323E1F02091BB022223C1F045EB8B
:101EE0003403C0011124992319F09093BA0203C05E
:101EF00081E08093BA0255EB2503C0011124992398
:101F000019F09093BB0203C081E08093BB0246E0CE
:101F100050E0B80186EB92E00E94C029892BA9F419
:101F20008091B80281110FC08091B90281110BC05C
:101F30008091BA02811107C081E09091BB0291119A
:101F400003C080E001C081E080FD0E943A2586E068
:101F5000F801A6EBB2E001900D928A95E1F70E949C
:101F6000941CF82E8091BC01F81621F1F092BC016E
:101F70008091700282FF1EC080FF04C085E292E063
:101F80000E943A048091700280FF0CC01F92FF9261
:101F900080E292E09F938F930E94D3040F900F9062
:101FA0000F900F908091700280FF04C08EE192E04C
:101FB0000E943A048091A302843009F0BDCD83E0F1
:101FC0008093E9008091E80082FFB6CD8091E8001F
:101FD00085FF21C00E94F01881111BC080E2E82E0D
:101FE000F12C680109C08091F100F60181936F0125
:101FF000F1E0EF1AF10869F08091E80085FDF3CF78
:102000008091E8008B778093E8000E94F018882385
:1020100099F391E001C090E08091E8008B77809384
:10202000E800992309F488CDE9818E2F90E0FC0126
:102030003197E331F10508F015C1EE59FF4F0C94CB
:1020400062291A8289E07CC08A81823009F44AC1FF
:10205000833089F0813009F005C12FB7F894809161
:10206000720290917302A0917402B09175022FBF19
:10207000BB83AC8323C0F801CE010D96ADEBB1E07C
:102080002C9111963C9111971296328323833296AC
:102090008E179F07A9F7E8C08A81823009F0E2C055
:1020A0006B817C818D819E810E9468290E94FC2326
:1020B000DBC04C816B818A810E94CE239D8319C134
:1020C0002D813E813227232732274C816B818A81E3
:1020D0000E94A723C9C00E94281DC6C08A818930DA
:1020E00009F0C2C08B8123E0829FC00111246FEFF1
:1020F00070E00E941829862F0E94F424B5C08A81BE
:10210000893029F08A3009F0AFC01B82ADC08091C0
:10211000BC028695869586953FEF839FC00111246A
:1021200063E070E00E9418296B839EC08091BC021E
:102130000E94EE2499C080E150C081E08A8381EE44
:102140008B8392C0EA80FB80FE24EF24FE24AC80C7
:10215000B12C6801C701815E9D4F9601201B310B98
:102160002A153B0508F080C041EEE41641E0F40674
:1021700028F40E94BA28F601848302C0F601148272
:10218000FFEFEF1AFF0A2FEFC21AD20AE3CFEA805D
:10219000FB80FE24EF24FE24AC80B12C6801C70133
:1021A000815E9D4F9601201B310B2A153B0508F0DF
:1021B0005BC031EEE31631E0F30620F4F6016481F2
:1021C0000E94C828FFEFEF1AFF0A2FEFC21AD20AA7
:1021D000E6CF0E940A1D48C083E08A8345C0EA809A
:1021E000FB80FE24EF24FE24AC80B12C6801C701E3
:1021F00087969601201B310B2A153B05A8F538EF71
:10220000E31631E0F30628F40E94BA28F60184832D
:1022100002C0F6011482FFEFEF1AFF0A2FEFC21A75
:10222000D20AE5CFEA80FB80FE24EF24FE24AC80B6
:10223000B12C6801C70187969601201B310B2A1526
:102240003B0590F438EFE31631E0F30620F4F60195
:1022500064810E94C828FFEFEF1AFF0A2FEFC21A0D
:10226000D20AE8CF8FEF89838091A302843009F0EE
:1022700063CC8091E9008F702091EC00922F9170D7
:1022800020FD90E8F92EF82A82E08093E900809101
:10229000E80080FF0CC040E050E060E270E0C80160
:1022A0000E94E81D8091E8008E778093E8008F2DD2
:1022B0008F708093E90040CC09BD19BD09B400FEC0
:1022C000FDCF8091D8008F7D8093D8008091E00071
:1022D00082608093E0008091E00081FDFCCF0E944D
:1022E000392737CC86E290E00E94BA281B821C82F4
:1022F0001D828E83B9CF232B09F070CDAFCD232B58
:1023000009F0C5CD04CE9091760292FF0DC0282F22
:102310002871283019F4877F846006C0282F247123
:10232000243011F48B7F886093FF0DC0282F287113
:10233000283119F4877E846106C0282F2471243146
:1023400011F48B7E88612091770220FF0DC0382F19
:102350003871383019F4877F816006C0382F3171A9
:10236000313011F48E7F886021FF0DC0282F287135
:10237000283119F4877E816106C0282F217121310F
:1023800011F48E7E886194FD877E0895CF93DF934C
:102390008238910569F1B0F48133910509F46FC079
:1023A00048F48932910509F465C08A32910509F42F
:1023B0006BC08AC08533910509F457C089339105F4
:1023C000B9F082C0833E910571F138F4803E9105E9
:1023D000B1F0823E910511F177C0863E9105B9F1C9
:1023E000873E9105C9F1843E910509F06DC024C076
:1023F0002091760220FD53C021FD51C065C080911F
:10240000760280FD46C08091770280FF48C08091AF
:10241000760284FD50C183EE90E04FC18091760238
:1024200082FF3AC0F4CF8091760282FD35C0809160
:10243000770280FD34C0EBCF8091770281FF35C0F9
:102440008091760284FD37C187EE90E036C180919D
:10245000760283FF27C0F4CF8091760283FD22C0ED
:102460008091770281FD21C0EBCF8091760285FDBE
:102470001FC021C08091760285FD1DC019C08091CA
:10248000760286FD1BC01DC08091760286FD19C0B4
:1024900015C089E390E011C182EE90E00EC180EE9C
:1024A00090E00BC186EE90E008C184EE90E005C19B
:1024B00089E290E002C185E390E0FFC08AE290E00B
:1024C000FCC081E390E0F9C0811531E5930708F085
:1024D00069C0811540E59407F0F09C0174E03695E1
:1024E00027957A95E1F7922F9370482F437021E05A
:1024F00030E002C0220F331F4A95E2F73C68392BC7
:10250000982F9F709695969540E2949FC001112454
:10251000822B932BD2C0883E910568F5803E9105B1
:1025200008F0CBC0883A9105B8F4853A910548F097
:10253000855AE82FF0E0E35FFE4F808190E09064E1
:10254000BCC08130910509F4B3C008F4B4C0843034
:10255000910508F4B0C0B1C08F3B910508F0ABC045
:10256000885AE82FF0E0EE0FFF1FE05FFE4F8081FA
:1025700091819464A2C0811520E2920758F48115DC
:1025800031E0930708F099C0803F910508F493C0AB
:10259000906593C0811540E4940708F48CC09F7047
:1025A000906A8BC0811525E5920708F042C081151D
:1025B00034E5930728F0982F8827846F906A7DC0B0
:1025C000811543E59407B0F09C012370332741E067
:1025D00050E002C0440F551F2A95E2F7282F269598
:1025E000269580E2289F90011124CA01822B932B0B
:1025F0009A6863C0811522E5920728F4982F8827EE
:10260000816F906A5AC09C012370332741E050E0EB
:1026100002C0440F551F2A95E2F7282F26952695CC
:1026200080E2289F90011124CA01822B932B9C6881
:1026300044C0EC01811539E59307A8F4811598454C
:1026400028F09C2F8827806F906A37C0C11586E5D7
:10265000D80788F58C2F0E9483118F7190E0982FF6
:10266000882790622AC081152AE5920790F48C2F62
:102670008F700E94831194E0D695C7959A95E1F7E3
:10268000CF70D0E0DC2FCC27D0699E01282BC90168
:1026900014C090568115904270F48D2F8F710E9456
:1026A0008311282F2F71CE0199279062922B05C09C
:1026B00081E090E002C080E090E0DF91CF9108954A
:1026C000CF9384E090E00E94BA28C82F82E290E085
:1026D0000E94BA282C2F30E0A901582BCA01CF91B3
:1026E000089580E090E00E94C228883E9E4F19F431
:1026F0000E943024089580E0089568EE7EEF80E027
:1027000090E00E94E62860E082E090E00E94C82805
:1027100060E083E090E00E94C8281092660260E0CA
:1027200084E090E00E94C82864E082E290E00E9489
:10273000C82860E085E090E00E94C82860E086E05C
:1027400090E00E94C8286FEF87E090E00E94C828C0
:1027500040E050E0BA0188E090E00E94DA2860E0B2
:102760008DE090E00E94C82840E050E0BA0188E186
:1027700090E00E94DA2860E087E190E00E94C8289B
:1027800040E050E0BA018CE190E00E94DA2860E07D
:1027900070E080E290E00E94E62840E050E0BA015C
:1027A00088E190E00E94DA2880E00E9401240E94E3
:1027B000202440E050E0BA018FE090E00E94DA2847
:1027C00040E050E0BA0183E190E00E94DA280895E9
:1027D0008091650281111092650208958095909113
:1027E00064028923809364020895EF92FF920F930D
:1027F0001F93CF939091640280916302982B9093E2
:10280000C901809165028823D9F0892B8093C90181
:1028100080910C01882331F08091760287FF02C0FD
:102820008EE101C086E0EBECF1E090E0815028F011
:1028300021912223D9F39F5FF9CF91110E94E813D0
:1028400040E250E063E472E089EC91E00E94C0292C
:10285000892B09F453C080E2E9ECF1E0A3E4B2E093
:1028600001900D928A95E1F7E0916C02F0916D0272
:10287000309709F443C080910C01882359F080916E
:10288000760287FF07C08091C9018093CA0186E064
:102890008093C9010280F381E02D89EC91E00995D4
:1028A0008091700282FF2AC080FF04C08DE492E014
:1028B0000E943A0409EC11E0C8E087E4E82E82E0C7
:1028C000F82E8091700280FF0CC0F80180811F9269
:1028D0008F93FF92EF920E94D3040F900F900F906E
:1028E0000F90C1500F5F1F4FC111EBCF809170024D
:1028F00080FF04C085E492E00E943A04CF911F91CA
:102900000F91FF90EF9008958091410290911002F5
:10291000891719F08F5F8770FBCF08950F931F936E
:10292000CF93DF9380910F0282958F7009F05AC088
:1029300080910C02882309F455C0809141021091C6
:10294000100260910A0270910B02C0910D02D091A9
:102950000E0291E06F3F09F090E0292F06E0811709
:1029600009F440C0209721F07F3F21F030E003C000
:1029700031E001C0322F90E030FD31C0089FF001FE
:10298000099FF00D1124DF01AF5EBD4F11963C9100
:102990001197371324C03C91361321C012963C91F5
:1029A000129731111CC013964D915C9114974C1BDA
:1029B0005D0B483C510598F480910F028F70806147
:1029C00080930F02EA5EFD4F80818F70806180836B
:1029D0008AE092E00E94DC040E94841403C0019605
:1029E0008770BDCFDF91CF911F910F910895CF9246
:1029F000DF92FF920F931F93CF93DF936C010091AF
:102A0000AD0280916602082BC7E0D0E010E0C8015B
:102A10000C2E02C0959587950A94E2F780FD04C0BC
:102A20002197A8F7F12C09C0FC2EB6018C2F0E942B
:102A30001A1D0E94C611019799F38F2DDF91CF9136
:102A40001F910F91FF90DF90CF900895CF93DF9368
:102A5000EC010E94F714BE010E941A1D0E94C611CB
:102A6000DF91CF910895A1E1B0E0E9E3F5E10C94A5
:102A700090298C0185E0F801DE011D9601900D92F0
:102A80008A95E1F7F801E28090910A0260910B02C9
:102A900040910D0250910E024115510531F06F3FEA
:102AA00031F481E09F3F19F403C081E001C080E070
:102AB000F82FF1709F2E80FD1BC1F801308121811C
:102AC000C380D4808AE0A82E82E0B82EF0900C0259
:102AD000F601E41BF50BFF2009F4C7C080910F023B
:102AE000E83CF10508F092C0482F407F09F051C042
:102AF000621311C093130FC0FE2CE1100CC08F7035
:102B0000806180930F02C5010E94DC0480910F0256
:102B1000F80185832AC1C114D10431F02F3F31F46B
:102B200081E03F3F19F403C081E001C080E080FDF7
:102B300003C081E08E2502C080E090E0F82FF170A4
:102B4000FF2E80FF1CC0809141024091100256E090
:102B5000841709F4E8C090E0589FF001599FF00DE8
:102B60001124EF5EFD4F6181261306C0608163135F
:102B700003C06281E61203C001968770E9CFFE2C84
:102B8000EE2009F4F2C080910F02816080930F0261
:102B900049C0621306C0931304C0E11002C0F801DB
:102BA00086C0C8010E94FD26882351F1EE2041F124
:102BB00020910F02822F82958F7090E0029774F01F
:102BC00080910A0290910B0298878F831986DB8689
:102BD000CA862C87CE0107960E94DC0486E0F801A5
:102BE000AAE0B2E001900D928A95E1F70E948E145E
:102BF0000AC06217C9F0C8010E94FD2681111EC0DB
:102C0000C8010E94DC04FF24F394AFC0482F407F2A
:102C100081F78AE092E00E94DC0486E0F5011192DF
:102C20008A95E9F7F12CA1C09313E5CFE110E3CF2A
:102C3000F8018583C8010E94DC0454C0EE2001F332
:102C400020910F02822F82958F7090E0029734F2CC
:102C500080910A0290910B029A8389831B82DD8204
:102C6000CC822E83CE010196B7CFE83CF105D0F59A
:102C7000FE2CEE2029F2621327C0931325C0209169
:102C80000F0220FD18C0822F82958F70482F50E0D0
:102C90004115510581F0F80125834F30510541F070
:102CA0008F5F982F9295907F822F8F70892B8583CD
:102CB000C8010E94DC0486E0F801AAE0B2E00190BD
:102CC0000D928A95E1F751C0C8010E94FD2681113D
:102CD00085CF80910F02816080930F02C8010E940E
:102CE000DC0443C086E0F50111928A95E9F73DC006
:102CF000EE2009F485CFC8010E94FD26F82E882316
:102D000009F47ECF86E0F801AAE0B2E001900D92CE
:102D10008A95E1F780910A0290910B020E94261594
:102D20000E948E1422C03D872E878D859E850E942D
:102D30002615292F22952F70223028F49F7039F004
:102D4000811105C00BC0243028F49F7049F4805EC7
:102D5000883020F0C8010E94DC049F2CF92C05C0AB
:102D6000F8019581907F99F7F9CF8F2D6196EBE06F
:102D70000C94AC29292F963078F58E3068F590E0C8
:102D80003EE0239F800D911D1124682F677023E082
:102D9000969587952A95E1F7FC01EE0FFF1FE80F46
:102DA000F91FE751FE4F40E050E080E0219130E014
:102DB000062E02C0369527950A94E2F72170332734
:102DC000042E01C0220F0A94EAF7822B4F5F5F4F57
:102DD0004330510559F7089580E00895292F963022
:102DE00088F58E3078F590E03EE0239F800D911DB0
:102DF0001124282F277051E001C0550F2A95EAF7BA
:102E000023E0969587952A95E1F7FC01EE0FFF1FC9
:102E1000E80FF91FE751FE4F20E030E070E04081FD
:102E2000CB01022E02C0969587950A94E2F7817035
:102E3000819584278523842781932F5F3F4F2330FB
:102E4000310569F708958093AD020E941D2708950A
:102E500021E030E001C0220F8A95EAF720958091A9
:102E6000AD0282230E94231708952091420280958B
:102E7000822380934202982F977099F430E0482F74
:102E8000082E000C550B2417350759F09091770246
:102E900092FF07C08595859585950E942817109209
:102EA00042020895CF93DF93C0917702C2FB992726
:102EB00090F9981719F1D82F80FBC2F9C0937702C7
:102EC0006091760284E090E00E94C8286C2F82E234
:102ED00090E00E94C82882E00E943517809170021D
:102EE00080FF0CC01F92DF9380E392E09F938F934B
:102EF0000E94D3040F900F900F900F90DF91CF910D
:102F0000089521E030E001C0220F8A95EAF7809110
:102F1000AD02822B0E9423170895809366020E94BF
:102F20001D27089508958091800208959FB7F89411
:102F300010927C029FBF9091A302943009F057C079
:102F40009091E9009F703091EC00232F217030FDAB
:102F500020E8922B25E02093E9002091EB0020FF50
:102F600043C02091EE0027FF3FC020917B02222327
:102F700021F02091E80025FF37C010927B0226E067
:102F80003091E80035FD15C03091A302343061F571
:102F90003091EB0035FD28C0215021F481E0809371
:102FA0007B0222C0EFE9FFE03197F1F700C000009B
:102FB000E7CF8093F1008091E80085FD0AC0809101
:102FC000E80080FFFCCF8091E8008E778093E800D6
:102FD00006C08FB7F89421E020937C028FBF9F70CA
:102FE0009093E90080E008959F709093E9008FEF3F
:102FF00008958093780270937A02609379028091A9
:10300000A3028430F9F48093E9008FEF9091E800F7
:10301000815095FD06C095ED9A95F1F7000081115C
:10302000F5CF8091E80085FF0DC040E050E063E0FF
:1030300070E088E792E00E94E81D8091E8008E77BA
:103040008093E8000895BC0184E00E94F917089578
:10305000BC0183E00E94F917089524E02093E90061
:103060002FEF3091E800215035FD06C035ED3A953F
:10307000F1F700002111F5CF2091E80025FF0BC0EA
:1030800040E050E066E070E00E94E81D8091E800BA
:103090008E778093E8000895CF93DF9320910C0101
:1030A000222339F02091760227FF03C060E224E05A
:1030B00002C068E021E02093E9002FEF3091E800A2
:1030C000215035FD06C035ED3A95F1F7000021118C
:1030D000F5CF2091E80025FF1DC0EC0180910C0187
:1030E000811105C040E050E068E070E003C070E08E
:1030F00040E050E0CE010E94E81D8091E8008E770C
:103100008093E80080E2FE01A1E8B2E001900D9218
:103110008A95E1F7DF91CF9108951F920F920FB634
:103120000F9211242F933F934F935F936F937F934D
:103130008F939F93AF93BF93CF93DF93EF93FF93BF
:10314000C091E900CF708091EC00D82FD17080FD44
:10315000D0E81092E9008091F000877F8093F00022
:1031600078940E94121E1092E9008091F00088600D
:103170008093F000CD2BCF70C093E900FF91EF91C9
:10318000DF91CF91BF91AF919F918F917F916F917F
:103190005F914F913F912F910F900FBE0F901F9015
:1031A0001895E8EDF0E080818E7F80831092E20038
:1031B0001092DA001092E100A0EEB0E08C918160F4
:1031C0008C9380818F77808319BCA7EDB0E08C91C0
:1031D0008E7F8C9380818F7E808310927E020895F3
:1031E0002091E4003091E50095E64091EC00842FB9
:1031F000817040FF23C08091E80080FD1DC0809158
:10320000A302882399F0853099F08091EB0085FD29
:1032100011C04091E4005091E5002417350729F3CF
:10322000915011F09A01E1CF84E0089582E0089571
:1032300083E0089581E0089580E008954091E800DA
:1032400042FFDDCF08958091A50287FF11C08091D4
:10325000E80082FD05C08091A3028111F8CF11C062
:103260008091E8008B770BC08091A302882349F0FE
:103270008091E80080FFF8CF8091E8008E778093FE
:10328000E8000895982F973068F59093E900981713
:1032900039F07091EC002091ED005091F00003C0E6
:1032A000242F762F50E021FD02C09F5FECCF30919C
:1032B000EB003E7F3093EB003091ED003D7F30938B
:1032C000ED003091EB0031603093EB007093EC0037
:1032D0002093ED005093F0002091EE0027FDE5CF04
:1032E00080E008958F708093E90081E00895A0E068
:1032F000B0E0EDE7F9E10C949329C8EDD0E08881C6
:103300008F7E8883E7EDF0E080818160808384E0B8
:1033100082BF81E080937E0288818E7F888302EE67
:1033200010E0F80110821092DA0081EEC82ED12C44
:10333000F601108288818F778883888180688883EE
:1033400088818F7D888319BC1092A3021092A402F9
:103350001092A2021092A10290EEE92EF12CF70138
:1033600080818B7F808388818160888342E060E0F8
:1033700080E00E944219F60180818E7F8083F801EF
:10338000808181608083808188608083F701808173
:103390008E7F8083888180618883CDB7DEB7E8E047
:1033A0000C94AF291F920F920FB60F9211242F93F6
:1033B0003F934F935F936F937F938F939F93AF93BD
:1033C000BF93EF93FF938091E10082FF49C080910A
:1033D000E20082FF45C08091E1008B7F8093E10095
:1033E00020917D022F5F822F62E30E940C29992396
:1033F00019F020937D0234C010927D0280917C02EE
:10340000882371F18091A302843041F58091E90015
:103410008F702091EC00922F917020FD90E8892B05
:1034200095E09093E9009091EB0090FF14C090918B
:10343000EE0097FF10C09091E80095FF03C0109236
:10344000F100F9CF9091E80090FF05C09091E8005D
:103450009E779093E8008F708093E90010927C0231
:103460008091DA0080FF32C08091D80080FF2EC0AA
:103470008091DA008E7F8093DA008091D90080FFFE
:103480001CC080E189BD82E189BD09B400FEFDCF89
:1034900081E08093A30283E994E00E943A04809142
:1034A0007E02811113C00E94D1180E947719809169
:1034B000E20084608093E20009C019BC1092A3026C
:1034C00087E994E00E943A0410927E028091E10024
:1034D00080FF1BC08091E20080FF17C08091E20056
:1034E0008E7F8093E2008091E20080618093E20011
:1034F0008091D80080628093D80019BC85E08093C9
:10350000A3028BE994E00E943A048091E10084FFD9
:1035100034C08091E20084FF30C080E189BD82E147
:1035200089BD09B400FEFDCF8091D8008F7D8093C6
:10353000D8008091E1008F7E8093E1008091E200CD
:103540008F7E8093E2008091E20081608093E200B0
:103550008091A402882311F084E007C08091E300E9
:1035600087FD02C081E001C083E08093A3028FE960
:1035700094E00E943A048091A3028091E10083FFCD
:103580002BC08091E20083FF27C08091E100877FFC
:103590008093E10082E08093A3021092A4028091C4
:1035A000E1008E7F8093E1008091E2008E7F809326
:1035B000E2008091E20080618093E20042E060E0FE
:1035C00080E00E9442198091F00088608093F000B2
:1035D00083EA94E00E943A04FF91EF91BF91AF918A
:1035E0009F918F917F916F915F914F913F912F911B
:1035F0000F900FBE0F901F9018952091AB02309145
:10360000AC022617370748F06115710539F420918F
:10361000E8002E772093E80001C0B901FC0120E00A
:103620006115710579F18091A3028823F1F185304C
:10363000F1F18091E80083FD3CC08091E80082FDBB
:103640002EC08091E80080FFEBCF2091F3008091A5
:10365000F20090E0922B6115710551F088309105D0
:1036600038F421912093F100615071090196F3CF54
:1036700021E0089709F020E08091E8008E778093A0
:10368000E800CECF2111CFCF0AC08091A3028823BA
:1036900061F0853061F08091E80083FD0AC080917F
:1036A000E80082FFF2CF80E0089582E0089583E091
:1036B000089581E0089581E08093E00080E28093A6
:1036C000D8001092C9008FE19EE40197F1F700C085
:1036D000000087E090EBDC018093BD029093BE0276
:1036E000A093BF02B093C0029CE088E10FB6F894AB
:1036F000A895809360000FBE90936000FFCF7894F0
:103700001F920F920FB60F9211248F939F93AF9336
:10371000BF938091720290917302A0917402B09154
:1037200075020196A11DB11D8093720290937302E0
:10373000A0937402B0937502BF91AF919F918F9146
:103740000F900FBE0F901F9018959C014FB7F894E3
:103750008091720290917302A0917402B0917502EF
:103760004FBF821B930B08952FB7F894809172027C
:1037700090917302A0917402B09175022FBF0895C9
:103780001F920F920FB60F9211248F939F93AF93B6
:10379000BF9380917102811113C080917202909148
:1037A0007302A0917402B09175024196A11DB11DE2
:1037B0008093720290937302A0937402B093750287
:1037C000BF91AF919F918F910F900FBE0F901F905F
:1037D000189520910C01222351F12091760227FFA8
:1037E00026C0262F2695269526952E3178F4FC01A5
:1037F000E20FF11D677081E090E001C0880F6A95CB
:10380000EAF78095928189238283089580917002DE
:1038100080FF17C01F926F9385E794E09F938F936B
:103820000E94D3040F900F900F900F900895FC0109
:1038300006962281621301C012823196E817F907B9
:10384000C1F7089520910C01222349F120917602BD
:1038500027FF25C0262F2695269526952E3170F414
:10386000FC01E20FF11D677081E090E001C0880F5C
:103870006A95EAF79281892B82830895809170027C
:1038800080FF25C01F926F9387E594E09F938F93ED
:103890000E94D3040F900F900F900F900895FC0199
:1038A00032962FEF30E04191641789F02F3F19F4E1
:1038B000411101C0232F3F5F3630A9F72F3F39F068
:1038C000FC01E20FF11D27FDFA956283089508952A
:1038D00020916E0230916F022817390771F0909392
:1038E0006F0280936E02E0916C02F0916D0230974E
:1038F00021F00084F185E02D0995089520916A0258
:1039000030916B022817390771F090936B02809306
:103910006A02E0916C02F0916D02309721F006800E
:10392000F781E02D09950895E0916C02F0916D0208
:10393000309729F00190F081E02D0995089580E0FD
:1039400008950F931F93CF93DF93C42FD22FFC01C1
:1039500082818823B1F0409369020E94B41B909346
:1039600068028093670280E28C0F883008F04DC0B7
:10397000C77081E001C0880FCA95EAF70E946B27E3
:1039800044C080916902481330C0809167029091D1
:1039900068020E94A51B883C910538F510E21D0FB6
:1039A000CD17B9F080E28C0F883040F4C77081E009
:1039B00001C0880FCA95EAF70E946427183010F5F5
:1039C00081E09D2F977001C0880F9A95EAF70E94B9
:1039D0006B27802F0E949B281830B8F4D77081E0A5
:1039E00001C0880FDA95EAF70AC080E28C0F8830B0
:1039F00060F4C77081E001C0880FCA95EAF70E94A1
:103A0000642703C0802F0E949B28DF91CF911F91D4
:103A10000F910895CF93DF93CFE1D2E060E0CE0124
:103A20000E94C8282196C11584E0D807B9F7DF9114
:103A3000CF910895833048F4763038F46E3028F40E
:103A4000462F672F0E94CE23089580E090E00895CE
:103A5000A0E0B0E0EEE2FDE10C949129A12CE12C74
:103A6000F12CB12C00E010E0C0E0D0E06701C00E06
:103A7000D11EFE01EE0FFF1FEC0DFD1DE15AFD4FA3
:103A8000259134914C2F6B2D8A2D0E94A7232196CE
:103A9000CE30D10571F7045E1F4FB39486E0B812A3
:103AA000E3CF88EAE80EF11CA39483E0A812D9CFF3
:103AB000CDB7DEB7EAE00C94AD29CF93DF938093C6
:103AC000BB0084E88093BC000E94B41BEC01809191
:103AD000BC0087FD0AC00E94B41B8C1B9D0B843662
:103AE0009105A8F38EEF9FEF0CC02091B900287FBD
:103AF00081E090E0283211F480E090E0919581958A
:103B00009109DF91CF910895A0E0B0E0EAE8FDE1EE
:103B10000C949429F82E0E94B41B8C0184EAE82EA0
:103B200094E8D92E1092BC00E092BC000E94B41B15
:103B3000EC018091BC0087FD07C00E94B41B8C1B68
:103B40009D0B0597B0F329C08091B900887F88301C
:103B500041F08091B900887F803119F0CFEFDFEF1D
:103B60001EC0F092BB00D092BC000E94B41BEC01BE
:103B70008091BC0087FD07C00E94B41B8C1B9D0B6D
:103B80000597B0F30AC08091B900887F883111F0A1
:103B9000803421F7C0E0D0E009C0CEEFDFEFC801EC
:103BA0000E94A51B8436910508F4BCCFCE01CDB789
:103BB000DEB7E7E00C94B0298091AD02982F9670A3
:103BC000963011F4886001C0877F0E942317089502
:103BD000EF92FF920F931F93CF93DF937C018B01A2
:103BE0000E94F018811119C0E70101151105A1F01B
:103BF0008091E80085FD0AC08091E8008E7780936F
:103C0000E8000E94F018882381F307C0899180930F
:103C1000F10001501109E9CF80E0CDB7DEB7E6E051
:103C20000C94B129AAE2B0E0E8E1FEE10C949829F5
:103C3000E5EAF2E08091F100819342E0ED3AF40789
:103C4000C9F78091A602833009F463C030F4813053
:103C500071F0823009F49DC0B4C08A3009F489C083
:103C60008B3009F46EC0893009F0ABC020C0809160
:103C7000A502813A09F0A5C08091E800877F809372
:103C8000E8008091A9029091AA02892B21F460E2B8
:103C900081E892E003C060E080E090E070E00E9484
:103CA000FD1A8091E8008B778093E8008AC08091AC
:103CB000A502813209F085C08091A9029091AA02E3
:103CC000009719F0029709F07CC08091E800877F87
:103CD0008093E8008091E80082FD05C08091A302F6
:103CE0008111F8CF6EC02091F3008091F20090E036
:103CF000922B029731F48091F100813011F08630DF
:103D000021F48091F100809380028091E8008B770C
:103D100054C08091A502813A09F053C08091A90254
:103D20009091AA02892B09F04CC08091E800877F0E
:103D30008093E8008091E80080FFFCCF80910C0127
:103D400037C08091A5028132E1F58091A90290915E
:103D5000AA02892BB1F58091E800877F8093E80063
:103D60000E9423198091A70280930C010E94392799
:103D700028C08091A502813221F58091E800877FDB
:103D80008093E8000E9423198091A80280937F020B
:103D900018C08091A502813AA1F48091E800877F44
:103DA0008093E8008091E80080FFFCCF80917F0243
:103DB0008093F1008091E8008E778093E8000E9464
:103DC00023198091E80083FFE5C18091A5029091BD
:103DD000A602492F50E04A30510508F0DBC1FA0134
:103DE000EB58FF4F0C946229803821F0823809F09B
:103DF000D1C108C08091A1029091A202992389F0BB
:103E000082600FC08091A9028F70873008F0C2C114
:103E10008093E9008091EB0085FB882780F9109260
:103E2000E9009091E800977F9093E8008093F1007B
:103E30001092F10071C1282F2D7F09F0ABC18823AA
:103E400019F0823061F0A6C18091A702813009F09B
:103E5000A1C1933009F080E08093A2022EC080912E
:103E6000A70281112AC08091A9028F702FEF280F1D
:103E7000263008F08FC18093E9002091EB0020FFED
:103E80001CC0933021F48091EB00806214C09091AB
:103E9000EB0090619093EB0021E030E0A90102C0BB
:103EA000440F551F8A95E2F74093EA001092EA000A
:103EB0008091EB0088608093EB001092E900809184
:103EC000E800877F8093E8000E94231963C1811175
:103ED00061C11091A7021F778091E3008078812B48
:103EE0008093E3008091E800877F8093E8000E9440
:103EF00023198091E80080FFFCCF8091E300806867
:103F00008093E300111102C082E001C083E080933E
:103F1000A30240C18058823008F03CC12091A70222
:103F20003091A8022C3D53E0350779F583E08A8370
:103F30008AE289834FB7F894DE01139620E03EE0D1
:103F400051E2E32FF0E050935700E49120FF03C0CB
:103F5000E295EF703F5FEF708E2F90E0EA3010F047
:103F6000C79601C0C0968D939D932F5F243149F76A
:103F70004FBF8091E800877F8093E8006AE270E09D
:103F8000CE0101960E94FD1AB5C08091A9029091C0
:103F9000AA02432F552743305105A9F068F4413058
:103FA000510509F406C14230510509F0F3C08BE711
:103FB00090E0E1EEF5E04BC04132510529F142328B
:103FC000510589F1E7C0C901992781309105A1F018
:103FD00058F0029709F0DEC0EEE6F6E0E4918E2F8D
:103FE00090E0EEE6F6E030C0ECEBF6E0E4918E2FE8
:103FF00090E0ECEBF6E028C0E8E9F6E0E4918E2FE3
:1040000090E0E8E9F6E020C08430910508F0C2C0F5
:10401000880F991FFC01E65BFE4F0190F081E02DB7
:1040200089E090E014C08430910508F0B3C0FC0131
:10403000EE0FFF1FEE5BFE4F0190F081E02DDC01E3
:10404000A25CBE4F8C9190E0009709F4A3C0209130
:10405000E800277F2093E8002091AB023091AC026A
:104060008217930708F49C0140E02115310589F17E
:104070008091A302882309F43DC08530D9F1809155
:10408000E80083FD37C08091E80082FD2FC0809159
:10409000E80080FFEACF4091F3008091F20090E0C9
:1040A000942B2115310559F08830910540F4449145
:1040B0004093F1003196215031090196F2CF41E051
:1040C000089709F040E08091E8008E778093E8003F
:1040D000CCCF4111CDCF0AC08091A302882351F0EB
:1040E000853041F08091E80083FD04C08091E800B4
:1040F00082FFF2CF8091E8008B778093E8004AC07E
:10410000803809F047C08091E800877F8093E800FD
:104110008091A4028093F1008091E8008E77D2CE46
:10412000811138C08091A7029091A8029927029727
:104130008CF58091E800877F8093E8001091A702BA
:104140001093A4020E942319111106C08091E3006C
:1041500087FD02C081E001C084E08093A30242E0B9
:1041600061EC81E00E94421942E261EC84E00E942D
:10417000421942E261EC82E00E94421942E260ECA4
:1041800083E00E94421942E261EC85E00E944219FC
:104190008091A3028091E80083FF10C08091E80025
:1041A000877F8093E8008091EB0080628093EB0032
:1041B00005C082E190E0ECE5F6E049CFAA96E3E0A5
:1041C0000C94B429982F92959F7019F0892F24E0B0
:1041D00001C020E0982F9695969511F02E5F892FBB
:1041E000982F969509F02F5F822F0895CF93DF9334
:1041F0009091AE02992399F0C62FD82F80E40E94A7
:10420000841D811108C08D2F0E945D1D811103C086
:104210008C2F0E945D1D94E99093BC0001C080E04A
:10422000DF91CF91089580E40E94841D811123C005
:1042300084E98093BC008091AE02811128C081E0A6
:104240008093AE026FE780E00E94F6206FE782E085
:104250000E94F6206FE78CE00E94F6206FEF81E06D
:104260000E94F62060EC83E10E94F6200E9439272C
:1042700088ED96E00AC08091AE02882341F010924A
:10428000AE020E94392780EC96E00E943A0408951D
:10429000A7E1B0E0EEE4F1E20C9498294B8B5C8B43
:1042A0006D8B7E8B8F8B61111092630286E09E0175
:1042B000235F3F4FD901E82F1D92EA95E9F795E07A
:1042C000FE017396D90101900D929A95E1F79C89B0
:1042D0004E895F897B897D879E876F87598B488B45
:1042E000F901DE01179601900D928A95E1F7CE0152
:1042F00007960E94331581113EC086E0FE01379675
:10430000DE01119601900D928A95E1F7FF81E88513
:104310006A857B856115710531F0EF3F31F481E0ED
:10432000FF3F19F403C081E001C080E080FD23C09D
:104330002091100230E0C9010196877099274091C1
:10434000410250E08417950779F1F983EA837D8370
:104350006C8396E0929FD001939FB00D1124AF5EC5
:10436000BD4FFE01319601900D929A95E1F7809331
:1043700010020E94841416E0809141029091100274
:104380008917F9F0189FC00111248F5E9D4F0E947C
:1043900033158823B1F08091410290E00196877037
:1043A000992780934102E8CF0E943927109210028A
:1043B00010924102EAE0F2E086E0DF011D928A9568
:1043C000E9F76796E3E00C94B4298295982F9373EC
:1043D00044E0949F900111248C7C86958695282B2F
:1043E000822F8575880F2A7A2695822B0895A0E062
:1043F000B0E0EDEFF1E20C949429E82FF0E0E25EFA
:10440000F84FD490282F26952695269530E0F9016F
:10441000E25FF84F0491877010E0082E02C01595F6
:1044200007950A94E2F701701127F901E250F94F5C
:10443000E490F12C082E02C0F594E7940A94E2F778
:1044400091E0E922FF24F901E251F94FC491D0E053
:1044500002C0D595C7958A95E2F7C170DD27011591
:10446000110519F081EE0E94D827E114F10419F02A
:1044700086EE0E94D8278D2D0E949B28E114F1041E
:1044800019F086EE0E9475270115110519F081EECD
:104490000E947527CD2B19F08CE20E949B28CDB786
:1044A000DEB7E7E00C94B0290E9439272FEF84E3B0
:1044B0009CE0215080409040E1F700C000009CE06B
:1044C00088E10FB6F894A895809360000FBE909392
:1044D0006000FFCF80B38C7080BB81B38C7081BBD8
:1044E0006FE381E00E94F620089584B1807F84B953
:1044F00085B18F6085B98AB1837F8AB98BB18C60B1
:104500008BB93E98469A1092AE021092B9008CE098
:104510008093B8002FEF83ED90E3215080409040CE
:10452000E1F700C000000E9413210895A0E0B0E070
:10453000ECE9F2E20C948E290E9413218DEBC82E37
:1045400081E0D82E98E5E92E91E0F92EC0E0D0E088
:10455000AA24A394B12C35E0732EC33091F038F423
:10456000C13091F0C23099F4859A8D9812C0C43050
:1045700029F0C53061F4809A88980BC0819A899897
:1045800008C0849A8C9805C0869A8E9802C0879A33
:104590008F98B5010C2E01C0660F0A94EAF760955A
:1045A00081E00E94F62080EA8A95F1F7F70180E029
:1045B00090E000E010E02081222319F021502083B8
:1045C00009C09501082E02C0220F331F0A94E2F79A
:1045D000022B132B019631968E30910561F7809155
:1045E000AE02882359F180E40E94841D882311F0D3
:1045F00080E020C082E10E945D1D8111F9CF81E43D
:104600000E94841D8111F4CF84E88093BC000E9435
:10461000B41B4C018091BC0087FD0AC00E94B41BF2
:104620008819990984369105A8F38EEF9FEF02C08F
:104630008091BB0094E99093BC0001C080E0482FBA
:1046400050E0369903C020E830E002C020E030E0BE
:104650004B9903C080E091E002C080E090E0822BA3
:10466000932B4A9903C020E032E002C020E030E002
:10467000822B932B1B9903C060E074E002C060E0C2
:1046800070E0862B972B1A9903C0E0E0F8E002C097
:10469000E0E0F0E08E2B9F2B199903C020E030E181
:1046A00002C020E030E0822B932B189903C060E019
:1046B00070E202C060E070E0F60120813181862B5B
:1046C000972B842B952B82279327082319230227C6
:1046D00013272027312780E090E0A501082E02C093
:1046E000440F551F0A94E2F742235323452B21F030
:1046F000F701E80FF91F708201968E30910569F776
:10470000F601019311936F010E946A222196FEE047
:10471000EF0EF11CC630D10509F01FCF8091AD021C
:104720000E94E220259A2D9A269A2E9A249A2C9A53
:10473000813029F0823029F4269A2E9802C0259AD9
:104740002D9881E0CDB7DEB7EDE00C94AA291F9338
:10475000CF93DF93962F8330E8F46630D8F44E3051
:10476000C8F4632F122FC42FD0E0CC0FDD1F2CE133
:10477000929FC00DD11D112498EA899FC00DD11DB3
:104780001124CE0187960E94C828612FCE018896F9
:104790000E94C828DF91CF911F9108950F931F9316
:1047A000CF93DF93833008F56630F8F44E30E8F4A9
:1047B000C42FD0E0CC0FDD1F2CE1629FC00DD11DB6
:1047C000112438EA839FC00DD11D1124CE01879694
:1047D0000E94BA2890E0182F0027CE0188960E94E8
:1047E000BA289801282BC90102C080E090E0DF912F
:1047F000CF911F910F91089586E290E00E94C82802
:104800000895CF93C82F811102C06FEF01C062E2FB
:1048100083E290E00E94C828C11102C06FEF01C07E
:1048200068E084E290E00E94C828C11102C06FEFE6
:1048300001C062E185E290E00E94C828CF9108950E
:1048400080E00E94012460E070E0CB010E94FC2324
:104850000E94281D0E940A1D81E00E9401240895E3
:1048600083E290E00E94BA28823281F484E290E0F0
:104870000E94BA28883051F485E290E00E94BA285C
:1048800091E0823109F090E0892F01C080E08170D1
:104890000895A0E0B0E0EFE4F4E20C948F298430B6
:1048A00048F4811108C090918000977F9093800018
:1048B0002F9806C083E090918000986090938000CC
:1048C000A0918600B0918700282F30E00E946F29C8
:1048D00023E030E040E050E00E9440290027122F02
:1048E000232F342F012F122F232F3327809186005F
:1048F000909187006CE070E00E94182960177107A2
:1049000030F0C80169E070E00E9418295EC0809113
:10491000860090918700E0908600F0908700E091FB
:104920008600F0918700C6E0D0E0BE010E94182901
:10493000060F171F211D311D4801590185E0880C04
:10494000991CAA1CBB1C8A95D1F7C701BE010E9405
:1049500018296F01E12CF12CA7019601260F371FB2
:10496000411D511DC501B4010E94402969017A0110
:10497000E0918600F0918700CA01B9010E94FC28ED
:104980009B01AC01DF010E947E299B01AC01C701A4
:10499000B6010E94FC28DC01CB012FE0B695A7955B
:1049A000979587952A95D1F70091860010918700F9
:1049B00020E030E0081719072A073B0728F4609128
:1049C000860070918700CB01BC0170938D006093CD
:1049D0008C00CDB7DEB7ECE00C94AB29682F86E0F5
:1049E00090E00E94C8280895843008F083E09091F8
:1049F000BC029770282F220F220F220F922B909328
:104A0000BC02987F21E009F420E09091BC0220FBD9
:104A100090F99093BC020E94492408950E9471135A
:104A200081110AC00E947D138091BC02847089614B
:104A30008093BC020E94EE2486E090E00E94BA2897
:104A40008093BC02282F26952695269530E02430A9
:104A5000310524F0877088618093BC028091BC028C
:104A600080FF04C086958695869501C080E00E94EF
:104A7000492408958091700283FF7EC085EC97E001
:104A80000E943A048091B7021F928F9380EC97E0C6
:104A90009F938F930E94D3048EEB97E00E943A0479
:104AA0008091B802282F082E000C330B3F938F9370
:104AB0008BEB97E09F938F930E94D30489EB97E051
:104AC0000E943A048091B902282F082E000C330B63
:104AD0003F938F9386EB97E09F938F930E94D3042D
:104AE00084EB97E00E943A048091BA02282F082EA6
:104AF000000C330B3F938F9381EB97E09F938F9341
:104B00000E94D3048FEA97E00E943A048091BB028E
:104B1000282F082E000C330B3F938F938CEA97E0DD
:104B20009F938F930E94D30489EA97E00E943A04EE
:104B30008091B1021F928F9386EA97E09F938F93A3
:104B40000E94D30484EA97E00E943A048091B00264
:104B50001F928F9381EA97E09F938F930E94D304D3
:104B60008EE997E00E943A048DB79EB74C960FB637
:104B7000F8949EBF0FBE8DBF0E94B41B2091B80257
:104B8000211104C02091B902222321F09093B50293
:104B90008093B4022091BA02211104C02091BB027B
:104BA000222321F09093B3028093B202E0916C0231
:104BB000F0916D02309749F082E08093B602048054
:104BC000F581E02D86EB92E009950895803F39F458
:104BD0009091B90297FF35C01092B90259C0813F38
:104BE00029F49091B9021916BCF32BC09091B80228
:104BF000823F29F497FF25C01092B80249C0833F35
:104C000019F41916CCF31DC09091BA02893F29F40A
:104C10001916BCF41092BA023BC08A3F19F497FFF0
:104C200010C0F8CF8B3F39F49091BB0297FF09C0B9
:104C30001092BB022DC08C3F21F49091BB0219163B
:104C4000BCF39CE0980F953080F421E030E0A9019E
:104C500002C0440F551F9A95E2F7CA0180959091C2
:104C6000B70289238093B70213C08D3F21F480914E
:104C7000B0028E7F0BC08E3F21F48091B0028D7FF9
:104C800005C08F3F29F48091B0028B7F8093B002E2
:104C90008091B802811106C08091B902811102C0D1
:104CA0001092B1028091BA02811106C08091BB02BC
:104CB000811102C01092AF0208958091B00280FD70
:104CC00016C081FD16C082FD18C08091AF028823F6
:104CD00091F0883290F428E0829FC001112468E2AC
:104CE00070E00E942C29862F672B29F007C082E0F4
:104CF000089584E0089581E0089588E00895809102
:104D0000B00280FD17C081FD17C082FD19C08091DF
:104D1000B102882399F08C3398F428E3829FC00174
:104D200011246CE370E00E942C29862F672B49F434
:104D300081E008958EE008958CE1089588E008955B
:104D400088E30895803F21F40E947F26819504C066
:104D5000813F29F40E947F268093B9020895823F03
:104D600021F40E947F26819504C0833F29F40E948C
:104D70007F268093B8020895893F19F40E945D262A
:104D800005C08A3F31F40E945D2681958093BA0266
:104D900008958B3F21F40E945D26819504C08C3FCD
:104DA00029F40E945D268093BB0208959CE0980F31
:104DB000953078F421E030E0A90102C0440F551F7E
:104DC0009A95E2F7CA019091B702892B8093B702B6
:104DD00008958D3F21F48091B00281600BC08E3F19
:104DE00021F48091B002826005C08F3F29F4809148
:104DF000B00284608093B0020895FC0180819181AB
:104E00000E94261592959F70963079F010F492507A
:104E100001C09A50923068F4803F69F018F4883EDF
:104E200040F409C0843F29F406C0883E20F0813F49
:104E300011F080E0089581E0089580E090E00E9404
:104E40007E1C80E090E00E94681C109263020E9429
:104E5000F513E6EBF2E086E0DF011D928A95E9F7B3
:104E60001092B1021092AF021092B0020E943A2545
:104E700008951092640280910C01882331F0809192
:104E8000760287FF02C08EE101C086E0EBECF1E024
:104E9000DF011D928A95E9F70E941D270895882356
:104EA00041F08095909163028923809363020E9470
:104EB000F5130895882339F090916302892B80932C
:104EC00063020E94F5130895882321F00E94EE13D7
:104ED0000E94F5130895882339F090916402892B7C
:104EE000809364020E94F5130895882309F45FC03B
:104EF000823869F40E94941C81FF59C069E389ECEF
:104F000091E00E94221C0E94F51369E30EC08338D1
:104F100099F40E94941C80FF4AC063E589EC91E0FB
:104F20000E94221C0E94F51363E589EC91E00E9427
:104F3000E91B0E94F5130895843869F40E94941CBB
:104F400082FF35C067E489EC91E00E94221C0E9438
:104F5000F51367E4EACF9CEF980F913A10F4682FAD
:104F6000E4CF90E2980F983050F4877091E001C040
:104F7000990F8A95EAF7892F0E94EE13DACF9BE505
:104F8000980F933028F480E090E00E947E1C0895F2
:104F900098E5980F973128F480E090E00E94681C13
:104FA0000895803F20F00E94E6250E943A2508954A
:104FB000CF93882309F4BDC0C82F8238B1F40E9472
:104FC000941C81FDB6C069E389EC91E00E94221C2B
:104FD0000E94F5132FEF81EE94E021508040904025
:104FE000E1F700C0000069E317C08338E1F40E94D4
:104FF000941C80FD9EC063E589EC91E00E94221C18
:105000000E94F5132FEF81EE94E0215080409040F4
:10501000E1F700C0000063E589EC91E00E94E91B24
:105020000E94F51386C08438B1F40E94941C82FD5E
:1050300080C067E489EC91E00E94221C0E94F51375
:105040002FEF81EE94E0215080409040E1F700C0C6
:10505000000067E4E1CF8CEF8C0F813AC0F58091BE
:105060000C018823E1F08091760287FF18C0EC2FB5
:10507000E695E695E695F0E0E753FE4F8281282F0E
:1050800030E04C2F477081E090E002C0880F991FFC
:105090004A95E2F782239323892B61F412C0EBEC4B
:1050A000F1E081ED91E02191C21721F08E179F0769
:1050B000D1F707C06C2F89EC91E00E94E91B0E9498
:1050C000F5136C2F89EC91E00E94221CA9CF80E29D
:1050D0008C0F883068F4C77081E090E001C0880FC1
:1050E000CA95EAF790916402892B8093640298CF65
:1050F000EBE5EC0FE33040F4F0E0E35FFE4F80813E
:1051000090E00E947E1C15C0E8E5EC0FE73150F4FA
:10511000F0E0EE0FFF1FE05FFE4F808191810E9463
:10512000681C07C0C03F28F08C2F0E94A2260E9456
:105130003A25CF9108951F93CF93DF93182F89338A
:1051400019F0C0E0D0E002C0C0E5D0E0812F0E949D
:10515000D827209741F08FE99FE00197F1F700C031
:1051600000002197F6CF812F0E947527DF91CF9104
:105170001F910895F999FECF92BD81BDF89A9927A4
:1051800080B50895A8E1B0E042E050E00C94EE282C
:10519000262FF999FECF92BD81BDF89A019700B4F0
:1051A000021639F01FBA20BD0FB6F894FA9AF99A90
:1051B0000FBE08950396272F0E94C9280E94C82871
:1051C000252F0E94C928242F0C94C9280196272F27
:1051D0000E94C9280C94C828DC01CB01FC01F99974
:1051E000FECF06C0F2BDE1BDF89A319600B40D9233
:1051F00041505040B8F70895DB018F939F930E9470
:105200007E29BF91AF91A29F800D911DA39F900D0C
:10521000B29F900D11240895991B79E004C0991F45
:10522000961708F0961B881F7A95C9F78095089500
:10523000AA1BBB1B51E107C0AA1FBB1FA617B707BC
:1052400010F0A61BB70B881F991F5A95A9F78095D8
:105250009095BC01CD01089597FB072E16F400949C
:1052600007D077FD09D00E94182907FC05D03EF42D
:10527000909581959F4F0895709561957F4F089502
:10528000A1E21A2EAA1BBB1BFD010DC0AA1FBB1F4A
:10529000EE1FFF1FA217B307E407F50720F0A21BBC
:1052A000B30BE40BF50B661F771F881F991F1A9429
:1052B00069F760957095809590959B01AC01BD0153
:1052C000CF010895EE0FFF1F0590F491E02D099492
:1052D0006927962769277827872778270895A29F27
:1052E000B001B39FC001A39F700D811D1124911DBA
:1052F000B29F700D811D1124911D08950E946F2988
:10530000A59F900DB49F900DA49F800D911D112419
:1053100008952F923F924F925F926F927F928F9259
:105320009F92AF92BF92CF92DF92EF92FF920F9334
:105330001F93CF93DF93CDB7DEB7CA1BDB0B0FB63E
:10534000F894DEBF0FBECDBF09942A8839884888FB
:105350005F846E847D848C849B84AA84B984C88491
:10536000DF80EE80FD800C811B81AA81B981CE0F88
:10537000D11D0FB6F894DEBF0FBECDBFED0108956D
:10538000FB01DC0104C08D910190801921F4415092
:0E5390005040C8F7881B990B0895F894FFCF82
:10539E0093174C182D182818231892170181828301
:1053AE00E200E900EA00B500B600B700CD008301C7
:1053BE00CC008A01920194012102230224022502CB
:1053CE00260227022A02B300B4006F0070004022AA
:1053DE00B622A1057F05C904A704F3050C062C0609
:0253EE00450672
:00000001FF
