:100000000C9488040C94C0040C94C0040C94C00498
:100010000C94C0040C94C0040C94C0040C94C00450
:100020000C94C0040C94C0040C946F1C0C94B11B71
:100030000C94131F0C94C0040C94C0040C94C004C2
:100040000C94C0040C94C0040C94C0040C94C00420
:100050000C9430210C94D21E0C94C0040C94C00457
:100060000C94C0040C94C0040C94C0040C94C00400
:100070000C94C0040C94C0040C94C0040C94C004F0
:100080000C94C0040C94C0040C94C0040C94C004E0
:100090000C94C0040C94C0040C94C0040C94C004D0
:1000A0000C94C0040C94C0040C94C0044109410990
:1000B00074097409E709050A130B130B100A840A63
:1000C000950A950A380B3A0B420B780B910B520BA1
:1000D000AC0B7A107D10A310B010B710C210C51071
:1000E00022115C11021202126B116D117011951127
:1000F000B711BA11BD11E111C919F019991BF01905
:10010000991B3C1A5F1A991B541B641B00000000CA
:1001100000000000000000000000000000000000DF
:1001200000000000000000000000000000000000CF
:100130007E0F00D4FFFFFFC7000000780000000022
:10014000000000002A2B2800000000000000000032
:100150000000000000000029000000002C1E3420D8
:10016000212224342627252E362D3738271E1F20FE
:100170002122232425263333362E37381F04050643
:100180000708090A0B0C0D0E0F1011121314151687
:100190001718191A1B1C1D2F3130232D3504050685
:1001A0000708090A0B0C0D0E0F1011121314151667
:1001B0001718191A1B1C1D2F3130354C00047F3FB6
:1001C0001F643214643214783C1E1E140A050501A3
:1001D0000902A10185020901A100050919012908E7
:1001E00015002501950875018102050109300931C5
:1001F0001581257F95027508810609381581257FAF
:10020000950175088106050C0A38021581257F9530
:100210000175088106C0C005010980A10185031987
:10022000012AB700150126B700950175108100C09D
:10023000050C0901A101850419012AA00215012656
:10024000A002950175108100C005010906A1018574
:1002500006050719E029E7150025019508750181B4
:10026000020507190029EF1500250195F075018198
:100270000205081901290595057501910295017579
:10028000039101C00660FF0961A101096215002602
:10029000FF009520750881020963150026FF00956F
:1002A0002075089102C005010906A101050719E0A2
:1002B00029E715002501950875018102950175084A
:1002C00081010507190029FF150026FF0095067515
:1002D0000881000508190129059505750191029508
:1002E0000175039101C009025B00030100A0FA0936
:1002F0000400000103010100092111010001224055
:100300000007058103080001090401000203000041
:1003100000092111010001222200070582032000AB
:100320000107050303200001090402000103000086
:100330000009211101000122B600070584032000F5
:100340000112010002000000086469800001000140
:100350000200010A03490044003800300000000E8A
:1003600003490044004F00420041004F00000004D8
:10037000030904000000000000000000000001016B
:100380000203040506080A0C0F1114181C20242966
:100390002E33393F464C535B626A7179818A929A57
:1003A000A2AAB2B9C1C8CFD5DCE1E7EBF0F4F7FA05
:1003B000FCFDFEFFFEFDFCFAF7F4F0EBE7E1DCD517
:1003C000CFC8C1B9B2AAA29A928A8179716A625BD6
:1003D000534C463F39332E2924201C1814110F0C7E
:1003E0000A080605040302010100000000000000E5
:1003F000000000E000E10039002B0035002900007A
:10040000000000000000000000E3000000040014F1
:10041000001E003A0000000000000000000000E2A2
:10042000001D0016001A001F003B00000000004CD9
:10043000004A0049004F001B000700080020003C54
:100440000052000000310000004500510006000984
:1004500000150021003D00E500280030002E00447A
:1004600000500019000A00170022003E0038003436
:10047000002F002D0043002C0005000B001C002362
:10048000003F000000000000002A000151E40011BC
:10049000000D00180024004000370033001300272F
:1004A000004200E60010000E000C0025004100365E
:1004B000000F0012002600000001000100010001F1
:1004C000000100005C0000000000000000000001CE
:1004D0000000000100C25C010001000000000000FB
:1004E0000000000000010001000100010001000106
:1004F000000000000001000100A800C05C01000134
:1005000000C35C01000100BE5C00000100000001AE
:1005100000BD5CBD5C0100C55C0100010001000183
:1005200000010001000100BF5CBF5C0100C65C016E
:10053000000100010001000100010001000100BEF6
:100540005C0100C75C010001000000000000000128
:100550000001000100145C0100C85C010001000101
:10056000000100010001000100010001000100C9BB
:100570005C0100010001000100CA5C0100000001F3
:100580000001000100010001000100000000000066
:100590000000000000010000000100010001000156
:1005A0000000000000000000000000010001000148
:1005B0000001000100010000000000010001000135
:1005C0000001000100010001000100010001000024
:1005D0000001000000010001000100010001000114
:1005E0000001000100010001000100010001000103
:1005F00000010001000100010001000100010001F3
:1006000000010001000100010001000100010000E3
:1006100000000000000100010001000100010001D4
:1006200000010001000100010001000100010001C2
:1006300000010001000100010001000100010001B2
:1006400000010000000100010001000100010001A3
:100650000000000000000000000000010000000198
:100660000001000100010000000000000000000087
:100670000001000100010001000100010000000074
:100680000001000100010001000100010001000162
:100690000001000100000001000000010001000154
:1006A0000001000100010001000100010001000142
:1006B0000001000100010001000100010001000132
:1006C0000001000100010001000100010001000122
:1006D0000001000100000000000000010001000115
:1006E0000001000100010001000100010001000102
:1006F00000010001000100010001000100010001F2
:100700000001000100010001000000FFAA7F554028
:100710002223252628292A2C2D2F3032333536380E
:100720003A3B3D3E4042434547494A4C4E50515367
:100730005557595A5C5E6062646668696B6D6F718B
:10074000737577797B7D7F81838587898A8C8E908D
:10075000929496989A9C9E9FA1A3A5A7A8AAACAE96
:10076000AFB1B3B4B6B8B9BBBCBEBFC1C2C3C5C6D6
:10077000C7C9CACBCCCDCED0D1D2D2D3D4D5D6D77F
:10078000D7D8D9D9DADADBDBDBDCDCDCDCDCDDDDBD
:10079000DDDDDCDCDCDCDCDBDBDBDADAD9D9D8D7AD
:1007A000D7D6D5D4D3D2D2D1D0CECDCCCBCAC9C74F
:1007B000C6C5C3C2C1BFBEBCBBB9B8B6B4B3B1AF86
:1007C000AEACAAA8A7A5A3A19F9E9C9A9896949226
:1007D000908E8C8A89878583817F7D7B79777573FD
:1007E000716F6D6B6968666462605E5C5A595755DB
:1007F0005351504E4C4A4947454342403E3D3B3A97
:100800003836353332302F2D2C2A2928262523221D
:1008100000010101010101010101020202020202C3
:100820000202020303030303030303040404040496
:10083000040405050505050606060606070707075D
:100840000708080808090909090A0A0A0B0B0B0C12
:100850000C0C0D0D0D0E0E0E0F0F0F1010111111AF
:100860001212131314141515161617171818191930
:100870001A1A1B1B1C1D1D1E1E1F20202122222395
:100880002424252626272829292A2B2C2D2D2E2FD6
:1008900030313232333435363738393A3B3C3D3EED
:1008A0003F404142434445464748494A4C4D4E4FDC
:1008B00050515354555658595A5B5D5E5F6162649E
:1008C000656668696B6C6D6F7072737577787A7B2B
:1008D0007D7E8082838587888A8C8E8F9193959682
:1008E000989A9C9EA0A2A3A5A7A9ABADAFB1B3B5A2
:1008F000B7BABCBEC0C2C4C6C9CBCDCFD1D4D6D87E
:10090000DBDDDFE2E4E7E9EBEEF0F3F5F8FAFDFF1B
:1009100011241FBECFEFDAE0DEBFCDBF04B603FE69
:1009200018C080911B0390911C03A0911D03B091EE
:100930001E038730904BA740B04B59F410921B0315
:1009400010921C0310921D0310921E03E0E0F8E3C6
:10095000099511E0A0E0B1E0E0E7F6E502C00590FE
:100960000D92A639B107D9F723E0A6E9B1E001C09D
:100970001D92AB31B207E1F70E94910C0C94362B1B
:100980000C9400000E94F9282FEF84E39CE0215092
:1009900080409040E1F700C000009CE088E10FB685
:1009A000F894A895809360000FBE90936000FFCFED
:1009B000A7E1B0E0EEEDF4E00C94E82A4B8B5C8B01
:1009C0006D8B7E8B8F8B611110924D0286E09E01A4
:1009D000235F3F4FD901E82F1D92EA95E9F795E093
:1009E000FE017396D90101900D929A95E1F79C89C9
:1009F0004E895F897B897D879E876F87598B488B5E
:100A0000F901DE01179601900D928A95E1F7CE016A
:100A100007960E94961681113EC086E0FE01379629
:100A2000DE01119601900D928A95E1F7FF81E8852C
:100A30006A857B856115710531F0EF3F31F481E006
:100A4000FF3F19F403C081E001C080E080FD23C0B6
:100A50002091FA0130E0C9010196877099274091F1
:100A60002B0250E08417950779F1F983EA837D839F
:100A70006C8396E0929FD001939FB00D1124A550F6
:100A8000BE4FFE01319601900D929A95E1F7809349
:100A9000FA010E94161616E080912B029091FA013D
:100AA0008917F9F0189FC001112485509E4F0E94AC
:100AB00096168823B1F080912B0290E00196877002
:100AC000992780932B02E8CF0E94F9281092FA010F
:100AD00010922B02E4EFF1E086E0DF011D928A958F
:100AE000E9F76796E3E00C94042B81FD02C0479A76
:100AF000089547980895A9E0B0E0E1E8F5E00C9486
:100B0000DA2AFC018081918123813481232B31F009
:100B10009F3F31F491E08F3F19F403C091E001C091
:100B200090E090FDFAC67F0185E0DE01119601900C
:100B30000D928A95E1F7F701228189819A8122231A
:100B400049F00E941E28182F682F89819A810E94DF
:100B5000812803C00E944D28182F69817A81812F36
:100B60000E94D5208C01F7018281882309F4F5C009
:100B7000980122513F452031310508F00AC18FEF1D
:100B800093E00E94EB298111F2C002513FE3832ED2
:100B900033E0932E002379F08114F4E09F0609F4EA
:100BA000E6C0C4010E94EB29811101C001502FEF62
:100BB000821A920AEFCF1E821F8218861986442459
:100BC00043942AE0322E84010F5F1F4FC4010E941C
:100BD000EB298E831F82882309F4C9C09FEF980FE9
:100BE000933060F48F834E8232E0830E911CC801F3
:100BF0000E94EB298887811102C0B9C048018E018B
:100C00000A5F1F4FF80120812223E9F2213009F009
:100C10004CC08181813049F46801F2E0CF0ED11CD3
:100C2000F80182810E94CC290AC0823051F4680107
:100C3000F2E0CF0ED11CF80182810E945529860175
:100C400089C0833049F46801F2E0CF0ED11CF8016D
:100C500082810E942029F3CF843019F00F5F1F4F4B
:100C600079C0F80122810E5F1F4F80E090E030E0F4
:100C7000205331092A30310568F4389EA001399E8D
:100C8000500D1124C901840F951F0F5F1F4FF801EC
:100C90002081EDCF009709F45DC0EFE9FFE03197C7
:100CA000F1F700C000000197F5CFE22FF0E0E45C1F
:100CB000FE4F5490822F86958695869590E0FC0194
:100CC000E45DFE4F64902770712C022E02C0759473
:100CD00067940A94E2F7F1E06F227724FC01E45E66
:100CE000FE4FA490B12C022E02C0B594A7940A9492
:100CF000E2F731E0A322BB24FC01E45FFE4FC49085
:100D0000D12C02C0D594C7942A95E2F781E0C8227D
:100D1000DD246114710419F081EE0E945529A1149B
:100D2000B10419F086EE0E945529852D0E94CC2928
:100D3000A114B10419F086EE0E94202961147104F7
:100D400019F081EE0E942029C114D10419F08CE21F
:100D50000E94CC290F5F1F4F55CF00313FE513078D
:100D600009F004C581E00E94BB280E94DA18809136
:100D70002C02877009F4D1C5F7018281882309F418
:100D8000CCC58091970282FFC8C582E00E94DD1524
:100D9000C4C50031FFE51F0711F481E005C0013132
:100DA0002FE5120721F482E00E94C828DECFF80167
:100DB000EB5BFC45E730F10508F456C4033FFCE566
:100DC0001F0799F406E221EE40EE63EF7CE509C0CF
:100DD000073DECE51E0711F506E221EE41EE67ED59
:100DE0007CE5C7010E94D21FC2CF043F2CE5120749
:100DF00008F05FC1083D3CE5130731F407E225EE3A
:100E000045EE68ED7CE5EDCF093D9CE5190701F75E
:100E100008E221E045EE69ED7CE5E3CF882309F4A3
:100E20007DC110928A0203309DE5190758F40A3FEC
:100E3000ECE51E0780F4C80182509C45449708F0F9
:100E400057C109C00136FDE51F0729F0053A2DE518
:100E5000120709F04DC10E94F314909397028093FA
:100E6000960201313CE5130709F4C9C008F043C0FC
:100E700009309CE5190709F49EC008F50530FCE52A
:100E80001F0709F488C080F403303CE5130709F418
:100E90007BC008F07DC002309CE5190709F0F9C05D
:100EA000809196028160F3C00730ECE51E0709F4DB
:100EB0007AC008F07CC0809196028061E8C00D3055
:100EC0002CE5120709F489C058F40B308CE518079B
:100ED00009F47BC008F07DC080919602886071C0E3
:100EE0000F30ECE51E0709F482C008F084C0809141
:100EF0009602877FCCC00D3F2CE5120709F473C022
:100F000008F505318CE5180709F487C068F403314A
:100F1000ECE51E0709F477C008F097C00E94F92895
:100F2000809196028F77B3C00B3F2CE51207B9F181
:100F300008F056C00A3F8CE5180709F0AAC0809156
:100F4000970241C001309DE5190709F48AC058F4A1
:100F50000F3FFCE51F0709F45BC008F06AC08091F1
:100F60009702826030C001363DE5130709F47FC067
:100F7000053A8DE5180709F484C002309DE519078C
:100F800009F087C060E06EC08091960282607FC0E9
:100F90008091960216C080919602886078C08091F8
:100FA000970282604FC080919602806270C08091EB
:100FB000960280646CC00E94F92880919602806835
:100FC00066C0846064C081603DC0809196028E7F5F
:100FD0005EC0809196028D7F5AC08091960216C0A5
:100FE0008091970218C0809197028D7F2BC08091CD
:100FF00096028F7E4CC0809196028F7D48C0809172
:1010000096028F7B44C080919602877F8B7F3FC082
:10101000809197028D7F8E7F15C08091960282FB12
:10102000222720F991E0922790FB82F990FB83F927
:101030002EC080919702982F909591708E7F892B6A
:1010400090FB81F98093970224C00E94F928809137
:10105000960287FB222720F991E0922790FB87F9DF
:1010600016C061E08EE090E00E94FF2912C08091DE
:10107000960284FB222720F991E0922790FB84F9C5
:1010800006C080919602982F909590FB80F98093EE
:101090009602609196021091970284E090E00E947F
:1010A000FF29612F82E290E00E94FF290E94F92827
:1010B0005ECE053FFCE51F0731F406E221EE42EE6D
:1010C00065EF7CE58ECE053F2CE5120730F407E294
:1010D00025EE44EE64EF7CE584CE063F3CE5130745
:1010E00009F09CCE07E225EE46EE66EF7CE579CE70
:1010F00006318CE5180721F580914E028A7A91E03D
:1011000009F490E090939801882311F065E301C001
:1011100069E284ED91E00E94641F0FC00631ECE5A6
:101120001E0709F044C080919801882309F425C363
:1011300065E384ED91E00E943C1F0E94881517CE64
:101140000A353DE5130769F158F401159CE51907C7
:1011500081F00E3D1C4509F047C00E94101517C0D4
:101160000C35FDE51F07A9F0F0F0073A1D4579F0B1
:101170003BC00E94F9288FEF94E3ECE0815090404F
:10118000E040E1F700C000000E94AE1EF0CD0E94DA
:10119000C2048091970282FB882780F991E0892719
:1011A00003C081E001C080E00E94FA151DC080915B
:1011B0004E0282720C3CECE51E0709F48EC308F067
:1011C00011C3063C2CE5120709F473C308F0E6C20C
:1011D000033C9CE5190709F462C308F0D0C2023C45
:1011E000FCE51F0709F436C3F701828100811181F4
:1011F000882349F0C8010E941E28D82E682FC801F4
:101200000E94812804C0C8010E944D28D82EB80130
:101210008D2D0E94D5200E945913B82E192F982E7B
:10122000F7010281A580A2949FE0A92280912C025F
:101230008770B9F00023A9F0812F807F803421F0DE
:1012400080E28B0D883068F08091970282FF09C0A0
:1012500082E00E94DD1580912C028770DD24D394FA
:101260008111D12CC12EC2948FE0C8228C2D90E028
:101270008C30910508F0D7C1FC01EA5AFF4F0C945D
:101280009B2A812F807F1F70882311F01295107F79
:101290000023B9F0112309F4B4C180E28B0D88302A
:1012A00010F0911006C080914E02182B10934E0240
:1012B00005C080914D02182B10934D020E94881595
:1012C000A0C18B2D0E942029112309F4ACC180E21A
:1012D0008B0D883080F1992071F1109580914D022D
:1012E000182310934D022AC0812F807F1F708032F7
:1012F00011F01295107F8B2D992021F0F1E09F16AF
:10130000D9F149C08091970282FD1BC0002369F08A
:10131000112339F080914E02182B10934E020E9437
:10132000881580E00E9455297EC180E00E94202916
:10133000112309F478C1812F0E9481150E9488151C
:1013400072C1002381F080914F02AA2051F021E068
:10135000A21207C0182B181709F465C110934F0289
:1013600062C1812B10C0AA2021F031E0A31609F43C
:101370005AC10E947B1527C0002341F085E08A15E1
:1013800008F451C1812F0E9416294DC194E09A158D
:1013900008F449C118C0002349F0AA2099F3F701C5
:1013A000858180FF2EC18F708583ECCFAA2059F0F4
:1013B000893309F035C1FFEF27EE33E0F1502040CB
:1013C0003040E1F72BC1812F0E940F292CC1812FC2
:1013D00086958695837019F0813061F024C10023D1
:1013E00021F08B2D912F937002C080E090E00E943D
:1013F000AF1F21C1002321F08B2D912F937002C0CC
:1014000080E090E00E94991F16C18B2D002319F0F7
:101410000E94A72702C00E94EE260E94C4260BC18C
:10142000812F8370A9F5011102C14B2D429546957C
:101430004770440F440F8B2D8F7090E09C01042E59
:1014400001C0220F0A94EAF7B4FE08C08FE090E0D2
:1014500001C0880F4A95EAF7809501C080E0169593
:1014600016951370123069F088F490915002113083
:1014700019F0822B892302C0922B892B0E94D42839
:10148000D6C0822B909150028927F8CF822BF6CFBD
:10149000002319F0812F817001C08695882309F4FB
:1014A000C6C04B2D429546954770440F440F8B2D77
:1014B0008F7090E09C01042E01C0220F0A94EAF77D
:1014C000B4FE08C08FE090E001C0880F4A95EAF7AB
:1014D000809501C080E0169516951370123059F072
:1014E00078F490918302113019F0822B892309C07E
:1014F000922B892B06C0822B90918302892701C0F1
:10150000822B0E94B62893C01F70002339F0812FD0
:101510000E94C8288B2D0E94162989C08B2D0E94FD
:101520000F29812F0E94BB2882C08B2D92EF991624
:1015300081F1991538F0E0EF9E1659F0F1EF9F1602
:1015400019F15BC023EF921659F134EF9316C1F0F5
:1015500054C0002381F084E08A1508F464C01F7130
:1015600081E090E0012E01C0880F0A94EAF7909183
:101570008302892720C095E09A1508F454C0EFCF64
:101580008091970282FD1AC0002329F0812F8F716C
:1015900027C00023D9F3812F8F710E94BB2843C03D
:1015A000002341F01F7181E0012E01C0880F0A94D1
:1015B000EAF701C080E00E94B62835C0002399F008
:1015C0001F71812F0E94C8288091970282FF07C057
:1015D000E8E01E9FC0011124836080932C02812FBC
:1015E0000E94C82820C081E00E94DD15F1E0FA15B4
:1015F000D0F482E00E94DD1516C0002321F0AA205D
:1016000029F28B2D8FCEAA2031F2893349F42FEFA6
:1016100037EE83E0215030408040E1F700C0000009
:101620008B2D0E94202988EF8C0D843020F40E949D
:10163000C51F0E947505DD2009F46FC180912C0241
:1016400080FD6BC1F70112828595859585950E9475
:10165000C828C7010E947B0580912C02859585953D
:1016600085950E94BB2859C1EE59FF4F0C949B2AC7
:1016700083E001C080E00E942D22809184020E94BC
:10168000D72175CB80918402982F96959695969543
:1016900049F1915E990F990F990F8770892B80936B
:1016A000840214C090918402892F86958695869530
:1016B0008F5F8F719770843008F04BC0880F880F50
:1016C000880F892B8093840280918402887F91E027
:1016D00009F490E08091840290FB80F98093840269
:1016E0000E94D7218091840286958695869523C095
:1016F00020918402822F869586958695482F50E00A
:101700004330510554F48F5F982F990F990F990F1B
:10171000822F8770892B809384028091840281605C
:10172000DDCF8091840280FF09C08E7F8093840288
:101730000E94D72180E00E94A92119CB816080936B
:101740008402813019F489E08093840280918402BC
:10175000C7CF90938402B8CF8091840281FF03C0E9
:101760000E94DD2104CB0E94F32101CB01319FE5D2
:10177000190709F023CB82E0F6CA69E2DACC043C0F
:101780002CE5120709F490C0053C3CE5130709F06D
:101790002BCD4EE955E268EA75E2A3C0093C9CE511
:1017A000190709F490C078F4073CFCE51F0709F419
:1017B00085C0083C2CE5120709F016CD41E955E239
:1017C00064E875E28EC00A3C3CE5130709F480C06A
:1017D0000B3C9CE5190709F007CD49E052E26BE1AB
:1017E00072E27FC0013DECE51E0709F486C0A0F45B
:1017F0000E3C2CE5120709F47AC008F475C00F3CC2
:101800008CE5180709F476C0003D9CE5190709F03E
:10181000EBCC6EE089E079C0043DECE51E0709F4ED
:1018200072C068F4023D2CE5120709F469C0033D5B
:101830003CE5130709F0D8CC61E088E16BC0053DB9
:101840008CE5180709F464C00D359DE5190709F406
:101850008ECACACC8091E20280FF1BC08E7F80932B
:10186000E2026091E2027091E3028091E4029091C1
:10187000E5020E94C5251092A202EFEFF0E722E0F8
:10188000E150F0402040E1F700C000000E94A42297
:101890006ECA81608093E20261E086953BC043E1BD
:1018A00056E26DE176E21DC04DE156E263E176E27B
:1018B00018C048EA55E26EE975E213C044E855E203
:1018C00061E975E20EC04AE655E267E775E209C0D4
:1018D00047E755E26AE675E204C04BE152E269E08F
:1018E00072E20E94872243CA61E081E013C065E092
:1018F00082E00BC068E086E008C064E18FE005C0CC
:1019000067E185E102C062E289E10E9473222FCA89
:1019100061E083E20E94D8252ACA2996E1E10C946D
:10192000F62AAAE2B0E0E7E9FCE00C94DA2A85B7EF
:10193000806885BF85B7806885BF84B7877F84BF8F
:101940000FB6F894A895809160008861809360003C
:10195000109260000FBE90E080E80FB6F89480937C
:101960006100909361000FBE85E592E1909397012D
:10197000809396010E94F51B0E94141C8091E20046
:1019800084608093E2007894809179028823A1F0AA
:101990001091E9001F709091EC00892F817090FDEB
:1019A00080E8182B1092E9008091E80083FD0E94E6
:1019B000E6181F701093E90082E084BD93E095BDA6
:1019C0009AEF97BD80936E000E941721811102C08B
:1019D0000E9407210CE111E0D8018D918D018F3F0C
:1019E00011F00E949A12B1E005321B07A9F705E237
:1019F00011E0B0E3EB2EB1E0FB2EF80181918F01F5
:101A00008F3F11F00E949A12E016F106B1F782E1C1
:101A1000E2ECF1E0DF01282F1D922A95E9F7E9E9D0
:101A2000F1E0DF011D928A95E9F70E94041581110A
:101A300002C00E94101582E090E00E94EB29809382
:101A4000AE010E94F31490939702809396020E9435
:101A5000B112BFEFE6E7F1E0B150E040F040E1F74E
:101A600000C000000E94B1128091C20185FF08C031
:101A70006FEF7FEF80E090E00E941D2A0E94AE1E73
:101A800083E090E00E94EB290E94D4283F9A479A75
:101A9000269A2E9882E28093800089E180938100CB
:101AA0008FEF9FEF90938700809386000E944722DC
:101AB0008091840281FF0BC01092870210928602EF
:101AC0001092850280916F00816080936F000E9468
:101AD00047228091AB01811133C00E94041581110E
:101AE00004C00E9410150E94282688E090E00E9401
:101AF000F3296093E2027093E3028093E4029093EF
:101B0000E5026E7F71F40E94282688E090E00E9432
:101B1000F3296093E2027093E3028093E4029093CE
:101B2000E5020E94B2251092A2028091E20280FF9B
:101B300004C060E086950E94D82581E08093AB01C7
:101B400080E091E090938E0280938D02E8E14E2E2A
:101B5000512CF0E43F2EA4ED6A2EA1E07A2E8E01E6
:101B60000F5F1F4F4E0123E1820E911C809179027D
:101B7000853009F07EC0DD24D39460E1E62E72E169
:101B8000F72E80917902853009F05AC08091790250
:101B9000843009F443C080E00E94A92180E00E94C3
:101BA00075051092A2028091AD01811116C0D092EC
:101BB000AD018091E202982F91709093AC018E7FDD
:101BC0008093E2023FEF40E782E0315040408040A6
:101BD000E1F700C000000E94A422109291020FB60B
:101BE000F894A895409260000FBE3092600083B7D1
:101BF000817F846083BF83B7816083BF7894889539
:101C000083B78E7F83BF0FB6F894A895809160004C
:101C1000886180936000109260000FBE809178020E
:101C2000882309F4AECF0E94B112E2ECF1E0819179
:101C30009191892B09F010C46E167F06C1F7A1CFD0
:101C40000E94F9280E9447220E94C51F0E94750524
:101C50001092AD018091AC01882349F08091E2029D
:101C600081608093E20260E086950E94D8250E9400
:101C70008E220E94B112882359F08FB7F8944091B8
:101C800092025091930260919402709195028FBFDD
:101C900052ECA52E51E0B52EAFEAB1E0F501E12CF2
:101CA000F12C6E2D219131918D919D918227932759
:101CB000009779F170E0CC24C394D12CAC014C2175
:101CC0005D21452B09F179A36AA32C213D2181E0F7
:101CD000232B09F480E08BA30E94071F8160782FDB
:101CE0009DA38CA349A15AA16BA18DA10E94D804E8
:101CF000F701EE0FFF1FE155FE4F80819181C8264D
:101D0000D926D182C0821CC07F5FCC0CDD1C7B3009
:101D1000A9F69FEFE91AF90A29E0E216F10409F69B
:101D20008FEF8EA38FA318A60E94071F8160782FC4
:101D30009AA789A74EA15FA168A58AA50E94D80489
:101D40008091A202882309F498C08091A102E091B9
:101D5000E202E695E81BE0939D02823059F4F0E040
:101D6000E653FE4FE491EE2EF12C8DEDC82E84E269
:101D7000D82E5EC0863059F4F0E0E953FE4FE4916E
:101D8000EE2EF12CBDECCB2EB4E2DB2E51C089300F
:101D900061F4E695F0E0EC53FE4FE491EE2EF12C69
:101DA000A0E4CA2EA4E2DA2E43C08F3061F4E69597
:101DB000F0E0EF53FE4FE491EE2EF12CFBEDCF2E31
:101DC000F3E2DF2E35C0853159F4F0E0E254FE4FE6
:101DD000E491EE2EF12CEDE8CE2EE3E2DE2E28C0CB
:101DE0008831B1F0833249F4ECEBF1E0E590F49006
:101DF0007BE7C72E74E2D72E1BC0843289F050EDEA
:101E0000E52E57E0F52E68E0C62E62E2D62E10C011
:101E100038E2E32EF12C42E1C42E43E2D42E08C076
:101E200094EFE92EFF24F3942AEDC22E22E2D22E63
:101E300080919E02882361F010929E020E94071FEB
:101E400090939C0280939B021092A00210929F029A
:101E50000E94071FE0919B02F0919C028E1B9F0B3A
:101E60008F3F9F4750F4EE0EFF1EF0929C02E092CF
:101E70009B028BE992E0F601099586E0EEEEF2E036
:101E8000D80101900D928A95E1F71092F00210921C
:101E9000F1021092F2021092F3028B81811104C0C0
:101EA0008C81882309F453C08091EC029091ED025B
:101EB0000E94F81E9C019091E802992309F4EBC25C
:101EC0002531310508F443C09F3F19F09F5F90937F
:101ED000E802FB80FF2061F00E9487271F1414F4A2
:101EE00091E001C09FEF899F802D11248093F00223
:101EF000FC80FF2061F00E9487271F1414F491E0FA
:101F000001C09FEF899F802D11248093F1023091B1
:101F1000F0023323E1F02091F1022223C1F045EBDE
:101F20003403C0011124992319F09093F00203C0E7
:101F300081E08093F00235EB2303C0011124992343
:101F400019F09093F10203C081E08093F1028D813A
:101F5000811104C08E81882309F453C08091EA0264
:101F60009091EB020E94F81E9C019091E702992348
:101F700009F496C22135310508F443C09F3F19F09A
:101F80009F5F9093E702FD80FF2061F00E9465272C
:101F90001F1414F491E001C09FEF899F802D11243C
:101FA0008093F202FE80FF2061F00E9465271F14DB
:101FB00014F491E001C09FEF899F802D112480933C
:101FC000F3023091F2023323E1F02091F302222355
:101FD000C1F045EB3403C0011124992319F090930B
:101FE000F20203C081E08093F20235EB2303C001CB
:101FF0001124992319F09093F30203C081E0809398
:10200000F30246E050E0B8018EEE92E00E94292BE8
:10201000892BA9F48091F00281110FC08091F10207
:1020200081110BC08091F202811107C081E0909173
:10203000F302911103C080E001C081E080FD0E94A5
:10204000C42686E0F801AEEEB2E001900D928A95CA
:10205000E1F70E94C51F9091C101891721F080937B
:10206000C1010E94750580917902843009F07ECD0E
:1020700083E08093E9008091E80082FF77CD809132
:10208000E80085FF21C00E94461D81111BC080E22F
:10209000E82EF12C680109C08091F100D6018D93E2
:1020A0006D01B1E0EB1AF10869F08091E80085FD5F
:1020B000F3CF8091E8008B778093E8000E94461D63
:1020C000882399F391E001C090E08091E8008B773C
:1020D0008093E800992309F449CDE9818E2F90E09F
:1020E000FC013197E331F10508F08CC1E759FF4F4E
:1020F0000C949B2A1A8289E0DDC08A81823009F41F
:10210000C1C1833089F0813009F07CC12FB7F894C8
:102110008091920290919302A0919402B0919502C5
:102120002FBFBB83AC8321C0F801D5018C911196E0
:102130009C91B2E0AB0EB11C9283838332968E16D3
:102140009F0699F761C18A81823009F05BC16B817A
:102150007C818D819E810E94A12A0E94E32054C12E
:102160004C816B818A810E94A7209D8392C12D8121
:102170003E813227232732274C816B818A810E943E
:102180004B2042C10E9472203FC18A81893019F0E0
:102190008A3071F015C08B81E3E08E9FC00111245D
:1021A0006FEF70E00E94512A862F0E942D2208C0F6
:1021B0008B81811103C00E94DD2102C00E94F321A6
:1021C0008A818138B1F050F4803809F01DC120E0D7
:1021D0004B816091E4028091E30231C0823859F171
:1021E000833809F011C120E04091E5026C818B81B8
:1021F00026C060E08B810E94D8259B818091E202FD
:10220000911111C08E7F8093E2021092A202FFEF23
:1022100020E732E0F15020403040E1F700C00000FC
:102220000E94A422F1C081608093E20260E0869562
:102230000E94D825E9C08B818093E602E5C00E9408
:10224000F124E2C08A81893039F08A30A1F480918A
:102250008402869581702EC0809184028695869531
:1022600086954FEF849FC001112463E070E00E94C7
:10227000512A6B83C9C0813899F030F4803809F055
:10228000C3C08091E50216C0823891F0833809F00E
:10229000BBC08091E3028B838091E4028C83B4C045
:1022A0008091E20280FF02C0869504C080E002C0F7
:1022B0008091E6028B83A8C0809184020E94D7217E
:1022C0006091E2027091E3028091E4029091E50254
:1022D0000E94C52599C080E14EC01A8281ECEACFE8
:1022E000EA80FB80FE24EF24FE24AC80B12C680140
:1022F000C701815C9C4F9601201B310B2A153B05C1
:1023000008F082C0A1ECEA16F10428F40E94EB293F
:10231000F601848303C0D60114961C92BFEFEB1A1A
:10232000FB0AEFEFCE1ADE0AE3CFEA80FB80FE2441
:10233000EF24FE24AC80B12C6801C701815C9C4F66
:102340009601201B310B2A153B0508F05DC0F1EC0E
:10235000EF16F10428F4D60114966C910E94FF291F
:10236000BFEFEB1AFB0AEFEFCE1ADE0AE6CF0E94B0
:102370003B204AC084E08A8347C0EA80FB80FE2479
:10238000EF24FE24AC80B12C6801C701879696012A
:10239000201B310B2A153B05B8F5F8E1EF16F3E0E9
:1023A000FF0630F40E94EB29D60114968C9302C0EC
:1023B000F6011482FFEFEF1AFF0A2FEFC21AD20ABA
:1023C000E4CFEA80FB80FE24EF24FE24AC80B12C15
:1023D0006801C70187969601201B310B2A153B0522
:1023E00098F438E1E31633E0F30628F4D6011496A6
:1023F0006C910E94FF29BFEFEB1AFB0AEFEFCE1A98
:10240000DE0AE7CF8FEF898380917902843009F06B
:10241000ADCB8091E9008F702091EC00922F9170EC
:1024200020FD90E8F92EF82A82E08093E90080915F
:10243000E80080FF0CC040E050E060E270E0C801BE
:102440000E94791D8091E8008E778093E8008F2D9F
:102450008F708093E9008ACBE9BCF9BC09B400FE17
:10246000FDCF8091D8008F7D8093D8008091E000CF
:1024700082608093E0008091E00081FDFCCF0E94AB
:10248000F9287FCB86E290E00E94EB291B821C8218
:102490001D828E83B9CF2B30310508F017CD57CD73
:1024A0002B30310508F06CCDACCD80E008959091D3
:1024B000960292FF0DC0282F2871283019F4877FCB
:1024C000846006C0282F2471243011F48B7F88602B
:1024D00093FF0DC0282F2871283119F4877E84615D
:1024E00006C0282F2471243111F48B7E886120913D
:1024F000970220FF0DC0382F3871383019F4877FCC
:10250000816006C0382F3171313011F48E7F8860C0
:1025100021FF0DC0282F2871283119F4877E816191
:1025200006C0282F2171213111F48E7E886194FD1F
:10253000877E0895F894E82FE295EF70F0E031A1DE
:10254000282F2F7081E090E001C0880F2A95EAF7CC
:10255000982F9095932391A392A1892B82A378948D
:102560000895A2E1B0E0E7EBF2E10C94DF2AAE01BE
:102570004F5F5F4F7A0182E1FA0111928A95E9F784
:102580000CE111E06A01AA24A394B12CF801808126
:102590008F3F09F447C0F894E82FE295EF70F0E020
:1025A00021A18F70A50102C0440F551F8A95E2F743
:1025B000CA01922F982B91A392A18095892382A37F
:1025C000789400C0E5E2F1E021E030E0812C912C2C
:1025D00041914F3F89F0A42FA295AF70B0E0909643
:1025E0008C9190E04F7002C0959587954A95E2F7DF
:1025F00080FD02C0C90102C080E090E0882A992ACB
:10260000220F331F51E0E033F50711F7F801808105
:102610008F3F11F00E949A12F0EAFA95F1F7F60155
:10262000918280820F5F1F4FF2E0CF0ED11C41E0FC
:102630000532140709F0AACF42E150E0B70189E959
:1026400091E00E94292B11E0009709F410E0892BFA
:1026500089F082E1F701A9E9B1E001900D928A9534
:10266000E1F781E0809353020E94071F909352028A
:1026700080935102809153028823B1F080915102DE
:10268000909152020E94F81E059770F0E9E9F1E07E
:10269000A2ECB1E0819191918D939D9351E0EB3A41
:1026A000F507C1F710925302812F6296ECE00C946B
:1026B000FB2ACF93DF938238910569F1B0F481331F
:1026C000910509F46FC048F48932910509F465C099
:1026D0008A32910509F46BC08AC08533910509F4EB
:1026E00057C089339105B9F082C0833E910571F1DD
:1026F00038F4803E9105B1F0823E910511F177C02A
:10270000863E9105B9F1873E9105C9F1843E910558
:1027100009F06DC024C02091960220FD53C021FD18
:1027200051C065C08091960280FD46C0809197029D
:1027300080FF48C08091960284FD50C183EE90E0F6
:102740004FC18091960282FF3AC0F4CF80919602E9
:1027500082FD35C08091970280FD34C0EBCF80911F
:10276000970281FF35C08091960284FD37C187EEC4
:1027700090E036C18091960283FF27C0F4CF80910C
:10278000960283FD22C08091970281FD21C0EBCF8C
:102790008091960285FD1FC021C08091960285FD23
:1027A0001DC019C08091960286FD1BC01DC080917E
:1027B000960286FD19C015C089E390E011C182EE32
:1027C00090E00EC180EE90E00BC186EE90E008C173
:1027D00084EE90E005C189E290E002C185E390E0DB
:1027E000FFC08AE290E0FCC081E390E0F9C081156F
:1027F00031E5930708F069C0811540E59407F0F0D2
:102800009C0174E0369527957A95E1F7922F9370A5
:10281000482F437021E030E002C0220F331F4A9559
:10282000E2F73C68392B982F9F709695969540E279
:10283000949FC0011124822B932BD2C0883E910516
:1028400068F5803E910508F0CBC0883A9105B8F450
:10285000853A910548F0855AE82FF0E0E05DFE4F9B
:10286000808190E09064BCC08130910509F4B3C0D0
:1028700008F4B4C08430910508F4B0C0B1C08F3BF7
:10288000910508F0ABC0885AE82FF0E0EE0FFF1F6B
:10289000ED5CFE4F808191819464A2C0811520E29D
:1028A000920758F4811531E0930708F099C0803FF2
:1028B000910508F493C0906593C0811540E4940796
:1028C00008F48CC09F70906A8BC0811525E5920733
:1028D00008F042C0811534E5930728F0982F882727
:1028E000846F906A7DC0811543E59407B0F09C0128
:1028F0002370332741E050E002C0440F551F2A9552
:10290000E2F7282F2695269580E2289F9001112432
:10291000CA01822B932B9A6863C0811522E5920726
:1029200028F4982F8827816F906A5AC09C012370E1
:10293000332741E050E002C0440F551F2A95E2F7CB
:10294000282F2695269580E2289F90011124CA0100
:10295000822B932B9C6844C0EC01811539E59307C9
:10296000A8F48115984528F09C2F8827806F906ADD
:1029700037C0C11586E5D80788F58C2F0E945712FD
:102980008F7190E0982F882790622AC081152AE5E0
:10299000920790F48C2F8F700E94571294E0D69576
:1029A000C7959A95E1F7CF70D0E0DC2FCC27D0699E
:1029B0009E01282BC90114C090568115904270F4D5
:1029C0008D2F8F710E945712282F2F71CE019927BA
:1029D0009062922B05C081E090E002C080E090E020
:1029E000DF91CF910895CF9384E090E00E94EB298E
:1029F000C82F82E290E00E94EB292C2F30E0A90141
:102A0000582BCA01CF91089580E090E00E94F929E7
:102A1000883E9E4F19F40E941721089580E0089582
:102A200068EE7EEF80E090E00E941D2A60E082E088
:102A300090E00E94FF2960E083E090E00E94FF297F
:102A40001092500260E084E090E00E94FF2964E070
:102A500082E290E00E94FF2960E085E090E00E9421
:102A6000FF2960E086E090E00E94FF296FEF87E099
:102A700090E00E94FF2940E050E0BA0188E090E039
:102A80000E94112A60E08DE090E00E94FF2940E062
:102A900050E0BA0188E190E00E94112A60E087E1ED
:102AA00090E00E94FF2940E050E0BA018CE190E004
:102AB0000E94112A60E070E080E290E00E941D2AEE
:102AC00040E050E0BA0188E190E00E94112A80E0E5
:102AD0000E94E8200E94072140E050E0BA018FE008
:102AE00090E00E94112A40E050E0BA0183E190E0BA
:102AF0000E94112A089580914F02811110924F0275
:102B00000895809590914E02892380934E020895F6
:102B100090914E0280914D02982B9093D401809118
:102B20004F028823D9F0892B8093D40180910C0126
:102B3000882331F08091960287FF02C08EE101C0A8
:102B400086E0E6EDF1E090E0815028F0219122232B
:102B5000D9F39F5FF9CF91110E947B1540E250E0BD
:102B60006DE272E084ED91E00E94292B892B21F126
:102B700080E2E4EDF1E0ADE2B2E001900D928A95E1
:102B8000E1F7E0918D02F0918E023097A9F08091EB
:102B90000C01882359F08091960287FF07C080912D
:102BA000D4018093D50186E08093D4010280F38123
:102BB000E02D84ED91E00995089520912C028095F7
:102BC000822380932C02982F977099F430E0482F3D
:102BD000082E000C550B2417350759F090919702D9
:102BE00092FF07C08595859585950E94BB28109218
:102BF0002C020895CF93C0919702C2FB992790F9B8
:102C0000981791F080FBC2F9C093970260919602E9
:102C100084E090E00E94FF296C2F82E290E00E9405
:102C2000FF2982E00E94DD15CF91089580912B024B
:102C30009091FA01891719F08F5F8770FBCF089583
:102C40000F931F93CF93DF938091F90182958F703B
:102C500009F05AC08091F601882309F455C080918B
:102C60002B021091FA016091F4017091F501C0916D
:102C7000F701D091F80191E06F3F09F090E0292F22
:102C800006E0811709F440C0209721F07F3F21F032
:102C900030E003C031E001C0322F90E030FD31C0A0
:102CA000089FF001099FF00D1124DF01A550BE4FD0
:102CB00011963C911197371324C03C91361321C0D3
:102CC00012963C91129731111CC013964D915C9154
:102CD00014974C1B5D0B483C510598F48091F90109
:102CE0008F7080618093F901E050FE4F80818F707A
:102CF0008061808384EF91E00E947B050E9416161C
:102D000003C001968770BDCFDF91CF911F910F91C6
:102D10000895CF93DF93EC010E941E28BE010E940C
:102D2000D5200E945913DF91CF910895A1E1B0E021
:102D3000ECE9F6E10C94E02A8C0185E0F801DE0173
:102D40001D9601900D928A95E1F7F801E28090912D
:102D5000F4016091F5014091F7015091F80141159E
:102D6000510531F06F3F31F481E09F3F19F403C00A
:102D700081E001C080E0F82FF1709F2E80FD1BC123
:102D8000F80130812181C380D48084EFA82E81E0B6
:102D9000B82EF090F601F601E41BF50BFF2009F4C4
:102DA000C7C08091F901E83CF10508F092C0482FB6
:102DB000407F09F051C0621311C093130FC0FE2C65
:102DC000E1100CC08F7080618093F901C5010E94F1
:102DD0007B058091F901F80185832AC1C114D104D2
:102DE00031F02F3F31F481E03F3F19F403C081E01F
:102DF00001C080E080FD03C081E08E2502C080E03C
:102E000090E0F82FF170FF2E80FF1CC080912B0204
:102E10004091FA0156E0841709F4E8C090E0589F09
:102E2000F001599FF00D1124E550FE4F61812613EA
:102E300006C06081631303C06281E61203C001967D
:102E40008770E9CFFE2CEE2009F4F2C08091F901E1
:102E500081608093F90149C0621306C0931304C0D6
:102E6000E11002C0F80186C0C8010E94D928882359
:102E700051F1EE2041F12091F901822F82958F705E
:102E800090E0029774F08091F4019091F501988799
:102E90008F831986DB86CA862C87CE0107960E940F
:102EA0007B0586E0F801A4EFB1E001900D928A95D0
:102EB000E1F70E9420160AC06217C9F0C8010E94FB
:102EC000D92881111EC0C8010E947B05FF24F394FC
:102ED000AFC0482F407F81F784EF91E00E947B05CF
:102EE00086E0F50111928A95E9F7F12CA1C09313C0
:102EF000E5CFE110E3CFF8018583C8010E947B058F
:102F000054C0EE2001F32091F901822F82958F7039
:102F100090E0029734F28091F4019091F5019A8348
:102F200089831B82DD82CC822E83CE010196B7CFAE
:102F3000E83CF105D0F5FE2CEE2029F2621327C003
:102F4000931325C02091F90120FD18C0822F82958E
:102F50008F70482F50E04115510581F0F80125830D
:102F60004F30510541F08F5F982F9295907F822FBF
:102F70008F70892B8583C8010E947B0586E0F8014C
:102F8000A4EFB1E001900D928A95E1F751C0C8011C
:102F90000E94D928811185CF8091F90181608093A9
:102FA000F901C8010E947B0543C086E0F50111923A
:102FB0008A95E9F73DC0EE2009F485CFC8010E944B
:102FC000D928F82E882309F47ECF86E0F801A4EFF3
:102FD000B1E001900D928A95E1F78091F401909112
:102FE000F5010E9489160E94201622C03D872E8777
:102FF0008D859E850E948916292F22952F7022305B
:1030000028F49F7039F0811105C00BC0243028F4DA
:103010009F7049F4805E883020F0C8010E947B05D3
:103020009F2CF92C05C0F8019581907F99F7F9CF75
:103030008F2D6196EBE00C94FC2A80917B0287FF38
:1030400011C08091E80082FD05C080917902811154
:10305000F8CF11C08091E8008B770BC08091790286
:10306000882349F08091E80080FFF8CF8091E80044
:103070008E778093E8000895982F973068F59093A5
:10308000E900981739F07091EC002091ED00509113
:10309000F00003C0242F762F50E021FD02C09F5F77
:1030A000ECCF3091EB003E7F3093EB003091ED00A0
:1030B0003D7F3093ED003091EB0031603093EB00B9
:1030C0007093EC002093ED005093F0002091EE00FF
:1030D00027FDE5CF80E008958F708093E90081E0BF
:1030E000089520918102309182022617370748F017
:1030F0006115710539F42091E8002E772093E800DE
:1031000001C0B901FC0120E06115710579F18091E0
:1031100079028823F1F18530F1F18091E80083FD97
:103120003CC08091E80082FD2EC08091E80080FFC5
:10313000EBCF2091F3008091F20090E0922B61158B
:10314000710551F08830910538F421912093F100F8
:10315000615071090196F3CF21E0089709F020E052
:103160008091E8008E778093E800CECF2111CFCFF9
:103170000AC080917902882361F0853061F08091E6
:10318000E80083FD0AC08091E80082FFF2CF80E072
:10319000089582E0089583E0089581E008950895F8
:1031A000BC0184E00E94841E0895BC0183E00E945B
:1031B000841E089580918302982F9670963011F4A2
:1031C000886001C0877F0E94B6280895AAE2B0E017
:1031D000ECEEF8E10C94E82AEBE7F2E083E892E009
:1031E0002091F10021938E179F07D1F780917C02E7
:1031F000833009F463C030F4813071F0823009F417
:103200009DC0B4C08A3009F489C08B3009F46EC007
:10321000893009F0ABC020C080917B02813A09F06F
:10322000A5C08091E800877F8093E80080917F02AD
:1032300090918002892B21F460E287E592E003C03F
:1032400060E080E090E070E00E9471188091E800FA
:103250008B778093E8008AC080917B02813209F0ED
:1032600085C080917F0290918002009719F00297AB
:1032700009F07CC08091E800877F8093E80080910E
:10328000E80082FD05C0809179028111F8CF6EC0FF
:103290002091F3008091F20090E0922B029731F49C
:1032A0008091F100813011F0863021F48091F1009D
:1032B000809356028091E8008B7754C080917B0206
:1032C000813A09F053C080917F0290918002892B4E
:1032D00009F04CC08091E800877F8093E8008091DE
:1032E000E80080FFFCCF80910C0137C080917B0209
:1032F0008132E1F580917F0290918002892BB1F5B6
:103300008091E800877F8093E8000E941D188091DB
:103310007D0280930C010E94F92828C080917B02D5
:10332000813221F58091E800877F8093E8000E9438
:103330001D1880917E028093550218C080917B02F7
:10334000813AA1F48091E800877F8093E800809122
:10335000E80080FFFCCF809155028093F1008091BE
:10336000E8008E778093E8000E941D188091E800A5
:1033700083FFDFC180917B0290917C02492F50E056
:103380004A30510508F0D5C1FA01E458FF4F0C94BA
:103390009B2A803821F0823809F0CBC108C0809187
:1033A000770290917802992389F082600FC0809112
:1033B0007F028F70873008F0BCC18093E900809154
:1033C000EB0085FB882780F91092E9009091E800D6
:1033D000977F9093E8008093F1001092F10070C104
:1033E000282F2D7F09F0A5C1882319F0823061F0C4
:1033F000A0C180917D02813009F09BC1933009F01A
:1034000080E0809378022EC080917D0281112AC0D5
:1034100080917F028F702FEF280F263008F089C12E
:103420008093E9002091EB0020FF1CC0933021F431
:103430008091EB00806214C09091EB0090619093BA
:10344000EB0021E030E0A90102C0440F551F8A952E
:10345000E2F74093EA001092EA008091EB00886066
:103460008093EB001092E9008091E800877F8093C1
:10347000E8000E941D185DC181115BC110917D02A1
:103480001F778091E3008078812B8093E300809107
:10349000E800877F8093E8000E941D188091E80073
:1034A00080FFFCCF8091E30080688093E3001111DE
:1034B00002C082E001C083E0809379023AC1805863
:1034C000823008F036C120917D0230917E022C3D81
:1034D00053E0350779F583E08A838AE289834FB721
:1034E000F894DE01139620E03EE051E2E32FF0E095
:1034F00050935700E49120FF03C0E295EF703F5FC7
:10350000EF708E2F90E0EA3010F0C79601C0C096A1
:103510008D939D932F5F243149F74FBF8091E80031
:10352000877F8093E8006AE270E0CE0101960E94F6
:103530007118B4C080917F0290918002432F55276B
:1035400043305105A9F068F44130510509F400C138
:103550004230510509F0EDC08BE590E0E6EEF2E077
:103560004BC04132510529F14232510589F1E1C088
:10357000C901992781309105A1F058F0029709F00F
:10358000D8C0E3E5F3E0E4918E2F90E0E3E5F3E0CB
:1035900030C0EFE6F3E0E4918E2F90E0EFE6F3E049
:1035A00028C0EFE5F3E0E4918E2F90E0EFE5F3E043
:1035B00020C08330910508F0BCC0880F991FFC0122
:1035C000E659FE4F0190F081E02D89E090E014C0B3
:1035D0008330910508F0ADC0FC01EE0FFF1FEC59E0
:1035E000FE4F0190F081E02DDC01AF59BE4F8C9170
:1035F00090E0009709F49DC02091E800277F209378
:10360000E80020918102309182022817390708F4DE
:10361000C90140E0009789F120917902222309F441
:103620003DC02530D9F12091E80023FD37C020911D
:10363000E80022FD2FC02091E80020FFEBCF409151
:10364000F3002091F20030E0342B009759F028303D
:10365000310540F444914093F100319601972F5F7A
:103660003F4FF3CF41E02830310509F040E0209191
:10367000E8002E772093E800CDCF4111CDCF0AC0CE
:1036800080917902882351F0853041F08091E800E3
:1036900083FD04C08091E80082FFF2CF8091E800B2
:1036A0008B778093E80045C0803809F042C0809154
:1036B000E800877F8093E80080917A028093F10090
:1036C0008091E8008E77D3CE811133C080917D0246
:1036D00090917E029927029764F58091E800877F98
:1036E0008093E80010917D0210937A020E941D18C9
:1036F000111106C08091E30087FD02C081E001C086
:1037000084E08093790242E061EC81E00E943C1801
:1037100042E261EC84E00E943C1842E261EC82E00B
:103720000E943C1842E260EC83E00E943C188091C9
:1037300079028091E80083FF10C08091E800877FC4
:103740008093E8008091EB0080628093EB0005C0DD
:1037500082E190E0E1E4F3E04FCFAA96E3E00C943D
:10376000042B1F920F920FB60F9211242F933F93A9
:103770004F935F936F937F938F939F93AF93BF9379
:10378000CF93DF93EF93FF93C091E900CF708091C7
:10379000EC00D82FD17080FDD0E81092E900809124
:1037A000F000877F8093F00078940E94E6181092D2
:1037B000E9008091F00088608093F000CD2BCF70FD
:1037C000C093E900FF91EF91DF91CF91BF91AF914D
:1037D0009F918F917F916F915F914F913F912F9129
:1037E0000F900FBE0F901F901895E8EDF0E08081CC
:1037F0008E7F80831092E2001092DA001092E10036
:10380000A0EEB0E08C9181608C9380818F77808373
:1038100019BCA7EDB0E08C918E7F8C9380818F7E58
:103820008083109254020895A0E0B0E0EAE1FCE148
:103830000C94E32AC8EDD0E088818F7E8883E7ED81
:10384000F0E080818160808384E082BF81E08093AA
:10385000540288818E7F888302EE10E0F801108286
:103860001092DA0081EEC82ED12CF60110828881E8
:103870008F77888388818068888388818F7D88831B
:1038800019BC1092790210927A021092780210926A
:10389000770290EEE92EF12CF70180818B7F8083F7
:1038A00088818160888342E060E080E00E943C186B
:1038B000F60180818E7F8083F80180818160808322
:1038C000808188608083F70180818E7F80838881FA
:1038D00080618883CDB7DEB7E8E00C94FF2A1F92A1
:1038E0000F920FB60F9211242F933F934F935F9334
:1038F0006F937F938F939F93AF93BF93EF93FF93B8
:103900008091E10082FF09C08091E20082FF05C042
:103910008091E1008B7F8093E1008091DA0080FF4D
:103920002AC08091D80080FF26C08091DA008E7F67
:103930008093DA008091D90080FF18C080E189BDB2
:1039400082E189BD09B400FEFDCF81E08093790258
:103950008091540281110FC00E94F51B0E94141C1B
:103960008091E20084608093E20005C019BC10924F
:103970007902109254028091E10080FF17C080917B
:10398000E20080FF13C08091E2008E7F8093E2000E
:103990008091E20080618093E2008091D800806293
:1039A0008093D80019BC85E0809379028091E10072
:1039B00084FF30C08091E20084FF2CC080E189BD8B
:1039C00082E189BD09B400FEFDCF8091D8008F7DD2
:1039D0008093D8008091E1008F7E8093E1008091F8
:1039E000E2008F7E8093E2008091E200816080930C
:1039F000E20080917A02882311F084E007C0809170
:103A0000E30087FD02C081E001C083E0809379027A
:103A1000809179028091E10083FF27C08091E200CC
:103A200083FF23C08091E100877F8093E10082E0E3
:103A30008093790210927A028091E1008E7F8093C8
:103A4000E1008091E2008E7F8093E2008091E200AD
:103A500080618093E20042E060E080E00E943C18D8
:103A60008091F00088608093F000FF91EF91BF910A
:103A7000AF919F918F917F916F915F914F913F9106
:103A80002F910F900FBE0F901F9018952091E4007A
:103A90003091E50095E64091EC00842F817040FF65
:103AA00023C08091E80080FD1DC0809179028823A9
:103AB00099F0853099F08091EB0085FD11C040911F
:103AC000E4005091E5002417350729F3915011F0D7
:103AD0009A01E1CF84E0089582E0089583E008959B
:103AE00081E0089580E008954091E80042FFDDCF35
:103AF0000895EF92FF920F931F93CF93DF937C0172
:103B00008B010E94461D811119C0E70101151105A5
:103B1000A1F08091E80085FD0AC08091E8008E77D1
:103B20008093E8000E94461D882381F307C0899195
:103B30008093F10001501109E9CF80E0CDB7DEB7E5
:103B4000E6E00C94012B809156020895A0E0B0E0CD
:103B5000ECEAFDE10C94DF2A8C01809186009091C3
:103B600087006CE070E00E94512A6017710730F006
:103B7000C80169E070E00E94512A60C0809186000F
:103B800090918700E0908600F0908700E091860099
:103B9000F0918700C6E0D0E0BE010E94512A20E0EB
:103BA00030E0060F171F211D311D4801590185E026
:103BB000880C991CAA1CBB1C8A95D1F7C701BE01B1
:103BC0000E94512A6F01E12CF12CA7019601260FCA
:103BD000371F411D511DC501B4010E94792A690199
:103BE0007A01E0918600F0918700CA01B9010E9434
:103BF000332A9B01AC01DF010E94C62A9B01AC0164
:103C0000C701B6010E94332ADC01CB012FE0B69533
:103C1000A795979587952A95D1F7009186001091E1
:103C2000870020E030E0081719072A073B0728F42F
:103C30006091860070918700CB01BC01CB01CDB7AC
:103C4000DEB7ECE00C94FB2A24E02093E9002FEF90
:103C50003091E800215035FD06C035ED3A95F1F779
:103C600000002111F5CF2091E80025FF0BC040E0B6
:103C700050E066E070E00E94791D8091E8008E7748
:103C80008093E8000895CF93DF9320910C012223C5
:103C900039F02091960227FF03C060E224E002C0C1
:103CA00068E021E02093E9002FEF3091E8002150F7
:103CB00035FD06C035ED3A95F1F700002111F5CF3D
:103CC0002091E80025FF1DC0EC0180910C018111BD
:103CD00005C040E050E068E070E003C070E040E004
:103CE00050E0CE010E94791D8091E8008E7780938C
:103CF000E80080E2FE01A7E5B2E001900D928A950E
:103D0000E1F7DF91CF9108958093980270939A0222
:103D100060939902809179028430F9F48093E900EC
:103D20008FEF9091E800815095FD06C095ED9A9532
:103D3000F1F700008111F5CF8091E80085FF0DC0FB
:103D400040E050E063E070E088E992E00E94791D75
:103D50008091E8008E778093E800089581E0809359
:103D6000E00080E28093D8001092C9008FE19EE4C9
:103D70000197F1F700C0000087E090EBDC01809331
:103D80001B0390931C03A0931D03B0931E039CE0A0
:103D900088E10FB6F894A895809360000FBE9093C9
:103DA0006000FFCF78941F920F920FB60F921124EC
:103DB0008F939F93AF93BF938091920290919302C0
:103DC000A0919402B09195020196A11DB11D80931E
:103DD000920290939302A0939402B0939502BF91A4
:103DE000AF919F918F910F900FBE0F901F901895DC
:103DF0009C014FB7F8948091920290919302A09108
:103E00009402B09195024FBF821B930B08952FB778
:103E1000F8948091920290919302A0919402B091B3
:103E200095022FBF08951F920F920FB60F92112483
:103E30008F939F93AF93BF9380919102811113C091
:103E40008091920290919302A0919402B091950278
:103E50004196A11DB11D8093920290939302A0936D
:103E60009402B0939502BF91AF919F918F910F9063
:103E70000FBE0F901F90189520910C012223C9F0BE
:103E80002091960227FF15C0262F26952695269568
:103E90002E31C8F4FC01E20FF11D677081E090E063
:103EA00001C0880F6A95EAF7809592818923828301
:103EB0000895FC0106962281621301C01282319698
:103EC000E817F907C1F7089520910C012223C1F0EA
:103ED0002091960227FF14C0262F26952695269519
:103EE0002E3130F5FC01E20FF11D677081E090E0AA
:103EF00001C0880F6A95EAF79281892B8283089521
:103F0000FC0132962FEF30E04191641789F02F3F8A
:103F100019F4411101C0232F3F5F3630A9F72F3F1D
:103F200039F0FC01E20FF11D27FDFA956283089537
:103F3000089520918F02309190022817390771F06F
:103F40009093900280938F02E0918D02F0918E0207
:103F5000309721F00084F185E02D09950895209196
:103F60008B0230918C022817390771F090938C02E4
:103F700080938B02E0918D02F0918E02309721F0B8
:103F80000680F781E02D09950895E0918D02F0916A
:103F90008E02309729F00190F081E02D0995089567
:103FA00080E008950F931F93CF93DF93C42FD22FF8
:103FB000FC0182818823B1F040938A020E94071F8E
:103FC000909389028093880280E28C0F883008F0F9
:103FD0004DC0C77081E001C0880FCA95EAF70E9402
:103FE000162944C080918A02481330C0809188020B
:103FF000909189020E94F81E883C910538F510E2E4
:104000001D0FCD17B9F080E28C0F883040F4C770D7
:1040100081E001C0880FCA95EAF70E940F29183085
:1040200010F581E09D2F977001C0880F9A95EAF7EF
:104030000E941629802F0E94CC291830B8F4D7701E
:1040400081E001C0880FDA95EAF70AC080E28C0FA0
:10405000883060F4C77081E001C0880FCA95EAF724
:104060000E940F2903C0802F0E94CC29DF91CF919D
:104070001F910F910895CF93DF93CFE3D3E060E0DA
:10408000CE010E94FF292196C11584E0D807B9F717
:10409000DF91CF9108951F93CF93DF93962F8430B4
:1040A000E8F46930D8F44B30C8F4632F122FC42FD2
:1040B000D0E0CC0FDD1F26E1929FC00DD11D112451
:1040C00096EC899FC00DD11D1124CE0187960E94C8
:1040D000FF29612FCE0188960E94FF29DF91CF91A1
:1040E0001F910895A0E0B0E0E8E7F0E20C94E12A27
:1040F000A12CE12CF12CB12C00E010E0C0E0D0E0CC
:104100006701C00ED11EFE01EE0FFF1FEC0DFD1D5D
:10411000ED50FC4F259134914C2F6B2D8A2D0E9430
:104120004B202196CB30D10571F70A5E1F4FB39417
:1041300089E0B812E3CF86ECE80EF11CA39484E08A
:10414000A812D9CFCDB7DEB7EAE00C94FD2A0F93C1
:104150001F93CF93DF93843008F56930F8F44B3028
:10416000E8F4C42FD0E0CC0FDD1F26E1629FC00D24
:10417000D11D112436EC839FC00DD11D1124CE0119
:1041800087960E94EB2990E0182F0027CE01889691
:104190000E94EB299801282BC90102C080E090E021
:1041A000DF91CF911F910F910895843048F47930B9
:1041B00038F46B3028F4462F672F0E94A72008950B
:1041C00080E090E0089586E290E00E94FF29089543
:1041D000CF93C82F811102C06FEF01C062E283E26A
:1041E00090E00E94FF29C11102C06FEF01C068E09A
:1041F00084E290E00E94FF29C11102C06FEF01C06C
:1042000062E185E290E00E94FF29CF91089580E06D
:104210000E94E82060E070E0CB010E94E3200E9451
:1042200072200E943B2081E00E94E820089583E2F2
:1042300090E00E94EB29823281F484E290E00E94B7
:10424000EB29883051F485E290E00E94EB2991E05F
:10425000823109F090E0892F01C080E081700895DB
:104260001F920F920FB60F9211242F933F934F93EB
:104270005F936F937F938F939F93AF93BF93EF93CE
:10428000FF9380910D0191E0980F823019F0909387
:104290000D014EC081E080930D01809186029091C6
:1042A0008702019660ED72E00E94512A9093870286
:1042B0008093860265E070E00E94512A67FD6FE7F7
:1042C00080918502823019F4603451F404C0813049
:1042D00039F46F3729F480916F008E7F80936F00DF
:1042E000E62FF0E0ED58FC4F2491A0918600B091AC
:1042F000870030E00E94B02A2FEF30E040E050E02D
:104300000E94792AC90163E070E00E94512A8091DD
:104310008402869586958695282F269FC001279F23
:10432000900D11240E94A61D90938B0080938A000B
:10433000FF91EF91BF91AF919F918F917F916F917D
:104340005F914F913F912F910F900FBE0F901F9053
:104350001895843048F4811108C0909180009F7DA9
:10436000909380002E9806C083E090918000906228
:1043700090938000A0918600B0918700282F30E0B4
:104380000E94B02A23E030E040E050E00E94792A09
:10439000B42FA32F922F8827892F9A2FAB2FBB27BB
:1043A0000E94A61D90938B0080938A000895682F29
:1043B00086E090E00E94FF2908958091840281FFA9
:1043C00011C08D7F809384020E94D72180916F005D
:1043D0008E7F80936F008091840286958695869566
:1043E0000E94A92108958091840281FD10C08260FD
:1043F000809384020E94D721109287021092860235
:104400001092850280916F00816080936F00089503
:1044100008958091E602882319F081508093E60286
:104420006091E2027091E3028091E4029091E502D2
:104430000E94C52508958091E602833018F48F5FAD
:104440008093E6026091E2027091E3028091E402BF
:104450009091E5020E94C5250895843008F083E01C
:10446000909184029770282F220F220F220F922BF7
:1044700090938402987F21E009F420E090918402D7
:1044800020FB90F9909384020E94A92108950E9434
:10449000041581110AC00E94101580918402847055
:1044A0008961809384020E94D72186E090E00E9477
:1044B000EB2980938402282F26952695269530E0B7
:1044C0002430310524F087708861809384028091C4
:1044D000840280FF04C086958695869501C080E0A1
:1044E0000E94A92108959091E20290FF04C0969540
:1044F000981748F003C0811106C090E0961718F491
:104500000E941D26089561E00E94D8250895882301
:1045100011F0FA0101C0FB01099508956091E202D2
:10452000669570E04BE050E08EE091E00E941C2B1D
:10453000892B19F481E08093A2020E94071F9093B7
:104540009C0280939B0208958091E20280FF0AC042
:104550006A9A8EB18B7F9EB194602FB7F894E6EA89
:10456000F2E00BC0E6EAF2E011821082128233968A
:1045700032E0E23EF307C1F7EBCF32E0E23EF30771
:1045800089F0319148E09EB9000000C037FF8EB934
:10459000330F000000C000C000C08EB900C04A95B3
:1045A00091F7EBCF2FBF8FE594E00197F1F700C0B3
:1045B00000000895EF92FF920F931F93CF93DF9324
:1045C0008C01C6EAD2E0E12CF12CF8018481FAE0FA
:1045D000EF16F1041CF4882339F002C0811104C0E5
:1045E0009E014091E50202C09E0140E06091E4021C
:1045F0008091E3020E9438268FEFE81AF80A23968A
:1046000094E1E916F10409F70E94A422F8018481DB
:1046100090E00196817099278483CDB7DEB7E6E0FC
:104620000C94012BA0E0B0E0E8E1F3E20C94DF2A67
:10463000EC014C81042F10E09801D8010E94B02AAF
:104640009B01AC010E94C62A6B017C01E0E2F0E014
:10465000E01BF10BA5E5B0E09B01AC010E94C62A6E
:104660004B015C019F01DF010E94A82A9B01AC0164
:104670000E94D12A9B01AC012C0D3D1D4E1D5F1DDA
:10468000C501B4010E94792A822FF22E99E2921775
:1046900028F093E0299F900111240DC025E530E01A
:1046A000281B3109C901880F991F280F391F37FFAF
:1046B00002C02F5F3F4F35952795122F109596EA30
:1046C000C92E92E0D92E00E085E5E82EEF1801FD15
:1046D00002C08E2D01C08F2D9601412F6091E40202
:1046E0000E9438260F5F83E0C80ED11C043179F791
:1046F0000E94A4228C81811102C091E003C080320B
:1047000019F49FEF90931B0190911B01890F8C83EB
:10471000CDB7DEB7ECE00C94FB2A0F931F93CF9339
:10472000DF93C6EAD2E0FE01118210821282339634
:1047300082E0E23EF807C1F700E010E08091A402B9
:10474000082E000C990B0817190794F080911A0194
:10475000082E000C990B8017910754F09E01409190
:10476000E5026091E4028091E3020E94382603C0D2
:10477000198218821A820F5F1F4F23960431110588
:10478000E9F60E94A422809119019091A402980F49
:104790009093A40220911A01280F20931A01121657
:1047A00014F493311CF0819580931901DF91CF911E
:1047B0001F910F910895A0E0B0E0E1EEF3E20C94B8
:1047C000E22AFC01828180FF03C0DD24DA9402C06A
:1047D000DD24D39406EA12E0C0E0D0E024E1B22E5A
:1047E000F80111821082128294E0E92EF12CC12C82
:1047F0008091A3028C0D85312CF06B2D0E94432AF1
:10480000892F02C087FD8C5E082E000C990BC817FB
:10481000D90791F48091E5028E9DA0018F9D500DE6
:104820001124559547955595479598016091E40257
:104830008091E3020E943826CD0CF1E0EF1AF108D6
:10484000B9F621960D5F1F4FC431D10549F60E947C
:10485000A4228091A30291E0D91206C0811102C066
:1048600083E107C0815005C090E00196BE010E941F
:10487000652A8093A302CDB7DEB7E9E00C94FE2A47
:10488000EF92FF921F93CF93DF93EC0186EAE82E1D
:1048900082E0F82E10E08C8197014091E502609152
:1048A000E402810F0E943826145F83E0E80EF11CB9
:1048B000103F89F70E94A4229A818C8190FF02C048
:1048C0008F5F01C081508C83DF91CF911F91FF904A
:1048D000EF9008959091E20290FF0CC0E6EAF2E0BA
:1048E000818360834283339692E0E23EF907C1F709
:1048F0000E94A4220895A3E0B0E0E1E8F4E20C9461
:10490000E72A8C018091A50281110AC09E012F5FC8
:104910003F4F4FEF6FEF0E9438268A818093A502A8
:10492000F8018481813051F028F0823061F44091A7
:10493000A5020AC08091A50240E007C06091A502CF
:1049400040E080E003C040E080E060E00E946A2434
:10495000F801848190E0019663E070E00E94652A8E
:1049600084832396E4E00C94032BA3E0B0E0EBEB0C
:10497000F4E20C94E92A9091E20290FF0AC09E01B1
:104980002F5F3F4F0E9438264B8169818A810E94A8
:104990006A242396E2E00C94052BCF93DF93EC017D
:1049A000E2EEF2E0438162818C810E94B5248C8129
:1049B0008F5F8C83DF91CF910895CF93DF93EC01CC
:1049C000EC81F0E0E05FF84F4491E2EEF2E06281CA
:1049D00081810E94B5248C818F5F8C83DF91CF9180
:1049E0000895A3E0B0E0E7EFF4E20C94DC2AF82E9F
:1049F000762EE42E622E9091E20290FF67C0E92F9E
:104A0000E695AE2FB0E0A059BE4F8C918093A102E5
:104A10009E7F923061F49E012F5F3F4F8F2D0E9449
:104A200038264B8169818A810E946A243DC0823088
:104A300019F4E090E50238C0863019F4F090E302F2
:104A400033C08930D9F3893179F5E9518E2F8170DE
:104A5000582EE695F0E0E55FF84FE4910E2F10E058
:104A600086EAC82E82E0D82EA12CB12C94E1892EA2
:104A7000912CC501B4010E94512A8F2D511002C002
:104A8000860F01C0861B96014E2D672D0E94382689
:104A9000A00EB11E83E0C80ED11C82EEC81682E0C3
:104AA000D80639F70E94A422F092E3027092E40241
:104AB000E092E502662051F06091E2027091E3021B
:104AC0008091E4029091E5020E94C5252396EFE0D3
:104AD0000C94F82AE2EEF2E0438128E0421B08F44D
:104AE00040E021E0628181810E94F1240895E2EE9C
:104AF000F2E0438128E0420F08F44FEF21E06281A9
:104B000081810E94F1240895E2EEF2E0628128E0C2
:104B1000621B08F460E021E0438181810E94F1245E
:104B20000895E2EEF2E0628128E0620F08F46FEF90
:104B300021E0438181810E94F1240895E2EEF2E0B8
:104B4000818121E04381628188500E94F12408958F
:104B5000E2EEF2E0818121E043816281885F0E9480
:104B6000F12408958091E202282F269530E0211546
:104B7000310519F48170826005C02532310524F0B9
:104B8000817088648093E2020895CF92DF92EF9261
:104B9000FF926B017C010E94B225B701A60188E05B
:104BA00090E00E94112AFF90EF90DF90CF9008953F
:104BB0009091E20290FF36C09170811102C0926024
:104BC00006C0853210F0986402C0880F982B90932D
:104BD000E202662351F06091E2027091E30280915B
:104BE000E4029091E5020E94C5256091E20266957B
:104BF00070E04BE050E08EE091E00E941C2B892B8E
:104C000019F01092A20202C00E948E2281E08093CD
:104C10009E0220E04091E5026091E4028091E3026F
:104C20000E94F12408958091E2028695815009F452
:104C300084E261E00E94D82508958091E202869581
:104C40008F5F853208F081E061E00E94D8250895E9
:104C5000E2EEF2E083E0808311828FEF8283838330
:104C6000148260817181828193810E94C52508959B
:104C7000A0E0B0E0EEE3F6E20C94E12AE82EF62E96
:104C8000E901E42FF0E0611106C0E05FF74FE49125
:104C90004E2F2E2F71C0062F10E0E05FF74F44918A
:104CA000F42FC42ED12C26E0829FC00111242FEFB7
:104CB00030E0B9010E94512A5BEA5603C001579FB8
:104CC000900D11248E0D911D8E0D911D582F550F95
:104CD000580FD901A01BB10BAC9DC001AD9D900D2B
:104CE000BC9D900D1124E92FF59ED0011124AB2F0E
:104CF000BB277901EA1AFB0AEC9CD001ED9CB00DB0
:104D0000FC9CB00D11245901A51AB108A09E700198
:104D1000A19EF00CB09EF00C1124EF2CFF242E1954
:104D20003F092C9D80012D9D100D3C9D100D1124DF
:104D3000212F6230710591F048F461157105E1F0A1
:104D400061307105B9F4242F4B2F16C06430710502
:104D500069F040F06630710579F00CC0242F492FBE
:104D6000E12F0AC0492FEF2F2B2F06C0292FE42F48
:104D7000412F02C0292FEB2F49832883EA83CDB727
:104D8000DEB7EAE00C94FD2A0E94071F2091F00292
:104D9000211104C02091F102222321F09093ED0211
:104DA0008093EC022091F202211104C02091F302C1
:104DB000222321F09093EB028093EA02E0918D028E
:104DC000F0918E02309749F082E08093EE020480E9
:104DD000F581E02D8EEE92E009950895803F39F43B
:104DE0009091F10297FF35C01092F10259C0813FB6
:104DF00029F49091F1021916BCF32BC09091F002A6
:104E0000823F29F497FF25C01092F00249C0833FEA
:104E100019F41916CCF31DC09091F202893F29F4C0
:104E20001916BCF41092F2023BC08A3F19F497FFA6
:104E300010C0F8CF8B3F39F49091F30297FF09C06F
:104E40001092F3022DC08C3F21F49091F3021916B9
:104E5000BCF39CE0980F953080F421E030E0A9018C
:104E600002C0440F551F9A95E2F7CA0180959091B0
:104E7000EF0289238093EF0213C08D3F21F48091CC
:104E8000E9028E7F0BC08E3F21F48091E9028D7F75
:104E900005C08F3F29F48091E9028B7F8093E9025E
:104EA0008091F002811106C08091F102811102C04F
:104EB0001092E8028091F202811106C08091F30203
:104EC000811102C01092E70208958091E90280FDED
:104ED00016C081FD16C082FD18C08091E7028823AC
:104EE00091F0883290F428E0829FC001112468E29A
:104EF00070E00E94652A862F672B29F007C082E0A8
:104F0000089584E0089581E0089588E008958091EF
:104F1000E90280FD14C081FD14C082FD16C080919D
:104F2000E802882381F08E3180F420E5829FC00161
:104F300011246EE170E00E94652A862F089584E1B5
:104F4000089588E2089588E0089580E50895803FF7
:104F500021F40E948727819504C0813F29F40E9493
:104F600087278093F1020895823F21F40E948727CA
:104F7000819504C0833F29F40E9487278093F00223
:104F80000895893F19F40E94652705C08A3F31F4CE
:104F90000E94652781958093F20208958B3F21F44A
:104FA0000E946527819504C08C3F29F40E946527E3
:104FB0008093F30208959CE0980F953078F421E0F7
:104FC00030E0A90102C0440F551F9A95E2F7CA01CB
:104FD0009091EF02892B8093EF0208958D3F21F489
:104FE0008091E90281600BC08E3F21F48091E9023B
:104FF000826005C08F3F29F48091E902846080932C
:10500000E902089580E090E00E94AF1F80E090E008
:105010000E94991F10924D020E948815EEEEF2E058
:1050200086E0DF011D928A95E9F71092E80210925E
:10503000E7021092E9020E94C4260895CF92DF92FF
:10504000FF920F931F93CF93DF936C010091830224
:1050500080915002082BC7E0D0E010E0C8010C2E70
:1050600002C0959587950A94E2F780FD04C02197C8
:10507000A8F7F12C09C0FC2EB6018C2F0E94D52078
:105080000E945913019799F38F2DDF91CF911F91B2
:105090000F91FF90DF90CF900895292F993078F5E8
:1050A0008B3068F590E03BE0239F800D911D11242B
:1050B000682F677023E0969587952A95E1F7FC01A4
:1050C000EE0FFF1FE80FF91FEC50FD4F40E050E0DE
:1050D00080E0219130E0062E02C0369527950A9493
:1050E000E2F721703327042E01C0220F0A94EAF759
:1050F000822B4F5F5F4F4330510559F7089580E091
:105100000895292F993088F58B3078F590E03BE0B1
:10511000239F800D911D1124282F277051E001C07D
:10512000550F2A95EAF723E0969587952A95E1F79A
:10513000FC01EE0FFF1FE80FF91FEC50FD4F20E0C0
:1051400030E070E04081CB01022E02C09695879539
:105150000A94E2F7817081958427852384278193BF
:105160002F5F3F4F2330310569F708958093830205
:105170000E940228089521E030E001C0220F8A95A4
:10518000EAF720958091830282230E94B628089531
:1051900021E030E001C0220F8A95EAF78091830276
:1051A000822B0E94B6280895809350020E94022804
:1051B0000895FC01808191810E94891692959F70CB
:1051C000963079F010F4925001C09A50923068F401
:1051D000803F69F018F4883E40F409C0843F29F408
:1051E00006C0883E20F0813F11F080E0089581E004
:1051F000089510924E0280910C01882331F0809125
:10520000960287FF02C08EE101C086E0E6EDF1E084
:10521000DF011D928A95E9F70E94022808958823EC
:1052200021F00E9481150E9488150895882339F085
:1052300090914E02892B80934E020E94881508950A
:10524000882391F19CEF980F913A30F4682F84ED08
:1052500091E00E943C1F0DC090E2980F983060F4DE
:10526000877091E001C0990F8A95EAF7892F0E9413
:1052700081150E94881508959BE5980F933028F4B6
:1052800080E090E00E94AF1F089598E5980F973155
:1052900028F480E090E00E94991F0895803F20F05C
:1052A0000E94EE260E94C4260895CF93882309F415
:1052B00071C0C82F8CEF8C0F813AC0F580910C0122
:1052C0008823E1F08091960287FF18C0EC2FE695C5
:1052D000E695E695F0E0EC52FE4F8281282F30E013
:1052E0004C2F477081E090E002C0880F991F4A95CB
:1052F000E2F782239323892B61F412C0E6EDF1E0FB
:105300008CED91E02191C21721F08E179F07D1F704
:1053100007C06C2F84ED91E00E943C1F0E9488150D
:105320006C2F84ED91E00E94641F10C080E28C0F0E
:10533000883078F4C77081E090E001C0880FCA958A
:10534000EAF790914E02892B80934E020E948815B5
:1053500021C0EBE5EC0FE33040F4F0E0E05DFE4F00
:10536000808190E00E94AF1F15C0E8E5EC0FE731A7
:1053700050F4F0E0EE0FFF1FED5CFE4F8081918155
:105380000E94991F07C0C03F28F08C2F0E94A727BA
:105390000E94C426CF9108951F93CF93DF93182FB7
:1053A000893319F0C0E0D0E002C0C0E5D0E0812F21
:1053B0000E945529209741F08FE99FE00197F1F76E
:1053C00000C000002197F6CF812F0E942029DF9195
:1053D000CF911F910895F999FECF92BD81BDF89AA2
:1053E000992780B50895A6E1B0E044E050E00C9420
:1053F000252AA8E1B0E042E050E00C94252A262FAF
:10540000F999FECF92BD81BDF89A019700B40216BA
:1054100039F01FBA20BD0FB6F894FA9AF99A0FBE68
:1054200008950396272F0E94002A0E94FF29252F06
:105430000E94002A242F0C94002A0196272F0E94F4
:10544000002A0C94FF29DC01CB01FC01F999FECF65
:1054500006C0F2BDE1BDF89A319600B40D924150FC
:105460005040B8F70895DB018F939F930E94C62A9E
:10547000BF91AF91A29F800D911DA39F900DB29FF0
:10548000900D1124089587FB082E062687FD81952F
:1054900067FD61950E94102B0EF4919507FC819594
:1054A0000895AA1BBB1B51E107C0AA1FBB1FA6176B
:1054B000B70710F0A61BB70B881F991F5A95A9F7BD
:1054C00080959095BC01CD01089597FB072E16F4A9
:1054D000009407D077FD09D00E94512A07FC05D01F
:1054E0003EF4909581959F4F0895709561957F4FFB
:1054F0000895A1E21A2EAA1BBB1BFD010DC0AA1F15
:10550000BB1FEE1FFF1FA217B307E407F50720F02C
:10551000A21BB30BE40BF50B661F771F881F991FA7
:105520001A9469F760957095809590959B01AC01F0
:10553000BD01CF010895EE0FFF1F0590F491E02DFE
:105540000994692796276927782787277827089558
:105550000E94B02A332312F48A1B9B0B0C94C12A9D
:10556000A29FB001B39FC001A39F700D811D1124A4
:10557000911DB29F700D811D1124911D08950E94EF
:10558000B02AB7FF0895821B930B08950E94B02A9A
:10559000A59F900DB49F900DA49F800D911D112487
:1055A0000895B7FF0C94C62A0E94C62A821B930B4B
:1055B00008952F923F924F925F926F927F928F92B7
:1055C0009F92AF92BF92CF92DF92EF92FF920F9392
:1055D0001F93CF93DF93CDB7DEB7CA1BDB0B0FB69C
:1055E000F894DEBF0FBECDBF09942A883988488859
:1055F0005F846E847D848C849B84AA84B984C884EF
:10560000DF80EE80FD800C811B81AA81B981CE0FE5
:10561000D11D0FB6F894DEBF0FBECDBFED010895CA
:10562000991B79E004C0991F961708F0961B881FF4
:105630007A95C9F780950895FC014150504030F0AB
:1056400001900616D1F73197CF0108958827992741
:105650000895FB01DC0104C08D910190801921F4B3
:1056600041505040C8F7881B990B0895F894FFCF1C
:10567000A31D431E241ED518D018CF1801010119EF
:105680001A1B1C1D1E1F20212201020190919293C2
:1056900095949697343733323130C6F1F4F5F6F7F6
:1056A000818283E200E900EA00B500B600B700CDD0
:1056B000008301CC008A019201940121022302247B
:1056C000022502260227022A02B300B4006F0070EE
:1056D000004022B6A6028402CE01F8021103310373
:1056E0000001020202020606060909090909090F5A
:1056F0000F0F0F0F0F151515181919191919191959
:0657000019191923240011
:00000001FF
