:100000000C947D020C94B5020C94B5020C94B502CC
:100010000C94B5020C94B5020C94B5020C94B50284
:100020000C94B5020C94B5020C94E0280C94B229FF
:100030000C945D220C94B5020C94B5020C94B5029C
:100040000C94B5020C94B5020C94B5020C94B50254
:100050000C94B5020C94E6220C94B5020C94B502F3
:100060000C94B5020C94B5020C94B5020C94B50234
:100070000C94B5020C94B5020C94B5020C94B50224
:100080000C94B5020C94B5020C94B5020C94B50214
:100090000C94B5020C94B5020C94B5020C94B50204
:1000A0000C94B5020C94B5020C94B502CA0ACA0AA3
:1000B000F60AF60A5E0B7C0B720C720C960BFE0BAA
:1000C0000F0C0F0CE01CE31CF51C061D0E1D191D6A
:1000D0005E1D5E1D5E1D5E1D5E1D1C1D1F1D231D04
:1000E000301D3D1D401D441D511D1A2A412A392B2A
:1000F000412A392B8D2AB02A392B072B162B4B4C32
:100100003A206B633A2025752C20636F6C3A2025CA
:10011000752C20726F773A2025752C2070726573CC
:100120007365643A2025750A004F5054313A2025F2
:10013000642C204F5054323A2025640A00F400F613
:1001400000F500F700F800010001000100010001C6
:100150000001000100010001000100010001000197
:100160000001000100010001000100010001000187
:100170000001000100010001000100010001000177
:10018000000100010001000100010001004445429E
:1001900055473A2064697361626C65642E0A0044B5
:1001A000454255473A20656E61626C65642E0A00CF
:1001B00000000000000000002A2B280000000000C2
:1001C0000000000000000000000000290000000006
:1001D0002C1E3420212224342627252E362D373874
:1001E000271E1F202122232425263333362E37387D
:1001F0001F0405060708090A0B0C0D0E0F1011123B
:10020000131415161718191A1B1C1D2F3130232D06
:10021000350405060708090A0B0C0D0E0F10111204
:10022000131415161718191A1B1C1D2F3130354CB5
:1002300000000000000000000000000000000000BE
:1002400000000000000000000000000000000000AE
:10025000000000007E0F00D4FFFFFFC70000007801
:100260000A0025303258006C65645F7461736B3A24
:1002700020004F6E6573686F743A2061637469760D
:10028000653A2025640A000A0025303862003A20C9
:100290000025303258000A722F6320303132333457
:1002A0003536370A00290A002575002F002575000C
:1002B0005D280025640020002564002000256400DE
:1002C00020002564007C0025303258006D6F757366
:1002D000656B6579205B62746E7C7820792076206E
:1002E000685D287265702F61636C293A205B00524B
:1002F0006177205D20583A2025642C20593A20252A
:10030000640A000A002530325820006B6579626F5C
:100310006172645F7265706F72743A20005B735D26
:10032000005B575D005B535D005B525D005B445DAD
:10033000005B435D001E0354007200610063006BAC
:1003400000620061006C006C0020004D0069006ECE
:100350000069000000120350006C006F006F007015
:1003600000790043006F0000000403090409027BC8
:1003700000040100A032090400000103010100098A
:100380002111010001224000070581030800010935
:1003900004010002030000000921110100012222D2
:1003A000000705820320000107050303200001095F
:1003B0000402000103000000092111010001227B59
:1003C0000007058403200001090403000203000064
:1003D00000092111010001222200070585032000E8
:1003E00001070505032000011201000200000008BA
:1003F0004350AB1E0100010200010631FF0974A148
:10040000010975150026FF009520750881020976FF
:10041000150026FF00952075089102C00660FF09AF
:1004200061A1010962150026FF009520750881026F
:100430000963150026FF00952075089102C005018B
:100440000902A10185020901A10005091901290874
:100450001500250195087501810205010930093152
:100460001581257F95027508810609381581257F3C
:10047000950175088106050C0A38021581257F95BE
:100480000175088106C0C005010980A10185031915
:10049000012AB700150126B700950175108100C02B
:1004A000050C0901A101850419012AA002150126E4
:1004B000A002950175108100C005010906A1010582
:1004C0000719E029E71500250195087501810295B6
:1004D00001750881010507190029FF150026FF0095
:1004E000950675088100050819012905950575010E
:1004F0009102950175039101C00011241FBECFEF39
:10050000DAE0DEBFCDBF04B603FE18C080917C03E5
:1005100090917D03A0917E03B0917F038730904B33
:10052000A740B04B59F410927C0310927D031092B7
:100530007E0310927F03E0E0F8E3099511E0A0E06C
:10054000B1E0EAE6F8E502C005900D92AE3AB107D7
:10055000D9F723E0AEEAB1E001C01D92AC37B20793
:10056000E1F70E94FD160C94332C0C940000FF93CD
:10057000EF93E091AE01F091AF01309709F009954A
:10058000EF91FF910895FC018591803011F0EFDF2C
:10059000FBCF0895FF27E0E230E247FF0CC0419512
:1005A00097FF09C0EDE26095709580959095611D6B
:1005B000711D811D911D27FF02C0219530E350E27E
:1005C000AA27660F771F881F991FAA1FA41710F06C
:1005D000A41B63955A95A9F7AA3008F0A95FA05DFE
:1005E000AF93F395611571058105910541F7ED32E2
:1005F00011F4EF93F395F21718F43F93F395FBCFB3
:100600008F91B5DFFA95E1F70895E991F991859118
:10061000803021F0853219F0AADFF9CF089520E06B
:10062000E89455915532C1F3503311F468945591C3
:100630005A3348F4505390F3220F022E220F220F08
:10064000200D250FF4CF0EF4219589919991533601
:1006500019F3533729F1533559F1BC0188279927EC
:10066000E8945C3621F489919991689455915436B7
:1006700039F446EF7EF077FF0DC08FEF9FEF0AC091
:1006800055374AE039F0583540E121F0523642E022
:1006900009F00895FF93EF937DDFEF91FF91B7CFBE
:1006A000FF93EF93FC0181918030B9F360DFFBCFC2
:1006B000FF93EF9368DFF1CFDF93CF93CDB7DEB732
:1006C0002596A3DFCF91DF91089510921403109225
:1006D0008C021092D0028FEF93E09093D20280931D
:1006E000D10210921703109216031092D3021092A7
:1006F0005B03109262031092610310925F031092E9
:100700005E0310928D021092CF0290935D0380934E
:100710005C0310924D0210924C021092180310923A
:100720008E0210921C0310921B031092D50210929D
:10073000D402109215031092600310921A031092C3
:1007400019031092900210928F020895FC012081EB
:1007500031812E3131052CF42F5F3F4F31832083BF
:1007600008951182108281E0FB0180830895A2E048
:10077000B0E0EDEBF3E00C94A72BFC013B012A0168
:100780003A832983DB018D919C911197E817F90732
:1007900014F4ED93FC93D2018D919C9111978E17D7
:1007A0009F0714F4ED93FC93D2012D903C90D3015C
:1007B0002D913C91C101821B930B8A3091050CF461
:1007C00051C063E070E00E94862B620F731FE61732
:1007D000F707ACF4F8018081882369F0D401ED912A
:1007E000FC91EE0FFF1FEC0DFD1D31822082698D03
:1007F0007A8DC40118C081E0E981FA8132C06E1798
:100800007F0784F5A981BA818C91882341F1D501B4
:10081000ED91FC91EE0FFF1FEE0DFF1D3183208344
:100820006F89788DC5010E94A603F3012081318173
:10083000D2018D919C91821B930B97FD019695950A
:100840008795820F931FF30191838083D2018D934B
:100850009C93E981FA811082D8011C9203C081E047
:10086000F8018083A98DBA8D8C91882381F0F601DF
:100870009601225C3F4F80E090E041915191840FBE
:10088000951F2E173F07C9F76FE170E015C0F401FF
:10089000608171816115710599F0F60120E030E009
:1008A00080E090E0261737073CF441915191840F86
:1008B000951F2F5F3F4FF6CF0E94862B9B0103C0F1
:1008C000D2012D913C91EF89F88D8081882381F0B0
:1008D000F701A701425C5F4F80E090E06191719168
:1008E000860F971F4E175F07C9F76FE170E015C0BD
:1008F000D5016D917C916115710599F0F70140E08A
:1009000050E080E090E0461757073CF4A191B19188
:100910008A0F9B1F4F5F5F4FF6CF0E94862BFB0114
:1009200003C0D301ED91FC91C9018E1B9F0B63E0C5
:1009300070E00E94862BCB018E0F9F1F2296E2E172
:100940000C94C32B8F929F92AF92BF92CF92DF9263
:10095000EF92FF920F931F932FEC32E03F932F9370
:100960002DE832E03F932F932EE5822E23E0922E46
:1009700031E6A32E33E0B32E46EDC42E42E0D42E52
:100980005DE1E52E53E0F52E0BE513E023ED32E0BB
:1009900046E153E061ED72E00E94B70390931A03C1
:1009A000809319030F900F900F900F901F910F914C
:1009B000FF90EF90DF90CF90BF90AF909F908F907F
:1009C00008958F929F92AF92BF92CF92DF92EF9253
:1009D000FF920F931F9320E633E03F932F9325E17F
:1009E00033E03F932F9324ED822E22E0922E3BE1C1
:1009F000A32E33E0B32E41E9C42E42E0D42E5EE4B0
:100A0000E52E52E0F52E0EE812E028E133E04CE44A
:100A100052E06CE573E00E94B703909390028093DC
:100A20008F020F900F900F900F901F910F91FF90DA
:100A3000EF90DF90CF90BF90AF909F908F900895F0
:100A40000F931F93CF93DF938C01EB0180918D0265
:100A5000882321F08091CF02811103C0C8010E9438
:100A6000A20480911503882321F0809160038111F5
:100A700003C0CE010E94E1044091190350911A0372
:100A800080918F029091900220911403211121C036
:100A9000041715077CF4C817D9070CF469C083E064
:100AA000809314038091D002882309F461C01092CE
:100AB000D00238C0C817D9070CF05AC081E0809323
:100AC000140380918C02882309F452C010928C0286
:100AD00038C02130B1F4041715073CF0C817D90706
:100AE0000CF446C01092140307C0C817D9070CF0C5
:100AF0003FC082E0809314032093D00210928C02B6
:100B000037C0223009F5041715077CF0C817D9073C
:100B10007CF581E08093140380918C02882341F15D
:100B200010928C0281E090E025C0C817D90704F12B
:100B300083E0809314038091D0028823C9F010923F
:100B4000D0028FEF9FEF16C00417150734F0C817B7
:100B5000D90774F01092140306C0C817D90744F4DB
:100B600082E08093140381E080938C021092D00283
:100B700080E090E0DF91CF911F910F91089581E087
:100B80000895CF93DF93D62F0E94BF05C82F8823E7
:100B900039F0D11102C08AEF01C089EF0E94790AB1
:100BA0008C2FDF91CF9108950F931F93CF93DF93F5
:100BB0008091B2019091B3010E94D72284369105B1
:100BC00008F441C08091B4019091B5010E94D722F0
:100BD0000597C8F18091B601811135C00E94BF22EE
:100BE0009093B5018093B40180E00E940921D82F31
:100BF000C92F84E00E9409218C018091B1018823D2
:100C0000A1F08091130280FF10C01F930F93CF9328
:100C1000DF9389E291E09F938F930E945C030F9092
:100C20000F900F900F900F900F90B8018D2F9C2F69
:100C30000E942005882339F061E0813009F060E0EE
:100C400080E00E94C105DF91CF911F910F9108951F
:100C50000E946503E0916303F0E0EE0FFF1FE05098
:100C6000FF4F808191810E942A1B0895ACE0B0E083
:100C7000ECE3F6E00C94B52B4F8358878B879C8769
:100C80008B010E94D4058091B001882321F00C874C
:100C90001B8710E000E04F815885B8018B859C854B
:100CA0000E94331A80E090E02C96E4E00C94D12B63
:100CB000EF92FF921F93CF93DF937C01EB018A8128
:100CC0001F928F9389811F928F9388811F928F9398
:100CD000FF92EF928EEF90E09F938F930E945C03C0
:100CE0008DB79EB70A960FB6F8949EBF0FBE8DBF04
:100CF0008881813061F48981811109C00E94BF22FD
:100D00009093B3018093B2018A818093B601BE01B2
:100D1000C7010E943407182F8823E9F190E8E916EB
:100D20009FE5F906C1F48A818823A9F180916303C4
:100D300090E0019663E070E00E94722B8093630361
:100D400060916303709164038091650390916603E1
:100D50000E94A51212C081E8E8168FE5F806D9F4C2
:100D60008A81882331F09091B00181E089278093B6
:100D7000B0018091B00181110AC0E0916303F0E0FD
:100D8000EE0FFF1FE050FF4F8081918102C087E787
:100D900091E00E942A1B812FDF91CF911F91FF903C
:100DA000EF900895ACE0B0E0E8EDF6E00C94B52BE0
:100DB0008098889884988C988CE0EEE1F1E0DE01D0
:100DC000119601900D928A95E1F7FE0131969E01F0
:100DD000235F3F4F41E050E08191A82FA295AF7073
:100DE000B0E091966C9191978F708A0102C0000FCC
:100DF000111F8A95E2F7C801962F982B91969C9324
:100E0000919792969C9192978095892392968C9334
:100E10002E173F0709F70E9443132C96E4E00C9429
:100E2000D12B81E08093630360916303709164032D
:100E300080916503909166030E94A5120E94B312EF
:100E400008950E94A01260936303709364038093DB
:100E5000650390936603643010F00E9411070E94AE
:100E60002416089581E0089581E0089508950E9470
:100E700036070895A5E0B0E0E0E4F7E00C94B62B67
:100E800049835A833091B80189819A81311114C004
:100E9000662359F0222349F00E94120E182F682F62
:100EA00089819A810E94F90D03C00E94060E182FB5
:100EB00069817A81812F04C00E94120E69817A8132
:100EC0000E946B1F2596E3E00C94D22BFC01262F89
:100ED000408151816281738184810E943A07089523
:100EE00081E00895CF93DF93EC0160E00E946607F4
:100EF000BE010E943707DF91CF910895E1E0F0E055
:100F0000DF0102C0AA0FBB1F6A95E2F7BD01DF0136
:100F100002C0AA0FBB1F4A95E2F7AD01462B01C0E4
:100F2000EE0F2A95EAF7942F9823491302C08E2BCF
:100F30000895E0958E230895242F462F682F8091E1
:100F4000BC010E947E070E94580D08950E9421074F
:100F500008950E942116089508950E94F50C0E949C
:100F6000AC072FEF84E39CE0215080409040E1F7F4
:100F700000C0000008950E94AD070E940C23089550
:100F80000E94AD070E94302308950F931F93CF93C3
:100F9000DF938C0161E00E946607EC01B8010E94BA
:100FA000921C882379F1B801CE010E94580688234B
:100FB00049F1B801CE010E94B720882319F1B80188
:100FC000CE010E946D1D8823E9F0B801CE010E9478
:100FD0001D208823B9F0F8018281882309F43FC0DD
:100FE000CA358DE5D807B1F178F4C130FCE5DF07EB
:100FF000A1F0CE3D8CE5D80729F1C115DC4579F586
:101000000E94BB07C0E02FC0CC35FDE5DF07F9F03B
:1010100020F1C73ADD45C1F022C080911302C82FEC
:10102000C095C170C0FB80F980931302CC2329F0D6
:101030008FE991E00E94C302E5CF8DE891E00E9424
:10104000C30211C00E9418130E94C007DBCF0E9488
:10105000521205C00E945C1202C00E946012C801B8
:101060000E943207C82F8C2FDF91CF911F910F91D3
:1010700008950E943B220E9432090E949E1A089500
:101080000E9436090E9444220895A0E0B0E0EBE4FB
:10109000F8E00C94B22BE82FF0E0E055FE4FD4902E
:1010A000282F26952695269530E0F901E05BFD4F27
:1010B0000491877010E0082E02C0159507950A94D8
:1010C000E2F701701127F901E05CFD4FE490F12C8B
:1010D000082E02C0F594E7940A94E2F791E0E92221
:1010E000FF24F901E05DFD4FC491D0E002C0D59529
:1010F000C7958A95E2F7C170DD270115110519F032
:1011000081EE0E94D509E114F10419F086EE0E94E7
:10111000D5098D2D0E94790AE114F10419F086EEAB
:101120000E942A0A0115110519F081EE0E942A0A6F
:10113000CD2B19F08CE20E94790ACDB7DEB7E7E03B
:101140000C94CE2BEF92FF920F931F93CF93DF93CC
:10115000EC01162F0AE08881882309F455C08130FC
:1011600009F043C08981813041F47E0182E0E80EBC
:10117000F11C8A810E94790A09C0823049F47E01FB
:10118000E2E0EE0EF11C8A810E94D509E7012FC032
:10119000833041F47E01F2E0EF0EF11C8A810E945F
:1011A0002A0AF4CF843011F0219621C02A81229698
:1011B00080E090E030E0205331092A30310558F4C6
:1011C000089FA001099F500D1124C901840F951F8C
:1011D00021962881EFCF009751F0EFE9FFE031979A
:1011E000F1F700C000000197F6CF0E944508219654
:1011F000812F882309F4AFCFEFE9FFE03197F1F7B2
:1012000000C000008150F5CFCDB7DEB7E6E00C940A
:10121000CF2B60E00E94A20808958295982F9373C7
:1012200044E0949F900111248C7C86958695282B10
:10123000822F8575880F2A7A2695822B0895089526
:101240000E941F09089581E008950E9423090895CE
:101250000895CF93C82F0E9420098C2F0E94250942
:10126000CF91089580E00E94290908950E943621B7
:101270000E9429090895CF930E943621C82F80919A
:10128000B701C81739F1C093B7018091130282FFEB
:101290001EC080FF04C087E692E00E94C3028091D6
:1012A000130280FF0CC01F92CF9382E692E09F93BF
:1012B0008F930E945C030F900F900F900F9080917E
:1012C000130280FF04C080E692E00E94C3028C2FCC
:1012D0000E942909CF910895ABE0B0E0E2E7F9E080
:1012E0000C94B72B4F83588769877A878B87611156
:1012F0000E9486119E012F5F3F4F86E0F9011192F7
:101300008A95E9F785E0FE013796D90101900D92A3
:101310008A95E1F789819A814C815D81452B31F075
:101320009F3F31F491E08F3F19F403C091E001C079
:1013300090E090FF09C049815A816B817C818D8149
:101340009E810E94B21005C0C9010E9470078111E0
:10135000F2CF2B96E2E00C94D32BFC01808191819B
:101360000E943F0E0895A6E0B0E0E9EBF9E00C948E
:10137000B52B082F162F0E94F61A29834B835C8306
:101380006D837E83002319F0512F532B03C01095DA
:10139000512F532349816B817C818D819E810E94D5
:1013A000111B2696E4E00C94D12BCF93882309F4EB
:1013B0004FC0C82F8CEF8C0F813AD0F46C2F8091E6
:1013C0000601909107010E94CA21882349F06C2FE1
:1013D00080910601909107010E9403220E94AA11A8
:1013E0006C2F80910601909107010E9400220CC091
:1013F00080E28C0F883058F4C77081E001C0880FFC
:10140000CA95EAF70E9469110E94AA1121C0EBE572
:10141000EC0FE33040F4F0E0E85AFE4F808190E0BA
:101420000E94922115C0E8E5EC0FE73150F4F0E09E
:10143000EE0FFF1FE65DFE4F808191810E94A82183
:1014400007C0C03F28F08C2F0E9482170E945418BA
:10145000CF9108958823A1F19CEF980F913A40F421
:10146000682F80910601909107010E9403220DC010
:1014700090E2980F983060F4877091E001C0990F66
:101480008A95EAF7892F0E946F110E94AA11089588
:101490009BE5980F933028F480E090E00E94922121
:1014A000089598E5980F973128F480E090E00E9425
:1014B000A8210895803F20F00E94DD170E94541853
:1014C00008951F93CF93DF93182FEB010E94D50946
:1014D000209741F08FE99FE00197F1F700C00000ED
:1014E0002197F6CF812F0E942A0ADF91CF911F9179
:1014F0000895893319F060E070E002C060E570E0A3
:101500000E94610A0895882321F00E9469110E94B7
:10151000AA110895882321F00E946F110E94AA1138
:101520000895A0E0B0E0E7E9FAE00C94B12B7C016B
:10153000162FC72FFC01D281058102950F700E94E2
:101540005F118823B9F0DD23A9F08C2F807F8034D0
:1015500021F080E2810F883068F08091680382FF7B
:1015600009C082E00E940C120E945F1191E0D82E07
:10157000D92601C0D12CCC2EC2948FE0C8228C2D4C
:1015800090E08C30910508F0ADC1FC01EA5AFF4FA4
:101590000C949A2B8C2F807FCF70882311F0C295EA
:1015A000C07FDD2399F0CC2309F488C180E2810F4C
:1015B000883010F0111104C08C2F0E94691103C0F3
:1015C0008C2F0E9479110E94AA1178C1812F0E944C
:1015D0002A0ACC2309F486C180E2810F883038F1D1
:1015E000112329F18C2F0E947F1124C08C2F807F22
:1015F000CF70803211F0C295C07F112319F01130E5
:10160000A1F13DC08091680382FD17C0DD2349F040
:10161000CC2329F08C2F0E9469110E94AA1180E02E
:101620004EC180E00E942A0ACC2309F45BC18C2FB2
:101630000E946F110E94AA1155C1DD2371F0002391
:1016400041F0013031F40E9489118C2B0E949311DA
:1016500049C10E9489118C2B1DC0002319F0013053
:1016600009F440C10E94A01125C0DD2321F00630FD
:1016700008F038C10EC0053008F034C11BC0DD23AE
:1016800061F0002331F0F701858180FF17C18F7071
:1016900085838C2F0E94830A25C1002359F01933BA
:1016A00009F01DC1FFEF27EE83E0F150204080409C
:1016B000E1F713C18C2F0E948A0A14C18C2F8695E2
:1016C0008695837019F0813061F00CC1DD2321F023
:1016D000812F9C2F937002C080E090E00E949221A5
:1016E00009C1DD2321F0812F9C2F937002C080E07F
:1016F00090E00E94A821FEC0812FDD2319F00E94F6
:10170000821702C00E94DD178CE0810F853058F4EB
:10171000182F61E070E001C0660F8A95EAF78D2FFF
:101720000E94B309E7C00E945418E4C08C2F837054
:1017300079F5D111DBC0412F429546954770440F92
:10174000440F212F2F70042E01C0220F0A94EAF7B4
:1017500014FF08C08FE090E001C0880F4A95EAF7B7
:10176000809501C080E0C695C695C370822BC230BB
:1017700049F058F4C13019F00E94490DB7C00E94D9
:10178000430DB4C00E944F0DB1C00E94400DAEC0C9
:10179000DD2319F08C2F817001C08695882309F410
:1017A000A5C0412F429546954770440F440F212F05
:1017B0002F70042E01C0220F0A94EAF714FF08C00C
:1017C0008FE090E001C0880F4A95EAF7809501C04C
:1017D00080E0C695C695C370822BC23049F058F49C
:1017E000C13019F00E94970D81C00E94910D7EC0FA
:1017F0000E949D0D7BC00E94580D78C0CF70DD23E4
:1018000039F08C2F0E946C0D812F0E94830A6EC0CC
:10181000812F0E948A0A8C2F0E94780D67C0123F88
:1018200021F128F4103F41F0113FC1F043C0133FB4
:1018300019F1143F79F03EC0DD2341F0053008F086
:1018400051C08C2F8F710E94850D4CC0063008F05E
:1018500049C0F7CF8091680382FD18C0DD2339F0BD
:101860008C2F8F710E946C0D3DC0DD23C9F38C2F2E
:101870008F710E94780D36C0DD2329F08C2F8F7177
:101880000E94630D2FC00E945F0D2CC0DD2349F024
:10189000CF718C2F0E946C0D63E08C2F0E94EE1193
:1018A00021C081E00E940C120230E0F082E00E9430
:1018B0000C1218C0DD2331F0002391F2812F0E9419
:1018C000D50910C0002399F2193349F49FEFE7EED0
:1018D000F3E09150E040F040E1F700C00000812FBC
:1018E0000E942A0A88EF8C0D843020F40E94362151
:1018F0000E942909DD2089F00E945B1180FD0DC046
:10190000F70112820E9455110E946C0DC7010E94BE
:10191000AA0C0E9455110E94780DCDB7DEB7E8E001
:101920000C94CD2B0F931F93CF93DF93EC01688121
:1019300079818A810E944A0E8C010E94A30D0E9427
:10194000310DB801CE010E94910ADF91CF911F9114
:101950000F910895CF93DF93EC01988189812B81BA
:101960003C81232B31F08F3F31F481E09F3F19F40C
:1019700003C081E001C080E080FD1AC0CE010E945A
:10198000C50781110FC00E945F11882389F08A81E9
:10199000882371F08091680382FF0AC082E00E9470
:1019A0000C1206C0CE010E94920CCE010E9472075A
:1019B000DF91CF91089580E090E00E94922180E035
:1019C00090E00E94A8210E9486110E94AA110E9404
:1019D000F5180E945418089580910601909107010E
:1019E0000E9406220E94DB0C08950E9476110E943C
:1019F000EC0C089592959F70963079F010F4925007
:101A000001C09A50923068F4803F69F018F4883E23
:101A100040F409C0843F29F406C0883E20F0813F8D
:101A200011F080E0089581E00895FC0180819181AA
:101A30000E943F0E0E94FA0C0895A5E0B0E0E3E298
:101A4000FDE00C94B72B2596E2E00C94D32BA6E096
:101A5000B0E0EDE2FDE00C94B72B2696E2E00C94AA
:101A6000D32B089508950E94320D08950E94330DDE
:101A700008950E94360D8093BD010E94DB0C0895ED
:101A80000E94390D08959091BD01892B0E94390D56
:101A900008959091BD0189230E94390D0895909178
:101AA000BD0189270E94390D08950E94320D0895C5
:101AB0000E94550D8093BC010E94DB0C089580E0CC
:101AC0000E94580D089591E001C0990F8A95EAF798
:101AD000892F0E94580D089521E030E001C0220FA7
:101AE0008A95EAF78091BC01822B0E94580D0895D7
:101AF00021E030E001C0220F8A95EAF7209580911D
:101B0000BC0182230E94580D089521E030E001C0FD
:101B1000220F8A95EAF78091BC0182270E94580D16
:101B200008959091BC01892B0E94580D08959091C1
:101B3000BC0189230E94580D08959091BC0189270A
:101B40000E94580D08950895962F9770A1E001C046
:101B5000AA0F9A95EAF793E0769567959A95E1F73B
:101B6000FB01EE0FFF1F6E0F7F1FFA01E60FF71F3D
:101B700040E050E0682F70E090819B01042E02C08D
:101B8000369527950A94E2F72170219529272A2373
:101B9000292721934F5F5F4F4330510569F708951F
:101BA0009B01782F777043E0969587954A95E1F7EA
:101BB000FC01EE0FFF1F8E0F9F1FF901E80FF91FA9
:101BC00040E050E080E0219130E0072E02C03695E1
:101BD00027950A94E2F721703327042E01C0220FC3
:101BE0000A94EAF7822B4F5F5F4F4330510559F754
:101BF0000895282F911109C0853038F4862F622F5F
:101C000070E049EB51E00E94A40D0895911108C0C5
:101C1000853030F469EB71E090E00E94D00D0895BA
:101C200080E00895CF92DF92FF920F931F93CF939E
:101C3000DF936C010091BC018091BD01082BC7E0CE
:101C4000D0E010E0C8010C2E02C0959587950A944B
:101C5000E2F780FD04C02197A8F7F12C07C0FC2E05
:101C6000B6018C2F0E94DD140197A9F38F2DDF910F
:101C7000CF911F910F91FF90DF90CF900895CF9358
:101C8000DF93EC010E94120EBE010E94DD14DF9171
:101C9000CF9108951F93CF93DF93EB019091B801FB
:101CA000992321F0CB010E943F0E13C0882349F0F5
:101CB000CB010E94120E182F682FCE010E94F90D41
:101CC00004C0CB010E94060E182FBE01812F0E9476
:101CD000DD14DF91CF911F9108951F93CF93DF9370
:101CE000C091BE0116E08091BF01C81799F0D0E005
:101CF0001C9FF0011D9FF00D1124E054FE4F408108
:101D0000518162817381848195810E94270D219682
:101D1000C770E9CFDF91CF911F9108954091F001F5
:101D20005091F1016091F2017091F3018091F40101
:101D30009091F5010E94270D08950F931F93CF9363
:101D4000DF938091F50182958F7009F05AC08091E0
:101D5000F201882309F455C08091BE011091BF01A2
:101D60006091F0017091F101C091F301D091F40103
:101D700091E06F3F09F090E0292F06E0811709F408
:101D800040C0209721F07F3F21F030E003C031E0D8
:101D900001C0322F90E030FD31C0089FF001099F53
:101DA000F00D1124DF01A054BE4F11963C91119704
:101DB000371324C03C91361321C012963C911297E0
:101DC00031111CC013964D915C9114974C1B5D0B07
:101DD000483C510598F48091F5018F7080618093A3
:101DE000F501EB53FE4F80818F708061808380EF1F
:101DF00091E00E94AA0C0E946D0E03C001968770AC
:101E0000BDCFDF91CF911F910F910895A1E1B0E077
:101E1000ECE0FFE00C94AE2B8C0185E0F801DE01D4
:101E20001D9601900D928A95E1F7F801E28090915C
:101E3000F0016091F1012091F3013091F40121153D
:101E4000310531F06F3F31F481E09F3F19F403C059
:101E500081E001C080E0F82FF1709F2E80FD40C12D
:101E6000F80140815181A380B48080EFC82E81E0C9
:101E7000D82EF090F201F501E21BF30BFF2009F4DC
:101E8000DAC08091F501E83CF10508F096C0282FF2
:101E9000207F09F053C0561313C0491311C0FE2C04
:101EA000E1100EC08F7080618093F5010E948E0E4C
:101EB000C6010E94AA0C8091F501F80185834DC1ED
:101EC000A114B10431F05F3F31F481E04F3F19F4C8
:101ED00003C081E001C080E080FD03C081E08E2569
:101EE00002C080E090E0F82FF170FF2E80FF1CC050
:101EF0008091BE012091BF0136E0821709F40BC129
:101F000090E0389FF001399FF00D1124E054FE4F0E
:101F10006181561306C06081461303C06281E612D8
:101F200003C001968770E9CFFE2CEE2009F415C19D
:101F30008091F50181608093F50154C0561306C06D
:101F4000491304C0E11002C0F80199C0C8010E9401
:101F5000150D882361F1EE2051F12091F501822FBA
:101F600082958F7090E0029774F08091F0019091CB
:101F7000F10198878F831986BB86AA862C87CE01AC
:101F800007960E94AA0C86E0F801A0EFB1E001904C
:101F90000D928A95E1F70E949D0E0E948E0E0AC056
:101FA000561711F1C8010E94150D81112CC0C801EE
:101FB0000E94AA0CFF24F394D0C0282F207F81F721
:101FC0007A2DB98AA88A6E2D89890E941D0D80EF0D
:101FD00091E00E94AA0C86E0F60111928A95E9F739
:101FE0000E948E0EF12CB9C04913DCCFE110DACF7C
:101FF000F8018583C8010E94AA0C86E0F6011192BF
:102000008A95E9F7AAC0EE2091F22091F501822F7E
:1020100082958F7090E002970CF4B5CF8091F0011B
:102020009091F1019A8389831B82BD82AC822E83B9
:10203000CE010196A6CFE83CF10508F044C0FE2C85
:10204000EE2009F4B4CF561330C049132EC02091AE
:10205000F50120FD21C0822F82958F70482F50E01E
:1020600041155105C9F0F80125834F30510541F064
:102070008F5F982F9295907F822F8F70892B858309
:10208000C8010E94AA0C86E0F801A0EFB1E001901F
:102090000D928A95E1F73CC086E0F801A0EFB1E02F
:1020A00001900D928A95E1F758C0C8010E94150D64
:1020B000811169CF8091F50181608093F501C8019C
:1020C0000E94AA0C4AC07A2DB98AA88A6E2D8989E5
:1020D0000E941D0D86E0F60111928A95E9F718C05D
:1020E000EE2009F464CFC8010E94150DF82E882354
:1020F00009F45DCF86E0F801A0EFB1E001900D9208
:102100008A95E1F780EF91E00E94AD090E949D0E53
:102110000E948E0E22C04D875E878D859E850E940F
:102120003F0E292F22952F70223028F49F7039F00E
:10213000811105C00BC0243028F49F7049F4805EE3
:10214000883020F0C8010E94AA0C9F2CF92C05C0F1
:10215000F8019581907F99F7F9CF8F2D6196EBE08B
:102160000C94CA2BACE0B0E0E8EBF0E10C94B62B99
:102170004F83588769877A878B879C87CE0107961C
:102180000E94060F8823D1F09F8188852A853B8590
:10219000232B31F08F3F31F481E09F3F19F403C0CE
:1021A00081E001C080E080FD47C04F81588569858E
:1021B0007A858B859C850E94270D3EC086E0FE01B6
:1021C0003796DE01119601900D928A95E1F7FF8115
:1021D000E8856A857B856115710531F0EF3F31F443
:1021E00081E0FF3F19F403C081E001C080E080FD81
:1021F00023C02091BF0130E0C90101968770992763
:102200004091BE0150E084179507F1F1F983EA830C
:102210007D836C8396E0929FD001939FB00D112433
:10222000A054BE4FFE01319601900D929A95E1F7B0
:102230008093BF010E946D0E16E08091BE019091C7
:10224000BF01891771F1189FC001112480549E4F5E
:102250000E94060F882329F1E091BE011E9FF00124
:102260001124E054FE4F4081518162817381848149
:1022700095810E94270D8091BE0190E001968770A4
:1022800099278093BE01D9CF0E94F50C1092BF010F
:102290001092BE01E0EFF1E086E0DF011D928A9529
:1022A000E9F72C96E3E00C94D22B8091FE01859502
:1022B0008595859508958091FE0187700895909188
:1022C000FE01977081E009F480E008958091090291
:1022D000089590910902892B8093090208958095B1
:1022E00090910902892380930902089510920902AE
:1022F000089590910802892B809308020895809593
:102300009091080289238093080208951092080290
:1023100008958091FF01089508950E948C110895F9
:102320000E948D1108959091680392FF08C09091CA
:10233000FF01981721F08093FF010E9490110895EA
:102340008091FF01882329F01092FF0180E00E9414
:1023500090110895CF93DF93E0910601F09107016A
:10236000809109028083E0910601F091070190813C
:1023700080910802892B80838091FF01882381F05E
:10238000E0910601F09107019081892B8083809173
:102390000601909107010E94BE2181110E94A011A7
:1023A000C0910601D091070148E050E066EF71E06E
:1023B000CE010E94DE2B892B59F088E0FE01A6EFAA
:1023C000B1E001900D928A95E1F7CE010E94432180
:1023D000DF91CF9108950E948C1108959091680328
:1023E00092FF11C098E0899F90011124262B209321
:1023F000FE010E946C0D8091FE0185958595859565
:102400000E94EB1108950E946C0D08951092FE0138
:1024100080E00E94EB1108952091FE0180958223B7
:102420008093FE01982F977099F430E0482F082E82
:10243000000C550B2417350759F09091680392FF53
:1024400007C08595859585950E94780D0E94061296
:102450000895CF939091680392FB222720F92817C3
:10246000F9F0C82F892FC0FB82F98093680380910F
:102470006703909168030E94921282E00E940C12FE
:102480008091130280FF0CC01F92CF9382E792E0ED
:102490009F938F930E945C030F900F900F900F906B
:1024A000CF9108958091680382FB882780F991E09D
:1024B00089270E942912089581E00E942912089517
:1024C00080E00E94291208956FEF7FEF80E090E096
:1024D0000E941D2C089580E090E00E94F92B883E18
:1024E0009E4F19F40E94271C089580E0089582E011
:1024F00090E00E94EB2B089583E090E00E94EB2B8C
:102500000895CF9384E090E00E94EB2BC82F82E2E5
:1025100090E00E94EB2B2C2F30E0A901582BCA0130
:10252000CF910895CF93C92F682F84E090E00E9447
:10253000FF2B6C2F82E290E00E94FF2BCF91089539
:102540008FE090E00E94F32B0895AB01BC018FE077
:1025500090E00E94112C0895AB01BC0183E190E052
:102560000E94112C089560E070E0CB010E94AC1233
:10257000089568EE7EEF80E090E00E941D2C60E000
:1025800082E090E00E94FF2B60E083E090E00E94F8
:10259000FF2B1092BD0160E084E090E00E94FF2BD1
:1025A00064E082E290E00E94FF2B60E085E090E032
:1025B0000E94FF2B60E086E090E00E94FF2B6FEF0F
:1025C00087E090E00E94FF2B40E050E0BA0188E0F5
:1025D00090E00E94112C60E08DE090E00E94FF2BC3
:1025E00040E050E0BA0188E190E00E94112C60E0E8
:1025F00087E190E00E94FF2B40E050E0BA018CE1BF
:1026000090E00E94112C60E070E080E290E00E9477
:102610001D2C40E050E0BA0188E190E00E94112CAE
:1026200080E00E94401C0E94751C0E9411070895C2
:102630000E94B9120895682F8EE090E00E94FF2B4F
:1026400008950E94CB2260930F0270931002809332
:1026500011029093120260930B0270930C0280930C
:102660000D0290930E02089581E008950E943413A4
:10267000089508950E94391308950E94391308950A
:102680000E943D1308950E94391308950E94391342
:10269000089588E495E20E942C210E9446130E942E
:1026A000D20608950E943A130E94391308950E9499
:1026B000D3150E94280908950E94B6220E94851C05
:1026C0000E9488160E9457130E94541A0E944013B9
:1026D0000895AAE0B0E0EFE6F3E10C94B22B0E947B
:1026E0009416D82E81110E94211380E00E94EE15CD
:1026F000F82EE0900A02E82689F48FEF89838A8316
:102700001B820E94BF228160782F9D838C83498128
:102710005A816B818D810E946C092CC080911302BB
:1027200081FD0E94F41500E011E08E2D8123E9F077
:102730000E943613882399F00E831F82F12281E0D4
:1027400009F480E088870E94BF228160782F9A87F1
:1027500089874E815F8168858A850E946C09809196
:102760000A02182710930A0205C00F5F110F0530E7
:10277000E1F6C3CF81E0D11001C080E02A96E7E006
:102780000C94CE2B0E9469130E9432190E949E1A4B
:102790000E943B090895CF93DF930E94E214EC015D
:1027A000811521E5920708F045C0811530E59307B2
:1027B00008F094C0883E910528F5803E910508F008
:1027C000F8C0883A910570F4853A910508F07CC00C
:1027D0008130910509F475C008F4E8C0049708F049
:1027E000E8C0E4C08F3B910508F0E0C0C85AD0E0D3
:1027F000CC0FDD1FC55ADE4F0990D881C02DCE0108
:102800009464D8C0811540E2940758F4811551E0D2
:10281000950708F0CEC0803F910508F4C7C09065C9
:10282000C9C0C11580E4D80708F4C0C0DF70CE016C
:10283000906AC0C0811525E59207A8F4811534E59A
:10284000930708F095C0811543E5940708F07BC015
:10285000811552E5950708F061C0D82FCC27CE012D
:10286000816F906AA7C0C11589E5D807A0F4C1158A
:1028700028E5D20708F082C0C11536E5D30708F075
:1028800095C08C2F0E9476158F7190E0D82FCC27A1
:10289000CE0190628FC0C1154AE5D40708F474C018
:1028A000CE0190568115904208F080C08D2F8F7117
:1028B0000E947615DD27D0628F71AE01582BCA01B8
:1028C00079C081E090E076C0C55AD0E0C757DE4FAE
:1028D0008881C82FD0E0CE0190646CC074E09695DA
:1028E00087957A95E1F7282F23703C2F337081E08C
:1028F00090E002C0880F991F3A95E2F79C68AC01FE
:10290000522B9A019C2F9F709695969550E2959F19
:10291000E0011124C9018C2B9D2B4CC08370992799
:1029200021E030E002C0220F331F8A95E2F79C2F8E
:102930009695969580E2989FE0011124C22BD32BA7
:10294000CE019C6837C08370992721E030E002C037
:10295000220F331F8A95E2F79C2F9695969540E2B9
:10296000949FE0011124C22BD32BCE019A6822C080
:10297000D82FCC27CE01846F906A1CC0DC2FCC27C7
:10298000CE01806F906A16C08C2F8F700E947615D2
:1029900094E0D695C7959A95E1F7CF70D0E0DC2FFB
:1029A000CC27D0699E01282BC90104C080E090E0AB
:1029B00001C0CE01DF91CF9108950E946B1F0E944C
:1029C000CB1308958238910569F1B0F481339105F4
:1029D00009F46DC048F48932910509F463C08A3264
:1029E000910509F469C008958533910509F455C02E
:1029F00089339105B9F00895833E910569F138F462
:102A0000803E9105B1F0823E910509F10895863E20
:102A10009105A9F1873E9105B9F1843E910509F030
:102A200064C023C02091670320FD4FC021FD4DC02D
:102A300008958091670380FD44C08091680380FF02
:102A400044C08091670384FD42C083EE4DC08091F5
:102A5000670382FF38C0F5CF8091670382FD33C0E2
:102A60008091680380FD31C0ECCF8091680381FFC5
:102A700032C08091670384FD2AC087EE35C0809103
:102A8000670383FF26C0F5CF8091670383FD21C0D4
:102A90008091680381FD1FC0ECCF8091670385FDA5
:102AA0001CC01DC08091670385FD19C016C08091B0
:102AB000670386FD16C017C08091670386FD13C0AB
:102AC00010C089E311C082EE0FC080EE0DC080E01F
:102AD0000BC086EE09C084EE07C089E205C085E31D
:102AE00003C08AE201C081E390E0089590916703FA
:102AF00092FF0DC0282F2871283019F4877F846039
:102B000006C0282F2471243011F48B7F886093FF36
:102B10000DC0282F2871283119F4877E846106C0E2
:102B2000282F2471243111F48B7E88612091680351
:102B300020FF0DC0382F3871383019F4877F81603D
:102B400006C0382F3171313011F48E7F886021FF3B
:102B50000DC0282F2871283119F4877E816106C0A5
:102B6000282F2171213111F48E7E886194FD877E9A
:102B700008950E94641208950E9494168FE39CE9C0
:102B80000197F1F700C000000E94941680E00E94B7
:102B9000EE1583FF04C00E94B9150E940C2308950E
:102BA0000E94BC1508950E946B12811102C00E9400
:102BB00018130E947712809313020E94811290933F
:102BC0006803809367030E94D0150E947C120E94C4
:102BD000400D8091BC010E94550D0895E82FF0E052
:102BE000E659FC4F8081089586E992E00E94C30275
:102BF0001F921F9281E992E09F938F930E945C0342
:102C00008EE892E00E94C30280916A030E940D093F
:102C10001F928F9389E892E09F938F930E945C03A9
:102C200087E892E00E94C3028DB79EB708960FB660
:102C3000F8949EBF0FBE8DBF089508950E941D1683
:102C400008950E941E1608950E941D160895CF93A0
:102C5000DF93ACE8B1E061E971E041E050E08D91D3
:102C60008F3F31F46A177B07D1F7DF91CF91089539
:102C7000E82FE295EF70F0E021A18F70EA0102C029
:102C8000CC0FDD1F8A95E2F7CE019C2F9095922301
:102C900091A392A1892B82A3E5CF0F931F93CF938A
:102CA000DF93EC01062F10E085E0689FB00111244E
:102CB00040E050E0B1E0A0E0CA01860F971F8457C2
:102CC0009E4FFC0190819F3FA1F0292F22952F70EC
:102CD00030E0F90120A130E09F7002C035952795C2
:102CE0009A95E2F720FD02C08B2F02C080E090E0B1
:102CF000A82BBB0F4F5F5F4F45305105E9F6F80138
:102D0000EC0FFD1FA083DF91CF911F910F910895CC
:102D10000E94271610926A031092690381E00E94B4
:102D2000B9160E94A6070895A1E0B0E0EAE9F6E12D
:102D30000C94B62B198260E0CE0101960E944D16CC
:102D400090916903898111E0981301C010E09813F4
:102D500080936903212F41E06AE673E089E693E0FE
:102D60000E94BA160E94A907812F2196E3E00C94D5
:102D7000D22B0895FF920F931F93CF93DF938C0173
:102D8000F62ED72FC42F222349F081E0809316021C
:102D90000E94BF2290931502809314028091160224
:102DA0008823C1F080911402909115020E94D722CD
:102DB000059780F0EF2DFD2FD8014C2F50E0CD016D
:102DC000801B910B841795071CF48D918193F7CF8D
:102DD00010921602CDB7DEB7E5E00C94D02B0E941E
:102DE000C5250E945C130E94D22508950E94D72514
:102DF0000E94C2130E94F52508950E9456220E9447
:102E0000AB250E9449130E94EF160E94F6160E94FD
:102E10005213FBCF80911D0280FF06C060910D010F
:102E200070E0660F771F26C081FF04C060910D011E
:102E300084E005C082FF07C060910D0188E0689FB3
:102E4000B001112417C090911C029923D1F0609118
:102E50000C01961788F720910D0188E0289F9001BA
:102E60001124929FA001939F500D112470E0CA017C
:102E70000E94862B6038710540F46115710519F4C4
:102E800006C068E070E0862F08958FE7089581E01E
:102E9000089580911D0280FF08C06091090170E0D3
:102EA000759567957595679521C081FF06C06091FE
:102EB000090170E07595679519C082FF04C06091A3
:102EC000090170E010C090911B02992399F0609164
:102ED00008019617A0F780910901899FC00111246C
:102EE00070E00E94862B6038710540F46115710511
:102EF00019F406C061E070E0862F08958FE7089509
:102F000081E00895803F21F40E940A17819504C052
:102F1000813F29F40E940A17809321020895823F7D
:102F200021F40E940A17819504C0833F29F40E946E
:102F30000A17809320020895893F19F40E944917C7
:102F400005C08A3F31F40E9449178195809322027F
:102F500008958B3F21F40E944917819504C08C3F4E
:102F600029F40E9449178093230208959CE0980F4A
:102F7000953078F421E030E0A90102C0440F551FDC
:102F80009A95E2F7CA0190911F02892B80931F0244
:102F900008958D3F21F480911D0281600BC08E3F0A
:102FA00021F480911D02826005C08F3F29F4809139
:102FB0001D02846080931D020895803F39F4909132
:102FC000210297FF35C01092210259C0813F29F498
:102FD000909121021916BCF32BC090912002823FE0
:102FE00029F497FF25C01092200249C0833F19F4AD
:102FF0001916CCF31DC090912202893F29F41916AD
:10300000BCF4109222023BC08A3F19F497FF10C013
:10301000F8CF8B3F39F49091230297FF09C01092AB
:1030200023022DC08C3F21F4909123021916BCF38A
:103030009CE0980F953080F421E030E0A90102C0B7
:10304000440F551F9A95E2F7CA01809590911F028F
:10305000892380931F0213C08D3F21F480911D02AC
:103060008E7F0BC08E3F21F480911D028D7F05C0A5
:103070008F3F29F480911D028B7F80931D028091E8
:103080002002811106C080912102811102C010929C
:103090001C0280912202811106C0809123028111BD
:1030A00002C010921B0208958091130283FF7EC01C
:1030B0008CEC92E00E94C30280911F021F928F93BA
:1030C00087EC92E09F938F930E945C0385EC92E0E3
:1030D0000E94C30280912002282F082E000C330B7F
:1030E0003F938F9382EC92E09F938F930E945C03B7
:1030F00080EC92E00E94C30280912102282F082ECA
:10310000000C330B3F938F938DEB92E09F938F9343
:103110000E945C038BEB92E00E94C302809122022A
:10312000282F082E000C330B3F938F9388EB92E0EF
:103130009F938F930E945C0386EB92E00E94C302F0
:1031400080912302282F082E000C330B3F938F937E
:1031500083EB92E09F938F930E945C0380EB92E05D
:103160000E94C30280911C021F928F938DEA92E00D
:103170009F938F930E945C038BEA92E00E94C302AC
:1031800080911D021F928F9388EA92E09F938F9304
:103190000E945C0385EA92E00E94C3028DB79EB74D
:1031A0004C960FB6F8949EBF0FBE8DBF0E94BF22F3
:1031B00020912002211104C020912102222321F01C
:1031C00090931A028093190220912202211104C0C7
:1031D00020912302222321F090931802809317025A
:1031E0008EE192E00E9484210895EEE1F2E086E013
:1031F000DF011D928A95E9F710921C0210921B02C2
:1032000010921D020895A6E0B0E0E9E0F9E10C9407
:10321000B72B86E0EEE1F2E0DE01119601900D920F
:103220008A95E1F729813A814B815C816D817E81AC
:1032300080E090E02696E2E00C94D32BFC018281A2
:1032400081110DC0838181110AC08481811107C061
:1032500091E08581811101C090E0892F01C081E05A
:1032600081700895A6E0B0E0E8E3F9E10C94B62B94
:1032700086E0EEE1F2E0DE01119601900D928A9572
:10328000E1F7109220021092210210922202109275
:1032900023028B81811104C08C81882309F45FC0D3
:1032A0008091190290911A020E94D722AC0190914C
:1032B0001C02992339F020910E0130E024173507C4
:1032C00058F04DC020910F018AE0289F90011124F1
:1032D0002417350718F043C09F3F19F09F5F909364
:1032E0001C021B81112361F00E940A17111614F0B1
:1032F0009FEF01C091E0989F902D112490932002A0
:103300001C81112361F00E940A17111614F09FEF1F
:1033100001C091E0989F902D11249093210230914B
:1033200020023323E1F0209121022223C1F045EB5A
:103330003403C0011124992319F09093200203C093
:1033400081E08093200235EB2303C00111249923EF
:1033500019F09093210203C081E0809321028D81B6
:10336000811104C08E81882309F45FC08091170207
:10337000909118020E94D722AC0190911B029923D0
:1033800039F020910A0130E02417350758F04DC07C
:1033900020910B018AE0289F900111242417350702
:1033A00018F043C09F3F19F09F5F90931B021D814F
:1033B000112361F00E944917111614F09FEF01C00C
:1033C00091E0989F902D1124909322021E81112349
:1033D00061F00E944917111614F09FEF01C091E0AF
:1033E000989F902D11249093230230912202332331
:1033F000E1F0209123022223C1F045EB3403C00108
:103400001124992319F09093220203C081E0809344
:10341000220235EB2303C0011124992319F0909364
:10342000230203C081E080932302BE016F5F7F4FC0
:103430008EE192E00E940D22811105C08EE192E0A2
:103440000E941E1981110E94541886E0FE013196D7
:10345000AEE1B2E001900D928A95E1F72696E3E0A5
:103460000C94D22B0895ACE0B0E0E9E3FAE10C94BF
:10347000B72B4F83588769877A878B879C8786E02D
:10348000FE013796DE01119601900D928A95E1F7C3
:1034900029813A814B815C816D817E8180E090E061
:1034A0002C96E2E00C94D32BE0919101F0919201E3
:1034B00009950E9428060E94321A089564E272E07B
:1034C0008AE292E00E940D22882321F08AE292E0B3
:1034D0000E94842110922C0210922D0210922E0232
:1034E00010922F0286E0EAE2F2E0A4E2B2E001905C
:1034F0000D928A95E1F70895ACE0B0E0E2E8FAE1D8
:103500000C94B72B4F8358878B879C87719579874D
:103510006A8786E0FE013796DE01119601900D92D2
:103520008A95E1F729813A814B815C816D817E81A9
:1035300080E090E02C96E2E00C94D32BA6E0B0E083
:10354000E4EAFAE10C94B72BE0919301F091940135
:1035500040912A0250912B0260912C0270912D0211
:1035600080912E0290912F020995F42FE52FCB0127
:1035700020932A0230932B02F0932C02E0932D0229
:1035800060932E0290932F02A9016F2F7E2F0E942D
:103590007C1AF42FE52FCB0120932A0230932B02C3
:1035A000F0932C02E0932D0260932E0290932F0251
:1035B000A9016F2F7E2F0E94360620932A02309396
:1035C0002B0240932C0250932D0260932E02709395
:1035D0002F020E940319EAE2F2E08181382B318345
:1035E0000E945E1A2696E2E00C94D32BA6E0B0E08F
:1035F000ECEFFAE10C94B72B86E0EAE2F2E0DE01B0
:10360000119601900D928A95E1F729813A814B81BB
:103610005C816D817E8180E090E02696E2E00C94F2
:10362000D32BA6E0B0E0E7E1FBE10C94B72B498394
:103630005A836B837C838D839E8386E0FE01319663
:10364000AAE2B2E001900D928A95E1F72696E2E0B7
:103650000C94D32BE0919501F09196010995089572
:10366000ACE0B0E0E6E3FBE10C94B32B4F8358876A
:103670008B879C87F62EE72E0E94DC1B8C01811124
:1036800002C01123F9F02091130223FF1DC020FF77
:103690001BC0292F092E000C330B3F939F93282F1B
:1036A000082E000C330B3F938F938FEE92E09F9385
:1036B0008F930E945C030F900F900F900F900F90CC
:1036C0000F9002C01E2D0F2D09871A8786E0FE017C
:1036D0003796DE01119601900D928A95E1F72981C6
:1036E0003A814B815C816D817E8180E090E02C96F7
:1036F000E6E00C94CF2B2C9808952C9A08953E98D0
:10370000469898E080E02F9825E02A95F1F7000090
:1037100026B126FB222720F9880F822B2F9A25E03D
:103720002A95F1F70000915071F708953E9A27E02D
:1037300030E090E02F98AC01022E02C055954795DD
:103740000A94E2F740FF02C0469A01C046984AE058
:103750004A95F1F700C02F9A2150310958F785E1B9
:103760008A95F1F700000895CF93C82F0E947B1B24
:103770008C2F0E94961B0E947F1BC82F85E08A9584
:10378000F1F700000E947D1B8C2FCF910895CF93FD
:10379000DF93D82FC62F0E947B1B8D2F80680E943D
:1037A000961B8C2F0E94961B0E947D1BDF91CF9150
:1037B000089587FD80680895CF93DF930E947B1B57
:1037C00083E60E94961B0E947F1BC82F0E947F1BCE
:1037D000D82F0E947D1B8C2F0E94D91BC82F8D2FA4
:1037E0000E94D91B982F8C2FDF91CF910895279A93
:1037F0003E9A249A6AE58AE30E94C71B2FE78FEA64
:1038000092E0215080409040E1F700C000000E940B
:10381000DC1B08958D37910548F0863D26E0920720
:1038200038F46DE770E00E94722B03C061E001C0C4
:103830006DE0606189E10E94C71B089589E10E94E3
:10384000B41B80712DE7829FC0011124089583E28B
:1038500090E00E94EB2B823281F484E290E00E949F
:10386000EB2B883051F485E290E00E94EB2B91E045
:10387000823109F090E0892F01C080E081700895C5
:10388000CF93C82F811102C06FEF01C062E283E2C3
:1038900090E00E94FF2BC11102C06FEF01C068E0F1
:1038A00084E290E00E94FF2BC11102C06FEF01C0C3
:1038B00062E185E290E00E94FF2BCF910895089588
:1038C00086E290E00E94EB2B682F70E080E090E0B1
:1038D00008950895CF93C62F0E94691C6C2F86E22D
:1038E00090E00E94FF2BCF91089580E00E94401C41
:1038F00060E070E0CB010E946A1C0E94041F0E94DD
:10390000C21F81E00E94401C08950E945F1C0E941B
:10391000601C0E94691C0E94271C811102C00E9429
:10392000751C0895CF93FB01C281CC23E9F09C0163
:1039300022513F452031310520F482510E94D21F8F
:103940000CC08031FFE59F0751F481E00E946C0DAF
:1039500043E062E081E00E949C07C0E018C0813132
:103960009F45A9F482E0F2CF8031EFE59E0711F484
:1039700081E004C081319F4549F482E00E94780DC6
:1039800043E062E081E00E949C0701C0C1E08C2F0F
:10399000CF9108952FEFFC01208308951F93CF93BB
:1039A000DF93EC01162FE8818E2F90E0FC01319718
:1039B000E331F10508F082C0EE59FF4F0C949A2BC9
:1039C000198289E088C08981823041F0833009F40E
:1039D0007FC08130B1F40E94CB2202C00E94601CE3
:1039E0009A838B837C836D836BC08981823049F499
:1039F0006A817B818C819D810E94A02B0E946A1C20
:103A00005FC0612FCE010E94CA1C5AC04B816A81DF
:103A100089810E94C81E9C838D8352C02C813D8168
:103A20003227232732274B816A8189810E94E91E30
:103A300047C00E94041F44C00E94791F23C00E94F7
:103A40007B1F998348C06B8170E089819A81AE01A8
:103A50004C5F5F4F9827892798270E947E1F30C0B0
:103A60006B8170E089819A81AE014C5F5F4F98272E
:103A7000892798270E94A11F23C00E94C21F20C02F
:103A80000E94B51E89831CC06B8170E089819A8178
:103A9000AE014C5F5F4F9827892798270E942B1F04
:103AA0000FC06B8170E089819A81AE014C5F5F4FDE
:103AB0009827892798270E944C1F02C08FEF888380
:103AC000612FCE010E94BE23DF91CF911F910895F7
:103AD00080E00E94EE158A83F3CFCF93DF93EC0151
:103AE000FB018281882309F43CC1C330FDE5DF0777
:103AF00060F4CA3F9CE5D90788F49E0122503C45FA
:103B00002431310508F02EC109C0C136EDE5DE07CC
:103B100029F0C53AFDE5DF0709F024C10E948112B2
:103B20009093680380936703C1318CE5D80709F44B
:103B3000C6C008F042C0C930ECE5DE0709F49BC0FE
:103B400000F5C5308CE5D80709F485C078F4C3309A
:103B5000ECE5DE0709F478C008F07AC0C230DC4535
:103B600009F0F5C0809167038160EFC0C7309CE524
:103B7000D90709F478C008F07AC0809167038061A2
:103B8000E4C0CD30FCE5DF0709F487C058F4CB3042
:103B90009CE5D90709F479C008F07BC080916703E0
:103BA00088606FC0CF30FCE5DF0709F480C008F003
:103BB00082C080916703877FC8C0CD3F9CE5D9074D
:103BC00009F471C000F5C531FCE5DF0709F485C0D3
:103BD00068F4C3319CE5D90709F475C008F095C0B5
:103BE0000E94F50C809167038F77AFC0CB3FFCE557
:103BF000DF07A9F108F054C0CA3FDC4509F0A7C0AF
:103C00008091680340C0C130EDE5DE0709F489C04A
:103C100058F4CF3F8CE5D80709F45AC008F069C0C2
:103C20008091680382602FC0C136EDE5DE0709F49C
:103C30007CC0C53AFDE5DF0709F481C0C230DD452F
:103C400009F085C080E06EC08091670382607DC00E
:103C50008091670316C080916703886076C0809169
:103C6000680382604FC08091670380626EC080915C
:103C7000670380646AC00E94F50C809167038068C6
:103C800064C0846062C081603DC0809167038E7FA4
:103C90005CC0809167038D7F58C08091670316C018
:103CA0008091680318C0809168038D7F2BC080913C
:103CB00067038F7E4AC0809167038F7D46C08091E5
:103CC00067038F7B42C080916703877F8B7F3DC0F6
:103CD000809168038D7F8E7F15C08091670382FB82
:103CE000222720F991E0922790FB82F990FB83F93B
:103CF0002CC080916803982F909591708E7F892BAE
:103D000090FB81F98093680322C00E94F50C80919A
:103D1000670387FB222720F991E0922790FB87F920
:103D200014C081E00E941B1312C08091670384FBC2
:103D3000222720F991E0922790FB84F906C0809118
:103D40006703982F909590FB80F98093670380918B
:103D50006703909168030E9492120E94F50C80E024
:103D600001C081E0DF91CF91089588E0089550E08F
:103D7000440F551F2AE0629F400D511D11249A01E6
:103D80006AE0869F200D311D1124C9018796089590
:103D90000F931F93CF93DF938830A0F4611112C06B
:103DA000453080F40E94B71E8C010E94EB2B90E0FE
:103DB000D82FCC27C80101960E94EB2B9E01282BFF
:103DC000C90102C080E090E0DF91CF911F910F9177
:103DD00008950F931F93CF93DF93883080F4611180
:103DE0000EC0453060F4E9010E94B71E8C016D2FB2
:103DF0000E94FF2B6C2FC80101960E94FF2BDF91C0
:103E0000CF911F910F910895FF920F931F93CF931E
:103E1000DF93F12C00E010E0C0E0D0E0FE01E00F05
:103E2000F11FEE0FFF1FE35CFE4F259134914C2FE5
:103E300060E08F2D0E94E91E2196C530D10571F7F3
:103E40000B5F1F4FF39488E0F812E6CFCDB7DEB7D3
:103E5000E5E00C94D02BEF92FF920F931F93CF933A
:103E6000DF93EA017A01E60EF71E8C01C8018796FE
:103E7000CE15DF0561F00035110520F40E94EB2B13
:103E8000888301C0188221960F5F1F4FEFCFCDB7F7
:103E9000DEB7E6E00C94CF2BEF92FF920F931F93C7
:103EA000CF93DF93EA017A01E60EF71E8C01C80179
:103EB0008796CE15DF0551F00035110518F468819D
:103EC0000E94FF2B21960F5F1F4FF1CFCDB7DEB7BA
:103ED000E6E00C94CF2B883048F4711107C06530B0
:103EE00028F4462F60E00E94C81E089580E090E00C
:103EF000089580E1089589E893E00895EF92FF9294
:103F00000F931F93CF93DF93EA017A01E60EF71E1A
:103F10008C01C80189589F4FCE15DF0569F009381B
:103F200023E0120720F40E94EB2B888301C0188243
:103F300021960F5F1F4FEDCFCDB7DEB7E6E00C94B3
:103F4000CF2BEF92FF920F931F93CF93DF93EA0152
:103F50007A01E60EF71E8C01C80189589F4FCE15D5
:103F6000DF0559F0093823E0120718F468810E9430
:103F7000FF2B21960F5F1F4FEFCFCDB7DEB7E6E0E7
:103F80000C94CF2BCF93DF93C7E7D0E060E0CE0156
:103F90000E94FF2B2196C11584E0D807B9F7DF9165
:103FA000CF910895A4E0B0E0E8EDFFE10C94B22BCE
:103FB000F82E8FE08F15E8F18FEF93E00E94EB2B46
:103FC000811137C007E710E0FF2069F0011584E098
:103FD000180779F1C8010E94EB2B811101C0FA94F6
:103FE0000F5F1F4FF1CF19821A821B821C82DD24C2
:103FF000D39478018FEFE81AF80AC8010E94EB2BDE
:1040000089831A828823A9F09FEF980F933058F480
:104010008A83D9820E5F1F4FC7010E94EB2B8B83CF
:10402000882339F07801CE0101960E9409098701A1
:10403000E0CF2496E7E00C94CE2BCF93DF9386312C
:104040009C4541F5EB010E946611982F8A812091D1
:10405000060130910701882379F09A7A81E009F40A
:1040600080E080933002911102C069E201C065E3F3
:10407000C9010E9400220AC080913002811102C051
:1040800069E201C065E3C9010E9403220E94AA11EE
:1040900080E001C081E0DF91CF9108950F931F93DD
:1040A000CF93DF93C42FD22FFC0182818823B1F0FC
:1040B000409333020E94BF229093320280933102D8
:1040C00080E28C0F883008F04DC0C77081E001C0DD
:1040D000880FCA95EAF70E94830A44C08091330290
:1040E000481330C080913102909132020E94D72251
:1040F000883C910538F510E21D0FCD17B9F080E22C
:104100008C0F883040F4C77081E001C0880FCA95D9
:10411000EAF70E948A0A183010F581E09D2F977007
:1041200001C0880F9A95EAF70E94830A802F0E94A7
:10413000790A1830B8F4D77081E001C0880FDA9599
:10414000EAF70AC080E28C0F883060F4C77081E023
:1041500001C0880FCA95EAF70E948A0A03C0802F1F
:104160000E94790ADF91CF911F910F9108950F93CB
:104170009C01CB01233F4CE5340731F188F4283D05
:10418000FCE53F07D9F0293D4CE5340779F1273D9F
:104190003C45A9F506E221EE41EE67ED7CE52BC03A
:1041A000253FFCE53F07E1F0A8F0263F3C4539F507
:1041B00007E225EE46EE66EF7CE51DC007E225EE40
:1041C00045EE68ED7CE517C006E221EE40EE63EFB8
:1041D0007CE511C007E225EE44EE64EF7CE50BC000
:1041E00006E221EE42EE65EF7CE505C008E221E043
:1041F00045EE69ED7CE50E944E2080E008C0FC01A0
:104200008281882319F01092330201C081E00F915E
:10421000089596E890937A00982F90729068909302
:104220007B008F7190911001892B80937C0080918D
:104230007A00806480937A0080917A0086FDFCCFBA
:10424000809178002091790090917A009F779093E7
:104250007A0090E0922B08959093AF018093AE0185
:10426000089590933902809338020895E0913802BE
:10427000F0913902309729F00190F081E02D0995F5
:10428000089580E00895EF92FF920F931F93CF93CC
:10429000DF93E0913802F0913902309781F18C017F
:1042A0000280F381E02D09958091130282FF27C0DF
:1042B00080FF04C08BE093E00E94C302E80118E095
:1042C00085E0E82E83E0F82E8091130280FF0BC07A
:1042D00088811F928F93FF92EF920E945C030F9050
:1042E0000F900F900F90115021961111EDCF8091EA
:1042F000130280FF04C083E093E00E94C302CDB7A5
:10430000DEB7E6E00C94CF2BE0913802F091390251
:10431000309739F022E0DC012C930480F581E02D08
:1043200009950895209136023091370228173907F0
:1043300071F09093370280933602E0913802F09149
:104340003902309721F00680F781E02D0995089514
:1043500020913402309135022817390771F090937B
:10436000350280933402E0913802F091390230979F
:1043700021F00084F185E02D09950895FC01329625
:1043800097E080E0915029F021912223D9F38F5FAB
:10439000F9CF0895662349F0FC01329608962191E1
:1043A000621729F0E817F907D1F780E0089581E056
:1043B00008959C01FC0132969FEF80E041914617E1
:1043C00089F09F3F19F4411101C0982F8F5F86300B
:1043D000A9F79F3F39F0F901E90FF11D97FDFA9513
:1043E0006283089508959C012A5F3F4FFC0142813A
:1043F000461301C01282019682179307B9F70895F8
:104400000E94D92108950E94F3210895029626E082
:10441000FC0111922A95E9F7089546E050E00E94C8
:10442000DE2B21E0892B09F420E0822F08950895E6
:104430000E941722089583E080933A020E94182276
:104440000895811102C081E001C082E080933A02A8
:104450000E94182208950E942122089581E08093ED
:104460003A020E94182208950E942E22089508956B
:104470000E94372208950E94382208950E94372210
:1044800008950E94372208950E94372208950E94BD
:1044900041220E9494160E943E2280E00E94EE1566
:1044A00091E0811101C090E0892F089585B780685F
:1044B00085BF85B7806885BF08951F920F920FB69C
:1044C0000F9211248F939F93AF93BF9380913B02E0
:1044D000811113C080916B0390916C03A0916D03C7
:1044E000B0916E034196A11DB11D80936B03909313
:1044F0006C03A0936D03B0936E03BF91AF919F9136
:104500008F910F900FBE0F901F901895809173039D
:10451000843031F10E94390810923B0220E488E196
:1045200090E00FB6F894A895809360000FBE20939A
:10453000600083B7817F846083BF83B7816083BF5E
:104540007894889583B78E7F83BF0FB6F894A8952B
:1045500080916000886180936000109260000FBEBF
:1045600008950E94F50C0E944008089582E084BDE1
:1045700093E095BD9AEF97BD80936E0008952FB795
:10458000F89480916B0390916C03A0916D03B091AE
:104590006E032FBF08952FB7F89460916B0370914D
:1045A0006C0380916D0390916E032FBF08959C0161
:1045B0004FB7F89480916B0390916C03A0916D03B9
:1045C000B0916E034FBF821B930B089578941F9296
:1045D0000F920FB60F9211248F939F93AF93BF93B7
:1045E00080916B0390916C03A0916D03B0916E0369
:1045F0000196A11DB11D80936B0390936C03A09352
:104600006D03B0936E03BF91AF919F918F910F9007
:104610000FBE0F901F90189581E08093E00080E21C
:104620008093D8001092C9008FE19EE40197F1F7C2
:1046300000C0000087E090EBDC0180937C03909346
:104640007D03A0937E03B0937F039CE088E10FB6C7
:10465000F894A895809360000FBE90936000FFCF00
:104660009CE088E10FB6F894A895809360000FBE97
:1046700090936000FFCF80914A020895089524E04E
:104680002093E9002FEF3091E800215035FD06C05E
:1046900035ED3A95F1F700002111F5CF2091E800B2
:1046A00025FF0BC040E050E066E070E00E949426D9
:1046B0008091E8008E778093E8000895CF93DF9390
:1046C00021E02093E9002FEF3091E800215035FDE3
:1046D00006C035ED3A95F1F700002111F5CF209194
:1046E000E80025FF14C0EC0140E050E068E070E015
:1046F0000E9494268091E8008E778093E80088E0FD
:10470000FE01A2E4B2E001900D928A95E1F7DF91FB
:10471000CF91089580933E027093400260933F02D0
:10472000809173038430F9F48093E9008FEF9091C6
:10473000E800815095FD06C095ED9A95F1F70000CF
:104740008111F5CF8091E80085FF0DC040E050E079
:1047500063E070E08EE392E00E9494268091E8008E
:104760008E778093E8000895BC0184E00E948A233C
:104770000895BC0183E00E948A230895CF9360329C
:1047800019F5209173032430F9F4C091E900CF703A
:104790003091EC00232F217030FD20E8C22B22E065
:1047A0002093E9002091E80020FF0BC040E050E09A
:1047B00060E270E00E9494268091E8008E778093FA
:1047C000E800CF70C093E900CF91089581E393E0B2
:1047D0000E94C30280917203811109C00E94642863
:1047E0000E94C1288091E20084608093E2000895D5
:1047F0008DE293E00E94C30210927203089589E251
:1048000093E00E94C3020E943422089585E293E05F
:104810000E94C30260916F0381E0611101C080E0DA
:104820000E941B22089581E293E00E94C3029091AE
:10483000730381E0943009F080E060916F030E947F
:104840002122089520913D022F5F822F62E30E9472
:10485000662B992319F020933D02089510923D0292
:1048600080914102882371F180917303843041F576
:104870008091E9008F702091EC00922F917020FDC3
:1048800090E8892B95E09093E9009091EB0090FFE0
:1048900014C09091EE0097FF10C09091E80095FF32
:1048A00003C01092F100F9CF9091E80090FF05C08D
:1048B0009091E8009E779093E8008F708093E900D4
:1048C00010924102089542E061EC81E00E94DD27F0
:1048D00042E261EC84E00E94DD2742E261EC82E08A
:1048E0000E94DD2742E260EC83E00E94DD2742E285
:1048F00061EC85E00E94DD279091730381E09430A4
:1049000009F080E060916F030E942B22089580914E
:104910007503833009F463C030F4813071F0823064
:1049200009F49DC008958A3009F489C08B3009F4D8
:104930006EC0893009F0ABC020C080917403813A09
:1049400009F0A5C08091E800877F8093E8008091FE
:10495000780390917903892B21F468E082E492E056
:1049600003C060E080E090E070E00E941E2780912C
:10497000E8008B778093E80008958091740381327A
:1049800009F085C08091780390917903009719F020
:10499000029709F07CC08091E800877F8093E8004F
:1049A0008091E80082FD05C0809173038111F8CFEA
:1049B0006EC02091F3008091F20090E0922B02975C
:1049C00031F48091F100813011F0863021F4809132
:1049D000F10080934A028091E8008B7754C0809167
:1049E0007403813A09F053C0809178039091790360
:1049F000892B09F04CC08091E800877F8093E80004
:104A00008091E80080FFFCCF80911D0137C080912C
:104A100074038132E1F58091780390917903892BB9
:104A2000B1F58091E800877F8093E8000E9412280A
:104A30008091760380931D010E94F50C089580916A
:104A40007403813221F58091E800877F8093E8002C
:104A50000E9412288091770380934B0208958091E1
:104A60007403813AA1F48091E800877F8093E80085
:104A70008091E80080FFFCCF80914B028093F10091
:104A80008091E8008E778093E8000E9412280895B4
:104A90009FB7F894109241029FBF90917303943096
:104AA00009F057C09091E9009F703091EC00232FDE
:104AB000217030FD20E8922B25E02093E900209121
:104AC000EB0020FF43C02091EE0027FF3FC0209164
:104AD0003C02222321F02091E80025FF37C01092EC
:104AE0003C0226E03091E80035FD15C0309173039B
:104AF000343061F53091EB0035FD28C0215021F4B0
:104B000081E080933C0222C0EFE9FFE03197F1F7AA
:104B100000C00000E7CF8093F1008091E80085FDA0
:104B20000AC08091E80080FFFCCF8091E8008E777A
:104B30008093E80006C08FB7F89421E020934102EB
:104B40008FBF9F709093E90080E008959F709093CD
:104B5000E9008FEF089584B7877F84BF0FB6F8947C
:104B6000A895809160008861809360001092600039
:104B70000FBE90E080E80FB6F894809361009093A8
:104B800061000FBE0E942E2208950E9464280E9498
:104B9000C128E2EEF0E080818460808378940E94F6
:104BA0004B2B089581E191E00E943121089580917D
:104BB00073038530C9F48DE193E00E94C3028091B4
:104BC0007303853079F40E948622809171038823D3
:104BD000B1F30E944722882391F30E947E260E940F
:104BE000F50CEDCF0E94B1220895A0E2B0E0EBEF0A
:104BF000F5E20C94B72B80917303843011F583E0B8
:104C00008093E9008091E80082FF1BC08091E8005A
:104C100085FF0AC040E050E060E270E0CE010196FE
:104C20000E94D92691E001C090E08091E8008B7746
:104C30008093E800992329F060E2CE0101960E945A
:104C4000CE1CA096E2E00C94D32B0E942826089557
:104C5000292F332723303105C9F060F42130310585
:104C600081F02230310509F041C08BE790E02DE65C
:104C700033E040C021323105E1F02232310531F11B
:104C800035C082E190E028EE33E034C099278130CE
:104C9000910549F028F0029749F5E5E3F3E005C0F6
:104CA000E9E6F3E002C0E5E5F3E0849190E09F01DE
:104CB00021C064307105D0F4660F771FFB01EB55FE
:104CC000FE4F2081318189E090E014C0643071058D
:104CD00068F4FB01EE0FFF1FE356FE4F2081318188
:104CE000FB01E756FE4F808190E004C080E090E039
:104CF00020E030E0FA0131832083089580E189BD0E
:104D000082E189BD09B400FEFDCF8091D8008F7D7E
:104D10008093D8008091E00082608093E0008091D1
:104D2000E00081FDFCCF0895A0E0B0E0EAE9F6E202
:104D30000C94B12BEC018B017A010E943128811176
:104D400033C0E114F10439F0F70180819181081B2F
:104D5000190BC80FD91FC12CD12C0115110519F140
:104D60008091E80085FD16C08091E8008E778093E1
:104D7000E800E114F10449F0F70180819181C80E47
:104D8000D91ED182C08285E00FC00E9431288823BD
:104D900021F30AC089918093F10001501109FFEFBE
:104DA000CF1ADF0ADACF80E0CDB7DEB7E8E00C94A7
:104DB000CD2BA0E0B0E0EFEDF6E20C94B12BEC01CE
:104DC0008B017A010E943128811133C0E114F10472
:104DD00039F0F70180819181081B190BC80FD91F89
:104DE000C12CD12C0115110519F18091E80085FD28
:104DF00016C08091E8008B778093E800E114F104FD
:104E000049F0F70180819181C80ED91ED182C082FC
:104E100085E00FC00E943128882321F30AC08091C9
:104E2000F100899301501109FFEFCF1ADF0ADACFA1
:104E300080E0CDB7DEB7E8E00C94CD2B20917A036B
:104E400030917B032617370748F06115710539F457
:104E50002091E8002E772093E80001C0B901FC0101
:104E600020E06115710579F1809173038823F1F1D8
:104E70008530F1F18091E80083FD3CC08091E8002D
:104E800082FD2EC08091E80080FFEBCF2091F300DF
:104E90008091F20090E0922B6115710551F08830FD
:104EA000910538F421912093F10061507109019628
:104EB000F3CF21E0089709F020E08091E8008E7799
:104EC0008093E800CECF2111CFCF0AC08091730329
:104ED000882361F0853061F08091E80083FD0AC08D
:104EE0008091E80082FFF2CF80E0089582E008958B
:104EF00083E0089581E0089520917A0330917B0347
:104F00002617370748F06115710539F42091E8003C
:104F10002E772093E80001C0B901FC0120E0611563
:104F2000710591F180917303882309F440C08530A5
:104F300009F43FC08091E80083FD3DC08091E80006
:104F400082FD2FC08091E80080FFE9CF2091F3001F
:104F50008091F20090E0922B6115710559F0883034
:104F6000910540F424912093F1003196615071092C
:104F70000196F2CF21E0089709F020E08091E80047
:104F80008E778093E800CBCF2111CCCF0AC08091DF
:104F90007303882361F0853061F08091E80083FD20
:104FA0000AC08091E80082FFF2CF80E0089582E09D
:104FB000089583E0089581E00895982F973068F56B
:104FC0009093E900981739F07091EC002091ED0072
:104FD0005091F00003C0242F762F50E021FD02C035
:104FE0009F5FECCF3091EB003E7F3093EB00309130
:104FF000ED003D7F3093ED003091EB003160309358
:10500000EB007093EC002093ED005093F0002091A2
:10501000EE0027FDE5CF80E008958F708093E900D2
:1050200081E008958091740387FF11C08091E800AA
:1050300082FD05C0809173038111F8CF11C080916A
:10504000E8008B770BC080917303882349F080912F
:10505000E80080FFF8CF8091E8008E778093E80029
:1050600008952091E4003091E50095E64091EC0030
:10507000842F817040FF23C08091E80080FD1DC017
:1050800080917303882399F0853099F08091EB002B
:1050900085FD11C04091E4005091E50024173507CB
:1050A00029F3915011F09A01E1CF84E0089582E054
:1050B000089583E0089581E0089580E00895409187
:1050C000E80042FFDDCF08950E94D3280E94DB282C
:1050D000E0EEF0E0808181608083E8EDF0E08081A7
:1050E0008F77808319BCA7EDB0E08C918E7F8C9375
:1050F00080818F7E80831092720308950F931F9397
:10510000CF93DF930E94D3280E94DB28C8EDD0E024
:1051100088818F77888388818068888388818F7D64
:10512000888319BC1092730310926F03109271035D
:105130001092700300EE10E0F80180818B7F808375
:1051400088818160888342E060E080E00E94DD2702
:10515000E1EEF0E080818E7F8083E2EEF0E08081FE
:1051600081608083808188608083F80180818E7F68
:105170008083888180618883DF91CF911F910F9117
:105180000895E8EDF0E080818F7E8083E7EDF0E028
:1051900080818160808384E082BF81E0809372039C
:1051A0000E947E280895E8EDF0E080818E7F808364
:1051B0001092E20008951092DA001092E100089532
:1051C0001F920F920FB60F9211242F933F934F937C
:1051D0005F936F937F938F939F93AF93BF93EF935F
:1051E000FF938091E10082FF0BC08091E20082FF7B
:1051F00007C08091E1008B7F8093E1000E94222410
:105200008091DA0080FF1FC08091D80080FF1BC012
:105210008091DA008E7F8093DA008091D90080FF40
:105220000DC080E189BD82E189BD09B400FEFDCFDA
:1052300081E0809373030E94E62305C019BC10929D
:1052400073030E94F8238091E10080FF19C08091D0
:10525000E20080FF15C08091E2008E7F8093E20023
:105260008091E20080618093E2008091D8008062AA
:105270008093D80019BC85E0809373030E940624B4
:105280008091E10084FF30C08091E20084FF2CC057
:1052900080E189BD82E189BD09B400FEFDCF809126
:1052A000D8008F7D8093D8008091E1008F7E80931D
:1052B000E1008091E2008F7E8093E2008091E20025
:1052C00081608093E20080916F03882311F084E075
:1052D00007C08091E30087FD02C081E001C083E048
:1052E000809373030E9413248091E10083FF29C0FF
:1052F0008091E20083FF25C08091E100877F809349
:10530000E10082E08093730310926F038091E100CB
:105310008E7F8093E1008091E2008E7F8093E20097
:105320008091E20080618093E20042E060E080E0F2
:105330000E94DD278091F00088608093F0000E9439
:10534000FF23FF91EF91BF91AF919F918F917F913B
:105350006F915F914F913F912F910F900FBE0F90E2
:105360001F9018951F920F920FB60F9211242F9332
:105370003F934F935F936F937F938F939F93AF93DD
:10538000BF93CF93DF93EF93FF93C091E900CF706A
:105390008091EC00D82FD17080FDD0E81092E90008
:1053A0008091F000877F8093F00078940E94F62926
:1053B0001092E9008091F00088608093F000CD2B7E
:1053C000CF70C093E900FF91EF91DF91CF91BF9132
:1053D000AF919F918F917F916F915F914F913F918D
:1053E0002F910F900FBE0F901F901895AAE2B0E07A
:1053F000ECEFF9E20C94B62BE4E7F3E08091F100D6
:10540000819323E0EC37F207C9F70E94872480914B
:10541000E80083FF2EC18091740390917503492F9A
:1054200050E04A30510508F024C1FA01EB58FF4F13
:105430000C949A2B803821F0823809F01AC108C0E8
:105440008091700390917103992389F082600FC05D
:10545000809178038F70873008F00BC18093E9004A
:105460008091EB0085FB882780F91092E9009091EC
:10547000E800977F9093E8008093F1001092F1008C
:10548000D1C0282F2D7F09F0F4C0882319F0823075
:1054900061F0EFC080917603813009F0EAC093306B
:1054A00009F080E0809371032EC080917603811112
:1054B0002AC0809178038F702FEF280F263008F0D4
:1054C000D8C08093E9002091EB0020FF1CC09330EE
:1054D00021F48091EB00806214C09091EB00906108
:1054E0009093EB0021E030E0A90102C0440F551F6A
:1054F0008A95E2F74093EA001092EA008091EB006F
:1055000088608093EB001092E9008091E800877F2B
:105510008093E8000E941228ACC08111AAC01091AB
:1055200076031F778091E3008078812B8093E300DE
:105530008091E800877F8093E8000E941228809184
:10554000E80080FFFCCF8091E30080688093E30057
:10555000111102C082E001C083E08093730389C00F
:105560008058823008F085C080917603909177034F
:105570008C3D53E0950779F583E08A838AE289833D
:105580004FB7F894DE01139620E03EE051E2E32F9E
:10559000F0E050935700E49120FF03C0E295EF70D4
:1055A0003F5FEF708E2F90E0EA3010F0C79601C099
:1055B000C0968D939D932F5F243149F74FBF809103
:1055C000E800877F8093E8006AE270E0CE010196F0
:1055D0000E941E2716C06091780370917903AE0176
:1055E0004F5F5F4F0E942526BC01892B09F441C003
:1055F0009091E800977F9093E80089819A810E94BA
:105600007C278091E8008B778093E80032C0803857
:1056100081F58091E800877F8093E80080916F0397
:105620008093F1008091E8008E7772CF811121C0C4
:10563000809176039091770399270297D4F4809113
:10564000E800877F8093E8008091760380936F0362
:105650000E94122880916F03811106C08091E3009F
:1056600087FD02C081E001C084E0809373030E9443
:1056700063248091E80083FF0AC08091E800877F5F
:105680008093E8008091EB0080628093EB00AA9603
:10569000E3E00C94D22BCF93809173038823A1F085
:1056A000C091E900CF709091EC00892F817090FD3E
:1056B00080E8C82B1092E9008091E80083FD0E94E9
:1056C000F629CF70C093E900CF910895991B79E036
:1056D00004C0991F961708F0961B881F7A95C9F782
:1056E00080950895AA1BBB1B51E107C0AA1FBB1FD1
:1056F000A617B70710F0A61BB70B881F991F5A955E
:10570000A9F780959095BC01CD01089597FB072ED0
:1057100016F4009407D077FD09D00E94722B07FC85
:1057200005D03EF4909581959F4F089570956195B1
:105730007F4F0895EE0FFF1F0590F491E02D09941F
:1057400069279627692778278727782708952F9232
:105750003F924F925F926F927F928F929F92AF9201
:10576000BF92CF92DF92EF92FF920F931F93CF934E
:10577000DF93CDB7DEB7CA1BDB0B0FB6F894DEBFE5
:105780000FBECDBF09942A88398848885F846E840B
:105790007D848C849B84AA84B984C884DF80EE8055
:1057A000FD800C811B81AA81B981CE0FD11D0FB65E
:1057B000F894DEBF0FBECDBFED010895FB01DC0103
:1057C00004C08D910190801921F441505040C8F7D8
:1057D000881B990B0895F999FECF92BD81BDF89A67
:1057E000992780B50895A6E1B0E044E050E00C941C
:1057F000252CA8E1B0E042E050E00C94252C262FA7
:10580000F999FECF92BD81BDF89A019700B40216B6
:1058100039F01FBA20BD0FB6F894FA9AF99A0FBE64
:1058200008950396272F0E94002C0E94FF2B252FFE
:105830000E94002C242F0C94002C0196272F0E94EC
:10584000002C0C94FF2BDC01CB01FC01F999FECF5D
:1058500006C0F2BDE1BDF89A319600B40D924150F8
:0A5860005040B8F70895F894FFCF08
:10586A007701EE025F050002280850011E0A1401A2
:10587A00403B235E233F23B923B4233E23013567EC
:10588A009091939596F1F3F5F6F7E200E900EA00B4
:10589A00B500B600B700CD008301CC008A019201A1
:1058AA0094012102230224022502260227022A0247
:1058BA00B300B4006F007000818283E200E900EA5D
:1058CA0000B500B600B700CD008301CC008A019272
:1058DA000194012102230224022502260227022A18
:1058EA0002B300B4006F0070008182839492C636BE
:1058FA0097F71B301B0A1C1E1C40227B22B9041C72
:0E590A00043E04FA037F039803B803D10300A0
:00000001FF
